:020000040000FA
:1000000000040020E508000079050000C508000094
:10001000830500008D05000097050000000000002A
:1000200000000000000000000000000009090000BE
:10003000A105000000000000AB050000B5050000B0
:10004000BF050000C9050000D3050000DD05000064
:10005000E7050000F1050000FB05000005060000B3
:100060000F06000019060000230600002D06000000
:1000700037060000410600004B0600005506000050
:100080005F06000069060000730600007D060000A0
:1000900087060000910600009B060000A5060000F0
:1000A000AF060000B9060000C3060000CD06000040
:1000B000D7060000E1060000EB060000F506000090
:1000C000FF06000009070000130700001D070000DD
:1000D00027070000310700003B070000450700002C
:1000E0004F07000059070000630700006D0700007C
:1000F00077070000810700008B07000095070000CC
:100100009F0700001FB500F003F88DE80F001FBD2A
:1001100000F0DEBB1FB56FF00100009040100390AF
:10012000029001904FF010208069000B420900F00E
:100130001F045DF822300120A04083434DF8223097
:10014000684600F044F91FBDF0B54FF6FF734FF459
:10015000B4751A466E1E11E0A94201D3344600E080
:100160000C46091B30F8027B641E3B441A44F9D14B
:100170009CB204EB134394B204EB12420029EBD17E
:1001800098B200EB134002EB124140EA0140F0BD8F
:10019000DD4992B00446D1E90001CDE91001FF220A
:1001A0004021684600F03AFB94E80F008DE80F000C
:1001B000684610A902E004C841F8042D8842FAD12B
:1001C00010216846FFF7C0FF1090AA208DF8440068
:1001D000FFF7A0FF00F0F2F84FF01024A069102202
:1001E0006946803000F001F9A069082210A900F0EA
:1001F000FCF800F0D7F84FF080510A6949690068AF
:100200004A43824201D8102070470020704710B541
:10021000D0E900214FF0805002EB8103026944696C
:100220006243934209D84FF01022536903EB8103D4
:100230000169406941438B4201D9092010BD5069D1
:10024000401C01D0002010BD0F2010BD70B501680A
:100250000446AE4D4FF01020062951D2DFE801F0E0
:10026000320318283B1DD4E90265646829463046EC
:1002700000F0CDF82A462146304600F0B6F8AA0034
:100280002146304600F09EFA002800D0032070BDC1
:1002900000F050FB4FF4805007E0201DFFF7ABFF4C
:1002A0000028F4D100F046FB60682860002070BD93
:1002B000241D94E80700920000F084FA0028F6D08C
:1002C0000E2070BD8069401C12D0201DFFF79FFFDB
:1002D0000028F6D109E08069401C09D0201DFFF7F5
:1002E0008AFF0028EDD1606820B12046FFF750FF5B
:1002F000042070BDFFF70EFF00F060F800F052F828
:10030000072070BD10B50C46182802D001200860E7
:1003100010BD2068FFF79AFF206010BD4FF0102439
:10032000A069401C05D0A569A66980353079AA2846
:1003300008D06069401C2DD060690068401C29D03D
:1003400060692CE010212846FFF7FEFE31688142EB
:100350001CD1A16901F18002C03105E030B108CAA9
:1003600051F8040D984201D1012000E000208A429A
:10037000F4D158B1286810B1042803D0FEE728460C
:1003800000F057F861496868086008E000F016F866
:1003900000F008F84FF480500168491C01D000F0CB
:1003A000A3FAFEE7BFF34F8F59480168594A01F499
:1003B000E06111430160BFF34F8FFEE74FF0102063
:1003C0008169491C02D0806900F0ADB87047524A7B
:1003D00001681160121D416811604F4A8168103236
:1003E0001160111DC068086070472DE9F041174683
:1003F0000D460646002406E03046296800F0A6F8BF
:10040000641C2D1D361DBC42F6D3BDE8F08170B5CD
:100410000C4605464FF4806608E0284600F083F855
:10042000B44205D3A4F5806405F58055002CF4D1C1
:1004300070BD4168044609B1012500E000254FF078
:1004400010267069A268920000F0BCF9C8B120467D
:1004500000F01AF89DB17669A56864684FF4002031
:1004600084420AD2854208D229463046FFF7CFFFA0
:100470002A4621463046FFF7B8FFFFF79FFFFFF7F8
:1004800091FFFFF747FEF8E72DE9FF414FF01024F9
:10049000616980680D0B01EB800000F6FF70010BB5
:1004A00000200090019002900246039068460123CC
:1004B0000BE0560902F01F0C50F8267003FA0CFCF2
:1004C00047EA0C0740F82670521CAA42F1D30AE012
:1004D0004A0901F01F0650F8225003FA06F6354388
:1004E00040F82250491C8029F2D3A169090B4A091E
:1004F00001F01F0150F822408B409C4340F82240FD
:10050000FFF765FFBDE8FF815809000000000020EB
:100510000CED00E00400FA050006004014480168F4
:100520000029FCD07047134A0221116010490B6862
:10053000002BFCD00F4B1B1D186008680028FCD056
:100540000020106008680028FCD07047094B10B5E7
:1005500001221A60064A1468002CFCD00160106861
:100560000028FCD00020186010680028FCD010BDC6
:1005700000E4014004E5014008208F49096809585A
:10058000084710208C4909680958084714208A49EF
:100590000968095808471820874909680958084711
:1005A0003020854909680958084738208249096878
:1005B000095808473C2080490968095808474020E5
:1005C0007D4909680958084744207B49096809584A
:1005D0000847482078490968095808474C20764957
:1005E000096809580847502073490968095808479D
:1005F0005420714909680958084758206E4909680C
:10060000095808475C206C49096809580847602068
:100610006949096809580847642067490968095801
:100620000847682064490968095808476C206249EE
:1006300009680958084770205F4909680958084740
:1006400074205D4909680958084778205A490968A3
:10065000095808477C2058490968095808478020EC
:1006600055490968095808478420534909680958B9
:100670000847882050490968095808478C204E4986
:1006800009680958084790204B49096809580847E4
:10069000942049490968095808479820464909683B
:1006A000095808479C204449096809580847A02070
:1006B0004149096809580847A4203F490968095871
:1006C0000847A8203C49096809580847AC203A491E
:1006D000096809580847B020374909680958084788
:1006E000B4203549096809580847B82032490968D3
:1006F00009580847BC203049096809580847C020F4
:100700002D49096809580847C4202B490968095828
:100710000847C8202849096809580847CC202649B5
:10072000096809580847D02023490968095808472B
:10073000D4202149096809580847D8201E4909686A
:1007400009580847DC201C49096809580847E02077
:100750001949096809580847E420174909680958E0
:100760000847E8201449096809580847EC2012494D
:10077000096809580847F0200F49096809580847CF
:10078000F4200D49096809580847F8200A49096802
:1007900009580847FC2008490968095808475FF4C8
:1007A0008070054909680958084700000348044952
:1007B000024A034B70470000000000206809000057
:1007C0006809000040EA010310B59B070FD1042A15
:1007D0000DD310C808C9121F9C42F8D020BA19BA0C
:1007E000884201D9012010BD4FF0FF3010BD1AB171
:1007F000D30703D0521C07E0002010BD10F8013BC6
:1008000011F8014B1B1B07D110F8013B11F8014BEC
:100810001B1B01D1921EF1D1184610BD02F0FF033F
:1008200043EA032242EA024200F005B870477047EB
:1008300070474FF000020429C0F0128010F0030C42
:1008400000F01B80CCF1040CBCF1020F18BF00F8C3
:10085000012BA8BF20F8022BA1EB0C0100F00DB872
:100860005FEAC17C24BF00F8012B00F8012B48BFD0
:1008700000F8012B70474FF0000200B51346944674
:100880009646203922BFA0E80C50A0E80C50B1F1E8
:100890002001BFF4F7AF090728BFA0E80C5048BFFC
:1008A0000CC05DF804EB890028BF40F8042B08BF9A
:1008B000704748BF20F8022B11F0804F18BF00F896
:1008C000012B7047014B1B68DB68184700000020B4
:1008D00009480A497047FFF7FBFFFFF713FC00BD0B
:1008E00020BFFDE7064B1847064A1060016881F3F8
:1008F0000888406800470000680900006809000097
:100900001D030000000000201EF0040F0CBFEFF3D9
:100910000881EFF30981886902380078182803D12B
:1009200000E00000074A1047074A12682C3212689C
:100930001047000000B5054B1B68054A9B589847B7
:1009400000BD000005030000000000205409000065
:1009500004000000001000000000000000FFFFFF86
:040960000090D00330
:10100000E81100206DE10100452F0000DBE0010048
:10101000452F0000452F0000452F00000000000074
:10102000000000000000000000000000C5E1010019
:10103000452F000000000000452F0000452F000054
:101040002DE2010033E20100452F0000452F000092
:10105000452F0000452F0000452F0000452F0000C0
:1010600039E20100452F0000452F00003FE201005A
:10107000452F000045E201004BE2010051E2010072
:10108000452F0000452F0000452F0000452F000090
:10109000452F0000452F0000452F0000452F000080
:1010A000452F000057E20100452F0000452F0000AA
:1010B000452F0000452F0000452F0000452F000060
:1010C0005DE20100452F0000452F0000452F000084
:1010D000452F0000452F0000452F0000452F000040
:1010E000452F0000452F0000452F0000452F000030
:1010F000452F0000452F0000452F0000452F000020
:10110000452F0000452F000000F002F81DF01BF8ED
:101110000AA090E8000C82448344AAF10107DA4552
:1011200001D11DF010F8AFF2090EBAE80F0013F06C
:10113000010F18BFFB1A43F001031847FCD601004A
:101140001CD701000A4410F8014B14F00F0508BF2A
:1011500010F8015B240908BF10F8014B6D1E05D083
:1011600010F8013B6D1E01F8013BF9D1641E03D05C
:10117000641E01F8015BFBD19142E4D3704700008B
:101180000023002400250026103A28BF78C1FBD890
:10119000520728BF30C148BF0B6070471FB500F031
:1011A0003DF88DE80F001FBD1EF0040F0CBFEFF3DC
:1011B0000880EFF30980014A104700009F2E0000CD
:1011C0008269034981614FF00100104470470000BB
:1011D000D511000001B41EB400B511F035F901B409
:1011E0000198864601BC01B01EBD0000F0B4404627
:1011F000494652465B460FB402A0013001B506488D
:10120000004700BF01BC86460FBC80468946924617
:101210009B46F0BC70470000091100001CF090BF15
:1012200070B51A4C054608202070A01C00F05FF82D
:101230005920A08029462046BDE8704008F008B833
:1012400008F011B870B50C461149097829B1A0F120
:101250006001512908D3012013E0602804D06928D7
:1012600002D043F201000CE020CC0A4E94E80E00BC
:1012700006EB8000A0F58050241FD0F8806E284631
:10128000B047206070BD01207047000008000020BA
:101290001C000020A8E2010010B504460021012036
:1012A00000F03BF800210B2000F037F80421192052
:1012B00000F033F804210D2000F02FF804210E2057
:1012C00000F02BF804210F2000F027F80421C84378
:1012D00000F023F80621162000F01FF80621152043
:1012E00000F01BF82046FFF79BFF002010BD99215E
:1012F00001807047FFF7A4BF10487047104A10B52F
:1013000014680F4B0F4A08331A60FFF79BFF0C4815
:10131000001D046010BD704770474907090E002882
:1013200006DA00F00F0000F1E02080F8141D70478D
:1013300000F1E02080F800147047000003F900423B
:101340001005024001000001FE48002101604160DB
:10135000018170472DE9F743044692B091464068F9
:1013600011F026FB40B1606811F02BFB20B96078CA
:1013700000F00300022801D0012000E00020F14E1F
:101380004D463072484611F0CFFA18B1102015B012
:10139000BDE8F0832946012001F02FFF0028F6D197
:1013A00001258DF842504FF4C050ADF840000022A6
:1013B00010A9284606F013FC0028E8D18DF8425009
:1013C0004FF428504FF00008ADF8400047461C216C
:1013D0006846CDF81C801CF058FE9DF81C0008AA39
:1013E00020F00F00401C20F0F00010308DF81C00A1
:1013F00020788DF81D0061789DF81E0061F3420091
:1014000040F001008DF81E009DF800000AA940F090
:1014100002008DF800002089ADF83000ADF8327080
:10142000608907AFADF834000B97606810AC0E9080
:101430000A94684606F0C6F90028A8D1BDF8200035
:1014400030808DF8425042F60120ADF840009DF802
:101450001E0008AA20F00600801C20F001008DF874
:101460001E000220ADF83000ADF8340013A80E9035
:101470000AA9684606F0A6F9002888D1BDF8200020
:101480007080311D484600F033F9002887D18DF86F
:10149000425042F6A620ADF840001C216846CDF827
:1014A0001C801CF0F2FD9DF81C00ADF8345020F0BB
:1014B0000F00401C20F0F00010308DF81C009DF84B
:1014C0001D0008AA20F0FF008DF81D009DF81E00E9
:1014D0000AA920F0060040F00100801C8DF81E00D3
:1014E0009DF800008DF8445040F002008DF8000097
:1014F000CDE90A4711A80E90ADF83050684606F0C5
:1015000061F9002899D1BDF82000F08000203EE765
:101510003EB504460820ADF80000204611F004FA5C
:1015200008B110203EBD2146012001F066FE0028D2
:10153000F8D12088ADF804006088ADF80600A088D6
:10154000ADF80800E088ADF80A007E4801AB6A46B5
:101550008088002106F040FDBDF800100829E1D088
:1015600003203EBD1FB50446002002900820ADF8C0
:101570000800CDF80CD0204611F0D6F910B110209B
:1015800004B010BD6F4802AA81884FF6FF7006F0C4
:10159000BFFF0028F4D1BDF80810082901D00320AE
:1015A000EEE7BDF800102180BDF802106180BDF8A3
:1015B0000410A180BDF80610E180E1E701B582B01A
:1015C0000220ADF800005F4802AB6A464088002167
:1015D00006F002FDBDF80010022900D003200EBD68
:1015E0001CB5002100910221ADF80010019011F00E
:1015F000C1F908B110201CBD52486A4641884FF617
:10160000FF7006F085FFBDF800100229F3D003201B
:101610001CBDFEB54B4C06461546207A0F46C0074A
:1016200005D0084611F080F918B11020FEBD0F203A
:10163000FEBDF82D01D90C20FEBD304611F074F925
:1016400018BB208801A905F0C2FD0028F4D130782C
:101650008DF80500208801A906F09CFC0028EBD13C
:1016600000909DF800009DF8051040F002008DF8F4
:101670000000090703D040F008008DF80000208822
:10168000694606F024FC0028D6D1ADF80850208821
:101690003B4602AA002106F09FFCBDF80810A942B3
:1016A000CAD00320FEBD7CB5054600200090019005
:1016B0000888ADF800000C462846019511F078F92D
:1016C00018B9204611F056F908B110207CBD15B1AB
:1016D000BDF8000050B11B486A4601884FF6FF7004
:1016E00006F016FFBDF8001021807CBD0C207CBDEB
:1016F00030B593B0044600200D460090142101A897
:101700001CF0C3FC1C2108A81CF0BFFC9DF80000C5
:10171000CDF808D020F00F00401C20F0F000103071
:101720008DF800009DF8010020F0FF008DF8010009
:101730009DF8200040F002008DF8200001208DF877
:10174000460001E0C601002042F60420ADF8440046
:1017500011A801902088ADF83C006088ADF83E00EB
:10176000A088ADF84000E088ADF842009DF8020086
:1017700006AA20F00600801C20F001008DF802006F
:101780000820ADF80C00ADF810000FA8059001A9D5
:1017900008A806F017F8002803D1BDF81800288023
:1017A000002013B030BD0000F0B5007B059F1E4641
:1017B00014460D46012800D0FFDF0C2030803A206F
:1017C0003880002C08D0287A052806D0287B0128EC
:1017D00000D0FFDF17206081F0BDA889FBE72DE96D
:1017E000F04786B0144691F80C900E9A0D46B9F168
:1017F000010F0BD01021007B2E8A8846052807D0C8
:10180000062833D0FFDF06B0BDE8F0870221F2E7FB
:10181000E8890C2100EB400001EB400018803320E8
:101820001080002CEFD0E889608100271AE0009634
:10183000688808F1020301AA696900F0B2FF06EBAB
:101840000800801C07EB470186B204EB4102BDF89B
:10185000040090810DF1060140460E320FF010FA9F
:101860007F1CBFB26089B842E1D8CCE73420108039
:10187000E889B9F1010F11D0122148430E301880C8
:10188000002CC0D0E88960814846B9F1010F00D032
:101890000220207300270DF1040A1FE00621ECE767
:1018A0000096688808F1020301AA696900F079FFCF
:1018B00006EB0800801C86B2B9F1010F12D007EBCD
:1018C000C70004EB4000BDF80410C18110220AF1EA
:1018D000020110301CF040FB7F1CBFB26089B8428F
:1018E000DED890E707EB470104EB4102BDF80400A6
:1018F000D0810AF10201404610320FF0C1F9EBE746
:101900002DE9F0470E4688B090F80CC096F80C8090
:10191000378AF5890C20109902F10C044FF0000A67
:10192000BCF1030F08D0BCF1040F3ED0BCF1070F8F
:101930007DD0FFDF08B067E705EB850C00EB4C00BE
:10194000188031200880002AF4D0A8F1060000F0A9
:10195000FF09558125E0182101A81CF096FB00978E
:101960007088434601AA716900F01BFFBDF80400AE
:101970002080BDF80600E080BDF808002081A21C90
:101980000DF10A0148460FF07BF9B9F1000F00D0C4
:1019900018B184F804A0A4F802A007EB080087B2ED
:1019A0000A346D1EADB2D6D2C4E705EB850C00EB50
:1019B0004C00188032200880002ABBD0A8F1050016
:1019C00000F0FF09558137E000977088434601AA6F
:1019D000716900F0E6FE9DF80600BDF80410E18094
:1019E0002179420860F3000162F34101820862F349
:1019F0008201C20862F3C301020962F304114209C1
:101A000062F34511820962F386112171C009607188
:101A1000BDF80700208122460DF1090148460FF06C
:101A20002FF918B184F802A0A4F800A000E007E0A4
:101A300007EB080087B20A346D1EADB2C4D279E755
:101A4000A8F1020084B205FB08F000F10E0CA3F827
:101A500000C035230B80002AA6D0558194810097C1
:101A600083B270880E32716900F09BFE62E72DE947
:101A7000F84F1E460A9D0C4681462AB1607A00F551
:101A80008070D080E089108199F80C000C274FF00D
:101A900000084FF00E0A0D2873D2DFE800F09E0711
:101AA0000E1C28303846556A737373002146484629
:101AB0000095FFF779FEBDE8F88F207B9146082856
:101AC00002D0032800D0FFDF378030200AE000BFBB
:101AD000A9F80A80EFE7207B9146042800D0FFDFB9
:101AE000378031202880B9F1000FF1D1E3E7207B66
:101AF0009146042800D0FFDF37803220F2E7207BB8
:101B00009146022800D0FFDF37803320EAE7207BB0
:101B10001746022800D0FFDF3420A6F800A0288056
:101B2000002FC8D0A7F80A80C5E7207B17460428F5
:101B300000D0FFDF3520A6F800A02880002FBAD003
:101B40004046A7F80A8012E0207B1746052802D0FD
:101B5000062800D0FFDF1020308036202880002F9C
:101B6000A9D0E0897881A7F80E80B9F80E00B88175
:101B7000A1E7207B9146072800D0FFDF3780372080
:101B8000B0E72AE04FF0120018804FF0380017003D
:101B9000288090D0E0897881A7F80E80A7F810807F
:101BA00099F80C000A2805D00B2809D00C280DD074
:101BB000FFDF80E7207B0C2800D0FFDF01200AE058
:101BC000207B0D2800D0FFDF042004E0207B0E28BE
:101BD00000D0FFDF052038736DE7FFDF6BE770B5DE
:101BE0000C46054601F07CFA20B10078222804D288
:101BF000082070BD43F2020070BD052128460DF09B
:101C0000CFFB206008B1002070BD032070BD38B547
:101C10000546DDE905011446049A72B10B460090B1
:101C20000422214628460AF057FE032C06D12146FD
:101C30002846BDE838400BF01FB8198038BD2DE9A3
:101C4000FF4F85B0002003900898904689461230D7
:101C500008F0E9FA401D20F00306089828B908A901
:101C60000598FFF7BCFF002861D1B9F1000F06D03D
:101C70000898017B00295FD10525046829E098F8C0
:101C80000000092803D00F2820D0FFDF54E0089A75
:101C900003255168527B48887243824246D901F13C
:101CA000040B098897B20C181FFA86FABC4200D3BD
:101CB000E41B5044B84200D9FFDF04EB0A00B842ED
:101CC00000D9FFDF5C440020208002E0089C04254E
:101CD00008340CB1208810B1032D27D02CE00898CF
:101CE0000121123008F0D7FAADF81000024603AB1C
:101CF000294605980AF0E1FC070001D1A01C0390D9
:101D000008983A461230C8F804000598A8F802006E
:101D100004A94046039B08F0CBFAC0B1072814D2AF
:101D2000DFE800F0080A1313110C0E00132009B0AD
:101D3000BDE8F08F0020FAE71120F8E70820F6E769
:101D400043F20300F3E70720F1E70320EFE7BDF8D4
:101D5000100003990097CDE9011023462A460899FF
:101D60000598FFF754FFC7B9032D16D10898B7B2ED
:101D70004568407B704384B2298868880E18A64263
:101D800000D3361B3844A04200D9FFDFF019A0422F
:101D900000D9FFDF688838446880B9F1000FC9D0E6
:101DA000089981F80C90C5E72DE9FF4791461A88FC
:101DB0001C468A4680460AB303AB49460AF07DFCBE
:101DC00005001BD04046A61C27880DF006FC3246B5
:101DD000072629463B4600960DF08CF8208803998B
:101DE0000095CDE9011023464A4651464046FFF78B
:101DF0000EFF00202080012004B005E50020FBE755
:101E000010B586B01C46AAB104238DF800301388A3
:101E1000ADF808305288ADF80A208A788DF80E2087
:101E20000988ADF80C1000236A462146FFF707FF2A
:101E300006B010BD1020FBE770B50D4605210DF072
:101E4000AFFA040000D1FFDF294604F11200BDE81B
:101E5000704008F009BA2DE9F8430D468046002687
:101E600007F0A9FA0446287812287BD2DFE800F0B0
:101E70007A54543C355632321332323209323232CD
:101E800032322879001FC0B2022801D0102810D1A8
:101E900014BBFFDF35E004B9FFDF052140460DF03C
:101EA0007FFA007B032806D004280BD0072828D00F
:101EB000FFDF072657E02879801FC0B2022820D014
:101EC00050B1F6E72879401FC0B2022819D0102877
:101ED00017D0EEE704B9FFDF13E004B9FFDF28797C
:101EE00001280ED1172139E0052140460DF058FA9E
:101EF000070000D1FFDF07F11201404608F08BF91F
:101F00002CB12A462146404600F05BFC2BE0132111
:101F1000404602F04DFC26E0FFDF24E004B9FFDF7D
:101F2000052140460DF03CFA060000D1FFDF69466E
:101F300006F1120008F079F9060000D0FFDFA98849
:101F4000172901D2172200E00A46BDF8000082429C
:101F500002D9014602E005E01729C3D3404600F04C
:101F600046FCCEE7FFDF3046BDE8F883401D20F099
:101F70000300021D01FB0020704708B1FE4A1060FB
:101F80000CF0B4BB2DE9F0470E461546242130462F
:101F90001CF07BF805B9FFDFA87870732888DFF89C
:101FA000D8A3401D20F0030195F802900C46DAF802
:101FB00000000CF0B5FB070000D1FFDF4FF0000878
:101FC0003760A7F8008004FB09F4211DDAF800004F
:101FD0000CF0A6FB040000D1FFDF7460C4F80080A1
:101FE000298806F11200BDE8F04708F006B92DE98E
:101FF000F047804601F112000D46814608F013F9C2
:10200000401DDD4E20F003046F7B224629683068B6
:102010000CF0AFFB7C43221D696830680CF0A9FB13
:1020200005200DF067F9044605200DF06BF9201A24
:10203000012802D130680CF064FB49464046BDE8F7
:10204000F04708F0EFB870B5054605210DF0A8F986
:10205000040000D1FFDF04F112012846BDE8704002
:1020600008F0D9B82DE9F04F91B04FF0000BADF862
:1020700034B0ADF804B047880C46054692460521B9
:1020800038460DF08DF9060000D1FFDF24B1A7809E
:10209000A4F806B0A4F808B0297809220B20B2EB06
:1020A000111F297A7DD104F110023827C91E4FF083
:1020B0000C094FF0010803920F2973D2DFE801F0F9
:1020C000F4F3F28108D48A8FA13DDDF5F0B8B800B1
:1020D000307B022800D0FFDFA88909EBC001ADF8F2
:1020E00004103021ADF83410002C25D06081B5F8F3
:1020F0000E9000271DE004EBC708317C88F80E1015
:10210000F189A8F80C10CDF800906888042304AA7F
:10211000296900F046FBBDF81010A8F8101009F16D
:102120000400BDF812107F1C1FFA80F9A8F81210E5
:10213000BFB26089B842DED80CE1307B022800D003
:10214000FFDFE98909EBC100ADF804003020ADF8EC
:102150003400287B0A90001FC0B20F90002CEBD0F7
:102160006181B5F81090002727E000BFCDF80090FE
:102170006888696903AA0A9B00F013FB0A9904EBBB
:10218000C70809EB01001FFA80F908F10C0204A945
:102190000F980EF075FD18B188F80EB0A8F80CB0C5
:1021A00001E0D4E0D1E0BDF80C10A8F81010BDF8A3
:1021B0000E107F1CA8F81210BFB26089B842D5D8A3
:1021C000C8E00DA8009001AB224629463046FFF733
:1021D00006FBBFE0307B082805D0FFDF03E0307B43
:1021E000082800D0FFDFE8891030ADF80400362061
:1021F000ADF83400002C3FD0A9896181F189A1811B
:1022000027E0307B092800D0FFDFA88900F10C010E
:10221000ADF804103721ADF83410002C2CD06081BB
:10222000E8890090AB89688804F10C02296956E0BE
:10223000E8893921103080B2ADF80400ADF83410CF
:10224000002C74D0A9896181287A10280AD0022133
:102250002173E989E181288A0090EB89688869699E
:10226000039A3CE00121F3E70DA8009001AB224660
:1022700029463046FFF744FB6CE0307B0A2800D04B
:10228000FFDF1220ADF80400ADF834704CB3A9891B
:102290006181A4F810B0A4F80EB084F80C8059E065
:1022A00020E002E031E039E042E0307B0B2800D052
:1022B000FFDF288AADF834701230ADF8040084B125
:1022C00004212173A9896181E989E181298A218217
:1022D000688A00902B8A688804F11202696900F00C
:1022E00060FA37E0307B0C2800D0FFDF1220ADF819
:1022F0000400ADF834703CB305212173A4F80AB092
:10230000A4F80EB0A4F810B024E00DA8009001AB22
:10231000224629463046FFF747FA1BE00DA80090F9
:1023200001AB224629463046FFF7A1FB12E035E01B
:102330003B21ADF80400ADF834107CB3A4F806805E
:10234000A4F808B084F80AB004E0FFDF02E0012935
:102350001BD0FFDFBDF80400AAF8000094B1BDF85F
:1023600034002080BDF804006080BDF834003928B6
:1023700008D03B2806D001E0100000203C2801D006
:1023800086F80CB0002011B0D2E43C21ADF8040076
:10239000ADF8341014B1697AA172DBE7FFE7AAF84F
:1023A0000000EFE72DE9F84356880F4680461546B2
:1023B000052130460CF0F4FF040000D1FFDF123499
:1023C00000943B46414630466A6808F02BF9CBE55D
:1023D00070B50D4605210CF0E3FF040000D1FFDFCE
:1023E000294604F11200BDE8704007F029BF70B51E
:1023F0000D4605210CF0D4FF040000D1FFDF294673
:1024000004F11200BDE8704007F04DBF70B50546FD
:1024100005210CF0C5FF040000D1FFDF04F1080323
:1024200021462846BDE870400422BDE470B505464B
:1024300005210CF0B5FF040000D1FFDF214628463E
:102440002368BDE870400522AEE42DE9F0478246DE
:1024500005210CF0A5FF040000D1FFDF04F11200FC
:1024600007F0E1FE401D20F0030626E0011D008874
:102470000322431821465046FFF796FC002820D03F
:10248000607B656870431FFA80F82888B7B2814680
:1024900010FA86F080B22880404502D3A0EB0800F5
:1024A00028806888B84200D2FFDF09EB0701414568
:1024B00000D9FFDF6888C01B6880606841880029F8
:1024C000D4D1BDE8F08770B50E46054606F073FF1F
:1024D000040000D1FFDF0120207266726580207841
:1024E00020F00F00C01C20F0F00030302070BDE85C
:1024F000704006F063BF2DE9F0438BB00D461446E3
:10250000814606A9FFF76BFB002814D14FF6FF7632
:1025100001274FF420588CB103208DF800001020C3
:10252000ADF8100007A8059007AA204604A90EF0F0
:10253000C6FB78B107200BB0BDE8F0830820ADF8EA
:1025400008508DF80E708DF80000ADF80A60ADF8F7
:102550000C800CE00698A17801742188C1818DF867
:102560000E70ADF80850ADF80C80ADF80A606A4600
:1025700002214846069BFFF762FBDCE708B5012213
:102580008DF8022042F60202ADF800200A4603232D
:102590006946FFF735FC08BD08B501228DF8022019
:1025A00042F60302ADF800200A4604236946FFF70D
:1025B00027FC08BD00B587B079B102228DF8002054
:1025C0000A88ADF808204988ADF80A1000236A4649
:1025D0000521FFF734FB07B000BD1020FBE709B170
:1025E00007230DE40720704770B588B00D461446E8
:1025F000064606A9FFF7F3FA00280ED17CB10620A3
:10260000ADF808508DF80000ADF80A40069B6A4608
:102610000821DC813046FFF712FB08B070BD0520B1
:102620008DF80000ADF80850F0E700B587B059B15B
:1026300007238DF80030ADF80820039100236A4687
:102640000921FFF7FCFAC6E71020C4E770B588B08F
:102650000C460646002506A9FFF7C1FA0028DCD182
:1026600006980121123007F016FE9CB12178062948
:1026700021D2DFE801F0200505160318801E80B284
:10268000C01EE28880B20AB1A3681BB1824203D99E
:102690000C20C2E71020C0E7042904D0A08850B95C
:1026A00001E00620B9E7012913D0022905D0042949
:1026B0001CD005292AD00720AFE709208DF800009B
:1026C0006088ADF80800E088ADF80A00A0680390C3
:1026D00023E00C208DF800006088ADF80800E08849
:1026E000ADF80A00A0680A25039016E00D208DF8C9
:1026F00000006088ADF80800A088ADF80A00E08806
:10270000ADF80C00A0680B25049006E00E208DF8B3
:10271000000060788DF808000C256A46294630468E
:10272000069BFFF78CFA78E700B587B00F228DF88B
:102730000020ADF8081000236A461946FFF77FFA1B
:1027400049E700B587B071B102228DF800200A88F0
:10275000ADF808204988ADF80A1000236A46062122
:10276000FFF76DFA37E7102035E770B586B00646FB
:1027700001200D46ADF808108DF800000146002339
:102780006A463046FFF75BFA040008D12946304616
:1027900005F03CFC0021304605F056FC204606B012
:1027A00070BDF8B51C4615460E46069F0CF003FF9B
:1027B0002346FF1DBCB231462A4600940CF061FB53
:1027C000F8BD10B548800878144620F00F00C01CF2
:1027D00020F0F00090300B4608701822214603F1DB
:1027E00008001BF0FEFBBDE8104006F0E7BD70B529
:1027F0000C460546FFF720FB2146284605F015FC50
:102800002846BDE87040012105F01EBC4FF0E022D3
:102810004FF400410020C2F880112049087020497F
:1028200090020860704730B51C4D04462878A042DD
:1028300018BF002C02D0002818BFFFDF2878A04264
:1028400008BF30BD2C701749154A0020ECB1164D59
:10285000DFF858C0131F012C0DD0022C1CBFFFDF66
:1028600030BD086003200860CCF800504FF4000031
:102870001060186030BD086002200860CCF800507D
:102880004FF040701060186030BD086008604FF075
:102890006070106030BD00B5FFDF00BD1800002083
:1028A00008F5014000F500400403002014F5004045
:1028B00070B50B2000F0B5F9082000F0B2F9002146
:1028C0000B2000F0C4F90021082000F0C0F9EC4C06
:1028D00001256560A5600020C4F84001C4F84401EA
:1028E000C4F848010B2000F0A7F9082000F0A4F973
:1028F0000B2000F08BF9256070BD10B50B2000F0A7
:1029000090F9082000F08DF9DD48012141608160D7
:10291000DC490A68002AFCD10021C0F84011C0F847
:102920004411C0F848110B2000F086F9BDE81040B2
:10293000082000F081B910B50B2000F07DF9BDE84A
:102940001040082000F078B900B530B1012806D059
:10295000022806D0FFDF002000BDCB4800BDCB48D9
:1029600000BDCA48001D00BD70B5C9494FF0004008
:102970000860C84DC00BC5F80803C74800240460B0
:10298000C5F840410820C43500F04BF9C5F83C417A
:10299000C248047070BD08B5B94A002128B10128A9
:1029A00011D002281CD0FFDF08BD4FF48030C2F8E0
:1029B0000803C2F84803B3483C300160C2F8401134
:1029C000BDE80840D0E74FF40030C2F80803C2F871
:1029D0004803AC4840300160C2F84411AB480CE0F9
:1029E0004FF48020C2F80803C2F84803A5484430D9
:1029F0000160C2F84811A548001D0068009008BD9C
:102A000070B516460D460446022800D9FFDF0022A5
:102A10009B48012304F110018B4000EB8401C1F8B5
:102A2000405526B1C1F84021C0F8043303E0C0F896
:102A30000833C1F84021C0F8443370BD2DE9F0419E
:102A40001C46154630B1012834D0022839D0FFDFAA
:102A5000BDE8F081891E002221F07F411046FFF77A
:102A6000CFFF012C24D000208C4E8A4F012470709F
:102A70003C61894900203C3908600220091D08603A
:102A8000854904203039086083483D350560C7F822
:102A90000042082000F0D0F82004C7F80403082002
:102AA00000F0B4F87A49E007091F08603470CFE7F6
:102AB0000120D9E7012B02D00022012005E00122EC
:102AC000FBE7012B04D000220220BDE8F04197E78C
:102AD0000122F9E76B480068704770B500F0C7F84D
:102AE000674C0546D4F840010026012809D1D4F8E6
:102AF0000803C00305D54FF48030C4F80803C4F8B8
:102B00004061D4F8440101280CD1D4F808038003B3
:102B100008D54FF40030C4F80803C4F8446101201C
:102B20000EF05CFFD4F8480101280CD1D4F808035A
:102B3000400308D54FF48020C4F80803C4F8486166
:102B400002200EF04BFF5648056070BD70B500F0D6
:102B50008EF8524D0446287858B1FFF705FF687883
:102B600020B1002085F801000EF038FF4C480460C9
:102B700070BD0320F8E74FF0E0214FF40010C1F8DA
:102B800000027047152000F057B842490120086143
:102B9000082000F051B83F494FF47C10C1F80803F9
:102BA0000020024601EB8003C3F84025C3F8402112
:102BB000401CC0B20628F5D37047410A43F60952BB
:102BC0005143C0F3080010FB02F000F5807001EBE8
:102BD0005020704710B5430B48F2376463431B0C19
:102BE0005C020C602F4C03FB04002F4B4CF2F724CB
:102BF00043435B0D13FB04F404EB402000F58070AD
:102C00004012107008681844086010BD00F01F02E0
:102C1000012191404009800000F1E020C0F800113E
:102C2000704700F01F02012191404009800000F12F
:102C3000E020C0F88011704700F01F020121914090
:102C40004009800000F1E020C0F880127047490779
:102C5000090E002806DA00F00F0000F1E02080F8ED
:102C6000141D704700F1E02080F8001470470C48F4
:102C7000001F00680A4A0D49121D116070470000CC
:102C800000B0004004B500404081004044B1004025
:102C900008F5014000800040408500402C000020E5
:102CA00014050240F7C2FFFF6F0C01000100000194
:102CB0000A4810B5046809490948083108600EF04F
:102CC0002AFF0648001D046010BD06490020086068
:102CD0004FF0E0210220C1F8800270471005024049
:102CE00001000001FC1F004010B50D2000F06FF83E
:102CF000C4B26FF0040000F06AF8C0B2844200D0A1
:102D0000FFDF3A490120086010BD70B50D2000F0CA
:102D100048F8374C0020C4F800010125C4F80453DA
:102D20000D2000F049F825604FF0E0216014C1F853
:102D3000000170BD10B50D2000F033F82C480121C2
:102D400041600021C0F80011BDE810400D2000F0E6
:102D500033B8284810B50468264927480831086068
:102D60002349D1F80001012804D0FFDF2148001DCC
:102D7000046010BD1D48001D00680022C0B2C1F8EB
:102D800000210FF09AFAF1E710B51948D0F80011B8
:102D90000029FBD0FFF7DDFFBDE810400D2000F05B
:102DA0000BB800F01F02012191404009800000F1A2
:102DB000E020C0F88011704700F01F02012191400F
:102DC0004009800000F1E020C0F880127047002820
:102DD00006DA00F00F0000F1E02090F8140D03E097
:102DE00000F1E02090F800044009704704D500404D
:102DF00000D00040100502400100000110B5202065
:102E000000F075F8202000F07DF84449202081F87A
:102E10000004434900060860091D42480860FEF7A7
:102E20006BFA3F49C83108603F48D0F8041341F0BD
:102E30000101C0F80413D0F8041341F08071C0F808
:102E40000413364901201C39C1F8000110BD10B52A
:102E5000202000F04CF8324800210160001D016084
:102E60002F4A481EE83A10602F4AC2F808032C4B3C
:102E7000C8331960C2F80001C2F860012B4908602C
:102E8000BDE81040202000F03DB825492848EC3925
:102E90000860704722492648E8390860704770B5D5
:102EA0001F4A8069E83A224911601F49D1F8006140
:102EB0000023204D1D4A5C1E1EB1A84206D30021EE
:102EC0000FE0D1F8606186B1A84209D2C1F80031A3
:102ED000C1F860311460BDE87040202000F012B8E5
:102EE0001168BDE870401BF0F7B8FFDF70BD00F05F
:102EF0001F02012191404009800000F1E020C0F84C
:102F00008011704700F01F020121914040098000AC
:102F100000F1E020C0F880127047000020E000E0DF
:102F2000000602406412002000000240000402403B
:102F30000100000100F001000F4A12680D498A42A9
:102F40000CD118470C4A12680A4B9A4206D101B5B7
:102F50000FF06CFAFFF799FFBDE8014007490968D7
:102F60000958084706480749054A064B70470000BC
:102F700000000000BEBAFECAA0000020040000202D
:102F8000E8110020E811002070B50C46054607F056
:102F9000E6FC21462846BDE8704008F0D8BD10B5D3
:102FA0000FF05AFEFFF732FC0FF02AFDBDE810408B
:102FB0000FF0DCBD0548064A0168914201D10021AD
:102FC000016004490120086070470000A000002053
:102FD000BEBAFECA40E5014070477047704770476F
:102FE000704702F0FF0343EA032242EA02421BF069
:102FF0002CB8704770477047704700040506010001
:1030000018FFFFFFDBE5B15100F001009900FFFF61
:103010008400000003093D0030B5FF4D0446102830
:103020000AD0112C06D02846122CC17806D0132CB9
:1030300008D0FFDFEC7030BDFFDFFBE71129F9D0CE
:10304000FFDFF7E71129F5D0FFDFF3E770B50DF0EB
:10305000A1FF04460EF0C0FF201AC4B206200CF0F7
:1030600049F9054606200CF04DF92E1A07200CF000
:1030700041F9054607200CF045F9E749281A3218AE
:10308000C87812280DD000231A4413280BD0002032
:1030900002440878022808D000201044201AC0B248
:1030A00070BD0123F0E70120F2E70120F5E7DA48DF
:1030B00000B58079D849420897B051F8070F898840
:1030C0000CD017228DF80020CDF80200ADF80610C4
:1030D0000BA9684609F0DAF917B000BD4022F1E704
:1030E00002210CF05DB92DE9F04196B01D469046E5
:1030F0000E460746FFF7F4FF04000BD02078222885
:1031000004D3A07FC0F34010A84206D1082016B017
:10311000BDE8F08143F20200F9E745208DF8000098
:10312000ADF802703DB101208DF804008DF8056006
:103130008DF8068002E000208DF804000BA9684697
:1031400009F0A4F9A07F65F34510A0770020DEE721
:1031500030B50446A1F120000D460A284AD2DFE826
:1031600000F005070C1C2328353A3F44FFDF42E0FE
:10317000207820283FD1FFDF3DE0A74801780329D0
:1031800039D0C078132836D02078242833D0252889
:1031900031D023282FD0FFDF2DE0207822282AD01D
:1031A000232828D8FFDF26E02078222823D0FFDF3D
:1031B00021E0207822281ED024281CD026281AD0CE
:1031C000272818D0292816D0FFDF14E020782528DA
:1031D00011D0FFDF0FE0207825280CD0FFDF0AE0B8
:1031E0002078252807D0FFDF05E02078282802D0A6
:1031F000FFDF00E0FFDF257030BD30B50B8840F603
:103200007B444FF6FF72022801D0934204D09D1FE9
:10321000A54224D2022802D04D88954203D04D8881
:10322000AD1FA5421BD24C88A34218D88B88B3F59A
:10323000FA7F14D2022802D0C888904205D0C888EC
:1032400040F677450A38A84209D2C888904208D08B
:10325000944206D05B1C6343B3EB800F01DB072075
:1032600030BD002030BD70B514460D4606460FF047
:103270005BFB60B90DB1A54201D90C2070BD0024E3
:1032800009E000BF56F824000FF04EFB08B11020F3
:1032900070BD641CE4B2AC42F4D3002070BDF0B544
:1032A0000024059D10B1A94203D850E009B90020BF
:1032B000F0BD0920F0BD055DD5B1071997F801C033
:1032C000BCF1150F2DD03BDCBCF1150F38D2DFE877
:1032D0000CF037122020262628282F2F3737373793
:1032E0003737373737372000025D22BB641CE4B222
:1032F0008C42F9D3DBE7022DDBD1BD781D70072DA1
:1033000001D26D0701D40A20F0BD157845F0010502
:1033100015E0EF43FF0707E0012D07D010E006207E
:10332000F0BD2F07A7F18057002FF5D03046F0BD34
:103330001578AF0701D50B20F0BD45F002051570DB
:10334000055D641C2C44E4B28C4202D9B1E74FF411
:1033500048568C42AFD3AAE710B50278540809D07A
:10336000012243F20223012C07D0022C0DD0032CA2
:1033700013D10FE00020087005E080790324B4EB3E
:10338000901F0AD10A70002010BD8079B2EB901F07
:1033900003D1F7E780798009F4D0184610BD1E4AA2
:1033A000117C39B1517C022908D0032908D043F29D
:1033B000022070470146901D01F0A4BC032100E0EB
:1033C000012101700020704738B50C46054669465A
:1033D00001F098FC00280DD19DF80010207861F3D1
:1033E0004700207055F8010FC4F80100A888A4F820
:1033F0000500002038BD38B51378E8B102281BD08D
:1034000006A46D46246800944C7905EB9414247846
:1034100064F34703137003E0B00100200302FF01CF
:1034200003280ED003F0FE0010700868C2F80100F7
:103430008888A2F8050038BD23F0FE031370022827
:10344000E9D1D8B240F00100EEE730B50C4609787A
:1034500097B0222902D2082017B030BD28218DF85C
:103460000010ADF80200132A03D03B2A01D0072038
:10347000F2E78DF804200BA9684609F007F805006B
:1034800003D121212046FFF763FE2846E4E700B57B
:1034900097B023218DF80010ADF802001088ADF828
:1034A00004005088ADF80600D088ADF80A00908876
:1034B000ADF808000020ADF80C00ADF80E000BA927
:1034C000684608F0E3FF07E62DE9FF470220FB4EC0
:1034D0008DF804000027B08AADF80600B84643F224
:1034E00002094DE001A80BF0C4FE050006D0B08A29
:1034F000A8B3A6F81480ADF806803FE0039CA07F37
:1035000001072DD504F124000090A28EBDF808001B
:10351000214604F1360301F0FEFD050005D04D45BE
:103520002BD0112D3DD0FFDF3BE0A07F20F0080025
:10353000A077E07F810861F30000C10861F34100DA
:10354000E07794F8210000F01F0084F82000207834
:10355000282827D129212046FFF7FAFD22E015E08F
:1035600040070BD5BDF80800214604F10E02FFF715
:103570008EFF05000DD04D4510D100257F1CFFB2F8
:1035800002200BF0B7FE401CB842ABD8052D12D07C
:1035900008E0A07F20F00400A07703E0112D00D008
:1035A000FFDF0025BDF80600B082052D05D02846B6
:1035B00004B0BDE8F087A6F814800020F8E72DE9F4
:1035C000FE43040000D1FFDF2078002720F00F0029
:1035D000801C20F0F000703020706068B74E0178D9
:1035E000091F15290DD2DFE801F0FD0B0C49FC0C79
:1035F0000EFCFC36FD0C0CFD6BFD0C0CFDFDFB0008
:10360000FFDFBDE8FE8385882846FFF769FD0400DB
:1036100000D1FFDF05F0D2FEB07C212140F0040094
:10362000B0742046FFF794FD284609F023F9284698
:10363000FEF709FD284603F0EFFF294602200FF0B0
:103640002FF9A07F20F01000A077FFF73DFF0028A2
:10365000D7D0FFDFD5E785882846FFF741FD00B9C1
:10366000FFDF60688078012800D0FFDF6068817923
:1036700003B02846BDE8F04309F060BA86883046BA
:10368000FFF72EFD050000D1FFDF05F097FE606813
:103690003146C088288160680089688160684089F7
:1036A000A88102200FF0FCF8AF75A87F00F003009E
:1036B0000228A6D1FFF708FF0028A2D0FFDFA0E76D
:1036C00080783C281CD0002502280ED08DF8007090
:1036D00000B1FFDF05F072FEB07C40F00800B0746E
:1036E00095B1B07801F0F2FA01208DF8000000BF2A
:1036F0009DF80000012876D0022875D0FFDF80E712
:1037000001258DF80070E5E76568B5F80490A879A3
:10371000AD1C012806D03079804605F0FFFB07007C
:1037200003D101E0B078F7E7FFDF0022022148462D
:103730000BF02DFE040000D1FFDF22212046FFF711
:1037400007FD2879012800D002208DF80000A17F14
:103750006A4660F30101A177288B2081688B608124
:10376000A88BA08184F82280032148460BF00FFE2D
:1037700000B9FFDFB888ADF80800B8788DF80A0006
:1037800002AA052148460BF002FE00B9FFDFB88807
:10379000ADF80400F8788DF8060001AA0421484627
:1037A0000BF0F5FD00B9FFDF062105F1120001F075
:1037B000D4FA30B36879800700D5FFDF6979E07DFE
:1037C00061F34700E075D5F80600A0616889A08321
:1037D000062105F10C0001F0C0FAE0B1B07904E077
:1037E00041E03BE046E021E02CE04108607861F3F5
:1037F00047006070D6F80700C4F80200B6F80B0066
:1038000012E0E07D20F0FE00801CE075D5F812008B
:10381000A061E88ADBE7607820F0FE00801C607021
:10382000E868C4F80200288AE08061E7307803285D
:1038300000D0FFDF002108460FF032F8012001F030
:1038400010FADEE6F078132800D0FFDF0021072011
:103850000FF026F81120FFF7DFFBD2E62046BDE887
:10386000FE4301F019BF05F0A9FDB07C40F0400017
:10387000B074C6E6BDE8FE4305F0A0BD2DE9F05FDB
:10388000054600780C4600270109DFF830A0914674
:103890003E4601296FD000234FF6FF7002296BD0FE
:1038A00007290DD00A2968D0FFDF00BFA9F8006002
:1038B0000CB1278066800020BDE8F09FB001002099
:1038C000D5F804C004F108029CF80010122973D046
:1038D0000EDC04F118080A2913D004DC042969D08D
:1038E000072968D14AE00E295AD01129F9D1C6E03A
:1038F00013297CD0162949D0172979D01829F0D15D
:1039000003E111270926002C73D0BCF8048040463F
:10391000FFF7E6FB90F822B0A4F80480686880798D
:1039200020729AF81210404621F004018AF8121011
:1039300004210BF047FD052140460BF043FD00211B
:1039400040460BF03FFD012140460BF03BFD0321BB
:1039500040460BF037FD022140460BF033FD0621B7
:1039600040460BF02FFD072140460BF02BFD58463B
:1039700001F0ACF99AE7E7E012E1DFE01227102648
:10398000BCF80400214601F0D5F98FE71C27092671
:103990007CB3BCF80200A08068680079207285E7DB
:1039A0001B2709262CB30420207268684088A08059
:1039B0007CE701E037E0C0E09CF802003C2828D01A
:1039C000102718260CF1020C9CB1BCF80200A08054
:1039D000BCF818006082BCF818002082BCF81A00FD
:1039E000A082BCF81C00E0829CF8050002E078E0B0
:1039F00067E00BE00CF10601FFF7FDFC9CF804000A
:103A000010B10120E07309E00220FBE7A9F8006093
:103A100051E71B270926002CF8D023729AF81210C0
:103A200021F00801CFE01D273726002CEED0A08022
:103A30006968481D0B7901461846FFF7DCFC686889
:103A400090F82B00A0756868C0780428E07D13D03A
:103A500020F00100E07569681F22C97861F3420017
:103A6000E0756968C97A61F3C700E0756968404626
:103A70000C311AF071FA19E740F00100EAE71D274E
:103A80003726002CC2D0A08069680879491DFFF74D
:103A9000B2FC686804F10F0200F10C01C07AFFF774
:103AA000AAFC6868807CA0756868C178E07D61F3D5
:103AB000420020F0F900E0751F2140461AF0E5FAB7
:103AC000F4E620271026002CA0D0A080686804F11E
:103AD0000902407A20726868C11C8078FFF78BFC6D
:103AE000E4E622271026002C90D0BCF80200A0802B
:103AF0006868007920816868007A60816868C08899
:103B0000A08168684089E081D0E621271026002C3A
:103B10008CD0BCF80200A08068688088208168682A
:103B2000C088608168680089A08168684089E081F8
:103B30009AF8121021F0400145E04A4621462846F5
:103B4000BDE8F05F01F044BF287A012803D00228C5
:103B500014D0FFDFAAE61F271026002C92D0688819
:103B6000A08068892081A8896081E889A081288A4D
:103B7000E0819AF8121021F0200124E0122710268B
:103B80006888214601F0D6F8002C9DD0687800F0B6
:103B90000700052894D19AF8121021F0020112E0D2
:103BA000297A062923D2DFE801F004111103030367
:103BB000C3E71B270926002C86D0A08023729AF821
:103BC000121021F001018AF812106FE61B27092656
:103BD000002C89D0A080287A012806D003202072EA
:103BE0009AF8121021F01001EDE70220F7E7FFDF4D
:103BF0005CE630B5F74D97B0E878132801D008207F
:103C00002AE422208DF800000BA9684608F03EFC4B
:103C1000040002D1287901F059F8002107200EF0A4
:103C20003FFE204618E400B5EA4897B0C078122855
:103C300001D0082047E41E208DF8000000208DF8F8
:103C400002008DF803000BA9684608F01FFC00284D
:103C5000F0D1002107200EF023FE1120FFF7DCF940
:103C6000002030E410B5DB4C96B02078012813D04A
:103C70001B208DF8000000208DF802000BA968467B
:103C800008F004FC002808D1002108460EF008FEC8
:103C90002078032803D005E0082016B010BDA078D6
:103CA00001F014F8012000F0DCFF0020F5E72DE919
:103CB000F041C84C002740B102281DD0072842D04F
:103CC000082800D0FFDFBDE8F081FFF7CBFF002818
:103CD000F9D105F070FB0028F5D0017821F00F0133
:103CE000891C21F0F00120310170077205F066FB9C
:103CF000A07C40F001001DE08EB23046FFF7F0F9E5
:103D0000050000D1FFDF28782128DCD005F053FB27
:103D100090B1017821F00F01891C21F0F0011031E0
:103D20000170022101724680AF7505F047FBA07C4F
:103D300040F00200A074C6E729463046BDE8F041D5
:103D40001322FFF782BBE578122D03D0132D04D088
:103D5000FFDFB8E7FFF767FF01E0FFF74AFF002842
:103D6000B1D105F028FB0028ADD0017821F00F017A
:103D7000891C21F0F00120310170122D07D00221A1
:103D8000017205F01BFBA07C40F01000D2E701217E
:103D9000F6E72DE9F04116460C00074600D1FFDF9B
:103DA000307820F00F00801C20F0F00010303070D0
:103DB0002078012803D0022817D0FFDF83E7384698
:103DC000FFF78EF9050000D1FFDF0320A87505F08D
:103DD000F5FA2068B0606068F060208930827D4824
:103DE000817C41F0200181746DE73846FFF778F956
:103DF000050000D1FFDF61884FF6FF70814209D1D5
:103E0000A288824206D129463846BDE8F0411322F5
:103E1000FFF71BBB814201D1A08848B105F0CEFA63
:103E20002068B0606068F06020893082002009E07E
:103E3000A87D0128C2D178230022394602200EF045
:103E40008FFC0220A8753EE730B5054697B00C46BA
:103E500008460EF069FD78BB00210120203D082DA9
:103E600070D2DFE805F004254C505A6772400021FB
:103E700008200EF0EBFC08B11120C1E624208DF8DB
:103E80000000D4F80200CDF80200A0798DF80600F9
:103E90000BA9684608F0FAFA050054D1082300225D
:103EA000114618460EF05CFC08284CD0FFDF4AE0B3
:103EB00060680EF07DFD08B11020A1E646208DF867
:103EC00000002088ADF802006088ADF804000BA95E
:103ED000684608F0DBFA050035D1606848B3BDF8E4
:103EE000301001802FE048208DF800002088ADF8C8
:103EF0000200A07800F001008DF8040014E02068B2
:103F000002F007F814E0472208E000BF8DF8020035
:103F10000AE000BF8DF8021006E042228DF8002072
:103F20002278D207F6D0F1E70BA9684608F0AEFA7E
:103F3000054608E02178C90704D050218DF800100B
:103F4000E4E7FFE7072528465AE638208DF8000009
:103F50002088ADF802006088ADF80400E4E730B5D1
:103F6000054697B00C4608460EF004FD08B1102037
:103F700046E6203D082D27D2DFE805F0042424245E
:103F8000262626242088FFF7ABF820B100782228C7
:103F900004D2082034E643F2020031E625208DF8F1
:103FA00000002088ADF802000BA9684608F06EFA00
:103FB0000028DDD1DDF83210C4F802109DF836106B
:103FC000A1711DE606201BE6072019E60148801DA9
:103FD00070470000B001002038B51621FE481AF0E5
:103FE00032F8012000F03DFE1120FFF715F8FA4CE1
:103FF0006846E11D05F040F99DF80010A07961F3D5
:10400000470020F00100A071002020744FF461707F
:10401000E08102206074FFF74AF800B1FFDFFDF78E
:1040200093F901F0F4FA38BD10B50C463E21204654
:104030001AF009F8A07F20F00300A077202020705C
:104040000020A07584F8230010BDC1E77CB50546AB
:104050000EF06AFC08B110207CBDDF4CA11DD4F825
:1040600006000090D4F80A0001902846FFF7ACF94A
:104070000028F1D1FFF71BF80028EDD00099C4F813
:104080000610BDF8041061819DF8061021737CBDF7
:1040900010B504460EF06EFC08B1102010BDCE49DC
:1040A00022468879C91D4008FFF7A5F9002010BDF8
:1040B0002DE9F0479CB00D4604004FF0000812D0E7
:1040C0000822FFF7D0F800281CD1002609E000BF25
:1040D00054F8260004A9FFF73FF9002812D1761CF6
:1040E000F6B2AE42F4D32F460A2006AD0DF1440AD3
:1040F0008DF8180026465146284608F0C7F920B129
:1041000043F203201CB0BDE8F0874046DFF8C882C8
:1041100088F805002EB300244FF00B091DE000BF06
:1041200056F8240005A9FFF717F900B1FFDF9DF845
:104130001400A87056F8240050F8011FC5F80310A9
:104140008088A5F8070085F800905146284608F0B9
:104150009DF900B1FFDF641CE4B2BC42E0D388F8F3
:1041600005700020CEE72DE9F0479EB01546894640
:1041700004001ED00F4608222946FFF774F80028D5
:1041800011D1002613E000BF54F8260005A9103015
:1041900000F0B8FD002806D13FB157F826000EF018
:1041A000C3FB10B110201EB0ADE7761CF6B2AE42D4
:1041B000EAD30026A5F101081CE000BF06F1010AC0
:1041C0000AF0FF0712E000BF54F82600017C4A08FD
:1041D00054F827100B7CB2EB530F05D10622113097
:1041E000113119F08DFE78B17F1CFFB2AF42EBD3D5
:1041F0000AF0FF064645E1DBC8462E4607AD0DF145
:10420000480924B1012003E043F20520CBE7002058
:104210008DF81E0031208DF81C004946284608F014
:1042200035F938B934208DF81C004946284608F085
:104230002DF910B143F20420B5E77CB300272BE041
:1042400054F82700A91C103000F05CFD00B1FFDF1E
:1042500054F82700102250F8111FC5F80310808869
:10426000A5F8070054F8271005F1090019F074FEAD
:10427000B8F1000F14D058F82710102205F11900DA
:1042800019F06AFE322028704946284608F0FEF8E8
:1042900000B1FFDF7F1CFFB2B742D1D3002082E71D
:1042A00005F1190001F029FEECE770B596B004465F
:1042B0000EF03AFB18B960680EF083FB10B11020C5
:1042C00016B070BD60884AF2B811884205D82078CF
:1042D000414D6E4618B1012804D00720F0E7FEF7E3
:1042E000E6FE1AE06078022804D0032802D043F2E8
:1042F0000220E5E7687417208DF80000697C002033
:10430000CDF80200ADF80600022932D003292DD0E5
:10431000FFDF0BA9684608F0B9F80028D0D1606823
:1043200001F0DEFD207870B101208DF80200F01C54
:1043300001F0E3FD4A208DF800000BA9684608F063
:10434000A5F800B1FFDF6088A8B1E88180B2ADF8C0
:10435000020030208DF800000BA9684608F096F89E
:1043600000B1FFDF207828740020A9E78DF807004E
:10437000CFE74020FAE74FF46170E6E710B5044656
:104380000EF0F8FA20B9606838B10EF011FB08B1F0
:10439000102010BD606801F0B0FD0F48C189618038
:1043A000417C6170007C2070002010BD2DE9F0413F
:1043B0009CB0054600208DF864008DF860008DF8F3
:1043C00030008DF868001E461446884628460EF0D8
:1043D000F8FA30B9204601E0B00100200EF0F1FA01
:1043E00010B110201CB06EE455EA040018D01F274D
:1043F0000CAB19AA414628460097FEF750FF00284B
:10440000F0D11AAB18AA314620460097FEF747FFB5
:104410000028E7D19DF86000C00703D00A20E1E73B
:104420000720DFE701AF7DB11A208DF804008DF879
:10443000068042462946F81C19F08EFD0DA901A8F8
:1044400008F024F80028CDD17CB120208DF804009C
:104450008DF8066032462146F81C19F07DFD0DA945
:1044600001A808F013F80028BCD1FF499DF83000DE
:1044700048700020B6E72DE9F0479CB08A464FF01F
:104480000008FAA104468DF83480D1E90001CDE995
:10449000190120460EF048FA90B92078012803D17E
:1044A00060680EF041FA58B9EF4D4FF00109287CD1
:1044B00040B1687C022805D160680EF082FA08B12C
:1044C00010201FE62878012801D008201AE60720CE
:1044D0000AF018FF18B9207848B1012807D0FEF774
:1044E000B5FD30B1A87C10F00C0F08D103E012200C
:1044F00008E6132006E6C10701D1800701D5112087
:1045000000E6608943F6E172A0F120019142217832
:1045100007D301297ED100287CD1A189002979D136
:104520000FE0022901D0032901D1A02872D301296B
:1045300007D06978C90704D0A18900296AD0B429B5
:1045400068D8217831B1012908D0022904D0032983
:1045500060D10AE0002609E0022607E008B9A08938
:1045600008B1042609E0012607E00326287C50B1A3
:10457000687C022807D1606828B10DA96068FEF741
:10458000EBFE00289DD1207A30B1012806D0022808
:1045900006D0032878D105E0002704E0012702E0D7
:1045A000022700E003270EB1022E0ED16FB1687909
:1045B00080B36878800702D043F20120A2E5022E82
:1045C00003D1022F60D0032F5ED0207808B10128DC
:1045D00006D1504600F059FB002889D185F802A089
:1045E00018208DF838006089ADF83A006089ADF880
:1045F0003C008DF83E600DF13F00FEF7D0FE00B1AB
:10460000FFDF9DF834008DF840002078012808D0A5
:10461000287C00E038E058B1687C022808D1606846
:1046200030B1606850F8011FCDF84110808802E079
:104630004046CDF84180ADF845008DF84870A07B2C
:10464000C0F34002014662F35F01C0F3800041EA1B
:10465000800019A9085C8DF84700A8B169460EA82A
:1046600007F014FF0028A9D11B208DF838008DF821
:104670003A9069460EA807F009FF00289ED19DF8E0
:1046800001001B281CD101E007203BE5052E0CD2C0
:10469000DFE806F0030308080300A87800F005FB34
:1046A000032000E0022000F0DCFA012E0AD0A089ED
:1046B00040B100228300114610460EF051F808B1B7
:1046C00003201FE500201DE52DE9FC4107460D46AE
:1046D000032608460EF075F9002867D13846FEF724
:1046E000FFFC040005D02078222805D20820BDE870
:1046F000FC8143F20200FAE7A07F00F0030C2DB129
:1047000029466046FEF779FD0600F0D15648BCF117
:10471000010F05D0BCF1020F1AD0FFDF3046E6E7EB
:10472000A27D2946022A02D0807C800701D5112073
:10473000DDE729B96846FCF715FF0028D7D169469F
:10474000384608F0A9F90600E8D10120A075E5E790
:10475000A17D032914D1807C800611D425B1A07FCE
:1047600040070BD4002100E00121384608F0BFF9D2
:104770000600D3D1A075002DD0D002E01126CDE7E0
:10478000A5B12A4621463846FEF781FE0646112885
:10479000C4D1A07F4107C1D4296844F80E1F6968BD
:1047A000616040F0040020740026B7E710209EE707
:1047B00070B50C460546FEF793FC010005D0224675
:1047C0002846BDE87040FEF740BE43F2020070BDCF
:1047D00000B597B03F218DF800108DF802000BA9AD
:1047E000684607F053FE17B000BD0123FEF77BBCFF
:1047F00000231A461946FEF776BC30B597B004463A
:104800000EF092F810B1102017B030BD204600F025
:1048100067FA0028F8D1144DE878112801D0082053
:10482000F2E7FEF713FC20B1A87CC00603D51120E7
:10483000EAE71320E8E72078800701D56879E8B334
:104840001D208DF800002078022200F001008DF874
:1048500002006088ADF80400A088ADF8060020785A
:10486000C0F3400106E00000B00100200706050487
:104870000302010002EA500001438DF8091002A86A
:10488000FEF78DFD00B1FFDF0BA9684607F0FEFDC6
:104890000028B9D11E208DF8000001208DF80200FB
:1048A00000208DF803000BA9684607F0EFFD0028F3
:1048B000AAD1E08800F030FA040000E005E0A3D1BE
:1048C0001220FEF7A9FB20469EE707209CE72DE972
:1048D000F041FC4C074696B0E078984616460D46E7
:1048E000122803D1FFF79FF900280ED128460EF0B9
:1048F0001BF870BB30460EF017F850BBA07C10F0D0
:10490000180F01D1400703D5112016B0BDE8F08182
:10491000284600F0E5F90028F7D131460220FEF7DD
:104920006CFC0028F1D1E078112801D00820ECE7D8
:1049300006200AF0E7FC50B12878800701D560799D
:1049400040B1FEF783FB022806D21320DDE71220D8
:10495000DBE716E00720D8E721208DF80000688803
:10496000ADF80200A888ADF804002878C0F3400034
:104970008DF80600287880071CD438460DF0D4FF47
:1049800008B11020C1E73878420808D0012A18D0B1
:1049900043F20221022A18D0032A18D115E0C007D9
:1049A00000D002208DF8070057F8010F0290B88858
:1049B000ADF80C000DF10E00FEF7F1FC58B103202C
:1049C000A3E7C00705D00320ECE7C00701D00846E5
:1049D0009BE70120E6E73088ADF810007088ADF85D
:1049E0001200B088ADF81400F088ADF81600002071
:1049F000ADF81800ADF81A00404600F046F900285E
:104A000083D184F804800BA9684607F03FFD002895
:104A10008DD1207900F049F9E88800F07DF9040093
:104A200085D11320FEF7F8FA20466EE730B505462B
:104A300097B00C4608460DF09DFF08B11020E3E644
:104A40002846FEF74DFB38B10178222902D3807F3A
:104A5000800604D40820D7E643F20200D4E61320EF
:104A60008DF80000ADF802500BA9684607F00EFD66
:104A70000028E4D19DF932107F2901D02170C3E6CE
:104A80000520C1E62DE9F047B2B016460D46824634
:104A9000FEF726FB070006D03878222806D2082029
:104AA00032B0BDE8F08743F20200F9E728460DF086
:104AB00088FF30B94FF000084EB130460DF078FF56
:104AC00008B11020ECE7C6F80080A6F804807D4805
:104AD000807C400601D51120E2E797F8220004F01F
:104AE0001DFA8088011DFB2901D2001D00E0FB207A
:104AF000C0B23DB1D5F800906C681FFA89F1002969
:104B000009D00AE060F30F0960F31F4900F0A5F82F
:104B100060F30F0411E060F30F095FEA194101D15E
:104B200060F31F492004000C05D11FFA89F000F042
:104B300094F860F30F04200C05D14FEA194000F0FF
:104B40008CF860F31F4457462C225F4910A819F0D7
:104B500048FA4FEA1940ADF84400200CADF8460081
:104B6000ADF84890ADF84270ADF84A401BA910A8C6
:104B700007F08CFC00B1FFDFBDF87000ADF80C0051
:104B8000BDF87200ADF80E00BDF87400BDF87610E7
:104B90000844ADF810001FFA89F107201B2984D3BF
:104BA0004FEA19421B2A8DD3FB298BD8FB2A89D8BF
:104BB000062791420CD1084600F04FF8A1B2884276
:104BC00006D14FEA194000F048F8210C884201D084
:104BD000384665E7BDF80C0028B9BDF80E1011B9CC
:104BE000BDF8101009B35DB1298849B1698839B1A0
:104BF00026B103983060BDF81000B08013204FE755
:104C0000A9EB000080B2BDF80E2060F30F09C2EBE3
:104C1000194161F31F4900F020F860F30F044FEAD7
:104C2000194000F01AF860F31F4427492C222C3158
:104C300005A819F0D6F94FEA1940ADF81800200C74
:104C4000ADF81A00ADF81C90ADF816A0ADF81E40F6
:104C500026A905A807F01AFC22E7C000703080B230
:104C6000704730B5174D040008D0012C04D0022C39
:104C700006D0032C04D0FFDF2C7030BDFFDFFBE734
:104C800028780128F8D0FFDFF6E710B5044604F0D5
:104C900045F930B1407830B1204604F048FC00209E
:104CA00010BD072010BD122010BD10B504F036F95C
:104CB000040000D1FFDF607800B9FFDF6078401E9C
:104CC000607010BDB0010020ECE3010010B504F0ED
:104CD00025F9040000D1FFDF6078401C6070F0E728
:104CE000418843F6FD730A1F9A4209D2808804283E
:104CF00006D3B0F5804F03D8884201D80020704712
:104D0000072070470278520804D0012A02D043F2EB
:104D100002207047FEF720BB10B548B18300002287
:104D2000114607200DF01CFD072801D00320C8E71D
:104D30000020C6E770B50C0006460DD0FEF7D0F98E
:104D4000050000D1FFDFA6802889208128896081A5
:104D50006889A081A889E08170BD10B500231A463A
:104D600003E0845C2343521CD2B28A42F9D30BB1D4
:104D70000020A6E70120A4E72DE9F0418846064679
:104D80000188408815460C181F46AC4200D3641BAE
:104D90003844A84200D9FFDFE019A84200D9FFDF5C
:104DA00070883844708008EB0400BDE8F08110B5CD
:104DB00004460DF0B9FD08B1102010BD2078C0F3F5
:104DC0000210042807D86078072804D3A178102996
:104DD00001D8814201D2072010BDE078410706D4F6
:104DE00021794A0703D4000701D4080701D506201A
:104DF00010BD002010BD10B513785C08C37F64F3AC
:104E00000003C3771478A40864F34103C3771078D0
:104E1000C309487863F34100487013781C090B7884
:104E200064F347130B701378DB0863F300004870DA
:104E30005078487110BD10B5C4780B7864F3000346
:104E40000B70C478640864F341030B70C478A40841
:104E500064F382030B70C478E40864F3C3030B703B
:104E60000379117863F30001117003795B0863F330
:104E70004101117003799B0863F38201117000797D
:104E8000C00860F3C301117010BD70B514460D4623
:104E9000064604F090FA80B10178142221F00F0147
:104EA000891C21F0F001A03100F8081B214619F0FF
:104EB00098F8BDE8704004F081BA29463046BDE854
:104EC00070401322FEF7C1BA70B514460E4605466F
:104ED00004F071FA70B1017821F00F01891C21F002
:104EE000F00120310170458021688160BDE870408B
:104EF00004F064BA31462846BDE870401322FEF73C
:104F0000A4BA10B5FE4C94F8300000280CD104F17E
:104F100020014FF6FF72A1F110000BF038FE00B136
:104F2000FFDF012084F8300010BD2DE9F047064670
:104F300008A8894690E830041F4690461421284668
:104F400019F0A3F80021CAF80010B8F1000F03D03F
:104F5000B9F1000F03D114E03878C00711D02068F0
:104F60000DF008FDF0BBB8F1000F07D1206812303A
:104F700028602068143068602068A8602168CAF83A
:104F800000103878800728D560680DF011FD48BB07
:104F9000B9F1000F2DD0FFF719F80168C6F8C81154
:104FA0008188A6F8CC11807986F8CE01FFF7A9FF99
:104FB000DFF84C8308F12008C5F80C80626862B104
:104FC00096F8C80106F2C91140081032FEF713FA2C
:104FD00010224146606818F0BFFF3878400712D5AC
:104FE000A06800E002E00DF0C5FC50B11020BDE863
:104FF000F08760680028F9D0E8606068C6F8C401EE
:10500000EBE7A06828610020F1E730B50546087895
:105010000C4620F00F00401C20F0F00110312170F0
:105020000020607095F8230030B104280FD00528C7
:1050300011D0062814D0FFDF20780121B1EB101F1A
:1050400004D295F8200000F01F00607030BD21F000
:10505000F000203002E021F0F00030302070EBE76B
:1050600021F0F0004030F9E710B510B190F8BD40E4
:1050700044B1A34890F83540002064B10860106046
:10508000186010BD00F1BC040C6000F1E40100F5F3
:1050900086701160F4E79A4C34340C60EFE700B589
:1050A0008BB00723CDE902128DF8013001919449AC
:1050B000002364310591099301468DF8103068464C
:1050C0000BF03DFD002800D0FFDF0BB000BD70B538
:1050D00090B015460C4602220646ADF8082008217D
:1050E00003AB07F0EAFA0490002812D00C208DF8E8
:1050F000010004208DF8040004F59A7409960594C3
:105100008DF818500AA968460BF019FD00B1FFDFB1
:10511000012010B070BD30B597B00C462C251A99FF
:105120008DF80050ADF80200B3B1186801905868CE
:105130000290ADF80C2010220DF10E0018F00CFFBB
:105140000BA9684607F0A2F9002803D1A17F41F01E
:105150001001A17717B030BD00200190E8E72DE9DC
:10516000F0470646008A8CB080B20D468246FDF7B5
:10517000B7FF0446624F3078283FDFF884814FF054
:105180000009122873D2DFE800F072EF3509367794
:105190007E98A5F0EDECEBEAE95BE9E9A07F00F091
:1051A0000300012806D0002150460AF0F9F8050056
:1051B00003D101E00121F7E7FFDF98F85C10090651
:1051C00002D5D8F860000BE0032105F121000DF0B5
:1051D00055F8D5F821004B49B0FBF1F201FB120064
:1051E000C5F821007068A867B068E86720782528AE
:1051F00000D0FFDFEAE0A07F00F00300012806D026
:10520000002150460AF0CCF8060003D101E001214C
:10521000F7E7FFDF3078810702D52178252904D010
:1052200040F0010030700CB0E1E60220287096F8E2
:105230002000287106F121003136C5E90206F2E7A7
:10524000A07F00F00300012806D0002150460AF09C
:10525000A7F8040003D101E00121F7E7FFDF207880
:10526000C10605D51320287041346C60DBE7CCE122
:1052700040F008002070D6E72148082128380CF0BB
:10528000FDFF032016E02A208DF8000010220DF10A
:105290000200716818F060FE10220DF11200B16872
:1052A00018F05AFE164968462C3907F0EFF800B19D
:1052B000FFDF042028706F60B5E7E07FC00600D5EF
:1052C000FFDFB0680090B38806220821504607F03F
:1052D00003FBA8E704B9FFDF716821B1102204F1D4
:1052E000240018F039FE28212046FDF731FFA07F69
:1052F00000F00300022813D104F12400002303E08E
:10530000FC01002040420F0000901A462146504602
:10531000FFF701FF112807D029212046FDF718FFCC
:10532000307A84F820007EE7A07F000700D5FFDFF9
:1053300014F81E0F40F008002070A4F81690C4F86E
:105340001890C4F81C906178084661F38200410807
:1053500061F3C3006070307AE07064E728E050E1E8
:105360008CE082E05AE000E037E0A07F00F003002C
:10537000012806D0002150460AF012F8040003D19B
:1053800001E00121F7E7FFDF022104F189000CF0C1
:1053900075FF1020287004F5E4706860B4F8891077
:1053A000298204F18000FE496861C5E902813AE77B
:1053B000A07F00F00300012805D00021504609F02D
:1053C000EFFF18B901E00121F8E7FFDF0CB032462A
:1053D00021465046BDE8F04757E504B9FFDF207885
:1053E0002128A0D93079012802D002280AD103E06F
:1053F000E07F40F01000E07798F85C1041F0010188
:1054000088F85C10324621465046FFF73EFD0CB04E
:105410002046BDE8F0472321FDF79ABE3279AA80E5
:1054200005F108030821504607F047F9E86008B184
:10543000112021E0A07F00F00300012806D0002108
:10544000504609F0ADFF040003D101E00121F7E768
:10545000FFDF04F1660102231022081FFFF78CFC16
:1054600080F8009031794170DDE60821504607F060
:1054700003FC00289BD112202870D4E6A07F00F006
:105480000300012806D00021504609F089FF0500DD
:1054900003D101E00121F7E7FFDF95F8880000F074
:1054A0000300012878D1A07F00F00307E07FC0F35C
:1054B000400616B1012F04D02BE095F8A400C007D8
:1054C0002AD0D5F8C01119B395F88720087C62F36B
:1054D00087000874E27FD5F8C01162F341000874B8
:1054E000D5F8C01166F300000874AEB1D5F8C0015C
:1054F000102204F124018C3518F02EFD287E40F096
:1055000001002876287820F0010005F88C0900E0D9
:1055100016B1022F04D02CE095F88C00C00726D0DD
:10552000D5F8BC1119B395F88720087C62F3870081
:105530000874E27FD5F8BC1162F341000874D5F815
:10554000BC1166F3000008748EB1D5F8BC011022BE
:1055500004F124018C3518F0FFFC287840F001009C
:1055600005F8180B287820F0010005F8A409022F8F
:1055700043D0002000EB400005EBC00090F88C0009
:10558000800709D595F88000D5F8C421400805F1B9
:1055900081011032FDF72FFF05208DF8000095F8EE
:1055A00088006A4600F003008DF8010095F88C1021
:1055B0008DF8021095F8A4008DF80300214650469E
:1055C000FFF782FC2078252805D0212807D0FFDFAF
:1055D0002078222803D922212046FDF7B9FDA07F9B
:1055E00000F0030001280AD00021504609F0EAFE2D
:1055F00000283FF424AEFFDF15E60120BAE70121C1
:10560000F3E7716881F801900DE6FFDF0BE670B5F6
:10561000634C0025103C14F85C0F20F080002070D3
:1056200065600BF054FA5E49A1F1100003F056FEDC
:1056300004F82C5C0620607259487C3020615030A0
:10564000A0611030E06170BD70B50D46FDF748FDFA
:10565000040000D1FFDF4FF4E871284618F015FD73
:105660004F485430686104F124002861A07F00F0A5
:105670000300012808D0022105F59A700BF028FAE2
:10568000002800D0FFDF70BD0121F5E70A46014682
:1056900002F59A700BF03CBA70B5054640689CB0B4
:1056A0000178082906D00B2937D00C2933D0FFDF29
:1056B0001CB070BD46883046FDF712FD040000D1D5
:1056C000FFDF20782128F3D0282821D16868022123
:1056D0000C3001F0CEF9D8B168680821001D01F046
:1056E000C8F9A8B12D208DF80000ADF80260102295
:1056F00004F1240101A818F02FFC0BA9684606F05C
:10570000C5FE00B1FFDF29212046FDF721FDCFE7CF
:1057100003F054FECCE70121817168688688304629
:10572000FDF7DEFC040000D1FFDFA07F00F00301E5
:10573000022902D120F01000A077207821280AD079
:105740006868817909B1807880B1A07F00F003009A
:10575000022859D0FFDFA07F00F003000228A7D164
:10576000FDF7B2FE0028A3D0FFDFA1E703F026FE7D
:10577000E07FC10723D0800701D5062000E0052087
:1057800084F82300207829281BD02428E3D131462F
:1057900006200DF085F822212046FDF7D9FC01E016
:1057A0000C020020A07F00F0030001282AD0002175
:1057B000304609F007FE0028CDD0FFDFCBE70420FC
:1057C000DEE7A07F00F00300012806D0002130466C
:1057D00009F0E6FD050003D101E00121F7E7FFDF55
:1057E00025212046FDF7B4FC0F208DF8580016A99E
:1057F00005F59A700BF083F90228ACD00028AAD0E6
:10580000FFDFA8E70121D3E703F0D8FDA3E72DE9E7
:10581000F0438BB09946154688460646FDF760FC76
:1058200004004FD0207822284CD323284AD0E07F90
:10583000C00647D4A07F00F00300012806D0002155
:10584000304609F0ADFD070002D00CE00121F7E77A
:10585000A07F00F00300012805D10121002230467D
:1058600009F095FD074601AB02AA03A93846FFF7E8
:10587000FBFB039800B9FFDF4FB1039807F59A7758
:1058800087612078222806D0242804D007E00399D5
:105890000020886103E025212046FDF759FC03988C
:1058A0000B21417046628580C0E90289029901613D
:1058B0000199416104A90BF042F9022802D00028A5
:1058C00000D0FFDF0BB0BDE8F083F0B587B007462E
:1058D000FDF706FC017822291DD9807F00F0030026
:1058E000012806D00021384609F05AFD04003FD1B6
:1058F00001E00121F7E7FFDF3AE000BFB4F86210F2
:1059000004F1660008440178427831B121463846F6
:10591000FFF7DDFBB8B907B0F0BDADF804200821F2
:10592000384602AB06F0C9FE03900028F3D01120E0
:105930008DF80000694604F59A700BF0E0F8022833
:1059400001D000B1FFDF04F162052E88B01C80B2E7
:105950002880102801D3103828806888022800D2B7
:10596000FFDFB61C102E00D9FFDF6888801E68801C
:10597000B4F864000028C1D1CDE730B587B0054642
:10598000FDF7AEFB0446007822281FD908212846DF
:1059900007F072F9002819D1A07F00F00300012858
:1059A00006D00021284609F0FBFC040003D101E0E9
:1059B0000121F7E7FFDF12208DF80000694604F5AA
:1059C0009A700BF09CF8002800D0FFDF07B030BDC4
:1059D0002DE9F05F05460C46002700789046010946
:1059E0003E46BB4604F1080A02297CD0072902D0B2
:1059F0000A2909D142E068680178082905D00B29F5
:105A00002CD00C292AD0FFDFC6E114271C26002C3D
:105A10006AD04088A080FDF763FB5FEA000900D1EF
:105A2000FFDF99F817005246400809F11801FDF709
:105A3000E2FC68688089208268684168C4F81210B6
:105A40008068C4F81600A07E20F0060040F0010037
:105A5000A07699F81E0040F040014DE01A270A2672
:105A6000002CD5D08088A080FDF73AFB050000D13E
:105A7000FFDF51462846FFF7C8FA8DE10CB1288BAD
:105A8000A080287A0E287CD006DC01287AD0022853
:105A900008D0032804D135E0102874D0112873D021
:105AA000FFDF79E11E270926002CB1D0A088FDF781
:105AB00017FB5FEA000900D1FFDF287B00F003003D
:105AC0000128207A1BD020F001002072297B890850
:105AD00061F341002072297BC90861F382002072C2
:105AE000297B090901E04CE119E161F3C30020724F
:105AF00099F81E0040F0800189F81E104CE140F03A
:105B00000100E2E713270D26002CAAD0A088FDF79C
:105B1000E7FA8146807F00F00300012806D00021CB
:105B2000A08809F03DFC050003D101E00121F7E761
:105B3000FFDF99F81E0000F00302012A59D0E86F38
:105B4000817801F003010129217A54D021F001016B
:105B5000217283789B0863F3410121728378DB080B
:105B600063F38201217283781B0963F3C3012172FD
:105B7000037863F306112172437863F3C71121722E
:105B800003E060E0A6E08EE09EE084F809B0C17812
:105B9000A172012A32D04279E17A62F30001E17206
:105BA0004279520862F34101E1724279920862F34C
:105BB0008201E1724279D20862F3C301E172027993
:105BC000217B62F3000121730279520862F34101E3
:105BD00021730279920862F3820121730079C0086F
:105BE00060F3C301217399F8000023285AD92621B4
:105BF00068E0A86FA4E741F00101A9E70279E17A22
:105C000062F30001E1720279520862F34101E1722C
:105C10000279920862F38201E1720279D20862F39A
:105C2000C301E1724279217B62F300012173427961
:105C3000520862F3410121734279920862F38201B2
:105C400021734079CBE718271026002C67D0A08855
:105C5000FDF746FA8246807F00F00300012807D056
:105C60000021A08809F09CFB5FEA000903D101E054
:105C70000121F6E7FFDFE868A06099F8000040F036
:105C8000040189F8001099F80100800708D5012067
:105C900020739AF8000023287ED92721504663E01C
:105CA00084F80CB078E015270F26C4B3A088FDF760
:105CB00017FA814606225146E86806F04FFC01209B
:105CC000A073AEE048464FE0162709263CB3287B78
:105CD000207261E0297BFE4802290CD019270E268C
:105CE000ECB101290DD003291AD004291BD00529B4
:105CF00019D0FFDF23E01B270926BCB30121217245
:105D000005E001212172617A21F00301617210F82E
:105D10005C1F4A08520062F3060101700FE02BE09D
:105D20000220207207E0687B052900F00F0040F098
:105D3000800020721BD0607A20F003006072A0887F
:105D4000FDF7CEF905460078212825D0232800D07C
:105D5000FFDFA87F00F00300012810D00021A088F9
:105D600009F030FB22212846FDF7F2F914E0607AB1
:105D700020F00300401CE1E7A8F8006011E00121D9
:105D8000EDE70CB16888A080287A03282BD004287E
:105D90000AD005284BD0FFDFA8F800600CB127809F
:105DA00066800020BDE8F09F15270F26002CE3D069
:105DB000A088FDF795F9807F00F00300012806D048
:105DC0000021A08809F0ECFA050003D101E00121CF
:105DD000F7E7FFDFD5F821000622514606F0BEFBAB
:105DE00084F80EB0D8E717270926002CC4D0A08865
:105DF000FDF776F98146807F00F00300012806D088
:105E00000021A08809F0CCFA050003D101E00121AE
:105E1000F7E7FFDF6878800701D5022000E0012066
:105E2000207299F800002328B6D927214AE71927BC
:105E30000E26002CA0D0A088FDF752F95FEA0009D9
:105E400000D1FFDFC4F808B0A4F80CB084F808B0A3
:105E5000A07A40F00300A07299F81F1061F382004D
:105E6000A07299F81F1001EA510161F3C300A072FA
:105E7000687A00F0030001288ED1607A40F00400B7
:105E8000607299F81E00E97A00F00300012813D02F
:105E9000607B61F300006073AA7A217B62F30001EA
:105EA0002173EA7A520862F341006073A87A4008CD
:105EB00060F3410121736FE7207B61F300002073E1
:105EC000AA7A617B62F300016173EA7A520862F395
:105ED00041002073A87A400860F3410161735BE7D9
:105EE00010B57B4C30B10146102204F1200018F0AF
:105EF00033F8012084F8300010BD10B50446FFF7D8
:105F000000F8734920461022BDE81040203118F0F7
:105F100023B870B56E4C06004FF0000514D00CF09D
:105F200003FD08B110250DE00621304606F0FDFA0C
:105F3000411C06D0206614F85C0F40F080002070F1
:105F400000E00725284670BD14F85C0F20F08000A3
:105F5000F5E7007810F00F0204D0012A05D0022ADC
:105F60000CD110E0000909D10AE00009012807D08E
:105F7000022805D0032803D0042801D00720704749
:105F80000870002070470620704705282AD2DFE8F5
:105F900000F003070F171F00087820F0FF001EE035
:105FA000087820F00F00401C20F0F000103016E0C0
:105FB000087820F00F00401C20F0F00020300EE0A8
:105FC000087820F00F00401C20F0F000303006E090
:105FD000087820F00F00401C20F0F00040300870DE
:105FE00000207047072070472DE9F041804688B0B7
:105FF0000D46002708460CF0E4FCA8B94046FDF722
:106000006FF8040003D02078222815D104E043F271
:10601000020008B0BDE8F08145B9A07F010603D5B4
:1060200000F00300022801D01020F2E7A07FC10693
:1060300001D4010702D50DB10820EAE7244991F8FF
:106040005C10C90701D01120E3E7E17FC90601D543
:106050000D20DEE700F00300022805D125B1284617
:10606000FEF7A5FE0700D4D1A07F00F003000128B1
:1060700006D00021404609F093F9060002D00DE059
:106080000121F7E7A07F00F0030001280CD00021D8
:106090000022404609F07BF9060007D0A07F00F0FF
:1060A0000300022804D009E00121F1E70420B0E751
:1060B00025B12A4631462046FEF79DFE07AB1A461B
:1060C00069463046FEF7D0FF009800B9FFDF01E0D7
:1060D000FC01002000990C20487006F59A70C1F868
:1060E0002480486100200881A07F00F0030001287F
:1060F00028D0EDB302200871301D88613078400946
:1061000008777078C0F340004877287800F00102E3
:10611000887F62F301008877E27F62F382008877EC
:10612000E27F520862F3C3008877727862F304104A
:106130008877A878C87701F1210228462031FEF738
:106140007AFE22E001200871287800F00102087E22
:1061500062F3010008762A78520862F3820008761A
:106160002A78920862F3C30008762A78D20800E001
