:020000021000EC
:10F0000000000120F1A4020019A502001BA50200C6
:10F010001DA502001FA5020021A50200000000009E
:10F0200000000000000000000000000023A5020016
:10F0300025A502000000000027A5020029A5020066
:10F040009D2502002BA50200353302002BA50200EE
:10F050002BA502002BA50200E92902002BA5020026
:10F060002BA502002BA502002BA502002BA5020058
:10F070002BA502002BA502002BA502002BA5020048
:10F080002BA50200E9FE01002BA502002BA5020022
:10F0900089FF01002BA502007DB402002BA5020010
:10F0A0002BA502002BA502002BA502002BA5020018
:10F0B0002BA502002BA502000000000000000000AC
:10F0C0002BA502002BA502002BA502002BA50200F8
:10F0D0002BA502002BA502002BA5020000000000BA
:10F0E0000000000000000000000000000000000020
:10F0F0000000000000000000000000000000000010
:10F1000000000000000000000000000000000000FF
:10F1100000000000000000000000000000000000EF
:10F1200000000000000000000000000000000000DF
:10F1300000000000000000000000000000000000CF
:10F1400000000000000000000000000000000000BF
:10F1500000000000000000000000000000000000AF
:10F16000000000000000000000000000000000009F
:10F17000000000000000000000000000000000008F
:10F18000000000000000000000000000000000007F
:10F19000000000000000000000000000000000006F
:10F1A000000000000000000000000000000000005F
:10F1B000000000000000000000000000000000004F
:10F1C000000000000000000000000000000000003F
:10F1D000000000000000000000000000000000002F
:10F1E000000000000000000000000000000000001F
:10F1F000000000000000000000000000000000000F
:10F2000010B5054C237833B9044B13B10448AFF360
:10F2100000800123237010BD6C2700200000000037
:10F22000F4C70200084B10B51BB108490848AFF3FA
:10F2300000800848036803B910BD074B002BFBD0C2
:10F24000BDE81040184700BF0000000070270020F4
:10F25000F4C702005827002000000000154B002BC7
:10F2600008BF134B9D46A3F5803A00218B460F46FD
:10F270001348144A121A00F065F80F4B002B00D007
:10F2800098470E4B002B00D0984700200021040027
:10F290000D000D48002802D00C48AFF3008000F0AC
:10F2A0002BF82000290005F079F800F011F800BFD4
:10F2B0000000080000000120000000000000000025
:10F2C0006C270020303A0020000000000000000001
:10F2D00008B5074B044613B10021AFF30080054B7E
:10F2E0001868836A03B19847204600F033F800BFDE
:10F2F0000000000010C2020070B50E4B0E4CE41A64
:10F30000A41000251E46A54204D056F82530984783
:10F310000135F8E70CF070FF084C094BE41AA41013
:10F3200000251E46A54204D056F8253098470135E1
:10F33000F8E770BD502700205027002054270020F8
:10F340005027002002440346934202D003F8011BD9
:10F35000FAE77047FEE700BF0378012B04BF014ABC
:10F3600013707047882800202DE9F04FC7B01C4665
:10F370009248002914BF0A23002316460D46009325
:10F3800003F0CCFF002840F0E480002C00F0E58082
:10F3900006AB83460193519B539A9E1820250296F3
:10F3A00058460099019A0B46034404933133D3180D
:10F3B0000393171800295FD07B4203F003038B42AD
:10F3C00028BF0B46062900F2EB800B46019A012B61
:10F3D000155407F1010200F0E180022B7D7007F166
:10F3E000020200F0DB80032BBD7007F1030200F086
:10F3F000D580042BFD7007F1040200F0CF80062BAE
:10F400003D7107F1050240F0D1807D71BA1D9E4625
:10F41000009999422ED0009EC3EB060AAAF104017E
:10F4200006F1FF3B8908C3EB0B0B0131BBF1020F67
:10F430004FEA810C12D90344019E4FF0203001297C
:10F4400006EB030BF05005D00229CBF8040001D0E5
:10F45000CBF80800D4456244E6440BD00098157000
:10F460000EF10103834205D20EF1020E7045557074
:10F4700000D99570009B1F44039B059707F1330942
:10F4800007F1030A264603F101084C46029FDDF806
:10F4900044910DE00AF8035C0AF8025C0AF8015C8A
:10F4A0000AF1030AA24508F8015C08F101082FD00F
:10F4B000BE42EFD24E456BD2509B13F806B00AF80D
:10F4C000015C4FEA2B105FFA80FE09280BF00F0059
:10F4D000D4BF0EF1300E0EF1370E092894BF303034
:10F4E00037300AF803EC0AF8020C0CF0B5F958446E
:10F4F0000AF1030A407810F0970F08BF4FF02E0B67
:10F50000A24508F801BC06F1010608F10108CFD1B7
:10F51000049B03980297059F019903F1430A0D226A
:10F520000A23027443745246254887F830500CF081
:10F53000BEF95FFA8AF222492048344603F042FEBF
:10F5400038B91E4803F0EAFE18B9029B9C42FFF44A
:10F5500028AF204647B0BDE8F08F55B306A82B680A
:10F56000184A01904FF480710CF0C8F90028F0DBC4
:10F57000054630460CF0F4F9019BC22828BFC22092
:10F5800083460246314658190CF091F9AB4402E724
:10F59000C9EB0600529B13F800B090E79E4637E790
:10F5A000002B7FF413AF3A469E4634E74FF0050E2A
:10F5B0002EE706AB25460193DBE700BFBC25002004
:10F5C0008827002034C202002DE9F0416B48C6B004
:10F5D0000C4616461D4603F0A1FEA8B9C4B106AFFD
:10F5E0002368674A38464FF480710CF087F9002889
:10F5F0000ADB4C9B8046062B00F2BD80DFE803F05F
:10F60000146670327C405200002046B0BDE8F081A4
:10F610004C9B062B00F2AC80DFE803F0049C969034
:10F62000847E8A004FF0000830460CF099F900EB18
:10F630000803FF2B044640F29380002CE4DB08EB28
:10F640000402B2F5807FDFD8D4B206A94D480CF091
:10F650002EF922464B49494803F0B4FDB0FA80F038
:10F660004009D2E7C0F58071AA686C682B680192E6
:10F670000094324607EB08000CF040F90446DCE742
:10F68000C0F580712869EA682B680390AC686D68E2
:10F69000009502920194324607EB08000CF02EF917
:10F6A0000446CAE7C0F580716A6928692B6804922C
:10F6B000EA680390AC686D68009502920194324646
:10F6C00007EB08000CF01AF90446B6E7C0F58071A4
:10F6D0002B68324607EB08000CF010F90446ACE743
:10F6E000C0F580716A682B68009207EB080032460B
:10F6F0000CF004F90446A0E7C0F58071EA68AC6834
:10F700002B686D68009502920194324607EB080061
:10F710000CF0F4F8044690E74FF480714FF00008C5
:10F7200006AFAFE74FF480714FF0000806AFE5E792
:10F730004FF480714FF0000806AFB5E74FF48071C9
:10F740004FF0000806AF8FE74FF480714FF00008CC
:10F7500006AFC7E74FF480714FF0000806AFB7E778
:10F7600006AB314603EB080022460CF0A0F864E734
:10F770000024224669E7002461E700BFBC25002081
:10F7800034C2020088270020F0B51A4F3B7889B0B8
:10F790001BB1194B1B78834229D0184D06460FCD5B
:10F7A0006C460FC495E80F004FF0000E84E80F0080
:10F7B0000625052107224FF0EB7311480391082419
:10F7C00002928DF814E000950194069303F074FC06
:10F7D000002E0C4A0A4818BF0022694603F07EFB3F
:10F7E00018B9054A012316703B7009B0F0BD00201E
:10F7F00009B0F0BD8A2800208928002014C2020028
:10F80000BC25002059F3010000487047C9F50100EC
:10F810000048704769F3010038B50020FFF7B4FFD6
:10F82000044668B9FFF7F0FF0546FFF7F1FF054B07
:10F83000FF22C3F810541C605C60C3F814049A6083
:10F84000204638BD8C2800200120FFF79DBF00BF57
:10F850002DE9F04383B002AB4FF0000803F8018DAF
:10F86000254C064618460D46A76801F019F8A2680F
:10F870006368D4F8009013440133C9EB0303012BF0
:10F8800007D80BBB9DF8070001F032F803B0BDE8C4
:10F89000F08309F101039DF80700236001F028F8C7
:10F8A0000122002362F3010368F3820307EA0907D8
:10F8B00066F3C50304EB870468F3891365F39F239C
:10F8C000E36003B0BDE8F0830121434661F3010327
:10F8D00068F38203052161F3C50309EA02020749BF
:10F8E00004EB820268F3891309F1010761F39F2396
:10F8F0002760D360C6E700BF8C2800203CC202000E
:10F900002DE9F04782B002AB002603F8016D294CC7
:10F910008146184617468846A56800F0C1FFA268D0
:10F920006368D4F800A013440133CAEB0303022B2D
:10F9300007D843BB9DF8070000F0DAFF02B0BDE82E
:10F94000F0870AF102039DF80700236000F0D0FF62
:10F950000122002362F301030AEB020166F3820332
:10F9600069F3C50305EA0A0A0D4004EB8A0A62F34B
:10F97000891304EB850468F39F23CAF80C30E76011
:10F9800002B0BDE8F0870121334661F3010366F35D
:10F990008203052161F3C5030AEA0202064804EB6B
:10F9A000820266F389130AF1010160F39F2321604B
:10F9B000D360BFE78C2800203CC202002DE9F04F45
:10F9C00083B002AD002605F8016D2D4C8246284615
:10F9D00090461F468946A56800F062FFA2686368EA
:10F9E000D4F800B013440133CBEB0303032B07D847
:10F9F0007BBB9DF8070000F07BFF03B0BDE8F08FF4
:10FA00000BF103039DF80700236000F071FF012252
:10FA1000002362F301030BF1020066F382035A44F0
:10FA20006AF3C503022105EA0B0B2A40054004EBEB
:10FA30008B0B04EB820261F3891304EB850469F3F9
:10FA40009F23CBF80C30C2F80C80E76003B0BDE810
:10FA5000F08F0121334661F3010366F38203052130
:10FA600061F3C5030BEA0202064804EB820266F367
:10FA700089130BF1010160F39F232160D360B8E784
:10FA80008C2800203CC202002DE9F04F83B002AF69
:10FA9000002607F8016D314C8246384690461F46D5
:10FAA000A568894600F0FCFEA2686368D4F800B03F
:10FAB00013440133CBEB0303042B07D8BBBB9DF8E6
:10FAC000070000F015FF03B0BDE8F08F0BF1040351
:10FAD0009DF80700236000F00BFF0122002362F372
:10FAE000010366F382030BEB02010BF103060BF13A
:10FAF00002026AF3C503032005EA0B0B04EB8B0B30
:10FB000060F3891369F39F2329402A403540CBF8DD
:10FB10000C3004EB810104EB82020C9BC1F80C80D9
:10FB200004EB8504D760E36003B0BDE8F08F0121EA
:10FB3000334661F3010366F38203052161F3C503D4
:10FB40000BEA0202064804EB820266F389130BF10A
:10FB5000010160F39F232160D360B0E78C2800206F
:10FB60003CC202002DE9F0474C4E96E80C009A4248
:10FB70008AB070D0B06804E0C4F3891202EB9452EA
:10FB8000134400EA0305023506EB8502013354688D
:10FB900014F00302F0D0022A28D0C4F38312C4F375
:10FBA000952C002A75D00DF1100E7546D71800EA75
:10FBB000030106EB81010133C96845F8041BBB4210
:10FBC000F5D10092C4F3C20073466246D6F81044E1
:10FBD000324D0021A04738B177603068C01B18BF94
:10FBE00001200AB0BDE8F0876F68F6E703F1010A6B
:10FBF00020EA0A010340013106EB830389004FEA42
:10FC000094588845DA68DFF894E0C4F3891326D95C
:10FC1000A9B300EA0A0C5FFA81F90EEB8C0CC9EB70
:10FC200008010CF10C0C0EF10C00C9B2039102900A
:10FC3000CDF80490CDF800C00021C4F3C200D6F87E
:10FC40001474B847404520D006EB850560F38F1447
:10FC50006C607768C1E700200AB0BDE8F08700EA71
:10FC60000A000EEB80000C308DE801010021DEF867
:10FC7000149403910291C4F3C200C847E2E70EF165
:10FC80000C0C08465FFA88F9D0E703300AEB9007BE
:10FC9000A2E71F460DF1100E93E700BF8C2800204D
:10FCA0002DE9F84F244B1A788AB3DFF890B0DFF8CB
:10FCB0009090DFF890A00024012703E00134E4B223
:10FCC000944224D226B2D9F80050DBF8003015F85F
:10FCD000360007FA00FE1EEA030F05EBC608EDD05A
:10FCE000164A23EA0E03136002F074FE15F836502C
:10FCF000DAF8003007FA05F6334000FA05F6B342A9
:10FD000007D00D4B01341A78E4B29442DAD3BDE83F
:10FD1000F88FD8F80430002BF3D098F80110A1F137
:10FD20000101B1FA81F14909091AB1FA81F14909D0
:10FD300028469847E5E700BFAC2C0020D42C0020D3
:10FD4000A82C0020D02C002070B50646114800F0E9
:10FD50006BFD40B9104D01242B68B4401C4203D008
:10FD600023EA04042C6070BD304602F033FE0B4AD7
:10FD7000136860B123432E680949136034432C6033
:10FD8000044809680022BDE8704000F0F7BC23EA8F
:10FD90000403F0E7B02C0020D42C0020D02C00204D
:10FDA000A42C0020042A01D8072070472DE9F04137
:10FDB00082B088460546174602F0D8FC002834D0A9
:10FDC0001C4C1D481D491E4A1E4B2560002608F18B
:10FDD000FF340F6080F8008016601E60E4B20327D5
:10FDE000B8F1000F03D11AE0DBB2C4B11C4623B254
:10FDF00005EBC30215F833009378134A8DF80530EC
:10FE000001A98DF804708DF806608DF8076002F086
:10FE1000B7FC631E0028E7D002B0BDE8F0810B4AB2
:10FE20000B48002100F098FCF6E702F05DFC00288A
:10FE3000C6D0F1E7A82C0020AC2C0020A42C002078
:10FE4000D02C0020D42C002049FD0100A1FC010091
:10FE500048C2020070B5084D2B785BB1074E0024F4
:10FE60003368012113F8340002F052FD2B7801347D
:10FE7000A342F5D8002070BDAC2C0020A82C002097
:10FE800000B585B000230390194601AA44F2010091
:10FE9000ADF80430029300F003F805B05DF804FB00
:10FEA00008B50D490120FFF7D3FCFFF7CDFCFFF7A4
:10FEB00059FE0028FBD109490320FFF7C9FCBFF315
:10FEC0004F8F0749074BCA6802F4E0621343CB60C7
:10FED000BFF34F8F00BFFDE74CC202005CC20200BF
:10FEE00000ED00E00400FA05F8B5204A204B00259B
:10FEF000C2F84051C2F84451C2F84851C2F84C51BE
:10FF0000C2F80051C2F804511B6813B31949D2F862
:10FF100004250C68141B1A6824F07F44A2422F4663
:10FF200009D8197CDE69A41A154499B91EB1334663
:10FF30001A68A242F5D9104B10491A780B789A42E8
:10FF40000DD00F490F4A41F823504FF48013C2F8E7
:10FF50000031F8BD1F745A6998699047E6E7531C51
:10FF6000DBB2022B08BF00230B70EAE70010014050
:10FF7000DC2C0020D82C0020E02C0020E12C0020DC
:10FF8000F02D002000E100E02DE9F04F884A89497A
:10FF90001378097899428BB037D00133DBB2022B4A
:10FFA00008BF002384491370844A0E68029152F8F6
:10FFB0002300834905910B6802993218002522F02D
:10FFC0007F420A602C462946AE46ABB11A6882428F
:10FFD00000F2E681DD68C3F800E0801A1444DA69B3
:10FFE00035B1371927F07F47D9619D605F601946A9
:10FFF00013460125002BE9D1002D40F0DC820023BF
:020000022000DC
:10000000069301230893069A08E06D4B05931B683D
:10001000694A02920021069308911A46694BDFF85B
:10002000AC811B780393059B1B681C46029B1F68D1
:100030000023BA460F460993C346079399461846CC
:100040004FF0010E0193A4463FB37D68BE68394668
:10005000FF695D4BCAEB050424F07F449C423CD809
:10006000A3190B604860886081F810E0C861002A1D
:1000700068D015689D4249D2164603E025689D4226
:1000800034D22646F4695B1B002CF7D1CC610B609F
:100090001446F1612246002FD7D198F8003098F825
:1000A0000110994200F09480591C03EB43039BF824
:1000B000024008EBC303C9B28C421C798BF80010D4
:1000C00008BF8BF80070022C99684ED0032C3FD0EB
:1000D000012C24D014462246DDE7C5EB0A0525F0A5
:1000E0007F45B54209D2731B0B60BBE7ED1A256053
:1000F000CC610B601446F161CCE708604860886011
:1001000081F810E0C861EAB115680023EB1A0C46CB
:1001100013608C46CA614FF001092246BBE70C7C94
:100120000494002CD6D1DD684D601E698E605C6938
:10013000CC609B698B61039B002B8AD0049B4B6036
:100140001D4686E70C468C464FF001092246A2E781
:100150000AB9BFE71A46D3691074002BFAD11C46BE
:100160009C464FF00109224695E752B1914200F0BA
:100170000B81134602E0B14207D03346DE69002E00
:10018000F9D114460874224685E7994200F0FE80B2
:100190001446F5693668DD6115B12B6833442B6070
:1001A000019B0874A24218BF01230193EBE700BF33
:1001B000E02C0020E12C0020D82C0020F02D002085
:1001C000DC2C0020E22C0020FEFF7F00E42C00202D
:1001D0005746DDF804A0B9F1000F40F04981079BB4
:1001E000002B40F0E581099B002B40F0DC81BAF147
:1001F000000F03D1069B9A4200F03F81002A00F0D5
:1002000041816C49029BD1F804051B686A4C176850
:100210002578C21A22F07F420332002D51D1674D5A
:10022000DFF89CC1DFF89CE14FF48036C1F84463ED
:10023000C1F804634FF40036C5F880612E600125D3
:100240000D60DCF800602F2100BF00BF00BF00BFC1
:1002500000BF00BF00BF00BF76452FD000BF00BF6A
:1002600000BF00BF00BF00BF00BF00BF00BF00BF96
:1002700000BF00BF00BF00BF00BF00BF00BF00BF86
:1002800000BF00BF00BF00BF00BF00BF00BF00BF76
:1002900000BF00BF00BF00BF00BF00BF00BF00BF66
:1002A00000BF00BF00BF00BF00BF00BF00BF00BF56
:1002B00000BF00BF00BF00BF00BF00BF0139C3D1F6
:1002C000257097422CBFDA199A183A4922F07F43D9
:1002D000C1F84035D1F80425121A1B1A22F07F42CA
:1002E00023F07F4303329A4248D9D1F80435344A87
:1002F000C1F84035126833492F2300BF00BF00BF4B
:1003000000BF00BF00BF00BF00BF8A422FD000BFA8
:1003100000BF00BF00BF00BF00BF00BF00BF00BFE5
:1003200000BF00BF00BF00BF00BF00BF00BF00BFD5
:1003300000BF00BF00BF00BF00BF00BF00BF00BFC5
:1003400000BF00BF00BF00BF00BF00BF00BF00BFB5
:1003500000BF00BF00BF00BF00BF00BF00BF00BFA5
:1003600000BF00BF00BF00BF00BF00BF00BF013B18
:10037000C3D1124B4FF40032C3F80021124A0023BC
:1003800013700BB0BDE8F08F16461346D2F81C90E0
:10039000B9F1000F1AD0CC464C464FF00109F8E6EF
:1003A000002D62D1121A1A60069301230893069A4F
:1003B00034E600BF00100140F82D002000E100E00D
:1003C000E02500200024F400E22C00207B4C7C4D32
:1003D000C4F808E07B4C4FF02F0C246800BF00BF2E
:1003E00000BF00BF00BF00BF00BF00BFAC422FD0A6
:1003F00000BF00BF00BF00BF00BF00BF00BF00BF05
:1004000000BF00BF00BF00BF00BF00BF00BF00BFF4
:1004100000BF00BF00BF00BF00BF00BF00BF00BFE4
:1004200000BF00BF00BF00BF00BF00BF00BF00BFD4
:1004300000BF00BF00BF00BF00BF00BF00BF00BFC4
:1004400000BF00BF00BF00BF00BF00BF00BF00BFB4
:10045000BCF1010CC2D1012425460994CC464C467E
:10046000CA4603950795A94693E6059C236099E73C
:10047000059B1946C1F800C0B1E6089B002B3FF46C
:100480007DAFBBE64D49504B4E4E4D4C4FF4803046
:100490004FF400370125C3F88070C1F848032F23BB
:1004A000C1F808034D6030681E4600BF00BF00BFA2
:1004B00000BF00BF00BF00BF00BFA0422FD000BFE1
:1004C00000BF00BF00BF00BF00BF00BF00BF00BF34
:1004D00000BF00BF00BF00BF00BF00BF00BF00BF24
:1004E00000BF00BF00BF00BF00BF00BF00BF00BF14
:1004F00000BF00BF00BF00BF00BF00BF00BF00BF04
:1005000000BF00BF00BF00BF00BF00BF00BF00BFF3
:1005100000BF00BF00BF00BF00BF00BF00BF013E63
:10052000C3D18D6002990A6000BF00BF00BF00BF49
:1005300000BF00BF00BF00BFA0422FD000BF00BF60
:1005400000BF00BF00BF00BF00BF00BF00BF00BFB3
:1005500000BF00BF00BF00BF00BF00BF00BF00BFA3
:1005600000BF00BF00BF00BF00BF00BF00BF00BF93
:1005700000BF00BF00BF00BF00BF00BF00BF00BF83
:1005800000BF00BF00BF00BF00BF00BF00BF00BF73
:1005900000BF00BF00BF00BF00BF00BF013BC3D111
:1005A0000A4B1A70EAE60A4B9DF80C1019701EE609
:1005B000029B1F6017E6059A136020E500100140BA
:1005C0000024F400E025002000E100E0F82D0020E8
:1005D000E22C0020F0B4564B564A574E574C4FF47D
:1005E00080304FF400310125C2F88010C3F8480371
:1005F0002F21C3F808035D6030680E4600BF00BFBE
:1006000000BF00BF00BF00BF00BF00BFA0422FD08F
:1006100000BF00BF00BF00BF00BF00BF00BF00BFE2
:1006200000BF00BF00BF00BF00BF00BF00BF00BFD2
:1006300000BF00BF00BF00BF00BF00BF00BF00BFC2
:1006400000BF00BF00BF00BF00BF00BF00BF00BFB2
:1006500000BF00BF00BF00BF00BF00BF00BF00BFA2
:1006600000BF00BF00BF00BF00BF00BF00BF00BF92
:10067000013EC3D19D6000BF00BF00BF00BF00BFEF
:1006800000BF00BF00BFA0422FD000BF00BF00BF0F
:1006900000BF00BF00BF00BF00BF00BF00BF00BF62
:1006A00000BF00BF00BF00BF00BF00BF00BF00BF52
:1006B00000BF00BF00BF00BF00BF00BF00BF00BF42
:1006C00000BF00BF00BF00BF00BF00BF00BF00BF32
:1006D00000BF00BF00BF00BF00BF00BF00BF00BF22
:1006E00000BF00BF00BF00BF00BF0139C3D1144E1F
:1006F000144D154C1549164F00203070286020709D
:100700004FF48015E0240B26087048708E70387006
:100710001049C2F8805182F814431560C3F80805E7
:1007200082F81143D3F804350B60F0BC704700BF6A
:100730000010014000E100E0E02500200024F4006A
:10074000F82D0020DC2C0020E02C0020E42C0020E0
:10075000E12C0020D82C0020074B9B780BB90820F7
:1007600070473AB130B10368187C0028F7D159744A
:100770005A61704707207047E42C00202DE9F043B0
:10078000264CA37883B01BB9082003B0BDE8F083E2
:100790000028F9D0042903D8072003B0BDE8F0836E
:1007A0004369002BF0D0064602A8737C0025012B7C
:1007B00000F8015D0CBF8946A94690460F4600F03F
:1007C0006FF86378A07821785A1CD2B2904208BFA3
:1007D0002A4691421BD003EB430304EBC3030120E1
:1007E0000F4918719E60D1F804159DF80700D96073
:1007F0001F61C3F81490C3F81880627000F078F895
:10080000084B4FF480122846C3F80021BDE79DF83D
:10081000070000F06DF80420B7E700BFE42C0020CB
:100820000010014000E100E070B51B4CA37882B0DD
:1008300013B9082002B070BD0028FAD04369002B1C
:10084000F7D0064602A8002500F8015D357400F0D7
:1008500027F86278A0782178531CDBB2984208BF51
:100860002B46994212D002EB420204EBC202022153
:100870009DF8070096601171637000F039F8074B1E
:100880004FF480122846C3F80021D3E79DF80700F3
:1008900000F02EF80420CDE7E42C002000E100E079
:1008A000F0B4EFF3108472B60E4B9A68B2B90E49E9
:1008B00001259D60D1F880700C4D2E463D401D6095
:1008C000C1F88060D1F884505D604FF0FF33C1F80B
:1008D0008430027004B962B6F0BC70470123037023
:1008E000F8E700BF203A002000E100E0FC06FFBD71
:1008F000094B9A6872B168B910B4EFF3108272B6FE
:1009000006491C680C605C684C60986002B962B66D
:100910005DF8044B704700BF203A002000E100E082
:10092000F0B52B4C2B4F6368668883B0002B48D002
:1009300036015A88B9190332496803EB820201F57E
:100940008050824225D21368013318BF4FF6FF75DD
:100950001FD09388AB4213D013888BB162601E48BE
:100960005388868801681D480025033300959BB293
:1009700001EB86010325257001F08AFA03B0F0BD72
:100980005388033302EB8302824202D2136801339D
:10099000DFD13E44B38963B10F4D10482968022767
:1009A000052600230122AF80267001F0C9FA03B0AA
:1009B000F0BD0122094801F0C3FA0423237003B0FB
:1009C000F0BD3601BB19596801F10802B7E700BF55
:1009D000942E0020742E00201C2F00205C27002065
:1009E000F0B543688E464BB1304A1468A34205D334
:1009F0005268934202D813F0030236D000232C4EE3
:100A0000AEF800304FF0010C4FF6FF757768002309
:100A100007F58054C3B15A88033203EB82039C422A
:100A200016D91A68013213D09A88AA42F3D01A88CC
:100A3000002AF0D0026899689142EBD11D4A4360C8
:100A4000138903810120F0BD07F108039C42E8D817
:100A50000CF10103AEF800C01FFA83FCBCF1030FD8
:100A600006F11006D2D10020F0BD124C0589248970
:100A7000A542C3D105689C68A542BFD10C4C6068F3
:100A8000834205D900F58050834201D2134608E025
:100A900062699342E7D902F58052934238BF01233D
:100AA000E1D2AEF800300120F0BD00BF5C2700208D
:100AB000742E0020942E0020B3F804C0BCF1010F66
:100AC00054D82DE9F043DFF8AC8091464FF6FF771C
:100AD00000224FEA0C1408EB040E18F80440002C16
:100AE00033D11C68002C3CD06588DEF804600335E7
:100AF00004EB850406F58056A64225D92568013504
:100B000022D0A588BD4219D02588BDB11C6018B17E
:100B1000A6880588AE42E5D119B126880D88AE4277
:100B2000E0D1A268C9F800201A68114BC9F8042066
:100B30001B89A9F808300020BDE8F08365880335DB
:100B400004EB8504B442D9D31A600CF1010C1FFAEE
:100B50008CFCBCF1020FA3F804C0BAD10A20BDE896
:100B6000F083DEF8046006F10804C3E70A2070474A
:100B7000942E0020742E00202DE9F04FB34C256FE9
:100B8000EB005E1BB6008BB0A25D0293531E804645
:100B900004EB060BA146052B00F2E482DFE803F02C
:100BA0006948481E1E03002840F0DD80DFF8B8E2E7
:100BB0009EF80C30002B00F02F839EF800308EF84A
:100BC0000C00013B062B00F2CC82DFE813F0FD02A3
:100BD000AA0294017401CA02B5028F02002840F0F3
:100BE000C380029B5B1B04EB83031F4693F804A0A6
:100BF000BAF1010F00F05683C0F03F83BAF1020F43
:100C000041F61D5318BF0F2341F61D518B4200F0D2
:100C1000B18019F8061006938B1E012B40F2CB8091
:100C2000013A052A36D8DFE802F07A967E6A5C320D
:100C3000029B87495B1B04EB83030F46B3F812A0AA
:100C400001EB0A1A002840F0A080BAF80800DAF890
:100C500004101B7C01EB80010391062B00F29783AB
:100C6000DFE813F06101AE018E010102EA01CF015C
:100C7000CC01002840F081809BF80430032B00F267
:100C80008483DFE813F00B01F500D300A2000523F5
:100C90008DF814306F4D05F1200655F8043F0BB167
:100CA00005A89847B542F8D1206F684DC0EBC00049
:100CB00004EB80001C220021FEF744FB636F43B16C
:100CC0002A6F0132013B02F003026B672A67002B97
:100CD0006BD1614A137823F0040313700BB0BDE8A5
:100CE000F08F029B5B1B04EB83030422DB88ADF8CF
:100CF000203000238DF81420ADF82230CAE7029B83
:100D00005B1B04EB83030322D8881989DB680793F4
:100D1000ADF82000ADF822108DF81420BAE70023BA
:100D20008DF81430B6E7029B5B1B04EB83030221B2
:100D30001A7C1E899D88D868ADF82060A2F1060350
:100D4000B3FA83F35B098DF82430ADF82250079095
:100D50008DF814109EE7029B5B1B04EB83030122BA
:100D600018899988D2E70622012341F61D518B424A
:100D70007FF44FAF0023069352E737490B780122E7
:100D800023F001030B7013463EE7D888BAF80A3007
:100D9000BAF8081000F1030E1B1A033B7144AAF8BD
:100DA0000A30AAF8081001232EE70020FFF7E4FE1E
:100DB0000BB0BDE8F08F294B9BF81660186C596C8E
:100DC0003044891B186459642AE7DFF8A080244A5C
:100DD000D8F8001023484FF0000A0223CDF800A0F5
:100DE00001F056F8204B1A495B88D8F800E08BF8E0
:100DF00004A01B01CA1801F803A05368B8F8041036
:100E0000C8F800300223C2F804E01181A8F80430C9
:100E100000283FF463AF029B5B1B14F823200E49AC
:100E20000B7823F001030B700E23EDE6DFF83C8016
:100E30000C48D8F800100023012201F081F80222AA
:100E40000023A8F804208BF80430E1E7A42E00204A
:100E5000742E00204C2E0020242F0020082E00206D
:100E60007CC202005C270020942E00201C2F002052
:100E7000BD4B19461F461B78022B00F083820B7C6A
:100E8000022B00F06C82B94A137843F0020323F07E
:100E900001031370012241F61D53B5E6B44BB54A68
:100EA0001968B54800230093022300F0F1FF0123E5
:100EB0008BF80430ACE7AC4BBEF80220DFF8D082F0
:100EC00003EB02129389002B00F01C82A84BAA4866
:100ED000196802229A800522002388F80020012246
:100EE00001F02EF80346002B3FF4F8AE1C2202FB63
:100EF00005F2A25C8DE69E49DEF80420B1F804C03C
:100F0000096853889C4801EB8C014FF0000CCDF828
:100F100000C003334FF0030C9BB28EF800C000F00A
:100F2000B7FF0346DFE7029B039993485B1B9B00D7
:100F300004EB03081F460023009308F10402012379
:100F400000F0A6FF022388F8103000283FF4C6AE58
:100F50008A4AD25D0E230299481B04EB8000BAF83E
:100F60000A10B0F806E0BAF808000EF1030CCEEB58
:100F7000010160440339AAF80800AAF80A1043E600
:100F8000029B03997C48C5EB03084FEA88080023BD
:100F900004EB080208310C320093012300F078FFC3
:100FA00004EB080375499A7D002A0CBF0122032235
:100FB0001A7400283FF492AE11F808200E23CAE7F5
:100FC000029B03996C48C5EB03084FEA880804EBC1
:100FD00008031F463A4600230832009304310123D8
:100FE00000F056FF14F80820032A0CBF052306233F
:100FF0003B7400283FF472AE0E23ACE741F61D535C
:10100000A9E75F4B5F4AB3F8008051685A485E4ACF
:1010100000230093012300F03BFF029B002840F0D7
:101020006A815D1B04EB850407EB08180622012387
:10103000227488F80E3051E6029B51495B1B4FEA3F
:10104000830804EB08024F4B92691A60184600228D
:101050005A60FFF7C5FC00287FF465AF474B13F8D3
:1010600008200A23D0E5DFF82CE1DEF844C0BCF10B
:10107000000F00F02281029ADEF840103E48C5EBD6
:10108000020804EB88085EF831200EEBC103013141
:101090000CF1FF3C01F00701CEF84010CEF844C03F
:1010A0000399B8F814E001EB8E014FF0000E1F46D3
:1010B0009B88CDF800E000F0EBFE98F81630B8F809
:1010C0001410BA88013B0A44DBB2A8F8142088F84F
:1010D000163013B9012388F8103000283FF4FEAD14
:1010E000029B5A1B0E2314F8222034E7204B214A7E
:1010F0001968214800230093CEF8043007238EF8A6
:101100000030022300F0C4FE0346ECE6184ADEF885
:101110000410938849880B440333022193808EF88E
:101120000010FFF7FDFB0346002B3FF4D7AD1C2258
:1011300002FB05F2A25C67E5BEF802300A4A1B0119
:1011400017463A461A441346062000225968009270
:1011500002238EF800000D4A074800F099FE03466E
:10116000C1E606220F234FE5742E0020242F002015
:101170001C2F002084C202005C270020A42E002027
:10118000342F0020FC2D002078C202007CC2020017
:10119000942E0020082E0020864BBEF808101A78E6
:1011A0001B7CB2FA82F2B3FA83F352095B09013174
:1011B0008EF80A208EF80B3000220123AEF80810BA
:1011C0008EF80C208EF800309EF80A307A4A43B12F
:1011D00078498B89002090721BB98A7B002A40F0E5
:1011E000B6809EF80B30744A43B1724B998B002045
:1011F000D07219B99B7F002B40F0A880029B5A1B2C
:1012000000238EF80030AEF80230CEF8043014F827
:10121000222041F61D53F7E49EF80030072B3FF6DD
:10122000D0AC01A252F823F099110200C30B0200C6
:10123000C30B02000D11020051120200ED1002005A
:10124000ED1002004912020001238EF80030BBE7C6
:10125000584ABEF80230114617461B01574AC818B3
:101260001168D0F80480B2F804C041600221C2F8CD
:101270000080A0F808C0918063E7DB68CDF8188093
:1012800005A80DF11201CDF81C800593FFF7A8FB0E
:10129000002843D10A23029A521B04EB8202022146
:1012A000117120E6464B1B789B0709D401460822A2
:1012B0004448FEF747F8022339E7DCF80030FFDE48
:1012C000384606303F4B05AA4146FFF7F5FB00289C
:1012D0005FD13C4FCDF8008006993B4A3B48B7F8B8
:1012E0000480534600F0D4FDB0B9324B03EB081331
:1012F00083F80EA0F2E45B1B9B00E1180620E25C81
:10130000087479E651683148012200F019FE042280
:10131000034688F80020E6E50E2308E706992A4AE6
:101320008B88FB80B1F800E02848CDF800800123CD
:10133000A7F808E0BDF812A000F0AAFD68B91D4AA0
:1013400002EB0A12012143469173A4E70123AEF890
:101350000230FFF7E5FA0346E6E60E239BE74FF07F
:10136000010A4FEA0A1A3B4653444FF000085968F5
:10137000174ACDF800800223144800F089FD07F8D1
:101380000A8045E54FF0000AEBE7012247E50F230D
:10139000E1E50390414608220A48FDF7D3FF039B8D
:1013A0000C491C2202FB05F20A2B08BF41F61D5313
:1013B0008A5C29E4742E0020942E00201C2F00202B
:1013C000242F0020282F002078C202005C27002054
:1013D0007CC20200A42E00200846FFF7CDBB00BF50
:1013E0002DE9F04F0F894C6885B006463D46002F29
:1013F00000F0AE80206810F0030040F095809E461B
:1014000004E054F830309B0740F08E800130874272
:10141000F7D17346002A00F08B80B2F80090528812
:101420000094BB466548DFF8A8C10768DCF8748003
:10143000032B07F10107076003BF306803904FF0EB
:10144000040A4FF0000AB8F1030F60D8DFF870E12A
:10145000DEF844000446C5F108008442019456D8E1
:10146000DCF870000C884988029108EB000101F05B
:101470000301C1EBC10189000CEB01000CF8013044
:10148000C280039A826108F101080023BDF80810A8
:1014900081804FF003020481C76080F810A0A0F89B
:1014A000129080F816B082824381CCF87480E5B146
:1014B000DEF84020019C144404F00702009C0EEB6F
:1014C000C2020EF1380804EBC30103C9013302F173
:1014D000080C82E80300424514BF624672469D42F2
:1014E0003749F0D14B6C2B444B6436B10023354A5D
:1014F000376073601289B372328133490B7803F01D
:10150000040202F0FF04002A41D0002009E02F4B22
:1015100003EB09190820B9F80A30033B9A1AA9F815
:101520000A2005B0BDE8F08F032005B0BDE8F08FBC
:1015300004EBC70EA08808340244A64592B2F9D144
:10154000D01C80B240F2FD34A04205D90920E8E762
:10155000002A7FF462AF03201C4C94F80090B9F18C
:10156000000F07D1678925893D440544ADB2B5F523
:10157000806F21D3277C154D3FB96F8B2D8B3D4458
:101580000544ADB2B5F5806F09D30720C9E743F034
:10159000040320460B70FFF7EFFA2046C1E74FF037
:1015A00001094D4604EB051438446081B1F808B0D8
:1015B000486800905D4635E74D46F3E7302F002040
:1015C000082E0020942E0020242F0020742E0020AE
:1015D000A42E0020074A1378082B09D010B4591CF8
:1015E000054C117044F8230000205DF8044B70474F
:1015F0000C207047702E0020502E00202DE9F04F57
:10160000DFF8F0828DB098F800200023089307934C
:1016100009930A930B9393070DD5AF4C04F1200562
:1016200054F8043F07A803B19847A542F8D1002019
:101630000DB0BDE8F08F12F00107F8D142F00102C1
:1016400088F8002000F0C8FBA44BA54A1B68166868
:10165000039703F53F5A0AF13C0A03F1080903F521
:1016600080500197043BBB464FF6FF74CDF808A0AD
:101670005A689C498A4203F1040559D003F5805207
:1016800002E0934200F0008153F8041F0131F8D0CA
:101690004FEA0B13944D03210BF1010BE9541FFA90
:1016A0008BFB1346029A9A4209F5805900F5805047
:1016B000DED1002F40F00C819DF804300B2B0FD8A9
:1016C000DFE813F0C4000C00C4000C000E00DF00C3
:1016D000CC00DF000E00C900C600C900002304933F
:1016E000824A516F032912D8814B5B6C082B0ED8AC
:1016F000136F0B4403F00303C3EBC3039B00D01829
:101700000124D45401319DF810300371516798F8C9
:101710000030784903F0040202F0FF04002A86D169
:1017200043F0040320460B70FFF726FA20467FE7BC
:101730009A6871498A4234D001318A429ED1039A13
:10174000002A6BD16D490D604FF0020EA1F804E044
:10175000DA6801324D4604D1B8E02A68B2F1FF3FA1
:1017600014D0AA88A24206D02A8822B1AA68B2421E
:1017700001D9164601276A880332964405EB820593
:101780001FFA8EFEA842A1F804E0E6D8BEF1020FCF
:1017900014BF0822042201991143019103F58052DC
:1017A0007FE7514A4FEA0B1C02EB0C0E4FF0000A88
:1017B00002F80CA00221CEF80450AEF80810DD6843
:1017C00001354A4612D11AE09568B54201D92E4634
:1017D000012755880335294402EB850289B29042DE
:1017E000AEF808100BD91568013508D09588A542C8
:1017F00002D01588002DE7D14FF0010AE9E73A4AF7
:101800009444019A8CF80EA042F002020BF1010BF5
:1018100001921FFA8BFB03F5805242E7324A4FEAEE
:101820000B1102EB010C354A126805922E4A4FF05B
:10183000020E02F801E00BF1010B059A2F49CCF8DA
:1018400004201FFA8BFBACF808E07CE70B20EFE6E6
:101850000223049344E70323049341E798F80030FC
:101860001D4C43F0020323F0010388F8003004F11B
:10187000200554F8043F07A803B19847A542F8D1C2
:10188000D5E6012304932BE71C4B1B68BBB116491B
:101890004FEA0B1301EB030E1949CEF80450124D19
:1018A000A1F802B002210BF1010CE9541FFA8CFBE4
:1018B000AEF80810019B43F001030193F1E60F49D4
:1018C00002238B8001230D600393F3E7042262E778
:1018D000034B1E60F0E600BF4C2E00205C2700206A
:1018E000302F0020DEC0ADDE742E0020A42E00209C
:1018F000082E0020242F0020FE011EF11C2F0020A6
:10190000942E002060B159B130B583B00C460DF172
:1019100006010546FFF764F820B90A2003B030BD80
:1019200005207047BDF80620074B686803EB0213DB
:1019300001219A890A449A8120606B6800200C3347
:101940006360A97203B030BD742E002050B110B591
:1019500082B00DF106010446FFF742F820B90A20D3
:1019600002B010BD05207047BDF80620084B03EB00
:1019700002139A8912B9062002B010BDA17A00297B
:10198000F9D00021013A9A810846A172E8E700BF28
:10199000742E00201E4B1B789B0702D4022318468E
:1019A000704740B1CB1C9BB240F2FD32934205D947
:1019B00009231846704705231846704770B4154A26
:1019C000167896B95489158925441D44ADB2B5F5EC
:1019D000806F0AD2354602EB0512234453810680FC
:1019E00041800023184670BC7047147C094D54B9DF
:1019F0006C8B2D8B25441D44ADB2B5F5806F02D2A2
:101A000001263546E7E70723184670BC704700BF3C
:101A1000242F0020742E0020124B1B789B0702D429
:101A2000022318467047C8B10388022B02D9042349
:101A30001846704710B40C49448801EB03135A89C7
:101A4000111B03290CD4033A0021121B5A810B46A7
:101A50000180418018465DF8044B70470523E0E79C
:101A60000423F7E7242F0020742E00200D4B1B7851
:101A70009B0701D40220704759B110B40C884FF66F
:101A8000FF739C4201D04B882BB904205DF8044BB6
:101A9000704705207047022300225DF8044BFFF7D2
:101AA0009FBC00BF242F00203AB130B40C4C2478E6
:101AB000A30704D4022030BC70470520704769B1E9
:101AC0000D884FF6FF74A54201D04B8813B904204E
:101AD00030BC7047022330BCFFF782BC0520EAE728
:101AE000242F002028B10E4A1278930703D4022035
:101AF0007047052070470029FBD010B40C884FF6C2
:101B0000FF72944201D04B881BB904205DF8044B4E
:101B10007047032300225DF8044BFFF761BC00BF50
:101B2000242F0020F8B51A4A1378990701D402200F
:101B3000F8BD4FF6FF7188421DD0164D6C6F032C17
:101B40001BD81549496C082917D8296F214401F081
:101B50000301C1EBC10189006F18661C05246C5498
:101B6000012403F004013C71F88001F0FF046E676A
:101B700029B10020F8BD0420F8BD0820F8BD43F0CD
:101B8000040320461370FEF7F7FF2046F8BD00BFA0
:101B9000242F0020A42E0020082E0020F8B5174A7C
:101BA0001378990701D40220F8BD1548416F032925
:101BB0001AD8144C646C082C16D8046F124D0C44BF
:101BC00004F00304C4EBC4042E780131062700F8A6
:101BD000247041670EB10121297303F0040101F063
:101BE000FF0419B10020F8BD0820F8BD43F004033C
:101BF00020461370FEF7C0FF2046F8BD242F0020BA
:101C0000A42E0020082E0020942E002010B50C4C8D
:101C100082B0ADF806002078ADF80410810702D438
:101C2000022002B010BD3AB133B101A90DF1060096
:101C3000FEF742FF02B010BD052002B010BD00BF8C
:101C4000242F002000B50D4B83B0ADF806001878A6
:101C5000830703D4022003B05DF804FB51B14AB1FD
:101C6000134600200A460DF10601FEF725FF03B0DA
:101C70005DF804FB052003B05DF804FB242F002071
:101C800000B50D4B83B0ADF806001878830703D478
:101C9000022003B05DF804FB51B14AB113460DF1C7
:101CA00006000A460021FEF707FF03B05DF804FBBB
:101CB000052003B05DF804FB242F002020B119B1EA
:101CC00003680B60002070470520704729DF7047CC
:101CD00028DF704770B50C4D696E042911D02B6E4A
:101CE0000B44032B88BF043B182202FB0354064617
:101CF0004B1C204600216B66FDF724FB346001205D
:101D000070BD002070BD00BF382F002070B5304C72
:101D1000636E84B07BB1256E6E00731904EBC30350
:101D20001A7A012A09D0022A26D19889FFF7D0FF12
:101D3000112818D000BB04B070BD70199A8ADB8AD4
:101D400004EBC000D21AC1680069B2F5806F4FEA97
:101D50008303B4BF92B24FF4806219441844FFF772
:101D6000B5FF1128E6D11B4A137823F0020343F094
:101D70000403137004B070BD102268460021FDF703
:101D8000E1FA731904EBC3031A7A012A17D0022A65
:101D900009D19A89DB89ADF80A20D21A0123ADF85E
:101DA00008208DF800303544ED00621963595268FF
:101DB000019268469B680921984704B070BD1A6972
:101DC0009B8A029200218DF80010ADF80C30EAE7F2
:101DD000382F0020362F00202DE9F0434FF010233C
:101DE0005D696B1C49D0DFF8A48098F800C01CF036
:101DF000010F3FD1DFF890E02248CEEB0000000950
:101E000034D00EEB0011734607461A6812B15A68B7
:101E100002B1013F10338B42F7D13FB300260022BD
:101E2000194B9146F4B206E0596839B1013290423B
:101E300003F110030ED019680029F5D1597B4945EB
:101E400088BFD4B202F1010288BF8946904203F1F3
:101E50001003F0D124010EEB040301361A7B5D6000
:101E6000B742A5EB02354EF80450D8D14CF0010C26
:101E700088F800C00020BDE8F0834FF080535D6912
:101E80002D03B0E76C2700205C270020362F0020B0
:101E90002DE9F041274C2578EE0782B012D510B11C
:101EA000254DA84203D2022002B0BDE8F081234DA7
:101EB000A842F8D252B149B142EA0105AD0707D0B4
:101EC0000620F1E7012002B0BDE8F0810320EBE736
:101ED0000568A94201D20520E6E7466801EB8305C3
:101EE000AE42F8D30BB90420DEE7804601A81E46B7
:101EF00015460F46FFF7EEFE08B90720D4E7019913
:101F00002378C1F80080019A0898486013F006040D
:101F10004FF00101D560176196821172054A01D018
:101F20000020C1E743F002031370FFF7EFFE2046E5
:101F3000BAE700BF362F00205C2700206C27002066
:101F40002DE9F041244C2578ED0782B010D510B171
:101F5000224DA84203D2022002B0BDE8F081204DFC
:101F6000A842F8D241B1C1F30B053DB10620F3E719
:101F7000012002B0BDE8F0810320EDE70568A94229
:101F800001D20520E8E7466801EB0235AE42F8D3FE
:101F90000AB90420E0E7804601A81E4615460F4610
:101FA000FFF798FE08B90720D6E701992378C1F812
:101FB0000080019A4E600220390B13F006049181D3
:101FC00015821072044A01D00020C5E70343137044
:101FD000FFF79CFE2046BFE7362F00205C2700203D
:101FE0006C27002020B1034B5B6E0360002070471C
:101FF00003207047382F00202DE9F047DFF8B0822A
:10200000A94C98F80030266E990784B079D502283B
:1020100000F0B680032840F0AF80A44D2B78013348
:10202000DBB2032B2B7040F2A780002710222F7009
:10203000394668467500FDF785F9AB1904EBC30313
:10204000E9461A7A012A00F0E180022A09D19A8928
:10205000DB89ADF80A20D21A0123ADF808208DF8EB
:1020600000303544ED0062196359526801929B6853
:102070008D4F484608219847636E013B6366002BED
:1020800040F0FD803A6E98F80010013221F0020114
:10209000042A88F800103A6630D1002626666BB311
:1020A0007500AB1904EBC303AA1904EBC202117A41
:1020B00001293DD002297FD0102268460021FDF77A
:1020C00041F9AB1904EBC303E9461A7A012A7ED021
:1020D000022A09D19A89DB89ADF80A20D21A012394
:1020E000ADF808208DF800303544ED0062196359D1
:1020F0005268019248469B680921984704B0BDE8A0
:10210000F0875A0738D5626E03F0FB0388F8003079
:10211000002AF3D0750043F00203AA1988F80030B2
:1021200004EBC203AA1904EBC202117A0129C1D13E
:10213000D38AAA1904EBC202A819928A04EBC00040
:10214000D21AC1680069B2F5806F4FEA8303B4BF49
:1021500092B24FF4806219441844FFF7B7FD11287A
:102160002FD198F8003023F0020343F0040388F8DD
:10217000003004B0BDE8F087636E002B90D1BDE75E
:102180007500AB1904EBC307484A3B7A4FF0000ACD
:10219000012B82F800A023D0022BEDD1FB89BA8954
:1021A000398A01339BB201329942FB81BA8155D001
:1021B000636E002BA2D03B469889FFF789FD11285A
:1021C000CFD000287FF478AF04B0BDE8F0871A695B
:1021D0009B8A029200218DF80010ADF80C3083E745
:1021E000FB8AB88AC21AB2F5806FB4BF92B24FF4BC
:1021F00080621344A9199BB204EBC1079842FB8289
:10220000294A0BD0526E002A93D177E71A699B8A2C
:102210008DF800700292ADF80C3022E7684610226B
:102220000021FDF78FF83B7A012BE94632D0022BD3
:1022300009D1FA89BB89ADF80A309B1A0122ADF8A1
:1022400008308DF80020AB19DB00E218E358526823
:10225000019248469B68144F00210CE76846102203
:102260005146FDF76FF83B7A012BE946DFD13A6919
:10227000BB8A8DF800A00292ADF80C30E3E73E6E09
:102280000136042E3E663FF408AF7500AB1907EB2C
:10229000C30309E73A69BB8AADF80C3000218DF819
:1022A00000100292CFE700BF382F0020A02F00209F
:1022B000362F002010B40023012401E0202B0AD087
:1022C00004FA03F2024299B203F10103F6D0084680
:1022D0005DF8044B70474FF6FF705DF8044B704794
:1022E00098B191B130B40238002402E00134202CBE
:1022F0000AD030F8025F9542F8D13BB10A68012359
:1023000003FA04F414430C6030BC70470B680122DC
:1023100002FA04F423EA04030B60F5E770B49DF8B5
:102320000C60C0B1B9B1B2B10238002402E001348E
:10233000202C10D030F8025F9D42F8D1012303FA1F
:1023400004F401EB820246B9E4430B68234041F8F0
:10235000043B9142F9D170BC70470B68234341F8AC
:10236000043B8A42F7D00B68234341F8043B8A427E
:10237000F3D1F0E798B110B40238002302E0013342
:10238000202B0DD030F8024F9442F8D1012202FAEE
:1023900003F30B4214BF104600205DF8044B704756
:1023A0000020FAE7F0B491B100252B46012606FA89
:1023B00003F4144205D000EB450431F81370A780F4
:1023C00001350133202BF2D10560F0BC70470D467A
:1023D0000560F0BC704700BF0A7B4B6810B40C6806
:1023E000002A0ABF234600220122027103605DF821
:1023F000044B704710B40279034652B148681C6818
:102400008A68011B914210D9A01818605DF8044B2E
:102410007047046808688A68211A91420BD8012223
:1024200018601A715DF8044B7047002218601A7129
:102430005DF8044B7047A01A18605DF8044B7047B4
:10244000064A4FF0A043105CD3F8043523FA00F09D
:1024500000F0010080F00100704700BF90C2020050
:10246000044B195C4FF0A04201238B40C2F80C359D
:10247000704700BF90C20200044B195C4FF0A042AD
:1024800001238B40C2F80835704700BF90C202009C
:102490004FF0A04310B44FF480204FF400344FF4B9
:1024A00000214FF48012C3F80845C3F80805C3F8AB
:1024B0000815C3F808255DF8044B70474FF0A0439A
:1024C00010B44FF480204FF400344FF400214FF447
:1024D0008012C3F80C45C3F80C05C3F80C15C3F8FB
:1024E0000C255DF8044B7047084B4FF0A0411B5C76
:1024F000D1F80405012202FA03F323EA00020340A3
:10250000C1F80825C1F80C35704700BF90C2020021
:1025100030B44FF0A04303224FF400354FF4802431
:102520004FF400204FF48011C3F84427C3F8482724
:10253000C3F84C27C3F85027C3F80855C3F808451B
:10254000C3F80805C3F8081530BC7047064A4FF0B9
:10255000A043105CD3F8103523FA00F000F001001E
:1025600080F00100704700BF8CC202000D2809D026
:102570000E2809D00F2809D010280CBF03204FF0D7
:10258000FF307047002070470120704702207047DD
:10259000014B185C704700BF8CC2020010B51A4B8B
:1025A0001A6882B0A2B100221A601B6800934FF033
:1025B00080430122154C0099C3F80823A368627078
:1025C00033B10CCB0020A2609847A368002BF8D150
:1025D0000F4B1A68AAB100221A601B6801934FF0D2
:1025E00080430222094C0199C3F808232369012280
:1025F000A27033B10CCB0120226198472369002BD4
:10260000F8D102B010BD00BF00010040A42F00208F
:102610000401004058B910B5054CA36833B10CCB88
:102620000020A2609847A368002BF8D110BD704726
:10263000A42F002010B582B002A80023144C00F88B
:10264000013DFEF72DF9237893B9124A6360E360E8
:102650001068A36010F00100236114D008F0AAFEF6
:1026600020B94FF080430122C3F8182501232370BD
:10267000E3689DF8070001330122E360A270FEF7D2
:1026800037F902B010BD072100F006F8E6E700BFF9
:10269000A42F002000E100E0002810B418DB00F1B6
:1026A000604303F561434901C9B283F80013C3B223
:1026B0004009800000F1604000F5614003F01F0216
:1026C00001239340C0F8803103605DF8044B7047EC
:1026D000C3B2044A03F00F0449012244C9B211767F
:1026E000E6E700BFFCEC00E030B51D4C94F8545018
:1026F00083B015B1082003B030BD4FF0FF33FF2287
:102700000721062023636363A363E3632364636495
:10271000A364E36423606360A360E3602361636197
:10272000A361E361236284F850306362A36284F89A
:102730005230E36284F8533084F85120FFF7ACFF45
:10274000084B094A1D601B68019301984FF0004334
:102750000121284684F85410C2F8043303B030BD78
:10276000B82F00207C61004000600040034B93F8CC
:102770005400003018BF0120704700BFB82F002060
:10278000F0B5624C251895F93030002B01DB08209C
:10279000F0BD91F803E09446BEF1000F56D02368D7
:1027A000013300F0A380002508266B1C574F54F816
:1027B0002320013251D0AB1C9E4245D957F823202B
:1027C00001324AD0EB1C9E423ED957F823200132F9
:1027D00043D02B1D9E4237D957F8232001323CD0DD
:1027E0006B1D9E4230D957F82370013735D0AB1D91
:1027F0009E4229D954F82320444F01322DD0EB1D9D
:102800009E4221D957F82320013226D005F1080332
:102810009E4219D957F8232001321ED005F1090331
:102820009E4211D957F82320013216D005F10A0330
:102830009E4209D957F8237001370ED00B35AE42AE
:1028400002D9E36A013307D00420F0BD236A0133C3
:1028500053D008250C26A8E70B2326185DB244F8B0
:1028600023C086F83050BEF1000F02D1234483F814
:1028700048008B78A3B94A784FF0A04600F5E07382
:10288000920046F82320CB78A3B9083D2C44097860
:1028900094F8502042EA811284F850201846F0BD86
:1028A000830003F1A043D3F8002722F00202C3F80B
:1028B0000027E8E7AB0003F1804303F5C0430A7843
:1028C000D3F8101521F4473121F44071C3F81015E5
:1028D0001204000202F44031D3F8104500F4F8521B
:1028E0000A432243C3F810250020F0BD002385F8D9
:1028F0003030C4F800C01D46BBE7082685F83060BC
:102900003346C4F820C03546B0E700BFB82F0020DA
:10291000F0B42E4D2E1882B096F93030072B1CDD06
:102920002B4493F848309B09032B41D0012B14BF53
:102930004FF440334FF40033800000F1A040D0F852
:10294000002722F44032C0F80027D0F800271343B4
:10295000C0F8003702B0F0BC7047DAB2072AF9D8E5
:10296000980000F1804000F5C04003F14002920061
:10297000D0F8104592B202F18042002744F00104E1
:1029800002F5C042C0F81045019701981760002970
:10299000E0D096F9302055F82220002ADAD0012222
:1029A0000B4902FA03F3C1F8043302B0F0BC7047DC
:1029B0004FF0A043D3F81035C34013F0010F0CBF04
:1029C0004FF400334FF44033B6E700BFB82F002078
:1029D000006000404FF0A043D3F8103523FA00F018
:1029E00000F00100704700BF2DE9F04387B00026DA
:1029F000C94B01961A68012A00F00482C74B1A6875
:102A0000012A00F0F181C64B1A68012A00F0DE812C
:102A1000C44B1A68012A00F0CB81C34B1A68012A03
:102A200000F0B881C14B1A68012A00F0A581C04BA3
:102A30001A68012A00F09281BE4B1A68012A00F040
:102A40007F81BD4B1A68012A00F0598116F0FF0FF3
:102A50001AD0BA4F01250024A30003F180432E426F
:102A600003F5C0434FEA45050BD0D3F8100557F8DE
:102A70002420D3F81015C0F30420C1F3014102B1A2
:102A800090470134082CE7D1002E02DB07B0BDE8E7
:102A9000F083AA4C00224FF0FF33274602920393A3
:102AA00001260DF1080894F950104D1C2DD0C9B223
:102AB00021F0C00006AB4FEAD00E03EB0E0201F08E
:102AC000070312F80CCC06FA03F31CEA030F1CD020
:102AD0003D18890995F9305057F82590B9F1000F44
:102AE00000F0E880032900F0E8804FEA800E0EF144
:102AF000A04E12F8145CDEF800271D40C2F301421C
:102B000040F0B580032A00F0A281002594F951100D
:102B1000481C2FD0C9B221F0C00006AB4FEAD00E3E
:102B200003EB0E0201F0070312F80CCC06FA03F3D4
:102B30001CEA030F1ED007EB000C89099CF930C07A
:102B400057F82C90B9F1000F00F0C680032900F06F
:102B5000C6804FEA800E0EF1A04E12F814CCDEF8BB
:102B600000271CEA030FC2F3014240F08D80032AC4
:102B700000F0928194F952104A1C2ED0C9B221F073
:102B8000C00006AB4FEAD00E03EB0E0201F00703C4
:102B900012F80CCC06FA03F31CEA030F1DD007EB66
:102BA000000C89099CF930C057F82C90B9F1000F3E
:102BB00000F08980032900F088804FEA800E0EF132
:102BC000A04E12F814CCDEF800271CEA030FC2F363
:102BD000014265D1032A00F04C8194F953104B1C3B
:102BE0002CD0C9B221F0C00006AB4FEAD00E03EBE7
:102BF0000E0201F0070312F80CCC06FA03F31CEAEC
:102C0000030F1BD007EB000C89099CF930C057F863
:102C10002C90B9F1000F69D0032969D04FEA800EDA
:102C20000EF1A04E12F814CCDEF800271CEA030FB8
:102C3000C2F3014211D1032A00F0F080002D3FF4CD
:102C400025AF4FF0A043019AD3F8103593423FF4DB
:102C50001DAF029A0193039225E7022AEED10329C0
:102C600000F02D81B9F1000FE8D0C847E6E7022A4D
:102C70007FF44BAF032900F02B810025B9F1000F41
:102C80003FF444AFC84741E7022A7FF473AF0329FA
:102C900000F01881B9F1000F3FF46CAFC84769E745
:102CA000022A9AD1032900F01081B9F1000F94D0C3
:102CB000C84792E703297FF428AF18F80E501D4348
:102CC00008F80E5011E7032987D118F80EC04CEA16
:102CD000030C08F80EC070E703297FF44BAF18F817
:102CE0000EC04CEA030C08F80EC032E70329A5D148
:102CF00018F80EC04CEA030C08F80EC08EE700224C
:102D00001A601B6805934FF0A043059AD3F810355D
:102D1000019346F0004699E60061004004610040DE
:102D2000086100400C6100401061004014610040E7
:102D3000186100401C6100407C610040B82F0020F9
:102D4000654AD2F8042317067FF57BAE00221A608D
:102D50001B680493049B46F0800672E65E4AD2F834
:102D6000042352067FF568AE00221A601B680493A4
:102D7000049B46F040065FE6574AD2F804239106CA
:102D80007FF555AE00221A601B680493049B46F041
:102D900020064CE6504AD2F80423D0067FF542AE16
:102DA00000221A601B680493049B46F0100639E663
:102DB000494AD2F8042314077FF52FAE00221A6087
:102DC0001B680493049B46F0080626E6424AD2F8A4
:102DD000042355077FF51CAE00221A601B6804937C
:102DE000049B46F0040613E63B4AD2F804239707F7
:102DF0007FF509AE00221A601B680493049B46F01D
:102E0000020600E63449D1F8041311F001011CD088
:102E10001E601B680493049B1646EFE503297FF4AC
:102E200021AF4FF40033DEF8002722F44032CEF811
:102E30000027DEF8002701351343EDB2CEF8003746
:102E4000B9F1000F7FF411AFFBE60E46D6E503297A
:102E50007FF414AF4FF40033DEF8002722F4403241
:102E6000CEF80027DEF800271343CEF800370125FF
:102E700004E703297FF419AF4FF40033DEF800278D
:102E800022F44032CEF80027DEF800270135134344
:102E9000EDB2CEF8003708E703297FF4FBAE4FF41C
:102EA0000033DEF8002722F44032CEF80027DEF8A7
:102EB000002701351343EDB2CEF80037EAE64FF4B0
:102EC0004033B0E74FF44033EBE74FF44033D5E7FE
:102ED0004FF44033C0E700BF00600040F0B5047914
:102EE000724E6401331987B0DD7E15B1082007B03A
:102EF000F0BD4D7F1D770D686B1C0BD04FF0A047C8
:102F00000123AB40C7F808350B6803F5E0730325D0
:102F100047F823504B685F1C06D003F5E0734FF071
:102F2000A045002745F82370037906EB43131B7F68
:102F3000002B4DD003688D69C3F824554F7D0B7D60
:102F400005683B43C5F86C3503680F684D68C3F8E6
:102F50000C75C3F814550B7D012B00F09B803319C1
:102F600005465A600B6951483351EAB12B79097F04
:102F70002A6800EB4310037F002B65D1C2F81C3197
:102F8000D2F81C712A680097009FC2F84431D2F829
:102F900044212B6846480192019AC3F8040328682B
:102FA00040F30730FFF778FB2B792A6806EB4313D1
:102FB0001B7F002B44D00823C2F800353444002086
:102FC0000123E376E0752076A075A07607B0F0BD0A
:102FD00005688F69C5F8247591F815E00D7D0768BF
:102FE0004EEA0505C7F86C550568D1F800E04F6852
:102FF000C5F81475C5F80CE50D7D012DAFD18D68B0
:103000006F1C05D005F5E0754FF0A04747F8253057
:10301000CB685D1C0DD001254FF0A04705FA03F3E6
:10302000C7F80835CB6803F5E073032547F823504C
:10303000CB6805688F68C5F80835C5F810758EE748
:103040000423C2F80035B9E70023C2F81031D2F8E2
:1030500010712A680297029FC2F82031D2F82071BD
:103060002A680397039FC2F82431D2F824712A6892
:103070000497049FC2F84431D2F844212B6805928A
:103080000C48059AC3F80403286840F30730FFF79B
:1030900003FB89E78B685D1CBAD003F5E0734FF042
:1030A000A045002745F82370B2E700BF103000208C
:1030B0008000020010030200F0B503793D4A046865
:1030C0005B01D118097F00296DD00021C4F80015DB
:1030D000D118384C4968B1B1017904EB4114217F12
:1030E000002963D10168344CC1F808430168334EAC
:1030F000090B4CB26409203401F01F01012505FAC7
:1031000001F146F824100179076802EB4111D7F864
:103110000C65097FD7F814554FF0FF3EA9B3D7F8D7
:103120000815D7F81045C7F80CE5C7F814E500688E
:10313000C0F808E5C0F810E5771C06D006F5E07683
:103140004FF0A040022740F826706E1C06D005F50F
:10315000E0754FF0A040022640F82560651C06D0BF
:1031600004F5E0744FF0A040022540F82450481CBC
:1031700006D001F5E0714FF0A040022440F8214054
:1031800013440022DA765A60F0BDD7F80815D7F854
:103190001045C7F814E5C7F80CE50068C0F808E565
:1031A000C0F810E5C8E7C4F8001591E70168044CC1
:1031B0009AE700BF103000208402020000E100E026
:1031C00010030200F0B50379534C5B01E51887B09A
:1031D0002D7F3DB101F06045B5F1005F02D01020B8
:1031E00007B0F0BD23444C4F9E7D16B1112007B0AF
:1031F000F0BD9A7599609E8205796D017A19137FE9
:1032000013BB0168C1F81C31D1F81C610168049638
:103210000126049F8E600168D2F808E0C1F81C31D5
:10322000D1F81C310593059B968A938A5768B6B2EC
:1032300001331EF806609BB29382C1F81C65002F13
:103240002FD0002007B0F0BD03689168C3F820615B
:10325000D3F8207103680197019FC3F85861D3F830
:10326000586103680296967D029FC3F84415C3F81F
:1032700048650368012199605368002BE1D1036818
:1032800001E0002945D1D3F82021D3F85811002AB4
:10329000F7D0002914BF0F2000202C440023A37571
:1032A0009EE7967D938A9BB29E4202F1140122D939
:1032B000016804E0938A9BB2B3F5807F03D0D1F814
:1032C0001C31002BF6D0938A9BB2B3F5807FE9D0F6
:1032D000C1F81C71D1F81C310393039BB2F814C0E0
:1032E000938A1FFA8CFC01331EF80CC09BB29382A8
:1032F000C1F81CC5D6E70B889BB2B3F5807F08D018
:103300000268D2F81C31002BFBD00123D3600020CF
:10331000C3E70F20C1E700BF103000200279044B43
:1033200003EB4213987D003018BF0120704700BFA7
:103330001030002070B59B4C237F8EB0002B75D1D0
:10334000994AD2F80413890548D4974BD3F804233B
:10335000520704D5D3F80821002A40F0CA80924BC6
:10336000D3F81C21C2B1A28AA07D8E4992B28242BA
:103370004FF00002C3F81C2180F0A980D3F81C2173
:103380000692069A888A8A8A8D6880B20132285C01
:1033900092B28A82C3F81C05834BD3F84421DAB178
:1033A0000022C3F84421D3F84411A27E0491049969
:1033B000002A40F08980E27D7A4B6AB10022587E73
:1033C000D968DA7501228DF830000B918DF828202C
:1033D0000AA893E8060090470EB070BDD2F82411F9
:1033E0000029B2D0C2F82431D2F82411A37E07916B
:1033F0004FF401710798C2F808130BB90123536009
:10340000694A02238DF82830D2F88034C2F880341B
:10341000E07DE2680D9300238DF83000E37523769C
:1034200021680B9263680AA8984798E75E4BD3F827
:103430002421002A40F09380D3F8101161B1C3F821
:103440001021D3F8101103910399D3F83C15E07DB6
:10345000C9B2884200F0AA80534BD3F84421B2B1DC
:103460000022C3F84421D3F84411E07D0191019971
:103470004C4960B1D3F83C35C8688DF83030012331
:10348000CA750B908DF828300AA80AC99847464B90
:10349000D3F82021002A9FD00022C3F82021D3F89E
:1034A0002011A07D009100993E49002894D0D3F8C6
:1034B0004C058B688DF830008A750B938DF82820A9
:1034C0000AC90AA8984787E701221A6073E7D3F868
:1034D0001C310593059B00283FF45EAF8B688DF887
:1034E00030008A750B938DF828200AC90AA89847DE
:1034F00052E7E17D2B4A002970D00021C3F8081162
:10350000D3F8081108910899D068517ED3F818357E
:103510004354537ED17D0133DBB25376627E214B1F
:103520008A427FF41CAF1A7E002A6DD19B7E13B9AC
:103530001D4B01225A601C4AE06863684FF4017118
:10354000C2F80813627E8DF83020002501220B900E
:103550002168E5758DF828200AA89847FFE6002223
:10356000C3F82421D3F82411029102218DF82810E8
:103570000299D3F88014C3F880140D91D3F83C1548
:10358000E368E27522768DF830100B93216863684A
:103590000AA89847044BD3F84421002A3FF477AF98
:1035A0005EE700BF1030002000200040217EF1B116
:1035B000D3F80062E17526F02001E568C3F8001237
:1035C00026698DF8300001238DF828302276216895
:1035D0000B95E66063680AA898473DE7C3F80811B1
:1035E000D3F808210992099AD3F8183596E7E268CA
:1035F000E17501238DF830008DF828300B9294E8A6
:103600000A000AA8984727E7DE685D7E1869DA7520
:1036100001210022D8601A765A768DF828100B9670
:103620008DF8305093E806000AA8904797E600BF4F
:103630000220FEF759BF00BF2DE9F0470D460646B0
:10364000FEF794FF03281ED8012D04461FD00ED389
:10365000022D1AD11C4B00EB40041C44657895B137
:103660001A4B1B687BB12846BDE8F047184718483D
:10367000FDF7DAF81449174A04EB44030B44155DCF
:103680009B789D42EBD0BDE8F087BDE8F087DFF87E
:10369000388047003B1808EB030218F803505378B2
:1036A0002BB9274447440B4BBA781A55D7E7DFF8B4
:1036B000289007484A464FF40041FDF75FF800287C
:1036C000EFD189F80060ECE7A43000205C300020E6
:1036D00060300020583000205530002010B50078B0
:1036E000FEF744FF03280BD8064B00EB40001844BC
:1036F000407828B1044B1B6813B1BDE8104018474F
:1037000010BD00BFA43000205C300020B34B1B680C
:10371000DB0700D4704770B5B14EB24D33782C78CA
:10372000FBB9172C1CD8DFE814F0F10014011401C8
:1037300063007600830096005D0039002C0039009C
:103740002C00A300A800A800A800A800A800CE0094
:10375000DE000101460018001800FEF7AFFE2C70D5
:1037600070BDA14B1B7800203070002B00F005814C
:10377000FEF782FE0120FEF77FFE0320FEF77CFEAF
:10378000CFE7012318463370FEF7AEFE00224FF458
:1037900080419648BDE87040FCF7F0BF0123184611
:1037A0003370FEF7A1FE002240F6CD418F48BDE800
:1037B0007040FCF7E3BF8C4B1B78002B00F0FE80C1
:1037C0000020FEF759FE0120FEF756FE0320FEF70B
:1037D00053FE0020FEF744FE0120FEF741FE1523B4
:1037E0002B7070BD0020FEF73BFE07232B7070BDD1
:1037F0000020FEF725FE002800F0D3800020FEF711
:103800003BFE46F2666103232B7000227748BDE839
:103810007040FCF7B3BF0020FEF712FE002800F056
:10382000C5800020FEF728FE4FF400310423EBE7AB
:103830000020FEF705FE002800F0BD800020FEF706
:103840001BFE05232B70002241F69A116748BDE844
:103850007040FCF793BF0020FEF746FE06232B7056
:10386000002240F6CD416148BDE87040FCF786BFBC
:10387000FEF724FE0C232B7070BD5D48FCF7D4FFCF
:10388000D4F1110405467BD0002879D1012C13D046
:10389000C82303FB04F44FF4FA704FF400430021F3
:1038A000C3FB04014FF47A72002307F03DFE2A4661
:1038B00001464F48FCF762FF0220FEF7D1FD4A4B5C
:1038C00001221A7070BD484B1B78002B79D0002064
:1038D000FEF7D2FD0120FEF7CFFD0320FEF7CCFD61
:1038E00012232B7070BD404B1B78002B6FD0002033
:1038F000FEF7C2FD0120FEF7BFFD0320FEF7BCFD71
:103900000020FEF7ADFD13232B7070BD364B1B78E6
:10391000002B59D00020FEF7AFFD0120FEF7ACFDD3
:103920000320FEF7A9FD00232B7070BD2E4B1B78E2
:10393000002B4FD00020FEF79FFD0120FEF79CFDDD
:103940000320FEF799FD0120FEF78AFD14232B705A
:1039500070BD0020FEF774FDC8B10020FEF78CFD9D
:10396000022C4EF2666118BF4FF400312C70002219
:103970001E48BDE87040FCF701BFFEF789FDD0E6A8
:103980000220FEF779FD184B00221A7070BDFEF779
:1039900067FD43F2333341F69A11022C18BF1946E2
:1039A000E4E7FEF75DFD41F69A112CE7FEF758FDBE
:1039B00043F233313AE7FEF753FD42E7FEF768FD85
:1039C00007E7FEF765FD8BE7FEF762FDABE7FEF765
:1039D0005FFD95E7FEF75CFDB5E700BF50300020C6
:1039E000563000208030002054300020303000203D
:1039F00084300020FEF7AABD38B5C44B1B6813F015
:103A0000010401D1204638BDC14C23780546E3B9F5
:103A1000172D00F27881DFE815F00B01310131013B
:103A200069007D009100A5005B003500280035008D
:103A30002800B300BA00BA00BA00BA00BA00E30026
:103A4000F6001C01420063006300B24B1B780020AB
:103A50002070002B00F02781FEF70EFD0120FEF7FD
:103A60000BFD0320FEF708FDD2E701231846237063
:103A7000FEF73AFD00224FF48041A748BDE83840E8
:103A8000FCF77CBE012318462370FEF72DFD0022B3
:103A900040F6CD41A048BDE83840FCF76FBE9D4BD5
:103AA0001B78002B00F020810020FEF7E5FC0120B0
:103AB000FEF7E2FC0320FEF7DFFC0020FEF7D0FC5F
:103AC0000120FEF7CDFC954B15221A70002499E7D2
:103AD0000020FEF7C5FC914B07221A70002491E7E5
:103AE000FEF7ECFC8D4B00241D708BE70020FEF7E9
:103AF000A7FC002800F0E1800020FEF7BDFC46F2A4
:103B00006661864B844803241C700022BDE838405F
:103B1000FCF734BE0020FEF793FC002800F0DC80A8
:103B20000020FEF7A9FC4FF400317C4B7A480424B6
:103B30001C700022BDE83840FCF720BE0020FEF7D4
:103B40007FFC002800F0CD800020FEF795FC734B31
:103B5000714805241C70002241F69A11BDE83840D6
:103B6000FCF70CBE0020FEF7BFFC6C4B6A48062435
:103B70001C70002240F6CD41BDE83840FCF7FEBD88
:103B8000FEF79CFC654B0C221A7000243AE764484F
:103B9000FCF74AFE0446D5F1110000F08780002CA6
:103BA00040F08480012814D0C82505FB00F54FF4AF
:103BB00000434FF4FA700021C3FB05014FF47A7201
:103BC000002307F0B1FC224601465548FCF7D6FD1C
:103BD00004460220FEF744FC4E4B01221A7011E706
:103BE0004C4B1B78002B00F082800020FEF744FC39
:103BF0000120FEF741FC0320FEF73EFC474B12225A
:103C00001A700024FEE6434B1B78002B75D0002071
:103C1000FEF732FC0120FEF72FFC0320FEF72CFC00
:103C20000020FEF71DFC3D4B13221A700024E9E62C
:103C3000384B1B78002B5DD00020FEF71DFC0120C7
:103C4000FEF71AFC0320FEF717FC344B00241C700F
:103C5000D8E6304B1B78002B52D00020FEF70CFC2E
:103C60000120FEF709FC0320FEF706FC0120FEF709
:103C7000F7FB2A4B14221A700024C3E60020FEF73B
:103C8000DFFBF8B10020FEF7F7FB022D4EF2666174
:103C900018BF4FF40031214B1F481D700022BDE8B2
:103CA0003840FCF76BBDFEF7F3FBB1E60220FEF7F0
:103CB000E3FB184B00221A70A4E6FEF7D1FB41F695
:103CC0009A111EE7FEF7CCFB43F2333341F69A110B
:103CD000022D18BF1946DEE7FEF7C2FB43F233316F
:103CE00023E7FEF7BDFB32E7FEF7D2FBE5E6FEF782
:103CF000CFFB83E7FEF7CCFBA7E7FEF7C9FB8FE717
:103D0000FEF7C6FBB2E700247CE600BF503000207F
:103D10005630002054300020303000208030002009
:103D200084300020F0B5204A204B1060044610F08B
:103D3000020083B0196013D01D4B1E480E210F27BF
:103D400010261125197040F266620421DF709E7101
:103D50005D72FCF727F8A0B1E3071DD403B0F0BDF6
:103D6000E20719D4144A15480021FCF7F5FC002895
:103D7000F4D1134A1348012103B0BDE8F040FCF729
:103D8000EBBCFCF767F80028E6D101460E4A0F4865
:103D9000FCF7E2FCE10703D50190FEF7B9FB0198BF
:103DA0000028DFD003B0F0BD503000205C30002090
:103DB000A43000209CC202000D37020098C202000D
:103DC00031360200BCC20200DD36020094C202009D
:103DD000032801D907207047012A12D0012917D0E2
:103DE00008D30229F6D10D4B00EB4000034400201C
:103DF0005A707047094B00EB4000034400209A7052
:103E00007047012901D00022E8E700F10E02D2B28A
:103E100000EB400301490020CA547047A430002041
:103E200008B5FEF7B5FB800000F1A0430020D3F8F1
:103E3000002722F44032C3F80027D3F8002742F4C9
:103E40004032C3F8002708BD08B50020FFF7E8FF9F
:103E500010B1062800D008BD0120FFF7E1FF0028BF
:103E6000F9D0062808BF002008BD00BF10B50388A0
:103E7000102B08D0112B05D1264B1868013818607B
:103E800038B110BD10BD234C216881B101312160D2
:103E900010BD01220221FFF79BFF48B3072827D05E
:103EA0001D4B1B68002BECD0BDE8104018470122C9
:103EB0000846FFF78DFF48B1072807D0164B1B684F
:103EC00003B1984721680131216010BD072202210A
:103ED0000120FFF77DFF08B10728EFD1042202215E
:103EE0000020FFF775FF0028ECD00728E6D1E9E7AE
:103EF000072202210120FFF76BFF08B10728CFD16D
:103F0000002108460A22FFF763FF0028B9D00728DE
:103F1000C6D110BDB4300020B0300020194B10B510
:103F2000186031B101200C46FFF764FD30B1022367
:103F30002370154B186848B1002010BDFFF75AFDDB
:103F4000E8B9114B207018680028F5D10122022130
:103F5000FFF73EFF08B10728EFD107220221012019
:103F6000FFF736FF08B10728E7D1002108460A22EB
:103F7000FFF72EFF0028DFD00728DED1DCE70B2378
:103F80002370D6E7B0300020B430002076DF7047D1
:103F900078DF70477ADF70477CDF7047A8DF7047B3
:103FA00069DF704766DF704732DF70473EDF70477A
:103FB000704700BFFBF764BF044A0548137883F0DD
:103FC00001031946137007F077B900BF30310020A4
:103FD0005431002010B51249124C1348FEF70AFA6A
:103FE000236881B201331148236007F0B9F830F03B
:103FF000080207D0132805D043F20142904201D0B5
:10400000FBF73EFF22680A4B0A49A3FB02035B0849
:1040100003EB4303D31A18BF01230B7010BD00BF7D
:104020003C310020D83000203431002054310020B1
:10403000ABAAAAAAC425002008B50B490B48FEF775
:10404000D9F9C1B20A4806F01FFD30F0080209D0C4
:10405000132807D043F20142904203D0BDE8084044
:10406000FBF70EBF08BD00BFB43100204C3100206B
:10407000F830002010B50446FDF7BEFF2046BDE82D
:10408000104001F089BB00BF10B5044684B001F0B8
:1040900015FD204605F028F82146324806F008FFB5
:1040A0002146314806F0F0FB204601F0ABFC2046EB
:1040B000FFF7DCFE2388112B42D017D9512B27D0D4
:1040C000562B0AD03B2B08D0204601F005FB214699
:1040D000264802F0C5FD04B010BD1321A088FFF7EB
:1040E00055FF0028F0D0FBF7CBFEEDE7012B31D0D8
:1040F000102BE9D103201E49FBF7AAFB0720FFF78D
:104100007BFC08B1FBF7BCFE1A4BA2881A80DBE7E8
:10411000A379002BD8D0A27B043A022AD4D8022B50
:104120000CBF022201224FF4C1736946A0888DF8AA
:104130000020ADF80430FFF731FF0028C4D0D2E7EB
:10414000227A0D490320FBF7DBFB0A4B4FF6FF7287
:104150001A80B9E7074B00211888FFF723FF0028D2
:10416000B2D0C0E754310020F8300020DC3000200D
:10417000C8C20200C6250020E0C2020010B50A88AD
:1041800040F677239A420C4605D021460848BDE800
:10419000104007F095B88B884A8806490320FBF742
:1041A0000DFC21460248BDE8104007F089B800BF69
:1041B0005431002004C3020008B5037803B108BDE0
:1041C000054B3B211888FFF7E1FE0028F7D0BDE83A
:1041D0000840FBF755BE00BFC6250020072808B5DC
:1041E0001CD00A280ED0042800D008BD144B13217F
:1041F0001888FFF7CBFE30F00803F6D0BDE8084082
:10420000FBF73EBE0020FFF7F7FBB0B9FFF71CFE3F
:1042100080B9FFF7C9FE0028F0D108BD084B1A8805
:104220004FF6FF739A42E0D101F0E6FA30F008034E
:10423000DBD0E3E7FBF724FEEBE7FBF721FEE5E746
:10424000C625002008B51B4B1B7803B908BD1A49C9
:104250001A48FEF7CFF881B2194807F015F8164949
:104260001648FEF7C7F881B2154807F00DF8124955
:104270001248FEF7BFF881B2114807F005F80E4961
:104280000E48FEF7B7F881B20D4806F0FDFF0A4967
:104290000A48FEF7AFF881B2094806F0F5FF064973
:1042A0000648FEF7A7F8BDE8084081B2044806F0CA
:1042B000EBBF00BFC4250020A4310020F030002057
:1042C0005431002008B548B1032806D10D49FBF749
:1042D000BFFA0220FFF790FB50B908BDFFF78CFB37
:1042E00050B9FFF7B1FD50B9FFF75EFE0028F4D0DA
:1042F000BDE80840FBF7C4BDFBF7C2FDF1E7FBF7E3
:10430000BFFDF1E740C3020010B5037884B0044656
:104310000E2B0FD8DFE803F0220E270E3315100EF8
:104320001E0E1008100E3B00032001F0B5F908B175
:10433000FBF7A6FD04B010BD80680028F8D104B0DA
:1043400010BDFDF72BFC0E280346F3D033F0080315
:10435000F0D0EDE700690028ECD0E9E70D49032033
:10436000FBF776FAE6E7408801F036FC227A6388AC
:104370000949009202460320FBF786FBDAE704A90D
:10438000002301F8043D408804F02EFFD2E704F03A
:104390002DFFCFE760C3020094C30200F0B50020F8
:1043A000A1B0FBF739FA08B1FBF76AFDFCF712F987
:1043B00008B1FBF765FDC14AC1480121FCF7CCF902
:1043C00008B1FBF75DFDBF4ABF480121FCF7C4F906
:1043D00008B1FBF755FDBD4ABD480121FCF7BCF90A
:1043E00008B1FBF74DFDBB4ABB480121FCF7B4F90E
:1043F00008B1FBF745FDB9490320FFF793FC08B16D
:10440000FBF73EFD10A90020FFF788FD08B1FBF780
:1044100037FDB34BB34918680390002303A8D82293
:104420009DF8405006F0CCFF08B1FBF729FD20AC09
:10443000002344F8603D204607F038F808B1FBF748
:104440001FFD0C22002110A8FAF77CFF0023089A18
:104450008DF8403010A90120FFF7A2FD08B1FBF74D
:104460000FFD0C22002110A8FAF76CFF0121002398
:104470008DF84010089A8DF8413010A940208DF831
:104480004230FFF78DFD08B1FBF7FAFC0C2200214A
:1044900010A8FAF757FF01219E238DF84010089AC3
:1044A000ADF8423010A92320FFF77AFD08B1FBF7E1
:1044B000E7FC0C22002110A8FAF744FF4FF4A07685
:1044C0000123089A8DF8403010A920208DF8423041
:1044D000ADF84460FFF764FD08B1FBF7D1FC20465E
:1044E00006F0EEFF08B1FBF7CBFC7F4806F0B2FF09
:1044F00008B1FBF7C5FC7D4806F0B6FF08B1FBF735
:10450000BFFC9DF820307A48012262F3030362F376
:1045100007138DF8203007F023FA754982B2204640
:10452000FFF73AFD08B1FBF7ABFC40F24130FFF773
:104530002FFD08B1FBF7A4FC0822002110A8FAF710
:1045400001FF4FF4A0704FF4027100224FF4C873C2
:10455000ADF8400010A8ADF84210ADF84420ADF819
:104560004630FFF717FD08B1FBF78AFC6149624846
:1045700002F060FB08B1FBF783FC3C22002110A88D
:10458000FAF7E0FE0222062103205C4B8DF8402062
:10459000012620228DF84310ADF85000002120465E
:1045A00015938DF84260FAF7CDFE4FF49670002116
:1045B000B4270C900091524B8DF82360224610A82E
:1045C0000D9700F0A7FF08B1FBF75AFC012000F09F
:1045D0009BFF03231422002103A88DF80B30FAF768
:1045E000B1FE9DF81B309DF818209DF819E09DF84C
:1045F0001A709DF81C60012060F3030360F3071339
:1046000060F3030260F307120EF0F00E07F0F007FC
:1046100006F0F0068DF81B3000238DF810008DF8A1
:10462000182063F3071E63F3071763F307160DF1F2
:104630000B0203A933488DF819E003938DF81A7023
:104640008DF81C60059206F05DFC08B1FBF718FCC4
:10465000142200212046FAF775FE9DF82E009DF8E1
:104660002D609DF830209DF82F70012363F3030027
:1046700063F3071063F3030663F3030207F0F00725
:1046800063F3071663F3071221466FF3071700243D
:104690008DF824308DF82E0064231B488DF82D6092
:1046A0008DF830208DF82F7008940A948DF82C30F6
:1046B00006F018F950B3FBF7E3FB27E0394002009E
:1046C00048C40200D53F0200C4C2020045420200B5
:1046D00050C40200B93F02004CC40200DD41020098
:1046E000C0C202000432002089400200754002006E
:1046F000F8C302007D410200DC300020C825002004
:10470000C542020054310020F830002040220DEB59
:1047100002000021FAF716FE6E4910A801F0EAFA2D
:104720009DF87C309DF87D20012161F3030302F0A8
:10473000F00261F307136FF3071210A88DF87C30B5
:104740008DF87D2006F048FA08B1FBF799FB624B23
:104750006248012651221946642783E884009E603E
:104760001E73FDF739FE5E4B5E488C224FF4967146
:1047700000241A6059600A2219469A601C73FDF7DA
:104780002BFE594B59481F6019464FF4FA729E6030
:104790005A601C73FDF720FE21461C2210A8FAF770
:1047A000D1FD534B534A9889ADF84E00524B1094AB
:1047B0004FF420374FF47026032110A88DF8504095
:1047C000119712968DF84C101592169301F0E0F89F
:1047D00008B1FBF755FB04F099FC08B1FBF750FB5F
:1047E0000522002110A8FAF7ADFD9DF840309DF894
:1047F00043109DF8442043F00103032003F0FD0320
:1048000060F306136FF3C71341F0030142F0030294
:104810000726102410A88DF840308DF843108DF82D
:1048200044208DF841608DF8424004F0D3FC08B17B
:10483000FBF726FB314804F0B1FC08B1FBF720FB85
:104840002F48FCF7C7FE08B1FBF71AFB2D490320E0
:10485000FAF7FEFF00224FF480312B48FBF78EFF62
:1048600008B1FBF70DFB00224FF400412748FBF78E
:1048700085FF08B1FBF704FB002242F26661244881
:10488000FBF77CFF08B1FBF7FBFA00224FF4203165
:104890002048FBF773FF08B1FBF7F2FA022D11D1A4
:1048A0001D490320FAF7D4FF04F0A8FC38B9FBF740
:1048B00059F90028FBD1FFF779FB0028F7D0FBF767
:1048C000DFFAF4E7032000F0E7FE0028EFD0FBF763
:1048D000D7FAECE704C40200B43100204C310020C8
:1048E0003C31002034310020A4310020F030002081
:1048F00054310020B9410200B53F020009430200D3
:10490000B13F020018C4020010310020E431002041
:10491000C4310020B8300020E0C302006DDF7047D2
:1049200072DF704779DF70477DDF704764DF704763
:104930002DE9F04F83B004880C9FBDF83490B7F890
:1049400000A0002C4CD09846002316468B46054606
:104950001C4603E02A880134A24224DD6A6852F82A
:104960002400019000220DF1030101A8FFF7DEFFF2
:1049700010BB9DF80320B242ECD103B33A889319DF
:104980004B4518DC42440DF1030101A80123FFF758
:10499000CDFF88B93A889DF803100A443A802A88E6
:1049A0000134A242DADCDBB13B88013BCAEB0303F2
:1049B0009BB2FF2B12D90C2003B0BDE8F08F3B88CF
:1049C0005A1C334402334B4592B2F4DC3A8008F867
:1049D00002B03A88013292B23A80D3E708F80A303E
:1049E000002003B0BDE8F08F2DE9F04700231788C1
:1049F000138090F82D3084B0144605460E46002BE7
:104A000049D1AA78002A70D1EA78002A2ED16A68A2
:104A1000A2B1D91CB94225D8022192F90020F15443
:104A2000238801339BB20A212380F1542388013368
:104A30009BB22380F2542388013323802B89002BDF
:104A400040F02A812B8A002B40F03F812B8B002BDA
:104A500040F054812A6A002A00F0A78021888B1D2B
:104A6000BB4262D90C2004B0BDE8F087D91CB94222
:104A7000F8D80221F154238801339BB2012123800D
:104A8000F15423880B449BB22380F25423880B44B7
:104A90009BB22380BBE7082FE4D902A8FFF73EFFB3
:104AA0000028E0D113880822CA54238801339BB21E
:104AB0001B222380CA542088013080B22080062225
:104AC00008440DF1090106F0F2FE23889DF8082044
