:020000021000EC
:10F0000000000120CD630200F5630200F7630200F7
:10F01000F9630200FB630200FD63020000000000D0
:10F02000000000000000000000000000FF6302007C
:10F030000164020000000000036402000564020095
:10F040006141020007640200C54D0200076402002E
:10F050000764020007640200AD4202000764020078
:10F0600007640200076402000764020007640200EC
:10F0700007640200076402000764020007640200DC
:10F08000076402002D5902000764020007640200B1
:10F09000CD59020007640200D9680200076402002B
:10F0A00007640200076402000764020007640200AC
:10F0B0000764020007640200000000000000000076
:10F0C000076402000764020007640200076402008C
:10F0D00035480200076402000764020000000000D7
:10F0E0000000000000000000000000000000000020
:10F0F0000000000000000000000000000000000010
:10F1000000000000000000000000000000000000FF
:10F1100000000000000000000000000000000000EF
:10F1200000000000000000000000000000000000DF
:10F1300000000000000000000000000000000000CF
:10F1400000000000000000000000000000000000BF
:10F1500000000000000000000000000000000000AF
:10F16000000000000000000000000000000000009F
:10F17000000000000000000000000000000000008F
:10F18000000000000000000000000000000000007F
:10F19000000000000000000000000000000000006F
:10F1A000000000000000000000000000000000005F
:10F1B000000000000000000000000000000000004F
:10F1C000000000000000000000000000000000003F
:10F1D000000000000000000000000000000000002F
:10F1E000000000000000000000000000000000001F
:10F1F000000000000000000000000000000000000F
:10F2000010B5054C237833B9044B13B10448AFF360
:10F2100000800123237010BDA47C002000000000AA
:10F22000BC810200084B10B51BB108490848AFF378
:10F2300000800848036803B910BD074B002BFBD0C2
:10F24000BDE81040184700BF00000000A87C002067
:10F25000BC810200A07C002000000000154B002BA8
:10F2600008BF134B9D46A3F5803A00218B460F46FD
:10F270001348144A121A00F065F80F4B002B00D007
:10F2800098470E4B002B00D0984700200021040027
:10F290000D000D48002802D00C48AFF3008000F0AC
:10F2A0002BF82000290000F0D5F800F011F800BF7D
:10F2B0000000080000000120000000000000000025
:10F2C000A47C0020609B00200000000000000000E3
:10F2D00008B5074B044613B10021AFF30080054B7E
:10F2E0001868836A03B19847204600F033F800BFDE
:10F2F000000000005873020070B50E4B0E4CE41A6B
:10F30000A41000251E46A54204D056F82530984783
:10F310000135F8E708F014F8084C094BE41AA4107A
:10F3200000251E46A54204D056F8253098470135E1
:10F33000F8E770BD987C0020987C00209C7C002021
:10F34000987C002002440346934202D003F8011B3C
:10F35000FAE77047FEE700BF10B582B002AB03E9E1
:10F360000300BDF8044000F001FA074B1A78A242EE
:10F3700018BF1C7000F0F0F9044B187802B0BDE81B
:10F38000104002F0FFBB00BF147B0020157B002063
:10F39000013808B505281DD8DFE800F0170A031C5E
:10F3A0001C0A012002F07AFDBDE8084000F0DEB939
:10F3B00000F0DCF9084BF4221A7000F0CDF9074B8D
:10F3C0001878BDE8084002F0DDBB0120BDE8084028
:10F3D00002F058BD08BD00BF147B0020157B002043
:10F3E000F0B591B007AE304624220021FFF7AAFF06
:10F3F0007C25A724DF2089212622DB238DF82C50B1
:10F400008DF82D408DF82E008DF82F108DF83020BE
:10F410008DF831300BAD0FCD6C460FC401272B6832
:10F4200008480949094A8DF81C70089009910A9208
:10F43000236096E80F0002F0B9FA054B187011B07E
:10F44000F0BD00BF59F3010091F301005C730200AD
:10F45000157B002008B500F05FF9094801F080FE37
:10F4600002F028FDFFF7BCFF064B187802F026FCDF
:10F47000002002F007FD02F097FC002008BD00BF4D
:10F4800060730200157B002073DF704774DF7047E4
:10F490008ADF70478BDF704700487047B073020007
:10F4A00010B5002182B00D4802F084FF044688B1F7
:10F4B0002B230B4A0B49132006F034F922460A4944
:10F4C000132006F0D1F80094074B054802222B21A7
:10F4D00000F016FA204602B010BD00BF747302009F
:10F4E000B8730200D0730200E073020010B501216E
:10F4F00082B00D48FFF7C8FF044688B132230B4A9B
:10F500000B49132006F00EF922460A49132006F093
:10F51000ABF80094074B05480322322100F0F0F9C4
:10F52000204602B010BD00BF64730200B873020031
:10F53000D0730200E0730200FFF7A8BF10B50D48BA
:10F5400082B0FFF7A5FF044688B13E230A4A0B4963
:10F55000132006F0E7F822460949132006F084F844
:10F560000094074B044803223E2100F0C9F92046CD
:10F5700002B010BDB0730200B8730200D073020075
:10F58000E073020010B582B0FFF784FF044688B133
:10F5900045230A4A0A49132006F0C4F822460949BD
:10F5A000132006F061F80094064B0448032245211D
:10F5B00000F0A6F9204602B010BD00BFB8730200EB
:10F5C000D0730200E073020030B4CD7BED0811D09F
:10F5D0004B7C0A7C082B4FF0000304D10FE0547CD5
:10F5E000127C082C0BD001321344AB4201EB030216
:10F5F000F5D300252B468580036030BC7047042A74
:10F60000F7D112330B440325F5E700BF002380F840
:10F61000A03080F8A13080F8A230704784B0F0B5F7
:10F62000064683B090F8A20009AC84E80E00E0B969
:10F630000FCC96F8A050276805EB850406EB8404F0
:10F640000FC4276096F8A130013505F007055B1B54
:10F65000B3FA83F35B09012086F8A05086F8A23044
:10F6600003B0BDE8F04004B0704710230B4A0C49CA
:10F67000132006F057F808220A49132005F0F4FF7A
:10F68000082300930548074B0222102100F038F9A7
:10F69000002003B0BDE8F04004B07047E8730200FA
:10F6A000D0730200F873020090F8A13090F8A02007
:10F6B0009A4204D003EB830300EB8300704790F879
:10F6C000A220002AF6D11046704700BF90F8A23061
:10F6D00073B990F8A13090F8A0209A420BD0013372
:10F6E00003F00703002280F8A13080F8A2207047C1
:10F6F00090F8A130F3E7704790F8A23033B990F852
:10F70000A03090F8A1001B1A18BF012318467047BB
:10F710004FF0FF3006F0E6BD00B50C4B0C4A186800
:10F720009B8883B069460090ADF8043009482023D7
:10F73000ADF8003005F034F808B106F0D3FD054807
:10F7400005F070F803B05DF804FB00BF0C74020014
:10F7500011F7010014740200024B034801221A60E1
:10F7600005F048B80840024014740200014805F052
:10F770004DB800BF147402007ADF70478CDF704709
:10F7800000B9704710B54B2382B00446094A0A49B4
:10F79000132005F0C7FF22460849132005F064FF37
:10F7A0000094064B034801224B2100F0A9F802B057
:10F7B00010BD00BF1C740200D07302003074020040
:10F7C0000378012B00D0704710B53F23084A094940
:10F7D000132005F0A7FF0849132005F0EDFE064BA6
:10F7E000034804223F21BDE8104000F089B800BF63
:10F7F0001C740200D07302003C74020030B5104C3F
:10F80000154683B02246012325806580FFF7B6FFA9
:10F81000044688B124230B4A0B49132005F082FFCC
:10F8200022460A49132005F01FFF0094074B0548A4
:10F830000222242100F064F8204603B030BD00BF4E
:10F84000187B00201C740200D07302004874020070
:10F8500070B524488AB0FFF78FFF044600282CD1EA
:10F860004FF480432049214A069403A8022601252B
:10F8700007940394049305938DF818608DF81C5039
:10F880000891099203F090F8044608B90AB070BDD7
:10F890005E23174A1749132005F044FF22461649F4
:10F8A000132005F0E1FE00942A46134B10485E2118
:10F8B00000F026F820460AB070BD51230C4A0D49CD
:10F8C000132005F02FFF22460C49132005F0CCFE33
:10F8D00000940A4B06480122512100F011F82046FD
:10F8E0000AB070BD187B0020C1F7010081F701004C
:10F8F0001C740200D07302005474020048740200A9
:10F9000008B401B0704700BF0EB403B0704700BF29
:10F910006DDF704775DF704776DF704777DF7047C0
:10F920007CDF704788DF70479ADF70479CDF704745
:10F930009DDF7047A0DF7047A9DF704769DF704720
:10F9400062DF704766DF704767DF70473EDF7047F2
:10F9500030B500F5237583B02846FFF7CDFE08B912
:10F9600003B030BD2846FFF79FFE82785AB98188E0
:10F970000088FFF7D9FF044608BB2846FFF7A6FE1C
:10F98000002003B030BD00F108010088FFF7CEFF72
:10F9900004460028F1D06823134A1449132005F0C7
:10F9A000C1FE22461249132005F05EFE0E48009467
:10F9B0000F4B04226821FFF7A3FF2046D0E76B23FB
:10F9C000094A0A49132005F0ADFE224609491320D1
:10F9D00005F04AFE04480094064B04226B21FFF711
:10F9E0008FFF2046BCE700BF78740200D07302008E
:10F9F0008C740200A07402002DE9F043BB4B4288D6
:10FA00001B7889B043B3BA4CA18A9142054638D0DD
:10FA1000012B21D9B4F84813914200F0BC80022B8D
:10FA20001AD0B4F87C16914200F0B380032B13D0A7
:10FA3000B4F8B019914200F0AA80042B0CD0B4F8AD
:10FA4000E41C914200F0A180052B05D041F218037F
:10FA5000E35A934200F097804FF4E273A54AA64917
:10FA6000132005F05FFEA549132005F0A5FDA34B6B
:10FA7000A04802224FF4E271FFF742FF09B0BDE84F
:10FA8000F08300272E78002E33D1AA8841F2235329
:10FA90009A4214D04FF4E573964A9749132005F023
:10FAA00041FE9749132005F087FD954B91480222AE
:10FAB0004FF4E571FFF724FF09B0BDE8F083914BE7
:10FAC000AA791B78934229D040F2CD13894A8A49FA
:10FAD000132005F027FE8C49132005F06DFD8A4B9D
:10FAE0008448022240F2CD11FFF70AFF09B0BDE8B9
:10FAF000F08340F2C7137F4A7F49132005F012FEBE
:10FB00008249132005F058FD804B7A48022240F2CA
:10FB1000C711FFF7F5FE09B0BDE8F0832A7A012A84
:10FB200015D04FF4E873734A7349132005F0FAFDBA
:10FB30002A7A7749132005F097FD2B7A00936D48B8
:10FB4000734B02224FF4E871FFF7DAFE96E7B5F83F
:10FB50000E8041F2245290451FD04FF4EA73654A5B
:10FB60006549132005F0DEFD42466A49132005F081
:10FB70007BFDCDF80080674B5E4802224FF4EA71AE
:10FB8000FFF7BEFE7AE705277CE704277AE703271D
:10FB900078E7022776E7012774E795F81080434558
:10FBA00015D040F2D513534A5349132005F0BAFD3E
:10FBB00042465949132005F057FDCDF80080564BB9
:10FBC0004C48022240F2D511FFF79AFE56E74FF457
:10FBD0004D7909FB07F904EB09082B8BA8F876325D
:10FBE000EB8AA8F878326B88424A4349A8F8143067
:10FBF000132040F2DB1305F095FDB8F81430B8F887
:10FC000076224649132005F08DFDB8F81420B8F887
:10FC1000763200930192414B3648032240F2DB11C9
:10FC2000FFF76EFE98F87D32ADF8186004AA022541
:10FC30000792002BADF81A5008AB13E90300B8F88F
:10FC400076E28DF81160B8F81460ADF816E08DE832
:10FC500003000CBF01222A4601238DF814308DF8D1
:10FC60000E308DF81020ADF80C6003AB08F5237052
:10FC70000ECBFFF7D3FCB0B940F2EB131D4A1E497F
:10FC8000132005F04FFDB8F814202549132005F086
:10FC9000EBFCB8F8143000932A46214B154840F28B
:10FCA000EB11FFF72DFE4FF44D7303FB0744204685
:10FCB000FFF74EFE054600283FF4E0AE4FF4F77321
:10FCC0000C4A0D49132005F02DFD2B46A28A15493B
:10FCD000132005F027FDA38A06488DE8280002229C
:10FCE000104B4FF4F771FFF70BFEC7E6E47C0020E2
:10FCF0001C7E002078740200D07302009875020008
:10FD0000C8740200187E0020DC740200B074020087
:10FD1000F0740200087502001C7502002C750200C8
:10FD2000587502007C75020030B50B8840F67722CA
:10FD3000934283B00C461AD04DF67A22934214D1E6
:10FD400040F2FF13424A4349132005F0EBFC2279AD
:10FD50004149132005F088FC237900933C483E4B31
:10FD6000042240F2FF11FFF7CBFD03B030BD3B4B47
:10FD70004A881B781BB33A48818A914234D0012BC0
:10FD80001DD9B0F8481391425FD0022B17D0B0F8BC
:10FD90007C16914251D0032B11D0B0F8B01991428A
:10FDA0004DD0042B0BD0B0F8E45C2D49954248D0DF
:10FDB000052B04D041F21803CB5A934243D04FF4A1
:10FDC000FB73234A2349132005F0ACFC254913207B
:10FDD00005F0F2FB234B1E4801224FF4FB7103B0E8
:10FDE000BDE83040FFF78CBD0023A588184A1949AB
:10FDF0004FF44D7404FB0304033D4FF4FC731320D4
:10FE0000A4F8805205F08EFCB4F880221649132025
:10FE100005F02AFCB4F8803200930D48124B0322FF
:10FE20004FF4FC71FFF76CFDD4F88832002B9CD0A6
:10FE3000022003B0BDE8304018470223D5E7032372
:10FE4000D3E70423D1E70523CFE70123CDE700BFA4
:10FE500078740200D0730200C4750200E47C0020B4
:10FE60001C7E0020DC750200B075020010B5204C2D
:10FE70002178B1B10139CAB21E4B4FF44D7102FB6A
:10FE8000011119444FF6FF7093F87A222AB193F8C2
:10FE90007B2212B19A8A824222D003F54D738B42A3
:10FEA000F2D1FFF76FFB2178B1B10139CAB2114B22
:10FEB0004FF44D7102FB011119444FF6FF7093F896
:10FEC0007A222AB993F87B2212B19A8A82420AD006
:10FED00003F54D738B42F2D1BDE81040FFF72CBB08
:10FEE000FFF72CFBDFE7BDE81040FFF7FFBA00BFCC
:10FEF000E47C00201C7E00202DE9F04F0388013BAC
:10FF000087B00546562B00F2D780DFE813F0CD000E
:10FF1000D500D500D500D500D500D500D500D50039
:10FF2000D500D500D500D500D500D500D9009B015E
:10FF3000F101D500D500D500D500D500D500D500FC
:10FF4000D500D500D5003502D5008302D500D500F7
:10FF5000D500D500D500D500D500D500D500D500F9
:10FF6000D500D500D500D500D500D500D500D500E9
:10FF7000D500D500D500D5007503D500DD022203DC
:10FF8000D5005700D500D500D500D500D500D50047
:10FF9000D500D500D500D500D500D500D500D500B9
:10FFA000D500D500D500D500D500D5001904D50061
:10FFB000B703D703D500D50057009B0213218088D3
:10FFC000FFF7AAFC0446002840F0378440F277137C
:10FFD000BE4ABF49BF4E132005F0A4FBBE49132003
:10FFE00005F0EAFABC4BB948042240F27711FFF75A
:10FFF00087FC3278AB88002A4CD0B84CA18A994251
:020000022000DC
:1000000000F03184012A45D9B4F84813994200F030
:100010009584022A1BD0B4F87C16994200F08C8497
:10002000032A14D0B4F8B019994200F08384042A4A
:100030000DD0B4F8E41C994200F05F84052A06D084
:1000400041F21802A25A9A4200F055840622B4F8EE
:100050004803A249984200F04C84022A1AD0B1F811
:100060007C06984200F04384032A13D0B1F8B0090B
:10007000984200F03A84042A0CD0B1F8E40C98427B
:1000800000F03184052A05D041F218028A5A9A42BA
:1000900000F02784284602F0C1FC2946904803F06E
:1000A0005BFF07B0BDE8F08F00218088FFF74AFCB6
:1000B0000446002840F0AB83864EAB8832789AE73E
:1000C000844E337800F10809002B00F08684834CBD
:1000D0004FF00008A3464FF44D7A0BE0484601F07C
:1000E00083FE08F1010388B932785FFA83F842454C
:1000F00040F273840AFB08F7E1190531484601F024
:1001000073FE0BEB07010C310028E7D0EA7B4FF4BC
:100110004D73022A03FB08430CBF0122002283F81F
:100120007A22AA889A8240F03E845F1C674A684916
:100130004FF49773132005F0F5FA3A4669491320F6
:1001400005F092FA0097674B604803224FF49771CD
:10015000FFF7D6FB4FF44D7303FB08F304EB0309E1
:1001600009F11609E71848464FF418720021FFF705
:10017000E9F84846B98A03F011F88146002840F0B2
:10018000DF83B88A4A46FF21FFF7CCFB07460028E9
:1001900040F0E4844FF4A1734C4A4D49132005F01C
:1001A000C1FA5149132005F007FA4F4B4748042282
:1001B0004FF4A171FFF7A4FB3378BBB1013BDBB275
:1001C0004FF44D7103FB0111444B21444FF6FF7076
:1001D00093F87A2232B193F87B221AB19A8A82423A
:1001E00000F01B8403F54D738B42F1D1FFF7CAF980
:1001F0003378BBB1013BDBB24FF44D7103FB01110E
:10020000364B21444FF6FF7093F87A2232B993F8B7
:100210007B221AB19A8A824200F0178403F54D734B
:100220008B42F1D1FFF788F94FF44D7303FB08447B
:10023000D4F88832002B3FF440AF01209847AB88B8
:100240003278D8E6234E8288337843B3234CA18A90
:10025000914200F09385012B21D9B4F848139142C3
:1002600000F08A85022B1AD0B4F87C16914200F077
:100270008185032B13D0B4F8B019914200F00E859C
:10028000042B0CD0B4F8E41C914200F09C85052BA3
:1002900005D041F21803E35A934200F092854FF4DF
:1002A000A7730A4A0A49132005F03CFAAA880F49A5
:1002B000132005F0D9F9AB88009304480B4B0122B9
:1002C0004FF4A771FFF71CFB15242BE17874020093
:1002D000D0730200E47C0020607802001C7E0020C5
:1002E000C07C0020787702000078020010790200BC
:1002F000B94E8288337843B3B84CA18A914200F05A
:10030000AC84012B21D9B4F84813914200F0A384A6
:10031000022B1AD0B4F87C16914200F09A84032B79
:1003200013D0B4F8B019914200F04484042B0CD0DF
:10033000B4F8E41C914200F02585052B05D041F26C
:100340001803E35A934200F01B854FF4B273A44A9A
:10035000A449132005F0E6F9AA88A349132005F063
:1003600083F9AB8800939E489F4B01224FF4B271F2
:10037000FFF7C6FA1524D5E000F10803194604A8D2
:100380000393FFF721F9BDF81430934E002B00F0D2
:10039000DD803378DDF810A0002B00F042838F4C15
:1003A00000274FF44D7B04E03278DFB2BA4240F2CE
:1003B00038830BFB074808F10109484603225146E0
:1003C00006F008FB7B1C0028EED198F87A32002B4F
:1003D00000F0278398F87B32002B00F0B780B8F844
:1003E00014204FF6FF739A4200F05C83AC237C4AE2
:1003F0007C49132005F096F94A467C49132005F004
:1004000033F9CDF80090794B75480422AC21FFF701
:1004100077FA9BE000F1080393E8030004AB83E85C
:1004200003001946A888BDF81030ADF81230FFF768
:1004300071FA0446002840F0D581674E002C00F088
:1004400085806FE0644E8388327842B3634CA18A22
:10045000994200F0B484012A21D9B4F84813994292
:1004600000F0AB84022A1AD0B4F87C16994200F04E
:10047000A284032A13D0B4F8B019994200F09984E9
:10048000042A0CD0B4F8E41C994200F09084052AA8
:1004900005D041F21801615A994200F07584DB23BE
:1004A0004F4A5049132005F03DF9AA8850491320BE
:1004B00005F0DAF8AB88009349484D4B0222DB2166
:1004C000FFF71EFA15242DE0434E8288337843B39C
:1004D000424CA18A914200F07D85012B21D9B4F8CC
:1004E0004813914200F07A85022B1AD0B4F87C169A
:1004F000914200F07185032B13D0B4F8B0199142EA
:1005000000F01485042B0CD0B4F8E41C914200F0E8
:10051000D684052B05D041F21803E35A934200F02C
:10052000578515244FF4D6732D4A2E49132005F014
:10053000F9F822462F49132005F096F800942D4B28
:10054000274801224FF4D671FFF7DAF93278AB88E9
:1005500051E5214E8288337843B3204CA08A9042E3
:1005600000F0AA84012B21D9B4F84803824200F09C
:10057000A084022B1AD0B4F87C06824200F0968444
:10058000032B13D0B4F8B009824200F08C84042B02
:100590000CD0B4F8E40C824200F06A84052B05D03C
:1005A00041F21803E05A824200F00F84C1230C4A42
:1005B0000C49132005F0B6F8AA880D49132005F060
:1005C00053F8AB8800930648094B0222C121FFF77C
:1005D00097F91524A6E700BFE47C00201C7E0020CC
:1005E00078740200D073020010790200EC750200EA
:1005F000E4780200C8780200C14E8288337843B3A1
:10060000C04CA18A914200F0E184012B21D9B4F8B9
:100610004813914200F0D884022B1AD0B4F87C160B
:10062000914200F0CF84032B13D0B4F8B01991425B
:1006300000F0C684042B0CD0B4F8E41C914200F006
:10064000BD84052B05D041F21803E35A934200F014
:100650006F84F223AC4AAD49132005F063F8AA88F1
:10066000AB49132005F000F8AB880093A648A84BCF
:100670000222F221FFF744F9152453E700231A461A
:1006800019468088FFF758F9044600283FF414AD56
:1006900040F28F139C4A9D49994E132005F042F871
:1006A00022469C49132004F0DFFF0094994B9648A2
:1006B000012240F28F11FFF723F933E7904E838830
:1006C000327842B38F4CA18A994200F0CB84012A40
:1006D00021D9B4F84813994200F0C284022A1AD0F2
:1006E000B4F87C16994200F0B984032A13D0B4F808
:1006F000B019994200F08884042A0CD0B4F8E41CA4
:10070000994200F0BF84052A05D041F21801615AD0
:10071000994200F0B584E6237B4A7C49132005F01A
:1007200001F8AA887C49132004F09EFFAB8800934F
:100730007548794B0222E621FFF7E2F81524F1E62D
:100740006F4E82883378002B3FF4EBAE6D4CA18A5C
:10075000914200F09284012B7FF6E3AEB4F8481387
:10076000914200F08784022B3FF4DBAEB4F87C1694
:10077000914200F07C84032B3FF4D3AEB4F8B0195F
:10078000914200F07184042B3FF4CBAEB4F8E41C2A
:10079000914200F0F981052B3FF4C3AE41F21803FA
:1007A000E35A93427FF4BDAE05275C4BEA889B88F1
:1007B0009A4200F04E8140F21713534A53491320D6
:1007C00004F0B0FFEA885649132004F04DFFEB888F
:1007D00000934D48524B022240F21711FFF790F858
:1007E00015249FE640F28113474A4849132004F03C
:1007F00099FF22464B49132004F036FF0094494BE1
:100800004148012240F28111FFF77AF815E64FF4D2
:10081000C4733D4A3D493A4E132004F083FF2246FB
:100820004149132004F020FF00943F4B3648012239
:100830004FF4C471FFF764F874E64FF4BB73324AA7
:1008400032492F4E132004F06DFF22463749132002
:1008500004F00AFF0094354B2B4801224FF4BB7182
:10086000FFF74EF85EE600234FF44D7000FB0340A7
:100870002946163002F0C6FC32782249AB88002A9D
:100880003FF408AC898A994203D0012A3FF6DFABD6
:1008900000E40022002B3FF4FDAB4FF44D7303FB4B
:1008A00002442046FFF754F8064600283FF4F2AB16
:1008B0004FF4DD73144A1549132004F033FF334617
:1008C000A28A1B49132004F02DFFA38A0E488DE84D
:1008D00048000122164B4FF4DD71FFF711F8FFF7C6
:1008E000D9BB0522D6E70422D4E70322D2E70222AD
:1008F000D0E70122CEE70523B6E70423B4E700BF23
:10090000E47C00201C7E002078740200D07302007A
:10091000E4780200A8780200CC760200DC7C00209B
:10092000F07802007078020090780200D077020020
:100930007C750200032397E7022395E7012393E7E1
:1009400040F23913C64AC749132004F0EBFE4A4669
:10095000C549132004F088FEC34BC148CDF8009070
:10096000022240F23911FEF7CBFFB88A1321FEF7BD
:10097000D3FF074600283FF40DAC40F23B13B84AC2
:10098000B849132004F0CEFE3A46B849132004F0CB
:100990006BFE0097B54BB248012240F23B11FEF7C7
:1009A000AFFFFFF7F7BB4FF49873AD4AAD49132083
:1009B00004F0B8FEAE49132004F0FEFDAC4BA8488D
:1009C00003224FF49871FEF79BFF05F1080393E8AB
:1009D000030001F035FAFFF7BDBB8E23A04AA14901
:1009E000132004F09FFEA349132004F0E5FDA14B62
:1009F0009B4804228E21FEF783FF99F8043099F872
:100A0000052099F80610D9F8000043EA022343EACA
:100A1000014101F015FA182484E5FEF78FFDFFF778
:100A2000E7BBA6238E4A8F49132004F07BFE524673
:100A30009149132004F018FECDF800A08E4B884891
:100A40000422A621FEF75CFF80E5FEF74FFDFFF7CD
:100A5000EBBBB5F81090B9F1020F7FF4ACAE05F125
:100A60001208404602F03CF84FF44D7303FB074474
:100A700084F87E02002852D040F21F13784A794948
:100A8000132004F04FFE7D49132004F095FD7B4BAD
:100A90007348042240F21F11FEF732FFAB88327810
:100AA000FFF7A9BA08F1050A5146039801F09CF92D
:100AB000002800F00383B023694A6A49132004F038
:100AC00031FE6F49132004F077FD6D4B644803221B
:100AD000B021FEF715FFFEF7DFFC4FF44D7303FB6B
:100AE00007440146B4F830230398FEF787FE044616
:100AF000002840F0C982BA23594A5A49132004F009
:100B000011FE4A465F49132004F0AEFDCDF8009077
:100B10005C4B53480322BA21FEF7F2FE16E540462D
:100B200001F0DAFF002831D094F87E32002BA3D1F7
:100B300040F221134A4A4B49132004F0F3FD524975
:100B4000132004F039FD504B4548042240F2211196
:100B5000FEF7D6FEAB883278FFF74DBA40F23F136E
:100B60003F4A4049132004F0DDFD3A46474913202F
:100B700004F07AFD0097454B3948022240F23F11BC
:100B80003C46FEF7BDFECDE404270EE64FF48E731F
:100B9000334A3449132004F0C5FD3D49132004F0C5
:100BA0000BFD4A463A4B2E484FF48E71FEF7A8FED5
:100BB0001924B7E403274FF44D7303FB07430021C7
:100BC000D3F8882283F87F120AB1062090474FF4A9
:100BD0004D7303FB074494F87A32E3B1B4F8302341
:100BE0002B899A423FF469AA4FF4B7731C4A1D49F6
:100BF000132004F097FD2A892649132004F034FDC0
:100C00002B8900931648234B01224FF4B771FEF74E
:100C100077FE072486E42B89114A1249A4F8303361
:100C2000132040F26B1304F07DFDB4F830231A4911
:100C3000132004F019FDB4F8303300930422164B4E
:100C4000074840F26B11FEF75BFEAB883278FFF786
:100C5000D2B90227AFE70127ADE70027ABE700BF16
:100C600078740200D0730200B0770200D0770200DF
:100C700098770200DC750200D87802004C770200F9
:100C8000087602005876020060770200E8770200DA
:100C90002C7702004C7802003078020003274FF4D2
:100CA0004D7303FB07F304EB03084FF6FF73F422C5
:100CB000A8F814300023A8F87632A8F8783288F81B
:100CC0007C3288F87E3288F87F3208F52370A8F8E5
:100CD0008022FEF79BFC98F87A3253B34FF4A97345
:100CE00008F10108BE4ABF49132004F01BFD42462B
:100CF000BD49132004F0B8FCCDF80080BA4BB848C9
:100D000003224FF4A971FEF7FBFD4FF44D7303FB73
:100D10000744002194F87A02FFF7A8F8D4F8883243
:100D2000002B3FF4CAA903209847AB883278FFF71D
:100D300062B94FF4AA73AA4AAA49132004F0F2FC3C
:100D4000AA49132004F038FCA84BA54803224FF40D
:100D5000AA71FEF7D5FD98F8093098F80A2098F89E
:100D60000B10D8F8050043EA022343EA014101F0E1
:100D700067F8CAE7022792E7012790E700278EE786
:100D8000052718E7042716E705234FF44D7101FBEB
:100D900003440021D4F8883284F87C12002B3FF4FD
:100DA000D6AB05209847AB883278FFF724B90423E7
:100DB000EBE70323E9E70223E7E70123E5E7002365
:100DC000E3E705276BE7042769E74FF005084FF4D1
:100DD0004D7303FB08436F89B3F87812B94214D0FE
:100DE000C5237F4A7F49132004F09CFC3A46804982
:100DF000132004F039FC00977D4B79480222C5216D
:100E0000FEF77EFD1524FFF78DBB93F87E32B5F813
:100E10000E9005F1100204921BB1FEF789FD074602
:100E200048BBD1236E4A6F49132004F07BFC4FF47A
:100E30004D7303FB08444A46A38A6E49132004F00D
:100E400071FCA38A0193CDF800906A4B6448042298
:100E5000D121FEF755FDD4F88432002B3FF476AB58
:100E6000ADF8149006AA12E903009847FFF76EBB8D
:100E70004FF00408ABE7CF23594A5A49132004F036
:100E800051FC3A465C49132004F0EEFB3C460097C7
:100E9000594B53480222CF21FEF732FD002C3FF47C
:100EA00055ABFFF73FBB4FF0030890E74FF0020848
:100EB0008DE74FF001088AE74FF0000887E7042329
:100EC0004FF44D7202FB03436C89B3F87632A342B0
:100ED00016D040F20B13424A4249132004F022FC80
:100EE00022464649132004F0BFFB0094434B3C4884
:100EF000022240F20B11FEF703FD1524FFF712BB8F
:100F00004FF48673364A3749132004F00BFC3C49F2
:100F1000132004F051FB3A4B314803224FF4867101
:100F2000FEF7EEFCAB883278FFF765B80323C7E71E
:100F300005234FF44D7202FB03446F89B4F87832F5
:100F4000BB4214D0F623264A2649132004F0EAFBBC
:100F50003A462C49132004F087FB0097294B204880
:100F60000222F621FEF7CCFC1524FFF7DBBAEF894D
:100F70001B4A1C4905F1100EFD231320CDF810E08B
:100F800004F0D0FB3A46A38A1A49132004F0CAFBA6
:100F9000A38A01930097174B11480422FD21FEF705
:100FA000AFFCD4F88432002B3FF4D0AAADF8147013
:100FB00006AA12E903009847FFF7C8BA0423B8E766
:100FC0000323B6E70223B4E70123B2E70023B0E727
:100FD000052375E7002373E7022371E701236FE719
:100FE00078740200D07302001C7802002878020096
:100FF0006C760200A47602008C7602000077020074
:101000001C770200E076020003214E48EF8800883A
:10101000B84214D0E8234C4A4C49132004F082FB18
:101020003A464B49132004F01FFB0097484B4648B3
:101030000222E821FEF764FC1524FFF773BA4FF48F
:101040004D7000FB0141D1F8881200293EF4D3AF66
:1010500004208847AB883278FEF7CDBF0221D4E761
:101060000121D2E70021D0E70327FFF79EBB02272B
:10107000FFF79BBB0127FFF798BB0027FFF795BB46
:101080000521C2E70421C0E7B9232F4A2F491320C5
:1010900004F048FB23464A462E49132004F042FB45
:1010A0000194CDF800902B4B27480222B921FEF77E
:1010B00027FC002C3FF44AAAFFF734BA51460398A4
:1010C00000F092FE834680B1B2231F4A1F491320CD
:1010D00004F028FB2049132004F06EFA1E4B1A4836
:1010E0000322B221FEF70CFCF5E4B423164A17499B
:1010F000132004F017FB1949132004F05DFA174B75
:1011000011480322B421FEF7FBFB2B460BF07F4175
:1011100053F8080FC8F805009A889B798AF80630BA
:10112000AAF8042098F8092098F80A3098F80BE0FB
:10113000D8F8050042EA032343EA0E43194300F0BE
:101140007FFEC8E4DC7C002078740200D0730200CB
:10115000CC7602003876020014760200287602006F
:10116000F0B5064695B0002004F00AFA002840F0D9
:10117000C4814FF40273C54AC549132004F0D2FA62
:10118000C449132004F018FAC24BC04804224FF49B
:101190000271FEF7B5FB04F03FFF0446002840F063
:1011A0009581BD4BBD4918680690234606A84FF4AB
:1011B000987205F03DFB002840F0E48114AD002357
:1011C00045F8303D284605F09FFB0446002840F0D6
:1011D000C28101460C220CA8FEF7B4F803230CA927
:1011E000089A8DF8303040208DF831308DF832304B
:1011F000FEF7A4FB0446002840F0978101460C222C
:101200000CA8FEF79FF80127F723089A8DF8307095
:101210000CA92320ADF83230FEF790FB04460028DD
:1012200040F0B38101460C220CA8FEF78BF84FF476
:10123000A0700623ADF83400089A8DF830700CA920
:1012400020208DF83230FEF779FB0446002840F06C
:10125000408201460C220CA8FEF774F8089A8DF81B
:1012600030700CA93846FEF769FB0446002840F0B0
:10127000A281284605F052FB0446002840F06B820C
:10128000874805F01FFB0446002840F0B3824FF466
:1012900010737E4A7E49132004F044FA81491320DA
:1012A00004F08AF97F4B794804224FF41071FEF75D
:1012B00027FB9DF8083067F3030367F307133046F5
:1012C0008DF8083005F0D2FB032800F0A1814FF41F
:1012D00013736E4A6E49132004F024FA32467249A1
:1012E000132004F0C1F9704B684800963A464FF459
:1012F0001371FEF705FB6D4805F0B8FB6B4982B230
:1013000002A8FEF70DFB0446002840F0B681FEF768
:101310009FFA0446002840F064816549654802F060
:10132000C1FD0446002840F09281FEF7B9F804465A
:10133000002840F0B881604801F0AEFE0446002865
:1013400040F0DD815D4B5E4E186859689A68DB6835
:101350002C460FC428463146FEF7F2FA0446002810
:1013600040F0E38141F223523378ADF80C2003A81A
:101370008DF80E3001F0AAFE0446002840F00182EC
:1013800003A90DF10A020120FEF7D4FA0446002851
:1013900040F04682014620220CA8FDF7D3FF9DF8BD
:1013A0003D3031788DF83210012543F03A03454A3B
:1013B000BDF80A00ADF836400CA941F22457F726D3
:1013C0008DF83D30ADF83070ADF834608DF8435095
:1013D0008DF841508DF83C5001F086FB0446002802
:1013E00040F034823146334802F078FD044600284C
:1013F00040F0428231462F4802F07CFD044600282E
:1014000040F05082FB224FF6FF712A4802F07EFD29
:101410000446002840F05C820146082206A8FDF739
:1014200091FF9DF8183006A943F0010302208DF8C2
:101430001830FEF789FA0446002840F05F82FEF774
:101440006DFA0446002840F06F8204AD2846FEF78E
:101450005FFA0446002840F07D8240F29E230B4A4A
:101460000B49132004F05EF91749132004F0A4F887
:10147000154B0648042240F29E21FEF741FA95E8FA
:10148000030000F0DDFC204635E000BF7874020068
:10149000D07302003879020064740200E87C0020F6
:1014A000F9FE0100287A0200347A0200447A020030
:1014B00029FD0100C07C0020F9F9010068740200D8
:1014C000187E0020DC7C0020E87B02004FF40373D0
:1014D000B74AB849132004F025F92246B64913202B
:1014E00004F0C2F8B2480094B34B01224FF40371E8
:1014F000FEF706FA204615B0F0BD044640F2072379
:10150000AB4AAC49132004F00DF92246AB49132035
:1015100004F0AAF80094A94BA548012240F2072143
:10152000FEF7EEF9204615B0F0BD40F22123A04AA7
:10153000A049132004F0F6F82246A149132004F034
:1015400093F89B4800949E4B012240F22121FEF724
:10155000D7F92046CFE740F21523954A9549132045
:1015600004F0E0F822469749132004F07DF8009437
:10157000944B8F48012240F21521FEF7C1F9204615
:1015800015B0F0BD04F0AEFE18E64FF40A73884AB9
:101590008849132004F0C6F822468B49132004F032
:1015A00063F8834800943A46874B4FF40A71FEF77C
:1015B000A7F920469FE740F236237D4A7D49132054
:1015C00004F0B0F822468149132004F04DF8784821
:1015D00000943A467D4B40F23621FEF791F92046C1
:1015E00089E740F25523724A7249132004F09AF8B1
:1015F00022467749132004F037F80094744B6C4866
:10160000012240F25521FEF77BF9204615B0F0BDCE
:101610000246314602A8FEF783F9044600283FF44B
:1016200076AE40F25123624A6249132004F07AF800
:1016300022466849132004F017F85D4800943A46A2
:10164000644B40F25121FEF75BF9204653E74FF41B
:101650001673574A5749132004F064F822465E492E
:10166000132004F001F8524800945B4B01224FF420
:101670001671FEF745F920463DE740F24E234C4AED
:101680004C49132004F04EF822465249132003F02F
:10169000EBFF474800943A464E4B40F24E21FEF78E
:1016A0002FF9204627E740F25B23414A41491320A6
:1016B00004F038F822464949132003F0D5FF3C488E
:1016C0000094464B012240F25B21FEF719F92046B7
:1016D00011E74FF40C73364A3649132004F022F810
:1016E00022463F49132003F0BFFF314800943A4699
:1016F0003B4B4FF40C71FEF703F92046FBE640F23A
:101700005E232B4A2B49132004F00CF8224635495E
:10171000132003F0A9FF26480094324B012240F227
:101720005E21FEF7EDF82046E5E640F26323204A0D
:101730002049132003F0F6FF22462B49132003F023
:1017400093FF1B480094284B012240F26321FEF7CF
:10175000D7F82046CFE640F23A23154A1549132020
:1017600003F0E0FF22462149132003F07DFF1048DB
:1017700000943A461D4B40F23A21FEF7C1F820464C
:10178000B9E640F26B230A4A0A49132003F0CAFF64
:1017900022461749132003F067FF05480094144BB5
:1017A000012240F26B21FEF7ABF82046A3E600BF12
:1017B00078740200D073020040790200247902009C
:1017C00070790200587902008C790200D079020009
:1017D0005C7A0200487A0200847A02009C7A020055
:1017E000AC790200B87A0200D87A0200F4790200DB
:1017F000EC7A020040F23E23614A6249132003F072
:1018000091FF22466049132003F02EFF5C480094AC
:101810003A465D4B40F23E21FEF772F820466AE6FA
:101820004FF41C73564A5749132003F07BFF22469E
:101830005649132003F018FF51480094534B0122DE
:101840004FF41C71FEF75CF8204654E640F2832307
:101850004B4A4C49132003F065FF22464C491320A4
:1018600003F002FF464800942A46494B40F2832188
:10187000FEF746F820463EE640F28623404A4149BC
:10188000132003F04FFF22464249132003F0ECFEE1
:101890003B4800942A463F4B40F28621FEF730F841
:1018A000204628E640F28923354A3649132003F0C2
:1018B00039FF22463849132003F0D6FE3048009401
:1018C000354B012240F28921FEF71AF8204612E634
:1018D00040F28E232A4A2B49132003F023FF22468D
:1018E0002E49132003F0C0FE254800942B4B012203
:1018F00040F28E21FEF704F82046FCE540F29523E5
:101900001F4A2049132003F00DFF224624491320CB
:1019100003F0AAFE1A480094214B012240F29521BF
:10192000FDF7EEFF2046E6E54FF42673144A15490D
:10193000132003F0F7FE22461A49132003F094FE09
:101940000F480094174B01224FF42671FDF7D8FF82
:101950002046D0E54FF42773094A0A49132003F0C3
:10196000E1FE22461049132003F07EFE0448009455
:101970000D4B01224FF42771FDF7C2FF2046BAE557
:1019800078740200D07302000C7A02000C7B020013
:10199000247B0200387B02005C7B02007C7B02001F
:1019A000987B0200B87B0200D07B020084B02DE956
:1019B000F0436D4E357885B00CAC062D84E80F00F1
:1019C00000F0B7809DF83030EBB10F9805F04EF87D
:1019D000032817D040F2BA23644A6549132003F064
:1019E000A1FE6449132003F0E7FD624B5F4801222A
:1019F00040F2BA21FDF784FFFF2005B0BDE8F043B7
:101A000004B070473578DFF878914FF44D7707FBD5
:101A100005F709EB07044FF000084FF6FF71F422B9
:101A20006B1C04F52370A182A4F88022A4F87682AE
:101A3000A4F8788284F87C8284F87E8284F87F829D
:101A40003370FDF7E3FD63790D9984F87B8203F031
:101A5000FE034FF001080E9A9DF830E0C4F884129E
:101A600068F347039DF85010C4F8882284F87AE29E
:101A7000062284F87D12637110A9A01D04F0B9FF3D
:101A8000237B03F0FE0368F34703204623730D30E6
:101A900006220DF1460104F0ACFF94F87A32CBB186
:101AA000DDED136AB7EE047AC6EE877AFCEEE77ACC
:101AB000CDED037ABDF80C30052B52D9B3F5C87FB4
:101AC00028BF4FF4C8734FF44D7202FB0592A2F881
:101AD000303301E0A4F830334FF44D7303FB059528
:101AE0000F99681C042204F084FF4FF435731F4AD9
:101AF0001F49132003F016FE3278B5F830331E4923
:101B0000013A132003F00EFE3378B5F8302301922A
:101B1000013B00931548184B04224FF43571FDF733
:101B2000EFFE30780138C0B205B0BDE8F04304B034
:101B300070474FF42E730D4A0D49132003F0F2FD48
:101B40000E49132003F038FD0C4B084801224FF4D6
:101B50002E71FDF7D5FEFF2005B0BDE8F04304B0BF
:101B600070470623AFE700BFE47C002078740200D2
:101B7000D0730200187C02002C7C0200007C020062
:101B80001C7E0020F0B5454B1B78834289B004468B
:101B900040D94FF44D73424D03FB00F3EE184FF65E
:101BA000FF71B28A8A4220D008A911E90300B6F871
:101BB0007872ADF80C208DE8030000222B448DF8DC
:101BC0000E20ADF8107003AA03F523700ECAFDF7BE
:101BD00025FD00284CD04FF44D7000FB0450FDF75C
:101BE000B7FE044668BB09B0F0BD4FF437732D4A09
:101BF0002D49132003F096FD2C49132003F0DCFC43
:101C00002A4B284801224FF43771FDF779FE062050
:101C100009B0F0BD40F2DA23224A2349132003F031
:101C200081FD22462249132003F01EFD0094204B23
:101C30001C48012240F2DA21FDF762FE042009B0BF
:101C4000F0BD40F2E723174A1749132003F06AFD5D
:101C500022461849132003F007FD0094154B114844
:101C6000032240F2E721FDF74BFE032009B0F0BD4F
:101C70004FF439730B4A0C49132003F053FDB28A19
:101C80000D49132003F0F0FCB38A009305480A4B7A
:101C900002224FF43971FDF733FE9CE7E47C00200B
:101CA0001C7E002078740200D07302009875020038
:101CB000547C0200647C02005875020070B5354EF9
:101CC0003278824282B0044644D9334D4FF44D718C
:101CD00001FB005393F87B4214B1204602B070BD63
:101CE000012083F87B02A2B1013AD2B202FB0111BA
:101CF00029442B464FF6FF7093F87A222AB193F8C5
:101D00007B2212B19A8A82423CD003F54D738B42FA
:101D1000F2D1FDF737FC3378B3B1591EC9B24FF495
:101D20004D7301FB03311C4B29444FF6FF7093F8B0
:101D30007A222AB993F87B4214B19A8A824224D03B
:101D400003F54D738B42F2D1FDF7F6FB01242046DB
:101D500002B070BD40F23633104A1149132003F02F
:101D6000E1FC22460F49132003F07EFC00940D4B4A
:101D70000A48042240F23631FDF7C2FD0024204615
:101D800002B070BDFDF7DAFBC5E7FDF7AFFB2046FB
:101D900002B070BDE47C00201C7E0020787402003C
:101DA000D0730200547C020008B50C4A0C4940F282
:101DB0006133132003F0B6FC0A49132003F0FCFB47
:101DC000084B0648042240F26131FDF799FD03F00B
:101DD0000FFD0028FBD1FDF7B9FDF8E7787402008C
:101DE000D0730200607D020002780B78534013F03C
:101DF000FE0220D1EBB910B44A78447894421CD149
:101E000084788A78944218D1C478CA78944214D1DC
:101E100004790A79944210D144794A7994420CD1D8
:101E200083798879181AB0FA80F040095DF8044B7C
:101E3000704710467047002070471846F6E700BF0D
:101E400000B585B004AB03E903009DF80B109DF8C5
:101E50000A309DF80920009103200849FDF754FD40
:101E60009DF80E1000919DF80D309DF80C2004494E
:101E70000320FDF749FD05B05DF804FBC47D0200B9
:101E8000D47D0200044B195C4FF0A04201238B402B
:101E9000C2F80C35704700BFE47D0200044B195CAA
:101EA0004FF0A04201238B40C2F80835704700BFB5
:101EB000E47D020030B44FF0A04303224FF400351C
:101EC0004FF480244FF400204FF48011C3F84427CE
:101ED000C3F84827C3F84C27C3F85027C3F8085560
:101EE000C3F80845C3F80805C3F8081530BC7047A7
:101EF0006DDF704772DF704779DF70477DDF7047B5
:101F000064DF70472DE9F04F83B004880C9FBDF863
:101F10003490B7F800A0002C4CD098460023164609
:101F20008B4605461C4603E02A880134A24224DD84
:101F30006A6852F82400019000220DF1030101A803
:101F4000FFF7DEFF10BB9DF80320B242ECD103B3D4
:101F50003A8893194B4518DC42440DF1030101A85E
:101F60000123FFF7CDFF88B93A889DF803100A4492
:101F70003A802A880134A242DADCDBB13B88013B9B
:101F8000CAEB03039BB2FF2B12D90C2003B0BDE8B0
:101F9000F08F3B885A1C334402334B4592B2F4DC39
:101FA0003A8008F802B03A88013292B23A80D3E718
:101FB00008F80A30002003B0BDE8F08F2DE9F047A3
:101FC00000231788138090F82D3084B014460546FE
:101FD0000E46002B49D1AA78002A70D1EA78002A4F
:101FE0002ED16A68A2B1D91CB94225D8022192F932
:101FF0000020F154238801339BB20A212380F1543D
:10200000238801339BB22380F25423880133238039
:102010002B89002B40F02A812B8A002B40F03F8136
:102020002B8B002B40F054812A6A002A00F0A780F5
:1020300021888B1DBB4262D90C2004B0BDE8F0871B
:10204000D91CB942F8D80221F154238801339BB23C
:1020500001212380F15423880B449BB22380F25446
:1020600023880B449BB22380BBE7082FE4D902A846
:10207000FFF73EFF0028E0D113880822CA542388C6
:1020800001339BB21B222380CA542088013080B2C6
:102090002080062208440DF1090104F0AAFC2388DF
:1020A0009DF8082006339BB212F0FE0218BF0122F1
:1020B0002380F254238801339BB223808BE70433BF
:1020C000BB42B9D802A8FFF717FF0028B5D1238873
:1020D000BDF808200321F154238801339BB2192154
:1020E0002380F154238801339BB2F1182380F254EA
:1020F000120A4A70238802339BB223806EE713884A
:10210000052B40F2AF806FF4486803EB080080B203
:102110004FF27D3E704540F2A5805088052840F280
:10212000A1806FF4486C84441FFA8CFCF44540F2A3
:1021300099804FF6FF7E734504D0704502D08342EC
:1021400000F2908005237354238801339BB212213F
:102150002380F154238801339BB223801188F154EA
:102160003344090A5970238802339BB22380528872
:10217000F2543344120A5A70238802332380D5F86C
:102180002480B8F1000F30D0B8F804202188131D46
:102190000B44BB423FF650AF931CFE2B3FF64CAFB7
:1021A00003327254238801339BB2FF222380F254FE
:1021B000238801339BB22380B8F80020F2543344C3
:1021C000120A5A702088023080B22080B8F80420A9
:1021D0005AB1D8F80810002944D0304404F009FC62
:1021E000B8F8043022881344238095F82C30002B53
:1021F00040F08B80287800283FF41FAF2B88012BFC
:1022000030D023889A1CBA423FF616AF012805D178
:102210006978023119448F42FFF40EAF023FFB1A76
:1022200004A99BB221F8083DB018FFF767FE00280B
:102230007FF403AF2A78022A00F0B480012A60D02C
:102240001A460821FE2A3FF6F7AE2388551CF5549E
:10225000238801339BB22380F154238801331A442D
:102260002280EAE6072004B0BDE8F08705F10808FF
:1022700002228DE89000404611463346FFF742FEA9
:1022800000287FF4DAAE8DE89000404633461022F5
:102290000621FFF737FE00287FF4CFAEBCE605F13C
:1022A00010088DE890004046334602220321FFF7D4
:1022B00029FE00287FF4C1AE8DE8900040463346E9
:1022C00010220721FFF71EFE00287FF4B6AEA7E616
:1022D00005F118088DE8900040463346022214218B
:1022E000FFF710FE00287FF4A8AE8DE8900040466E
:1022F000334610221521FFF705FE00287FF49DAE1E
:1023000092E66A7893429CD29AE7D5F82880B8F191
:10231000000FA7D0B8F804200232FE2A3FF68CAE98
:1023200023884FF000094FF0160A0132F254238837
:1023300001339BB2238006F803A0238801339BB2AC
:102340002380B8F80020F2543344120A5A702388CC
:1023500002339BB22380B8F80410F0180A4669B122
:10236000D8F808301946002B3FF47CAF04F041FB4D
:10237000B8F80430228813449BB2238009F1010984
:1023800095F82C205FFA89F94A4509EB49087FF650
:1023900031AFAA6A02EB8808B8F804200232FE2A9C
:1023A000C3D949E6BDF808209342FFF449AF09219B
:1023B00048E700BF2DE9F04395B01F230D46ADF867
:1023C0000E300446002800F08480C27853077CD584
:1023D00090F82D300021ADF80C10002B40F0DD817D
:1023E00083780CAF002B40F019821946032014AEFD
:1023F00031445F1C023316FA87F74FF0020E16FACB
:1024000083F601F840EC83B2012107F8401CADF8D7
:102410000C3006F8402C6668002E00F08C80D81C2A
:102420001F2874D90C2015B0BDE8F083A76A002FCF
:102430004BD0BA880232FE2AF4D8BDF80C304FF0E7
:10244000000804AE4FF016091AE004F0D2FABDF805
:102450000C20BB8894F82C1013449BB2ADF80C30C0
:1024600008F101085FFA88F8884508EB480780F012
:10247000F080A26A02EB8707BA880232FE2AD1D81E
:102480000DF1500E9E44581C01320DF1500C0EF807
:10249000402C1CFA80F09A1C92B200F8409CADF8D7
:1024A0000C203888B0543244000A50700433B7F816
:1024B00004E09BB27246F018ADF80C30BEF1000F8C
:1024C000CED0BB681946002BBFD1072015B0BDE8A0
:1024D000F083ADF80C00ADB1EB78002BF5D12846B8
:1024E0000CA90DF10E02FFF769FD0028EED19DF851
:1024F0000E300CAA20469DF80C10FFF7FBFC15B01F
:10250000BDE8F0832B46ADF80E502A46F2E714AF33
:10251000591C9A1C17FA81F13B4417FA82F296F97A
:102520000060ADF80C0002270A2003F8407C01F897
:10253000400C02F8406C2389002B40F08F80238AE6
:10254000002B40F0AB80238B002B40F0C780226A29
:10255000002A42D0BDF80C30991D1F293FF662AF0A
:1025600010880528B1D96FF4486C00EB0C06B6B2A0
:102570004FF27D37BE42A8D95688052EA5D96FF4F3
:10258000486EB6441FFA8EFEBE459ED94FF6FF77C1
:10259000B84203D0BE4201D0B04296D814A8C718A2
:1025A0005E1C10FA86F64FF0050E981C07F840ECFA
:1025B00080B2122706F8407CADF80C001788ADF801
:1025C0000C1004AE3118375404333F0A4F709BB2DD
:1025D0005288F2543344120A5A70676AA7B3B88813
:1025E000BDF80C30811C9A1C56181F2E3FF61AAFEE
:1025F000FE293FF617AF14AE1E44591C0DF1500EC4
:102600001EFA81F1033006F8400C92B2FF2001F867
:10261000400CADF80C20398804AEB018B154090A4A
:1026200041700433BA8898B2ADF80C0062B1B96851
:1026300000293FF44AAF304404F0DBF9BDF80C2028
:10264000BB881344ADF80C3094F82C1000297FF4AB
:10265000EDAE2378002B61D104AC3CE703A904F173
:10266000080704AE4FF01F08022200913846334697
:10267000CDF804801146FFF745FC00287FF426AF13
:1026800003AB0093CDF80480334638461022062170
:10269000FFF738FC00287FF419AF50E703AA04F1D4
:1026A000100704AE4FF01F08009238463346CDF8AD
:1026B000048002220321FFF725FC00287FF406AFE7
:1026C00003AB0093CDF8048033463846102207212F
:1026D000FFF718FC00287FF4F9AE34E703AA04F1F1
:1026E000180704AE4FF01F08009238463346CDF865
:1026F000048002221421FFF705FC00287FF4E6AED7
:1027000003AB0093CDF804803346384610221521E0
:10271000FFF7F8FB00287FF4D9AE18E72288012ADA
:102720003FF4D3AEBDF80C20901C1F283FF67AAEC4
:10273000012B05D16378134402331F2B3FF672AE91
:10274000C2F11D0314A99BB204AE21F8203D304410
:10275000FFF7D4FB00287FF4B9AE2278022A00F0FC
:102760008780012A00F08B80ADF830301A460820AF
:10277000FE2A3FF657AEBDF80C3014AC591CE718D2
:1027800014FA81F102331344013207F8402C344625
:10279000ADF80C3001F8400C9DE60CAF3846FFF761
:1027A000A7FB00287FF492AEBDF80C3014A903F10A
:1027B000010E9A1C11FA8EFE0B4492B204AEB018B0
:1027C00008211B2603F8401CADF80C200DF1310147
:1027D00006220EF8406C04F00CF9BDF80C209DF8B0
:1027E0003010931D11F0FE019BB23BD114A803449D
:1027F00003F8401CD31DA2789BB2ADF80C304AB947
:10280000E278002A3FF407AED81C1F2819463FF68D
:1028100009AEECE504331F2B3FF604AE3846FFF754
:102820006BFB00287FF452AEBDF80C30BDF83010C1
:10283000E2785F1C14AE16FA87F71E44981C4FF01E
:10284000030E06F840EC80B204AE4FF0190E07F804
:1028500040EC0433371831549BB2090AADF80C3000
:102860007970CEE714A90B44012103F8401CC1E79D
:10287000BDF830209342FFF477AF092078E7627803
:102880009342FFF471AFADF83020082070E700BF2D
:1028900075DF704776DF70477ADF70477BDF704700
:1028A000184B18884FF6FF7398422AD010B5164A75
:1028B000164C1378217B0133DBB2994282B013703E
:1028C0000CD2237C002111708BB9636923B102A85B
:1028D000002200F8042D984702B010BD0C49FFF704
:1028E000D7FF0028F8D0A369002BF4D1F4E73B21EF
:1028F000FFF7D0FF0028E8D0A369002BE5D0984768
:10290000E3E77047A09100206091002064910020CF
:10291000A491002070B51E4B1E4A5B881188994215
:1029200082B00FD852889A420CD31B4B5B6923B1FB
:1029300002A8012200F8042D9847184C00232370A8
:1029400002B070BD154C227862B1134B5B69002B4D
:10295000F4D002A8002200F8042D98470023237029
:1029600002B070BD0C4D0E4869680678AB680D4822
:10297000002E18BF194603F023FC0028DED0AB69F7
:10298000002BDBD098470023237002B070BD00BF3E
:1029900058910020A49100206491002054910020BF
:1029A0006091002080910020F8B505460FCD144CB1
:1029B000144F0FC4064695E80700002384E807007B
:1029C0003B70B6B13068104B716803C3A3F10800C7
:1029D000FFF762FF90B90D4D0D4C0E4A0E480023D3
:1029E0004FF6FF762E8023701946BDE8F84003F0BD
:1029F000D5BB0548FFF752FF0028ECD0F8BD00BF5B
:102A00006491002054910020A4910020A091002006
:102A100060910020A1280200E87D020070B50388C3
:102A2000112B27D012D9122B07D0502B47D1244C71
:102A3000C288E3899A4230D070BD083003C8214B68
:102A400083E80300BDE87040FFF764BF102B35D169
:102A50001D491B4C1B4B1D4DE48900F11002808861
:102A6000088092E80300002283E803002A70002C0B
:102A7000E8D070BD1449154B15484FF6FF7400227D
:102A80000C801A7003F0F2FB0028D5D00C4B9B6928
:102A9000002BD1D0BDE870401847038A022BCBD160
:102AA000123000F019F80028CCD1094803F0DEFB01
:102AB0000028C1D0A369002BECD1BDE770BD70BD6B
:102AC0006491002058910020A09100206091002086
:102AD00080910020A2DF7047007800F0010070476D
:102AE0000078C0F340007047F0B58B7891B0002BB0
:102AF0000C460988ADF80C1008BF012305461646A0
:102B00006846032200218DF80E30FCF71BFC9DF86F
:102B10000020637C02F0F0026FF30712013B8DF896
:102B20000020042B10D8DFE813F020012A01050053
:102B3000350116019DF80030012262F303030322E0
:102B400062F307138DF800309DF80120A37C02F09A
:102B5000F0026FF30712013B8DF80120042B10D80F
:102B6000DFE813F02D0137010500EE0023019DF889
:102B70000130012262F30303032262F307138DF88D
:102B800001309DF80230E77B227D207C217B67F3BA
:102B9000C303002A60F3041314BF0222012261F36D
:102BA000000362F3420309A81C2200218DF80230C1
:102BB000FCF7C8FB637B13F0300F40F08F80627B23
:102BC000A37B8DF824200021142204A88DF8253041
:102BD000FCF7B8FBA368A288CDF814D003A9049130
:102BE000ADF81C201BB1E2880893ADF81820A3694A
:102BF000002B44D001AF032200213846FCF7A2FB92
:102C0000A2699DF804101388ADF82C305388ADF8F4
:102C10002E3050680D97137B0A9001F0F0016FF38E
:102C20000711013B8DF80410042B3DD8DFE813F0A9
:102C30001B0125013200F20011019DF80530012130
:102C400061F30303032161F307138DF80530917AD3
:102C50009DF8063061F3C3038DF80630D17A61F335
:102C600004138DF80630117A927B002A61F3000379
:102C700014BF0222012262F342038DF80630E36999
:102C800003B10C93334604AA09A92846FFF722FF93
:102C900011B0F0BD9DF80430012161F3030303215D
:102CA00061F307138DF804309DF80510537B01F094
:102CB000F0016FF30711013B8DF80510042BC6D806
:102CC00001A151F823F000BF3F2E0200FF2D0200AA
:102CD0003B2C0200E92D02002B2E0200032202A849
:102CE0000021FCF72FFB9DF80920E37C02F0F002A5
:102CF0006FF30712013B8DF80920042B0ED8DFE893
:102D000003F0D1DB03E6C7009DF80930012262F32E
:102D10000303032262F307138DF809309DF808308E
:102D20009DF80A1002AA0E92012262F3030362F3D5
:102D3000071362F342018DF808308DF80A103EE760
:102D40009DF80130022262F30303012262F30713AC
:102D50008DF8013015E79DF80030022262F303037D
:102D600062F307138DF80030EEE69DF80030012283
:102D700062F3030362F307138DF80030E4E69DF875
:102D80000030012262F30303022262F307138DF87D
:102D90000030D9E69DF80030022262F303030122DD
:102DA00062F307138DF80030CEE69DF80130022261
:102DB00062F3030362F307138DF80130E1E69DF837
:102DC0000130012262F3030362F307138DF801302F
:102DD000D7E69DF80130012262F30303022262F379
:102DE00007138DF80130CCE69DF80530022161F320
:102DF0000303012161F307138DF8053027E79DF8E0
:102E00000530012161F30303022161F307138DF8FB
:102E100005301CE79DF80430022161F30303012112
:102E200061F307138DF804303EE79DF80530022169
:102E300061F3030361F307138DF8053007E79DF88D
:102E40000530012161F3030361F307138DF80530A9
:102E5000FDE69DF80430022161F3030361F30713DB
:102E60008DF8043020E79DF80430012161F303035D
:102E700061F307138DF8043016E79DF80430012143
:102E800061F30303022161F307138DF804300BE7AC
:102E90009DF80930022262F3030362F307138DF8F1
:102EA00009303BE79DF80930012262F3030362F326
:102EB00007138DF8093031E79DF80930012262F3DC
:102EC0000303022262F307138DF8093026E79DF809
:102ED0000930022262F30303012262F307138DF823
:102EE00009301BE794DF704796DF704797DF704724
:102EF000F0B5334B1D6890F85A329BB065B303EBC5
:102F0000830303EB83039B00C6182E4CB678A77887
:102F1000B74223D0012D1FD9A779DFF8A8E0B74227
:102F200047D0022D18D0A77ADFF898E0B7423AD000
:102F3000032D11D0A77BDFF88CE0B7422DD0042DF4
:102F40000AD0A77CDFF87CE0B74220D0052D03D063
:102F5000A47D1C4DB44214D01BB0F0BDB4F800E009
:102F6000C75ABE45D6D1184B1C68002CF4D001239B
:102F7000ADF8022001918DF800306846A0471BB0E3
:102F8000F0BDAC8AC35A9C42EDD01BB0F0BDBEF878
:102F900010E0C75ABE45D9D1E5E7BEF80CE0C75AE4
:102FA000BE45CCD1DFE7BEF808E0C75ABE45BFD169
:102FB000D9E7BEF804E0C75ABE45B2D1D3E700BF97
:102FC000589400203C940020AC9100202DE9F0435F
:102FD00090F85A4290F8593204EB840E0EEB8E0EA4
:102FE00000EB8E0E4FF0640C0CFB04FC9EF804709A
:102FF00003EBC3040CEB44045E1C0444BE4283B0E8
:1030000004F10A053CD0BB4238BF07F1FF382DD28E
:103010005E1C06EBC6040CEB4404984500EB040967
:103020002B8912D0B9F810500133AB4217D0013DB3
:10303000ADF80650ADF8043000230B70104601A91E
:10304000FFF754FF03B0BDE8F083BEF80840A34289
:1030500012D00133ADF80430ADF80640ECE709F1C9
:103060000A05F3B29F4280F85932D1D801230020DB
:103070000B7003B0BDE8F083002508F10106F0E70E
:103080002B89BEF808008342F0D00133ADF804303C
:10309000ADF80600D0E700BF68B170B40749084A30
:1030A000084E094D1060012400230C7033602B6022
:1030B000184670BC70470E23184670475494002081
:1030C000AC910020589400203894002020B12F4B60
:1030D0001B781BB9082070470E20704770B42C4C29
:1030E0002C4B2268002A46D081789D788D4220D0D2
:1030F000012A49D99D79274E8D4237D0022A43D0E3
:103100009D7A244E8D422CD0032A3DD09D7B214EAA
:103110008D4221D0042A37D09D7C1E4E8D4216D080
:10312000052A31D09D7D1B4E8D420BD0042070BCF2
:1031300070471E880588AE42DAD11749096809B37D
:103140000020F4E7B58A01888D42EFD1F5E7368A91
:103150000588AE42E4D1F0E7B6890588AE42D9D100
:10316000EBE736890588AE42CED1E6E7B68805881A
:10317000AE42C3D1E1E70121006843F8220021609B
:103180000020D4E7052AD1D8511CF5E7549400203B
:10319000589400203C940020AC91002070B138B5C8
:1031A000144B1B780BB9082038BD134B1B68002B40
:1031B000F9D090F85B421CB1112038BD0E20704749
:1031C0000E4A0F4D03461068A3F85E12186083F88C
:1031D0005C42084683F85A4283F859421A46012154
:1031E0002C60FFF77FFE0028E7D1012283F85B22E5
:1031F00038BD00BF54940020589400203C94002017
:103200003894002090B389B3884B1B7873B32DE9B1
:10321000F04F0B88113BA1B005460C46222B00F263
:10322000D780DFE813F03202D500D500D500D500F5
:10323000D500D500D500D500D500D500D500D500E6
:10324000D500D500D500D500D500D500D500D500D6
:10325000D500D500D500D500D500D500D500D500C6
:10326000D500D500D701D5000B01D8007047002646
:1032700085F85962A2880DF117012846FFF7A6FECE
:10328000002840F077849DF81730002B00F0A080D4
:10329000DFF8A481B4F804E0D8F8007095F85A1269
:1032A000002F00F0B48501EB810303EB83039B0047
:1032B000EA185F4E9278B078904200F05685012F60
:1032C00040F2C785B079DFF868C1904200F05485BC
:1032D000022F1DD0B07ADFF858C1904200F03E8531
:1032E000032F15D0B07BDFF848C1904200F02F8546
:1032F000042F0DD0B07CDFF838C1904200F020855B
:10330000052F05D0B07DDFF828C1904200F0A682DD
:10331000744695F85C320133DBB2BB4285F85C320F
:1033200080F0AB8195F85A22DFF804810132D2B2E5
:10333000642312FB03F105EB010E56F8220085F819
:103340005A224FF0000985F8599203FB0252685047
:1033500001218EF804902046FFF7C4FD002837D0E5
:1033600095F85A2285F85B9212FB03F3EA1898F855
:1033700002109278914200F06585012F24D096F8D2
:1033800006E02B49964500F07D85022F1CD096F86B
:103390000AE02749964500F06E85032F14D096F871
:1033A0000EE02349964500F05F85042F0CD096F877
:1033B00012E01F49964500F05085052F04D0B67DD8
:1033C0001B49964200F02A851A4B03225C801A7032
:1033D00021B0BDE8F08F8A88B0F85E329A42F7D10A
:1033E000C88895F8597295F85A12002840F06A81F9
:1033F0006389002B00F06681642303FB01F307EB74
:10340000C70603EB46062E442246D389A3F5245370
:10341000082B00F2ED81DFE813F0E901E501E2019C
:10342000EB01EB01EB01EB01EB01420154940020B5
:103430003C940020B0910020589400208A88B0F875
:103440005E329A42C4D1CB88002B7FF410AF90F843
:103450005AE2897A0EEB8E0606EB860600EB8606AC
:10346000337919440529D5BFC9B205220A46114648
:10347000934231717DD22246642000FB0EF003EBB3
:10348000C30152F80C8F00EB41012944D2F804C06B
:10349000C1F80EC0C1F80A8012894A8200228A82CD
:1034A000CA820A834A8331795F1C8F4280F09D82F1
:1034B00007EBC701274600EB410157F8169F294447
:1034C000D7F80480C1F80E80C1F80A903F894F8276
:1034D0008A82CA820A834A8331799F1C8F4280F094
:1034E000848207EBC701274600EB410157F8209F74
:1034F0002944D7F80480C1F80E80C1F80A903F89AA
:103500004F828A82CA820A834A833179DF1C8F42C2
:1035100080F06B8207EBC701274600EB410157F8AB
:103520002A9F2944D7F80480C1F80E80C1F80A9078
:103530003F894F828A82CA820A834A8331791F1D5A
:103540008F4280F0528207EBC701274600EB410112
:1035500057F8348F2944D7F804C0C1F80EC0C1F819
:103560000A803F894F828A82CA820A834A833179DC
:1035700005336422013B02FB0EFE03EBC3030EEB9B
:1035800043032B4432895B8A9342BFF470AE052912
:103590003FF46DAE85F85912A088002940F0718380
:1035A000F3883289ADF81A2006A9ADF81830FFF774
:1035B0009BFC00283FF40CAF002385F85B320146EA
:1035C000A2882846FFF794FCBF4BA2885A800322AA
:1035D0001A70FDE6B1F804E0B0F85E3273457FF48E
:1035E000F7AECA8890F85A12002A00F07781DFF807
:1035F000E482D8F80070002F00F0CD8301EB810346
:1036000003EB83039B00C218B04E9278B0789042CF
:1036100000F02782012F40F26883B079DFF8ACC256
:10362000904200F02582022F1DD0B07ADFF89CC2B4
:10363000904200F02D82032F15D0B07BDFF88CC2B2
:10364000904200F01D82042F0DD0B07CDFF87CC2C8
:10365000904200F0FF81052F05D0B07DDFF86CC2ED
:10366000904200F0C780744695F85C320133DBB2BB
:10367000BB4285F85C32C0F0BA81934B0321002233
:103680005C80197085F85B22A2E68B88B0F85E2218
:103690009A427FF49DAE002380F85B3298E6B2F840
:1036A0000CE0B38AA6F81AE02BB1F38A1BB1338B76
:1036B0000BB1738B33B963890130984202F1060272
:1036C000FFF4A3AE642202FB01527B1C1279002698
:1036D00093428DF8176040F0768101238DF8173002
:1036E000DFF8F081B4F804E0D8F80070002F00F0A3
:1036F0008E83642202FB01F2AB18744E9B78B07883
:10370000984200F0B782012F40F2EF82B079DFF8E3
:10371000BCC1984200F08982022FA4D0B07ADFF8B1
:10372000ACC1984200F09882032F9CD0B07BDFF8A8
:103730009CC1984200F08082042F94D0B07CDFF8C6
:103740008CC1984200F08F82052F8CD0B07DDFF8BD
:103750007CC1984287D1BCF81400AB5A984282D100
:103760005B4B1B680393002B3FF47DAFDFF868A130
:10377000DAF80090B9F1050F3FF675AF524A0192A1
:103780006C2303FB09F302EB030B642202FB0151E0
:103790000BF10400ABF802E0029303F02AF9039B5B
:1037A000CBF8683009F101010198029BCAF80010BA
:1037B0000022B942C2544FD181469346D9F86830AD
:1037C00048469847D8F800700BF1010BBB4509F14A
:1037D0006C09F3D30023A488CAF8003044E7938926
:1037E000B38261E793893383B38A5DE79389F38278
:1037F000B38A59E7BCF81420EB5A9A427FF433AFEE
:10380000334B1B680393002B3FF42DAFDFF8C8A0A8
:10381000DAF80090B9F1050F3FF625AF2A4B019376
:103820004FF06C0B0BFB09FB5B44642202FB015164
:10383000181DA3F802E0029303F0DBF8029B039843
:10384000986609F10102019BCAF800200221BA42E0
:1038500003F80B1000F07E81A48805E7BCF8142063
:10386000EB5A9A427FF454AD194B1B680393002B1B
:103870003FF44EADDFF860A0DAF80090B9F1050F23
:103880003FF646AD104B01936C2202FB09F203EBAD
:10389000020B0292642202FB01510BF10400ABF80F
:1038A00002E003F0A6F8039BCBF8683009F10101B0
:1038B000019B0298CAF800100022B9421A5400F085
:1038C0009182A48825E500BFB09100203C9400209F
:1038D000AC910020589400203894002001EB810323
:1038E00003EB83039B00E268C25003442269C3F8E0
:1038F000062090F85922A088002A40F09D80DA889E
:103900001B89ADF81A3006A9ADF81820FFF7ECFABC
:1039100000283FF45DADCC4B95F85A221F68002378
:1039200085F85B32A188B7B302EB820202EB820218
:103930009300EA18C54E927896F802E0964500F09A
:10394000CC81012F27D996F806E0DFF800C3964511
:1039500000F0BB81022F1ED096F80AE0DFF8ECC21F
:10396000964500F0AA81032F15D096F80EE0DFF8F7
:10397000DCC2964500F09981042F0CD096F812E035
:10398000DFF8C8C2964500F08881052F03D0B67DC8
:10399000AE4F964205D00B46AD4A032153801170BD
:1039A00016E5BA8AEB5A9A42F5D1AA4B1A68002A50
:1039B000F1D0012307908DF81830ADF81A1006A841
:1039C0009047A388E8E785F85932A2880DF11701DE
:1039D0002846FFF7FBFA002861D19DF81730002B2D
:1039E0003FF4F6AC95F85A127AE63B46C1E595F8F5
:1039F0005A320133DBB203EB830101EB8101890011
:103A00006F1856F8230085F85A320026642285F88C
:103A1000596202FB0352685001213E712046FFF7B4
:103A200061FA00283FF4D4AC014685F85B62284671
:103A30002246FFF75DFAC7E4013AD2B2642602EBF0
:103A4000C20206FB01F101EB42022A44528A013212
:103A500092B255E7BCF810C0E85A84457FF4FBAD3C
:103A6000CEE635F803C0308884457FF4D3ADC7E691
:103A7000BCF8040035F803C084457FF4D4ADBFE63C
:103A8000BCF80C0035F803C084457FF4DCADB7E624
:103A9000BCF808C0E85A84457FF4CDADB0E66A4B67
:103AA00085F85B621F68A18895F85A22002F3FF4C1
:103AB00072AF02EB820202EB82029300EA18634EBD
:103AC000927896F802E0964500F03281012F7FF659
:103AD00062AF96F806E0DFF874C1964500F02081E9
:103AE000022F3FF458AF96F80AE0DFF860C1964520
:103AF00000F00E81032F3FF44EAF96F80EE0DFF892
:103B00004CC1964500F0FC80042F3FF444AF96F87A
:103B100012E0DFF838C1964500F0EA80052F3FF447
:103B20003AAFB67D494F96427FF435AFBA8AEB5A29
:103B30009A427FF430AF474B1A68002A3FF42BAF0C
:103B4000012307908DF81830ADF81A1006A8904799
:103B5000A38821E799464FF0000BD9F86830484612
:103B60009847D8F800700BF1010BBB4509F16C09BF
:103B7000F3D32FE6344B85F85B621F6895F85A2221
:103B8000A388002F3FF408AF02EB820202EB82020F
:103B90009200A9182D4E897896F802E08E4500F023
:103BA0001981012F7FF6F8AE96F806E0DFF89CC089
:103BB0008E4500F00781022F3FF4EEAE96F80AE042
:103BC000DFF888C08E4500F0F580032F3FF4E4AEA7
:103BD00096F80EE0DFF874C08E4500F0E380042F05
:103BE0003FF4DAAE96F812E0DFF860C08E4500F0E0
:103BF000CA80052F3FF4D0AEB67D144F8E427FF4BD
:103C0000CBAEB98AAA5A91427FF4C6AE114A126865
:103C1000002A3FF4C1AE0121ADF81A3007908DF8AB
:103C2000181006A89047A388B6E6BCF804C0A85AA6
:103C300084457FF471AD93E5BCF80CC0A85A844567
:103C40007FF47AAD8CE500BF589400203C940020AE
:103C5000B0910020AC910020BCF808C0A85A84455F
:103C60007FF462AD7CE5BCF810C0A85A84457FF4AF
:103C70006BAD75E5B6F800C0A85A84457FF443AD36
:103C80006EE54B1EDBB203EBC3030EEB430E05EBFD
:103C90000E035B8A01339BB283E4BCF810E035F875
:103CA00003C0F4457FF471AE7FE6BCF80CE035F854
:103CB00003C0F4457FF460AE77E6BCF808E035F861
:103CC00003C0F4457FF44FAE6FE6BCF804C035F88E
:103CD00003E0F4457FF43EAE67E635F803C0B6F87E
:103CE00000E0F4457FF42DAE5FE674460127BBE4A7
:103CF000BCF810C035F803E0F4457FF40FAF1AE7C5
:103D0000BCF80CC035F803E0F4457FF4FDAE12E7D3
:103D1000BCF808C035F803E0F4457FF4EBAE0AE7E1
:103D2000BCF804C035F803E0F4457FF4D9AE02E7EF
:103D3000B6F800C035F803E0F4457FF4C7AEFAE604
:103D4000BCF810C0E85A84457FF4DAAA8CE5BCF8C8
:103D50000CC0E85A84457FF4CBAA85E5BCF808C0BE
:103D6000E85A84457FF4BCAA7EE5B6F800C0E85A5C
:103D700084457FF4A4AA77E5BCF804C0E85A8445DA
:103D80007FF4A6AA70E5BCF810E035F802C0F4454F
:103D90007FF42FAF3AE790F85C2201321C4680F89E
:103DA0005C226AE4BCF80CC035F802E0F4457FF40C
:103DB00016AF2BE7BCF808C035F802E0F4457FF4F5
:103DC00004AF23E7BCF804E035F802C0F4457FF403
:103DD000F2AE1BE7B6F800C035F802E0F4457FF418
:103DE000E0AE13E7DDF804909346D9F86830484612
:103DF0009847D8F800700BF1010BBB4509F16C092D
:103E0000F3D30023A488CAF80030FFF782BA95F8EC
:103E10005C320133744685F85C322EE48A8AEB5AB0
:103E20009A427FF4D1AA1B4B1B68002B3FF4CCAA0B
:103E300001220790ADF81A408DF8182006A898477F
:103E4000FFF7C2BAB8F800E0E95A8E457FF495AAA8
:103E5000E9E774460127FFF75CBAB1F810E0E95AC8
:103E60008E457FF4AAAADEE7B1F80CE0E95A8E4548
:103E70007FF49BAAD7E7B1F808E0E95A8E457FF4B2
:103E80008CAAD0E7B1F804E0E95A8E457FF47DAA08
:103E9000C9E700BFAC9100208FDF70479EDF7047FD
:103EA000ADDF7047C0B170B40346F7220020FB2499
:103EB00017261B2599611A805A80DA80DA811C71D5
:103EC0001C731C751E811E829872D8729874D874E7
:103ED0005D735D7570BC70470E20704740B1A1F1F5
:103EE0001703E02B01D9072070470180002070479D
:103EF0000E20704740B1A1F11703E02B01D9072034
:103F000070474180002070470E20704738B14FF64F
:103F1000FF73994205D0012909D9072070470E2067
:103F20007047FB2A28BFFB2202710020704710B5A2
:103F3000034603EBC10382B000241A73084693B210
:103F400069462246ADF80030ADF802300194FFF723
:103F5000A3FF02B010BD00BFF0B58D88012D83B066
:103F600001D903B0F0BD0B88212B044675D01BD9B5
:103F70003A2B00F0B280552B00F08980222B25D0FF
:103F8000EE00A3199B7A002BEBD0A3192846D98801
:103F9000FFF784FF00285CD01128E2D002466C496C
:103FA000012001F061FBDCE7102B25D0112BE7D1BC
:103FB00000EBC5030022F7251724FB201B21DD8021
:103FC0001C81187359739A72DA72CAE7EE00871966
:103FD0000A7A7A738369002B39D000214DF67A2E44
:103FE000ADF80410ADF8025069468DF80420ADF824
:103FF00000E09847BB7AC6E7EE00871903793B7368
:10400000CB7B012B00F08680022B00F08C80F9889E
:104010003B898B42C0F08A803B7B7A7B9A4216D2E6
:104020004FF0000E9BB2724669462846ADF800304C
:10403000ADF80230ADF804E0ADF806E0FFF72CFF74
:1040400028B103462A464349012001F06BFBBB7AA5
:1040500099E701229872DA7283E7EE0087190A7AEB
:104060003B7B0020934228BF1346019002466946DD
:104070002846ADF80030ADF80230FFF70DFF0028FC
:10408000E5D002463449012001F0EEFADFE7EE0008
:10409000CB888719172BF98838BF17238B4228BF85
:1040A0000B4600223B81BA722846FFF7F9FE002832
:1040B00033D1FB7A002BCAD1A369002BC7D040F6BD
:1040C00077213A89ADF80010ADF80250ADF8042020
:1040D000694620469847BB7A55E700EBC5064A89F2
:1040E000F388934228BF1346172B38BF1723338119
:1040F00082695AB1F17A49B140F67721ADF80010E2
:10410000ADF80250ADF80430694690470023F372D1
:10411000B37226E70188F9807AE702460F49012049
:1041200001F0A2FAC5E74188F98071E72846FFF758
:10413000B5FE10B90123FB726EE7112802D10123ED
:10414000BB7269E702460249012001F08DFA63E77C
:10415000EC7D0200487E0200147F0200BC7E02005B
:1041600010B51A4B1A6882B0A2B100221A601B68FF
:1041700000934FF080430122154C0099C3F80823A7
:10418000A368627033B10CCB0020A2609847A3688B
:10419000002BF8D10F4B1A68AAB100221A601B68D5
:1041A00001934FF080430222094C0199C3F8082380
:1041B00023690122A27033B10CCB01202261984700
:1041C0002369002BF8D102B010BD00BF00010040F0
:1041D0005C9400200401004058B910B5054CA36858
:1041E00033B10CCB0020A2609847A368002BF8D114
:1041F00010BD70475C94002010B582B002A8002367
:10420000144C00F8013D02F0A1F8237893B9124A4A
:104210006360E3601068A36010F00100236114D0B4
:1042200002F000FB20B94FF080430122C3F81825AB
:1042300001232370E3689DF8070001330122E36046
:10424000A27002F0ABF802B010BD072100F006F832
:10425000E6E700BF5C94002000E100E0002810B415
:1042600018DB00F1604303F561434901C9B283F8EB
:104270000013C3B24009800000F1604000F56140C6
:1042800003F01F0201239340C0F8803103605DF802
:10429000044B7047C3B2044A03F00F04490122449F
:1042A000C9B21176E6E700BFFCEC00E02DE9F0436F
:1042B00087B00026C94B01961A68012A00F00482D3
:1042C000C74B1A68012A00F0F181C64B1A68012A0F
:1042D00000F0DE81C44B1A68012A00F0CB81C34B89
:1042E0001A68012A00F0B881C14B1A68012A00F04F
:1042F000A581C04B1A68012A00F09281BE4B1A6852
:10430000012A00F07F81BD4B1A68012A00F0598113
:1043100016F0FF0F1AD0BA4F01250024A30003F1B5
:1043200080432E4203F5C0434FEA45050BD0D3F836
:10433000100557F82420D3F81015C0F30420C1F35A
:10434000014102B190470134082CE7D1002E02DB75
:1043500007B0BDE8F083AA4C00224FF0FF33274698
:104360000292039301260DF1080894F950104D1C98
:104370002DD0C9B221F0C00006AB4FEAD00E03EB3E
:104380000E0201F0070312F80CCC06FA03F31CEA44
:10439000030F1CD03D18890995F9305057F8259026
:1043A000B9F1000F00F0E880032900F0E8804FEA3F
:1043B000800E0EF1A04E12F8145CDEF800271D40AE
:1043C000C2F3014240F0B580032A00F0A28100252B
:1043D00094F95110481C2FD0C9B221F0C00006AB8F
:1043E0004FEAD00E03EB0E0201F0070312F80CCCDB
:1043F00006FA03F31CEA030F1ED007EB000C890931
:104400009CF930C057F82C90B9F1000F00F0C6802D
:10441000032900F0C6804FEA800E0EF1A04E12F87C
:1044200014CCDEF800271CEA030FC2F3014240F06F
:104430008D80032A00F0928194F952104A1C2ED0EC
:10444000C9B221F0C00006AB4FEAD00E03EB0E025A
:1044500001F0070312F80CCC06FA03F31CEA030F71
:104460001DD007EB000C89099CF930C057F82C903F
:10447000B9F1000F00F08980032900F088804FEA2D
:10448000800E0EF1A04E12F814CCDEF800271CEAC4
:10449000030FC2F3014265D1032A00F04C8194F965
:1044A00053104B1C2CD0C9B221F0C00006AB4FEA10
:1044B000D00E03EB0E0201F0070312F80CCC06FA43
:1044C00003F31CEA030F1BD007EB000C89099CF9CE
:1044D00030C057F82C90B9F1000F69D0032969D08A
:1044E0004FEA800E0EF1A04E12F814CCDEF8002731
:1044F0001CEA030FC2F3014211D1032A00F0F0803D
:10450000002D3FF425AF4FF0A043019AD3F81035AA
:1045100093423FF41DAF029A0193039225E7022ACA
:10452000EED1032900F02D81B9F1000FE8D0C84782
:10453000E6E7022A7FF44BAF032900F02B81002528
:10454000B9F1000F3FF444AFC84741E7022A7FF4B6
:1045500073AF032900F01881B9F1000F3FF46CAF7D
:10456000C84769E7022A9AD1032900F01081B9F1FE
:10457000000F94D0C84792E703297FF428AF18F8BA
:104580000E501D4308F80E5011E7032987D118F883
:104590000EC04CEA030C08F80EC070E703297FF444
:1045A0004BAF18F80EC04CEA030C08F80EC032E707
:1045B0000329A5D118F80EC04CEA030C08F80EC068
:1045C0008EE700221A601B6805934FF0A043059AFE
:1045D000D3F81035019346F0004699E6006100409B
:1045E00004610040086100400C610040106100401F
:1045F00014610040186100401C6100407C61004073
:1046000070940020654AD2F8042317067FF57BAE2C
:1046100000221A601B680493049B46F0800672E631
:104620005E4AD2F8042352067FF568AE00221A6073
:104630001B680493049B46F040065FE6574AD2F895
:10464000042391067FF555AE00221A601B6804937F
:10465000049B46F020064CE6504AD2F80423D006CC
:104660007FF542AE00221A601B680493049B46F05B
:10467000100639E6494AD2F8042314077FF52FAE15
:1046800000221A601B680493049B46F0080626E685
:10469000424AD2F8042355077FF51CAE00221A6067
:1046A0001B680493049B46F0040613E63B4AD2F8C9
:1046B000042397077FF509AE00221A601B68049354
:1046C000049B46F0020600E63449D1F8041311F0C9
:1046D00001011CD01E601B680493049B1646EFE585
:1046E00003297FF421AF4FF40033DEF8002722F4D2
:1046F0004032CEF80027DEF8002701351343EDB233
:10470000CEF80037B9F1000F7FF411AFFBE60E468B
:10471000D6E503297FF414AF4FF40033DEF8002709
:1047200022F44032CEF80027DEF800271343CEF8FB
:104730000037012504E703297FF419AF4FF4003354
:10474000DEF8002722F44032CEF80027DEF80027FA
:1047500001351343EDB2CEF8003708E703297FF4A3
:10476000FBAE4FF40033DEF8002722F44032CEF8DF
:104770000027DEF8002701351343EDB2CEF80037ED
:10478000EAE64FF44033B0E74FF44033EBE74FF441
:104790004033D5E74FF44033C0E700BF006000402E
:1047A0005AB1F8B54379114F114D03EB430445F865
:1047B00023203C5D1CB10820F8BD0720704705464A
:1047C0000E4690F904008978FFF748FD2B6832887F
:1047D000C3F808256B79F178357903EB4303FA18B0
:1047E0000126FE54557091702046F8BDCC940020EF
:1047F000C89400200368044A01211960437903EB3F
:1048000043030221D1547047CC940020036804492B
:1048100001225A60437903EB4303CA54704700BF37
:10482000CC94002002680123C2F848330268C2F821
:104830000833704710B5474BD3F80423D10384B035
:1048400003D5454A1168002945D1424BD3F80423CA
:10485000920303D5414A116800294BD13D4BD3F84F
:104860000423540303D53E4A1168002952D1394B21
:10487000D3F80423100303D53A4A1168002959D10B
:10488000344BD3F80423D10702D5D3F80021B2B9B1
:10489000304BD3F80423920702D5D3F804210AB988
:1048A00004B010BD0022C3F804212F4AD3F804310C
:1048B000019305201368019A984704B010BD0022A7
:1048C000C3F80021284AD3F800310293042013686A
:1048D000029A9847DCE74FF480310020C3F8481370
:1048E000214CC3F808131060136803932368039ADC
:1048F0009847AAE74FF400310024C3F848131A4838
:10490000C3F808131460136803930368039A012023
:104910009847A3E74FF480210024C3F848131248B6
:10492000C3F808131460136803930368039A022002
:1049300098479CE74FF400210024C3F848130A4825
:10494000C3F808131460136803930368039A0320E1
:10495000984795E7004002404041024044410240F0
:10496000484102404C410240C8940020F0B504790F
:10497000724E6401331987B0DD7E15B1082007B08F
:10498000F0BD4D7F1D770D686B1C0BD04FF0A0471D
:104990000123AB40C7F808350B6803F5E073032526
:1049A00047F823504B685F1C06D003F5E0734FF0C7
:1049B000A045002745F82370037906EB43131B7FBE
:1049C000002B4DD003688D69C3F824554F7D0B7DB6
:1049D00005683B43C5F86C3503680F684D68C3F83C
:1049E0000C75C3F814550B7D012B00F09B80331917
:1049F00005465A600B6951483351EAB12B79097F5A
:104A00002A6800EB4310037F002B65D1C2F81C31EC
:104A1000D2F81C712A680097009FC2F84431D2F87E
:104A200044212B6846480192019AC3F80403286880
:104A300040F30730FFF712FC2B792A6806EB43138B
:104A40001B7F002B44D00823C2F8003534440020DB
:104A50000123E376E0752076A075A07607B0F0BD5F
:104A600005688F69C5F8247591F815E00D7D076814
:104A70004EEA0505C7F86C550568D1F800E04F68A7
:104A8000C5F81475C5F80CE50D7D012DAFD18D6805
:104A90006F1C05D005F5E0754FF0A04747F82530AD
:104AA000CB685D1C0DD001254FF0A04705FA03F33C
:104AB000C7F80835CB6803F5E073032547F82350A2
:104AC000CB6805688F68C5F80835C5F810758EE79E
