:020000021000EC
:10F0000000000120056602002D6602002F66020046
:10F01000316602003366020035660200000000001F
:10F020000000000000000000000000003766020041
:10F0300039660200000000003B6602003D660200E7
:10F04000BD4202003F660200214F02003F660200FF
:10F050003F6602003F660200094402003F6602006C
:10F060003F6602003F6602003F6602003F66020004
:10F070003F6602003F6602003F6602003F660200F4
:10F080003F660200655B02003F6602003F660200C9
:10F09000055C02003F660200116B02003F66020041
:10F0A0003F6602003F6602003F6602003F660200C4
:10F0B0003F6602003F660200000000000000000002
:10F0C0003F6602003F6602003F6602003F660200A4
:10F0D000914902003F6602003F6602000000000006
:10F0E0000000000000000000000000000000000020
:10F0F0000000000000000000000000000000000010
:10F1000000000000000000000000000000000000FF
:10F1100000000000000000000000000000000000EF
:10F1200000000000000000000000000000000000DF
:10F1300000000000000000000000000000000000CF
:10F1400000000000000000000000000000000000BF
:10F1500000000000000000000000000000000000AF
:10F16000000000000000000000000000000000009F
:10F17000000000000000000000000000000000008F
:10F18000000000000000000000000000000000007F
:10F19000000000000000000000000000000000006F
:10F1A000000000000000000000000000000000005F
:10F1B000000000000000000000000000000000004F
:10F1C000000000000000000000000000000000003F
:10F1D000000000000000000000000000000000002F
:10F1E000000000000000000000000000000000001F
:10F1F000000000000000000000000000000000000F
:10F2000010B5054C237833B9044B13B10448AFF360
:10F2100000800123237010BDA87C002000000000A6
:10F22000888D0200084B10B51BB108490848AFF3A0
:10F2300000800848036803B910BD074B002BFBD0C2
:10F24000BDE81040184700BF00000000AC7C002063
:10F25000888D0200A47C002000000000154B002BCC
:10F2600008BF134B9D46A3F5803A00218B460F46FD
:10F270001348144A121A00F065F80F4B002B00D007
:10F2800098470E4B002B00D0984700200021040027
:10F290000D000D48002802D00C48AFF3008000F0AC
:10F2A0002BF82000290000F073F900F011F800BFDE
:10F2B0000000080000000120000000000000000025
:10F2C000A87C0020889B00200000000000000000B7
:10F2D00008B5074B044613B10021AFF30080054B7E
:10F2E0001868836A03B19847204600F033F800BFDE
:10F2F00000000000A878020070B50E4B0E4CE41A16
:10F30000A41000251E46A54204D056F82530984783
:10F310000135F8E708F0BCFA084C094BE41AA410D0
:10F3200000251E46A54204D056F8253098470135E1
:10F33000F8E770BD9C7C00209C7C0020A07C002015
:10F340009C7C002002440346934202D003F8011B38
:10F35000FAE77047FEE700BF70B582B002AB03E981
:10F36000030000F0ABFA00F0AFFA094D094B064676
:10F3700002462946012413201C7006F023FA324667
:10F380002946204602B0BDE8704000F083BB00BFB4
:10F39000D8790200C57C0020013808B505280AD8B4
:10F3A000DFE800F011030A0909030949094B0120AC
:10F3B000002208701A7008BD012002F01DFE044BE7
:10F3C00000221A7008BD0120BDE8084002F008BE06
:10F3D000C57C0020C47C002030B5434C237883B02A
:10F3E0006BB1424A1378642B0BD00133137000F0D9
:10F3F0005BFA3F4B187802F08DFB0023237003B0BB
:10F4000030BD3C4D3A4BD5ED007A1878B7EE047A12
:10F4100077EE877A0023B0EE670AC5ED007A1370A5
:10F4200002F030FCD5ED007AF5EEC07AF1EE10FA7C
:10F430003DD4314A9FED316A3149BDEEE77AF5EEB0
:10F44000C07AF8EEC76AF1EE10FACCBF77EEE67A32
:10F4500076EEE77A17EE103A67EE867A1320FDEE25
:10F46000E77ACDED007A06F071FAD5ED007AF5EE87
:10F47000C07AF1EE10FA2ED41F4AF5EEC07AF1EE02
:10F4800010FABDEEE77A1BDDB8EEC76ADFED1B6A46
:10F4900077EEC67A67EEA67AFDEEE77ACDED007AD2
:10F4A00017EE103A1649012000F0F4FAA5E7BFEE76
:10F4B000007AF4EEC77AF1EE10FABADD114AB9E734
:10F4C000F8EEC76A9FED0D6A76EEE77A67EE867A08
:10F4D000FDEEE77AE2E7BFEE007AF4EEC77AF1EEEE
:10F4E00010FAC9DD074AC8E7C57C0020C47C0020AB
:10F4F000147B0020187B0020448C02000000C842CE
:10F50000B0780200AC780200F0B591B007AE30469A
:10F5100024220021FFF716FF7C27A725DF2489205E
:10F520002621DB22144B8DF82C708DF82D508DF890
:10F530002E408DF82F008DF830108DF831200E936D
:10F540000BAD0FCD6C460FC401272B680B480C493F
:10F550000C4A8DF81C70089009910A92236096E875
:10F560000F0002F003FA084B08491870682011B028
:10F57000BDE8F04002F070BC0000F04059F301001B
:10F5800099F30100C4780200147B0020D9F3010034
:10F5900008B500F069F9094801F0CEFD02F038FD28
:10F5A000FFF7B2FF064B187802F0F8FB002002F0DC
:10F5B00017FD02F049FC002008BD00BFC87802001A
:10F5C000147B002073DF704774DF70478ADF704759
:10F5D0008BDF7047004870471879020010B5002192
:10F5E00082B00D4802F094FF044688B12B230B4AE9
:10F5F0000B49132006F044F922460A49132006F06D
:10F60000E1F80094084B054802222B2100F03EFA55
:10F61000204602B010BD00BFDC7802002079020055
:10F6200038790200487902005079020010B50121B2
:10F6300082B00D48FFF7C6FF044688B132230B4A5B
:10F640000B49132006F01CF922460A49132006F044
:10F65000B9F80094084B05480322322100F016FA4D
:10F66000204602B010BD00BFCC7802002079020015
:10F67000387902004879020050790200FFF7A4BFF0
:10F6800010B50D4882B0FFF7A1FF044688B13E23B4
:10F690000A4A0B49132006F0F3F8224609491320C1
:10F6A00006F090F80094084B044803223E2100F035
:10F6B000EDF9204602B010BD187902002079020051
:10F6C00038790200487902005079020010B582B002
:10F6D000FFF77EFF044688B145230A4A0A491320F2
:10F6E00006F0CEF822460949132006F06BF8009484
:10F6F000074B04480322452100F0C8F9204602B018
:10F7000010BD00BF2079020038790200487902005C
:10F710005079020030B4CD7BED0811D04B7C0A7CCF
:10F72000082B4FF0000304D10FE0547C127C082C0E
:10F730000BD001321344AB4201EB0302F5D3002599
:10F740002B468580036030BC7047042AF7D1123302
:10F750000B440325F5E700BF002380F8A03080F8B4
:10F76000A13080F8A230704784B0F0B5064683B06F
:10F7700090F8A20009AC84E80E00E0B90FCC96F82E
:10F78000A050276805EB850406EB84040FC42760AE
:10F7900096F8A130013505F007055B1BB3FA83F33A
:10F7A0005B09012086F8A05086F8A23003B0BDE8BE
:10F7B000F04004B0704710230B4A0C49132006F0A8
:10F7C0005FF808220A49132005F0FCFF0823009384
:10F7D0000548084B0222102100F058F9002003B020
:10F7E000BDE8F04004B07047587902003879020053
:10F7F000687902008079020090F8A13090F8A0208A
:10F800009A4204D003EB830300EB8300704790F827
:10F81000A220002AF6D11046704700BF90F8A2300F
:10F8200073B990F8A13090F8A0209A420BD0013320
:10F8300003F00703002280F8A13080F8A22070476F
:10F8400090F8A130F3E7704790F8A23033B990F800
:10F85000A03090F8A1001B1A18BF0123184670476A
:10F860004FF0FF3006F05ABE00B50C4B0C4A18683A
:10F870009B8883B069460090ADF804300948202386
:10F88000ADF8003005F03AF808B106F047FE05483B
:10F8900005F076F803B05DF804FB00BF9479020030
:10F8A00061F801009C790200024B034801221A60B2
:10F8B00005F04EB8084002409C790200014805F06E
:10F8C00053B800BF9C790200014BD3F80405704780
:10F8D0000040024075DF70477ADF70478CDF704769
:10F8E000704700BF00B9704710B54B2382B0044683
:10F8F000094A0A49132005F0C3FF2246084913208C
:10F9000005F060FF0094074B034801224B2100F0F3
:10F91000BDF802B010BD00BFA47902003879020022
:10F92000B8790200C479020030B5104C154683B096
:10F930002246012325806580FFF7D0FF044688B169
:10F9400024230B4A0B49132005F09AFF22460A494B
:10F95000132005F037FF0094084B054802222421AC
:10F9600000F094F8204603B030BD00BF1C7B00209F
:10F97000A479020038790200D0790200DC79020013
:10F9800010B50F4B0A4682B019461A805A80FFF70D
:10F99000A1FF044688B134230A4A0B49132005F01D
:10F9A0006FFF22460949132005F00CFF0094084B15
:10F9B00004480222342100F069F8204602B010BD4C
:10F9C0001C7B0020A479020038790200D079020063
:10F9D000DC79020070B524488AB0FFF77DFF044649
:10F9E00000282CD14FF480432049214A069403A8D3
:10F9F0000226012507940394049305938DF818605B
:10FA00008DF81C500891099203F07CF8044608B95F
:10FA10000AB070BD5E23174A1749132005F030FF66
:10FA200022461649132005F0CDFE00942A46144BB9
:10FA300010485E2100F02AF820460AB070BD51231C
:10FA40000C4A0D49132005F01BFF22460D491320D7
:10FA500005F0B8FE00940C4B06480122512100F03D
:10FA600015F820460AB070BD1C7B0020E1F80100AB
:10FA7000E5F80100A479020038790200E879020073
:10FA8000FC790200D0790200DC79020008B401B0F0
:10FA9000704700BF0EB403B0704700BF6DDF704702
:10FAA00075DF704776DF704777DF70477CDF704720
:10FAB00088DF70479ADF70479CDF70479DDF704793
:10FAC000A0DF7047A9DF704769DF704762DF7047CA
:10FAD00066DF704767DF70473EDF70472DE9F0470C
:10FAE000B54B42881B7888B043B3B44CA18A91428D
:10FAF000054638D0012B21D9B4F84813914200F0C3
:10FB0000BC80022B1AD0B4F87C16914200F0B3806E
:10FB1000032B13D0B4F8B019914200F0AA80042B43
:10FB20000CD0B4F8E41C914200F0A180052B05D064
:10FB300041F21803E35A934200F097804FF4E273C6
:10FB40009F4AA049132005F09BFE9F49132005F012
:10FB5000E1FD9E4B9A4802224FF4E271FFF796FFB7
:10FB600008B0BDE8F08700272E78002E33D1AA8890
:10FB700041F223539A4214D04FF4E573904A9149CD
:10FB8000132005F07DFE9249132005F0C3FD914B33
:10FB90008B4802224FF4E571FFF778FF08B0BDE80B
:10FBA000F0878D4BAA791B78934229D040F2CD1370
:10FBB000834A8449132005F063FE8849132005F029
:10FBC000A9FD874B7E48022240F2CD11FFF75EFF70
:10FBD00008B0BDE8F08740F2C713794A794913208D
:10FBE00005F04EFE7F49132005F094FD7E4B7448CE
:10FBF000022240F2C711FFF749FF08B0BDE8F087C5
:10FC00002A7A012A15D04FF4E8736D4A6D49132002
:10FC100005F036FE2A7A7549132005F0D3FD2B7ABC
:10FC200000936748724B02224FF4E871FFF72EFFF2
:10FC300096E7B5F80E8041F2245290451FD04FF45C
:10FC4000EA735F4A5F49132005F01AFE424669498C
:10FC5000132005F0B7FDCDF80080674B584802220D
:10FC60004FF4EA71FFF712FF7AE705277CE70427D4
:10FC70007AE7032778E7022776E7012774E795F804
:10FC80001080434515D040F2D5134D4A4D491320FD
:10FC900005F0F6FD42465949132005F093FDCDF8D5
:10FCA0000080574B4648022240F2D511FFF7EEFE86
:10FCB00056E74FF44D7909FB07F904EB09082B8B44
:10FCC000A8F87632EB8AA8F878326B883C4A3D492E
:10FCD000A8F81430132040F2DB1305F0D1FDB8F87A
:10FCE0001430B8F876224749132005F0C9FDB8F85A
:10FCF0001420B8F8763200930192434B3048032227
:10FD000040F2DB11FFF7C2FE98F87D32ADF81860C3
:10FD100004AA4FF0020A0792002BADF81AA008AB14
:10FD200013E90300B8F876E28DF81160B8F81460B2
:10FD3000ADF816E08DE803000CBF01225246012306
:10FD40008DF814308DF80E308DF8102008F52375DD
:10FD5000ADF80C6003AB0ECB2846FFF705FDB0B93C
:10FD600040F2EB13164A1749132005F089FDB8F845
:10FD700014202649132005F025FDB8F8143000930F
:10FD80005246234B0E4840F2EB11FFF77FFE284608
:10FD9000FFF75AFD00283FF4E3AE2846FFF72CFD9D
:10FDA0008278BAB300F108010088FFF785FEB8BB7E
:10FDB0002846FFF733FDD3E6EC7C0020447E00208C
:10FDC000247A020038790200DC7B0200F47B020016
:10FDD0006C7A0200807A0200407E0020947A020051
:10FDE000A87A0200387A0200547A0200BC7A020033
:10FDF000D47A0200EC7A0200047B0200187B020035
:10FE00002C7B02003C7B0200687B0200947B02009A
:10FE1000B87B020081880088FFF74CFE0028C7D01D
:10FE200005464FF4F7730D4A0D49132005F028FDE0
:10FE30004FF44D7303FB07440A49A28A2B46132053
:10FE400005F01EFDA38A05488DE828000222064B16
:10FE50004FF4F771FFF71AFE82E600BF247A020022
:10FE6000387902000C7C0200287C02000A8840F6E7
:10FE700077239A423ED130B5394B4A881B7883B0FC
:10FE80001BB33848848A944235D0012B1DD9B0F871
:10FE90004843944257D0022B17D0B0F87C46944286
:10FEA00059D0032B11D0B0F8B049944251D0042B53
:10FEB0000BD0B0F8E45C2B4C954248D0052B04D015
:10FEC00041F21803E35A93423FD04FF4FB73264AA2
:10FED0002649132005F0D4FC2549132005F01AFC0F
:10FEE000244B214801224FF4FB7103B0BDE83040A0
:10FEF000FFF7CCBD704700238D881B4A1B494FF488
:10FF00004D7404FB0304033D4FF4FC731320A4F869
:10FF1000805205F0B5FCB4F880221749132005F093
:10FF200051FCB4F8803200930F48144B03224FF475
:10FF3000FC71FFF7ABFDD4F8883273B1022003B037
:10FF4000BDE8304018470123D6E70523D4E7042352
:10FF5000D2E70323D0E70223CEE703B030BD00BFD2
:10FF6000EC7C0020447E0020247A020038790200D4
:10FF70006C7C02007C7C0200447C0200587C020005
:10FF800010B5204C2178B1B10139CAB21E4B4FF4E3
:10FF90004D7102FB011119444FF6FF7093F87A225C
:10FFA0002AB193F87B2212B19A8A824222D003F5B9
:10FFB0004D738B42F2D1FFF789FB2178B1B1013942
:10FFC000CAB2114B4FF44D7102FB011119444FF6A7
:10FFD000FF7093F87A222AB993F87B2212B19A8A99
:10FFE00082420AD003F54D738B42F2D1BDE8104036
:10FFF000FFF744BBFFF744FBDFE7BDE81040FFF726
:020000022000DC
:1000000015BB00BFEC7C0020447E00202DE9F04FA2
:100010000388013B87B00546562B62D8DFE813F012
:10002000DA0061006100610061006100610061004F
:100030006100610061006100610061006100F80021
:10004000BE010202610061006100610061006100A7
:10005000610061006100610046026100BD02610053
:100060006100610061006100610061006100610088
:100070006100610061006100610061006100610078
:10008000610061006100610061007503610030037F
:10009000B7036100BD0061006100610061006100A3
:1000A0006100610061006100610061006100610048
:1000B00061006100610061006100610061003A045B
:1000C00061005700F90361006100BD00D502002303
:1000D0001A4619468088FFF7F5FC0446002840F0D0
:1000E0002B84A34EAB883278002A4CD0A14CA18A35
:1000F000994200F06A84012A45D9B4F8481399421C
:1001000000F0CE84022A1BD0B4F87C16994200F08D
:10011000C984032A14D0B4F8B019994200F0B0840D
:10012000042A0DD0B4F8E41C994200F0AB84052AEF
:1001300006D041F21802A25A9A4200F0A584062283
:10014000B4F848038B49984200F0A084022A1AD0E0
:10015000B1F87C06984200F09B84032A13D0B1F8D2
:10016000B009984200F09684042A0CD0B1F8E40C4F
:10017000984200F09184052A05D041F218028A5A6B
:100180009A4200F08B84284602F0F6FC29467A4811
:1001900003F090FF07B0BDE8F08F13218088FFF7D0
:1001A00081FC044600289CD04FF4BB73734A744909
:1001B0006F4E132005F064FB22467249132005F0B0
:1001C00001FB0094704B6D4801224FF4BB71FFF7A7
:1001D0005DFC83E200218088FFF77AFC044600285A
:1001E0003FF47FAF4FF4C473644A6549604E1320F7
:1001F00005F046FB22466549132005F0E3FA00941A
:10020000634B5E4801224FF4C471FFF73FFC65E287
:10021000574E337800F10809002B00F09284554CBA
:100220004FF00008A3464FF44D7A0BE0484601F02A
:1002300071FE08F1010388B932785FFA83F842450C
:1002400040F27F840AFB08F7E1190531484601F0C6
:1002500061FE0BEB07010C310028E7D0EA7B4FF47D
:100260004D73022A03FB08430CBF0122002283F8CE
:100270007A22AA889A8240F04A845F1C3F4A404909
:100280004FF49773132005F0FBFA3A4641491320C7
:1002900005F098FA0097404B384803224FF49771C5
:1002A000FFF7F4FB4FF44D7303FB08F304EB030972
:1002B00009F11609E71848464FF418720021FFF7B4
:1002C00041F84846B98A03F017F88146002840F003
:1002D000EB83B88A4A46FF21FFF7EAFB074600286E
:1002E00040F06E853378BBB1013BDBB24FF44D710A
:1002F00003FB01111F4B21444FF6FF7093F87A2244
:1003000032B193F87B221AB19A8A824200F0298492
:1003100003F54D738B42F1D1FFF7D8F93378BBB1B8
:10032000013BDBB24FF44D7103FB0111114B214432
:100330004FF6FF7093F87A2232B993F87B221AB104
:100340009A8A824200F0118403F54D738B42F1D1F9
:10035000FFF794F94FF44D7303FB0844D4F8883247
:10036000002B3FF4BFAE01209847AB883278BBE644
:10037000EC7C0020447E0020C87C0020247A02000F
:1003800038790200847F02009C7F0200788002009E
:1003900094800200D47E0200F47E0200AC4E82887B
:1003A000337843B3AB4CA18A914200F0C284012B55
:1003B00021D9B4F84813914200F0B884022B1AD026
:1003C000B4F87C16914200F0AE84032B13D0B4F83D
:1003D000B019914200F0A484042B0CD0B4F8E41CB2
:1003E000914200F05A84052B05D041F21803E35ADC
:1003F000934200F0EC834FF4A773974A9749132078
:1004000005F03EFAAA889649132005F0DBF9AB887F
:1004100000939148934B01224FF4A771FFF736FBED
:1004200015245BE18A4E8288337843B3894CA18AD4
:10043000914200F0C384012B21D9B4F848139142B2
:1004400000F0BA84022B1AD0B4F87C16914200F066
:10045000B184032B13D0B4F8B019914200F0A884F2
:10046000042B0CD0B4F8E41C914200F09F84052BBF
:1004700005D041F21803E35A934200F061844FF42F
:10048000B273754A7549132005F0FAF9AA887449C0
:10049000132005F097F9AB8800936F48714B012248
:1004A0004FF4B271FFF7F2FA152417E100F10803D7
:1004B000194604A80393FFF72DF9BDF81430644ED4
:1004C000002B00F01F813378DDF810B0002B00F016
:1004D0001981604C00274FF44D7A04E03278DFB286
:1004E000BA4240F20F810AFB074808F10109484669
:1004F0000322594606F016FD7B1C0028EED198F821
:100500007A32002B00F0FE8098F87B32002B00F04E
:10051000F980B8F814204FF6FF739A4240F0F28049
:1005200008F1050A5146039801F0F4FC002800F098
:10053000B185B023484A4949132005F0A1F94A4939
:10054000132005F0E7F8494B43480322B021FFF799
:100550009DFAFFF73FF84FF44D7303FB0744014644
:10056000B4F830230398FFF7DFF90446002840F081
:100570004C85BA23384A3949132005F081F94A4697
:100580003B49132005F01EF9CDF80090394B324855
:100590000322BA21FFF77AFAB4E000F1080393E8E6
:1005A000030004AB83E803001946A888BDF81030A7
:1005B000ADF81230FFF774FA0446002840F0F081DD
:1005C000234E002C00F09E8088E0214E83883278F4
:1005D00042B3204CA18A994200F0A083012A21D97C
:1005E000B4F84813994200F07083022A1AD0B4F884
:1005F0007C16994200F06783032A13D0B4F8B0192F
:10060000994200F04D83042A0CD0B4F8E41C9942BE
:1006100000F09483052A05D041F21801615A9942ED
:1006200000F08A83DB230C4A0C49132005F028F9DB
:10063000AA881149132005F0C5F8AB880093064835
:100640000E4B0222DB21FFF721FA152446E000BF02
:10065000EC7C0020447E0020247A020038790200DD
:10066000688102007C8102008C7C02009C7C02007C
:10067000347D0200487D0200108102001C810200CE
:10068000B84E8288337843B3B74CA18A914200F0C8
:10069000ED83012B21D9B4F84813914200F0B083C7
:1006A000022B1AD0B4F87C16914200F01F84032B61
:1006B00013D0B4F8B019914200F01684042B0CD07A
:1006C000B4F8E41C914200F00D84052B05D041F2F2
:1006D0001803E35A934200F0038415244FF4D673B1
:1006E000A24AA349132005F0CBF82246A1491320C2
:1006F00005F068F80094A04B9C4801224FF4D67195
:10070000FFF7C4F93278AB88EEE4964E82883378EE
:1007100043B3954CA18A914200F0E083012B21D98B
:10072000B4F84813914200F0D783022B1AD0B4F8E2
:100730007C16914200F0CE83032B13D0B4F8B0198D
:10074000914200F0C583042B0CD0B4F8E41C914214
:1007500000F0BC83052B05D041F21803E35A934205
:1007600000F08683F223814A8149132005F088F83E
:10077000AA888249132005F025F8AB8800937B48AE
:100780007F4B0222F221FFF781F91524A6E7754E6F
:100790008288337843B3744CA08A824200F0FB8392
:1007A000012B21D9B4F84803824200F0F283022BD6
:1007B0001AD0B4F87C06824200F0E983032B13D0F0
:1007C000B4F8B009824200F09383042B0CD0B4F843
:1007D000E40C824200F0E383052B05D041F21803BC
:1007E000E05A824200F0D983C123604A6049132055
:1007F00005F046F8AA886149132004F0E3FFAB88AE
:1008000000935A485E4B0222C121FFF73FF915249D
:1008100064E7544E8388327842B3534CA18A99429C
:1008200000F0F183012A21D9B4F84813994200F06D
:10083000E883022A1AD0B4F87C16994200F0DF83CC
:10084000032A13D0B4F8B019994200F0D683042AD1
:100850000CD0B4F8E41C994200F0CD83052A05D0F1
:1008600041F21801615A994200F09B83E6233F4A06
:100870003F49132005F004F8AA884249132004F0E8
:10088000A1FFAB88009339483F4B0222E621FFF7D6
:10089000FDF822E7334E82883378002B3FF41DAFFA
:1008A000314CA18A914200F0A982012B7FF615AF4D
:1008B000B4F84813914200F09F82022B3FF40DAF31
:1008C000B4F87C16914200F09582032B3FF405AFFB
:1008D000B4F8B019914200F08B82042B3FF4FDAEC6
:1008E000B4F8E41C914200F08182052B3FF4F5AE90
:1008F00041F21803E35A93427FF4EFAE0527234BEE
:10090000EA889B889A4200F0348140F21713174A14
:100910001749132004F0B4FFEA881D49132004F09E
:1009200051FFEB88009311481A4B022240F2171135
:10093000FFF7ACF81524D1E640F28F130B4A0C49AF
:10094000084E132004F09CFF22461349132004F0A4
:1009500039FF0094114B0548012240F28F11FFF737
:1009600095F8BBE6EC7C0020447E0020247A02004F
:1009700038790200EC800200008102001081020040
:100980001C810200CC7D0200E07D0200E47C00209E
:100990002881020048810200AC800200CC80020065
:1009A00040F28113CA4ACB49132004F069FF224662
:1009B000C949132004F006FF0094C84BC448012223
:1009C00040F28111FFF762F8FAE500234FF44D7011
:1009D00000FB03402946163002F0C2FC3278C049C1
:1009E000AB88002A3FF4CFAB898A994204D0012A10
:1009F0003FF6A6ABFFF7C7BB0027002B3FF4C3AB06
:100A00004FF44D7606FB074606F523763046FEF793
:100A10001BFF00283FF4B7AB3046FEF7EDFE8278AF
:100A200052B100F108010088FFF746F850B930468E
:100A3000FEF7F4FEFFF7A7BB81880088FFF73AF8BE
:100A40000028F4D006464FF4DD73A14AA1491320D3
:100A500004F016FF4FF44D7303FB0744A149A28A2B
:100A60003346132004F00CFFA38A99488DE8480010
:100A700001229D4B4FF4DD71FFF708F8FFF783BBB0
:100A80000323A3E70423A1E705239FE70127B4E796
:100A90000227B2E70327B0E70427AEE70527ACE754
:100AA000012393E7022391E740F23913884A8949E9
:100AB000132004F0E5FE4A468C49132004F082FE20
:100AC0008B4B8348CDF80090022240F23911FEF79B
:100AD000DDFFB88A1321FEF7E5FF074600283FF443
:100AE00001AC40F23B137A4A7A49132004F0C8FE65
:100AF0003A468049132004F065FE00977E4B744807
:100B0000012240F23B11FEF7C1FFFFF7EBBB4FF4B0
:100B100098736F4A6F49132004F0B2FE774913208F
:100B200004F0F8FD764B6A4803224FF49871FEF703
:100B3000ADFF05F1080393E8030001F017FAFFF792
:100B4000B1BB99F8043099F8052099F80610D9F846
:100B5000000043EA022343EA014101F007FA1824A6
:100B6000BCE5FEF78DFDFFF7D9BBFEF75FFDFFF794
:100B7000F1BBB5F81090B9F1020F7FF4C6AE05F1E4
:100B80001208404602F05AF84FF44D7303FB074435
:100B900084F87E0200287FF4A5AA404602F04AF8B5
:100BA00000287FF49FAA4FF48E73494A49491320C5
:100BB00004F066FE5349132004F0ACFD4A46524B44
:100BC00043484FF48E71FEF761FF192486E54FF01C
:100BD00005084FF44D7303FB08F3E7184FF6FF7356
:100BE000F422BB820023A7F87632A7F8783287F880
:100BF0007C3287F87E3287F87F3207F52370A7F8BA
:100C00008022FEF7A9FD97F87A3243B34FF4A97317
:100C100001372F4A2F49132004F032FE3A463B4950
:100C2000132004F0CFFD0097394B294803224FF4DD
:100C3000A971FEF72BFF4FF44D7303FB084400210D
:100C400094F87A02FFF79CF9D4F88832002B3FF42D
:100C500049AA03209847AB883278FFF745BA4FF48A
:100C6000AA731B4A1B49132004F00AFE29491320CA
:100C700004F050FD284B164803224FF4AA71FEF7EA
:100C800005FF7B7ABA7AF97AD7F8050043EA02239E
:100C900043EA014101F06AF9CDE74FF0040898E713
:100CA00003234FF44D7101FB03440021D4F8883233
:100CB00084F87C12002B3FF426AD05209847AB88C2
:100CC0003278FFF711BA0223EBE70123E9E700BF0F
:100CD000247A020038790200348002005880020031
:100CE000447E00200C7C0200287C0200447F02002D
:100CF000647F0200847F02009C7F0200147F020058
:100D00002C7F0200947E0200B47E0200E47F020089
:100D1000F07F0200FC7F0200048002000023C0E795
:100D20004FF0030855E74FF0020852E74FF0010873
:100D30004FE74FF000084CE70523B2E70423B0E784
:100D400005274FF44D7303FB07430021D3F8882296
:100D500083F87F120AB1062090474FF44D7303FBCE
:100D6000074494F87A32E3B1B4F830232B899A42DD
:100D70003FF4B8A94FF4B773B14AB249132004F055
:100D80007FFD2A89B049132004F01CFD2B890093B4
:100D9000AB48AE4B01224FF4B771FEF777FE072444
:100DA0009CE42B89A4F83033FFF79CB90427C8E7EB
:100DB0000327C6E70227C4E70127C2E70027C0E7E9
:100DC00040F23F139E4A9F49132004F059FD3A46D2
:100DD0009F49132004F0F6FC00979E4B984802228E
:100DE00040F23F113C46FEF751FE77E4042786E5CA
:100DF000032784E5022782E5012780E500277EE5B9
:100E000001234FF44D7202FB03436C89B3F8763231
:100E1000A34215D040F20B13894A8A49132004F0EB
:100E20002FFD22468C49132004F0CCFC00948B4B00
:100E30008348022240F20B11FEF728FE15244DE4F0
:100E40004FF486737E4A7F49132004F019FD8449CC
:100E5000132004F05FFC834B794803224FF4867122
:100E6000FEF714FEAB883278FFF73EB90023C8E7DF
:100E700005234FF44D7202FB03436C89B3F87822CB
:100E8000A24213D0F6236E4A6E49132004F0F8FCF8
:100E900022467549132004F095FC0094734B684872
:100EA0000222F621FEF7F2FD152417E4EA89D3F8B1
:100EB0008432ADF8142005F110020492002B3FF4A7
:100EC00021AC06AA12E9030098471BE40423D0E7EB
:100ED0000323CEE70223CCE70123CAE70023C8E7B8
:100EE00005238EE704238CE703238AE7022388E7A0
:100EF00003224FF44D7303FB02436F89B3F878125A
:100F0000B94214D0C5234E4A4E49132004F0B8FC10
:100F10003A465749132004F055FC0097554B484872
:100F20000222C521FEF7B2FD1524FFF7D7BBEF89DA
:100F300093F87E32ADF8147005F1100704974BB9A1
:100F40004FF44D7303FB0242D2F88432002BB8D128
:100F5000FFF7D8BBFEF7B2FD07460028F0D0CF233D
:100F6000374A3849132004F08BFC3A464249132093
:100F700004F028FC3C460097404B31480222CF2128
:100F8000FEF784FD002C3FF4BDABFFF7A7BB0222A8
:100F9000AFE70122ADE70022ABE70522A9E7042273
:100FA000A7E705213648EF880088B84214D0E82327
:100FB000234A2449132004F063FC3A4631491320A4
:100FC00004F000FC0097304B1D480222E821FEF798
:100FD0005DFD1524FFF782BB4FF44D7000FB01410E
:100FE000D1F8881200293FF47FA804208847AB88F5
:100FF0003278FFF779B80421D4E70321D2E7022140
:10100000D0E70121CEE70021CCE7B9230C4A0D49F6
:10101000132004F035FC23464A461C49132004F0F3
:101020002FFC0194CDF80090194B05480222B921FC
:10103000FEF72CFD002C3FF465ABFFF74FBB00BF64
:10104000247A0200387902000C800200208002001D
:10105000B47F0200CC7F0200347E0200547E020086
:10106000707E0200847E0200F47D0200147E020085
:101070005C7D02007C7D02009C7D0200B47D02004C
:10108000E47C0020CC7D0200E07D0200F47C0200C4
:10109000147D02005146039800F03CFF834688B15E
:1010A000B2231F4A1F49132004F0EAFB1E491320F4
:1010B00004F030FB1D4B1A480322B221FEF7E6FC78
:1010C000FFF747BAB423164A1649132004F0D8FB99
:1010D0001749132004F01EFB164B11480322B421BC
:1010E000FEF7D4FC2B460BF07F4153F8080FC8F8ED
:1010F00005009A889B798AF80630AAF8042098F8A7
:10110000092098F80A3098F80BE0D8F8050042EA70
:10111000032343EA0E43194300F028FFFFF719BAEF
:10112000247A020038790200A87C0200BC7C02000C
:10113000D07C0200E47C0200F0B5064695B00020A9
:1011400004F0CCFA002840F06D8105F081F80446E7
:10115000002840F05081CA4BCA49186806902346BF
:1011600006A84FF4987205F07FFC002840F0C78174
:1011700014AD002345F8303D284605F0E1FC044657
:10118000002840F0A58101460C220CA8FEF7DAF8F1
:1011900003230CA9089A8DF8303040208DF83130A7
:1011A0008DF83230FEF790FC0446002840F0528162
:1011B00001460C220CA8FEF7C5F80127F723089A70
:1011C0008DF830700CA92320ADF83230FEF77CFC8E
:1011D0000446002840F0968101460C220CA8FEF738
:1011E000B1F84FF4A0700623ADF83400089A8DF8DA
:1011F00030700CA920208DF83230FEF765FC0446D3
:10120000002840F0238201460C220CA8FEF79AF831
:10121000089A8DF830700CA93846FEF755FC044644
:10122000002840F08581284605F094FC04460028FB
:1012300040F04E82944805F061FC0446002840F0DE
:1012400073829DF8083067F3030367F30713304692
:101250008DF8083005F0B2FE032800F096814FF4B7
:1012600013738A4A8A49132004F00AFB32468949DB
:10127000132004F0A7FA884B844800963A464FF4AE
:101280001371FEF703FC854805F098FE834982B28E
:1012900002A8FEF70BFC0446002840F0AB81FEF7E5
:1012A00099FB0446002840F059817D497D4802F0B1
:1012B000A7FE0446002840F08781FEF78FF9044618
:1012C000002840F0AD81784801F094FF04460028E2
:1012D00040F0D281754B764E186859689A68DB6881
:1012E0002C460FC428463146FEF7F0FB0446002882
:1012F00040F0D88141F223523378ADF80C2003A896
:101300008DF80E3001F090FF0446002840F0F68181
:1013100003A90DF10A020120FEF7D2FB04460028C2
:1013200040F01882014620220CA8FEF70BF89DF829
:101330003D3031788DF83210012543F03A035D4A93
:10134000BDF80A00ADF836400CA941F22457F72643
:101350008DF83D30ADF83070ADF834608DF8435005
:101360008DF841508DF83C5001F06CFC044600288B
:1013700040F0068231464B4802F05EFE04460028EB
:1013800040F054823146474802F062FE044600288D
:1013900040F06282FB224FF6FF71424802F064FE89
:1013A0000446002840F06E820146082206A8FDF798
:1013B000C9FF9DF8183006A943F0010302208DF8FB
:1013C0001830FEF787FB0446002840F07182FEF7D4
:1013D0006BFB0446002840F0818204AB1846FEF700
:1013E0005DFB0446002840F08F8293E8030000F084
:1013F000BDFD204614E04FF40373244A2449132012
:1014000004F03EFA22462C49132004F0DBF91F4871
:1014100000942A4B01224FF40371FEF737FB20465C
:1014200015B0F0BD044640F20723184A18491320AE
:1014300004F026FA22462249132004F0C3F900944E
:10144000204B1248012240F20721FEF71FFB2046E5
:1014500015B0F0BD40F221230C4A0D49132004F0D1
:101460000FFA22461849132004F0ACF907480094FB
:10147000164B012240F22121FEF708FB2046CFE760
:101480000C7A0200F07C00200D000200247A020099
:101490003879020090830200A4830200B483020022
:1014A0006DFE0100C87C0020DDFA0100107A020008
:1014B000407E0020E47C0020BC810200D481020038
:1014C00090810200A88102001C8202003C8202007E
:1014D00040F21523B54AB649132004F0D1F922464B
:1014E000B449132004F06EF90094B34BAF480122C5
:1014F00040F21521FEF7CAFA204615B0F0BD05F0FE
:101500000DF835E64FF40A73A84AA949132004F0F0
:10151000B7F92246A949132004F054F9A3480094CE
:101520003A46A74B4FF40A71FEF7B0FA204677E728
:1015300040F236239D4A9E49132004F0A1F9224629
:10154000A049132004F03EF9984800943A469E4B77
:1015500040F23621FEF79AFA204661E740F2552321
:10156000924A9349132004F08BF92246974913209D
:1015700004F028F90094964B8C48012240F2552142
:10158000FEF784FA204615B0F0BD0246314602A8A7
:10159000FEF78CFA044600283FF481AE40F2512356
:1015A000824A8349132004F06BF9224689491320AB
:1015B00004F008F97D4800943A46874B40F25121E7
:1015C000FEF764FA20462BE74FF41673774A784902
:1015D000132004F055F922468049132004F0F2F854
:1015E000724800947E4B01224FF41671FEF74EFABA
:1015F000204615E740F24E236C4A6D49132004F053
:101600003FF922467349132004F0DCF86748009440
:101610003A46714B40F24E21FEF738FA2046FFE67B
:1016200040F25B23614A6249132004F029F9224603
:101630006C49132004F0C6F85C4800946A4B012200
:1016400040F25B21FEF722FA2046E9E64FF40C73E4
:10165000564A5749132004F013F9224663491320D0
:1016600004F0B0F8514800943A46614B4FF40C71C5
:10167000FEF70CFA2046D3E640F25E234B4A4C4973
:10168000132004F0FDF822465A49132004F09AF87A
:1016900046480094584B012240F25E21FEF7F6F9CD
:1016A0002046BDE640F26323404A4149132004F03E
:1016B000E7F822465149132004F084F83B4800948F
:1016C0004F4B012240F26321FEF7E0F92046A7E6E6
:1016D00040F23A23354A3649132004F0D1F8224625
:1016E0004849132004F06EF8304800943A46464BBF
:1016F00040F23A21FEF7CAF9204691E640F26B2308
:101700002A4A2B49132004F0BBF822463F491320F4
:1017100004F058F8254800943D4B012240F26B211B
:10172000FEF7B4F920467BE640F23E231F4A2049EB
:10173000132004F0A5F822463649132004F042F89D
:101740001A4800943A46344B40F23E21FEF79EF987
:10175000204665E64FF41C73144A1549132004F023
:101760008FF822462D49132004F02CF80F480094DE
:101770002B4B01224FF41C71FEF788F920464FE6EF
:1017800040F28323094A0A49132004F079F82246DB
:101790002449132004F016F8044800942A46224BEA
:1017A00040F28321FEF772F9204639E6247A0200DE
:1017B00038790200EC8102000482020058820200A3
:1017C00078820200E082020004830200E4830200C7
:1017D0000C840200B8830200D0830200348402002B
:1017E0004C8402006484020080840200988202001B
:1017F000BC8202009C840200BC840200DC840200E3
:10180000F48402002883020040830200088502005D
:101810002885020058830200748302004885020074
:1018200060850200788502008C85020040F28623E4
:10183000404A4149132004F023F822463F4913202F
:1018400003F0C0FF3B4800942A463D4B40F28621FE
:10185000FEF71CF92046E3E540F28923354A364974
:10186000132004F00DF822463649132003F0AAFF96
:1018700030480094344B012240F28921FEF706F9EA
:101880002046CDE540F28E232A4A2B49132003F04F
:10189000F7FF22462D49132003F094FF25480094BA
:1018A0002B4B012240F28E21FEF7F0F82046B7E5DF
:1018B00040F295231F4A2049132003F0E1FF2246FE
:1018C0002449132003F07EFF1A480094224B012282
:1018D00040F29521FEF7DAF82046A1E54FF4267391
:1018E000144A1549132003F0CBFF22461B4913204D
:1018F00003F068FF0F480094194B01224FF4267142
:10190000FEF7C4F820468BE54FF42773094A0A49CD
:10191000132003F0B5FF22461249132003F052FFB3
:1019200004480094104B01224FF42771FEF7AEF8E3
:10193000204675E5247A020038790200A08502006D
:10194000C4850200E885020008860200288602009D
:10195000448602006086020080860200A0860200A3
:10196000B8860200D0860200E886020084B02DE925
:10197000F043DFF8988198F8005083B00AAC062D48
:1019800084E80F0000F09C809DF82830F3B10D989A
:1019900005F014FB032817D040F2BB23554A5649E3
:1019A000132003F06DFF5549132003F0B3FE544B91
:1019B0005048012240F2BB21FEF768F8FF2003B037
:1019C000BDE8F04304B0704798F80050DFF840914C
:1019D0004FF44D7606FB05F609EB060400274FF69B
:1019E000FF71F4226B1C04F52370A182A4F88022FD
:1019F000A4F87672A4F8787284F87C7284F87E7207
:101A000084F87F7288F80030FDF7A6FE63790B99A1
:101A100084F87B7203F0FE0301270C9A9DF828E0FE
:101A2000C4F8841267F347039DF84810C4F888226D
:101A300084F87AE2062284F87D1263710EA9A01D53
:101A400005F07FFA237B03F0FE0367F3470320468C
:101A500023730D3006220DF13E0105F072FA94F861
:101A60007A32CBB1DDED116AB7EE047AC6EE877A31
:101A7000FCEEE77ACDED017ABDF80430052B37D9BD
:101A8000B3F5C87F28BF4FF4C8734FF44D7202FB03
:101A90000592A2F8303301E0A4F830334FF44D70D2
:101AA00000FB059004220D99013005F04AFA98F8E0
:101AB00000000138C0B203B0BDE8F04304B0704785
:101AC00040F2B9230B4A0C49132003F0D9FE0D490B
:101AD000132003F01FFE0C4B0648012240F2B921EF
:101AE000FDF7D4FFFF2003B0BDE8F04304B070471A
:101AF0000623CAE7247A0200387902003087020000
:101B0000488702000087020018870200EC7C002052
:101B1000447E002030B54F4B1B78834289B0044689
:101B20003ED94FF44D734C4A03FB04F415194FF69C
:101B3000FF71AB8A8B421ED008A911E9030014443F
:101B4000B5F87822ADF80C308DE8030000238DF84D
:101B50000E3004F52374ADF8102003AB20460ECBF5
:101B6000FDF702FE002841D02046FDF76DFE70BB58
:101B7000002009B030BD40F2DD23384A3849132037
:101B800003F07EFE3749132003F0C4FD3348364B83
:101B9000012240F2DD21FDF779FF062009B030BDBA
:101BA00040F2DB232D4A2E49132003F069FE224622
:101BB0002E49132003F006FE00942D4B27480122E6
:101BC00040F2DB21FDF762FF042009B030BD204662
:101BD000FDF712FE8278FAB100F108010088FDF7E6
:101BE0006BFFF8B92046FDF719FEC1E740F2E52387
:101BF0001A4A1B49132003F043FEAA8A1D491320E9
:101C000003F0E0FDAB8A009314481B4B022240F224
:101C1000E521FDF73BFFA7E781880088FDF74AFF34
:101C20000028DFD004464FF43A730C4A0C491320C5
:101C300003F026FE22461149132003F0C3FD074896
:101C400000940F4B03224FF43A71FDF71FFF03205E
:101C5000A4E700BFEC7C0020447E0020247A020030
:101C600038790200DC7B0200F47B02005C87020012
:101C70006C870200947B0200B87B02007C87020024
:101C80009087020070B53B4B1B78834284B00446BA
:101C90003CD9394E4FF44D7303FB006393F87A320D
:101CA000EBB1B7EE047AC0EE077AFCEEE77ACDED41
:101CB000037ABDF80C50052D3FD806254FF44D731F
:101CC00003FB04662946B08AFDF75AFE00283AD184
:101CD0000123A6F8305386F87F3204B070BD40F27D
:101CE0001A33264A2649132003F0CAFD2246254905
:101CF000132003F067FD0094234B2048012240F29B
:101D00001A31FDF7C3FE112004B070BD4FF44673C5
:101D10001A4A1B49132003F0B3FD22461B49132026
:101D200003F050FD00941A4B144801224FF4467101
:101D3000FDF7ACFE042004B070BDB5F5C87F28BF28
:101D40004FF4C875BAE740F21E330C4A0C49132011
:101D500003F096FD22460F49132003F033FD009453
:101D60000D4B0648012240F21E31FDF78FFE122076
:101D700004B070BDEC7C0020447E0020247A020078
:101D800038790200608802007C8802005C870200CB
:101D90006C87020098880200B888020070B5284E4F
:101DA0003378834242D9274D4FF44D7101FB0050E7
:101DB00090F87B420CB1204670BD012280F87B2256
:101DC000A3B1013BDBB203FB011129442B464FF6C3
:101DD000FF7093F87A222AB193F87B2212B19A8A83
:101DE000824226D003F54D738B42F2D1FDF76EFC93
:101DF0003378B3B1591EC9B24FF44D7301FB0331AF
:101E0000104B29444FF6FF7093F87A222AB993F8C1
:101E10007B4214B19A8A82420ED003F54D738B42F5
:101E2000F2D10124FDF72AFC204670BD0024204693
:101E300070BDFDF725FCDBE7FDF7F8FBBBE700BF56
:101E4000EC7C0020447E002008B503F0EDFD002866
:101E5000FBD1FDF741FEF8E730B50A4683B00546F1
:101E60000121244804F0B6FA044660BB4FF4004355
:101E70004FF4FA700021E5FB03014FF47A7200235E
:101E800004F09CFE224601461B4804F0B5FA0546C4
:101E900010B9012003B030BD40F27233174A18491F
:101EA000132003F0EDFC2A461649132003F08AFCA8
:101EB0000095154B1148012240F27231FDF7E6FD05
:101EC000204603B030BD40F26F330C4A0C4913205A
:101ED00003F0D6FC22460D49132003F073FC009456
:101EE0000B4B0648012240F26F31FDF7CFFD002079
:101EF00003B030BD207A0200207E0020247A020048
:101F0000387902003C8902004C89020018890200DD
:101F10002C89020002780B78534013F0FE0220D186
:101F2000EBB910B44A78447894421CD184788A780A
:101F3000944218D1C478CA78944214D104790A79A9
:101F4000944210D144794A7994420CD183798879AA
:101F5000181AB0FA80F040095DF8044B704710463B
:101F60007047002070471846F6E700BF2DE9F04F94
:101F700085B004AB03E90300DFF860809DF80990A9
:101F80009DF80AA09DF80BB09DF80C509DF80D60CF
:101F9000114CCDF800B04A465346414613209DF8F7
:101FA0000E7003F0D3FC53464A464146CDF800B0CC
:101FB0000320FDF76FFD33462A4621460097132084
:101FC00003F0C4FC009733462A4621460320FDF760
:101FD00061FD05B0BDE8F08FA08902009089020084
:101FE000044B195C4FF0A04201238B40C2F80C3522
:101FF000704700BFB0890200044B195C4FF0A0424B
:1020000001238B40C2F80835704700BFB089020039
:1020100030B44FF0A04303224FF400354FF4802436
:102020004FF400204FF48011C3F84427C3F8482729
:10203000C3F84C27C3F85027C3F80855C3F8084520
:10204000C3F80805C3F8081530BC70476DDF70474A
:1020500072DF704779DF70477DDF704764DF70475C
:102060002DE9F04F83B004880C9FBDF83490B7F889
:1020700000A0002C4CD09846002316468B460546FF
:102080001C4603E02A880134A24224DD6A6852F823
:102090002400019000220DF1030101A8FFF7DEFFEB
:1020A00010BB9DF80320B242ECD103B33A889319D8
:1020B0004B4518DC42440DF1030101A80123FFF751
:1020C000CDFF88B93A889DF803100A443A802A88DF
:1020D0000134A242DADCDBB13B88013BCAEB0303EB
:1020E0009BB2FF2B12D90C2003B0BDE8F08F3B88C8
:1020F0005A1C334402334B4592B2F4DC3A8008F860
:1021000002B03A88013292B23A80D3E708F80A3036
:10211000002003B0BDE8F08F2DE9F04700231788B9
:10212000138090F82D3084B0144605460E46002BDF
:1021300049D1AA78002A70D1EA78002A2ED16A689B
:10214000A2B1D91CB94225D8022192F90020F1543C
:10215000238801339BB20A212380F1542388013361
:102160009BB22380F2542388013323802B89002BD8
:1021700040F02A812B8A002B40F03F812B8B002BD3
:1021800040F054812A6A002A00F0A78021888B1D24
:10219000BB4262D90C2004B0BDE8F087D91CB9421B
:1021A000F8D80221F154238801339BB20121238006
:1021B000F15423880B449BB22380F25423880B44B0
:1021C0009BB22380BBE7082FE4D902A8FFF73EFFAC
:1021D0000028E0D113880822CA54238801339BB217
:1021E0001B222380CA542088013080B2208006221E
:1021F00008440DF1090104F0A4FE23889DF808208D
:1022000006339BB212F0FE0218BF01222380F25463
:10221000238801339BB223808BE70433BB42B9D8B8
:1022200002A8FFF717FF0028B5D12388BDF80820C2
:102230000321F154238801339BB219212380F154E7
:10224000238801339BB2F1182380F254120A4A709A
:10225000238802339BB223806EE71388052B40F25C
:10226000AF806FF4486803EB080080B24FF27D3E08
:10227000704540F2A5805088052840F2A1806FF497
:10228000486C84441FFA8CFCF44540F299804FF668
:10229000FF7E734504D0704502D0834200F29080E7
:1022A00005237354238801339BB212212380F154F8
:1022B000238801339BB223801188F1543344090AE7
:1022C0005970238802339BB223805288F2543344DE
:1022D000120A5A70238802332380D5F82480B8F17B
:1022E000000F30D0B8F804202188131D0B44BB42E6
:1022F0003FF650AF931CFE2B3FF64CAF03327254A7
:10230000238801339BB2FF222380F25423880133B8
:102310009BB22380B8F80020F2543344120A5A705A
:102320002088023080B22080B8F804205AB1D8F852
:102330000810002944D0304404F003FEB8F80430FB
:1023400022881344238095F82C30002B40F08B809A
:10235000287800283FF41FAF2B88012B30D023882A
:102360009A1CBA423FF616AF012805D169780231AE
:1023700019448F42FFF40EAF023FFB1A04A99BB22F
:1023800021F8083DB018FFF767FE00287FF403AF7F
:102390002A78022A00F0B480012A60D01A46082167
:1023A000FE2A3FF6F7AE2388551CF55423880133E7
:1023B0009BB22380F154238801331A442280EAE639
:1023C000072004B0BDE8F08705F1080802228DE877
:1023D0009000404611463346FFF742FE00287FF446
:1023E000DAAE8DE890004046334610220621FFF712
:1023F00037FE00287FF4CFAEBCE605F110088DE86B
:1024000090004046334602220321FFF729FE0028B0
:102410007FF4C1AE8DE8900040463346102207217C
:10242000FFF71EFE00287FF4B6AEA7E605F11808F8
:102430008DE890004046334602221421FFF710FE3B
:1024400000287FF4A8AE8DE8900040463346102265
:102450001521FFF705FE00287FF49DAE92E66A780D
:1024600093429CD29AE7D5F82880B8F1000FA7D004
:10247000B8F804200232FE2A3FF68CAE23884FF0D3
:1024800000094FF0160A0132F254238801339BB23F
:10249000238006F803A0238801339BB22380B8F879
:1024A0000020F2543344120A5A70238802339BB23C
:1024B0002380B8F80410F0180A4669B1D8F808303B
:1024C0001946002B3FF47CAF04F03BFDB8F8043014
:1024D000228813449BB2238009F1010995F82C202E
:1024E0005FFA89F94A4509EB49087FF631AFAA6AD4
:1024F00002EB8808B8F804200232FE2AC3D949E664
:10250000BDF808209342FFF449AF092148E700BF16
:102510002DE9F04395B01F230D46ADF80E3004466B
:10252000002800F08480C27853077CD590F82D30C5
:102530000021ADF80C10002B40F0DD8183780CAF4A
:10254000002B40F019821946032014AE31445F1C61
:10255000023316FA87F74FF0020E16FA83F601F8E7
:1025600040EC83B2012107F8401CADF80C3006F8AE
:10257000402C6668002E00F08C80D81C1F2874D96F
:102580000C2015B0BDE8F083A76A002F4BD0BA88A5
:102590000232FE2AF4D8BDF80C304FF0000804AE29
:1025A0004FF016091AE004F0CCFCBDF80C20BB88F3
:1025B00094F82C1013449BB2ADF80C3008F10108CC
:1025C0005FFA88F8884508EB480780F0F080A26A37
:1025D00002EB8707BA880232FE2AD1D80DF1500EDD
:1025E0009E44581C01320DF1500C0EF8402C1CFA80
:1025F00080F09A1C92B200F8409CADF80C2038880C
:10260000B0543244000A50700433B7F804E09BB26F
:102610007246F018ADF80C30BEF1000FCED0BB689A
:102620001946002BBFD1072015B0BDE8F083ADF8E7
:102630000C00ADB1EB78002BF5D128460CA90DF1BB
:102640000E02FFF769FD0028EED19DF80E300CAAAE
:1026500020469DF80C10FFF7FBFC15B0BDE8F08399
:102660002B46ADF80E502A46F2E714AF591C9A1CBF
:1026700017FA81F13B4417FA82F296F90060ADF83F
:102680000C0002270A2003F8407C01F8400C02F8F5
:10269000406C2389002B40F08F80238A002B40F070
:1026A000AB80238B002B40F0C780226A002A42D0E7
:1026B000BDF80C30991D1F293FF662AF1088052820
:1026C000B1D96FF4486C00EB0C06B6B24FF27D370F
:1026D000BE42A8D95688052EA5D96FF4486EB644D7
:1026E0001FFA8EFEBE459ED94FF6FF77B84203D043
:1026F000BE4201D0B04296D814A8C7185E1C10FA8A
:1027000086F64FF0050E981C07F840EC80B21227B1
:1027100006F8407CADF80C001788ADF80C1004AE3C
:102720003118375404333F0A4F709BB25288F25429
:102730003344120A5A70676AA7B3B888BDF80C30E0
:10274000811C9A1C56181F2E3FF61AAFFE293FF621
:1027500017AF14AE1E44591C0DF1500E1EFA81F134
:10276000033006F8400C92B2FF2001F8400CADF89F
:102770000C20398804AEB018B154090A41700433F2
:10278000BA8898B2ADF80C0062B1B96800293FF47C
:102790004AAF304404F0D5FBBDF80C20BB8813448D
:1027A000ADF80C3094F82C1000297FF4EDAE2378AE
:1027B000002B61D104AC3CE703A904F1080704AE87
:1027C0004FF01F080222009138463346CDF80480AE
:1027D0001146FFF745FC00287FF426AF03AB0093BA
:1027E000CDF804803346384610220621FFF738FC26
:1027F00000287FF419AF50E703AA04F1100704AED4
:102800004FF01F08009238463346CDF8048002226C
:102810000321FFF725FC00287FF406AF03AB0093EC
:10282000CDF804803346384610220721FFF718FC04
:1028300000287FF4F9AE34E703AA04F1180704AEC8
:102840004FF01F08009238463346CDF8048002222C
:102850001421FFF705FC00287FF4E6AE03AB0093DC
:10286000CDF804803346384610221521FFF7F8FBD7
:1028700000287FF4D9AE18E72288012A3FF4D3AEAE
:10288000BDF80C20901C1F283FF67AAE012B05D115
:102890006378134402331F2B3FF672AEC2F11D035F
:1028A00014A99BB204AE21F8203D3044FFF7D4FBBD
:1028B00000287FF4B9AE2278022A00F08780012A2E
:1028C00000F08B80ADF830301A460820FE2A3FF623
:1028D00057AEBDF80C3014AC591CE71814FA81F14E
:1028E00002331344013207F8402C3446ADF80C3063
:1028F00001F8400C9DE60CAF3846FFF7A7FB002817
:102900007FF492AEBDF80C3014A903F1010E9A1CAD
:1029100011FA8EFE0B4492B204AEB01808211B26A9
:1029200003F8401CADF80C200DF1310106220EF821
:10293000406C04F006FBBDF80C209DF83010931D90
:1029400011F0FE019BB23BD114A8034403F8401CD4
:10295000D31DA2789BB2ADF80C304AB9E278002AB8
:102960003FF407AED81C1F2819463FF609AEECE528
:1029700004331F2B3FF604AE3846FFF76BFB0028ED
:102980007FF452AEBDF80C30BDF83010E2785F1C19
:1029900014AE16FA87F71E44981C4FF0030E06F883
:1029A00040EC80B204AE4FF0190E07F840EC04334F
:1029B000371831549BB2090AADF80C307970CEE764
:1029C00014A90B44012103F8401CC1E7BDF83020D5
:1029D0009342FFF477AF092078E762789342FFF4DF
:1029E00071AFADF83020082070E700BF75DF704789
:1029F00076DF70477ADF70477BDF7047184B1888A7
:102A00004FF6FF7398422AD010B5164A164C137829
:102A1000217B0133DBB2994282B013700CD2237C4C
:102A2000002111708BB9636923B102A8002200F85C
:102A3000042D984702B010BD0C49FFF7D7FF0028BE
:102A4000F8D0A369002BF4D1F4E73B21FFF7D0FFC6
:102A50000028E8D0A369002BE5D09847E3E770474A
:102A6000C8910020889100208C910020CC910020FA
:102A700070B51E4B1E4A5B881188994282B00FD8F0
:102A800052889A420CD31B4B5B6923B102A80122E6
:102A900000F8042D9847184C0023237002B070BD35
:102AA000154C227862B1134B5B69002BF4D002A85D
:102AB000002200F8042D98470023237002B070BD57
:102AC0000C4D0E4869680678AB680D48002E18BF9B
:102AD000194603F091FC0028DED0AB69002BDBD057
:102AE00098470023237002B070BD00BF8091002082
:102AF000CC9100208C9100207C91002088910020B6
:102B0000A8910020F8B505460FCD144C144F0FC402
:102B1000064695E80700002384E807003B70B6B13D
:102B20003068104B716803C3A3F10800FFF762FF20
:102B300090B90D4D0D4C0E4A0E4800234FF6FF760E
:102B40002E8023701946BDE8F84003F043BC0548C9
:102B5000FFF752FF0028ECD0F8BD00BF8C91002099
:102B60007C910020CC910020C89100208891002009
:102B7000FD290200B489020070B50388112B27D00B
:102B800012D9122B07D0502B47D1244CC288E3898D
:102B90009A4230D070BD083003C8214B83E803004F
:102BA000BDE87040FFF764BF102B35D11D491B4CA9
:102BB0001B4B1D4DE48900F110028088088092E8CB
:102BC0000300002283E803002A70002CE8D070BDC7
:102BD0001449154B15484FF6FF7400220C801A70EB
:102BE00003F060FC0028D5D00C4B9B69002BD1D0A2
:102BF000BDE870401847038A022BCBD1123000F099
:102C000019F80028CCD1094803F04CFC0028C1D0A9
:102C1000A369002BECD1BDE770BD70BD8C91002085
:102C200080910020C891002088910020A891002068
:102C3000A2DF7047007800F0010070470078C0F311
:102C400040007047F0B58B7891B0002B0C46098896
:102C5000ADF80C1008BF012305461646684603224E
:102C600000218DF80E30FCF76DFB9DF80020637C91
:102C700002F0F0026FF30712013B8DF80020042BE5
:102C800010D8DFE813F020012A01050035011601F4
:102C90009DF80030012262F30303032262F307135D
:102CA0008DF800309DF80120A37C02F0F0026FF354
:102CB0000712013B8DF80120042B10D8DFE813F038
:102CC0002D0137010500EE0023019DF8013001229E
:102CD00062F30303032262F307138DF801309DF8BA
:102CE0000230E77B227D207C217B67F3C303002A2F
:102CF00060F3041314BF0222012261F3000362F3A4
:102D0000420309A81C2200218DF80230FCF71AFBAF
:102D1000637B13F0300F40F08F80627BA37B8DF8D4
:102D200024200021142204A88DF82530FCF70AFB8A
:102D3000A368A288CDF814D003A90491ADF81C2093
:102D40001BB1E2880893ADF81820A369002B44D08A
:102D500001AF032200213846FCF7F4FAA2699DF87E
:102D600004101388ADF82C305388ADF82E3050681D
:102D70000D97137B0A9001F0F0016FF30711013BEF
:102D80008DF80410042B3DD8DFE813F01B0125015A
:102D90003200F20011019DF80530012161F30303B7
:102DA000032161F307138DF80530917A9DF8063001
:102DB00061F3C3038DF80630D17A61F304138DF803
:102DC0000630117A927B002A61F3000314BF0222BD
:102DD000012262F342038DF80630E36903B10C93DC
:102DE000334604AA09A92846FFF722FF11B0F0BD17
:102DF0009DF80430012161F30303032161F30713FC
:102E00008DF804309DF80510537B01F0F0016FF34D
:102E10000711013B8DF80510042BC6D801A151F80C
:102E200023F000BF9B2F02005B2F0200972D0200B2
:102E3000452F0200872F0200032202A80021FCF781
:102E400081FA9DF80920E37C02F0F0026FF307128B
:102E5000013B8DF80920042B0ED8DFE803F0D1DB0D
:102E600003E6C7009DF80930012262F30303032241
:102E700062F307138DF809309DF808309DF80A10A9
:102E800002AA0E92012262F3030362F3071362F3B4
:102E900042018DF808308DF80A103EE79DF80130A8
:102EA000022262F30303012262F307138DF801305B
:102EB00015E79DF80030022262F3030362F3071363
:102EC0008DF80030EEE69DF80030012262F3030336
:102ED00062F307138DF80030E4E69DF8003001221C
:102EE00062F30303022262F307138DF80030D9E680
:102EF0009DF80030022262F30303012262F30713FC
:102F00008DF80030CEE69DF80130022262F3030313
:102F100062F307138DF80130E1E69DF801300122DC
:102F200062F3030362F307138DF80130D7E69DF8CF
:102F30000130012262F30303022262F307138DF8CA
:102F40000130CCE69DF80530022161F30303012135
:102F500061F307138DF8053027E79DF8053001214F
:102F600061F30303022161F307138DF805301CE7B9
:102F70009DF80430022161F30303012161F307137B
:102F80008DF804303EE79DF80530022161F303031C
:102F900061F307138DF8053007E79DF8053001212F
:102FA00061F3030361F307138DF80530FDE69DF827
:102FB0000430022161F3030361F307138DF8043039
:102FC00020E79DF80430012161F3030361F3071347
:102FD0008DF8043016E79DF80430012161F30303F6
:102FE000022161F307138DF804300BE79DF80930D7
:102FF000022262F3030362F307138DF809303BE703
:103000009DF80930012262F3030362F307138DF880
:10301000093031E79DF80930012262F303030222EF
:1030200062F307138DF8093026E79DF80930022274
:1030300062F30303012262F307138DF809301BE7E3
:1030400094DF704796DF704797DF7047F0B5334BDA
:103050001D6890F85A329BB065B303EB830303EB12
:1030600083039B00C6182E4CB678A778B74223D0AE
:10307000012D1FD9A779DFF8A8E0B74247D0022D6C
:1030800018D0A77ADFF898E0B7423AD0032D11D0D4
:10309000A77BDFF88CE0B7422DD0042D0AD0A77CA7
:1030A000DFF87CE0B74220D0052D03D0A47D1C4D75
:1030B000B44214D01BB0F0BDB4F800E0C75ABE450E
:1030C000D6D1184B1C68002CF4D00123ADF8022097
:1030D00001918DF800306846A0471BB0F0BDAC8A66
:1030E000C35A9C42EDD01BB0F0BDBEF810E0C75AE9
:1030F000BE45D9D1E5E7BEF80CE0C75ABE45CCD1F4
:10310000DFE7BEF808E0C75ABE45BFD1D9E7BEF831
:1031100004E0C75ABE45B2D1D3E700BF8094002077
:1031200064940020D49100202DE9F04390F85A4295
:1031300090F8593204EB840E0EEB8E0E00EB8E0EDF
:103140004FF0640C0CFB04FC9EF8047003EBC3040A
:103150000CEB44045E1C0444BE4283B004F10A0537
:103160003CD0BB4238BF07F1FF382DD25E1C06EBC6
:10317000C6040CEB4404984500EB04092B8912D0DB
:10318000B9F810500133AB4217D0013DADF80650ED
:10319000ADF8043000230B70104601A9FFF754FF6F
:1031A00003B0BDE8F083BEF80840A34212D001335B
:1031B000ADF80430ADF80640ECE709F10A05F3B2CA
:1031C0009F4280F85932D1D8012300200B7003B000
:1031D000BDE8F083002508F10106F0E72B89BEF871
:1031E00008008342F0D00133ADF80430ADF806009A
:1031F000D0E700BF68B170B40749084A084E094DCE
:103200001060012400230C7033602B60184670BCE2
:1032100070470E23184670477C940020D4910020FC
:10322000809400206094002020B12F4B1B781BB9A4
:10323000082070470E20704770B42C4C2C4B22682D
:10324000002A46D081789D788D4220D0012A49D924
:103250009D79274E8D4237D0022A43D09D7A244E45
:103260008D422CD0032A3DD09D7B214E8D4221D012
:10327000042A37D09D7C1E4E8D4216D0052A31D0AF
:103280009D7D1B4E8D420BD0042070BC70471E8864
:103290000588AE42DAD11749096809B30020F4E77E
:1032A000B58A01888D42EFD1F5E7368A0588AE42AE
:1032B000E4D1F0E7B6890588AE42D9D1EBE736898B
:1032C0000588AE42CED1E6E7B6880588AE42C3D1C6
:1032D000E1E70121006843F8220021600020D4E7E3
:1032E000052AD1D8511CF5E77C9400208094002059
:1032F00064940020D491002070B138B5144B1B7831
:103300000BB9082038BD134B1B68002BF9D090F87F
:103310005B421CB1112038BD0E2070470E4A0F4D84
:1033200003461068A3F85E12186083F85C420846F2
:1033300083F85A4283F859421A4601212C60FFF75C
:103340007FFE0028E7D1012283F85B2238BD00BF51
:103350007C940020809400206494002060940020DD
:1033600090B389B3884B1B7873B32DE9F04F0B886A
:10337000113BA1B005460C46222B00F2D780DFE8B6
:1033800013F03202D500D500D500D500D500D50008
:10339000D500D500D500D500D500D500D500D50085
:1033A000D500D500D500D500D500D500D500D50075
:1033B000D500D500D500D500D500D500D500D50065
:1033C000D701D5000B01D8007047002685F8596257
:1033D000A2880DF117012846FFF7A6FE002840F04D
:1033E00077849DF81730002B00F0A080DFF8A481CF
:1033F000B4F804E0D8F8007095F85A12002F00F0E5
:10340000B48501EB810303EB83039B00EA185F4E55
:103410009278B078904200F05685012F40F2C7852F
:10342000B079DFF868C1904200F05485022F1DD0BA
:10343000B07ADFF858C1904200F03E85032F15D0D6
:10344000B07BDFF848C1904200F02F85042F0DD0EB
:10345000B07CDFF838C1904200F02085052F05D000
:10346000B07DDFF828C1904200F0A682744695F83E
:103470005C320133DBB2BB4285F85C3280F0AB8159
:1034800095F85A22DFF804810132D2B2642312FB8C
:1034900003F105EB010E56F8220085F85A224FF091
:1034A000000985F8599203FB0252685001218EF8F9
:1034B00004902046FFF7C4FD002837D095F85A2223
:1034C00085F85B9212FB03F3EA1898F802109278E1
:1034D000914200F06585012F24D096F806E02B4933
:1034E000964500F07D85022F1CD096F80AE027490A
:1034F000964500F06E85032F14D096F80EE0234910
:10350000964500F05F85042F0CD096F812E01F4915
:10351000964500F05085052F04D0B67D1B49964294
:1035200000F02A851A4B03225C801A7021B0BDE896
:10353000F08F8A88B0F85E329A42F7D1C88895F841
:10354000597295F85A12002840F06A816389002B5D
:1035500000F06681642303FB01F307EBC70603EB6E
:1035600046062E442246D389A3F52453082B00F2A5
:10357000ED81DFE813F0E901E501E201EB01EB0188
:10358000EB01EB01EB0142017C94002064940020EC
:10359000D8910020809400208A88B0F85E329A4248
:1035A000C4D1CB88002B7FF410AF90F85AE2897A0F
:1035B0000EEB8E0606EB860600EB86063379194481
:1035C0000529D5BFC9B205220A4611469342317179
:1035D0007DD22246642000FB0EF003EBC30152F8BB
:1035E0000C8F00EB41012944D2F804C0C1F80EC091
:1035F000C1F80A8012894A8200228A82CA820A831A
:103600004A8331795F1C8F4280F09D8207EBC701AE
:10361000274600EB410157F8169F2944D7F804804C
:10362000C1F80E80C1F80A903F894F828A82CA820F
:103630000A834A8331799F1C8F4280F0848207EB92
:10364000C701274600EB410157F8209F2944D7F8CE
:103650000480C1F80E80C1F80A903F894F828A82A7
:10366000CA820A834A833179DF1C8F4280F06B82E1
:1036700007EBC701274600EB410157F82A9F294471
:10368000D7F80480C1F80E80C1F80A903F894F82B4
:103690008A82CA820A834A8331791F1D8F4280F051
:1036A000528207EBC701274600EB410157F8348FE0
:1036B0002944D7F804C0C1F80EC0C1F80A803F8978
:1036C0004F828A82CA820A834A833179053364220F
:1036D000013B02FB0EFE03EBC3030EEB43032B4443
:1036E00032895B8A9342BFF470AE05293FF46DAE18
:1036F00085F85912A088002940F07183F388328937
:10370000ADF81A2006A9ADF81830FFF79BFC002889
:103710003FF40CAF002385F85B320146A2882846AF
:10372000FFF794FCBF4BA2885A8003221A70FDE673
:10373000B1F804E0B0F85E3273457FF4F7AECA88A2
:1037400090F85A12002A00F07781DFF8E482D8F866
:103750000070002F00F0CD8301EB810303EB8303A6
:103760009B00C218B04E9278B078904200F0278249
:10377000012F40F26883B079DFF8ACC2904200F0CC
:103780002582022F1DD0B07ADFF89CC2904200F053
:103790002D82032F15D0B07BDFF88CC2904200F051
:1037A0001D82042F0DD0B07CDFF87CC2904200F067
:1037B000FF81052F05D0B07DDFF86CC2904200F08C
:1037C000C780744695F85C320133DBB2BB4285F8A2
:1037D0005C32C0F0BA81934B032100225C801970E7
:1037E00085F85B22A2E68B88B0F85E229A427FF4CD
:1037F0009DAE002380F85B3298E6B2F80CE0B38A05
:10380000A6F81AE02BB1F38A1BB1338B0BB1738B83
:1038100033B963890130984202F10602FFF4A3AE86
:10382000642202FB01527B1C1279002693428DF820
:10383000176040F0768101238DF81730DFF8F081B2
:10384000B4F804E0D8F80070002F00F08E836422F2
:1038500002FB01F2AB18744E9B78B078984200F0EE
:10386000B782012F40F2EF82B079DFF8BCC19842F5
:1038700000F08982022FA4D0B07ADFF8ACC1984260
:1038800000F09882032F9CD0B07BDFF89CC1984257
:1038900000F08082042F94D0B07CDFF88CC1984275
:1038A00000F08F82052F8CD0B07DDFF87CC198426C
:1038B00087D1BCF81400AB5A984282D15B4B1B688D
:1038C0000393002B3FF47DAFDFF868A1DAF8009096
:1038D000B9F1050F3FF675AF524A01926C2303FB15
:1038E00009F302EB030B642202FB01510BF104000C
:1038F000ABF802E0029303F024FB039BCBF86830A3
:1039000009F101010198029BCAF800100022B94296
:10391000C2544FD181469346D9F8683048469847FB
:10392000D8F800700BF1010BBB4509F16C09F3D31A
:103930000023A488CAF8003044E79389B38261E782
:1039400093893383B38A5DE79389F382B38A59E716
:10395000BCF81420EB5A9A427FF433AF334B1B6808
:103960000393002B3FF42DAFDFF8C8A0DAF80090E6
:10397000B9F1050F3FF625AF2A4B01934FF06C0BC1
:103980000BFB09FB5B44642202FB0151181DA3F8E9
:1039900002E0029303F0D5FA029B0398986609F1BE
:1039A0000102019BCAF800200221BA4203F80B1061
:1039B00000F07E81A48805E7BCF81420EB5A9A42F7
:1039C0007FF454AD194B1B680393002B3FF44EADAD
:1039D000DFF860A0DAF80090B9F1050F3FF646ADC8
:1039E000104B01936C2202FB09F203EB020B0292D3
:1039F000642202FB01510BF10400ABF802E003F07A
:103A0000A0FA039BCBF8683009F10101019B0298F1
:103A1000CAF800100022B9421A5400F09182A4881A
:103A200025E500BFD891002064940020D4910020A7
:103A3000809400206094002001EB810303EB83035A
:103A40009B00E268C25003442269C3F8062090F844
:103A50005922A088002A40F09D80DA881B89ADF8A1
:103A60001A3006A9ADF81820FFF7ECFA00283FF449
:103A70005DADCC4B95F85A221F68002385F85B3268
:103A8000A188B7B302EB820202EB82029300EA182C
:103A9000C54E927896F802E0964500F0CC81012F51
:103AA00027D996F806E0DFF800C3964500F0BB8101
:103AB000022F1ED096F80AE0DFF8ECC2964500F01F
:103AC000AA81032F15D096F80EE0DFF8DCC29645E8
:103AD00000F09981042F0CD096F812E0DFF8C8C2EC
:103AE000964500F08881052F03D0B67DAE4F9642F3
:103AF00005D00B46AD4A03215380117016E5BA8AF2
:103B0000EB5A9A42F5D1AA4B1A68002AF1D0012348
:103B100007908DF81830ADF81A1006A89047A388C2
:103B2000E8E785F85932A2880DF117012846FFF71A
:103B3000FBFA002861D19DF81730002B3FF4F6AC5A
:103B400095F85A127AE63B46C1E595F85A320133A8
:103B5000DBB203EB830101EB810189006F1856F89A
:103B6000230085F85A320026642285F8596202FB48
:103B70000352685001213E712046FFF761FA002888
:103B80003FF4D4AC014685F85B6228462246FFF735
:103B90005DFAC7E4013AD2B2642602EBC20206FB28
:103BA00001F101EB42022A44528A013292B255E7F6
:103BB000BCF810C0E85A84457FF4FBADCEE635F87A
:103BC00003C0308884457FF4D3ADC7E6BCF8040059
:103BD00035F803C084457FF4D4ADBFE6BCF80C00D3
:103BE00035F803C084457FF4DCADB7E6BCF808C007
:103BF000E85A84457FF4CDADB0E66A4B85F85B6248
:103C00001F68A18895F85A22002F3FF472AF02EB8B
:103C1000820202EB82029300EA18634E927896F8D1
:103C200002E0964500F03281012F7FF662AF96F8F0
:103C300006E0DFF874C1964500F02081022F3FF4C2
:103C400058AF96F80AE0DFF860C1964500F00E81A3
:103C5000032F3FF44EAF96F80EE0DFF84CC19645C7
:103C600000F0FC80042F3FF444AF96F812E0DFF838
:103C700038C1964500F0EA80052F3FF43AAFB67D93
:103C8000494F96427FF435AFBA8AEB5A9A427FF495
:103C900030AF474B1A68002A3FF42BAF012307903F
:103CA0008DF81830ADF81A1006A89047A38821E7C0
:103CB00099464FF0000BD9F8683048469847D8F835
:103CC00000700BF1010BBB4509F16C09F3D32FE632
:103CD000344B85F85B621F6895F85A22A388002F41
:103CE0003FF408AF02EB820202EB82029200A918B5
:103CF0002D4E897896F802E08E4500F01981012F4B
:103D00007FF6F8AE96F806E0DFF89CC08E4500F02E
:103D10000781022F3FF4EEAE96F80AE0DFF888C084
:103D20008E4500F0F580032F3FF4E4AE96F80EE0E8
:103D3000DFF874C08E4500F0E380042F3FF4DAAE64
:103D400096F812E0DFF860C08E4500F0CA80052FBB
:103D50003FF4D0AEB67D144F8E427FF4CBAEB98A1D
:103D6000AA5A91427FF4C6AE114A1268002A3FF463
:103D7000C1AE0121ADF81A3007908DF8181006A8D1
:103D80009047A388B6E6BCF804C0A85A84457FF4DF
:103D900071AD93E5BCF80CC0A85A84457FF47AADA8
:103DA0008CE500BF8094002064940020D89100200E
:103DB000D4910020BCF808C0A85A84457FF462ADB5
:103DC0007CE5BCF810C0A85A84457FF46BAD75E55E
:103DD000B6F800C0A85A84457FF443AD6EE54B1E8B
:103DE000DBB203EBC3030EEB430E05EB0E035B8A62
:103DF00001339BB283E4BCF810E035F803C0F4450E
:103E00007FF471AE7FE6BCF80CE035F803C0F445F2
:103E10007FF460AE77E6BCF808E035F803C0F445FF
:103E20007FF44FAE6FE6BCF804C035F803E0F4450C
:103E30007FF43EAE67E635F803C0B6F800E0F4451F
:103E40007FF42DAE5FE674460127BBE4BCF810C0DA
:103E500035F803E0F4457FF40FAF1AE7BCF80CC067
:103E600035F803E0F4457FF4FDAE12E7BCF808C076
:103E700035F803E0F4457FF4EBAE0AE7BCF804C084
:103E800035F803E0F4457FF4D9AE02E7B6F800C098
:103E900035F803E0F4457FF4C7AEFAE6BCF810C08D
:103EA000E85A84457FF4DAAA8CE5BCF80CC0E85ADD
:103EB00084457FF4CBAA85E5BCF808C0E85A844560
:103EC0007FF4BCAA7EE5B6F800C0E85A84457FF4CA
:103ED000A4AA77E5BCF804C0E85A84457FF4A6AAF2
:103EE00070E5BCF810E035F802C0F4457FF42FAF60
:103EF0003AE790F85C2201321C4680F85C226AE4C2
:103F0000BCF80CC035F802E0F4457FF416AF2BE79F
:103F1000BCF808C035F802E0F4457FF404AF23E7AD
:103F2000BCF804E035F802C0F4457FF4F2AE1BE7BC
:103F3000B6F800C035F802E0F4457FF4E0AE13E7D0
:103F4000DDF804909346D9F8683048469847D8F889
:103F500000700BF1010BBB4509F16C09F3D3002391
:103F6000A488CAF80030FFF782BA95F85C320133B2
:103F7000744685F85C322EE48A8AEB5A9A427FF4C2
:103F8000D1AA1B4B1B68002B3FF4CCAA012207903F
:103F9000ADF81A408DF8182006A89847FFF7C2BA66
:103FA000B8F800E0E95A8E457FF495AAE9E774462F
:103FB0000127FFF75CBAB1F810E0E95A8E457FF4AB
:103FC000AAAADEE7B1F80CE0E95A8E457FF49BAA75
:103FD000D7E7B1F808E0E95A8E457FF48CAAD0E71C
:103FE000B1F804E0E95A8E457FF47DAAC9E700BF25
:103FF000D49100208FDF70479EDF7047ADDF7047A0
:10400000C0B170B40346F7220020FB2417261B25FD
:1040100099611A805A80DA80DA811C711C731C75D0
:104020001E811E829872D8729874D8745D735D7503
:1040300070BC70470E20704740B1A1F11703E02B10
:1040400001D9072070470180002070470E2070477B
:1040500040B1A1F11703E02B01D90720704741803F
:10406000002070470E20704738B14FF6FF73994219
:1040700005D0012909D9072070470E207047FB2A77
:1040800028BFFB2202710020704710B5034603EBE6
:10409000C10382B000241A73084693B269462246CF
:1040A000ADF80030ADF802300194FFF7A3FF02B085
:1040B00010BD00BFF0B58D88012D83B001D903B0CC
:1040C000F0BD0B88212B044675D01BD93A2B00F08C
:1040D000B280552B00F08980222B25D0EE00A31949
:1040E0009B7A002BEBD0A3192846D988FFF784FFD1
:1040F00000285CD01128E2D002466C49012001F072
:1041000061FBDCE7102B25D0112BE7D100EBC503B9
:104110000022F7251724FB201B21DD801C8118734A
:1041200059739A72DA72CAE7EE0087190A7A7A73BB
:104130008369002B39D000214DF67A2EADF804109A
:10414000ADF8025069468DF80420ADF800E09847BC
:10415000BB7AC6E7EE00871903793B73CB7B012B53
:1041600000F08680022B00F08C80F9883B898B421E
:10417000C0F08A803B7B7A7B9A4216D24FF0000EC9
:104180009BB2724669462846ADF80030ADF8023061
:10419000ADF804E0ADF806E0FFF72CFF28B10346C8
:1041A0002A464349012001F06BFBBB7A99E70122C3
:1041B0009872DA7283E7EE0087190A7A3B7B002057
:1041C000934228BF13460190024669462846ADF83F
:1041D0000030ADF80230FFF70DFF0028E5D00246B1
:1041E0003449012001F0EEFADFE7EE00CB888719B1
:1041F000172BF98838BF17238B4228BF0B460022A4
:104200003B81BA722846FFF7F9FE002833D1FB7ACA
:10421000002BCAD1A369002BC7D040F677213A8979
:10422000ADF80010ADF80250ADF804206946204604
:104230009847BB7A55E700EBC5064A89F388934255
:1042400028BF1346172B38BF1723338182695AB111
:10425000F17A49B140F67721ADF80010ADF802507F
:10426000ADF80430694690470023F372B37226E735
:104270000188F9807AE702460F49012001F0A2FA8D
:10428000C5E74188F98071E72846FFF7B5FE10B908
:104290000123FB726EE7112802D10123BB7269E78B
:1042A00002460249012001F08DFA63E7B889020055
:1042B000148A0200E08A0200888A020010B51A4BB4
:1042C0001A6882B0A2B100221A601B6800934FF0F6
:1042D00080430122154C0099C3F80823A36862703B
:1042E00033B10CCB0020A2609847A368002BF8D113
:1042F0000F4B1A68AAB100221A601B6801934FF095
:1043000080430222094C0199C3F808232369012242
:10431000A27033B10CCB0120226198472369002B96
:10432000F8D102B010BD00BF00010040849400200D
:104330000401004058B910B5054CA36833B10CCB4B
:104340000020A2609847A368002BF8D110BD7047E9
:104350008494002010B582B002A80023144C00F809
:10436000013D02F00FF9237893B9124A6360E360CC
:104370001068A36010F00100236114D002F06EFBFE
:1043800020B94FF080430122C3F818250123237080
:10439000E3689DF8070001330122E360A27002F098
:1043A00019F902B010BD072100F006F8E6E700BFDA
:1043B0008494002000E100E0002810B418DB00F134
:1043C000604303F561434901C9B283F80013C3B2E6
:1043D0004009800000F1604000F5614003F01F02D9
:1043E00001239340C0F8803103605DF8044B7047AF
:1043F000C3B2044A03F00F0449012244C9B2117642
:10440000E6E700BFFCEC00E02DE9F04387B00026B2
:10441000C94B01961A68012A00F00482C74B1A683A
:10442000012A00F0F181C64B1A68012A00F0DE81F2
:10443000C44B1A68012A00F0CB81C34B1A68012AC9
:1044400000F0B881C14B1A68012A00F0A581C04B69
:104450001A68012A00F09281BE4B1A68012A00F006
:104460007F81BD4B1A68012A00F0598116F0FF0FB9
:104470001AD0BA4F01250024A30003F180432E4235
:1044800003F5C0434FEA45050BD0D3F8100557F8A4
:104490002420D3F81015C0F30420C1F3014102B168
:1044A00090470134082CE7D1002E02DB07B0BDE8AD
:1044B000F083AA4C00224FF0FF3327460292039369
:1044C00001260DF1080894F950104D1C2DD0C9B2E9
:1044D00021F0C00006AB4FEAD00E03EB0E0201F054
:1044E000070312F80CCC06FA03F31CEA030F1CD0E6
:1044F0003D18890995F9305057F82590B9F1000F0A
:1045000000F0E880032900F0E8804FEA800E0EF109
:10451000A04E12F8145CDEF800271D40C2F30142E1
:1045200040F0B580032A00F0A281002594F95110D3
:10453000481C2FD0C9B221F0C00006AB4FEAD00E04
:1045400003EB0E0201F0070312F80CCC06FA03F39A
:104550001CEA030F1ED007EB000C89099CF930C040
:1045600057F82C90B9F1000F00F0C680032900F035
:10457000C6804FEA800E0EF1A04E12F814CCDEF881
:1045800000271CEA030FC2F3014240F08D80032A8A
:1045900000F0928194F952104A1C2ED0C9B221F039
:1045A000C00006AB4FEAD00E03EB0E0201F007038A
:1045B00012F80CCC06FA03F31CEA030F1DD007EB2C
:1045C000000C89099CF930C057F82C90B9F1000F04
:1045D00000F08980032900F088804FEA800E0EF1F8
:1045E000A04E12F814CCDEF800271CEA030FC2F329
:1045F000014265D1032A00F04C8194F953104B1C01
:104600002CD0C9B221F0C00006AB4FEAD00E03EBAC
:104610000E0201F0070312F80CCC06FA03F31CEAB1
:10462000030F1BD007EB000C89099CF930C057F829
:104630002C90B9F1000F69D0032969D04FEA800EA0
:104640000EF1A04E12F814CCDEF800271CEA030F7E
:10465000C2F3014211D1032A00F0F080002D3FF493
:1046600025AF4FF0A043019AD3F8103593423FF4A1
:104670001DAF029A0193039225E7022AEED1032986
:1046800000F02D81B9F1000FE8D0C847E6E7022A13
:104690007FF44BAF032900F02B810025B9F1000F07
:1046A0003FF444AFC84741E7022A7FF473AF0329C0
:1046B00000F01881B9F1000F3FF46CAFC84769E70B
:1046C000022A9AD1032900F01081B9F1000F94D089
:1046D000C84792E703297FF428AF18F80E501D430E
:1046E00008F80E5011E7032987D118F80EC04CEADC
:1046F000030C08F80EC070E703297FF44BAF18F8DD
:104700000EC04CEA030C08F80EC032E70329A5D10D
:1047100018F80EC04CEA030C08F80EC08EE7002211
:104720001A601B6805934FF0A043059AD3F8103523
:10473000019346F0004699E60061004004610040A4
:10474000086100400C6100401061004014610040AD
:10475000186100401C6100407C610040989400207A
:10476000654AD2F8042317067FF57BAE00221A6053
:104770001B680493049B46F0800672E65E4AD2F8FA
:10478000042352067FF568AE00221A601B6804936A
:10479000049B46F040065FE6574AD2F80423910690
:1047A0007FF555AE00221A601B680493049B46F007
:1047B00020064CE6504AD2F80423D0067FF542AEDC
:1047C00000221A601B680493049B46F0100639E629
:1047D000494AD2F8042314077FF52FAE00221A604D
:1047E0001B680493049B46F0080626E6424AD2F86A
:1047F000042355077FF51CAE00221A601B68049342
:10480000049B46F0040613E63B4AD2F804239707BC
:104810007FF509AE00221A601B680493049B46F0E2
:10482000020600E63449D1F8041311F001011CD04E
:104830001E601B680493049B1646EFE503297FF472
:1048400021AF4FF40033DEF8002722F44032CEF8D7
:104850000027DEF8002701351343EDB2CEF800370C
:10486000B9F1000F7FF411AFFBE60E46D6E5032940
:104870007FF414AF4FF40033DEF8002722F4403207
:10488000CEF80027DEF800271343CEF800370125C5
:1048900004E703297FF419AF4FF40033DEF8002753
:1048A00022F44032CEF80027DEF80027013513430A
:1048B000EDB2CEF8003708E703297FF4FBAE4FF4E2
:1048C0000033DEF8002722F44032CEF80027DEF86D
:1048D000002701351343EDB2CEF80037EAE64FF476
:1048E0004033B0E74FF44033EBE74FF44033D5E7C4
:1048F0004FF44033C0E700BF006000405AB1F8B544
:104900004379114F114D03EB430445F823203C5DDF
:104910001CB10820F8BD0720704705460E4690F9E7
:1049200004008978FFF748FD2B683288C3F8082512
:104930006B79F178357903EB4303FA180126FE54BD
:10494000557091702046F8BDF4940020F09400203A
:104950000368044A01211960437903EB43030221F0
:10496000D1547047F49400200368044901225A602E
:10497000437903EB4303CA54704700BFF49400200B
:1049800002680123C2F848330268C2F8083370474E
:1049900010B5474BD3F80423D10384B003D5454A5F
:1049A0001168002945D1424BD3F80423920303D563
:1049B000414A116800294BD13D4BD3F804235403DD
:1049C00003D53E4A1168002952D1394BD3F804234C
:1049D000100303D53A4A1168002959D1344BD3F852
:1049E0000423D10702D5D3F80021B2B9304BD3F854
:1049F0000423920702D5D3F804210AB904B010BDEC
:104A00000022C3F804212F4AD3F804310193052072
:104A10001368019A984704B010BD0022C3F8002122
:104A2000284AD3F80031029304201368029A984769
:104A3000DCE74FF480310020C3F84813214CC3F861
:104A400008131060136803932368039A9847AAE732
:104A50004FF400310024C3F848131A48C3F8081370
:104A60001460136803930368039A01209847A3E72F
:104A70004FF480210024C3F848131248C3F80813E8
:104A80001460136803930368039A022098479CE715
:104A90004FF400210024C3F848130A48C3F8081350
:104AA0001460136803930368039A0320984795E7FB
:104AB000004002404041024044410240484102401F
:104AC0004C410240F0940020F0B50479724E64012C
