:020000021000EC
:10F0000000000120E1450200094602000B46020013
:10F010000D4602000F4602001146020000000000EB
:10F020000000000000000000000000001346020085
:10F0300015460200000000001746020019460200B3
:10F04000913302001B460200F13D02001B46020004
:10F050001B4602001B460200DD3402001B46020074
:10F060001B4602001B4602001B4602001B46020014
:10F070001B4602001B4602001B4602001B46020004
:10F080001B460200FD0602001B4602001B46020052
:10F090009D0702001B460200ED4A02001B460200CB
:10F0A0001B4602001B4602001B4602001B460200D4
:10F0B0001B4602001B46020000000000000000008A
:10F0C0001B4602001B4602001B4602001B460200B4
:10F0D000D13902001B4602001B460200000000005E
:10F0E0000000000000000000000000000000000020
:10F0F0000000000000000000000000000000000010
:10F1000000000000000000000000000000000000FF
:10F1100000000000000000000000000000000000EF
:10F1200000000000000000000000000000000000DF
:10F1300000000000000000000000000000000000CF
:10F1400000000000000000000000000000000000BF
:10F1500000000000000000000000000000000000AF
:10F16000000000000000000000000000000000009F
:10F17000000000000000000000000000000000008F
:10F18000000000000000000000000000000000007F
:10F19000000000000000000000000000000000006F
:10F1A000000000000000000000000000000000005F
:10F1B000000000000000000000000000000000004F
:10F1C000000000000000000000000000000000003F
:10F1D000000000000000000000000000000000002F
:10F1E000000000000000000000000000000000001F
:10F1F000000000000000000000000000000000000F
:10F2000010B5054C237833B9044B13B10448AFF360
:10F2100000800123237010BD347B0020000000001B
:10F22000D0560200084B10B51BB108490848AFF38F
:10F2300000800848036803B910BD074B002BFBD0C2
:10F24000BDE81040184700BF00000000387B0020D8
:10F25000D0560200307B002000000000154B002B30
:10F2600008BF134B9D46A3F5803A00218B460F46FD
:10F270001348144A121A00F065F80F4B002B00D007
:10F2800098470E4B002B00D0984700200021040027
:10F290000D000D48002802D00C48AFF3008000F0AC
:10F2A0002BF82000290000F099F800F011F800BFB9
:10F2B0000000080000000120000000000000000025
:10F2C000347B0020D89800200000000000000000DF
:10F2D00008B5074B044613B10021AFF30080054B7E
:10F2E0001868836A03B19847204600F033F800BFDE
:10F2F00000000000C853020070B50E4B0E4CE41A1B
:10F30000A41000251E46A54204D056F82530984783
:10F310000135F8E706F04CF8084C094BE41AA41044
:10F3200000251E46A54204D056F8253098470135E1
:10F33000F8E770BD287B0020287B00202C7B002074
:10F34000287B002002440346934202D003F8011BAD
:10F35000FAE77047FEE700BF82B002AB03E90300A3
:10F3600002B07047704700BFF0B591B007AE3046AD
:10F3700024220021FFF7E6FF48276925592492201F
:10F380005D21E622104B8DF82D508DF82E408DF822
:10F390002C708DF82F008DF830108DF831200E93E1
:10F3A0000BAD0FCD6C460FC408482B680849094ABD
:10F3B000089009910A92236096E80F0001F0D2F8B4
:10F3C000054B187011B0F0BD0000F04059F301007A
:10F3D00065F30100CC530200107B002008B50748FC
:10F3E00000F07EFF01F07EFEFFF7BEFF002001F07F
:10F3F00061FE01F04DF9002008BD00BFD0530200AE
:10F4000073DF704774DF70478ADF70478BDF7047A8
:10F4100000487047205402000021014802F0E2B881
:10F42000E453020010B501210448FFF7E9FF044648
:10F4300010B9012001F03EFE204610BDD453020059
:10F4400008B5FFF7DFFF0120BDE8084001F03EBE30
:10F4500010B50448FFF7D8FF0446022001F02AFE49
:10F46000204610BD2054020010B5FFF7CFFF044620
:10F47000022001F02BFE204610BD00BF30B4CD7B32
:10F48000ED0811D04B7C0A7C082B4FF0000304D10F
:10F490000FE0547C127C082C0BD001321344AB4299
:10F4A00001EB0302F5D300252B468580036030BCB9
:10F4B0007047042AF7D112330B440325F5E700BF48
:10F4C000002380F8A03080F8A13080F8A230704787
:10F4D00084B0F0B4064690F8A20005AC84E80E00B3
:10F4E000D0B90FCC96F8A050276805EB850406EB41
:10F4F00084040FC4276096F8A130013505F0070594
:10F500005B1BB3FA83F35B0986F8A05086F8A23040
:10F51000F0BC012004B07047F0BC002004B070477C
:10F5200090F8A13090F8A0209A4204D003EB830316
:10F5300000EB8300704790F8A220002AF6D1104615
:10F54000704700BF90F8A23073B990F8A13090F8DE
:10F55000A0209A420BD0013303F00703002280F869
:10F56000A13080F8A220704790F8A130F3E77047EF
:10F5700090F8A23033B990F8A03090F8A1001B1A8F
:10F5800018BF0123184670477ADF70478CDF704739
:10F59000704700BF704700BF30B4044C154625804B
:10F5A00022466580012330BCFFF7F0BF147B0020AA
:10F5B00070B50E4888B0FFF7E7FF034698B94FF4DF
:10F5C0008042022601250A4C0A49049301A80593AA
:10F5D0000193029203928DF810608DF814500694F6
:10F5E000079102F0F9FA08B070BD00BF147B00204B
:10F5F00091F5010095F501006DDF704775DF7047EB
:10F6000076DF704777DF70477CDF704788DF7047B1
:10F610009ADF70479CDF70479DDF7047A0DF70471F
:10F62000A9DF704769DF704762DF704766DF7047A8
:10F6300067DF70473EDF70474B4B42881B7833B320
:10F64000F0B54A498C8A944289B021D0012B1CD94B
:10F65000B1F84843944276D0022B16D0B1F87C46DC
:10F66000944278D0032B10D0B1F8B049944270D0B6
:10F67000042B0AD0B1F8E44C944268D0052B04D096
:10F6800041F21803CB5A93425FD009B0F0BD7047E6
:10F6900000250378002BF8D1848841F2235294424C
:10F6A000F3D1334A84791278A242EED1047A012C44
:10F6B000EBD1C78941F22456B742E6D1067C964287
:10F6C000E3D14FF44D7202FB05F54E19B0F818E086
:10F6D000A6F876E2C18AA6F87812022204AFADF845
:10F6E0001830ADF81A20079708A947888DF81440FC
:10F6F00011E903008DE803008DF811308DF80E40FC
:10F70000ADF816E006F52374ADF80C708DF81020F6
:10F7100003AB0ECB2046B782FFF7DAFE2046FFF799
:10F7200027FF0028B1D02046FFF7FAFE8278A2B169
:10F7300000F108010088FFF76DFF0028A5D12046E1
:10F74000FFF700FFA1E70125A3E70525A1E70425B1
:10F750009FE703259DE702259BE781880088FFF747
:10F7600057FF0028EBD090E7747B0020AC7C002092
:10F77000A87C00200A8840F677239A4229D11F4BA3
:10F780004A881B782BB330B41D48848A944221D018
:10F79000012B1DD9B0F8484394422DD0022B17D02D
:10F7A000B0F87C46944225D0032B11D0B0F8B04974
:10F7B00094421DD0042B0BD0B0F8E45C104C954261
:10F7C00014D0052B04D041F21803E35A93420BD016
:10F7D00030BC704700228B884FF44D7101FB020052
:10F7E000033BA0F88032F3E70522F4E70422F2E7B6
:10F7F0000322F0E70222EEE70122ECE7747B00200F
:10F80000AC7C002010B5204C2178B1B10139CAB2CE
:10F810001E4B4FF44D7102FB011119444FF6FF705E
:10F8200093F87A222AB193F87B2212B19A8A824203
:10F8300022D003F54D738B42F2D1FFF715FE2178EC
:10F84000B1B10139CAB2114B4FF44D7102FB011134
:10F8500019444FF6FF7093F87A222AB993F87B2265
:10F8600012B19A8A82420AD003F54D738B42F2D1CB
:10F87000BDE81040FFF7E4BDFFF7EAFDDFE7BDE8B4
:10F880001040FFF7CFBD00BF747B0020AC7C002090
:10F890002DE9F04F0388013B83B00446562B00F25C
:10F8A000CA83DFE813F0BD00C803C803C803C80358
:10F8B000C803C803C803C803C803C803C803C803F0
:10F8C000C803C803C5005E01C803C803C803C80352
:10F8D000C803C803C803C803C803C803C803940106
:10F8E000C803E901C803C803C803C803C803C803A1
:10F8F000C803C803C803C803C803C803C803C803B0
:10F90000C803C803C803C803C803C803C803C8039F
:10F910003103C803E7026D03C8035700C803C803D7
:10F92000C803C803C803C803C803C803C803C8037F
:10F93000C803C803C803C803C803C803C803C8036F
:10F94000C803C8034102C80393029D02C803C80349
:10F950005700FB01C54D80881321FFF751FE2B781E
:10F96000A288002B52D0C24EB08A824200F09B8304
:10F97000012B22D9B6F84873BD49974200F0A48301
:10F98000022B1AD0B1F87C76974200F0A183032BAA
:10F9900013D0B1F8B079974200F09883042B0CD0C3
:10F9A000B1F8E47C974200F09983052B05D041F231
:10F9B0001807C95B914200F08F83A288824200F051
:10F9C0004A83012B22D9B6F84803A949904200F096
:10F9D0008183022B1AD0B1F87C06904200F0868316
:10F9E000032B13D0B1F8B009904200F07D83042BB3
:10F9F0000CD0B1F8E41C914200F07483052B05D0C3
:10FA000041F21803F35A934200F06A83204602F051
:10FA10001DF92146974803F0B7FB03B0BDE8F08F0E
:10FA2000924D80880021FFF701FE2B78A28898E78D
:10FA30008E4D2B7800F10809002B00F059838C4E75
:10FA40004FF00008B3464FF44D7A0BE0484600F003
:10FA500023FE08F1010388B92A785FFA83F842454A
:10FA600040F246830AFB08F7F1190531484600F0D9
:10FA700013FE0BEB07010C310028E7D0E27B4FF4BB
:10FA80004D73022A03FB08630CBF0122002283F896
:10FA90007A22A2889A8240F0D7824FF44D7707FBF2
:10FAA00008F706EB070909F1160937440021484613
:10FAB0004FF41872FFF746FC4846B98A02F086FCFC
:10FAC000002840F0BC820246FF21B88AFFF79EFD65
:10FAD000002840F082812B78BBB1013BDBB24FF4B0
:10FAE0004D7103FB0111624B31444FF6FF7093F8E7
:10FAF0007A2232B193F87B221AB19A8A824200F0BC
:10FB0000088303F54D738B42F1D1FFF7ADFC2B78E1
:10FB1000BBB1013BDBB24FF44D7103FB0111544B00
:10FB200031444FF6FF7093F87A2232B993F87B2272
:10FB30001AB19A8A824200F0EF8203F54D738B422C
:10FB4000F1D1FFF77DFC4FF44D7303FB0866D6F847
:10FB50008832002B00F04181012098472B78A28841
:10FB6000FFE6424D82882B78002B3FF44FAF404E8A
:10FB7000B08A824200F0FF82012B40F2D282B6F8B6
:10FB80004813914200F05483022B3FF4F3AEB6F8D1
:10FB90007C16914200F06C83032B3FF4EBAEB6F879
:10FBA000B019914200F06183042B3FF4E3AEB6F844
:10FBB000E41C914200F05683052B3FF4DBAE41F28A
:10FBC0001803F35A934200F04A830623D2E600F169
:10FBD000080949466846FFF751FCBDF80430234D3B
:10FBE000002B00F0FA802B78DDF800A0002B00F04D
:10FBF000F5801F4E00274FF44D7804E02B78D7B2E4
:10FC00009F4280F0EB8008FB076B03220BF10100A1
:10FC1000514605F0ABFB7A1C0028EFD19BF87A32F5
:10FC2000002B00F0DA809BF87B32002B00F0D580AF
:10FC3000BBF814204FF6FF739A4240F0CE800BF1D0
:10FC400005084146484600F027FD002800F02383C0
:10FC5000FFF7DEFB4FF44D7303FB07660146B6F872
:10FC600030234846FFF798FCB7E000BF747B0020C4
:10FC7000AC7C0020507B002000F1080393E80300D7
:10FC80008DE80300BB4DBDF80020A088ADF8022030
:10FC90006946FFF7B3FC2B78A28862E6B54D8288EF
:10FCA0002B78002B3FF4B2AEB34EB08A824200F004
:10FCB0009F82012B40F23582B6F84813914200F042
:10FCC0009B82022B3FF456AEB6F87C16914200F0B0
:10FCD000A782032B3FF44EAEB6F8B019914200F064
:10FCE0009D82042B3FF446AEB6F8E41C914200F02E
:10FCF0009B82052B3FF43EAE41F21801715A9142AE
:10FD00007FF463AF05224FF44D7101FB02620027BF
:10FD1000D2F8881282F87C72002900F00082052057
:10FD200088472B78A2881CE6924D82882B78002B7E
:10FD30003FF46CAE904EB08A824200F01882012BE4
:10FD400040F2EF81B6F84813914200F06582022B31
:10FD50003FF410AEB6F87C16914200F05982032BA6
:10FD60003FF408AEB6F8B019914200F04F82042B70
:10FD70003FF400AEB6F8E41C914200F04582052B3A
:10FD80003FF4F8AD41F21801715A91427FF41DAF72
:10FD900005277A49B4F806E089888E457FF4E5ADF9
:10FDA000218A02297FF4E1AD04F11208404601F0F6
:10FDB000AFFF4FF44D7303FB076686F87E0260B910
:10FDC000404601F0A5FF2B78A288CAE50023808871
:10FDD000684D1A461946FFF723FC2B78A288C0E528
:10FDE000644D82882B78002B3FF410AE624EB08AAF
:10FDF000824200F0FF81012B40F29381B6F8481354
:10FE0000914200F0FB81022B3FF4B4ADB6F87C16B2
:10FE1000914200F0F781032B3FF4ACADB6F8B01976
:10FE2000914200F0ED81042B3FF4A4ADB6F8E41C40
:10FE3000914200F0FB81052B3FF49CAD41F218018B
:10FE4000715A91427FF4C1AE05214C4FB4F806E0DF
:10FE50003F88BE457FF489AD4FF44D7707FB0161C4
:10FE6000D1F8881200293FF480AD042088472B7810
:10FE7000A28876E53F4D82882B78002B3FF4C6ADF3
:10FE80003D4EB08A824200F07481012B40F24981DC
:10FE9000B6F84813914200F0C581022B3FF46AADD9
:10FEA000B6F87C16914200F0D081032B3FF462AD8E
:10FEB000B6F8B019914200F0C681042B3FF45AAD58
:10FEC000B6F8E41C914200F0C281052B3FF452AD1C
:10FED00041F21801715A91427FF477AE05214FF437
:10FEE0004D7707FB0161B4F80AE0B1F87672BE45C0
:10FEF0007FF43BADD1F8881200293FF436AD0220E3
:10FF000088472B78A2882CE51A4D82882B78002B05
:10FF10003FF427AD184EB18A914200F00681012BC3
:10FF200040F20181B6F84813914200F08681022B1D
:10FF30003FF417ADB6F87C16914200F07C81032B9C
:10FF40003FF40FADB6F8B019914200F07A81042B5E
:10FF50003FF407ADB6F8E41C914200F07081052B28
:10FF60003FF4FFAC41F21801715A914200F0528106
:10FF70000623F6E4747B0020AC7C00206C7B002020
:10FF8000C14D82882B78002B3FF4EBACBF4EB18A79
:10FF9000914200F0E880012B40F2C580B6F848039A
:10FFA000824200F07581022B3FF4DBACB6F87C0690
:10FFB000824200F06681032B3FF4D3ACB6F8B0095F
:10FFC000824200F05B81042B3FF4CBACB6F8E40C2A
:10FFD000824200F05081052B3FF4C3AC41F218017E
:10FFE000705A8242C4D14FF005084FF44D7707FB99
:10FFF0000867B4F80AE0B7F8781271457FF4B1AC3D
:020000022000DC
:1000000097F87E22E789ADF8047004F11007009795
:10001000002A40F01E814FF44D7202FB0866D6F8AC
:100020008422002A3FF4DAAE02AB13E903009047C2
:10003000A2882B7895E4944D82882B7891E4B88A35
:100040001321FFF7DDFA46E504F1080393E8030006
:1000500000F04EFB21E50023002A3FF4D7AC4FF41B
:100060004D7202FB036606F523763046FFF780FAF1
:1000700000283FF4CBAC3046FFF752FA82785AB1F1
:1000800000F108010088FFF7C5FA00287FF4BEAC34
:100090003046FFF757FAB9E481880088FFF7B8FACD
:1000A0000028F5D0B2E400234FF44D7000FB03604C
:1000B0002146163002F0BEF92B787449A288002B35
:1000C0003FF4A4AC888A79E40123EDE70323EBE74E
:1000D0000223E9E70123BFE70523E5E70423E3E77C
:1000E0000523B9E70423B7E70323B5E70223B3E702
:1000F00099F8052099F8043099F80610D9F800000D
:1001000043EA022343EA014100F0F2FA2B78A28885
:1001100027E4FFF79DF9FAE4FFF784F913E5A288D5
:1001200023E4012349E401231BE400214FF44D7033
:1001300000FB01616689B1F8780286427FF411AC58
:10014000D1F88462E189ADF8041004F11001009146
:10015000002E3FF406AC02AB13E90300B047A288BF
:100160002B78FFF7FEBB10464FF000083DE7002755
:100170000FE60021B3E64FF000084FF44D7303FB88
:1001800008F3F7184FF6FF73F422BB82002307F53C
:100190002370A7F88022A7F87632A7F8783287F87C
:1001A0007C3287F87E32FFF78BF997F87A0288B1B4
:1001B0000021FFF727FB4FF44D7303FB0866D6F8C9
:1001C0008832002B3FF409AE032098472B78A28891
:1001D000FFF7C7BB7B7ABA7AF97AD7F8050043EA0A
:1001E000022343EA014100F083FA97F87A02DFE73D
:1001F000002288E5002128E6012284E5012124E689
:10020000032122E6022120E60427C2E50327C0E5F8
:100210000227BEE5052189E70127BAE5032272E539
:10022000022270E501215AE604226CE504210CE665
:100230004FF00108A1E7022178E7012176E70421C8
:1002400074E7032172E7032149E6022147E604210E
:1002500045E6FFF7E1F900283FF4DDAEBEE54FF0DB
:1002600005088AE74FF0040887E74FF0030884E7A2
:100270004FF0020881E74FF00408B6E64FF003089C
:10028000B3E64FF00208B0E6747B0020AC7C00209F
:100290004FF00108A9E64146484600F0FDF9002864
:1002A0007FF4D6AC234600F07F4153F8080FCBF81B
:1002B00005009A889B79ABF809208BF80B309BF8E6
:1002C00009209BF80A309BF80BE0DBF8050042EAB6
:1002D000032343EA0E43194300F00AFAB8E400BFCF
:1002E000F0B593B0054600F07FFD034610B1184607
:1002F00013B0F0BD914A9249106804904FF498727F
:1003000004A804F09FFB002840F00B8112AC0023EE
:1003100044F8303D204604F001FC0028E8D10146B5
:100320000C220AA8FFF70EF803230AA9069A8DF8F3
:10033000283040208DF829308DF82A30FFF772F9E7
:100340000028D5D101460C220AA8FEF7FBFF0126A2
:10035000F723069A8DF828600AA92320ADF82A30E1
:10036000FFF760F90028C3D101460C220AA8FEF766
:10037000E9FF4FF4A0700623ADF82C00069A8DF823
:1003800028600AA920208DF82A30FFF74BF90028B1
:10039000AED101460C220AA8FEF7D4FF069A8DF8CA
:1003A00028600AA93046FFF73DF90028A0D1204671
:1003B00004F0BEFB00289BD1624804F08DFB0028AE
:1003C00096D19DF8003066F3030366F307132846C1
:1003D0008DF8003004F0E4FF032800F0A5805A48AF
:1003E00004F0DEFF584982B26846FFF70DF9002895
:1003F0007FF47EAFFFF7DCF800287FF479AF534934
:10040000534802F067FE00287FF472AFFFF704F84C
:1004100000287FF46DAF4F4801F056FF00287FF4AD
:1004200067AF4D4B4D4E186859689A68DB68254692
:100430000FC520463146FFF7F7F800287FF458AF84
:1004400041F223523378ADF8042001A88DF806302C
:1004500001F054FF00287FF44BAF01A90DF1020217
:100460000120FFF7DBF8044600287FF441AF014686
:1004700020220AA8FEF766FF9DF8353031788DF806
:100480002A1043F03A0641F224570123F725344A53
:10049000BDF80200ADF82E400AA98DF83560ADF820
:1004A0002870ADF82C508DF83B308DF839308DF830
:1004B000343001F031FC00287FF41AAF294624487B
:1004C00002F024FE00287FF413AF2946204802F0F2
:1004D00029FE00287FF40CAFFB224FF6FF711C4869
:1004E00002F02CFE00287FF403AF0146082204A886
:1004F000FEF728FF9DF8103004A943F00103022005
:100500008DF81030FFF794F8034600287FF4EFAE23
:10051000FFF778F800287FF4EBAE02A8FFF76CF83D
:10052000E6E603F0E9FFF1E6024629466846FFF7F2
:100530006BF800283FF45EAFDAE600BF28540200F3
:10054000787B002091F801003C54020075F701000F
:10055000507B002039F601002C540200A87C0020BA
:100560006C7B002084B02DE9F843464E357808AC0A
:10057000062D84E80F0007D09DF8203053B10B986A
:1005800004F00EFF032804D0BDE8F843FF2004B0B8
:1005900070473578DFF8F4904FF44D7707FB05F797
:1005A00009EB07044FF000084FF6FF71F4226B1CB3
:1005B00004F52370A182A4F88022A4F87682A4F81E
:1005C000788284F87C8284F87E823370FEF778FF2C
:1005D0006379099984F87B8203F0FE034FF00108E8
:1005E0000A9A9DF820E0C4F8841268F347039DF846
:1005F0004010C4F8882284F87AE2062284F87D123A
:1006000063710CA9A01D04F0C0FE237B03F0FE0360
:1006100068F34703204623730D3006220DF136019F
:1006200004F0B3FE94F87A327BB10F9804F018FC12
:100630000022154B04F092FD04F078FE80B20528EC
:1006400015D80623A4F8303301E0A4F830334FF472
:100650004D7000FB05900B990130042204F095FECB
:100660003078BDE8F8430138C0B204B07047B0F547
:10067000C87F8ABF4FF4C873A4F83003A4F830339E
:10068000E5E700BF747B00200000F43FAC7C002055
:1006900008B5FEF7CFFFFCE702780B78534013F064
:1006A000FE0220D1EBB910B44A78447894421CD1B0
:1006B00084788A78944218D1C478CA78944214D144
:1006C00004790A79944210D144794A7994420CD140
:1006D00083798879181AB0FA80F040095DF8044BE4
:1006E000704710467047002070471846F6E700BF75
:1006F00082B002AB03E9030002B07047F8B5204AAC
:10070000204B0025C2F84051C2F84451C2F848516C
:10071000C2F84C51C2F80051C2F804511B6813B31F
:100720001949D2F804250C68141B1A6824F07F4478
:10073000A2422F4609D8197CDE69A41A154499B93A
:100740001EB133461A68A242F5D9104B10491A78E7
:100750000B789A420DD00F490F4A41F823504FF4BD
:100760008013C2F80031F8BD1F745A699869904728
:10077000E6E7531CDBB2022B08BF00230B70EAE74D
:1007800000100140E88F0020E48F0020EC8F002053
:10079000ED8F0020FC90002000E100E02DE9F04FFB
:1007A000884A89491378097899428BB037D0013348
:1007B000DBB2022B08BF002384491370844A0E6801
:1007C000029152F82300834905910B68029932186F
:1007D000002522F07F420A602C462946AE46ABB186
:1007E0001A68824200F2E681DD68C3F800E0801AF0
:1007F0001444DA6935B1371927F07F47D9619D6014
:100800005F60194613460125002BE9D1002D40F009
:10081000DC820023069301230893069A08E06D4BBF
:1008200005931B68694A02920021069308911A46B3
:10083000694BDFF8AC811B780393059B1B681C4652
:10084000029B1F680023BA460F460993C3460793CD
:10085000994618464FF0010E0193A4463FB37D68B8
:10086000BE683946FF695D4BCAEB050424F07F443E
:100870009C423CD8A3190B604860886081F810E066
:10088000C861002A68D015689D4249D2164603E027
:1008900025689D4234D22646F4695B1B002CF7D1B3
:1008A000CC610B601446F1612246002FD7D198F835
:1008B000003098F80110994200F09480591C03EB25
:1008C00043039BF8024008EBC303C9B28C421C7976
:1008D0008BF8001008BF8BF80070022C99684ED07E
:1008E000032C3FD0012C24D014462246DDE7C5EB73
:1008F0000A0525F07F45B54209D2731B0B60BBE7A3
:10090000ED1A2560CC610B601446F161CCE70860FC
:100910004860886081F810E0C861EAB1156800237A
:10092000EB1A0C4613608C46CA614FF0010922464F
:10093000BBE70C7C0494002CD6D1DD684D601E69A9
:100940008E605C69CC609B698B61039B002B8AD0B5
:10095000049B4B601D4686E70C468C464FF0010910
:100960002246A2E70AB9BFE71A46D3691074002BE2
:10097000FAD11C469C464FF00109224695E752B138
:10098000914200F00B81134602E0B14207D033469A
:10099000DE69002EF9D114460874224685E7994293
:1009A00000F0FE801446F5693668DD6115B12B68EC
:1009B00033442B60019B0874A24218BF01230193AA
:1009C000EBE700BFEC8F0020ED8F0020E48F0020CC
:1009D000FC900020E88F0020EE8F0020FEFF7F00BB
:1009E000F08F00205746DDF804A0B9F1000F40F069
:1009F0004981079B002B40F0E581099B002B40F0CB
:100A0000DC81BAF1000F03D1069B9A4200F03F81CE
:100A1000002A00F041816C49029BD1F804051B6853
:100A20006A4C17682578C21A22F07F420332002DE3
:100A300051D1674DDFF89CC1DFF89CE14FF480365F
:100A4000C1F84463C1F804634FF40036C5F880610F
:100A50002E6001250D60DCF800602F2100BF00BF73
:100A600000BF00BF00BF00BF00BF00BF76452FD052
:100A700000BF00BF00BF00BF00BF00BF00BF00BF7E
:100A800000BF00BF00BF00BF00BF00BF00BF00BF6E
:100A900000BF00BF00BF00BF00BF00BF00BF00BF5E
:100AA00000BF00BF00BF00BF00BF00BF00BF00BF4E
:100AB00000BF00BF00BF00BF00BF00BF00BF00BF3E
:100AC00000BF00BF00BF00BF00BF00BF00BF00BF2E
:100AD0000139C3D1257097422CBFDA199A183A49C7
:100AE00022F07F43C1F84035D1F80425121A1B1AB1
:100AF00022F07F4223F07F4303329A4248D9D1F853
:100B00000435344AC1F84035126833492F2300BFF9
:100B100000BF00BF00BF00BF00BF00BF00BF8A42D0
:100B20002FD000BF00BF00BF00BF00BF00BF00BF8D
:100B300000BF00BF00BF00BF00BF00BF00BF00BFBD
:100B400000BF00BF00BF00BF00BF00BF00BF00BFAD
:100B500000BF00BF00BF00BF00BF00BF00BF00BF9D
:100B600000BF00BF00BF00BF00BF00BF00BF00BF8D
:100B700000BF00BF00BF00BF00BF00BF00BF00BF7D
:100B800000BF013BC3D1124B4FF40032C3F8002128
:100B9000124A002313700BB0BDE8F08F16461346BF
:100BA000D2F81C90B9F1000F1AD0CC464C464FF049
:100BB0000109F8E6002D62D1121A1A60069301238A
:100BC0000893069A34E600BF00100140049100200B
:100BD00000E100E0247B00200024F400EE8F0020E0
:100BE0007B4C7C4DC4F808E07B4C4FF02F0C246804
:100BF00000BF00BF00BF00BF00BF00BF00BF00BFFD
:100C0000AC422FD000BF00BF00BF00BF00BF00BF7D
:100C100000BF00BF00BF00BF00BF00BF00BF00BFDC
:100C200000BF00BF00BF00BF00BF00BF00BF00BFCC
:100C300000BF00BF00BF00BF00BF00BF00BF00BFBC
:100C400000BF00BF00BF00BF00BF00BF00BF00BFAC
:100C500000BF00BF00BF00BF00BF00BF00BF00BF9C
:100C600000BF00BFBCF1010CC2D10124254609948C
:100C7000CC464C46CA4603950795A94693E6059C83
:100C8000236099E7059B1946C1F800C0B1E6089BAF
:100C9000002B3FF47DAFBBE64D49504B4E4E4D4CC3
:100CA0004FF480304FF400370125C3F88070C1F84D
:100CB00048032F23C1F808034D6030681E4600BF6B
:100CC00000BF00BF00BF00BF00BF00BF00BFA04209
:100CD0002FD000BF00BF00BF00BF00BF00BF00BFDC
:100CE00000BF00BF00BF00BF00BF00BF00BF00BF0C
:100CF00000BF00BF00BF00BF00BF00BF00BF00BFFC
:100D000000BF00BF00BF00BF00BF00BF00BF00BFEB
:100D100000BF00BF00BF00BF00BF00BF00BF00BFDB
:100D200000BF00BF00BF00BF00BF00BF00BF00BFCB
:100D300000BF013EC3D18D6002990A6000BF00BFB1
:100D400000BF00BF00BF00BF00BF00BFA0422FD048
:100D500000BF00BF00BF00BF00BF00BF00BF00BF9B
:100D600000BF00BF00BF00BF00BF00BF00BF00BF8B
:100D700000BF00BF00BF00BF00BF00BF00BF00BF7B
:100D800000BF00BF00BF00BF00BF00BF00BF00BF6B
:100D900000BF00BF00BF00BF00BF00BF00BF00BF5B
:100DA00000BF00BF00BF00BF00BF00BF00BF00BF4B
:100DB000013BC3D10A4B1A70EAE60A4B9DF80C10AE
:100DC00019701EE6029B1F6017E6059A136020E566
:100DD000001001400024F400247B002000E100E02A
:100DE00004910020EE8F0020F0B4564B564A574E27
:100DF000574C4FF480304FF400310125C2F8801079
:100E0000C3F848032F21C3F808035D6030680E461D
:100E100000BF00BF00BF00BF00BF00BF00BF00BFDA
:100E2000A0422FD000BF00BF00BF00BF00BF00BF67
:100E300000BF00BF00BF00BF00BF00BF00BF00BFBA
:100E400000BF00BF00BF00BF00BF00BF00BF00BFAA
:100E500000BF00BF00BF00BF00BF00BF00BF00BF9A
:100E600000BF00BF00BF00BF00BF00BF00BF00BF8A
:100E700000BF00BF00BF00BF00BF00BF00BF00BF7A
:100E800000BF00BF013EC3D19D6000BF00BF00BFD7
:100E900000BF00BF00BF00BF00BFA0422FD000BFF7
:100EA00000BF00BF00BF00BF00BF00BF00BF00BF4A
:100EB00000BF00BF00BF00BF00BF00BF00BF00BF3A
:100EC00000BF00BF00BF00BF00BF00BF00BF00BF2A
:100ED00000BF00BF00BF00BF00BF00BF00BF00BF1A
:100EE00000BF00BF00BF00BF00BF00BF00BF00BF0A
:100EF00000BF00BF00BF00BF00BF00BF00BF01397F
:100F0000C3D1144E144D154C1549164F00203070A6
:100F1000286020704FF48015E0240B26087048707C
:100F20008E7038701049C2F8805182F814431560F1
:100F3000C3F8080582F81143D3F804350B60F0BC00
:100F4000704700BF0010014000E100E0247B00205A
:100F50000024F40004910020E88F0020EC8F002092
:100F6000F08F0020ED8F0020E48F0020074B9B784E
:100F70000BB9082070473AB130B10368187C0028DB
:100F8000F7D159745A61704707207047F08F0020DD
:100F90002DE9F043264CA37883B01BB9082003B099
:100FA000BDE8F0830028F9D0042903D8072003B056
:100FB000BDE8F0834369002BF0D0064602A8737C9D
:100FC0000025012B00F8015D0CBF8946A94690461B
:100FD0000F4603F0C5FA6378A07821785A1CD2B284
:100FE000904208BF2A4691421BD003EB430304EB17
:100FF000C30301200F4918719E60D1F804159DF8B4
:101000000700D9601F61C3F81490C3F8188062709C
:1010100003F0CEFA084B4FF480122846C3F80021A3
:10102000BDE79DF8070003F0C3FA0420B7E700BF4F
:10103000F08F00200010014000E100E070B51B4C73
:10104000A37882B013B9082002B070BD0028FAD08E
:101050004369002BF7D0064602A8002500F8015D81
:10106000357403F07DFA6278A0782178531CDBB2E6
:10107000984208BF2B46994212D002EB420204EB81
:10108000C20202219DF8070096601171637003F09F
:101090008FFA074B4FF480122846C3F80021D3E79C
:1010A0009DF8070003F084FA0420CDE7F08F0020BC
:1010B00000E100E0044B195C4FF0A04201238B409B
:1010C000C2F80C35704700BF40540200044B195C55
:1010D0004FF0A04201238B40C2F80835704700BF93
:1010E0004054020030B44FF0A04303224FF40035C7
:1010F0004FF480244FF400204FF48011C3F84427AC
:10110000C3F84827C3F84C27C3F85027C3F808553D
:10111000C3F80845C3F80805C3F8081530BC704784
:101120006DDF704772DF704779DF70477DDF704792
:1011300064DF70472DE9F04F83B004880C9FBDF841
:101140003490B7F800A0002C4CD0984600231646E7
:101150008B4605461C4603E02A880134A24224DD62
:101160006A6852F82400019000220DF1030101A8E1
:10117000FFF7DEFF10BB9DF80320B242ECD103B3B2
:101180003A8893194B4518DC42440DF1030101A83C
:101190000123FFF7CDFF88B93A889DF803100A4470
:1011A0003A802A880134A242DADCDBB13B88013B79
:1011B000CAEB03039BB2FF2B12D90C2003B0BDE88E
:1011C000F08F3B885A1C334402334B4592B2F4DC17
:1011D0003A8008F802B03A88013292B23A80D3E7F6
:1011E00008F80A30002003B0BDE8F08F2DE9F04781
:1011F00000231788138090F82D3084B014460546DC
:101200000E46002B49D1AA78002A70D1EA78002A2C
:101210002ED16A68A2B1D91CB94225D8022192F90F
:101220000020F154238801339BB20A212380F1541A
:10123000238801339BB22380F25423880133238017
:101240002B89002B40F02A812B8A002B40F03F8114
:101250002B8B002B40F054812A6A002A00F0A780D3
:1012600021888B1DBB4262D90C2004B0BDE8F087F9
:10127000D91CB942F8D80221F154238801339BB21A
:1012800001212380F15423880B449BB22380F25424
:1012900023880B449BB22380BBE7082FE4D902A824
:1012A000FFF73EFF0028E0D113880822CA542388A4
:1012B00001339BB21B222380CA542088013080B2A4
:1012C0002080062208440DF1090104F05EF823880D
:1012D0009DF8082006339BB212F0FE0218BF0122CF
:1012E0002380F254238801339BB223808BE704339D
:1012F000BB42B9D802A8FFF717FF0028B5D1238851
:10130000BDF808200321F154238801339BB2192131
:101310002380F154238801339BB2F1182380F254C7
:10132000120A4A70238802339BB223806EE7138827
:10133000052B40F2AF806FF4486803EB080080B2E1
:101340004FF27D3E704540F2A5805088052840F25E
:10135000A1806FF4486C84441FFA8CFCF44540F281
:1013600099804FF6FF7E734504D0704502D08342CA
:1013700000F2908005237354238801339BB212211D
:101380002380F154238801339BB223801188F154C8
:101390003344090A5970238802339BB22380528850
:1013A000F2543344120A5A70238802332380D5F84A
:1013B0002480B8F1000F30D0B8F804202188131D24
:1013C0000B44BB423FF650AF931CFE2B3FF64CAF95
:1013D00003327254238801339BB2FF222380F254DC
:1013E000238801339BB22380B8F80020F2543344A1
:1013F000120A5A702088023080B22080B8F8042087
:101400005AB1D8F80810002944D0304403F0BDFF89
:10141000B8F8043022881344238095F82C30002B30
:1014200040F08B80287800283FF41FAF2B88012BD9
:1014300030D023889A1CBA423FF616AF012805D156
:101440006978023119448F42FFF40EAF023FFB1A54
:1014500004A99BB221F8083DB018FFF767FE0028E9
:101460007FF403AF2A78022A00F0B480012A60D00A
:101470001A460821FE2A3FF6F7AE2388551CF5547C
:10148000238801339BB22380F154238801331A440B
:101490002280EAE6072004B0BDE8F08705F10808DD
:1014A00002228DE89000404611463346FFF742FE87
:1014B00000287FF4DAAE8DE89000404633461022D3
:1014C0000621FFF737FE00287FF4CFAEBCE605F11A
:1014D00010088DE890004046334602220321FFF7B2
:1014E00029FE00287FF4C1AE8DE8900040463346C7
:1014F00010220721FFF71EFE00287FF4B6AEA7E6F4
:1015000005F118088DE89000404633460222142168
:10151000FFF710FE00287FF4A8AE8DE8900040464B
:10152000334610221521FFF705FE00287FF49DAEFB
:1015300092E66A7893429CD29AE7D5F82880B8F16F
:10154000000FA7D0B8F804200232FE2A3FF68CAE76
:1015500023884FF000094FF0160A0132F254238815
:1015600001339BB2238006F803A0238801339BB28A
:101570002380B8F80020F2543344120A5A702388AA
:1015800002339BB22380B8F80410F0180A4669B100
:10159000D8F808301946002B3FF47CAF03F0F5FE75
:1015A000B8F80430228813449BB2238009F1010962
:1015B00095F82C205FFA89F94A4509EB49087FF62E
:1015C00031AFAA6A02EB8808B8F804200232FE2A7A
:1015D000C3D949E6BDF808209342FFF449AF092179
:1015E00048E700BF2DE9F04395B01F230D46ADF845
:1015F0000E300446002800F08480C27853077CD562
:1016000090F82D300021ADF80C10002B40F0DD815A
:1016100083780CAF002B40F019821946032014AEDA
:1016200031445F1C023316FA87F74FF0020E16FAA8
:1016300083F601F840EC83B2012107F8401CADF8B5
:101640000C3006F8402C6668002E00F08C80D81C08
:101650001F2874D90C2015B0BDE8F083A76A002FAD
:101660004BD0BA880232FE2AF4D8BDF80C304FF0C5
:10167000000804AE4FF016091AE003F086FEBDF82C
:101680000C20BB8894F82C1013449BB2ADF80C309E
:1016900008F101085FFA88F8884508EB480780F0F0
:1016A000F080A26A02EB8707BA880232FE2AD1D8FC
:1016B0000DF1500E9E44581C01320DF1500C0EF8E5
:1016C000402C1CFA80F09A1C92B200F8409CADF8B5
:1016D0000C203888B0543244000A50700433B7F8F4
:1016E00004E09BB27246F018ADF80C30BEF1000F6A
:1016F000CED0BB681946002BBFD1072015B0BDE87E
:10170000F083ADF80C00ADB1EB78002BF5D1284695
:101710000CA90DF10E02FFF769FD0028EED19DF82E
:101720000E300CAA20469DF80C10FFF7FBFC15B0FC
:10173000BDE8F0832B46ADF80E502A46F2E714AF11
:10174000591C9A1C17FA81F13B4417FA82F296F958
:101750000060ADF80C0002270A2003F8407C01F875
:10176000400C02F8406C2389002B40F08F80238AC4
:10177000002B40F0AB80238B002B40F0C780226A07
:10178000002A42D0BDF80C30991D1F293FF662AFE8
:1017900010880528B1D96FF4486C00EB0C06B6B27E
:1017A0004FF27D37BE42A8D95688052EA5D96FF4D1
:1017B000486EB6441FFA8EFEBE459ED94FF6FF779F
:1017C000B84203D0BE4201D0B04296D814A8C71880
:1017D0005E1C10FA86F64FF0050E981C07F840ECD8
:1017E00080B2122706F8407CADF80C001788ADF8DF
:1017F0000C1004AE3118375404333F0A4F709BB2BB
:101800005288F2543344120A5A70676AA7B3B888F0
:10181000BDF80C30811C9A1C56181F2E3FF61AAFCB
:10182000FE293FF617AF14AE1E44591C0DF1500EA1
:101830001EFA81F1033006F8400C92B2FF2001F845
:10184000400CADF80C20398804AEB018B154090A28
:1018500041700433BA8898B2ADF80C0062B1B9682F
:1018600000293FF44AAF304403F08FFDBDF80C204F
:10187000BB881344ADF80C3094F82C1000297FF489
:10188000EDAE2378002B61D104AC3CE703A904F151
:10189000080704AE4FF01F08022200913846334675
:1018A000CDF804801146FFF745FC00287FF426AFF1
:1018B00003AB0093CDF8048033463846102206214E
:1018C000FFF738FC00287FF419AF50E703AA04F1B2
:1018D000100704AE4FF01F08009238463346CDF88B
:1018E000048002220321FFF725FC00287FF406AFC5
:1018F00003AB0093CDF8048033463846102207210D
:10190000FFF718FC00287FF4F9AE34E703AA04F1CE
:10191000180704AE4FF01F08009238463346CDF842
:10192000048002221421FFF705FC00287FF4E6AEB4
:1019300003AB0093CDF804803346384610221521BE
:10194000FFF7F8FB00287FF4D9AE18E72288012AB8
:101950003FF4D3AEBDF80C20901C1F283FF67AAEA2
:10196000012B05D16378134402331F2B3FF672AE6F
:10197000C2F11D0314A99BB204AE21F8203D3044EE
:10198000FFF7D4FB00287FF4B9AE2278022A00F0DA
:101990008780012A00F08B80ADF830301A4608208D
:1019A000FE2A3FF657AEBDF80C3014AC591CE718B0
:1019B00014FA81F102331344013207F8402C344603
:1019C000ADF80C3001F8400C9DE60CAF3846FFF73F
:1019D000A7FB00287FF492AEBDF80C3014A903F1E8
:1019E000010E9A1C11FA8EFE0B4492B204AEB0188E
:1019F00008211B2603F8401CADF80C200DF1310125
:101A000006220EF8406C03F0C0FCBDF80C209DF8D7
:101A10003010931D11F0FE019BB23BD114A803447A
:101A200003F8401CD31DA2789BB2ADF80C304AB924
:101A3000E278002A3FF407AED81C1F2819463FF66B
:101A400009AEECE504331F2B3FF604AE3846FFF732
:101A50006BFB00287FF452AEBDF80C30BDF830109F
:101A6000E2785F1C14AE16FA87F71E44981C4FF0FC
:101A7000030E06F840EC80B204AE4FF0190E07F8E2
:101A800040EC0433371831549BB2090AADF80C30DE
:101A90007970CEE714A90B44012103F8401CC1E77B
:101AA000BDF830209342FFF477AF092078E76278E1
:101AB0009342FFF471AFADF83020082070E700BF0B
:101AC00075DF704776DF70477ADF70477BDF7047DE
:101AD000184B18884FF6FF7398422AD010B5164A53
:101AE000164C1378217B0133DBB2994282B013701C
:101AF0000CD2237C002111708BB9636923B102A839
:101B0000002200F8042D984702B010BD0C49FFF7E1
:101B1000D7FF0028F8D0A369002BF4D1F4E73B21CC
:101B2000FFF7D0FF0028E8D0A369002BE5D0984745
:101B3000E3E770475091002010910020149100209D
:101B40005491002070B51E4B1E4A5B881188994243
:101B500082B00FD852889A420CD31B4B5B6923B1D9
:101B600002A8012200F8042D9847184C0023237086
:101B700002B070BD154C227862B1134B5B69002B2B
:101B8000F4D002A8002200F8042D98470023237007
:101B900002B070BD0C4D0E4869680678AB680D4800
:101BA000002E18BF1946FFF7F3F90028DED0AB6905
:101BB000002BDBD098470023237002B070BD00BF1C
:101BC00008910020549100201491002005910020DC
:101BD0001091002030910020F8B505460FCD144C2F
:101BE000144F0FC4064695E80700002384E8070059
:101BF0003B70B6B13068104B716803C3A3F10800A5
:101C0000FFF762FF90B90D4D0D4C0E4A0E480023B0
:101C10004FF6FF762E8023701946BDE8F840FFF797
:101C2000A5B90548FFF752FF0028ECD0F8BD00BF6A
:101C30001491002005910020549100205091002023
:101C400010910020D11A02004454020070B503889C
:101C5000112B27D012D9122B07D0502B47D1244C4F
:101C6000C288E3899A4230D070BD083003C8214B46
:101C700083E80300BDE87040FFF764BF102B35D147
:101C80001D491B4C1B4B1D4DE48900F1100280883F
:101C9000088092E80300002283E803002A70002CE9
:101CA000E8D070BD1449154B15484FF6FF7400225B
:101CB0000C801A70FFF7C2F90028D5D00C4B9B6935
:101CC000002BD1D0BDE870401847038A022BCBD13E
:101CD000123000F019F80028CCD10948FFF7AEF90E
:101CE0000028C1D0A369002BECD1BDE770BD70BD49
:101CF00014910020089100205091002010910020A4
:101D000030910020A2DF7047007800F0010070479A
:101D10000078C0F340007047F0B58B7891B0002B8D
:101D20000C460988ADF80C1008BF0123054616467D
:101D30006846032200218DF80E30FDF703FB9DF865
:101D40000020637C02F0F0026FF30712013B8DF874
:101D50000020042B10D8DFE813F020012A01050031
:101D6000350116019DF80030012262F303030322BE
:101D700062F307138DF800309DF80120A37C02F078
:101D8000F0026FF30712013B8DF80120042B10D8ED
:101D9000DFE813F02D0137010500EE0023019DF867
:101DA0000130012262F30303032262F307138DF86B
:101DB00001309DF80230E77B227D207C217B67F398
:101DC000C303002A60F3041314BF0222012261F34B
:101DD000000362F3420309A81C2200218DF802309F
:101DE000FDF7B0FA637B13F0300F40F08F80627B19
:101DF000A37B8DF824200021142204A88DF825301F
:101E0000FDF7A0FAA368A288CDF814D003A9049125
:101E1000ADF81C201BB1E2880893ADF81820A36927
:101E2000002B44D001AF032200213846FDF78AFA87
:101E3000A2699DF804101388ADF82C305388ADF8D2
:101E40002E3050680D97137B0A9001F0F0016FF36C
:101E50000711013B8DF80410042B3DD8DFE813F087
:101E60001B0125013200F20011019DF8053001210E
:101E700061F30303032161F307138DF80530917AB1
:101E80009DF8063061F3C3038DF80630D17A61F313
:101E900004138DF80630117A927B002A61F3000357
:101EA00014BF0222012262F342038DF80630E36977
:101EB00003B10C93334604AA09A92846FFF722FF71
:101EC00011B0F0BD9DF80430012161F3030303213B
:101ED00061F307138DF804309DF80510537B01F072
:101EE000F0016FF30711013B8DF80510042BC6D8E4
:101EF00001A151F823F000BF6F2002002F20020043
:101F00006B1E0200192002005B200200032202A8BF
:101F10000021FDF717FA9DF80920E37C02F0F0029A
:101F20006FF30712013B8DF80920042B0ED8DFE870
:101F300003F0D1DB03E6C7009DF80930012262F30C
:101F40000303032262F307138DF809309DF808306C
:101F50009DF80A1002AA0E92012262F3030362F3B3
:101F6000071362F342018DF808308DF80A103EE73E
:101F70009DF80130022262F30303012262F307138A
:101F80008DF8013015E79DF80030022262F303035B
:101F900062F307138DF80030EEE69DF80030012261
:101FA00062F3030362F307138DF80030E4E69DF853
:101FB0000030012262F30303022262F307138DF85B
:101FC0000030D9E69DF80030022262F303030122BB
:101FD00062F307138DF80030CEE69DF8013002223F
:101FE00062F3030362F307138DF80130E1E69DF815
:101FF0000130012262F3030362F307138DF801300D
:10200000D7E69DF80130012262F30303022262F356
:1020100007138DF80130CCE69DF80530022161F3FD
:102020000303012161F307138DF8053027E79DF8BD
:102030000530012161F30303022161F307138DF8D9
:1020400005301CE79DF80430022161F303030121F0
:1020500061F307138DF804303EE79DF80530022147
:1020600061F3030361F307138DF8053007E79DF86B
:102070000530012161F3030361F307138DF8053087
:10208000FDE69DF80430022161F3030361F30713B9
:102090008DF8043020E79DF80430012161F303033B
:1020A00061F307138DF8043016E79DF80430012121
:1020B00061F30303022161F307138DF804300BE78A
:1020C0009DF80930022262F3030362F307138DF8CF
:1020D00009303BE79DF80930012262F3030362F304
:1020E00007138DF8093031E79DF80930012262F3BA
:1020F0000303022262F307138DF8093026E79DF8E7
:102100000930022262F30303012262F307138DF800
:1021100009301BE794DF704796DF704797DF704701
:10212000F0B5334B1D6890F85A329BB065B303EBA2
:10213000830303EB83039B00C6182E4CB678A77865
:10214000B74223D0012D1FD9A779DFF8A8E0B74205
:1021500047D0022D18D0A77ADFF898E0B7423AD0DE
:10216000032D11D0A77BDFF88CE0B7422DD0042DD2
:102170000AD0A77CDFF87CE0B74220D0052D03D041
:10218000A47D1C4DB44214D01BB0F0BDB4F800E0E7
:10219000C75ABE45D6D1184B1C68002CF4D0012379
:1021A000ADF8022001918DF800306846A0471BB0C1
:1021B000F0BDAC8AC35A9C42EDD01BB0F0BDBEF856
:1021C00010E0C75ABE45D9D1E5E7BEF80CE0C75AC2
:1021D000BE45CCD1DFE7BEF808E0C75ABE45BFD147
:1021E000D9E7BEF804E0C75ABE45B2D1D3E700BF75
:1021F00008940020EC9300205C9100202DE9F0432E
:1022000090F85A4290F8593204EB840E0EEB8E0E81
:1022100000EB8E0E4FF0640C0CFB04FC9EF8047077
:1022200003EBC3040CEB44045E1C0444BE4283B0C5
:1022300004F10A053CD0BB4238BF07F1FF382DD26C
:102240005E1C06EBC6040CEB4404984500EB040945
:102250002B8912D0B9F810500133AB4217D0013D91
:10226000ADF80650ADF8043000230B70104601A9FC
:10227000FFF754FF03B0BDE8F083BEF80840A34267
:1022800012D00133ADF80430ADF80640ECE709F1A7
:102290000A05F3B29F4280F85932D1D801230020B9
:1022A0000B7003B0BDE8F083002508F10106F0E7EC
:1022B0002B89BEF808008342F0D00133ADF804301A
:1022C000ADF80600D0E700BF68B170B40749084A0E
:1022D000084E094D1060012400230C7033602B6000
:1022E000184670BC70470E231846704704940020AF
:1022F0005C91002008940020E893002020B12F4B2F
:102300001B781BB9082070470E20704770B42C4C06
:102310002C4B2268002A46D081789D788D4220D0AF
:10232000012A49D99D79274E8D4237D0022A43D0C0
:102330009D7A244E8D422CD0032A3DD09D7B214E88
:102340008D4221D0042A37D09D7C1E4E8D4216D05E
:10235000052A31D09D7D1B4E8D420BD0042070BCD0
:1023600070471E880588AE42DAD11749096809B35B
:102370000020F4E7B58A01888D42EFD1F5E7368A6F
:102380000588AE42E4D1F0E7B6890588AE42D9D1DE
:10239000EBE736890588AE42CED1E6E7B6880588F8
:1023A000AE42C3D1E1E70121006843F82200216079
:1023B0000020D4E7052AD1D8511CF5E70494002069
:1023C00008940020EC9300205C91002070B138B597
:1023D000144B1B780BB9082038BD134B1B68002B1E
:1023E000F9D090F85B421CB1112038BD0E20704727
:1023F0000E4A0F4D03461068A3F85E12186083F86A
:102400005C42084683F85A4283F859421A46012131
:102410002C60FFF77FFE0028E7D1012283F85B22C2
:1024200038BD00BF0494002008940020EC930020E5
:10243000E893002090B389B3884B1B7873B32DE9E0
:10244000F04F0B88113BA1B005460C46222B00F241
:10245000D780DFE813F03202D500D500D500D500D3
:10246000D500D500D500D500D500D500D500D500C4
:10247000D500D500D500D500D500D500D500D500B4
:10248000D500D500D500D500D500D500D500D500A4
:10249000D500D500D701D5000B01D8007047002624
:1024A00085F85962A2880DF117012846FFF7A6FEAC
:1024B000002840F077849DF81730002B00F0A080B2
:1024C000DFF8A481B4F804E0D8F8007095F85A1247
:1024D000002F00F0B48501EB810303EB83039B0025
:1024E000EA185F4E9278B078904200F05685012F3E
:1024F00040F2C785B079DFF868C1904200F054859A
:10250000022F1DD0B07ADFF858C1904200F03E850E
:10251000032F15D0B07BDFF848C1904200F02F8523
:10252000042F0DD0B07CDFF838C1904200F0208538
:10253000052F05D0B07DDFF828C1904200F0A682BB
:10254000744695F85C320133DBB2BB4285F85C32ED
:1025500080F0AB8195F85A22DFF804810132D2B2C3
:10256000642312FB03F105EB010E56F8220085F8F7
:102570005A224FF0000985F8599203FB0252685025
:1025800001218EF804902046FFF7C4FD002837D0C3
:1025900095F85A2285F85B9212FB03F3EA1898F833
:1025A00002109278914200F06585012F24D096F8B0
:1025B00006E02B49964500F07D85022F1CD096F849
:1025C0000AE02749964500F06E85032F14D096F84F
:1025D0000EE02349964500F05F85042F0CD096F855
:1025E00012E01F49964500F05085052F04D0B67DB6
:1025F0001B49964200F02A851A4B03225C801A7010
:1026000021B0BDE8F08F8A88B0F85E329A42F7D1E7
:10261000C88895F8597295F85A12002840F06A81D6
:102620006389002B00F06681642303FB01F307EB51
:10263000C70603EB46062E442246D389A3F524534E
:10264000082B00F2ED81DFE813F0E901E501E2017A
:10265000EB01EB01EB01EB01EB01420104940020E3
:10266000EC93002060910020089400208A88B0F844
:102670005E329A42C4D1CB88002B7FF410AF90F821
:102680005AE2897A0EEB8E0606EB860600EB86068A
:10269000337919440529D5BFC9B205220A46114626
:1026A000934231717DD22246642000FB0EF003EB91
:1026B000C30152F80C8F00EB41012944D2F804C049
:1026C000C1F80EC0C1F80A8012894A8200228A82AB
:1026D000CA820A834A8331795F1C8F4280F09D82CF
:1026E00007EBC701274600EB410157F8169F294425
:1026F000D7F80480C1F80E80C1F80A903F894F8254
:102700008A82CA820A834A8331799F1C8F4280F071
:10271000848207EBC701274600EB410157F8209F51
:102720002944D7F80480C1F80E80C1F80A903F8987
:102730004F828A82CA820A834A833179DF1C8F42A0
:1027400080F06B8207EBC701274600EB410157F889
:102750002A9F2944D7F80480C1F80E80C1F80A9056
:102760003F894F828A82CA820A834A8331791F1D38
:102770008F4280F0528207EBC701274600EB4101F0
:1027800057F8348F2944D7F804C0C1F80EC0C1F8F7
:102790000A803F894F828A82CA820A834A833179BA
:1027A00005336422013B02FB0EFE03EBC3030EEB79
:1027B00043032B4432895B8A9342BFF470AE0529F0
:1027C0003FF46DAE85F85912A088002940F071835E
:1027D000F3883289ADF81A2006A9ADF81830FFF752
:1027E0009BFC00283FF40CAF002385F85B320146C8
:1027F000A2882846FFF794FCBF4BA2885A80032288
:102800001A70FDE6B1F804E0B0F85E3273457FF46B
:10281000F7AECA8890F85A12002A00F07781DFF8E4
:10282000E482D8F80070002F00F0CD8301EB810323
:1028300003EB83039B00C218B04E9278B0789042AD
:1028400000F02782012F40F26883B079DFF8ACC234
:10285000904200F02582022F1DD0B07ADFF89CC292
:10286000904200F02D82032F15D0B07BDFF88CC290
:10287000904200F01D82042F0DD0B07CDFF87CC2A6
:10288000904200F0FF81052F05D0B07DDFF86CC2CB
:10289000904200F0C780744695F85C320133DBB299
:1028A000BB4285F85C32C0F0BA81934B0321002211
:1028B0005C80197085F85B22A2E68B88B0F85E22F6
:1028C0009A427FF49DAE002380F85B3298E6B2F81E
:1028D0000CE0B38AA6F81AE02BB1F38A1BB1338B54
:1028E0000BB1738B33B963890130984202F1060250
:1028F000FFF4A3AE642202FB01527B1C1279002676
:1029000093428DF8176040F0768101238DF81730DF
:10291000DFF8F081B4F804E0D8F80070002F00F080
:102920008E83642202FB01F2AB18744E9B78B07860
:10293000984200F0B782012F40F2EF82B079DFF8C1
:10294000BCC1984200F08982022FA4D0B07ADFF88F
:10295000ACC1984200F09882032F9CD0B07BDFF886
:102960009CC1984200F08082042F94D0B07CDFF8A4
:102970008CC1984200F08F82052F8CD0B07DDFF89B
:102980007CC1984287D1BCF81400AB5A984282D1DE
:102990005B4B1B680393002B3FF47DAFDFF868A10E
:1029A000DAF80090B9F1050F3FF675AF524A01927F
:1029B0006C2303FB09F302EB030B642202FB0151BE
:1029C0000BF10400ABF802E0029302F0DEFC039B83
:1029D000CBF8683009F101010198029BCAF8001098
:1029E0000022B942C2544FD181469346D9F868308B
:1029F00048469847D8F800700BF1010BBB4509F128
:102A00006C09F3D30023A488CAF8003044E7938903
:102A1000B38261E793893383B38A5DE79389F38255
:102A2000B38A59E7BCF81420EB5A9A427FF433AFCB
:102A3000334B1B680393002B3FF42DAFDFF8C8A086
:102A4000DAF80090B9F1050F3FF625AF2A4B019354
:102A50004FF06C0B0BFB09FB5B44642202FB015142
:102A6000181DA3F802E0029302F08FFC029B03986A
:102A7000986609F10102019BCAF800200221BA42BE
:102A800003F80B1000F07E81A48805E7BCF8142041
:102A9000EB5A9A427FF454AD194B1B680393002BF9
:102AA0003FF44EADDFF860A0DAF80090B9F1050F01
:102AB0003FF646AD104B01936C2202FB09F203EB8B
:102AC000020B0292642202FB01510BF10400ABF8ED
:102AD00002E002F05AFC039BCBF8683009F10101D7
:102AE000019B0298CAF800100022B9421A5400F063
:102AF0009182A48825E500BF60910020EC9300201E
:102B00005C91002008940020E893002001EB8103F1
:102B100003EB83039B00E268C25003442269C3F8BD
:102B2000062090F85922A088002A40F09D80DA887B
:102B30001B89ADF81A3006A9ADF81820FFF7ECFA9A
:102B400000283FF45DADCC4B95F85A221F68002356
:102B500085F85B32A188B7B302EB820202EB8202F6
:102B60009300EA18C54E927896F802E0964500F078
:102B7000CC81012F27D996F806E0DFF800C39645EF
:102B800000F0BB81022F1ED096F80AE0DFF8ECC2FD
:102B9000964500F0AA81032F15D096F80EE0DFF8D5
:102BA000DCC2964500F09981042F0CD096F812E013
:102BB000DFF8C8C2964500F08881052F03D0B67DA6
:102BC000AE4F964205D00B46AD4A0321538011709B
:102BD00016E5BA8AEB5A9A42F5D1AA4B1A68002A2E
:102BE000F1D0012307908DF81830ADF81A1006A81F
:102BF0009047A388E8E785F85932A2880DF11701BC
:102C00002846FFF7FBFA002861D19DF81730002B0A
:102C10003FF4F6AC95F85A127AE63B46C1E595F8D2
:102C20005A320133DBB203EB830101EB81018900EE
:102C30006F1856F8230085F85A320026642285F86A
:102C4000596202FB0352685001213E712046FFF792
:102C500061FA00283FF4D4AC014685F85B6228464F
:102C60002246FFF75DFAC7E4013AD2B2642602EBCE
:102C7000C20206FB01F101EB42022A44528A0132F0
:102C800092B255E7BCF810C0E85A84457FF4FBAD1A
:102C9000CEE635F803C0308884457FF4D3ADC7E66F
:102CA000BCF8040035F803C084457FF4D4ADBFE61A
:102CB000BCF80C0035F803C084457FF4DCADB7E602
:102CC000BCF808C0E85A84457FF4CDADB0E66A4B45
:102CD00085F85B621F68A18895F85A22002F3FF49F
:102CE00072AF02EB820202EB82029300EA18634E9B
:102CF000927896F802E0964500F03281012F7FF637
:102D000062AF96F806E0DFF874C1964500F02081C6
:102D1000022F3FF458AF96F80AE0DFF860C19645FD
:102D200000F00E81032F3FF44EAF96F80EE0DFF86F
:102D30004CC1964500F0FC80042F3FF444AF96F858
:102D400012E0DFF838C1964500F0EA80052F3FF425
:102D50003AAFB67D494F96427FF435AFBA8AEB5A07
:102D60009A427FF430AF474B1A68002A3FF42BAFEA
:102D7000012307908DF81830ADF81A1006A8904777
:102D8000A38821E799464FF0000BD9F868304846F0
:102D90009847D8F800700BF1010BBB4509F16C099D
:102DA000F3D32FE6344B85F85B621F6895F85A22FF
:102DB000A388002F3FF408AF02EB820202EB8202ED
:102DC0009200A9182D4E897896F802E08E4500F001
:102DD0001981012F7FF6F8AE96F806E0DFF89CC067
:102DE0008E4500F00781022F3FF4EEAE96F80AE020
:102DF000DFF888C08E4500F0F580032F3FF4E4AE85
:102E000096F80EE0DFF874C08E4500F0E380042FE2
:102E10003FF4DAAE96F812E0DFF860C08E4500F0BD
:102E2000CA80052F3FF4D0AEB67D144F8E427FF49A
:102E3000CBAEB98AAA5A91427FF4C6AE114A126843
:102E4000002A3FF4C1AE0121ADF81A3007908DF889
:102E5000181006A89047A388B6E6BCF804C0A85A84
:102E600084457FF471AD93E5BCF80CC0A85A844545
:102E70007FF47AAD8CE500BF08940020EC9300202D
:102E8000609100205C910020BCF808C0A85A8445DD
:102E90007FF462AD7CE5BCF810C0A85A84457FF48D
:102EA0006BAD75E5B6F800C0A85A84457FF443AD14
:102EB0006EE54B1EDBB203EBC3030EEB430E05EBDB
:102EC0000E035B8A01339BB283E4BCF810E035F853
:102ED00003C0F4457FF471AE7FE6BCF80CE035F832
:102EE00003C0F4457FF460AE77E6BCF808E035F83F
:102EF00003C0F4457FF44FAE6FE6BCF804C035F86C
:102F000003E0F4457FF43EAE67E635F803C0B6F85B
:102F100000E0F4457FF42DAE5FE674460127BBE484
:102F2000BCF810C035F803E0F4457FF40FAF1AE7A2
:102F3000BCF80CC035F803E0F4457FF4FDAE12E7B1
:102F4000BCF808C035F803E0F4457FF4EBAE0AE7BF
:102F5000BCF804C035F803E0F4457FF4D9AE02E7CD
:102F6000B6F800C035F803E0F4457FF4C7AEFAE6E2
:102F7000BCF810C0E85A84457FF4DAAA8CE5BCF8A6
:102F80000CC0E85A84457FF4CBAA85E5BCF808C09C
:102F9000E85A84457FF4BCAA7EE5B6F800C0E85A3A
:102FA00084457FF4A4AA77E5BCF804C0E85A8445B8
:102FB0007FF4A6AA70E5BCF810E035F802C0F4452D
:102FC0007FF42FAF3AE790F85C2201321C4680F87C
:102FD0005C226AE4BCF80CC035F802E0F4457FF4EA
:102FE00016AF2BE7BCF808C035F802E0F4457FF4D3
:102FF00004AF23E7BCF804E035F802C0F4457FF4E1
:10300000F2AE1BE7B6F800C035F802E0F4457FF4F5
:10301000E0AE13E7DDF804909346D9F868304846EF
:103020009847D8F800700BF1010BBB4509F16C090A
:10303000F3D30023A488CAF80030FFF782BA95F8CA
:103040005C320133744685F85C322EE48A8AEB5A8E
:103050009A427FF4D1AA1B4B1B68002B3FF4CCAAE9
:1030600001220790ADF81A408DF8182006A898475D
:10307000FFF7C2BAB8F800E0E95A8E457FF495AA86
:10308000E9E774460127FFF75CBAB1F810E0E95AA6
:103090008E457FF4AAAADEE7B1F80CE0E95A8E4526
:1030A0007FF49BAAD7E7B1F808E0E95A8E457FF490
:1030B0008CAAD0E7B1F804E0E95A8E457FF47DAAE6
:1030C000C9E700BF5C9100208FDF70479EDF70472B
:1030D000ADDF7047C0B170B40346F7220020FB2477
:1030E00017261B2599611A805A80DA80DA811C71B3
:1030F0001C731C751E811E829872D8729874D874C5
:103100005D735D7570BC70470E20704740B1A1F1D2
:103110001703E02B01D9072070470180002070477A
:103120000E20704740B1A1F11703E02B01D9072011
:1031300070474180002070470E20704738B14FF62D
:10314000FF73994205D0012909D9072070470E2045
:103150007047FB2A28BFFB2202710020704710B580
:10316000034603EBC10382B000241A73084693B2EE
:1031700069462246ADF80030ADF802300194FFF701
:10318000A3FF02B010BD00BFF0B58D88012D83B044
:1031900001D903B0F0BD0B88212B044675D01BD993
:1031A0003A2B00F0B280552B00F08980222B25D0DD
:1031B000EE00A3199B7A002BEBD0A3192846D988DF
:1031C000FFF784FF00285CD01128E2D002466C494A
:1031D000012001F02FF8DCE7102B25D0112BE7D1CF
:1031E00000EBC5030022F7251724FB201B21DD80FF
:1031F0001C81187359739A72DA72CAE7EE00871944
:103200000A7A7A738369002B39D000214DF67A2E21
:10321000ADF80410ADF8025069468DF80420ADF801
:1032200000E09847BB7AC6E7EE00871903793B7345
:10323000CB7B012B00F08680022B00F08C80F9887C
:103240003B898B42C0F08A803B7B7A7B9A4216D2C4
:103250004FF0000E9BB2724669462846ADF800302A
:10326000ADF80230ADF804E0ADF806E0FFF72CFF52
:1032700028B103462A464349012001F039F8BB7AB8
:1032800099E701229872DA7283E7EE0087190A7AC9
:103290003B7B0020934228BF1346019002466946BB
:1032A0002846ADF80030ADF80230FFF70DFF0028DA
:1032B000E5D002463449012000F0BCFFDFE7EE0014
:1032C000CB888719172BF98838BF17238B4228BF63
:1032D0000B4600223B81BA722846FFF7F9FE002810
:1032E00033D1FB7A002BCAD1A369002BC7D040F69B
:1032F00077213A89ADF80010ADF80250ADF80420FE
:10330000694620469847BB7A55E700EBC5064A89CF
:10331000F388934228BF1346172B38BF17233381F6
:1033200082695AB1F17A49B140F67721ADF80010BF
:10333000ADF80250ADF80430694690470023F372AF
:10334000B37226E70188F9807AE702460F49012027
:1033500000F070FFC5E74188F98071E72846FFF764
:10336000B5FE10B90123FB726EE7112802D10123CB
:10337000BB7269E702460249012000F05BFF63E788
:1033800048540200A454020070550200185502006F
:1033900010B51A4B1A6882B0A2B100221A601B68DD
:1033A00000934FF080430122154C0099C3F8082385
:1033B000A368627033B10CCB0020A2609847A36869
:1033C000002BF8D10F4B1A68AAB100221A601B68B3
:1033D00001934FF080430222094C0199C3F808235E
:1033E00023690122A27033B10CCB012022619847DE
:1033F0002369002BF8D102B010BD00BF00010040CE
:103400000C9400200401004058B910B5054CA36885
:1034100033B10CCB0020A2609847A368002BF8D1F1
:1034200010BD70470C94002010B582B002A8002394
:10343000144C00F8013D01F093F8237893B9124A37
:103440006360E3601068A36010F00100236114D092
:1034500001F0F2FA20B94FF080430122C3F8182599
:1034600001232370E3689DF8070001330122E36024
:10347000A27001F09DF802B010BD072100F006F81F
:10348000E6E700BF0C94002000E100E0002810B443
:1034900018DB00F1604303F561434901C9B283F8C9
:1034A0000013C3B24009800000F1604000F56140A4
:1034B00003F01F0201239340C0F8803103605DF8E0
:1034C000044B7047C3B2044A03F00F04490122447D
:1034D000C9B21176E6E700BFFCEC00E02DE9F0434D
:1034E00087B00026C94B01961A68012A00F00482B1
:1034F000C74B1A68012A00F0F181C64B1A68012AED
:1035000000F0DE81C44B1A68012A00F0CB81C34B66
:103510001A68012A00F0B881C14B1A68012A00F02C
:10352000A581C04B1A68012A00F09281BE4B1A682F
:10353000012A00F07F81BD4B1A68012A00F05981F1
:1035400016F0FF0F1AD0BA4F01250024A30003F193
:1035500080432E4203F5C0434FEA45050BD0D3F814
:10356000100557F82420D3F81015C0F30420C1F338
:10357000014102B190470134082CE7D1002E02DB53
:1035800007B0BDE8F083AA4C00224FF0FF33274676
:103590000292039301260DF1080894F950104D1C76
:1035A0002DD0C9B221F0C00006AB4FEAD00E03EB1C
:1035B0000E0201F0070312F80CCC06FA03F31CEA22
:1035C000030F1CD03D18890995F9305057F8259004
:1035D000B9F1000F00F0E880032900F0E8804FEA1D
:1035E000800E0EF1A04E12F8145CDEF800271D408C
:1035F000C2F3014240F0B580032A00F0A281002509
:1036000094F95110481C2FD0C9B221F0C00006AB6C
:103610004FEAD00E03EB0E0201F0070312F80CCCB8
:1036200006FA03F31CEA030F1ED007EB000C89090E
:103630009CF930C057F82C90B9F1000F00F0C6800B
:10364000032900F0C6804FEA800E0EF1A04E12F85A
:1036500014CCDEF800271CEA030FC2F3014240F04D
:103660008D80032A00F0928194F952104A1C2ED0CA
:10367000C9B221F0C00006AB4FEAD00E03EB0E0238
:1036800001F0070312F80CCC06FA03F31CEA030F4F
:103690001DD007EB000C89099CF930C057F82C901D
:1036A000B9F1000F00F08980032900F088804FEA0B
:1036B000800E0EF1A04E12F814CCDEF800271CEAA2
:1036C000030FC2F3014265D1032A00F04C8194F943
:1036D00053104B1C2CD0C9B221F0C00006AB4FEAEE
:1036E000D00E03EB0E0201F0070312F80CCC06FA21
:1036F00003F31CEA030F1BD007EB000C89099CF9AC
:1037000030C057F82C90B9F1000F69D0032969D067
:103710004FEA800E0EF1A04E12F814CCDEF800270E
:103720001CEA030FC2F3014211D1032A00F0F0801A
:10373000002D3FF425AF4FF0A043019AD3F8103588
:1037400093423FF41DAF029A0193039225E7022AA8
:10375000EED1032900F02D81B9F1000FE8D0C84760
:10376000E6E7022A7FF44BAF032900F02B81002506
:10377000B9F1000F3FF444AFC84741E7022A7FF494
:1037800073AF032900F01881B9F1000F3FF46CAF5B
:10379000C84769E7022A9AD1032900F01081B9F1DC
:1037A000000F94D0C84792E703297FF428AF18F898
:1037B0000E501D4308F80E5011E7032987D118F861
:1037C0000EC04CEA030C08F80EC070E703297FF422
:1037D0004BAF18F80EC04CEA030C08F80EC032E7E5
:1037E0000329A5D118F80EC04CEA030C08F80EC046
:1037F0008EE700221A601B6805934FF0A043059ADC
:10380000D3F81035019346F0004699E60061004078
:1038100004610040086100400C61004010610040FC
:1038200014610040186100401C6100407C61004050
:1038300020940020654AD2F8042317067FF57BAE5A
:1038400000221A601B680493049B46F0800672E60F
:103850005E4AD2F8042352067FF568AE00221A6051
:103860001B680493049B46F040065FE6574AD2F873
:10387000042391067FF555AE00221A601B6804935D
:10388000049B46F020064CE6504AD2F80423D006AA
:103890007FF542AE00221A601B680493049B46F039
:1038A000100639E6494AD2F8042314077FF52FAEF3
:1038B00000221A601B680493049B46F0080626E663
:1038C000424AD2F8042355077FF51CAE00221A6045
:1038D0001B680493049B46F0040613E63B4AD2F8A7
:1038E000042397077FF509AE00221A601B68049332
:1038F000049B46F0020600E63449D1F8041311F0A7
:1039000001011CD01E601B680493049B1646EFE562
:1039100003297FF421AF4FF40033DEF8002722F4AF
:103920004032CEF80027DEF8002701351343EDB210
:10393000CEF80037B9F1000F7FF411AFFBE60E4669
:10394000D6E503297FF414AF4FF40033DEF80027E7
:1039500022F44032CEF80027DEF800271343CEF8D9
:103960000037012504E703297FF419AF4FF4003332
:10397000DEF8002722F44032CEF80027DEF80027D8
:1039800001351343EDB2CEF8003708E703297FF481
:10399000FBAE4FF40033DEF8002722F44032CEF8BD
:1039A0000027DEF8002701351343EDB2CEF80037CB
:1039B000EAE64FF44033B0E74FF44033EBE74FF41F
:1039C0004033D5E74FF44033C0E700BF006000400C
:1039D00010B5474BD3F80423D10384B003D5454A2F
:1039E0001168002945D1424BD3F80423920303D533
:1039F000414A116800294BD13D4BD3F804235403AD
:103A000003D53E4A1168002952D1394BD3F804231B
:103A1000100303D53A4A1168002959D1344BD3F821
:103A20000423D10702D5D3F80021B2B9304BD3F823
:103A30000423920702D5D3F804210AB904B010BDBB
:103A40000022C3F804212F4AD3F804310193052042
:103A50001368019A984704B010BD0022C3F80021F2
:103A6000284AD3F80031029304201368029A984739
:103A7000DCE74FF480310020C3F84813214CC3F831
:103A800008131060136803932368039A9847AAE702
:103A90004FF400310024C3F848131A48C3F8081340
:103AA0001460136803930368039A01209847A3E7FF
:103AB0004FF480210024C3F848131248C3F80813B8
:103AC0001460136803930368039A022098479CE7E5
:103AD0004FF400210024C3F848130A48C3F8081320
:103AE0001460136803930368039A0320984795E7CB
:103AF00000400240404102404441024048410240EF
:103B00004C41024078940020F0B50479724E640173
:103B1000331987B0DD7E15B1082007B0F0BD4D7FA9
:103B20001D770D686B1C0BD04FF0A0470123AB40F5
:103B3000C7F808350B6803F5E073032547F82350F1
:103B40004B685F1C06D003F5E0734FF0A0450027DB
:103B500045F82370037906EB43131B7F002B4DD0F0
:103B600003688D69C3F824554F7D0B7D05683B4381
:103B7000C5F86C3503680F684D68C3F80C75C3F859
:103B800014550B7D012B00F09B80331905465A60BC
:103B90000B6951483351EAB12B79097F2A6800EB50
:103BA0004310037F002B65D1C2F81C31D2F81C7181
:103BB0002A680097009FC2F84431D2F844212B684C
:103BC00046480192019AC3F80403286840F307307D
:103BD000FFF75CFC2B792A6806EB43131B7F002B55
:103BE00044D00823C2F80035344400200123E37692
:103BF000E0752076A075A07607B0F0BD05688F69E6
:103C0000C5F8247591F815E00D7D07684EEA0505A5
:103C1000C7F86C550568D1F800E04F68C5F8147511
:103C2000C5F80CE50D7D012DAFD18D686F1C05D059
:103C300005F5E0754FF0A04747F82530CB685D1CCF
:103C40000DD001254FF0A04705FA03F3C7F808355A
:103C5000CB6803F5E073032547F82350CB6805686C
:103C60008F68C5F80835C5F810758EE70423C2F8CB
:103C70000035B9E70023C2F81031D2F810712A6874
:103C80000297029FC2F82031D2F820712A68039768
:103C9000039FC2F82431D2F824712A680497049F44
:103CA000C2F84431D2F844212B6805920C48059A99
:103CB000C3F80403286840F30730FFF7E7FB89E700
:103CC0008B685D1CBAD003F5E0734FF0A045002768
:103CD00045F82370B2E700BF7C940020800002000A
:103CE00010030200F0B503793D4A04685B01D11866
:103CF000097F00296DD00021C4F80015D118384C77
:103D00004968B1B1017904EB4114217F002963D1E5
:103D10000168344CC1F808430168334E090B4CB2BA
:103D20006409203401F01F01012505FA01F146F86C
:103D300024100179076802EB4111D7F80C65097F5F
:103D4000D7F814554FF0FF3EA9B3D7F80815D7F8A8
:103D50001045C7F80CE5C7F814E50068C0F808E599
:103D6000C0F810E5771C06D006F5E0764FF0A040CD
:103D7000022740F826706E1C06D005F5E0754FF05E
:103D8000A040022640F82560651C06D004F5E074CA
:103D90004FF0A040022540F82450481C06D001F501
:103DA000E0714FF0A040022440F82140134400226B
:103DB000DA765A60F0BDD7F80815D7F81045C7F87D
:103DC00014E5C7F80CE50068C0F808E5C0F810E590
:103DD000C8E7C4F8001591E70168044C9AE700BFF2
:103DE0007C9400208402020000E100E01003020045
:103DF00070B59B4C237F8EB0002B75D1994AD2F8B9
:103E00000413890548D4974BD3F80423520704D5EB
:103E1000D3F80821002A40F0CA80924BD3F81C2125
:103E2000C2B1A28AA07D8E4992B282424FF00002B6
:103E3000C3F81C2180F0A980D3F81C210692069AB1
:103E4000888A8A8A8D6880B20132285C92B28A821E
:103E5000C3F81C05834BD3F84421DAB10022C3F820
:103E60004421D3F84411A27E04910499002A40F021
:103E70008980E27D7A4B6AB10022587ED968DA7572
:103E800001228DF830000B918DF828200AA893E8C4
:103E9000060090470EB070BDD2F824110029B2D0B0
:103EA000C2F82431D2F82411A37E07914FF4017196
:103EB0000798C2F808130BB901235360694A02231B
:103EC0008DF82830D2F88034C2F88034E07DE26882
:103ED0000D9300238DF83000E375237621680B9253
:103EE00063680AA8984798E75E4BD3F82421002A14
:103EF00040F09380D3F8101161B1C3F81021D3F8CA
:103F0000101103910399D3F83C15E07DC9B28842A2
:103F100000F0AA80534BD3F84421B2B10022C3F879
:103F20004421D3F84411E07D019101994C4960B1DD
:103F3000D3F83C35C8688DF830300123CA750B9032
:103F40008DF828300AA80AC99847464BD3F8202193
:103F5000002A9FD00022C3F82021D3F82011A07D91
:103F6000009100993E49002894D0D3F84C058B6805
:103F70008DF830008A750B938DF828200AC90AA89D
:103F8000984787E701221A6073E7D3F81C3105933D
:103F9000059B00283FF45EAF8B688DF830008A7572
:103FA0000B938DF828200AC90AA8984752E7E17DAB
:103FB0002B4A002970D00021C3F80811D3F808114A
:103FC00008910899D068517ED3F818354354537E30
:103FD000D17D0133DBB25376627E214B8A427FF47E
:103FE0001CAF1A7E002A6DD19B7E13B91D4B012296
:103FF0005A601C4AE06863684FF40171C2F8081304
:10400000627E8DF83020002501220B902168E57535
:104010008DF828200AA89847FFE60022C3F824213B
:10402000D3F82411029102218DF828100299D3F8B7
:104030008014C3F880140D91D3F83C15E368E27541
:1040400022768DF830100B93216863680AA8984790
:10405000044BD3F84421002A3FF477AF5EE700BF5A
:104060007C94002000200040217EF1B1D3F8006252
:10407000E17526F02001E568C3F8001226698DF885
:10408000300001238DF82830227621680B95E660F8
:1040900063680AA898473DE7C3F80811D3F80821D8
:1040A0000992099AD3F8183596E7E268E175012379
:1040B0008DF830008DF828300B9294E80A000AA899
:1040C000984727E7DE685D7E1869DA7501210022CE
:1040D000D8601A765A768DF828100B968DF83050E5
:1040E00093E806000AA8904797E600BF0378012BE3
:1040F00004BF014A137070479C940020F0B51A4F1A
:104100003B7889B01BB1194B1B78834229D0184DDD
:1041100006460FCD6C460FC495E80F004FF0000E19
:1041200084E80F000625052107224FF0EB731148A4
:104130000391082402928DF814E0009501940693EF
:10414000FFF7D0FD002E0C4A0A4818BF002269462E
:10415000FFF7DAFC18B9054A012316703B7009B065
:10416000F0BD002009B0F0BD9E9400209D94002079
:10417000D05502001C7B0020ED4002000120FFF71B
:10418000BDBF00BF2DE9F04383B002AB4FF0000884
:1041900003F8018D254C064618460D46A76800F029
:1041A000DFF9A2686368D4F8009013440133C9EBC7
:1041B0000303012B07D80BBB9DF8070000F0F8F9AB
:1041C00003B0BDE8F08309F101039DF80700236007
:1041D00000F0EEF90122002362F3010368F3820389
:1041E00007EA090766F3C50304EB870468F389133C
:1041F00065F39F23E36003B0BDE8F08301214346EC
:1042000061F3010368F38203052161F3C50309EA41
:104210000202074904EB820268F3891309F10107DE
:1042200061F39F232760D360C6E700BFA0940020FE
:10423000F05502002DE9F04782B002AB002603F8EA
:10424000016D294C8146184617468846A56800F03E
:1042500087F9A2686368D4F800A013440133CAEB5D
:104260000303022B07D843BB9DF8070000F0A0F919
:1042700002B0BDE8F0870AF102039DF80700236051
:1042800000F096F90122002362F301030AEB020118
:1042900066F3820369F3C50305EA0A0A0D4004EBDD
:1042A0008A0A62F3891304EB850468F39F23CAF832
:1042B0000C30E76002B0BDE8F0870121334661F3BE
:1042C000010366F38203052161F3C5030AEA0202D2
:1042D000064804EB820266F389130AF1010160F3D8
:1042E0009F232160D360BFE7A0940020F055020017
:1042F0002DE9F04F83B002AD002605F8016D2D4C7D
:104300008246284690461F468946A56800F028F94F
:10431000A2686368D4F800B013440133CBEB030305
:10432000032B07D87BBB9DF8070000F041F903B0D1
:10433000BDE8F08F0BF103039DF80700236000F048
:1043400037F90122002362F301030BF1020066F347
:1043500082035A446AF3C503022105EA0B0B2A4083
:10436000054004EB8B0B04EB820261F3891304EB31
:10437000850469F39F23CBF80C30C2F80C80E7600A
:1043800003B0BDE8F08F0121334661F3010366F30A
:104390008203052161F3C5030BEA0202064804EB20
:1043A000820266F389130BF1010160F39F23216000
:1043B000D360B8E7A0940020F05502002DE9F04743
:1043C0004C4E96E80C009A428AB070D0B06804E077
:1043D000C4F3891202EB9452134400EA0305023538
:1043E00006EB85020133546814F00302F0D0022A70
:1043F00028D0C4F38312C4F3952C002A75D00DF194
:10440000100E7546D71800EA030106EB810101334F
:10441000C96845F8041BBB42F5D10092C4F3C20041
:1044200073466246D6F81044324D0021A04738B199
:1044300077603068C01B18BF01200AB0BDE8F08764
:104440006F68F6E703F1010A20EA0A01034001312F
:1044500006EB830389004FEA94588845DA68DFF851
:1044600094E0C4F3891326D9A9B300EA0A0C5FFAD1
:1044700081F90EEB8C0CC9EB08010CF10C0C0EF160
:104480000C00C9B203910290CDF80490CDF800C0A1
:104490000021C4F3C200D6F81474B847404520D0B8
:1044A00006EB850560F38F146C607768C1E7002028
:1044B0000AB0BDE8F08700EA0A000EEB80000C307D
:1044C0008DE801010021DEF8149403910291C4F3F8
:1044D000C200C847E2E70EF10C0C08465FFA88F903
:1044E000D0E703300AEB9007A2E71F460DF1100E4C
:1044F00093E700BFA094002000B585B0002303908F
:10450000194601AA44F20100ADF80430029300F00C
:1045100003F805B05DF804FB08B50D490120FFF76D
:1045200031FEFFF72BFEFFF749FF0028FBD10949B9
:104530000320FFF727FEBFF34F8F0749074BCA68D9
:1045400002F4E0621343CB60BFF34F8F00BFFDE77F
:10455000FC5502000C56020000ED00E00400FA05D4
:10456000F0B4EFF3108472B60E4B9A68B2B90E49EC
:1045700001259D60D1F880700C4D2E463D401D6098
:10458000C1F88060D1F884505D604FF0FF33C1F80E
:104590008430027004B962B6F0BC70470123037026
:1045A000F8E700BFCC98002000E100E0FC06FFBD6A
:1045B000094B9A6872B168B910B4EFF3108272B601
:1045C00006491C680C605C684C60986002B962B671
:1045D0005DF8044B704700BFCC98002000E100E07C
:1045E0000649074A074B9B1A03DD043BC858D050C5
:1045F000FBDC00F013F8FAF731FE0000DC56020095
:10460000B07A0020347B0020FEE7FEE7FEE7FEE7FD
:10461000FEE7FEE7FEE7FEE7FEE7FEE7F0B4BA4B93
:104620001A78062A1BD0B94AD2F8883043F47003AE
:10463000C2F88830BFF34F8FBFF36F8F4FF0102356
:10464000D3F80022002AC0F22D81D3F80432002BC7
:10465000C0F22881AE4BAF4A1A60F0BC70470433F9
:104660001B681B07DFD1AC4B1B6803F0F002302A3C
:1046700000F0088103F0E003402B00F00381A64B1B
:104680001B6803F0F003302B00F0EE80A24B1B6898
:1046900003F0F002302A00F0D78003F0E003402B53
:1046A00000F0D2809C4B1B6803F0F003302B00F02D
:1046B000BB80994B1B6803F0F002302A00F0A08009
:1046C00003F0E003402B00F09B80934B1B6803F04A
:1046D000F003302B00F086808F4B1B6803F0F00353
:1046E000302B68D08C4B1B6803F0F003502B10D09C
:1046F000894B1B6803F0F002302A03D003F0E0037B
:10470000402B90D1854B864A1B6803F04F03136002
:1047100089E74FF08052834BD2F80414C3F8201578
:10472000D2F80814C3F82415D2F80C14C3F82815CD
:10473000D2F81014C3F82C15D2F81414C3F830159D
:10474000D2F81814C3F83415D2F81C14C3F8401565
:10475000D2F82014C3F84415D2F82414C3F848152D
:10476000D2F82814C3F84C15D2F82C14C3F85015FD
:10477000D2F83014C3F85415D2F83414C3F86015C5
:10478000D2F83814C3F86415D2F83C14C3F868158D
:10479000D2F840145C48C3F86C15D2F8441402787F
:1047A000C3F87015062A7FF43EAF5F4B1B681A07EB
:1047B0007FF439AF9CE75D4E5D4C5E495E4B05274B
:1047C000012500203F223760256008601A604E4BAB
:1047D0001B78062B7FF427AF534B1B6819077FF418
:1047E00022AF7FE7484B554A1B780321062B116007
:1047F0007FF419AF4C4B1B6818077FF414AF6BE7BD
:104800004FF080430022C3F80C21C3F81021C3F8F5
:1048100038253D4B1B78062B7FF405AF424B1B68B8
:104820001C077FF400AF50E74549374ACB68127840
:1048300023F08073062ACB607FF4F5AE3A4B1B68F9
:104840001D077FF4F0AE34E73E4B2F4A1B68127809
:104850003D49C3F34233062A0B60B8D1324B1B6883
:104860001E077FF4E0AE1DE7274B384A1B78384916
:104870001160062B7FF4D7AE2B4B1B681F077FF40C
:10488000D2AE03E7334B204A1B6812783249C3F398
:104890000423062A0B60BCD1234B1B681B073FF483
:1048A000EEAEC0E62D4B0122C3F80425D3F8002458
:1048B000002AFBD04FF0102315222849C3F800220C
:1048C000D1F80034002BFBD04FF0102315222349E0
:1048D000C3F80422D1F80024204B002AFAD0002289
:1048E000C3F80425D3F80024002AFBD0BFF34F8F70
:1048F00006491B4BCA6802F4E0621343CB60BFF366
:104900004F8F00BFFDE700BFE00F00F000ED00E0BB
:10491000247B00200090D003E80F00F05802001024
:10492000E40E004000C00040E40F00F010560040CC
:10493000885600401856004014560040A00500401C
:10494000F0ED00E0440200103C05004074C0074058
:104950000DF0ADBA240300104035014000E00140E5
:104960000400FA0548DF704710DF704760DF7047CA
:1049700061DF7047FFF7D0BD2DE9F047DFF8B09059
:10498000284ED9F80040DFF8AC80274FB4FA84F401
:1049900082B064090025B5B93378DFF888A07BB907
:1049A00001A8FFF7DFFF052834D020B3FFF7A4FDEF
:1049B0006CB13378DFF86CA001240025002BEFD018
:1049C00002B0BDE8F087002CFAD1DFF858A09AF8C1
:1049D0000030002BF4D102A93A68B8F8003021F871
:1049E000043D1046FFF7C4FF052817D068B1FFF754
:1049F00083FD0024CFE70198FEF706FD0B4B1B68F3
:104A0000002BD5D001989847D2E71046D9F800304E
:104A10009847EEE7002CD3D10125D8E7002DC8D068
:104A2000CEE700BFB8980020BC980020C0980020B6
:104A3000C4980020BA980020014B1878704700BF36
:104A4000B998002011B111F0030F01D00720704771
:104A5000F8B51A4F1A4E1B4D1B4C396032802B6033
:104A60002368DB0708D50123C4F880301749FFF716
:104A70007BFF30B12360F8BD1449FFF775FF00B12B
:104A8000F8BD134B01221A70FEF7CEFC0E4A92F8C5
:104A900016335B09012B08D9042B06D00D4B9868FF
:104AA00030B94FF480031360F8BD42F20200F8BD44
:104AB0001A6842F480021A600020F8BDBC980020F9
:104AC000BA980020C898002000E100E07549020073
