:020000021000EC
:10F0000000000120395702006157020063570200D7
:10F0100065570200675702006957020000000000B0
:10F020000000000000000000000000006B5702001C
:10F030006D570200000000006F5702007157020078
:10F04000610A020073570200611C0200735702003C
:10F0500073570200735702000D0F0200735702002E
:10F060007357020073570200735702007357020070
:10F070007357020073570200735702007357020060
:10F080007357020069FF01007357020073570200B3
:10F090000900020073570200455C0200735702002A
:10F0A0007357020073570200735702007357020030
:10F0B00073570200735702000000000000000000B8
:10F0C0007357020073570200735702007357020010
:10F0D00095140200735702007357020000000000ED
:10F0E0000000000000000000000000000000000020
:10F0F0000000000000000000000000000000000010
:10F1000000000000000000000000000000000000FF
:10F1100000000000000000000000000000000000EF
:10F1200000000000000000000000000000000000DF
:10F1300000000000000000000000000000000000CF
:10F1400000000000000000000000000000000000BF
:10F1500000000000000000000000000000000000AF
:10F16000000000000000000000000000000000009F
:10F17000000000000000000000000000000000008F
:10F18000000000000000000000000000000000007F
:10F19000000000000000000000000000000000006F
:10F1A000000000000000000000000000000000005F
:10F1B000000000000000000000000000000000004F
:10F1C000000000000000000000000000000000003F
:10F1D000000000000000000000000000000000002F
:10F1E000000000000000000000000000000000001F
:10F1F000000000000000000000000000000000000F
:10F2000010B5054C237833B9044B13B10448AFF360
:10F2100000800123237010BDEC31002000000000AD
:10F2200064750200084B10B51BB108490848AFF3DC
:10F2300000800848036803B910BD074B002BFBD0C2
:10F24000BDE81040184700BF00000000F03100206A
:10F2500064750200E831002000000000154B002B0F
:10F2600008BF134B9D46A3F5803A00218B460F46FD
:10F270001348144A121A00F065F80F4B002B00D007
:10F2800098470E4B002B00D0984700200021040027
:10F290000D000D48002802D00C48AFF3008000F0AC
:10F2A0002BF82000290003F029FD00F011F800BF21
:10F2B0000000080000000120000000000000000025
:10F2C000EC310020EC4000200000000000000000B5
:10F2D00008B5074B044613B10021AFF30080054B7E
:10F2E0001868836A03B19847204600F033F800BFDE
:10F2F00000000000C866020070B50E4B0E4CE41A08
:10F30000A41000251E46A54204D056F82530984783
:10F310000135F8E707F0CCF9084C094BE41AA410C2
:10F3200000251E46A54204D056F8253098470135E1
:10F33000F8E770BDE0310020E0310020E43100202A
:10F34000E031002002440346934202D003F8011B3F
:10F35000FAE77047FEE700BF0378012B04BF014ABC
:10F3600013707047083300202DE9F04FC7B01C46DA
:10F370009248002914BF0A23002316460D46009325
:10F3800002F044FB002840F0E480002C00F0E5800F
:10F3900006AB83460193519B539A9E1820250296F3
:10F3A00058460099019A0B46034404933133D3180D
:10F3B0000393171800295FD07B4203F003038B42AD
:10F3C00028BF0B46062900F2EB800B46019A012B61
:10F3D000155407F1010200F0E180022B7D7007F166
:10F3E000020200F0DB80032BBD7007F1030200F086
:10F3F000D580042BFD7007F1040200F0CF80062BAE
:10F400003D7107F1050240F0D1807D71BA1D9E4625
:10F41000009999422ED0009EC3EB060AAAF104017E
:10F4200006F1FF3B8908C3EB0B0B0131BBF1020F67
:10F430004FEA810C12D90344019E4FF0203001297C
:10F4400006EB030BF05005D00229CBF8040001D0E5
:10F45000CBF80800D4456244E6440BD00098157000
:10F460000EF10103834205D20EF1020E7045557074
:10F4700000D99570009B1F44039B059707F1330942
:10F4800007F1030A264603F101084C46029FDDF806
:10F4900044910DE00AF8035C0AF8025C0AF8015C8A
:10F4A0000AF1030AA24508F8015C08F101082FD00F
:10F4B000BE42EFD24E456BD2509B13F806B00AF80D
:10F4C000015C4FEA2B105FFA80FE09280BF00F0059
:10F4D000D4BF0EF1300E0EF1370E092894BF303034
:10F4E00037300AF803EC0AF8020C06F00DFC584419
:10F4F0000AF1030A407810F0970F08BF4FF02E0B67
:10F50000A24508F801BC06F1010608F10108CFD1B7
:10F51000049B03980297059F019903F1430A0D226A
:10F520000A23027443745246254887F8305006F087
:10F5300016FC5FFA8AF222492048344602F0BAF9F2
:10F5400038B91E4802F062FA18B9029B9C42FFF4D7
:10F5500028AF204647B0BDE8F08F55B306A82B680A
:10F56000184A01904FF4807106F004FC0028F0DB8B
:10F570000546304606F030FC019BC22828BFC22059
:10F58000834602463146581906F0E9FBAB4402E7D0
:10F59000C9EB0600529B13F800B090E79E4637E790
:10F5A000002B7FF413AF3A469E4634E74FF0050E2A
:10F5B0002EE706AB25460193DBE700BF4430002071
:10F5C00008320020EC6602002DE9F0416B48C6B01D
:10F5D0000C4616461D4602F019FAA8B9C4B106AF8A
:10F5E0002368674A38464FF4807106F0C3FB002851
:10F5F0000ADB4C9B8046062B00F2BD80DFE803F05F
:10F60000146670327C405200002046B0BDE8F081A4
:10F610004C9B062B00F2AC80DFE803F0049C969034
:10F62000847E8A004FF00008304606F0D5FB00EBE0
:10F630000803FF2B044640F29380002CE4DB08EB28
:10F640000402B2F5807FDFD8D4B206A94D4806F097
:10F6500086FB22464B49494802F02CF9B0FA80F06B
:10F660004009D2E7C0F58071AA686C682B680192E6
:10F670000094324607EB080006F07CFB0446DCE70A
:10F68000C0F580712869EA682B680390AC686D68E2
:10F69000009502920194324607EB080006F06AFBDF
:10F6A0000446CAE7C0F580716A6928692B6804922C
:10F6B000EA680390AC686D68009502920194324646
:10F6C00007EB080006F056FB0446B6E7C0F580716C
:10F6D0002B68324607EB080006F04CFB0446ACE70B
:10F6E000C0F580716A682B68009207EB080032460B
:10F6F00006F040FB0446A0E7C0F58071EA68AC68FC
:10F700002B686D68009502920194324607EB080061
:10F7100006F030FB044690E74FF480714FF000088C
:10F7200006AFAFE74FF480714FF0000806AFE5E792
:10F730004FF480714FF0000806AFB5E74FF48071C9
:10F740004FF0000806AF8FE74FF480714FF00008CC
:10F7500006AFC7E74FF480714FF0000806AFB7E778
:10F7600006AB314603EB0800224606F0F8FA64E7E0
:10F770000024224669E7002461E700BF44300020EE
:10F78000EC66020008320020F0B51A4F3B7889B0D1
:10F790001BB1194B1B78834229D0184D06460FCD5B
:10F7A0006C460FC495E80F004FF0000E84E80F0080
:10F7B0000625052107224FF0EB7311480391082419
:10F7C00002928DF814E000950194069301F0ECFF8D
:10F7D000002E0C4A0A4818BF0022694601F0F6FEC6
:10F7E00018B9054A012316703B7009B0F0BD00201E
:10F7F00009B0F0BD0A33002009330020CC660200B6
:10F800004430002059F3010000487047C9F5010059
:10F810000048704769F3010010B50E4B1B7882B0A9
:10F8200073B90D4C0D48237001220DF1070102F050
:10F83000F9F82378002BFCD09DF8070002B010BD2A
:10F8400001220DF10701054802F0ECF89DF80700D0
:10F8500002B010BD093300200833002044300020DE
:10F8600038B50020FFF790FF044668B9FFF7CCFFDA
:10F870000546FFF7CDFF054BFF22C3F810541C606F
:10F880005C60C3F814049A60204638BD0C33002035
:10F890000120FFF779BF00BF2DE9F04383B002AB31
:10F8A0004FF0000803F8018D254C064618460D461A
:10F8B000A76801F035F8A2686368D4F80090134493
:10F8C0000133C9EB0303012B07D80BBB9DF80700DD
:10F8D00001F04EF803B0BDE8F08309F101039DF893
:10F8E0000700236001F044F80122002362F30103C2
:10F8F00068F3820307EA090766F3C50304EB87048C
:10F9000068F3891365F39F23E36003B0BDE8F083D8
:10F910000121434661F3010368F38203052161F38A
:10F92000C50309EA0202074904EB820268F389135E
:10F9300009F1010761F39F232760D360C6E700BF89
:10F940000C330020F46602002DE9F04782B002ABD0
:10F95000002603F8016D294C814618461746884653
:10F96000A56800F0DDFFA2686368D4F800A0134426
:10F970000133CAEB0303022B07D843BB9DF80700F2
:10F9800000F0F6FF02B0BDE8F0870AF102039DF82F
:10F990000700236000F0ECFF0122002362F3010363
:10F9A0000AEB020166F3820369F3C50305EA0A0A5A
:10F9B0000D4004EB8A0A62F3891304EB850468F3B3
:10F9C0009F23CAF80C30E76002B0BDE8F087012140
:10F9D000334661F3010366F38203052161F3C50336
:10F9E0000AEA0202064804EB820266F389130AF16E
:10F9F000010160F39F232160D360BFE70C33002037
:10FA0000F46602002DE9F04F83B002AD002605F840
:10FA1000016D2D4C8246284690461F468946A568B2
:10FA200000F07EFFA2686368D4F800B0134401338D
:10FA3000CBEB0303032B07D87BBB9DF8070000F03B
:10FA400097FF03B0BDE8F08F0BF103039DF80700AB
:10FA5000236000F08DFF0122002362F301030BF10C
:10FA6000020066F382035A446AF3C503022105EAE1
:10FA70000B0B2A40054004EB8B0B04EB820261F375
:10FA8000891304EB850469F39F23CBF80C30C2F88B
:10FA90000C80E76003B0BDE8F08F0121334661F3CD
:10FAA000010366F38203052161F3C5030BEA020239
:10FAB000064804EB820266F389130BF1010160F33F
:10FAC0009F232160D360B8E70C330020F466020066
:10FAD0002DE9F04F83B002AF002607F8016D314CDD
:10FAE0008246384690461F46A568894600F018FFB2
:10FAF000A2686368D4F800B013440133CBEB03036E
:10FB0000042B07D8BBBB9DF8070000F031FF03B002
:10FB1000BDE8F08F0BF104039DF80700236000F0AF
:10FB200027FF0122002362F3010366F382030BEB3C
:10FB300002010BF103060BF102026AF3C503032075
:10FB400005EA0B0B04EB8B0B60F3891369F39F231E
:10FB500029402A403540CBF80C3004EB810104EBFE
:10FB600082020C9BC1F80C8004EB8504D760E36033
:10FB700003B0BDE8F08F0121334661F3010366F362
:10FB80008203052161F3C5030BEA0202064804EB78
:10FB9000820266F389130BF1010160F39F23216058
:10FBA000D360B0E70C330020F46602002DE9F04783
:10FBB0004C4E96E80C009A428AB070D0B06804E0CF
:10FBC000C4F3891202EB9452134400EA0305023590
:10FBD00006EB85020133546814F00302F0D0022AC8
:10FBE00028D0C4F38312C4F3952C002A75D00DF1EC
:10FBF000100E7546D71800EA030106EB81010133A8
:10FC0000C96845F8041BBB42F5D10092C4F3C20099
:10FC100073466246D6F81044324D0021A04738B1F1
:10FC200077603068C01B18BF01200AB0BDE8F087BC
:10FC30006F68F6E703F1010A20EA0A010340013187
:10FC400006EB830389004FEA94588845DA68DFF8A9
:10FC500094E0C4F3891326D9A9B300EA0A0C5FFA29
:10FC600081F90EEB8C0CC9EB08010CF10C0C0EF1B8
:10FC70000C00C9B203910290CDF80490CDF800C0F9
:10FC80000021C4F3C200D6F81474B847404520D010
:10FC900006EB850560F38F146C607768C1E7002080
:10FCA0000AB0BDE8F08700EA0A000EEB80000C30D5
:10FCB0008DE801010021DEF8149403910291C4F350
:10FCC000C200C847E2E70EF10C0C08465FFA88F95B
:10FCD000D0E703300AEB9007A2E71F460DF1100EA4
:10FCE00093E700BF0C330020FFF796BD2DE9F84FD6
:10FCF000244B1A788AB3DFF890B0DFF89090DFF8E1
:10FD000090A00024012703E00134E4B2944224D2FD
:10FD100026B2D9F80050DBF8003015F8360007FAA3
:10FD200000FE1EEA030F05EBC608EDD0164A23EAD3
:10FD30000E03136001F0E0F815F83650DAF80030E1
:10FD400007FA05F6334000FA05F6B34207D00D4B2B
:10FD500001341A78E4B29442DAD3BDE8F88FD8F8C7
:10FD60000430002BF3D098F80110A1F10101B1FA91
:10FD700081F14909091AB1FA81F1490928469847E0
:10FD8000E5E700BF2C37002054370020283700203B
:10FD90005037002070B50646114800F085FD40B987
:10FDA000104D01242B68B4401C4203D023EA040404
:10FDB0002C6070BD304601F09FF80B4A136860B1AB
:10FDC00023432E680949136034432C6004480968B2
:10FDD0000022BDE8704000F011BD23EA0403F0E703
:10FDE00030370020543700205037002024370020BF
:10FDF000042A01D8072070472DE9F04182B08846D7
:10FE00000546174600F014FF002834D01C4C1D484E
:10FE10001D491E4A1E4B2560002608F1FF340F6065
:10FE200080F8008016601E60E4B20327B8F1000F6E
:10FE300003D11AE0DBB2C4B11C4623B205EBC30206
:10FE400015F833009378134A8DF8053001A98DF821
:10FE500004708DF806608DF8076000F0F3FE631EF5
:10FE60000028E7D002B0BDE8F0810B4A0B48002122
:10FE700000F0B2FCF6E700F099FE0028C6D0F1E7EA
:10FE8000283700202C37002024370020503700204E
:10FE90005437002095FD0100EDFC010000670200D1
:10FEA00070B5084D2B785BB1074E002433680121F3
:10FEB00013F8340000F08EFF2B780134A342F5D8FC
:10FEC000002070BD2C3700202837002070B5094D68
:10FED0002B7853B1084E0024336813F8340000F037
:10FEE000DBFF2B780134A342F6D80448BDE870400C
:10FEF00000F0DABC2C3700202837002030370020F3
:10FF000000B585B000230390194601AA44F2010010
:10FF1000ADF80430029300F003F805B05DF804FB7F
:10FF200008B50D490120FFF7B7FCFFF7B1FCFFF75B
:10FF30003DFE0028FBD109490320FFF7ADFCBFF3CC
:10FF40004F8F0749074BCA6802F4E0621343CB6046
:10FF5000BFF34F8F00BFFDE7046702001467020084
:10FF600000ED00E00400FA05F8B5204A204B00251A
:10FF7000C2F84051C2F84451C2F84851C2F84C513D
:10FF8000C2F80051C2F804511B6813B31949D2F8E2
:10FF900004250C68141B1A6824F07F44A2422F46E3
:10FFA00009D8197CDE69A41A154499B91EB13346E3
:10FFB0001A68A242F5D9104B10491A780B789A4268
:10FFC0000DD00F490F4A41F823504FF48013C2F867
:10FFD0000031F8BD1F745A6998699047E6E7531CD1
:10FFE000DBB2022B08BF00230B70EAE700100140D0
:10FFF0005C37002058370020603700206137002030
:020000022000DC
:100000007038002000E100E02DE9F04F884A89496E
:100010001378097899428BB037D00133DBB2022BC9
:1000200008BF002384491370844A0E68029152F875
:100030002300834905910B6802993218002522F0AC
:100040007F420A602C462946AE46ABB11A6882420E
:1000500000F2E681DD68C3F800E0801A1444DA6932
:1000600035B1371927F07F47D9619D605F60194628
:1000700013460125002BE9D1002D40F0DC8200233E
:10008000069301230893069A08E06D4B05931B68BD
:10009000694A02920021069308911A46694BDFF8DB
:1000A000AC811B780393059B1B681C46029B1F6851
:1000B0000023BA460F460993C3460793994618464C
:1000C0004FF0010E0193A4463FB37D68BE683946E8
:1000D000FF695D4BCAEB050424F07F449C423CD889
:1000E000A3190B604860886081F810E0C861002A9D
:1000F00068D015689D4249D2164603E025689D42A6
:1001000034D22646F4695B1B002CF7D1CC610B601E
:100110001446F1612246002FD7D198F8003098F8A4
:100120000110994200F09480591C03EB43039BF8A3
:10013000024008EBC303C9B28C421C798BF8001053
:1001400008BF8BF80070022C99684ED0032C3FD06A
:10015000012C24D014462246DDE7C5EB0A0525F024
:100160007F45B54209D2731B0B60BBE7ED1A2560D2
:10017000CC610B601446F161CCE708604860886090
:1001800081F810E0C861EAB115680023EB1A0C464B
:1001900013608C46CA614FF001092246BBE70C7C14
:1001A0000494002CD6D1DD684D601E698E605C69B8
:1001B000CC609B698B61039B002B8AD0049B4B60B6
:1001C0001D4686E70C468C464FF001092246A2E701
:1001D0000AB9BFE71A46D3691074002BFAD11C463E
:1001E0009C464FF00109224695E752B1914200F03A
:1001F0000B81134602E0B14207D03346DE69002E80
:10020000F9D114460874224685E7994200F0FE8031
:100210001446F5693668DD6115B12B6833442B60EF
:10022000019B0874A24218BF01230193EBE700BFB2
:1002300060370020613700205837002070380020D8
:100240005C37002062370020FEFF7F00643700200B
:100250005746DDF804A0B9F1000F40F04981079B33
:10026000002B40F0E581099B002B40F0DC81BAF1C6
:10027000000F03D1069B9A4200F03F81002A00F054
:1002800041816C49029BD1F804051B686A4C1768D0
:100290002578C21A22F07F420332002D51D1674DDA
:1002A000DFF89CC1DFF89CE14FF48036C1F844636D
:1002B000C1F804634FF40036C5F880612E60012553
:1002C0000D60DCF800602F2100BF00BF00BF00BF41
:1002D00000BF00BF00BF00BF76452FD000BF00BFEA
:1002E00000BF00BF00BF00BF00BF00BF00BF00BF16
:1002F00000BF00BF00BF00BF00BF00BF00BF00BF06
:1003000000BF00BF00BF00BF00BF00BF00BF00BFF5
:1003100000BF00BF00BF00BF00BF00BF00BF00BFE5
:1003200000BF00BF00BF00BF00BF00BF00BF00BFD5
:1003300000BF00BF00BF00BF00BF00BF0139C3D175
:10034000257097422CBFDA199A183A4922F07F4358
:10035000C1F84035D1F80425121A1B1A22F07F4249
:1003600023F07F4303329A4248D9D1F80435344A06
:10037000C1F84035126833492F2300BF00BF00BFCA
:1003800000BF00BF00BF00BF00BF8A422FD000BF28
:1003900000BF00BF00BF00BF00BF00BF00BF00BF65
:1003A00000BF00BF00BF00BF00BF00BF00BF00BF55
:1003B00000BF00BF00BF00BF00BF00BF00BF00BF45
:1003C00000BF00BF00BF00BF00BF00BF00BF00BF35
:1003D00000BF00BF00BF00BF00BF00BF00BF00BF25
:1003E00000BF00BF00BF00BF00BF00BF00BF013B98
:1003F000C3D1124B4FF40032C3F80021124A00233C
:1004000013700BB0BDE8F08F16461346D2F81C905F
:10041000B9F1000F1AD0CC464C464FF00109F8E66E
:10042000002D62D1121A1A60069301230893069ACE
:1004300034E600BF001001407838002000E100E001
:10044000703000200024F400623700207B4C7C4D8B
:10045000C4F808E07B4C4FF02F0C246800BF00BFAD
:1004600000BF00BF00BF00BF00BF00BFAC422FD025
:1004700000BF00BF00BF00BF00BF00BF00BF00BF84
:1004800000BF00BF00BF00BF00BF00BF00BF00BF74
:1004900000BF00BF00BF00BF00BF00BF00BF00BF64
:1004A00000BF00BF00BF00BF00BF00BF00BF00BF54
:1004B00000BF00BF00BF00BF00BF00BF00BF00BF44
:1004C00000BF00BF00BF00BF00BF00BF00BF00BF34
:1004D000BCF1010CC2D1012425460994CC464C46FE
:1004E000CA4603950795A94693E6059C236099E7BC
:1004F000059B1946C1F800C0B1E6089B002B3FF4EC
:100500007DAFBBE64D49504B4E4E4D4C4FF48030C5
:100510004FF400370125C3F88070C1F848032F233A
:10052000C1F808034D6030681E4600BF00BF00BF21
:1005300000BF00BF00BF00BF00BFA0422FD000BF60
:1005400000BF00BF00BF00BF00BF00BF00BF00BFB3
:1005500000BF00BF00BF00BF00BF00BF00BF00BFA3
:1005600000BF00BF00BF00BF00BF00BF00BF00BF93
:1005700000BF00BF00BF00BF00BF00BF00BF00BF83
:1005800000BF00BF00BF00BF00BF00BF00BF00BF73
:1005900000BF00BF00BF00BF00BF00BF00BF013EE3
:1005A000C3D18D6002990A6000BF00BF00BF00BFC9
:1005B00000BF00BF00BF00BFA0422FD000BF00BFE0
:1005C00000BF00BF00BF00BF00BF00BF00BF00BF33
:1005D00000BF00BF00BF00BF00BF00BF00BF00BF23
:1005E00000BF00BF00BF00BF00BF00BF00BF00BF13
:1005F00000BF00BF00BF00BF00BF00BF00BF00BF03
:1006000000BF00BF00BF00BF00BF00BF00BF00BFF2
:1006100000BF00BF00BF00BF00BF00BF013BC3D190
:100620000A4B1A70EAE60A4B9DF80C1019701EE688
:10063000029B1F6017E6059A136020E50010014039
:100640000024F4007030002000E100E07838002041
:1006500062370020F0B4564B564A574E574C4FF471
:1006600080304FF400310125C2F88010C3F84803F0
:100670002F21C3F808035D6030680E4600BF00BF3D
:1006800000BF00BF00BF00BF00BF00BFA0422FD00F
:1006900000BF00BF00BF00BF00BF00BF00BF00BF62
:1006A00000BF00BF00BF00BF00BF00BF00BF00BF52
:1006B00000BF00BF00BF00BF00BF00BF00BF00BF42
:1006C00000BF00BF00BF00BF00BF00BF00BF00BF32
:1006D00000BF00BF00BF00BF00BF00BF00BF00BF22
:1006E00000BF00BF00BF00BF00BF00BF00BF00BF12
:1006F000013EC3D19D6000BF00BF00BF00BF00BF6F
:1007000000BF00BF00BFA0422FD000BF00BF00BF8E
:1007100000BF00BF00BF00BF00BF00BF00BF00BFE1
:1007200000BF00BF00BF00BF00BF00BF00BF00BFD1
:1007300000BF00BF00BF00BF00BF00BF00BF00BFC1
:1007400000BF00BF00BF00BF00BF00BF00BF00BFB1
:1007500000BF00BF00BF00BF00BF00BF00BF00BFA1
:1007600000BF00BF00BF00BF00BF0139C3D1144E9E
:10077000144D154C1549164F00203070286020701C
:100780004FF48015E0240B26087048708E70387086
:100790001049C2F8805182F814431560C3F8080567
:1007A00082F81143D3F804350B60F0BC704700BFEA
:1007B0000010014000E100E0703000200024F4004F
:1007C000783800205C370020603700206437002034
:1007D0006137002058370020074B9B780BB9082061
:1007E00070473AB130B10368187C0028F7D15974CA
:1007F0005A61704707207047643700202DE9F043A5
:10080000264CA37883B01BB9082003B0BDE8F08361
:100810000028F9D0042903D8072003B0BDE8F083ED
:100820004369002BF0D0064602A8737C0025012BFB
:1008300000F8015D0CBF8946A94690460F4600F0BE
:100840006FF86378A07821785A1CD2B2904208BF22
:100850002A4691421BD003EB430304EBC303012060
:100860000F4918719E60D1F804159DF80700D960F2
:100870001F61C3F81490C3F81880627000F078F814
:10088000084B4FF480122846C3F80021BDE79DF8BD
:10089000070000F06DF80420B7E700BF64370020C0
:1008A0000010014000E100E070B51B4CA37882B05D
:1008B00013B9082002B070BD0028FAD04369002B9C
:1008C000F7D0064602A8002500F8015D357400F057
:1008D00027F86278A0782178531CDBB2984208BFD1
:1008E0002B46994212D002EB420204EBC2020221D3
:1008F0009DF8070096601171637000F039F8074B9E
:100900004FF480122846C3F80021D3E79DF8070072
:1009100000F02EF80420CDE76437002000E100E06D
:10092000F0B4EFF3108472B60E4B9A68B2B90E4968
:1009300001259D60D1F880700C4D2E463D401D6014
:10094000C1F88060D1F884505D604FF0FF33C1F88A
:100950008430027004B962B6F0BC704701230370A2
:10096000F8E700BFDC40002000E100E0FC06FFBD2E
:10097000094B9A6872B168B910B4EFF3108272B67D
:1009800006491C680C605C684C60986002B962B6ED
:100990005DF8044B704700BFDC40002000E100E040
:1009A000044B195C4FF0A04201238B40C2F80C3578
:1009B000704700BF30670200044B195C4FF0A04243
:1009C00001238B40C2F80835704700BF3067020032
:1009D0004FF0A04310B44FF480204FF400344FF494
:1009E00000214FF48012C3F80845C3F80805C3F886
:1009F0000815C3F808255DF8044B7047084B4FF005
:100A0000A0411B5CD1F80405012202FA03F323EA9A
:100A100000020340C1F80825C1F80C35704700BF3B
:100A20003067020030B44FF0A04303224FF400358A
:100A30004FF480244FF400204FF48011C3F8442772
:100A4000C3F84827C3F84C27C3F85027C3F8085504
:100A5000C3F80845C3F80805C3F8081530BC70474B
:100A600010B51A4B1A6882B0A2B100221A601B6836
:100A700000934FF080430122154C0099C3F80823DE
:100A8000A368627033B10CCB0020A2609847A368C2
:100A9000002BF8D10F4B1A68AAB100221A601B680C
:100AA00001934FF080430222094C0199C3F80823B7
:100AB00023690122A27033B10CCB01202261984737
:100AC0002369002BF8D102B010BD00BF0001004027
:100AD0007C3800200401004058B910B5054CA368CB
:100AE00033B10CCB0020A2609847A368002BF8D14B
:100AF00010BD70477C38002010B582B002A80023DA
:100B0000144C00F8013DFFF70BFF237893B9124A0C
:100B10006360E3601068A36010F00100236114D0EB
:100B200005F036F820B94FF080430122C3F81825AC
:100B300001232370E3689DF8070001330122E3607D
:100B4000A270FFF715FF02B010BD072100F006F8F4
:100B5000E6E700BF7C38002000E100E0002810B488
:100B600018DB00F1604303F561434901C9B283F822
:100B70000013C3B24009800000F1604000F56140FD
:100B800003F01F0201239340C0F8803103605DF839
:100B9000044B7047C3B2044A03F00F0449012244D6
:100BA000C9B21176E6E700BFFCEC00E030B51D4CA1
:100BB00094F8545083B015B1082003B030BD4FF005
:100BC000FF33FF220721062023636363A363E363EC
:100BD00023646364A364E36423606360A360E360ED
:100BE00023616361A361E361236284F8503063622F
:100BF000A36284F85230E36284F8533084F85120C1
:100C0000FFF7ACFF084B094A1D601B680193019870
:100C10004FF000430121284684F85410C2F80433F1
:100C200003B030BD903800207C610040006000407F
:100C3000034B93F85400003018BF0120704700BFE9
:100C400090380020F0B5624C251895F93030002B13
:100C500001DB0820F0BD91F803E09446BEF1000FDF
:100C600056D02368013300F0A380002508266B1CB2
:100C7000574F54F82320013251D0AB1C9E4245D926
:100C800057F8232001324AD0EB1C9E423ED957F838
:100C90002320013243D02B1D9E4237D957F8232001
:100CA00001323CD06B1D9E4230D957F8237001377A
:100CB00035D0AB1D9E4229D954F82320444F013230
:100CC0002DD0EB1D9E4221D957F82320013226D08A
:100CD00005F108039E4219D957F8232001321ED08E
:100CE00005F109039E4211D957F82320013216D08D
:100CF00005F10A039E4209D957F8237001370ED037
:100D00000B35AE4202D9E36A013307D00420F0BDAF
:100D1000236A013353D008250C26A8E70B23261895
:100D20005DB244F823C086F83050BEF1000F02D106
:100D3000234483F848008B78A3B94A784FF0A04643
:100D400000F5E073920046F82320CB78A3B9083D64
:100D50002C44097894F8502042EA811284F85020FB
:100D60001846F0BD830003F1A043D3F8002722F01A
:100D70000202C3F80027E8E7AB0003F1804303F564
:100D8000C0430A78D3F8101521F4473121F440719B
:100D9000C3F810151204000202F44031D3F81045D4
:100DA00000F4F8520A432243C3F810250020F0BD96
:100DB000002385F83030C4F800C01D46BBE7082684
:100DC00085F830603346C4F820C03546B0E700BF30
:100DD00090380020F0B42E4D2E1882B096F93030A5
:100DE000072B1CDD2B4493F848309B09032B41D083
:100DF000012B14BF4FF440334FF40033800000F157
:100E0000A040D0F8002722F44032C0F80027D0F8E4
:100E100000271343C0F8003702B0F0BC7047DAB2C5
:100E2000072AF9D8980000F1804000F5C04003F18E
:100E300040029200D0F8104592B202F180420027A1
:100E400044F0010402F5C042C0F810450197019832
:100E500017600029E0D096F9302055F82220002AAA
:100E6000DAD001220B4902FA03F3C1F8043302B0CD
:100E7000F0BC70474FF0A043D3F81035C34013F0D7
:100E8000010F0CBF4FF400334FF44033B6E700BFFF
:100E90009038002000600040154B034493F9303037
:100EA000072B17DCDAB2072A13D810B49A0002F124
:100EB000804202F5C0420F4CD2F81005012120F00B
:100EC000010001FA03F3C2F81005C4F808335DF815
:100ED000044B7047800000F1A040D0F8003723F4A5
:100EE0004033C0F80037D0F80037C0F800377047FB
:100EF00090380020006000404FF0A043D3F8103538
:100F000023FA00F000F00100704700BF2DE9F04324
:100F100087B00026C94B01961A68012A00F00482A6
:100F2000C74B1A68012A00F0F181C64B1A68012AE2
:100F300000F0DE81C44B1A68012A00F0CB81C34B5C
:100F40001A68012A00F0B881C14B1A68012A00F022
:100F5000A581C04B1A68012A00F09281BE4B1A6825
:100F6000012A00F07F81BD4B1A68012A00F05981E7
:100F700016F0FF0F1AD0BA4F01250024A30003F189
:100F800080432E4203F5C0434FEA45050BD0D3F80A
:100F9000100557F82420D3F81015C0F30420C1F32E
:100FA000014102B190470134082CE7D1002E02DB49
:100FB00007B0BDE8F083AA4C00224FF0FF3327466C
:100FC0000292039301260DF1080894F950104D1C6C
:100FD0002DD0C9B221F0C00006AB4FEAD00E03EB12
:100FE0000E0201F0070312F80CCC06FA03F31CEA18
:100FF000030F1CD03D18890995F9305057F82590FA
:10100000B9F1000F00F0E880032900F0E8804FEA12
:10101000800E0EF1A04E12F8145CDEF800271D4081
:10102000C2F3014240F0B580032A00F0A2810025FE
:1010300094F95110481C2FD0C9B221F0C00006AB62
:101040004FEAD00E03EB0E0201F0070312F80CCCAE
:1010500006FA03F31CEA030F1ED007EB000C890904
:101060009CF930C057F82C90B9F1000F00F0C68001
:10107000032900F0C6804FEA800E0EF1A04E12F850
:1010800014CCDEF800271CEA030FC2F3014240F043
:101090008D80032A00F0928194F952104A1C2ED0C0
:1010A000C9B221F0C00006AB4FEAD00E03EB0E022E
:1010B00001F0070312F80CCC06FA03F31CEA030F45
:1010C0001DD007EB000C89099CF930C057F82C9013
:1010D000B9F1000F00F08980032900F088804FEA01
:1010E000800E0EF1A04E12F814CCDEF800271CEA98
:1010F000030FC2F3014265D1032A00F04C8194F939
:1011000053104B1C2CD0C9B221F0C00006AB4FEAE3
:10111000D00E03EB0E0201F0070312F80CCC06FA16
:1011200003F31CEA030F1BD007EB000C89099CF9A1
:1011300030C057F82C90B9F1000F69D0032969D05D
:101140004FEA800E0EF1A04E12F814CCDEF8002704
:101150001CEA030FC2F3014211D1032A00F0F08010
:10116000002D3FF425AF4FF0A043019AD3F810357E
:1011700093423FF41DAF029A0193039225E7022A9E
:10118000EED1032900F02D81B9F1000FE8D0C84756
:10119000E6E7022A7FF44BAF032900F02B810025FC
:1011A000B9F1000F3FF444AFC84741E7022A7FF48A
:1011B00073AF032900F01881B9F1000F3FF46CAF51
:1011C000C84769E7022A9AD1032900F01081B9F1D2
:1011D000000F94D0C84792E703297FF428AF18F88E
:1011E0000E501D4308F80E5011E7032987D118F857
:1011F0000EC04CEA030C08F80EC070E703297FF418
:101200004BAF18F80EC04CEA030C08F80EC032E7DA
:101210000329A5D118F80EC04CEA030C08F80EC03B
:101220008EE700221A601B6805934FF0A043059AD1
:10123000D3F81035019346F0004699E6006100406E
:1012400004610040086100400C61004010610040F2
:1012500014610040186100401C6100407C61004046
:1012600090380020654AD2F8042317067FF57BAE3C
:1012700000221A601B680493049B46F0800672E605
:101280005E4AD2F8042352067FF568AE00221A6047
:101290001B680493049B46F040065FE6574AD2F869
:1012A000042391067FF555AE00221A601B68049353
:1012B000049B46F020064CE6504AD2F80423D006A0
:1012C0007FF542AE00221A601B680493049B46F02F
:1012D000100639E6494AD2F8042314077FF52FAEE9
:1012E00000221A601B680493049B46F0080626E659
:1012F000424AD2F8042355077FF51CAE00221A603B
:101300001B680493049B46F0040613E63B4AD2F89C
:10131000042397077FF509AE00221A601B68049327
:10132000049B46F0020600E63449D1F8041311F09C
:1013300001011CD01E601B680493049B1646EFE558
:1013400003297FF421AF4FF40033DEF8002722F4A5
:101350004032CEF80027DEF8002701351343EDB206
:10136000CEF80037B9F1000F7FF411AFFBE60E465F
:10137000D6E503297FF414AF4FF40033DEF80027DD
:1013800022F44032CEF80027DEF800271343CEF8CF
:101390000037012504E703297FF419AF4FF4003328
:1013A000DEF8002722F44032CEF80027DEF80027CE
:1013B00001351343EDB2CEF8003708E703297FF477
:1013C000FBAE4FF40033DEF8002722F44032CEF8B3
:1013D0000027DEF8002701351343EDB2CEF80037C1
:1013E000EAE64FF44033B0E74FF44033EBE74FF415
:1013F0004033D5E74FF44033C0E700BF0060004002
:101400005AB1F8B54379114F114D03EB430445F838
:1014100023203C5D1CB10820F8BD0720704705461D
:101420000E4690F904008978FFF798FB2B68328804
:10143000C3F808256B79F178357903EB4303FA1883
:101440000126FE54557091702046F8BDEC380020FE
:10145000E83800200368044A01211960437903EB4E
:1014600043030221D1547047EC380020036804493B
:1014700001225A60437903EB4303CA54704700BF0B
:10148000EC38002002680123C2F848330268C2F831
:101490000833704710B5474BD3F80423D10384B009
:1014A00003D5454A1168002945D1424BD3F804239E
:1014B000920303D5414A116800294BD13D4BD3F823
:1014C0000423540303D53E4A1168002952D1394BF5
:1014D000D3F80423100303D53A4A1168002959D1DF
:1014E000344BD3F80423D10702D5D3F80021B2B985
:1014F000304BD3F80423920702D5D3F804210AB95C
:1015000004B010BD0022C3F804212F4AD3F80431DF
:10151000019305201368019A984704B010BD00227A
:10152000C3F80021284AD3F800310293042013683D
:10153000029A9847DCE74FF480310020C3F8481343
:10154000214CC3F808131060136803932368039AAF
:101550009847AAE74FF400310024C3F848131A480B
:10156000C3F808131460136803930368039A0120F7
:101570009847A3E74FF480210024C3F8481312488A
:10158000C3F808131460136803930368039A0220D6
:1015900098479CE74FF400210024C3F848130A48F9
:1015A000C3F808131460136803930368039A0320B5
:1015B000984795E7004002404041024044410240C4
:1015C000484102404C410240E8380020F0B504791F
:1015D000724E6401331987B0DD7E15B1082007B063
:1015E000F0BD4D7F1D770D686B1C0BD04FF0A047F1
:1015F0000123AB40C7F808350B6803F5E0730325FA
:1016000047F823504B685F1C06D003F5E0734FF09A
:10161000A045002745F82370037906EB43131B7F91
:10162000002B4DD003688D69C3F824554F7D0B7D89
:1016300005683B43C5F86C3503680F684D68C3F80F
:101640000C75C3F814550B7D012B00F09B803319EA
:1016500005465A600B6951483351EAB12B79097F2D
:101660002A6800EB4310037F002B65D1C2F81C31C0
:10167000D2F81C712A680097009FC2F84431D2F852
:1016800044212B6846480192019AC3F80403286854
:1016900040F30730FFF762FA2B792A6806EB431311
:1016A0001B7F002B44D00823C2F8003534440020AF
:1016B0000123E376E0752076A075A07607B0F0BD33
:1016C00005688F69C5F8247591F815E00D7D0768E8
:1016D0004EEA0505C7F86C550568D1F800E04F687B
:1016E000C5F81475C5F80CE50D7D012DAFD18D68D9
:1016F0006F1C05D005F5E0754FF0A04747F8253081
:10170000CB685D1C0DD001254FF0A04705FA03F30F
:10171000C7F80835CB6803F5E073032547F8235075
:10172000CB6805688F68C5F80835C5F810758EE771
:101730000423C2F80035B9E70023C2F81031D2F80B
:1017400010712A680297029FC2F82031D2F82071E6
:101750002A680397039FC2F82431D2F824712A68BB
:101760000497049FC2F84431D2F844212B680592B3
:101770000C48059AC3F80403286840F30730FFF7C4
:10178000EDF989E78B685D1CBAD003F5E0734FF083
:10179000A045002745F82370B2E700BFF0380020CD
:1017A0008000020010030200F0B503793D4A04688E
:1017B0005B01D118097F00296DD00021C4F8001504
:1017C000D118384C4968B1B1017904EB4114217F3B
:1017D000002963D10168344CC1F808430168334ED5
:1017E000090B4CB26409203401F01F01012505FAF0
:1017F00001F146F824100179076802EB4111D7F88E
:101800000C65097FD7F814554FF0FF3EA9B3D7F800
:101810000815D7F81045C7F80CE5C7F814E50068B7
:10182000C0F808E5C0F810E5771C06D006F5E076AC
:101830004FF0A040022740F826706E1C06D005F538
:10184000E0754FF0A040022640F82560651C06D0E8
:1018500004F5E0744FF0A040022540F82450481CE5
:1018600006D001F5E0714FF0A040022440F821407D
:1018700013440022DA765A60F0BDD7F80815D7F87D
:101880001045C7F814E5C7F80CE50068C0F808E58E
:10189000C0F810E5C8E7C4F8001591E70168044CEA
:1018A0009AE700BFF03800208402020000E100E067
:1018B00010030200F0B50379534C5B01E51887B0C3
:1018C0002D7F3DB101F06045B5F1005F02D01020E1
:1018D00007B0F0BD23444C4F9E7D16B1112007B0D8
:1018E000F0BD9A7599609E8205796D017A19137F12
:1018F00013BB0168C1F81C31D1F81C610168049662
:101900000126049F8E600168D2F808E0C1F81C31FE
:10191000D1F81C310593059B968A938A5768B6B215
:1019200001331EF806609BB29382C1F81C65002F3C
:101930002FD0002007B0F0BD03689168C3F8206184
:10194000D3F8207103680197019FC3F85861D3F859
:10195000586103680296967D029FC3F84415C3F848
:1019600048650368012199605368002BE1D1036841
:1019700001E0002945D1D3F82021D3F85811002ADD
:10198000F7D0002914BF0F2000202C440023A3759A
:101990009EE7967D938A9BB29E4202F1140122D962
:1019A000016804E0938A9BB2B3F5807F03D0D1F83D
:1019B0001C31002BF6D0938A9BB2B3F5807FE9D01F
:1019C000C1F81C71D1F81C310393039BB2F814C009
:1019D000938A1FFA8CFC01331EF80CC09BB29382D1
:1019E000C1F81CC5D6E70B889BB2B3F5807F08D041
:1019F0000268D2F81C31002BFBD00123D3600020F9
:101A0000C3E70F20C1E700BFF03800200279044B84
:101A100003EB4213987D003018BF0120704700BFD0
:101A2000F0380020F0B403798C4E5B01F41888B0D4
:101A3000257F4DB101F06045B5F1005F59D010220E
:101A4000104608B0F0BC70476568002D42D13344A1
:101A5000824FDC7D002C2BD1DA75D9605C761C7648
:101A600005796D0173191F7F002F50D19B7E8BB9B3
:101A700084B90368C3F82441D3F82421036803928E
:101A8000039AC3F80841D3F808210368049201229D
:101A900004991A6071194B68002B6FD003684FF4DA
:101AA0000172C3F804230022104608B0F0BC70474E
:101AB0001C7ED4B1002D00F0AA80037907EB4317F8
:101AC0003B7F002B53D003684FF40472C3F8042308
:101AD0001122B5E704684FF401773344C4F8087362
:101AE000DC7D5E4F002CB7D0E2E719611A76012445
:101AF000B6E76568002DAAD004684FF40477334434
:101B0000C4F80873DC7D554F002CA5D0D0E70368DE
:101B10000025C3F81051D3F8107103680197019F95
:101B2000C3F84451D3F8445103680295029DC3F8A9
:101B30003415C3F8382594B9036801221A60027974
:101B40005201B3185B68002B63D003684FF4047232
:101B5000C3F804230022104608B0F0BC70470268A6
:101B6000D2F8003243F02003C2F80032E7E70368FE
:101B70004FF40172C3F80423112261E70268C2F82E
:101B80004431D2F844310593059B0368D3F824719E
:101B9000D3F80841D3F8442144B9002A30D1002FAA
:101BA000F4D035440023EB75032249E7002FF8D128
:101BB00042BBCC7DC3F80821D4B1D3F808410694C8
:101BC000069CCF684C7ED3F818353B554B7ECC7DB8
:101BD0000133DBB24B764B7E9C42D6D83544002194
:101BE000AB7EE975002B34D003680121196027E72B
:101BF000D3F808410794079CD3F818354B7EEDE7DE
:101C0000002FCED135440023EB750F2218E71122A7
:101C100016E7036801E0A0B9BCB9D3F81011D3F8F6
:101C20004401D3F824410029F5D01644002C4FF08C
:101C3000000314BF03221A469842F37518BF0F22FF
:101C4000FEE616440F22F175FAE616440322F075FB
:101C5000F6E6036801215960F2E600BFF038002083
:101C600070B59B4C237F8EB0002B75D1994AD2F86A
:101C70000413890548D4974BD3F80423520704D59D
:101C8000D3F80821002A40F0CA80924BD3F81C21D7
:101C9000C2B1A28AA07D8E4992B282424FF0000268
:101CA000C3F81C2180F0A980D3F81C210692069A63
:101CB000888A8A8A8D6880B20132285C92B28A82D0
:101CC000C3F81C05834BD3F84421DAB10022C3F8D2
:101CD0004421D3F84411A27E04910499002A40F0D3
:101CE0008980E27D7A4B6AB10022587ED968DA7524
:101CF00001228DF830000B918DF828200AA893E876
:101D0000060090470EB070BDD2F824110029B2D061
:101D1000C2F82431D2F82411A37E07914FF4017147
:101D20000798C2F808130BB901235360694A0223CC
:101D30008DF82830D2F88034C2F88034E07DE26833
:101D40000D9300238DF83000E375237621680B9204
:101D500063680AA8984798E75E4BD3F82421002AC5
:101D600040F09380D3F8101161B1C3F81021D3F87B
:101D7000101103910399D3F83C15E07DC9B2884254
:101D800000F0AA80534BD3F84421B2B10022C3F82B
:101D90004421D3F84411E07D019101994C4960B18F
:101DA000D3F83C35C8688DF830300123CA750B90E4
:101DB0008DF828300AA80AC99847464BD3F8202145
:101DC000002A9FD00022C3F82021D3F82011A07D43
:101DD000009100993E49002894D0D3F84C058B68B7
:101DE0008DF830008A750B938DF828200AC90AA84F
:101DF000984787E701221A6073E7D3F81C310593EF
:101E0000059B00283FF45EAF8B688DF830008A7523
:101E10000B938DF828200AC90AA8984752E7E17D5C
:101E20002B4A002970D00021C3F80811D3F80811FB
:101E300008910899D068517ED3F818354354537EE1
:101E4000D17D0133DBB25376627E214B8A427FF42F
:101E50001CAF1A7E002A6DD19B7E13B91D4B012247
:101E60005A601C4AE06863684FF40171C2F80813B5
:101E7000627E8DF83020002501220B902168E575E7
:101E80008DF828200AA89847FFE60022C3F82421ED
:101E9000D3F82411029102218DF828100299D3F869
:101EA0008014C3F880140D91D3F83C15E368E275F3
:101EB00022768DF830100B93216863680AA8984742
:101EC000044BD3F84421002A3FF477AF5EE700BF0C
:101ED000F038002000200040217EF1B1D3F80062EC
:101EE000E17526F02001E568C3F8001226698DF837
:101EF000300001238DF82830227621680B95E660AA
:101F000063680AA898473DE7C3F80811D3F8082189
:101F10000992099AD3F8183596E7E268E17501232A
:101F20008DF830008DF828300B9294E80A000AA84A
:101F3000984727E7DE685D7E1869DA75012100227F
:101F4000D8601A765A768DF828100B968DF8305096
:101F500093E806000AA8904797E600BF9ADF70470B
:101F60009CDF704762DF70470B785BB92DE9F04F5B
:101F70008C88024641F22350844287B003D007B0D8
:101F8000BDE8F08F70478E79107BB042F7D10F7AA1
:101F90004888ADF80A00B7B3BDF810000190BDF84D
:101FA0000CB0BDF80EA099469846184641F2245E42
:101FB00041F2255C06E0644512D00130B84201F1DF
:101FC000120113D0CC890D7C7445F4D1AE42F4D10A
:101FD0004FF00109C846B1F818B0B1F816A0ECE707
:101FE000AE42EAD1CB8A01930123E6E7B8F1000FB4
:101FF00022D1B9F1000F01D0ADF80EA01BB1BDF890
:102000000430ADF8103011884FF6FF7399420AD0B2
:10201000538843B9938833B906AB53F80C0DC2F813
:1020200002009B88D38006A9002301F8103D1361AC
:10203000104693689847A2E7ADF80CB0D9E700BF07
:1020400030B329B370B5134B86B006469A6818684A
:102050000D465968DB6802AC0FC406F10C0102A8FA
:10206000FFF780FF90B906AB41F2235223F8142DFD
:102070004FF6FF7230617080B080F080B560184616
:102080003280337B8DF8063002F008F906B070BD5F
:102090000E2070473467020040B1018022B11368FE
:1020A000C0F802309388C380002070470E2070472C
:1020B00000285CD000295AD0F0B50B88362B85B0AB
:1020C00005460C4633D0392B07D0112B23D02B8853
:1020D000A288934233D005B0F0BD02888B889A4223
:1020E000F9D14A8983889A4229D1C98903698268CA
:1020F0000B4403612169A788E689039301230291B8
:102100008DF80030ADF80270ADF804606946904774
:102110002B88A288DDE702888B889A42DBD10022D7
:102120004FF6FF730360426002618A88D1E702883C
:102130008B889342CFD14989C28891421DD0144CDB
:10214000144A236812689342C5D003EB8300124DF2
:10215000800029188A785AB98988285AFFF7FEFE24
:102160000028B8D1013303F007032360B3E77047B9
:102170000831285AFFF7F4FEF2E702212269ADF890
:1021800002308DF8001001928368694698479EE7F7
:1021900010390020B439002014390020002836D02E
:1021A000F8B501884FF6FF73994201D10820F8BDB8
:1021B0001B4FB0F802E03B681A4E1B4D03EB830047
:1021C0008000013303F007022C68315233180221DA
:1021D00000203A60D9811F1D01219442A3F80AE032
:1021E0001F619881587119721971997016D004EB9A
:1021F00084039B00F1188A785AB98988F05AFFF74E
:10220000ADFE58B9013404F007042C60F8BD0E206F
:1022100070470831F05AFFF7A3FEF2E70020F8BD3F
:10222000B4390020143900201039002080B3F8B5EB
:1022300002884FF6FF739A4201D10820F8BD194F6A
:10224000194E3B68194DB0F806E02C6803EB830289
:102250009200B118013303F00703A1F804E0B0F8CD
:1022600000E03B600020A34226F802E0887016D010
:1022700004EB84039B00F1188A785AB98988F05AD4
:10228000FFF76CFE58B9013404F007042C60F8BD68
:102290000E2070470831F05AFFF762FEF2E7002087
:1022A000F8BD00BFB43900201439002010390020D7
:1022B000A0DF7047A4DF7047A6DF704762DF70477A
:1022C0002DE9F041036A428BC8B0B3F5801F044684
:1022D000ADF8062053D20DF1060100228088069148
:1022E00008AD012104920592ADF810008DF812108E
:1022F000079502AF4FF002084FEA132E1E0C1A0E7C
:1023000004A920882B7085F801E0AE70EA70FFF711
:10231000D3FF13282ED090B9BDF80620236AE169B7
:1023200013449A0A91422362E6D07B6087F80080CA
:102330006369E26197E803009847236ADCE7024695
:1023400017490120FDF700FBBDF80610236AE2697A
:102350000B44990A9142236209D00220039302AAF6
:102360008DF80800E161636992E80300984748B07E
:10237000BDE8F0810123237648B0BDE8F081032158
:10238000039302AA8DF80810636992E80300984746
:10239000002323762362E36148B0BDE8F08100BFEB
:1023A000546702000B88112B024625D01FD9502BF1
:1023B00004D0572B28D1037E13BB70470089CB88EC
:1023C0009842FAD10B8A022BF7D110B5084682B099
:1023D0001230144602F04AFE02AB80F0010003F80E
:1023E000080D626993E80300904702B010BD102BFE
:1023F0000BD18B88038070474FF6FF7303807047C3
:1024000000230376FFF75CBF70477047F0B5374B8A
:1024100097B004469A6818680E465968DB6802ADA2
:102420000FC5A11C02A8FFF749FF00285AD1A378C5
:102430008DF806300DF1020241F2235301A901206B
:10244000ADF80430FFF734FF002848D120220021E6
:1024500006A8FCF777FF9DF82530A2788DF81A20A2
:10246000012543F0100341F2245EF727BDF8020076
:102470008DF8253006A9221DADF818E0ADF81C70C6
:102480008DF82B508DF8245002F0F4FD20BB202253
:1024900000210EA8FCF756FF9DF84530A2788DF874
:1024A0003A2043F0020341F2255E04270125BDF8DE
:1024B00002008DF845300EA904F10C02ADF838E0A9
:1024C000ADF83C708DF8495002F0D4FD08B1FDF72D
:1024D00017FD666117B0F0BDFDF712FDD7E7FDF7F8
:1024E0000FFDB3E7FDF70CFDA1E700BF4467020055
:1024F0000022C2610262FFF7E3BE00BF0A8840F615
:1025000077239A4202D18B88033B4383704700BFF5
:10251000F0B585B00C4605460822002102A8FCF75C
:1025200011FF270C4FEA142E260E8DF804400424C8
:102530000DEB040302AAA98928888DF805E08DF81F
:1025400006708DF80760ADF808400393FFF7B2FE00
:1025500020B1024602490120FDF7F6F905B0F0BDB1
:10256000846702004FF0FF30FDF7CABC00B50C4B8A
:102570000C4A18689B8883B069460090ADF8043017
:1025800009482023ADF80030FEF73AFF08B1FDF707
:10259000B7FC0548FEF776FF03B05DF804FB00BF0B
:1025A000B867020065250200C0670200024B0348BD
:1025B00001221A60FEF74EBF08400240C0670200C9
:1025C0000148FEF753BF00BFC0670200014BD3F8BC
:1025D000040570470040024073DF704774DF7047A6
:1025E00075DF704776DF70477ADF70477CDF7047B2
:1025F0008ADF70478BDF70478CDF7047A9DF704739
:1026000069DF704766DF704767DF70473EDF7047FE
:102610000378012B04BF014A137070470C3B002064
:10262000FDF76EBC38B50B8840F6772293420C4616
:1026300011D04DF67A22934207D10E4B0A790E49FA
:10264000012503201D70FDF77FF921460B48BDE8E9
:102650003840FFF753BF0A4B8A880A4901250320F7
:102660001D70FDF771F921460448BDE83840FFF7B9
:1026700045BF00BFAE3D002010680200E83A0020D0
:10268000AD3D0020D467020001460148FFF76CBC55
:10269000983D00200F2808B50AD0102807D1084916
:1026A0000320FDF7F9F8074B02221A7008BD08BD98
:1026B00005490320FDF7F0F8024B01221A7008BD0E
:1026C00068680200943D00203C680200F0B52C4C84
:1026D0002C4A21882C4F2D4E2D4D2E48002313704F
:1026E0004FF6FF7291423B7085B033702B700370D0
:1026F0000AD029490320FDF7CFF820881321FFF7DE
:1027000071FFF0B905B0F0BD244A1378DBB2012B9C
:1027100004BF23490B701378022BF3D1214B1C7893
:10272000012C15D020490320FDF7B6F80020FEF754
:1027300037F91E48FFF75CFF0028E3D0FDF7E0FB08
:10274000E0E702461A490120FDF7FEF805B0F0BDAA
:1027500000254FF49673174902950320ADF80A300F
:10276000009501950395FDF797F82846FEF718F9AF
:1027700021466846FFF730FF0028C3D0DEE700BFE0
:102780005C300020B43D0020703D0020AD3D0020B5
:10279000AE3D00200C3B002098680200943D0020D4
:1027A000953D0020AC3D00200C690200CC67020082
:1027B000B4680200E86802002DE9F04303881D2B8D
:1027C00083B0044600F082800ED93B2B3AD041D929
:1027D000522B35D100231A4619468088FFF70EFF89
:1027E00040B1FDF78DFB05E0102B4DD0112B17D01C
:1027F000012B42D0204601F0C7FB21466F4801F073
:10280000E9FD21466E4802F093FE21466D48FFF730
:10281000C9FD21466C48FFF74BFC03B0BDE8F083CF
:102820006A4B6B4A1B784FF6FF7111801BB16949E7
:102830000220FDF731F8FEF7CBF8FFF747FFD9E7A5
:10284000562BD7D1624B13211888FFF7CBFE0028F7
:10285000D0D0C6E71F2BCDD100F1080393E80300C9
:102860008DE803006946BDF80030A088ADF802305D
:10287000FFF7B6FE0028BDD0B3E700218088FFF740
:10288000C1FE0028B6D0ACE7C37B514A5248A188AC
:102890000370012B11807AD0022B7DD0FFF7AAFEA6
:1028A000FFF79CFE4D490320FCF7F6FF00214FF493
:1028B00018724248FCF746FDA188404801F056FDD9
:1028C00008B1FDF71DFBFEF783F893E790F817803A
:1028D0005FEAD80800F118078CD0417E067E0929EE
:1028E000B1465ED0002304E0527817F80390092A1D
:1028F00040D009F101094B44434507EB0302F3D3F0
:10290000082950D0002301363344434507EB030226
:10291000BFF470AF5278FE5C082AF4D19D1C304899
:1029200003F05AFA013EB6B2B0427FF463AF0246FA
:1029300079192B4803F004FA00287FF45BAF294D86
:10294000274A29490320FCF7FFFF0626FFF746FE2A
:1029500026492E802A46012304F108006E80FFF7E5
:102960004BFE00283FF446AF024621490120FCF708
:10297000EBFF3FE79D1C1A4803F02EFA09F1FF39DF
:102980001FFA89F9484510D0617E267EB8E71949BB
:102990000320FCF781FF81E717490320FCF77CFF48
:1029A0007CE70225E7E70225B9E7024679190C48DA
:1029B00003F0C6F90028E7D1C1E700BF103B0020B3
:1029C000743D0020E83A0020983D0020B43D0020EE
:1029D0005C300020CC690200AC3D0020A4690200FC
:1029E000E07102004C300020146A0200CC67020043
:1029F00028690200586902008069020070B52DED57
:102A0000028B84B004AB03E903009DF80830032B6C
:102A100019D8DFE803F002948C1C6B490320FCF703
:102A20003BFF0120FDF7BCFF684A694B0121117093
:102A30001B788B4207D1674D2C788C4200F0AE801A
:102A4000022C00F0918004B0BDEC028B70BD039DA0
:102A5000FFF7B6FD0220FDF7AFFF0320FDF7A0FF53
:102A6000FFF7B4FD07EE900A9FED5B7A5B49F8EE45
:102A7000677AEB0087EE876A0446032007EE903AF8
:102A8000F8EE677AC7EE866A86EE878AFCF704FF5F
:102A900053490320FCF700FF524A5349A2FB04327A
:102AA00092094FF47A7303FB12430320FCF7AAFF49
:102AB000B5EEC08AF1EE10FA4DD44C4ADFED4C6A07
:102AC0004C49FDEEC87AB5EEC08AB8EEE77AF1EE71
:102AD00010FACCBF38EE478A37EE488A17EE903AA4
:102AE00028EE268A0320BDEEC88A8DED008AFCF709
:102AF000EFFF3B490320FCF7CFFE2A463E49032067
:102B0000FCF722FF03203D49FCF7C6FE3C48FFF7D7
:102B10008DFB002897D002463A490120FCF714FFAC
:102B200004B0BDEC028BBDE87040FFF7CFBD0220C2
:102B300004B0BDEC028BBDE87040FDF75FBF3249C9
:102B40000320FCF7A9FE012004B0BDEC028BBDE818
:102B50007040FDF731BFFFEE007AB4EEE78AF1EE88
:102B600010FAAADD294AA9E7294B2A492A4A2B4DFE
:102B7000528808881A80012419465A802C70FFF761
:102B80002FFD00283FF45FAF25490246204604B0E0
:102B9000BDEC028BBDE87040FCF7D6BE1E4B1C4A54
:102BA0005B881E49138000260133104653800E7047
:102BB00001F046FA08B92C7842E702461949204646
:102BC000FCF7C2FEF7E700BF506A0200703D00202C
:102BD000943D0020AC3D002000007A44146B0200BC
:102BE000286B0200D34D6210546B0200D46B0200BC
:102BF0000000C842846B0200AC6B0200D86B02007C
:102C0000983D0020146C0200F06A0200806B020004
:102C10004C3000205C300020543000200C3B002061
:102C2000B46A0200746A0200F8B50B78012B0C46F6
:102C30001CD00BD3022B08D14A682A490320FCF789
:102C400083FEBDE8F840FFF741BDF8BD05462649C3
:102C50000320FCF721FE221D61882846FFF71CFA9D
:102C600068BB2846FFF79AFA28BBF8BD8B68F3B11A
:102C70001E4D2B68A2881D4E1344B3F5806F2B6048
:102C800020D8E368B3F5801FEFD30220184EFDF77C
:102C900093FE0023E2681749336003202B60FCF7A2
:102CA00053FEE1681448BDE8F840FFF731BC104A14
:102CB0000E4D1360DEE7BDE8F840FDF721B9FDF7E2
:102CC0001FF9CEE70A4F0220FDF798FE33683A68F5
:102CD000E16809480132A3F580633A603360FFF789
:102CE00017FCCEE7B46C0200486C0200B03D002037
:102CF000903D0020746C0200E83A00202DE98048E5
:102D0000002093B0FCF7ACFD08B1FDF7F9F8FDF732
:102D100089FEFDF79FFC08B1FDF7F2F8FFF726FCEE
:102D200040F2666202219A48FDF762F808B1FDF7A9
:102D3000E7F8984B98491868019000234FF498726F
:102D400001A802F02BFF08B1FDF7DAF812AC00235E
:102D500044F8403D204602F08DFF08B1FDF7D0F861
:102D60000C22002103A8FCF7EDFA012303A9029A23
:102D70008DF80C3040208DF80D308DF80E30FFF7B7
:102D80003FFC08B1FDF7BCF80C2200210DEB02005E
:102D9000FCF7D8FA0121F7238DF80C10029AADF850
:102DA0000E3003A92320FFF72BFC08B1FDF7A8F88C
:102DB0000C2200210DEB0200FCF7C4FA4FF4A075C1
:102DC0000123029A8DF80C3003A920208DF80E30D3
:102DD000ADF81050FFF714FC08B1FDF791F80C2284
:102DE00000210DEB0200FCF7ADFA01231846029A10
:102DF0008DF80C3003A9FFF703FC08B1FDF780F84C
:102E0000204602F041FF08B1FDF77AF8634802F06E
:102E10000FFF08B1FDF774F89DF80C3060480122EF
:102E200062F3030362F307138DF80C3002F0D4FF52
:102E30005B4982B203A8FFF7D9FB08B1FDF760F840
:102E40005848FFF7D1FB08B1FDF75AF800234FF4BB
:102E5000804202260125544C5449069303A8079347
:102E60000393049205928DF818608DF81C50089415
:102E7000099101F04FF808B1FDF742F84C494D486F
:102E800002F0FCFA08B1FDF73BF83C22002103A850
:102E9000FCF758FA02220623002103A88DF80C2023
:102EA0008DF80F3000F03CFD08B1FDF729F84248DD
:102EB0004249FFF7ABFA424801F0D6F908B1FDF7F5
:102EC0001FF840494048FFF7BBF808B1FDF718F874
:102ED0003E4C38482588294602F0ECFA08B1FDF747
:102EE0000FF82946334802F0F1FA08B1FDF708F867
:102EF00023793048002B0CBF1B22FB224FF6FF71B9
:102F000002F0F0FA0021082203A86579FCF71AFA0A
:102F10009DF80C3003A965F3000302208DF80C30F6
:102F2000FFF772FB08B1FCF7EBFF29490320FCF720
:102F3000B3FC28490320FCF7AFFC27490320FCF72A
:102F4000ABFCFCF733FE0028FBD1FCF7A9FF08B16E
:102F5000FCF7D6FF214D2B7823B9FFF757FB2B78D1
:102F6000002BFAD0FCF7B2FF08B1FCF7C9FF2B78B1
:102F70001B4EDBB2012B08BF33702B78022B00F005
:102F80003D82DFF860B0DFF860A0DFF8609039E0E4
:102F900060300020C8670200B8390020B92702005D
:102FA000E86C02004C3000201126020021260200AD
:102FB00025260200743D0020E83A0020FD29020089
:102FC00089260200292C0200983D00205430002060
:102FD000F86C02001C6D0200586D0200943D002048
:102FE000953D00200C3B0020703D0020AD3D0020B1
:102FF0002B78DBB2012B00F08780FCF7D7FD00288F
:1030000000F0B4803378002BF2D0BD491320FCF7D8
:1030100043FCBC490320FCF73FFCBB490320FCF701
:103020003BFC2288B9490320FCF78EFC6288B84932
:103030000320FCF789FC2079B64BB74AB749002832
:1030400018BF1A460320FCF77FFCAF490320FCF7AA
:1030500023FCAB491320FCF71FFCFCF7A7FD00285D
:10306000FBD1AF490320FCF717FCAE490320FCF766
:1030700013FCAD490320FCF70FFCFCF797FD00287B
:10308000FBD1FCF731FE322800F0B180A7490320C4
:10309000FCF702FCFCF78AFD0028FBD1A44B93F857
:1030A0000080B8F1010F074600F08F81B8F1020FE0
:1030B00000F07B814FF496739E4905900320ADF894
:1030C0001630039704970697FCF7E6FB3846FDF7A2
:1030D00067FC012103A8FFF77FFA08B1FCF710FF96
:1030E00095490320FCF7D8FB0020FDF759FC9348D5
:1030F000FFF77EFA002840F06581002333702B78BB
:10310000DBB2012B7FF479AF9BF80020002A3FF45B
:1031100074AF9AF80020002A3FF46FAF99F80020AE
:10312000002A3FF46AAF864A1278002A3FF465AF5E
:10313000844A117800297FF460AF7149137013201D
:10314000FCF7AAFB80490320FCF7A6FBFCF72EFD49
:103150000028FBD1FCF7C8FDFFF728FA7B48FFF7F2
:10316000C7F9FCF723FD00287FF44CAFFFF74EFAB8
:1031700048E7FCF7B9FD32287ED033285CD03128EF
:103180007FF443AF72490320FCF786FB71490320AB
:10319000FCF782FB70490320FCF77EFB6F4903209C
:1031A000FCF77AFBFCF702FD0028FBD1FCF79CFD45
:1031B000322800F09A80332800F08B801727278070
:1031C0003946674802F076F9002840F08B8039468E
:1031D000634802F07BF908B1FCF792FE228861494E
:1031E0000320FCF7B1FBFCF7E1FC0028FBD14449CC
:1031F0001320FCF751FB5C490320FCF74DFB5B49B6
:103200000320FCF749FB5A490320FCF745FB5949C9
:103210000320FCF741FB3A491320FCF73DFB5649DC
:103220000320FCF739FB36491320FCF735FBFCF78C
:10323000BDFC0028FBD19CE750490320FCF72CFB88
:10324000FCF7B4FC0028FBD1FCF74EFD79280CBF3D
:1032500001230023237134D1FB224FF6FF71404834
:1032600002F040F92B4A46490320FCF76DFBFCF7BE
:103270009DFC0028FBD1BAE742490320FCF70CFB78
:1032800041490320FCF708FB40490320FCF704FBFD
:103290003F490320FCF700FBFCF788FC0028FBD12A
:1032A000FCF722FD322879D0332821D00623394972
:1032B00063800320FCF7F0FAFCF778FC0028FBD1D0
:1032C00095E71B224FF6FF71254802F00BF9124AD1
:1032D000C9E7F72739462248278002F0EBF8002893
:1032E0003FF475AFFCF70CFE71E79E27278067E778
:1032F0004FF4A073284963800320FCF7CDFADBE785
:10330000246B0200846D0200AC6D0200D86D0200D7
:10331000F46D02002C6E0200306E0200346E02006A
:10332000606E0200806E02009C6E0200C46E02009D
:10333000AC3D0020E86802000C690200CC67020086
:10334000AE3D0020B43D0020B0710200E83A0020FC
:10335000E46E0200086F0200246F0200406F02005A
:10336000743D00205C6F0200DC70020000710200FE
:103370002471020050710200887102008470020002
:10338000B4700200806F0200AC6F0200C46F0200D4
:10339000DC6F0200F46F02005470020028232B49F6
:1033A00063800320FCF778FA86E729490320FCF7BD
:1033B00073FA3846FDF7F4FA2648FFF719F90028A2
:1033C0003FF49BAEFCF79CFD97E64FF496732249C1
:1033D00005900320ADF81630039704970697FCF785
:1033E0005BFA3846FDF7DCFA414603A8FFF7F4F82C
:1033F00000283FF482AEFCF783FD7EE600274FF401
:103400009673154905970320ADF816300397049776
:103410000697FCF741FA3846FDF7C2FA012103A8E6
:10342000FFF7DAF808B1FCF76BFD09490320FCF758
:1034300033FA0020FDF7B4FA0648FFF7D9F8002860
:103440003FF49FADFCF75CFD9BE500BF24700200DC
:103450000C690200CC670200E86802006DDF70476B
:1034600072DF704779DF70477DDF704764DF704738
:103470002DE9F04F83B004880C9FBDF83490B7F865
:1034800000A0002C4CD09846002316468B460546DB
:103490001C4603E02A880134A24224DD6A6852F8FF
:1034A0002400019000220DF1030101A8FFF7DEFFC7
:1034B00010BB9DF80320B242ECD103B33A889319B4
:1034C0004B4518DC42440DF1030101A80123FFF72D
:1034D000CDFF88B93A889DF803100A443A802A88BB
:1034E0000134A242DADCDBB13B88013BCAEB0303C7
:1034F0009BB2FF2B12D90C2003B0BDE8F08F3B88A4
:103500005A1C334402334B4592B2F4DC3A8008F83B
:1035100002B03A88013292B23A80D3E708F80A3012
:10352000002003B0BDE8F08F2DE9F0470023178895
:10353000138090F82D3084B0144605460E46002BBB
:1035400049D1AA78002A70D1EA78002A2ED16A6877
:10355000A2B1D91CB94225D8022192F90020F15418
:10356000238801339BB20A212380F154238801333D
:103570009BB22380F2542388013323802B89002BB4
:1035800040F02A812B8A002B40F03F812B8B002BAF
:1035900040F054812A6A002A00F0A78021888B1D00
:1035A000BB4262D90C2004B0BDE8F087D91CB942F7
:1035B000F8D80221F154238801339BB201212380E2
:1035C000F15423880B449BB22380F25423880B448C
:1035D0009BB22380BBE7082FE4D902A8FFF73EFF88
:1035E0000028E0D113880822CA54238801339BB2F3
:1035F0001B222380CA542088013080B220800622FA
:1036000008440DF1090102F0AAFB23889DF8082067
:1036100006339BB212F0FE0218BF01222380F2543F
:10362000238801339BB223808BE70433BB42B9D894
:1036300002A8FFF717FF0028B5D12388BDF808209E
:103640000321F154238801339BB219212380F154C3
:10365000238801339BB2F1182380F254120A4A7076
:10366000238802339BB223806EE71388052B40F238
:10367000AF806FF4486803EB080080B24FF27D3EE4
:10368000704540F2A5805088052840F2A1806FF473
:10369000486C84441FFA8CFCF44540F299804FF644
:1036A000FF7E734504D0704502D0834200F29080C3
:1036B00005237354238801339BB212212380F154D4
:1036C000238801339BB223801188F1543344090AC3
:1036D0005970238802339BB223805288F2543344BA
:1036E000120A5A70238802332380D5F82480B8F157
:1036F000000F30D0B8F804202188131D0B44BB42C2
:103700003FF650AF931CFE2B3FF64CAF0332725482
:10371000238801339BB2FF222380F2542388013394
:103720009BB22380B8F80020F2543344120A5A7036
:103730002088023080B22080B8F804205AB1D8F82E
:103740000810002944D0304402F009FBB8F80430D6
:1037500022881344238095F82C30002B40F08B8076
:10376000287800283FF41FAF2B88012B30D0238806
:103770009A1CBA423FF616AF012805D1697802318A
:1037800019448F42FFF40EAF023FFB1A04A99BB20B
:1037900021F8083DB018FFF767FE00287FF403AF5B
:1037A0002A78022A00F0B480012A60D01A46082143
:1037B000FE2A3FF6F7AE2388551CF55423880133C3
:1037C0009BB22380F154238801331A442280EAE615
:1037D000072004B0BDE8F08705F1080802228DE853
:1037E0009000404611463346FFF742FE00287FF422
:1037F000DAAE8DE890004046334610220621FFF7EE
:1038000037FE00287FF4CFAEBCE605F110088DE846
:1038100090004046334602220321FFF729FE00288C
:103820007FF4C1AE8DE89000404633461022072158
:10383000FFF71EFE00287FF4B6AEA7E605F11808D4
:103840008DE890004046334602221421FFF710FE17
:1038500000287FF4A8AE8DE8900040463346102241
:103860001521FFF705FE00287FF49DAE92E66A78E9
:1038700093429CD29AE7D5F82880B8F1000FA7D0E0
:10388000B8F804200232FE2A3FF68CAE23884FF0AF
:1038900000094FF0160A0132F254238801339BB21B
:1038A000238006F803A0238801339BB22380B8F855
:1038B0000020F2543344120A5A70238802339BB218
:1038C0002380B8F80410F0180A4669B1D8F8083017
:1038D0001946002B3FF47CAF02F041FAB8F80430EF
:1038E000228813449BB2238009F1010995F82C200A
:1038F0005FFA89F94A4509EB49087FF631AFAA6AB0
:1039000002EB8808B8F804200232FE2AC3D949E63F
:10391000BDF808209342FFF449AF092148E700BFF2
:103920002DE9F04395B01F230D46ADF80E30044647
:10393000002800F08480C27853077CD590F82D30A1
:103940000021ADF80C10002B40F0DD8183780CAF26
:10395000002B40F019821946032014AE31445F1C3D
:10396000023316FA87F74FF0020E16FA83F601F8C3
:1039700040EC83B2012107F8401CADF80C3006F88A
:10398000402C6668002E00F08C80D81C1F2874D94B
:103990000C2015B0BDE8F083A76A002F4BD0BA8881
:1039A0000232FE2AF4D8BDF80C304FF0000804AE05
:1039B0004FF016091AE002F0D2F9BDF80C20BB88CE
:1039C00094F82C1013449BB2ADF80C3008F10108A8
:1039D0005FFA88F8884508EB480780F0F080A26A13
:1039E00002EB8707BA880232FE2AD1D80DF1500EB9
:1039F0009E44581C01320DF1500C0EF8402C1CFA5C
:103A000080F09A1C92B200F8409CADF80C203888E7
:103A1000B0543244000A50700433B7F804E09BB24B
:103A20007246F018ADF80C30BEF1000FCED0BB6876
:103A30001946002BBFD1072015B0BDE8F083ADF8C3
:103A40000C00ADB1EB78002BF5D128460CA90DF197
:103A50000E02FFF769FD0028EED19DF80E300CAA8A
:103A600020469DF80C10FFF7FBFC15B0BDE8F08375
:103A70002B46ADF80E502A46F2E714AF591C9A1C9B
:103A800017FA81F13B4417FA82F296F90060ADF81B
:103A90000C0002270A2003F8407C01F8400C02F8D1
:103AA000406C2389002B40F08F80238A002B40F04C
:103AB000AB80238B002B40F0C780226A002A42D0C3
:103AC000BDF80C30991D1F293FF662AF10880528FC
:103AD000B1D96FF4486C00EB0C06B6B24FF27D37EB
:103AE000BE42A8D95688052EA5D96FF4486EB644B3
:103AF0001FFA8EFEBE459ED94FF6FF77B84203D01F
:103B0000BE4201D0B04296D814A8C7185E1C10FA65
:103B100086F64FF0050E981C07F840EC80B212278D
:103B200006F8407CADF80C001788ADF80C1004AE18
:103B30003118375404333F0A4F709BB25288F25405
:103B40003344120A5A70676AA7B3B888BDF80C30BC
:103B5000811C9A1C56181F2E3FF61AAFFE293FF6FD
:103B600017AF14AE1E44591C0DF1500E1EFA81F110
:103B7000033006F8400C92B2FF2001F8400CADF87B
:103B80000C20398804AEB018B154090A41700433CE
:103B9000BA8898B2ADF80C0062B1B96800293FF458
:103BA0004AAF304402F0DBF8BDF80C20BB88134468
:103BB000ADF80C3094F82C1000297FF4EDAE23788A
:103BC000002B61D104AC3CE703A904F1080704AE63
:103BD0004FF01F080222009138463346CDF804808A
:103BE0001146FFF745FC00287FF426AF03AB009396
:103BF000CDF804803346384610220621FFF738FC02
:103C000000287FF419AF50E703AA04F1100704AEAF
:103C10004FF01F08009238463346CDF80480022248
:103C20000321FFF725FC00287FF406AF03AB0093C8
:103C3000CDF804803346384610220721FFF718FCE0
:103C400000287FF4F9AE34E703AA04F1180704AEA4
:103C50004FF01F08009238463346CDF80480022208
:103C60001421FFF705FC00287FF4E6AE03AB0093B8
:103C7000CDF804803346384610221521FFF7F8FBB3
:103C800000287FF4D9AE18E72288012A3FF4D3AE8A
:103C9000BDF80C20901C1F283FF67AAE012B05D1F1
:103CA0006378134402331F2B3FF672AEC2F11D033B
:103CB00014A99BB204AE21F8203D3044FFF7D4FB99
:103CC00000287FF4B9AE2278022A00F08780012A0A
:103CD00000F08B80ADF830301A460820FE2A3FF6FF
:103CE00057AEBDF80C3014AC591CE71814FA81F12A
:103CF00002331344013207F8402C3446ADF80C303F
:103D000001F8400C9DE60CAF3846FFF7A7FB0028F2
:103D10007FF492AEBDF80C3014A903F1010E9A1C89
:103D200011FA8EFE0B4492B204AEB01808211B2685
:103D300003F8401CADF80C200DF1310106220EF8FD
:103D4000406C02F00CF8BDF80C209DF83010931D6B
:103D500011F0FE019BB23BD114A8034403F8401CB0
:103D6000D31DA2789BB2ADF80C304AB9E278002A94
:103D70003FF407AED81C1F2819463FF609AEECE504
:103D800004331F2B3FF604AE3846FFF76BFB0028C9
:103D90007FF452AEBDF80C30BDF83010E2785F1CF5
:103DA00014AE16FA87F71E44981C4FF0030E06F85F
:103DB00040EC80B204AE4FF0190E07F840EC04332B
:103DC000371831549BB2090AADF80C307970CEE740
:103DD00014A90B44012103F8401CC1E7BDF83020B1
:103DE0009342FFF477AF092078E762789342FFF4BB
:103DF00071AFADF83020082070E700BF75DF704765
:103E000076DF70477ADF70477BDF7047184B188882
:103E10004FF6FF7398422AD010B5164A164C137805
:103E2000217B0133DBB2994282B013700CD2237C28
:103E3000002111708BB9636923B102A8002200F838
:103E4000042D984702B010BD0C49FFF7D7FF00289A
:103E5000F8D0A369002BF4D1F4E73B21FFF7D0FFA2
:103E60000028E8D0A369002BE5D09847E3E7704726
:103E7000003E0020C03D0020C43D0020043E002044
:103E800070B51E4B1E4A5B881188994282B00FD8CC
:103E900052889A420CD31B4B5B6923B102A80122C2
:103EA00000F8042D9847184C0023237002B070BD11
:103EB000154C227862B1134B5B69002BF4D002A839
:103EC000002200F8042D98470023237002B070BD33
:103ED0000C4D0E4869680678AB680D48002E18BF77
:103EE0001946FCF78BFC0028DED0AB69002BDBD039
:103EF00098470023237002B070BD00BFB83D00207A
:103F0000043E0020C43D0020B53D0020C03D0020FF
:103F1000E03D0020F8B505460FCD144C144F0FC4FA
:103F2000064695E80700002384E807003B70B6B119
:103F30003068104B716803C3A3F10800FFF762FFFC
:103F400090B90D4D0D4C0E4A0E4800234FF6FF76EA
:103F50002E8023701946BDE8F840FCF73DBC0548AB
:103F6000FFF752FF0028ECD0F8BD00BFC43D002091
:103F7000B53D0020043E0020003E0020C03D002052
:103F80000D3E0200F071020070B50388112B27D09E
:103F900012D9122B07D0502B47D1244CC288E38969
:103FA0009A4230D070BD083003C8214B83E803002B
:103FB000BDE87040FFF764BF102B35D11D491B4C85
:103FC0001B4B1D4DE48900F110028088088092E8A7
:103FD0000300002283E803002A70002CE8D070BDA3
:103FE0001449154B15484FF6FF7400220C801A70C7
:103FF000FCF75AFC0028D5D00C4B9B69002BD1D084
:10400000BDE870401847038A022BCBD1123001F073
:104010002DF80028CCD10948FCF746FC0028C1D077
:10402000A369002BECD1BDE770BD70BDC43D00207D
:10403000B83D0020003E0020C03D0020E03D0020B3
:1040400010B50346154A00685968134603C382B089
:104050001046FFF7D7FE044678B9114B11885B88EC
:1040600099420DD852889A420AD30E4B5B6923B10C
:1040700002A8012200F8042D9847204602B010BD86
:10408000094B0A4A1888054901231370FFF7B6FE49
:10409000074A04462046137002B010BD043E0020BB
:1040A000B83D0020C43D0020003E0020B53D00206A
:1040B000C03D002094DF704796DF704797DF704760
:1040C000F0B5334B1D6890F85A329BB065B303EBE3
:1040D000830303EB83039B00C6182E4CB678A778A6
:1040E000B74223D0012D1FD9A779DFF8A8E0B74246
:1040F00047D0022D18D0A77ADFF898E0B7423AD01F
:10410000032D11D0A77BDFF88CE0B7422DD0042D12
:104110000AD0A77CDFF87CE0B74220D0052D03D081
:10412000A47D1C4DB44214D01BB0F0BDB4F800E027
:10413000C75ABE45D6D1184B1C68002CF4D00123B9
:10414000ADF8022001918DF800306846A0471BB001
:10415000F0BDAC8AC35A9C42EDD01BB0F0BDBEF896
:1041600010E0C75ABE45D9D1E5E7BEF80CE0C75A02
:10417000BE45CCD1DFE7BEF808E0C75ABE45BFD187
:10418000D9E7BEF804E0C75ABE45B2D1D3E700BFB5
:10419000B84000209C4000200C3E00202DE9F04358
:1041A00090F85A4290F8593204EB840E0EEB8E0EC2
:1041B00000EB8E0E4FF0640C0CFB04FC9EF80470B8
:1041C00003EBC3040CEB44045E1C0444BE4283B006
:1041D00004F10A053CD0BB4238BF07F1FF382DD2AD
:1041E0005E1C06EBC6040CEB4404984500EB040986
:1041F0002B8912D0B9F810500133AB4217D0013DD2
:10420000ADF80650ADF8043000230B70104601A93C
:10421000FFF754FF03B0BDE8F083BEF80840A342A7
:1042200012D00133ADF80430ADF80640ECE709F1E7
:104230000A05F3B29F4280F85932D1D801230020F9
:104240000B7003B0BDE8F083002508F10106F0E72C
:104250002B89BEF808008342F0D00133ADF804305A
:10426000ADF80600D0E700BF68B170B40749084A4E
:10427000084E094D1060012400230C7033602B6040
:10428000184670BC70470E2318467047B440002093
:104290000C3E0020B84000209840002020B12F4B59
:1042A0001B781BB9082070470E20704770B42C4C47
:1042B0002C4B2268002A46D081789D788D4220D0F0
:1042C000012A49D99D79274E8D4237D0022A43D001
:1042D0009D7A244E8D422CD0032A3DD09D7B214EC9
:1042E0008D4221D0042A37D09D7C1E4E8D4216D09F
:1042F000052A31D09D7D1B4E8D420BD0042070BC11
:1043000070471E880588AE42DAD11749096809B39B
:104310000020F4E7B58A01888D42EFD1F5E7368AAF
:104320000588AE42E4D1F0E7B6890588AE42D9D11E
:10433000EBE736890588AE42CED1E6E7B688058838
:10434000AE42C3D1E1E70121006843F822002160B9
:104350000020D4E7052AD1D8511CF5E7B44000204D
:10436000B84000209C4000200C3E002070B138B5C1
:10437000144B1B780BB9082038BD134B1B68002B5E
:10438000F9D090F85B421CB1112038BD0E20704767
:104390000E4A0F4D03461068A3F85E12186083F8AA
:1043A0005C42084683F85A4283F859421A46012172
:1043B0002C60FFF77FFE0028E7D1012283F85B2203
:1043C00038BD00BFB4400020B84000209C40002011
:1043D0009840002090B389B3884B1B7873B32DE9C4
:1043E000F04F0B88113BA1B005460C46222B00F282
:1043F000D780DFE813F03202D500D500D500D50014
:10440000D500D500D500D500D500D500D500D50004
:10441000D500D500D500D500D500D500D500D500F4
:10442000D500D500D500D500D500D500D500D500E4
:10443000D500D500D701D5000B01D8007047002664
:1044400085F85962A2880DF117012846FFF7A6FEEC
:10445000002840F077849DF81730002B00F0A080F2
:10446000DFF8A481B4F804E0D8F8007095F85A1287
:10447000002F00F0B48501EB810303EB83039B0065
:10448000EA185F4E9278B078904200F05685012F7E
:1044900040F2C785B079DFF868C1904200F05485DA
:1044A000022F1DD0B07ADFF858C1904200F03E854F
:1044B000032F15D0B07BDFF848C1904200F02F8564
:1044C000042F0DD0B07CDFF838C1904200F0208579
:1044D000052F05D0B07DDFF828C1904200F0A682FC
:1044E000744695F85C320133DBB2BB4285F85C322E
:1044F00080F0AB8195F85A22DFF804810132D2B204
:10450000642312FB03F105EB010E56F8220085F837
:104510005A224FF0000985F8599203FB0252685065
:1045200001218EF804902046FFF7C4FD002837D003
:1045300095F85A2285F85B9212FB03F3EA1898F873
:1045400002109278914200F06585012F24D096F8F0
:1045500006E02B49964500F07D85022F1CD096F889
:104560000AE02749964500F06E85032F14D096F88F
:104570000EE02349964500F05F85042F0CD096F895
:1045800012E01F49964500F05085052F04D0B67DF6
:104590001B49964200F02A851A4B03225C801A7050
:1045A00021B0BDE8F08F8A88B0F85E329A42F7D128
:1045B000C88895F8597295F85A12002840F06A8117
:1045C0006389002B00F06681642303FB01F307EB92
:1045D000C70603EB46062E442246D389A3F524538F
:1045E000082B00F2ED81DFE813F0E901E501E201BB
:1045F000EB01EB01EB01EB01EB014201B4400020C8
:104600009C400020103E0020B84000208A88B0F86E
:104610005E329A42C4D1CB88002B7FF410AF90F861
:104620005AE2897A0EEB8E0606EB860600EB8606CA
:10463000337919440529D5BFC9B205220A46114666
:10464000934231717DD22246642000FB0EF003EBD1
:10465000C30152F80C8F00EB41012944D2F804C089
:10466000C1F80EC0C1F80A8012894A8200228A82EB
:10467000CA820A834A8331795F1C8F4280F09D820F
:1046800007EBC701274600EB410157F8169F294465
:10469000D7F80480C1F80E80C1F80A903F894F8294
:1046A0008A82CA820A834A8331799F1C8F4280F0B2
:1046B000848207EBC701274600EB410157F8209F92
:1046C0002944D7F80480C1F80E80C1F80A903F89C8
:1046D0004F828A82CA820A834A833179DF1C8F42E1
:1046E00080F06B8207EBC701274600EB410157F8CA
:1046F0002A9F2944D7F80480C1F80E80C1F80A9097
:104700003F894F828A82CA820A834A8331791F1D78
:104710008F4280F0528207EBC701274600EB410130
:1047200057F8348F2944D7F804C0C1F80EC0C1F837
:104730000A803F894F828A82CA820A834A833179FA
:1047400005336422013B02FB0EFE03EBC3030EEBB9
:1047500043032B4432895B8A9342BFF470AE052930
:104760003FF46DAE85F85912A088002940F071839E
:10477000F3883289ADF81A2006A9ADF81830FFF792
:104780009BFC00283FF40CAF002385F85B32014608
:10479000A2882846FFF794FCBF4BA2885A800322C8
:1047A0001A70FDE6B1F804E0B0F85E3273457FF4AC
:1047B000F7AECA8890F85A12002A00F07781DFF825
:1047C000E482D8F80070002F00F0CD8301EB810364
:1047D00003EB83039B00C218B04E9278B0789042EE
:1047E00000F02782012F40F26883B079DFF8ACC275
:1047F000904200F02582022F1DD0B07ADFF89CC2D3
:10480000904200F02D82032F15D0B07BDFF88CC2D0
:10481000904200F01D82042F0DD0B07CDFF87CC2E6
:10482000904200F0FF81052F05D0B07DDFF86CC20B
:10483000904200F0C780744695F85C320133DBB2D9
:10484000BB4285F85C32C0F0BA81934B0321002251
:104850005C80197085F85B22A2E68B88B0F85E2236
:104860009A427FF49DAE002380F85B3298E6B2F85E
:104870000CE0B38AA6F81AE02BB1F38A1BB1338B94
:104880000BB1738B33B963890130984202F1060290
:10489000FFF4A3AE642202FB01527B1C12790026B6
:1048A00093428DF8176040F0768101238DF8173020
:1048B000DFF8F081B4F804E0D8F80070002F00F0C1
:1048C0008E83642202FB01F2AB18744E9B78B078A1
:1048D000984200F0B782012F40F2EF82B079DFF802
:1048E000BCC1984200F08982022FA4D0B07ADFF8D0
:1048F000ACC1984200F09882032F9CD0B07BDFF8C7
:104900009CC1984200F08082042F94D0B07CDFF8E4
:104910008CC1984200F08F82052F8CD0B07DDFF8DB
:104920007CC1984287D1BCF81400AB5A984282D11E
:104930005B4B1B680393002B3FF47DAFDFF868A14E
:10494000DAF80090B9F1050F3FF675AF524A0192BF
:104950006C2303FB09F302EB030B642202FB0151FE
:104960000BF10400ABF802E0029301F0F8F9039BAD
:10497000CBF8683009F101010198029BCAF80010D8
:104980000022B942C2544FD181469346D9F86830CB
:1049900048469847D8F800700BF1010BBB4509F168
:1049A0006C09F3D30023A488CAF8003044E7938944
:1049B000B38261E793893383B38A5DE79389F38296
:1049C000B38A59E7BCF81420EB5A9A427FF433AF0C
:1049D000334B1B680393002B3FF42DAFDFF8C8A0C7
:1049E000DAF80090B9F1050F3FF625AF2A4B019395
:1049F0004FF06C0B0BFB09FB5B44642202FB015183
:104A0000181DA3F802E0029301F0A9F9029B039894
:104A1000986609F10102019BCAF800200221BA42FE
:104A200003F80B1000F07E81A48805E7BCF8142081
:104A3000EB5A9A427FF454AD194B1B680393002B39
:104A40003FF44EADDFF860A0DAF80090B9F1050F41
:104A50003FF646AD104B01936C2202FB09F203EBCB
:104A6000020B0292642202FB01510BF10400ABF82D
:104A700002E001F074F9039BCBF8683009F1010101
:104A8000019B0298CAF800100022B9421A5400F0A3
:104A90009182A48825E500BF103E00209C400020A4
:104AA0000C3E0020B84000209840002001EB81031C
:104AB00003EB83039B00E268C25003442269C3F8FE
:104AC000062090F85922A088002A40F09D80DA88BC
