:020000021000EC
:10F0000000000120C1410200E9410200EB41020081
:10F01000ED410200EF410200F1410200000000005A
:10F02000000000000000000000000000F3410200AA
:10F03000F541020000000000F7410200F941020022
:10F04000A9000200FB410200150C0200FB41020076
:10F05000FB410200FB41020055050200FB4102009A
:10F06000FB410200FB410200FB410200FB410200A8
:10F07000FB410200FB410200FB410200FB41020098
:10F08000FB410200B1F50100FB410200FB4102001F
:10F0900051F60100FB410200CD460200FB41020097
:10F0A000FB410200FB410200FB410200FB41020068
:10F0B000FB410200FB4102000000000000000000D4
:10F0C000FB410200FB410200FB410200FB41020048
:10F0D000DD0A0200FB410200FB41020000000000CB
:10F0E0000000000000000000000000000000000020
:10F0F0000000000000000000000000000000000010
:10F1000000000000000000000000000000000000FF
:10F1100000000000000000000000000000000000EF
:10F1200000000000000000000000000000000000DF
:10F1300000000000000000000000000000000000CF
:10F1400000000000000000000000000000000000BF
:10F1500000000000000000000000000000000000AF
:10F16000000000000000000000000000000000009F
:10F17000000000000000000000000000000000008F
:10F18000000000000000000000000000000000007F
:10F19000000000000000000000000000000000006F
:10F1A000000000000000000000000000000000005F
:10F1B000000000000000000000000000000000004F
:10F1C000000000000000000000000000000000003F
:10F1D000000000000000000000000000000000002F
:10F1E000000000000000000000000000000000001F
:10F1F000000000000000000000000000000000000F
:10F2000010B5054C237833B9044B13B10448AFF360
:10F2100000800123237010BD6C300020000000002E
:10F22000F0470200084B10B51BB108490848AFF37E
:10F2300000800848036803B910BD074B002BFBD0C2
:10F24000BDE81040184700BF0000000070300020EB
:10F25000F04702006830002000000000154B002B32
:10F2600008BF134B9D46A3F5803A00218B460F46FD
:10F270001348144A121A00F065F80F4B002B00D007
:10F2800098470E4B002B00D0984700200021040027
:10F290000D000D48002802D00C48AFF3008000F0AC
:10F2A0002BF82000290002F02DFC00F011F800BF1F
:10F2B0000000080000000120000000000000000025
:10F2C0006C300020403A00200000000000000000E8
:10F2D00008B5074B044613B10021AFF30080054B7E
:10F2E0001868836A03B19847204600F033F800BFDE
:10F2F000000000008447020070B50E4B0E4CE41A6B
:10F30000A41000251E46A54204D056F82530984783
:10F310000135F8E705F02AFA084C094BE41AA41065
:10F3200000251E46A54204D056F8253098470135E1
:10F33000F8E770BD603000206030002064300020AD
:10F340006030002002440346934202D003F8011BC0
:10F35000FAE77047FEE700BF2DE9F84F244B1A7813
:10F360008AB3DFF890B0DFF89090DFF890A0002427
:10F37000012703E00134E4B2944224D226B2D9F842
:10F380000050DBF8003015F8360007FA00FE1EEAE0
:10F39000030F05EBC608EDD0164A23EA0E031360EF
:10F3A00001F0CEF815F83650DAF8003007FA05F615
:10F3B000334000FA05F6B34207D00D4B01341A78FA
:10F3C000E4B29442DAD3BDE8F88FD8F80430002BC9
:10F3D000F3D098F80110A1F10101B1FA81F14909C6
:10F3E000091AB1FA81F1490928469847E5E700BFB3
:10F3F00090300020B83000208C300020B430002045
:10F4000070B50646114800F073FD40B9104D012457
:10F410002B68B4401C4203D023EA04042C6070BD66
:10F42000304601F08DF80B4A136860B123432E6813
:10F430000949136034432C60044809680022BDE880
:10F44000704000F0FFBC23EA0403F0E79430002092
:10F45000B8300020B430002088300020042A01D8C1
:10F46000072070472DE9F04182B0884605461746CF
:10F4700000F002FF002834D01C4C1D481D491E4AD4
:10F480001E4B2560002608F1FF340F6080F80080D5
:10F4900016601E60E4B20327B8F1000F03D11AE032
:10F4A000DBB2C4B11C4623B205EBC30215F833002E
:10F4B0009378134A8DF8053001A98DF804708DF802
:10F4C00006608DF8076000F0E1FE631E0028E7D0BB
:10F4D00002B0BDE8F0810B4A0B48002100F0A0FC0F
:10F4E000F6E700F087FE0028C6D0F1E78C30002058
:10F4F0009030002088300020B4300020B830002048
:10F5000001F4010059F301008847020070B5084D6D
:10F510002B785BB1074E00243368012113F83400C7
:10F5200000F07CFF2B780134A342F5D8002070BD99
:10F53000903000208C30002070B5094D2B7853B1ED
:10F54000084E0024336813F8340000F0C9FF2B780C
:10F550000134A342F6D80448BDE8704000F0C8BCAE
:10F56000903000208C3000209430002000B585B011
:10F5700000230390194601AA44F20100ADF80430BB
:10F58000029300F003F805B05DF804FBBFF34F8F62
:10F590000549064BCA6802F4E0621343CB60BFF32F
:10F5A0004F8F00BFFDE700BF00ED00E00400FA054B
:10F5B000F8B5204A204B0025C2F84051C2F844510A
:10F5C000C2F84851C2F84C51C2F80051C2F8045177
:10F5D0001B6813B31949D2F804250C68141B1A6868
:10F5E00024F07F44A2422F4609D8197CDE69A41A70
:10F5F000154499B91EB133461A68A242F5D9104B89
:10F6000010491A780B789A420DD00F490F4A41F8E9
:10F6100023504FF48013C2F80031F8BD1F745A69AB
:10F6200098699047E6E7531CDBB2022B08BF002322
:10F630000B70EAE700100140C0300020BC30002011
:10F64000C4300020C5300020D431002000E100E0AB
:10F650002DE9F04F884A89491378097899428BB08F
:10F6600037D00133DBB2022B08BF0023844913706B
:10F67000844A0E68029152F82300834905910B6871
:10F6800002993218002522F07F420A602C46294652
:10F69000AE46ABB11A68824200F2E681DD68C3F87B
:10F6A00000E0801A1444DA6935B1371927F07F4732
:10F6B000D9619D605F60194613460125002BE9D191
:10F6C000002D40F0DC820023069301230893069A64
:10F6D00008E06D4B05931B68694A0292002106936E
:10F6E00008911A46694BDFF8AC811B780393059BA0
:10F6F0001B681C46029B1F680023BA460F460993ED
:10F70000C3460793994618464FF0010E0193A4464D
:10F710003FB37D68BE683946FF695D4BCAEB05049F
:10F7200024F07F449C423CD8A3190B604860886059
:10F7300081F810E0C861002A68D015689D4249D25E
:10F74000164603E025689D4234D22646F4695B1BC9
:10F75000002CF7D1CC610B601446F1612246002FDA
:10F76000D7D198F8003098F80110994200F09480B1
:10F77000591C03EB43039BF8024008EBC303C9B2D7
:10F780008C421C798BF8001008BF8BF80070022C9B
:10F7900099684ED0032C3FD0012C24D01446224629
:10F7A000DDE7C5EB0A0525F07F45B54209D2731B9D
:10F7B0000B60BBE7ED1A2560CC610B601446F1616C
:10F7C000CCE708604860886081F810E0C861EAB161
:10F7D00015680023EB1A0C4613608C46CA614FF083
:10F7E00001092246BBE70C7C0494002CD6D1DD68CD
:10F7F0004D601E698E605C69CC609B698B61039B68
:10F80000002B8AD0049B4B601D4686E70C468C4635
:10F810004FF001092246A2E70AB9BFE71A46D369A9
:10F820001074002BFAD11C469C464FF00109224669
:10F8300095E752B1914200F00B81134602E0B142CC
:10F8400007D03346DE69002EF9D1144608742246EB
:10F8500085E7994200F0FE801446F5693668DD615F
:10F8600015B12B6833442B60019B0874A24218BF6A
:10F8700001230193EBE700BFC4300020C530002016
:10F88000BC300020D4310020C0300020C630002021
:10F89000FEFF7F00C83000205746DDF804A0B9F114
:10F8A000000F40F04981079B002B40F0E581099B48
:10F8B000002B40F0DC81BAF1000F03D1069B9A4285
:10F8C00000F03F81002A00F041816C49029BD1F891
:10F8D00004051B686A4C17682578C21A22F07F421B
:10F8E0000332002D51D1674DDFF89CC1DFF89CE158
:10F8F0004FF48036C1F84463C1F804634FF4003616
:10F90000C5F880612E6001250D60DCF800602F21B4
:10F9100000BF00BF00BF00BF00BF00BF00BF00BFEF
:10F9200076452FD000BF00BF00BF00BF00BF00BFA3
:10F9300000BF00BF00BF00BF00BF00BF00BF00BFCF
:10F9400000BF00BF00BF00BF00BF00BF00BF00BFBF
:10F9500000BF00BF00BF00BF00BF00BF00BF00BFAF
:10F9600000BF00BF00BF00BF00BF00BF00BF00BF9F
:10F9700000BF00BF00BF00BF00BF00BF00BF00BF8F
:10F9800000BF00BF0139C3D1257097422CBFDA19DF
:10F990009A183A4922F07F43C1F84035D1F804253E
:10F9A000121A1B1A22F07F4223F07F4303329A423D
:10F9B00048D9D1F80435344AC1F840351268334982
:10F9C0002F2300BF00BF00BF00BF00BF00BF00BFAC
:10F9D00000BF8A422FD000BF00BF00BF00BF00BFE2
:10F9E00000BF00BF00BF00BF00BF00BF00BF00BF1F
:10F9F00000BF00BF00BF00BF00BF00BF00BF00BF0F
:10FA000000BF00BF00BF00BF00BF00BF00BF00BFFE
:10FA100000BF00BF00BF00BF00BF00BF00BF00BFEE
:10FA200000BF00BF00BF00BF00BF00BF00BF00BFDE
:10FA300000BF00BF00BF013BC3D1124B4FF40032E7
:10FA4000C3F80021124A002313700BB0BDE8F08FF9
:10FA500016461346D2F81C90B9F1000F1AD0CC46C6
:10FA60004C464FF00109F8E6002D62D1121A1A60D7
:10FA7000069301230893069A34E600BF0010014064
:10FA8000DC31002000E100E05C3000200024F400C4
:10FA9000C63000207B4C7C4DC4F808E07B4C4FF016
:10FAA0002F0C246800BF00BF00BF00BF00BF00BF15
:10FAB00000BF00BFAC422FD000BF00BF00BF00BFDF
:10FAC00000BF00BF00BF00BF00BF00BF00BF00BF3E
:10FAD00000BF00BF00BF00BF00BF00BF00BF00BF2E
:10FAE00000BF00BF00BF00BF00BF00BF00BF00BF1E
:10FAF00000BF00BF00BF00BF00BF00BF00BF00BF0E
:10FB000000BF00BF00BF00BF00BF00BF00BF00BFFD
:10FB100000BF00BF00BF00BFBCF1010CC2D1012477
:10FB200025460994CC464C46CA4603950795A946F6
:10FB300093E6059C236099E7059B1946C1F800C030
:10FB4000B1E6089B002B3FF47DAFBBE64D49504B1F
:10FB50004E4E4D4C4FF480304FF400370125C3F822
:10FB60008070C1F848032F23C1F808034D60306846
:10FB70001E4600BF00BF00BF00BF00BF00BF00BFE8
:10FB800000BFA0422FD000BF00BF00BF00BF00BF1A
:10FB900000BF00BF00BF00BF00BF00BF00BF00BF6D
:10FBA00000BF00BF00BF00BF00BF00BF00BF00BF5D
:10FBB00000BF00BF00BF00BF00BF00BF00BF00BF4D
:10FBC00000BF00BF00BF00BF00BF00BF00BF00BF3D
:10FBD00000BF00BF00BF00BF00BF00BF00BF00BF2D
:10FBE00000BF00BF00BF013EC3D18D6002990A6013
:10FBF00000BF00BF00BF00BF00BF00BF00BF00BF0D
:10FC0000A0422FD000BF00BF00BF00BF00BF00BF99
:10FC100000BF00BF00BF00BF00BF00BF00BF00BFEC
:10FC200000BF00BF00BF00BF00BF00BF00BF00BFDC
:10FC300000BF00BF00BF00BF00BF00BF00BF00BFCC
:10FC400000BF00BF00BF00BF00BF00BF00BF00BFBC
:10FC500000BF00BF00BF00BF00BF00BF00BF00BFAC
:10FC600000BF00BF013BC3D10A4B1A70EAE60A4B42
:10FC70009DF80C1019701EE6029B1F6017E6059A8E
:10FC8000136020E5001001400024F4005C300020E7
:10FC900000E100E0DC310020C6300020F0B4564B1B
:10FCA000564A574E574C4FF480304FF400310125DF
:10FCB000C2F88010C3F848032F21C3F808035D6021
:10FCC00030680E4600BF00BF00BF00BF00BF00BFCE
:10FCD00000BF00BFA0422FD000BF00BF00BF00BFC9
:10FCE00000BF00BF00BF00BF00BF00BF00BF00BF1C
:10FCF00000BF00BF00BF00BF00BF00BF00BF00BF0C
:10FD000000BF00BF00BF00BF00BF00BF00BF00BFFB
:10FD100000BF00BF00BF00BF00BF00BF00BF00BFEB
:10FD200000BF00BF00BF00BF00BF00BF00BF00BFDB
:10FD300000BF00BF00BF00BF013EC3D19D6000BF38
:10FD400000BF00BF00BF00BF00BF00BF00BFA04298
:10FD50002FD000BF00BF00BF00BF00BF00BF00BF6B
:10FD600000BF00BF00BF00BF00BF00BF00BF00BF9B
:10FD700000BF00BF00BF00BF00BF00BF00BF00BF8B
:10FD800000BF00BF00BF00BF00BF00BF00BF00BF7B
:10FD900000BF00BF00BF00BF00BF00BF00BF00BF6B
:10FDA00000BF00BF00BF00BF00BF00BF00BF00BF5B
:10FDB00000BF0139C3D1144E144D154C1549164FCF
:10FDC00000203070286020704FF48015E0240B264E
:10FDD000087048708E7038701049C2F8805182F8EF
:10FDE00014431560C3F8080582F81143D3F80435AD
:10FDF0000B60F0BC704700BF0010014000E100E064
:10FE00005C3000200024F400DC310020C0300020F1
:10FE1000C4300020C8300020C5300020BC30002095
:10FE2000074B9B780BB9082070473AB130B1036893
:10FE3000187C0028F7D159745A6170470720704721
:10FE4000C83000202DE9F043264CA37883B01BB9BD
:10FE5000082003B0BDE8F0830028F9D0042903D8B6
:10FE6000072003B0BDE8F0834369002BF0D00646BD
:10FE700002A8737C0025012B00F8015D0CBF8946A8
:10FE8000A94690460F4600F06FF86378A078217875
:10FE90005A1CD2B2904208BF2A4691421BD003EBB3
:10FEA000430304EBC30301200F4918719E60D1F88E
:10FEB00004159DF80700D9601F61C3F81490C3F8BA
:10FEC0001880627000F078F8084B4FF480122846D2
:10FED000C3F80021BDE79DF8070000F06DF804208D
:10FEE000B7E700BFC83000200010014000E100E08B
:10FEF00070B51B4CA37882B013B9082002B070BD56
:10FF00000028FAD04369002BF7D0064602A8002546
:10FF100000F8015D357400F027F86278A078217848
:10FF2000531CDBB2984208BF2B46994212D002EB19
:10FF3000420204EBC20202219DF807009660117193
:10FF4000637000F039F8074B4FF480122846C3F86D
:10FF50000021D3E79DF8070000F02EF80420CDE73C
:10FF6000C830002000E100E0F0B4EFF3108472B676
:10FF70000E4B9A68B2B90E4901259D60D1F8807088
:10FF80000C4D2E463D401D60C1F88060D1F8845074
:10FF90005D604FF0FF33C1F88430027004B962B67F
:10FFA000F0BC704701230370F8E700BF343A00202B
:10FFB00000E100E0FC06FFBD094B9A6872B168B928
:10FFC00010B4EFF3108272B606491C680C605C68CE
:10FFD0004C60986002B962B65DF8044B704700BF90
:10FFE000343A002000E100E0044B195C4FF0A042DD
:10FFF00001238B40C2F80C35704700BF8C470200CC
:020000022000DC
:10000000044B195C4FF0A04201238B40C2F8083525
:10001000704700BF8C4702004FF0A04310B44FF46C
:1000200080204FF400344FF400214FF48012C3F8C5
:100030000845C3F80805C3F80815C3F808255DF896
:10004000044B7047084B4FF0A0411B5CD1F80405EE
:10005000012202FA03F323EA00020340C1F8082553
:10006000C1F80C35704700BF8C47020030B44FF028
:10007000A04303224FF400354FF480244FF40020B6
:100080004FF48011C3F84427C3F84827C3F84C271E
:10009000C3F85027C3F80855C3F80845C3F8080546
:1000A000C3F8081530BC704710B51A4B1A6882B0F7
:1000B000A2B100221A601B6800934FF08043012216
:1000C000154C0099C3F80823A368627033B10CCBB8
:1000D0000020A2609847A368002BF8D10F4B1A6844
:1000E000AAB100221A601B6801934FF080430222DC
:1000F000094C0199C3F8082323690122A27033B186
:100100000CCB0120226198472369002BF8D102B063
:1001100010BD00BF00010040E0310020040100409C
:1001200058B910B5054CA36833B10CCB0020A260C0
:100130009847A368002BF8D110BD7047E03100202C
:1001400010B582B002A80023144C00F8013DFFF75F
:100150000BFF237893B9124A6360E3601068A360D1
:1001600010F00100236114D004F056FA20B94FF0CA
:1001700080430122C3F8182501232370E3689DF80A
:10018000070001330122E360A270FFF715FF02B000
:1001900010BD072100F006F8E6E700BFE0310020BF
:1001A00000E100E0002810B418DB00F1604303F523
:1001B00061434901C9B283F80013C3B2400980000A
:1001C00000F1604000F5614003F01F0201239340FD
:1001D000C0F8803103605DF8044B7047C3B2044A35
:1001E00003F00F0449012244C9B21176E6E700BFCB
:1001F000FCEC00E030B51D4C94F8545083B015B1C0
:10020000082003B030BD4FF0FF33FF220721062046
:1002100023636363A363E36323646364A364E364AA
:1002200023606360A360E36023616361A361E361B2
:10023000236284F850306362A36284F85230E36230
:1002400084F8533084F85120FFF7ACFF084B094A7B
:100250001D601B68019301984FF00043012128465F
:1002600084F85410C2F8043303B030BDF4310020D8
:100270007C61004000600040034B93F85400003064
:1002800018BF0120704700BFF4310020F0B5624C68
:10029000251895F93030002B01DB0820F0BD91F8CE
:1002A00003E09446BEF1000F56D02368013300F0FE
:1002B000A380002508266B1C574F54F823200132D9
:1002C00051D0AB1C9E4245D957F8232001324AD069
:1002D000EB1C9E423ED957F82320013243D02B1D00
:1002E0009E4237D957F8232001323CD06B1D9E42E5
:1002F00030D957F82370013735D0AB1D9E4229D92C
:1003000054F82320444F01322DD0EB1D9E4221D9B9
:1003100057F82320013226D005F108039E4219D94F
:1003200057F8232001321ED005F109039E4211D94E
:1003300057F82320013216D005F10A039E4209D94D
:1003400057F8237001370ED00B35AE4202D9E36A5D
:10035000013307D00420F0BD236A013353D00825B0
:100360000C26A8E70B2326185DB244F823C086F8B4
:100370003050BEF1000F02D1234483F848008B783F
:10038000A3B94A784FF0A04600F5E073920046F812
:100390002320CB78A3B9083D2C44097894F8502049
:1003A00042EA811284F850201846F0BD830003F120
:1003B000A043D3F8002722F00202C3F80027E8E7A1
:1003C000AB0003F1804303F5C0430A78D3F810155E
:1003D00021F4473121F44071C3F8101512040002D2
:1003E00002F44031D3F8104500F4F8520A43224396
:1003F000C3F810250020F0BD002385F83030C4F884
:1004000000C01D46BBE7082685F830603346C4F8B7
:1004100020C03546B0E700BFF4310020F0B42E4DC7
:100420002E1882B096F93030072B1CDD2B4493F840
:1004300048309B09032B41D0012B14BF4FF44033AC
:100440004FF40033800000F1A040D0F8002722F4E0
:100450004032C0F80027D0F800271343C0F8003717
:1004600002B0F0BC7047DAB2072AF9D8980000F160
:10047000804000F5C04003F140029200D0F81045E2
:1004800092B202F18042002744F0010402F5C0421A
:10049000C0F810450197019817600029E0D096F93F
:1004A000302055F82220002ADAD001220B4902FA26
:1004B00003F3C1F8043302B0F0BC70474FF0A0431F
:1004C000D3F81035C34013F0010F0CBF4FF40033C5
:1004D0004FF44033B6E700BFF43100200060004025
:1004E000154B034493F93030072B17DCDAB2072A97
:1004F00013D810B49A0002F1804202F5C0420F4CAA
:10050000D2F81005012120F0010001FA03F3C2F82E
:100510001005C4F808335DF8044B7047800000F103
:10052000A040D0F8003723F44033C0F80037D0F8AB
:100530000037C0F800377047F431002000600040F9
:100540004FF0A043D3F8103523FA00F000F001007B
:10055000704700BF2DE9F04387B00026C94B0196D4
:100560001A68012A00F00482C74B1A68012A00F0B9
:10057000F181C64B1A68012A00F0DE81C44B1A686B
:10058000012A00F0CB81C34B1A68012A00F0B88120
:10059000C14B1A68012A00F0A581C04B1A68012AD4
:1005A00000F09281BE4B1A68012A00F07F81BD4B9A
:1005B0001A68012A00F0598116F0FF0F1AD0BA4FBD
:1005C00001250024A30003F180432E4203F5C0431C
:1005D0004FEA45050BD0D3F8100557F82420D3F87F
:1005E0001015C0F30420C1F3014102B1904701345A
:1005F000082CE7D1002E02DB07B0BDE8F083AA4C3F
:1006000000224FF0FF3327460292039301260DF19B
:10061000080894F950104D1C2DD0C9B221F0C0002B
:1006200006AB4FEAD00E03EB0E0201F0070312F8FF
:100630000CCC06FA03F31CEA030F1CD03D18890901
:1006400095F9305057F82590B9F1000F00F0E88087
:10065000032900F0E8804FEA800E0EF1A04E12F858
:10066000145CDEF800271D40C2F3014240F0B58063
:10067000032A00F0A281002594F95110481C2FD0C4
:10068000C9B221F0C00006AB4FEAD00E03EB0E0258
:1006900001F0070312F80CCC06FA03F31CEA030F6F
:1006A0001ED007EB000C89099CF930C057F82C903C
:1006B000B9F1000F00F0C680032900F0C6804FEAB0
:1006C000800E0EF1A04E12F814CCDEF800271CEAC2
:1006D000030FC2F3014240F08D80032A00F09281A3
:1006E00094F952104A1C2ED0C9B221F0C00006ABBA
:1006F0004FEAD00E03EB0E0201F0070312F80CCC08
:1007000006FA03F31CEA030F1DD007EB000C89095E
:100710009CF930C057F82C90B9F1000F00F0898097
:10072000032900F088804FEA800E0EF1A04E12F8E7
:1007300014CCDEF800271CEA030FC2F3014265D196
:10074000032A00F04C8194F953104B1C2CD0C9B2F1
:1007500021F0C00006AB4FEAD00E03EB0E0201F011
:10076000070312F80CCC06FA03F31CEA030F1BD0A4
:1007700007EB000C89099CF930C057F82C90B9F1AF
:10078000000F69D0032969D04FEA800E0EF1A04E08
:1007900012F814CCDEF800271CEA030FC2F3014262
:1007A00011D1032A00F0F080002D3FF425AF4FF067
:1007B000A043019AD3F8103593423FF41DAF029A3B
:1007C0000193039225E7022AEED1032900F02D813F
:1007D000B9F1000FE8D0C847E6E7022A7FF44BAF33
:1007E000032900F02B810025B9F1000F3FF444AF3D
:1007F000C84741E7022A7FF473AF032900F018814C
:10080000B9F1000F3FF46CAFC84769E7022A9AD1EB
:10081000032900F01081B9F1000F94D0C84792E786
:1008200003297FF428AF18F80E501D4308F80E5026
:1008300011E7032987D118F80EC04CEA030C08F819
:100840000EC070E703297FF44BAF18F80EC04CEAD6
:10085000030C08F80EC032E70329A5D118F80EC022
:100860004CEA030C08F80EC08EE700221A601B68E1
:1008700005934FF0A043059AD3F81035019346F045
:10088000004699E6006100400461004008610040B4
:100890000C6100401061004014610040186100408C
:1008A0001C6100407C610040F4310020654AD2F8B0
:1008B000042317067FF57BAE00221A601B680493A1
:1008C000049B46F0800672E65E4AD2F80423520684
:1008D0007FF568AE00221A601B680493049B46F003
:1008E00040065FE6574AD2F8042391067FF555AEDD
:1008F00000221A601B680493049B46F020064CE615
:10090000504AD2F80423D0067FF542AE00221A6086
:100910001B680493049B46F0100639E6494AD2F856
:10092000042314077FF52FAE00221A601B6804937E
:10093000049B46F0080626E6424AD2F804235507EF
:100940007FF51CAE00221A601B680493049B46F0DE
:10095000040613E63B4AD2F8042397077FF509AE55
:1009600000221A601B680493049B46F0020600E60E
:100970003449D1F8041311F001011CD01E601B682A
:100980000493049B1646EFE503297FF421AF4FF44F
:100990000033DEF8002722F44032CEF80027DEF8DC
:1009A000002701351343EDB2CEF80037B9F1000F3F
:1009B0007FF411AFFBE60E46D6E503297FF414AFB2
:1009C0004FF40033DEF8002722F44032CEF800273F
:1009D000DEF800271343CEF80037012504E703298A
:1009E0007FF419AF4FF40033DEF8002722F44032D1
:1009F000CEF80027DEF8002701351343EDB2CEF81C
:100A0000003708E703297FF4FBAE4FF40033DEF82C
:100A1000002722F44032CEF80027DEF80027013507
:100A20001343EDB2CEF80037EAE64FF44033B0E7B7
:100A30004FF44033EBE74FF44033D5E74FF4403306
:100A4000C0E700BF006000405AB1F8B54379114FCC
:100A5000114D03EB430445F823203C5D1CB10820F5
:100A6000F8BD0720704705460E4690F904008978C6
:100A7000FFF798FB2B683288C3F808256B79F1786B
:100A8000357903EB4303FA180126FE545570917033
:100A90002046F8BD503200204C3200200368044A42
:100AA00001211960437903EB43030221D1547047BC
:100AB000503200200368044901225A60437903EB55
:100AC0004303CA54704700BF50320020026801231C
:100AD000C2F848330268C2F80833704710B5474B74
:100AE000D3F80423D10384B003D5454A1168002903
:100AF00045D1424BD3F80423920303D5414A1168F0
:100B000000294BD13D4BD3F80423540303D53E4A6F
:100B10001168002952D1394BD3F80423100303D5AF
:100B20003A4A1168002959D1344BD3F80423D1072C
:100B300002D5D3F80021B2B9304BD3F80423920781
:100B400002D5D3F804210AB904B010BD0022C3F8BD
:100B500004212F4AD3F80431019305201368019A28
:100B6000984704B010BD0022C3F80021284AD3F8EA
:100B70000031029304201368029A9847DCE74FF48F
:100B800080310020C3F84813214CC3F808131060CB
:100B9000136803932368039A9847AAE74FF4003138
:100BA0000024C3F848131A48C3F8081314601368E4
:100BB00003930368039A01209847A3E74FF4802129
:100BC0000024C3F848131248C3F8081314601368CC
:100BD00003930368039A022098479CE74FF400218F
:100BE0000024C3F848130A48C3F8081314601368B4
:100BF00003930368039A0320984795E70040024057
:100C00004041024044410240484102404C410240C0
:100C10004C32002070B59B4C237F8EB0002B75D1D9
:100C2000994AD2F80413890548D4974BD3F8042382
:100C3000520704D5D3F80821002A40F0CA80924B0D
:100C4000D3F81C21C2B1A28AA07D8E4992B2824201
:100C50004FF00002C3F81C2180F0A980D3F81C21BA
:100C60000692069A888A8A8A8D6880B20132285C48
:100C700092B28A82C3F81C05834BD3F84421DAB1BF
:100C80000022C3F84421D3F84411A27E04910499B0
:100C9000002A40F08980E27D7A4B6AB10022587EBA
:100CA000D968DA7501228DF830000B918DF8282073
:100CB0000AA893E8060090470EB070BDD2F8241140
:100CC0000029B2D0C2F82431D2F82411A37E0791B2
:100CD0004FF401710798C2F808130BB90123536050
:100CE000694A02238DF82830D2F88034C2F8803463
:100CF000E07DE2680D9300238DF83000E3752376E4
:100D000021680B9263680AA8984798E75E4BD3F86E
:100D10002421002A40F09380D3F8101161B1C3F868
:100D20001021D3F8101103910399D3F83C15E07DFD
:100D3000C9B2884200F0AA80534BD3F84421B2B123
:100D40000022C3F84421D3F84411E07D01910199B8
:100D50004C4960B1D3F83C35C8688DF83030012378
:100D6000CA750B908DF828300AA80AC99847464BD7
:100D7000D3F82021002A9FD00022C3F82021D3F8E5
:100D80002011A07D009100993E49002894D0D3F80D
:100D90004C058B688DF830008A750B938DF82820F0
:100DA0000AC90AA8984787E701221A6073E7D3F8AF
:100DB0001C310593059B00283FF45EAF8B688DF8CE
:100DC00030008A750B938DF828200AC90AA8984725
:100DD00052E7E17D2B4A002970D00021C3F80811A9
:100DE000D3F8081108910899D068517ED3F81835C6
:100DF0004354537ED17D0133DBB25376627E214B67
:100E00008A427FF41CAF1A7E002A6DD19B7E13B9F3
:100E10001D4B01225A601C4AE06863684FF401715F
:100E2000C2F80813627E8DF83020002501220B9055
:100E30002168E5758DF828200AA89847FFE600226A
:100E4000C3F82421D3F82411029102218DF828102F
:100E50000299D3F88014C3F880140D91D3F83C158F
:100E6000E368E27522768DF830100B932168636891
:100E70000AA89847044BD3F84421002A3FF477AFDF
:100E80005EE700BF5432002000200040217EF1B117
:100E9000D3F80062E17526F02001E568C3F800127E
:100EA00026698DF8300001238DF8283022762168DC
:100EB0000B95E66063680AA898473DE7C3F80811F8
:100EC000D3F808210992099AD3F8183596E7E26811
:100ED000E17501238DF830008DF828300B9294E8ED
:100EE0000A000AA8984727E7DE685D7E1869DA7568
:100EF00001210022D8601A765A768DF828100B96B8
:100F00008DF8305093E806000AA8904797E600BF96
:100F10009ADF70479CDF704762DF70470B785BB9E0
:100F20002DE9F04F8C88024641F22350844287B06D
:100F300003D007B0BDE8F08F70478E79107BB042C8
:100F4000F7D10F7A4888ADF80A00B7B3BDF81000A2
:100F50000190BDF80CB0BDF80EA099469846184611
:100F600041F2245E41F2255C06E0644512D0013076
:100F7000B84201F1120113D0CC890D7C7445F4D133
:100F8000AE42F4D14FF00109C846B1F818B0B1F83B
:100F900016A0ECE7AE42EAD1CB8A01930123E6E743
:100FA000B8F1000F22D1B9F1000F01D0ADF80EA0B9
:100FB0001BB1BDF80430ADF8103011884FF6FF7347
:100FC00099420AD0538843B9938833B906AB53F892
:100FD0000C0DC2F802009B88D38006A9002301F8FB
:100FE000103D1361104693689847A2E7ADF80CB026
:100FF000D9E700BF30B329B370B5134B86B00646AE
:101000009A6818680D465968DB6802AC0FC406F18F
:101010000C0102A8FFF780FF90B906AB41F2235202
:1010200023F8142D4FF6FF7230617080B080F0808D
:10103000B56018463280337B8DF8063001F0A2FE91
:1010400006B070BD0E2070479047020040B101808D
:1010500022B11368C0F802309388C3800020704723
:101060000E20704700285CD000295AD0F0B50B88BC
:10107000362B85B005460C4633D0392B07D0112BC3
:1010800023D02B88A288934233D005B0F0BD0288CC
:101090008B889A42F9D14A8983889A4229D1C98991
:1010A000036982680B4403612169A788E689039379
:1010B000012302918DF80030ADF80270ADF80460A4
:1010C000694690472B88A288DDE702888B889A4280
:1010D000DBD100224FF6FF730360426002618A8811
:1010E000D1E702888B889342CFD14989C288914247
:1010F0001DD0144C144A236812689342C5D003EBE8
:101100008300124D800029188A785AB98988285A94
:10111000FFF7FEFE0028B8D1013303F00703236078
:10112000B3E770470831285AFFF7F4FEF2E70221CF
:101130002269ADF802308DF800100192836869468B
:1011400098479EE774320020183300207832002040
:10115000002836D0F8B501884FF6FF73994201D1C7
:101160000820F8BD1B4FB0F802E03B681A4E1B4D3B
:1011700003EB83008000013303F007022C68315237
:101180003318022100203A60D9811F1D01219442A9
:10119000A3F80AE01F61988158711972197199704A
:1011A00016D004EB84039B00F1188A785AB9898819
:1011B000F05AFFF7ADFE58B9013404F007042C6073
:1011C000F8BD0E2070470831F05AFFF7A3FEF2E792
:1011D0000020F8BD1833002078320020743200203F
:1011E00080B3F8B502884FF6FF739A4201D1082008
:1011F000F8BD194F194E3B68194DB0F806E02C6840
:1012000003EB83029200B118013303F00703A1F846
:1012100004E0B0F800E03B600020A34226F802E0C2
:10122000887016D004EB84039B00F1188A785AB9B1
:101230008988F05AFFF76CFE58B9013404F00704AE
:101240002C60F8BD0E2070470831F05AFFF762FE9F
:10125000F2E70020F8BD00BF1833002078320020EC
:1012600074320020A0DF7047A4DF7047A6DF70470C
:1012700062DF70472DE9F041036A428BC8B0B3F5D5
:10128000801F0446ADF8062034D20DF1060100227D
:101290008088069108AD012104920592ADF81000F6
:1012A0008DF81210079502AF4FF002081E0C4FEA9E
:1012B000132E1A0E04A92088AE702B7085F801E059
:1012C000EA70FFF7D3FF1328064623D0BDF80610B7
:1012D000236AE2690B44990A8A42236207D07B6041
:1012E00087F80080E161636997E80300984776B961
:1012F000236ADBE70321039302AA8DF808106369D0
:1013000092E803009847002323762362E36148B004
:10131000BDE8F0810123237648B0BDE8F08100BF2D
:101320000B88112B024625D01FD9502B04D0572BE8
:1013300028D1037E13BB70470089CB889842FAD12D
:101340000B8A022BF7D110B5084682B01230144632
:1013500002F000FC02AB80F0010003F8080D6269A6
:1013600093E80300904702B010BD102B0BD18B887F
:10137000038070474FF6FF730380704700230376A6
:10138000FFF778BF70477047F0B5374B97B004460A
:101390009A6818680E465968DB6802AD0FC5A11C33
:1013A00002A8FFF765FF00285AD1A3788DF8063010
:1013B0000DF1020241F2235301A90120ADF80430DE
:1013C000FFF750FF002848D12022002106A8FDF792
:1013D000B9FF9DF82530A2788DF81A20012543F039
:1013E000100341F2245EF727BDF802008DF8253086
:1013F00006A9221DADF818E0ADF81C708DF82B5031
:101400008DF8245002F0AAFB20BB202200210EA858
:10141000FDF798FF9DF84530A2788DF83A2043F00B
:10142000020341F2255E04270125BDF802008DF874
:1014300045300EA904F10C02ADF838E0ADF83C706F
:101440008DF8495002F08AFB08B1FEF78FF866610B
:1014500017B0F0BDFEF78AF8D7E7FEF787F8B3E7D5
:10146000FEF784F8A1E700BFA04702000022C26196
:101470000262FFF7FFBE00BF0A8840F677239A4258
:1014800002D18B88033B4383704700BFF0B585B022
:101490000C460546082202A80021FDF753FF270C41
:1014A0004FEA142E260E8DF8044004240DEB04039D
:1014B00002AAA98928888DF805E08DF806708DF8B4
:1014C0000760ADF808400393FFF7CEFE05B0F0BD0E
:1014D0004FF0FF30FEF74AB800B50C4B0C4A1868C5
:1014E0009B8883B069460090ADF8043009482023FA
:1014F000ADF80030FFF7A8FA08B1FEF737F8054855
:10150000FFF7E4FA03B05DF804FB00BFB047020048
:10151000D1140200B8470200024B034801221A60AE
:10152000FFF7BCBA08400240B84702000148FFF785
:10153000C1BA00BFB8470200014BD3F80405704799
:101540000040024073DF704774DF704775DF7047FB
:1015500076DF70477ADF70477CDF70478ADF70473D
:101560008BDF70478CDF7047A9DF704769DF7047FA
:1015700066DF704767DF70473EDF70470F2806D091
:10158000102803D1044B02221A7070477047024B97
:1015900001221A70704700BFF83600200378012B33
:1015A00004BF014A1370704744330020FDF7DEBFCB
:1015B0000B8840F67722934209D04DF67A22934267
:1015C00002D1064B01221A700548FFF755BF054BA3
:1015D000034801221A70FFF74FBF00BF16370020E3
:1015E000203300201537002001460148FFF796BC44
:1015F00000370020F0B587B08DE803009DF800307B
:10160000032B39D8DFE803F0443F3A02FFF78EFF9F
:101610000220FEF7F5FC0320FEF7E6FCFFF78CFF47
:101620003C48FFF7DDFD38B33B4B3C4F18883C4E40
:101630003C4D3D4C3D494FF6FF72002390423B70BC
:1016400033702B7023700B703FD1394A1378DBB2A3
:10165000012B04BF37490B701378022B0CD1364B8A
:101660001C78012C42D00020FEF7BEFC3348FFF767
:1016700075FF08B1FDF77AFF07B0F0BD0220FEF755
:10168000E1FC07B0F0BD0120FEF7BAFC07B0F0BDE9
:101690000120FEF7A9FC224A254B012111701B787D
:1016A0008B42E9D1244C23788B4212D0022BE3D118
:1016B000234B194A1D4C10880125062219461A8011
:1016C0005A802570FFF742FFD6E71321FFF740FF4E
:1016D000D2E71B4B154A18460021062607251E8017
:1016E0005D80117001F020FA2378DFE700231846AF
:1016F0004FF496720493029303930593ADF812206E
:10170000FEF772FC214602A8FFF71CFF0028B3D0A9
:10171000B0E700BF00370020583000201737002006
:10172000A83500201537002016370020443300204C
:10173000F8360020F936002014370020C447020094
:1017400050300020F0B50B78012B85B00C4638D016
:1017500029D3022B25D1404B404F1888404E414D94
:10176000414C42494FF6FF72002390423B70337068
:101770002B7023700B7043D13D4A1378DBB2012BE1
:1017800004BF3C490B701378022B0AD13A4B1C78EA
:10179000012C4DD00020FEF727FC3848FFF7DEFE75
:1017A00060B905B0F0BD0A1D49880546FFF74EFC3B
:1017B00058BB2846FFF7CCFC0028F2D0FDF7D6FE38
:1017C000EFE78B68C3B12E4D2B68A2882C4E1344D3
:1017D000B3F5806F2B601BD8E368B3F5801FE0D3AF
:1017E0000220FEF70DFC274AE1682748002313601A
:1017F0002B60FFF74BFED4E7224A214D1360E4E74C
:101800001321FFF7A5FE05B0F0BDFDF7AFFED0E751
:101810001C4F0220FEF716FC33683A68E1681A484C
:101820000132A3F580633A603360FFF72FFED3E700
:10183000002318464FF4967202930093019303938A
:10184000ADF80A20FEF7D0FB21466846FFF77AFE86
:101850000028A6D0B2E700BF58300020173700207C
:10186000A83500201537002016370020443300200B
:10187000F8360020F936002014370020C447020053
:10188000FC3600201C330020203300202DE9F043DB
:1018900003881D2B85B0044600F09A800ED93B2B9F
:1018A0005AD061D9522B55D100231A461946808847
:1018B000FFF75AFE40B1FDF759FE05E0102B6DD041
:1018C000112B17D0012B62D0204601F0D1F8214610
:1018D0007C4801F0F3FA21467B4802F09DFB21464B
:1018E0007A48FFF71DFD21467948FFF7BBFB05B09D
:1018F000BDE8F083774F784E4FF6FF753D80337823
:10190000FEF78AFB3888DFF8F8E1744F7449754AAE
:101910000023A84233708EF800303B700B701370B8
:1019200040F0AB80704A1378DBB2012B04BF6F49E3
:101930000B701378022BC7D16D4B1D78012D00F071
:10194000A0800020FEF750FB6A48FFF707FE002842
:10195000BAD0B0E7562BB7D15E4B13211888FFF7EA
:10196000F7FD0028B0D0A6E71F2BADD100F108038A
:1019700093E803008DE803006946BDF80030A088B5
:10198000ADF80230FFF7E2FD00289DD093E700217B
:101990008088FFF7EDFD002896D08CE74D49544B29
:1019A000E27B80881A700880FFF7DAFDFFF7CCFD34
:1019B00000214FF418724348FDF7C4FCA188414848
:1019C00001F048FA08B1FDF7D1FDFEF725FB7BE7F2
:1019D00090F817805FEAD80800F118073FF474AF59
:1019E000417E067E0929B1465FD0002304E052788B
:1019F00017F80390092A33D009F101094B444345F4
:101A000007EB0302F3D3082951D0002301363344F6
:101A1000434507EB0302BFF457AF5278FE5C082A38
:101A2000F4D19D1C344802F099FE013EB6B2B0429A
:101A30007FF44AAF024679192F4802F075FE00285C
:101A40007FF442AF2D4DFFF77FFD062629492E80FA
:101A50002A46012304F108006E80FFF783FD33E777
:101A60009D1C254802F07AFE09F1FF391FFA89F919
:101A700048451ED0617E267EC5E71321FFF768FD2D
:101A800022E7002318464FF49672029300930193C5
:101A90000393ADF80A20FEF7A7FA29466846FFF738
:101AA00051FD00283FF410AF05E70225D9E70225D4
:101AB000B8E702467919104802F036FE0028D9D15D
:101AC000C0E700BF48330020AC35002020330020A1
:101AD000003700205830002017370020153700202D
:101AE0001637002044330020F8360020F936002055
:101AF00014370020C4470200DC47020050300020A9
:101B0000A83500202DE9804893B0FEF7AFFAFEF724
:101B1000C5F8002840F01082FFF7DEFC40F2666254
:101B20000221BE48FDF79AFC002840F00282BC4B1F
:101B3000BC491868019000234FF4987201A802F084
:101B400071FD002840F0F28112AC002344F8403DC2
:101B5000204602F0D3FD002840F0E5810C22002150
:101B600003A8FDF7EFFB012303A9029A8DF80C30BF
:101B700040208DF80D308DF80E30FFF7F7FC00286F
:101B800040F0CE810C2200210DEB0200FDF7DAFBC4
:101B90000121F7238DF80C10029AADF80E3003A93D
:101BA0002320FFF7E3FC002840F0B7810C2200213E
:101BB0000DEB0200FDF7C6FB4FF4A0750123029A5E
:101BC0008DF80C3003A920208DF80E30ADF81050A0
:101BD000FFF7CCFC002840F09D810C2200210DEB8A
:101BE0000200FDF7AFFB01231846029A8DF80C3076
:101BF00003A9FFF7BBFC002840F08981204602F0D2
:101C000087FD002840F08081874802F055FD0028BC
:101C100040F077819DF80C308448012262F3030381
:101C200062F307138DF80C3002F098FD7F4982B201
:101C300003A8FFF791FC002840F060817C48FFF783
:101C400089FC002840F0578100234FF4804202268F
:101C50000125784C7849069303A8079303930492CF
:101C600005928DF818608DF81C500894099100F0C9
:101C7000C5FE002840F03C817049714802F072F9BD
:101C8000002840F032813C22002103A8FDF75AFBD6
:101C900002220623002103A88DF80C208DF80F30B6
:101CA00000F0B2FB002840F01D8166486649FFF74E
:101CB0006BFB664801F04CF8002840F01081644945
:101CC0006448FFF797F9002840F00681F7215C4847
:101CD00002F064F9002840F0FC80F721584802F037
:101CE00069F9002840F0F280FB224FF6FF7154485A
:101CF00002F06CF90021082203A8FDF723FB9DF8F0
:101D00000C3003A943F0010302208DF80C30FFF7DB
:101D100031FC002840F0D780FDF7F8FB002840F0A8
:101D2000CF804D4E337823B9FFF726FC3378002B54
:101D3000FAD0FDF701FC002840F0BF803378474C13
:101D4000DBB2012B08BF23703378022B00F09680A2
:101D5000DFF81C81424DDFF81C91DFF81CB14746CB
:101D600024E0BAF1020F12D0002318464FF4967205
:101D70000593039304930693ADF81620FEF734F908
:101D8000012103A8FFF7DEFB08B1FDF7EFFB002000
:101D9000FEF72AF93348FFF7E1FB08BB0023237065
:101DA0003378DBB2012B1ED0FFF7E6FB2378002B44
:101DB000F6D095F800A0BAF1010FD2D10023184651
:101DC0004FF496720593039304930693ADF816208F
:101DD000FEF70AF9514603A8FFF7B4FB0028DDD04F
:101DE000FDF7C4FBDAE799F80020002ADCD09BF865
:101DF0000020002AD8D01C4A1278002AD4D01B4ACE
:101E00001278002AD0D098F80020002ACCD13B705C
:101E1000FFF782FB0B48FFF729FBC5E740300020A6
:101E2000C0470200C83500208D180200CC470200D0
:101E3000503000209D150200AD150200B1150200C2
:101E4000AC35002020330020F5150200E915020012
:101E50004517020000370020F8360020F936002030
:101E600014370020C4470200153700201637002021
:101E70001737002044330020A835002000231846DF
:101E80004FF496720593039304930693ADF81620CE
:101E9000FEF7AAF8012103A8FFF754FB08B1FDF7EC
:101EA00065FB0020FEF7A0F82548FFF757FB002848
:101EB0003FF44EAFFDF75AFB4AE7FDF757FB3DE70E
:101EC000FDF754FB2DE7FDF751FB25E7FDF74EFB32
:101ED0000AE7FDF74BFB00E7FDF748FBF6E6FDF7E9
:101EE00045FBECE6FDF742FBDFE6FDF73FFBCAE60C
:101EF000FDF73CFBC0E6FDF739FBA5E6FDF736FB39
:101F00009CE6FDF733FB85E6FDF730FB7CE6FDF74D
:101F10002DFB73E6FDF72AFB5FE6FDF727FB45E6A1
:101F2000FDF724FB2EE6FDF721FB17E6FDF71EFB70
:101F30000AE6FDF71BFBFAE5FDF718FBECE500BF31
:101F4000C44702006DDF704772DF704779DF70476A
:101F50007DDF704764DF70472DE9F04F83B0048860
:101F60000C9FBDF83490B7F800A0002C4CD09846D8
:101F7000002316468B4605461C4603E02A8801349A
:101F8000A24224DD6A6852F82400019000220DF17B
:101F9000030101A8FFF7DEFF10BB9DF80320B2424A
:101FA000ECD103B33A8893194B4518DC42440DF148
:101FB000030101A80123FFF7CDFF88B93A889DF8F6
:101FC00003100A443A802A880134A242DADCDBB1E9
:101FD0003B88013BCAEB03039BB2FF2B12D90C20B9
:101FE00003B0BDE8F08F3B885A1C334402334B45A5
:101FF00092B2F4DC3A8008F802B03A88013292B228
:102000003A80D3E708F80A30002003B0BDE8F08F2B
:102010002DE9F04700231788138090F82D3084B005
:10202000144605460E46002B49D1AA78002A70D1E5
:10203000EA78002A2ED16A68A2B1D91CB94225D803
:10204000022192F90020F154238801339BB20A2126
:102050002380F154238801339BB22380F2542388D8
:10206000013323802B89002B40F02A812B8A002BFF
:1020700040F03F812B8B002B40F054812A6A002ACC
:1020800000F0A78021888B1DBB4262D90C2004B0D0
:10209000BDE8F087D91CB942F8D80221F154238851
:1020A00001339BB201212380F15423880B449BB25E
:1020B0002380F25423880B449BB22380BBE7082F74
:1020C000E4D902A8FFF73EFF0028E0D113880822D8
:1020D000CA54238801339BB21B222380CA54208810
:1020E000013080B22080062208440DF1090102F07F
:1020F0002AFB23889DF8082006339BB212F0FE02CB
:1021000018BF01222380F254238801339BB223801D
:102110008BE70433BB42B9D802A8FFF717FF0028AA
:10212000B5D12388BDF808200321F1542388013359
:102130009BB219212380F154238801339BB2F118FB
:102140002380F254120A4A70238802339BB2238000
:102150006EE71388052B40F2AF806FF4486803EBFD
:10216000080080B24FF27D3E704540F2A580508855
:10217000052840F2A1806FF4486C84441FFA8CFC5F
:10218000F44540F299804FF6FF7E734504D07045C8
:1021900002D0834200F290800523735423880133D8
:1021A0009BB212212380F154238801339BB22380F8
:1021B0001188F1543344090A5970238802339BB2C1
:1021C00023805288F2543344120A5A70238802330F
:1021D0002380D5F82480B8F1000F30D0B8F804205F
:1021E0002188131D0B44BB423FF650AF931CFE2BBE
:1021F0003FF64CAF03327254238801339BB2FF2267
:102200002380F254238801339BB22380B8F8002046
:10221000F2543344120A5A702088023080B220806F
:10222000B8F804205AB1D8F80810002944D0304436
:1022300002F089FAB8F8043022881344238095F814
:102240002C30002B40F08B80287800283FF41FAF03
:102250002B88012B30D023889A1CBA423FF616AF48
:10226000012805D16978023119448F42FFF40EAF7D
:10227000023FFB1A04A99BB221F8083DB018FFF7F2
:1022800067FE00287FF403AF2A78022A00F0B480AA
:10229000012A60D01A460821FE2A3FF6F7AE2388AD
:1022A000551CF554238801339BB22380F1542388B5
:1022B00001331A442280EAE6072004B0BDE8F08723
:1022C00005F1080802228DE8900040461146334689
:1022D000FFF742FE00287FF4DAAE8DE8900040461A
:1022E000334610220621FFF737FE00287FF4CFAED9
:1022F000BCE605F110088DE8900040463346022206
:102300000321FFF729FE00287FF4C1AE8DE890007D
:102310004046334610220721FFF71EFE00287FF4B7
:10232000B6AEA7E605F118088DE8900040463346A2
:1023300002221421FFF710FE00287FF4A8AE8DE8DA
:1023400090004046334610221521FFF705FE002875
:102350007FF49DAE92E66A7893429CD29AE7D5F8D4
:102360002880B8F1000FA7D0B8F804200232FE2A66
:102370003FF68CAE23884FF000094FF0160A013269
:10238000F254238801339BB2238006F803A02388EC
:1023900001339BB22380B8F80020F2543344120A70
:1023A0005A70238802339BB22380B8F80410F018C7
:1023B0000A4669B1D8F808301946002B3FF47CAFC3
:1023C00002F0C1F9B8F80430228813449BB223808C
:1023D00009F1010995F82C205FFA89F94A4509EBC2
:1023E00049087FF631AFAA6A02EB8808B8F80420E2
:1023F0000232FE2AC3D949E6BDF808209342FFF411
:1024000049AF092148E700BF2DE9F04395B01F23EC
:102410000D46ADF80E300446002800F08480C278E6
:1024200053077CD590F82D300021ADF80C10002B0F
:1024300040F0DD8183780CAF002B40F01982194603
:10244000032014AE31445F1C023316FA87F74FF0B5
:10245000020E16FA83F601F840EC83B2012107F868
:10246000401CADF80C3006F8402C6668002E00F0D9
:102470008C80D81C1F2874D90C2015B0BDE8F083BF
:10248000A76A002F4BD0BA880232FE2AF4D8BDF8D2
:102490000C304FF0000804AE4FF016091AE002F0BD
:1024A00052F9BDF80C20BB8894F82C1013449BB251
:1024B000ADF80C3008F101085FFA88F8884508EBA0
:1024C000480780F0F080A26A02EB8707BA880232E0
:1024D000FE2AD1D80DF1500E9E44581C01320DF148
:1024E000500C0EF8402C1CFA80F09A1C92B200F8A6
:1024F000409CADF80C203888B0543244000A50702B
:102500000433B7F804E09BB27246F018ADF80C3013
:10251000BEF1000FCED0BB681946002BBFD10720FB
:1025200015B0BDE8F083ADF80C00ADB1EB78002B31
:10253000F5D128460CA90DF10E02FFF769FD002820
:10254000EED19DF80E300CAA20469DF80C10FFF736
:10255000FBFC15B0BDE8F0832B46ADF80E502A46C3
:10256000F2E714AF591C9A1C17FA81F13B4417FA91
:1025700082F296F90060ADF80C0002270A2003F8F9
:10258000407C01F8400C02F8406C2389002B40F09D
:102590008F80238A002B40F0AB80238B002B40F0F0
:1025A000C780226A002A42D0BDF80C30991D1F292D
:1025B0003FF662AF10880528B1D96FF4486C00EB84
:1025C0000C06B6B24FF27D37BE42A8D95688052E0A
:1025D000A5D96FF4486EB6441FFA8EFEBE459ED94B
:1025E0004FF6FF77B84203D0BE4201D0B04296D832
:1025F00014A8C7185E1C10FA86F64FF0050E981C3A
:1026000007F840EC80B2122706F8407CADF80C00C9
:102610001788ADF80C1004AE3118375404333F0A54
:102620004F709BB25288F2543344120A5A70676A50
:10263000A7B3B888BDF80C30811C9A1C56181F2E01
:102640003FF61AAFFE293FF617AF14AE1E44591CD1
:102650000DF1500E1EFA81F1033006F8400C92B2D3
:10266000FF2001F8400CADF80C20398804AEB018FA
:10267000B154090A41700433BA8898B2ADF80C001D
:1026800062B1B96800293FF44AAF304402F05BF808
:10269000BDF80C20BB881344ADF80C3094F82C1016
:1026A00000297FF4EDAE2378002B61D104AC3CE728
:1026B00003A904F1080704AE4FF01F08022200919D
:1026C00038463346CDF804801146FFF745FC002814
:1026D0007FF426AF03AB0093CDF804803346384631
:1026E00010220621FFF738FC00287FF419AF50E7CD
:1026F00003AA04F1100704AE4FF01F0800923846F9
:102700003346CDF8048002220321FFF725FC002880
:102710007FF406AF03AB0093CDF804803346384610
:1027200010220721FFF718FC00287FF4F9AE34E7E8
:1027300003AA04F1180704AE4FF01F0800923846B0
:102740003346CDF8048002221421FFF705FC00284F
:102750007FF4E6AE03AB0093CDF8048033463846F1
:1027600010221521FFF7F8FB00287FF4D9AE18E7F7
:102770002288012A3FF4D3AEBDF80C20901C1F28FC
:102780003FF67AAE012B05D16378134402331F2B39
:102790003FF672AEC2F11D0314A99BB204AE21F83C
:1027A000203D3044FFF7D4FB00287FF4B9AE2278F7
:1027B000022A00F08780012A00F08B80ADF83030CB
:1027C0001A460820FE2A3FF657AEBDF80C3014AC6E
:1027D000591CE71814FA81F102331344013207F847
:1027E000402C3446ADF80C3001F8400C9DE60CAF9F
:1027F0003846FFF7A7FB00287FF492AEBDF80C30F7
:1028000014A903F1010E9A1C11FA8EFE0B4492B228
:1028100004AEB01808211B2603F8401CADF80C20AC
:102820000DF1310106220EF8406C01F08CFFBDF86D
:102830000C209DF83010931D11F0FE019BB23BD18E
:1028400014A8034403F8401CD31DA2789BB2ADF832
:102850000C304AB9E278002A3FF407AED81C1F2892
:1028600019463FF609AEECE504331F2B3FF604AEE4
:102870003846FFF76BFB00287FF452AEBDF80C30F2
:10288000BDF83010E2785F1C14AE16FA87F71E44CC
:10289000981C4FF0030E06F840EC80B204AE4FF0E7
:1028A000190E07F840EC0433371831549BB2090A6B
:1028B000ADF80C307970CEE714A90B44012103F870
:1028C000401CC1E7BDF830209342FFF477AF0920E8
:1028D00078E762789342FFF471AFADF830200820BA
:1028E00070E700BF75DF704776DF70477ADF7047AB
:1028F0007BDF7047184B18884FF6FF7398422AD039
:1029000010B5164A164C1378217B0133DBB299427D
:1029100082B013700CD2237C002111708BB96369D3
:1029200023B102A8002200F8042D984702B010BD80
:102930000C49FFF7D7FF0028F8D0A369002BF4D18A
:10294000F4E73B21FFF7D0FF0028E8D0A369002B74
:10295000E5D09847E3E7704764370020243700202C
:10296000283700206837002070B51E4B1E4A5B8850
:102970001188994282B00FD852889A420CD31B4BCF
:102980005B6923B102A8012200F8042D9847184C76
:102990000023237002B070BD154C227862B1134B36
:1029A0005B69002BF4D002A8002200F8042D9847A0
:1029B0000023237002B070BD0C4D0E486968067884
:1029C000AB680D48002E18BF1946FDF73BFA0028EA
:1029D000DED0AB69002BDBD098470023237002B018
:1029E00070BD00BF1C37002068370020283700204A
:1029F000183700202437002044370020F8B505465A
:102A00000FCD144C144F0FC4064695E80700002361
:102A100084E807003B70B6B13068104B716803C39F
:102A2000A3F10800FFF762FF90B90D4D0D4C0E4A5F
:102A30000E4800234FF6FF762E8023701946BDE81E
:102A4000F840FDF7EDB90548FFF752FF0028ECD03C
:102A5000F8BD00BF28370020183700206837002055
:102A60006437002024370020F5280200EC470200DC
:102A700070B50388112B27D012D9122B07D0502BF9
:102A800047D1244CC288E3899A4230D070BD0830C7
:102A900003C8214B83E80300BDE87040FFF764BF23
:102AA000102B35D11D491B4C1B4B1D4DE48900F1EA
:102AB00010028088088092E80300002283E8030067
:102AC0002A70002CE8D070BD1449154B15484FF6FC
:102AD000FF7400220C801A70FDF70AFA0028D5D086
:102AE0000C4B9B69002BD1D0BDE870401847038A7E
:102AF000022BCBD1123001F02DF80028CCD109489F
:102B0000FDF7F6F90028C1D0A369002BECD1BDE791
:102B100070BD70BD283700201C37002064370020AE
:102B2000243700204437002010B50346154A0068BA
:102B30005968134603C382B01046FFF7D7FE044618
:102B400078B9114B11885B8899420DD852889A4206
:102B50000AD30E4B5B6923B102A8012200F8042DB1
:102B60009847204602B010BD094B0A4A188805490B
:102B700001231370FFF7B6FE074A04462046137080
:102B800002B010BD683700201C3700202837002015
:102B900064370020183700202437002094DF704766
:102BA00096DF704797DF7047F0B5334B1D6890F89C
:102BB0005A329BB065B303EB830303EB83039B00A3
:102BC000C6182E4CB678A778B74223D0012D1FD94E
:102BD000A779DFF8A8E0B74247D0022D18D0A77A2E
:102BE000DFF898E0B7423AD0032D11D0A77BDFF889
:102BF0008CE0B7422DD0042D0AD0A77CDFF87CE012
:102C0000B74220D0052D03D0A47D1C4DB44214D072
:102C10001BB0F0BDB4F800E0C75ABE45D6D1184B82
:102C20001C68002CF4D00123ADF8022001918DF82E
:102C300000306846A0471BB0F0BDAC8AC35A9C4226
:102C4000EDD01BB0F0BDBEF810E0C75ABE45D9D1DB
:102C5000E5E7BEF80CE0C75ABE45CCD1DFE7BEF8C9
:102C600008E0C75ABE45BFD1D9E7BEF804E0C75A4D
:102C7000BE45B2D1D3E700BF1C3A0020003A002085
:102C8000703700202DE9F04390F85A4290F85932FD
:102C900004EB840E0EEB8E0E00EB8E0E4FF0640CE8
:102CA0000CFB04FC9EF8047003EBC3040CEB44041F
:102CB0005E1C0444BE4283B004F10A053CD0BB4212
:102CC00038BF07F1FF382DD25E1C06EBC6040CEBB3
:102CD0004404984500EB04092B8912D0B9F8105030
:102CE0000133AB4217D0013DADF80650ADF80430CA
:102CF00000230B70104601A9FFF754FF03B0BDE895
:102D0000F083BEF80840A34212D00133ADF804307E
:102D1000ADF80640ECE709F10A05F3B29F4280F8EE
:102D20005932D1D8012300200B7003B0BDE8F083E5
:102D3000002508F10106F0E72B89BEF80800834260
:102D4000F0D00133ADF80430ADF80600D0E700BF95
:102D500068B170B40749084A084E094D1060012453
:102D600000230C7033602B60184670BC70470E2334
:102D700018467047183A0020703700201C3A00208F
:102D8000FC39002020B12F4B1B781BB9082070475D
:102D90000E20704770B42C4C2C4B2268002A46D071
:102DA00081789D788D4220D0012A49D99D79274E7E
:102DB0008D4237D0022A43D09D7A244E8D422CD0AA
:102DC000032A3DD09D7B214E8D4221D0042A37D04D
:102DD0009D7C1E4E8D4216D0052A31D09D7D1B4E06
:102DE0008D420BD0042070BC70471E880588AE420F
:102DF000DAD11749096809B30020F4E7B58A0188D8
:102E00008D42EFD1F5E7368A0588AE42E4D1F0E78E
:102E1000B6890588AE42D9D1EBE736890588AE423E
:102E2000CED1E6E7B6880588AE42C3D1E1E70121FD
:102E3000006843F8220021600020D4E7052AD1D899
:102E4000511CF5E7183A00201C3A0020003A0020F7
:102E50007037002070B138B5144B1B780BB90820BF
:102E600038BD134B1B68002BF9D090F85B421CB1A6
:102E7000112038BD0E2070470E4A0F4D03461068D2
:102E8000A3F85E12186083F85C42084683F85A4241
:102E900083F859421A4601212C60FFF77FFE002873
:102EA000E7D1012283F85B2238BD00BF183A002029
:102EB0001C3A0020003A0020FC39002090B389B36E
:102EC000884B1B7873B32DE9F04F0B88113BA1B0F1
:102ED00005460C46222B00F2D780DFE813F03202C1
:102EE000D500D500D500D500D500D500D500D5003A
:102EF000D500D500D500D500D500D500D500D5002A
:102F0000D500D500D500D500D500D500D500D50019
:102F1000D500D500D500D500D500D500D701D50006
:102F20000B01D8007047002685F85962A2880DF180
:102F300017012846FFF7A6FE002840F077849DF889
:102F40001730002B00F0A080DFF8A481B4F804E073
:102F5000D8F8007095F85A12002F00F0B48501EBF4
:102F6000810303EB83039B00EA185F4E9278B078ED
:102F7000904200F05685012F40F2C785B079DFF806
:102F800068C1904200F05485022F1DD0B07ADFF85E
:102F900058C1904200F03E85032F15D0B07BDFF87A
:102FA00048C1904200F02F85042F0DD0B07CDFF88F
:102FB00038C1904200F02085052F05D0B07DDFF8A4
:102FC00028C1904200F0A682744695F85C32013325
:102FD000DBB2BB4285F85C3280F0AB8195F85A22B7
:102FE000DFF804810132D2B2642312FB03F105EB56
:102FF000010E56F8220085F85A224FF0000985F894
:10300000599203FB0252685001218EF80490204629
:10301000FFF7C4FD002837D095F85A2285F85B9257
:1030200012FB03F3EA1898F802109278914200F02C
:103030006585012F24D096F806E02B49964500F0CF
:103040007D85022F1CD096F80AE02749964500F0AE
:103050006E85032F14D096F80EE02349964500F0B4
:103060005F85042F0CD096F812E01F49964500F0BA
:103070005085052F04D0B67D1B49964200F02A8565
:103080001A4B03225C801A7021B0BDE8F08F8A8849
:10309000B0F85E329A42F7D1C88895F8597295F81F
:1030A0005A12002840F06A816389002B00F0668183
:1030B000642303FB01F307EBC70603EB46062E442C
:1030C0002246D389A3F52453082B00F2ED81DFE8D3
:1030D00013F0E901E501E201EB01EB01EB01EB018A
:1030E000EB014201183A0020003A0020743700201A
:1030F0001C3A00208A88B0F85E329A42C4D1CB884C
:10310000002B7FF410AF90F85AE2897A0EEB8E060E
:1031100006EB860600EB8606337919440529D5BFF0
:10312000C9B205220A461146934231717DD2224628
:10313000642000FB0EF003EBC30152F80C8F00EB90
:1031400041012944D2F804C0C1F80EC0C1F80A8078
:1031500012894A8200228A82CA820A834A8331798A
:103160005F1C8F4280F09D8207EBC701274600EB72
:10317000410157F8169F2944D7F80480C1F80E8002
:10318000C1F80A903F894F828A82CA820A834A83A1
:1031900031799F1C8F4280F0848207EBC70127465C
:1031A00000EB410157F8209F2944D7F80480C1F86B
:1031B0000E80C1F80A903F894F828A82CA820A83B0
:1031C0004A833179DF1C8F4280F06B8207EBC701A5
:1031D000274600EB410157F82A9F2944D7F804807D
:1031E000C1F80E80C1F80A903F894F828A82CA8254
:1031F0000A834A8331791F1D8F4280F0528207EB88
:10320000C701274600EB410157F8348F2944D7F80E
:1032100004C0C1F80EC0C1F80A803F894F828A827B
:10322000CA820A834A83317905336422013B02FB57
:103230000EFE03EBC3030EEB43032B4432895B8A80
:103240009342BFF470AE05293FF46DAE85F8591274
:10325000A088002940F07183F3883289ADF81A20E4
:1032600006A9ADF81830FFF79BFC00283FF40CAF1F
:10327000002385F85B320146A2882846FFF794FCBC
:10328000BF4BA2885A8003221A70FDE6B1F804E011
:10329000B0F85E3273457FF4F7AECA8890F85A12E0
:1032A000002A00F07781DFF8E482D8F80070002F60
:1032B00000F0CD8301EB810303EB83039B00C21875
:1032C000B04E9278B078904200F02782012F40F201
:1032D0006883B079DFF8ACC2904200F02582022FFB
:1032E0001DD0B07ADFF89CC2904200F02D82032FEF
:1032F00015D0B07BDFF88CC2904200F01D82042F05
:103300000DD0B07CDFF87CC2904200F0FF81052F29
:1033100005D0B07DDFF86CC2904200F0C7807446E3
:1033200095F85C320133DBB2BB4285F85C32C0F009
:10333000BA81934B032100225C80197085F85B22CF
:10334000A2E68B88B0F85E229A427FF49DAE0023FD
:1033500080F85B3298E6B2F80CE0B38AA6F81AE07F
:103360002BB1F38A1BB1338B0BB1738B33B96389E8
:103370000130984202F10602FFF4A3AE642202FB80
:1033800001527B1C1279002693428DF8176040F0A1
:10339000768101238DF81730DFF8F081B4F804E06E
:1033A000D8F80070002F00F08E83642202FB01F237
:1033B000AB18744E9B78B078984200F0B782012F1A
:1033C00040F2EF82B079DFF8BCC1984200F0898208
:1033D000022FA4D0B07ADFF8ACC1984200F09882F6
:1033E000032F9CD0B07BDFF89CC1984200F0808214
:1033F000042F94D0B07CDFF88CC1984200F08F820B
:10340000052F8CD0B07DDFF87CC1984287D1BCF805
:103410001400AB5A984282D15B4B1B680393002B7C
:103420003FF47DAFDFF868A1DAF80090B9F1050F3D
:103430003FF675AF524A01926C2303FB09F302EB8E
:10344000030B642202FB01510BF10400ABF802E014
:10345000029301F078F9039BCBF8683009F1010180
:103460000198029BCAF800100022B942C2544FD101
:1034700081469346D9F8683048469847D8F8007096
:103480000BF1010BBB4509F16C09F3D30023A488B0
:10349000CAF8003044E79389B38261E793893383A4
:1034A000B38A5DE79389F382B38A59E7BCF81420A5
:1034B000EB5A9A427FF433AF334B1B680393002BD4
:1034C0003FF42DAFDFF8C8A0DAF80090B9F1050F8E
:1034D0003FF625AF2A4B01934FF06C0B0BFB09FB1A
:1034E0005B44642202FB0151181DA3F802E0029321
:1034F00001F029F9029B0398986609F10102019BEA
:10350000CAF800200221BA4203F80B1000F07E81B5
:10351000A48805E7BCF81420EB5A9A427FF454AD16
:10352000194B1B680393002B3FF44EADDFF860A0EE
:10353000DAF80090B9F1050F3FF646AD104B019354
:103540006C2202FB09F203EB020B0292642202FBE3
:1035500001510BF10400ABF802E001F0F4F8039B19
:10356000CBF8683009F10101019B0298CAF80010FC
:103570000022B9421A5400F09182A48825E500BFC8
:1035800074370020003A0020703700201C3A0020D9
:10359000FC39002001EB810303EB83039B00E2680D
:1035A000C25003442269C3F8062090F85922A0882B
:1035B000002A40F09D80DA881B89ADF81A3006A9F0
:1035C000ADF81820FFF7ECFA00283FF45DADCC4BC6
:1035D00095F85A221F68002385F85B32A188B7B39B
:1035E00002EB820202EB82029300EA18C54E927847
:1035F00096F802E0964500F0CC81012F27D996F885
:1036000006E0DFF800C3964500F0BB81022F1ED014
:1036100096F80AE0DFF8ECC2964500F0AA81032F85
:1036200015D096F80EE0DFF8DCC2964500F09981DF
:10363000042F0CD096F812E0DFF8C8C2964500F0CF
:103640008881052F03D0B67DAE4F964205D00B463C
:10365000AD4A03215380117016E5BA8AEB5A9A429B
:10366000F5D1AA4B1A68002AF1D0012307908DF8F2
:103670001830ADF81A1006A89047A388E8E785F837
:103680005932A2880DF117012846FFF7FBFA0028EE
:1036900061D19DF81730002B3FF4F6AC95F85A1223
:1036A0007AE63B46C1E595F85A320133DBB203EBCB
:1036B000830101EB810189006F1856F8230085F81A
:1036C0005A320026642285F8596202FB0352685080
:1036D00001213E712046FFF761FA00283FF4D4AC87
:1036E000014685F85B6228462246FFF75DFAC7E48B
:1036F000013AD2B2642602EBC20206FB01F101EBF1
:1037000042022A44528A013292B255E7BCF810C0F4
:10371000E85A84457FF4FBADCEE635F803C0308827
:1037200084457FF4D3ADC7E6BCF8040035F803C088
:1037300084457FF4D4ADBFE6BCF80C0035F803C077
:1037400084457FF4DCADB7E6BCF808C0E85A844590
:103750007FF4CDADB0E66A4B85F85B621F68A18847
:1037600095F85A22002F3FF472AF02EB820202EB6F
:1037700082029300EA18634E927896F802E096452A
:1037800000F03281012F7FF662AF96F806E0DFF895
:1037900074C1964500F02081022F3FF458AF96F88F
:1037A0000AE0DFF860C1964500F00E81032F3FF478
:1037B0004EAF96F80EE0DFF84CC1964500F0FC8065
:1037C000042F3FF444AF96F812E0DFF838C1964575
:1037D00000F0EA80052F3FF43AAFB67D494F96429C
:1037E0007FF435AFBA8AEB5A9A427FF430AF474B39
:1037F0001A68002A3FF42BAF012307908DF8183088
:10380000ADF81A1006A89047A38821E799464FF013
:10381000000BD9F8683048469847D8F800700BF18B
:10382000010BBB4509F16C09F3D32FE6344B85F846
:103830005B621F6895F85A22A388002F3FF408AFF7
:1038400002EB820202EB82029200A9182D4E8978C7
:1038500096F802E08E4500F01981012F7FF6F8AE50
:1038600096F806E0DFF89CC08E4500F00781022F35
:103870003FF4EEAE96F80AE0DFF888C08E4500F01F
:10388000F580032F3FF4E4AE96F80EE0DFF874C045
:103890008E4500F0E380042F3FF4DAAE96F812E094
:1038A000DFF860C08E4500F0CA80052F3FF4D0AE2F
:1038B000B67D144F8E427FF4CBAEB98AAA5A91429C
:1038C0007FF4C6AE114A1268002A3FF4C1AE01214E
:1038D000ADF81A3007908DF8181006A89047A38805
:1038E000B6E6BCF804C0A85A84457FF471AD93E5F0
:1038F000BCF80CC0A85A84457FF47AAD8CE500BFB3
:103900001C3A0020003A0020743700207037002055
:10391000BCF808C0A85A84457FF462AD7CE5BCF8C9
:1039200010C0A85A84457FF46BAD75E5B6F800C0A9
:10393000A85A84457FF443AD6EE54B1EDBB203EB22
:10394000C3030EEB430E05EB0E035B8A01339BB200
:1039500083E4BCF810E035F803C0F4457FF471AEA1
:103960007FE6BCF80CE035F803C0F4457FF460AEA8
:1039700077E6BCF808E035F803C0F4457FF44FAEB5
:103980006FE6BCF804C035F803E0F4457FF43EAEC2
:1039900067E635F803C0B6F800E0F4457FF42DAED5
:1039A0005FE674460127BBE4BCF810C035F803E0BD
:1039B000F4457FF40FAF1AE7BCF80CC035F803E00C
:1039C000F4457FF4FDAE12E7BCF808C035F803E01B
:1039D000F4457FF4EBAE0AE7BCF804C035F803E029
:1039E000F4457FF4D9AE02E7B6F800C035F803E03D
:1039F000F4457FF4C7AEFAE6BCF810C0E85A844537
:103A00007FF4DAAA8CE5BCF80CC0E85A84457FF450
:103A1000CBAA85E5BCF808C0E85A84457FF4BCAA67
:103A20007EE5B6F800C0E85A84457FF4A4AA77E59D
:103A3000BCF804C0E85A84457FF4A6AA70E5BCF837
:103A400010E035F802C0F4457FF42FAF3AE790F864
:103A50005C2201321C4680F85C226AE4BCF80CC08F
:103A600035F802E0F4457FF416AF2BE7BCF808C048
:103A700035F802E0F4457FF404AF23E7BCF804E036
:103A800035F802C0F4457FF4F2AE1BE7B6F800C08B
:103A900035F802E0F4457FF4E0AE13E7DDF804907A
:103AA0009346D9F8683048469847D8F800700BF12B
:103AB000010BBB4509F16C09F3D30023A488CAF8B4
:103AC0000030FFF782BA95F85C320133744685F80E
:103AD0005C322EE48A8AEB5A9A427FF4D1AA1B4BBD
:103AE0001B68002B3FF4CCAA01220790ADF81A40C6
:103AF0008DF8182006A89847FFF7C2BAB8F800E07A
:103B0000E95A8E457FF495AAE9E774460127FFF745
:103B10005CBAB1F810E0E95A8E457FF4AAAADEE754
:103B2000B1F80CE0E95A8E457FF49BAAD7E7B1F8CB
:103B300008E0E95A8E457FF48CAAD0E7B1F804E09A
:103B4000E95A8E457FF47DAAC9E700BF703700208F
:103B5000A2DF7047007800F001007047F0B58B7865
:103B600091B0002B0C460988ADF80C1008BF01235A
:103B7000054616466846032200218DF80E30FBF7F5
:103B8000E1FB9DF80020637C02F0F0026FF3071266
:103B9000013B8DF80020042B10D8DFE813F0200142
:103BA0002A010500350116019DF80030012262F35B
:103BB0000303032262F307138DF800309DF8012000
:103BC000A37C02F0F0026FF30712013B8DF8012095
:103BD000042B10D8DFE813F02D0137010500EE00AB
:103BE00023019DF80130012262F30303032262F3F3
:103BF00007138DF801309DF80230E77B227D207C91
:103C0000217B67F3C303002A60F3041314BF02226D
:103C1000012261F3000362F3420309A81C22002180
:103C20008DF80230FBF78EFB637B13F0300F40F012
:103C30008F80627BA37B8DF824200021142204A8AE
:103C40008DF82530FBF77EFBA368A288CDF814D051
:103C500003A90491ADF81C201BB1E2880893ADF8CC
:103C60001820A369002B44D001AF0322002138465D
:103C7000FBF768FBA2699DF804101388ADF82C309F
:103C80005388ADF82E3050680D97137B0A9001F0E1
:103C9000F0016FF30711013B8DF80410042B3DD8A0
:103CA000DFE813F01B0125013200F20011019DF83D
:103CB0000530012161F30303032161F307138DF83C
:103CC0000530917A9DF8063061F3C3038DF8063014
:103CD000D17A61F304138DF80630117A927B002AB1
:103CE00061F3000314BF0222012262F342038DF844
:103CF0000630E36903B10C93334604AA09A92846A8
:103D0000FFF726FF11B0F0BD9DF80430012161F3EB
:103D10000303032161F307138DF804309DF80510A8
:103D2000537B01F0F0016FF30711013B8DF8051093
:103D3000042BC6D801A151F823F000BFB33E020006
:103D4000733E0200AF3C02005D3E02009F3E020057
:103D5000032202A80021FBF7F5FA9DF80920E37C75
:103D600002F0F0026FF30712013B8DF80920042BDB
:103D70000ED8DFE803F0D1DB03E6C7009DF8093079
:103D8000012262F30303032262F307138DF8093063
:103D90009DF808309DF80A1002AA0E92012262F3E3
:103DA000030362F3071362F342018DF808308DF8C4
:103DB0000A103EE79DF80130022262F3030301225C
:103DC00062F307138DF8013015E79DF800300222E9
:103DD00062F3030362F307138DF80030EEE69DF8FB
:103DE0000030012262F3030362F307138DF8003001
:103DF000E4E69DF80030012262F30303022262F33D
:103E000007138DF80030D9E69DF80030022262F3E6
:103E10000303012262F307138DF80030CEE69DF80C
:103E20000130022262F3030362F307138DF80130BD
:103E3000E1E69DF80130012262F3030362F3071308
:103E40008DF80130D7E69DF80130012262F30303BB
:103E5000022262F307138DF80130CCE69DF805309D
:103E6000022161F30303012161F307138DF805308B
:103E700027E79DF80530012161F30303022161F377
:103E800007138DF805301CE79DF80430022161F31B
:103E90000303012161F307138DF804303EE79DF819
:103EA0000530022161F3030361F307138DF8053038
:103EB00007E79DF80530012161F3030361F3071360
:103EC0008DF80530FDE69DF80430022161F303030F
:103ED00061F307138DF8043020E79DF804300121C9
:103EE00061F3030361F307138DF8043016E79DF8BF
:103EF0000430012161F30303022161F307138DF8FC
:103F000004300BE79DF80930022262F3030362F3E9
:103F100007138DF809303BE79DF80930012262F361
:103F2000030362F307138DF8093031E79DF8093078
:103F3000012262F30303022262F307138DF80930B2
:103F400026E79DF80930022262F30303012262F39F
:103F500007138DF809301BE78FDF70479EDF70472E
:103F6000ADDF7047C0B170B40346F7220020FB24D8
:103F700017261B2599611A805A80DA80DA811C7114
:103F80001C731C751E811E829872D8729874D87426
:103F90005D735D7570BC70470E20704740B1A1F134
:103FA0001703E02B01D907207047018000207047DC
:103FB0000E20704740B1A1F11703E02B01D9072073
:103FC00070474180002070470E20704738B14FF68F
:103FD000FF73994205D0012909D9072070470E20A7
:103FE0007047FB2A28BFFB2202710020704710B5E2
:103FF000034603EBC10382B000241A73084693B250
:1040000069462246ADF80030ADF802300194FFF762
:10401000A3FF02B010BD00BFF0B58D88012D83B0A5
:1040200001D903B0F0BD0B88212B04463ED016D930
:104030003A2B00F09580552B6ED0222B21D0EE002C
:10404000A3199B7A002BECD0A3192846D988FFF737
:1040500085FF0028E5D101229872DA72E1E7102B82
:1040600038D0112BEBD100EBC5030022F725172424
:10407000FB201B21DD801C81187359739A72DA7240
:10408000CFE7EE0087190A7A7A73836903B30021B8
:104090004DF67A2EADF80410ADF8025069468DF851
:1040A0000420ADF800E09847BB7ACBE7EE00871913
:1040B0000A7A3B7B0020934228BF134601900246B8
:1040C00069462846ADF80030ADF80230FFF744FFEE
:1040D000BB7AB7E7EE00831902791A73CA7B012A0B
:1040E0005BD0022A5CD0D9881A898A425BD31A7BBA
:1040F000597B91420ED290B20027ADF80000ADF886
:1041000002003A4669462846ADF80470ADF80670DC
:10411000FFF722FF9B7A95E7EE00CB888719172BD4
:10412000F98838BF17238B4228BF0B4600223B81FA
:10413000BA722846FFF714FFFB7A002BC8D1A36997
:10414000002BC5D040F677213A89ADF80010ADF8C4
:104150000250ADF80420694620469847BB7A71E7C3
:1041600000EBC5064A89F388934228BF1346172BF4
:1041700038BF1723338182695AB1F17A49B140F6C9
:104180007721ADF80010ADF80250ADF80430694663
:1041900090470023F372B37243E70188D980A3E705
:1041A0004188D980A0E72846FFF7D8FE10B9012240
:1041B000DA729CE7112804BF01229A7297E700BFC8
:1041C0000649074A074B9B1A03DD043BC858D050E9
:1041D000FBDC00F013F8FBF741F80000FC4702009D
:1041E000E02F00206C300020FEE7FEE7FEE7FEE750
:1041F000FEE7FEE7FEE7FEE7FEE7FEE7F0B4BA4BB8
:104200001A78062A1BD0B94AD2F8883043F47003D2
:10421000C2F88830BFF34F8FBFF36F8F4FF010237A
:10422000D3F80022002AC0F22D81D3F80432002BEB
:10423000C0F22881AE4BAF4A1A60F0BC704704331D
:104240001B681B07DFD1AC4B1B6803F0F002302A60
:1042500000F0088103F0E003402B00F00381A64B3F
:104260001B6803F0F003302B00F0EE80A24B1B68BC
:1042700003F0F002302A00F0D78003F0E003402B77
:1042800000F0D2809C4B1B6803F0F003302B00F051
:10429000BB80994B1B6803F0F002302A00F0A0802D
:1042A00003F0E003402B00F09B80934B1B6803F06E
:1042B000F003302B00F086808F4B1B6803F0F00377
:1042C000302B68D08C4B1B6803F0F003502B10D0C0
:1042D000894B1B6803F0F002302A03D003F0E0039F
:1042E000402B90D1854B864A1B6803F04F03136027
:1042F00089E74FF08052834BD2F80414C3F820159D
:10430000D2F80814C3F82415D2F80C14C3F82815F1
:10431000D2F81014C3F82C15D2F81414C3F83015C1
:10432000D2F81814C3F83415D2F81C14C3F8401589
:10433000D2F82014C3F84415D2F82414C3F8481551
:10434000D2F82814C3F84C15D2F82C14C3F8501521
:10435000D2F83014C3F85415D2F83414C3F86015E9
:10436000D2F83814C3F86415D2F83C14C3F86815B1
:10437000D2F840145C48C3F86C15D2F844140278A3
:10438000C3F87015062A7FF43EAF5F4B1B681A070F
:104390007FF439AF9CE75D4E5D4C5E495E4B05276F
:1043A000012500203F223760256008601A604E4BCF
:1043B0001B78062B7FF427AF534B1B6819077FF43C
:1043C00022AF7FE7484B554A1B780321062B11602B
:1043D0007FF419AF4C4B1B6818077FF414AF6BE7E1
:1043E0004FF080430022C3F80C21C3F81021C3F81A
:1043F00038253D4B1B78062B7FF405AF424B1B68DD
:104400001C077FF400AF50E74549374ACB68127864
:1044100023F08073062ACB607FF4F5AE3A4B1B681D
:104420001D077FF4F0AE34E73E4B2F4A1B6812782D
:104430003D49C3F34233062A0B60B8D1324B1B68A7
:104440001E077FF4E0AE1DE7274B384A1B7838493A
:104450001160062B7FF4D7AE2B4B1B681F077FF430
:10446000D2AE03E7334B204A1B6812783249C3F3BC
:104470000423062A0B60BCD1234B1B681B073FF4A7
:10448000EEAEC0E62D4B0122C3F80425D3F800247C
:10449000002AFBD04FF0102315222849C3F8002230
:1044A000D1F80034002BFBD04FF010231522234904
:1044B000C3F80422D1F80024204B002AFAD00022AD
:1044C000C3F80425D3F80024002AFBD0BFF34F8F94
:1044D00006491B4BCA6802F4E0621343CB60BFF38A
:1044E0004F8F00BFFDE700BFE00F00F000ED00E0E0
:1044F0005C3000200090D003E80F00F0580200105C
:10450000E40E004000C00040E40F00F010560040F0
:10451000885600401856004014560040A005004040
:10452000F0ED00E0440200103C05004074C007407C
:104530000DF0ADBA240300104035014000E0014009
:104540000400FA0548DF704710DF704760DF7047EE
:1045500061DF7047FBF71AB82DE9F047DFF8B0903C
:10456000284ED9F80040DFF8AC80274FB4FA84F425
:1045700082B064090025B5B93378DFF888A07BB92B
:1045800001A8FFF7DFFF052834D020B3FAF7EEFFCC
:104590006CB13378DFF86CA001240025002BEFD03C
:1045A00002B0BDE8F087002CFAD1DFF858A09AF8E5
:1045B0000030002BF4D102A93A68B8F8003021F895
:1045C000043D1046FFF7C4FF052817D068B1FAF77D
:1045D000CDFF0024CFE70198FBF7A2FD0B4B1B6832
:1045E000002BD5D001989847D2E71046D9F8003073
:1045F0009847EEE7002CD3D10125D8E7002DC8D08D
:10460000CEE700BF203A0020243A0020283A0020BC
:104610002C3A0020223A0020014B1878704700BF46
:10462000213A002011B111F0030F01D0072070478B
:10463000F8B51A4F1A4E1B4D1B4C396032802B6057
:104640002368DB0708D50123C4F880301749FFF73A
:104650007BFF30B12360F8BD1449FFF775FF00B14F
:10466000F8BD134B01221A70FBF76AFD0E4A92F84F
:1046700016335B09012B08D9042B06D00D4B986823
:1046800030B94FF480031360F8BD42F20200F8BD68
:104690001A6842F480021A600020F8BD243A002013
:1046A000223A0020303A002000E100E055450200A7
:1046B000213A0020343A0020034618B1024A002073
:1046C000136070470E2070472C3A002008B5094B44
:1046D0001B6833B1984700B908BDBDE80840FAF738
:1046E00045BF054B1B78002BF6D0BDE80840FFF70F
:1046F00033BF00BF303A0020213A002082B0034B84
:104700000193019B0360002002B07047E02F00205E
:1047100000B583B002AB026843F8042D1846FFF7DA
:1047200015FF03B05DF804FB10B501390244904257
:1047300007D010F8013B11F8014FA342F7D0181B26
:1047400010BD002010BD10B5431E0A44914204D094
:1047500011F8014B03F8014FF8E710BD034613F8B9
:10476000012B002AFBD1181A01387047F8B500BF99
:10477000F8BC08BC9E467047F8B500BFF8BC08BC42
:104780009E467047E02F0020943000201112131431
:10479000BB4AFF4FAD03415DA96C9D6CDDDA83041C
:1047A000BB4AFF4FAD03415DA96C9D6CDDDA83040C
:1047B0000000074100000000004002402400040007
:1047C000010000070000A000500000004E6F72645E
:1047D00069635F4154545F4D545500004E6F7264DD
:1047E00069635F4154545F4D5455000044370020C5
:0447F00000000000C5
:0847F40068AAFF7F010000002C
:1047FC0000000000000000000000000000000000AD
:10480C00000000000000000000000000000000009C
:10481C00000000000000000000000000000000008C
:10482C00000000000000000000000000000000007C
:10483C00000000000000000000000000000000006C
:10484C00000000000000000000000000000000005C
:10485C000F0003007D150200100003007D150200FF
:10486C000600900100009001FFFF00000090D003B3
:0C487C0025F2010001F201000000000024
:04000003200041C1D7
:00000001FF
