:020000021000EC
:10F000000000012001310200293102002B310200F1
:10F010002D3102002F3102003131020000000000CA
:10F02000000000000000000000000000333102007A
:10F030003531020000000000373102003931020092
:10F04000D90A02003B310200D11802003B31020014
:10F050003B3102003B310200850F02003B310200D0
:10F060003B3102003B3102003B3102003B310200E8
:10F070003B3102003B3102003B3102003B310200D8
:10F080003B3102001DFF01003B3102003B31020019
:10F09000BDFF01003B3102006D3802003B31020030
:10F0A0003B3102003B3102003B3102003B310200A8
:10F0B0003B3102003B310200000000000000000074
:10F0C0003B3102003B3102003B3102003B31020088
:10F0D0003B3102003B3102003B31020000000000E6
:10F0E0000000000000000000000000000000000020
:10F0F0000000000000000000000000000000000010
:10F1000000000000000000000000000000000000FF
:10F1100000000000000000000000000000000000EF
:10F1200000000000000000000000000000000000DF
:10F1300000000000000000000000000000000000CF
:10F1400000000000000000000000000000000000BF
:10F1500000000000000000000000000000000000AF
:10F16000000000000000000000000000000000009F
:10F17000000000000000000000000000000000008F
:10F18000000000000000000000000000000000007F
:10F19000000000000000000000000000000000006F
:10F1A000000000000000000000000000000000005F
:10F1B000000000000000000000000000000000004F
:10F1C000000000000000000000000000000000003F
:10F1D000000000000000000000000000000000002F
:10F1E000000000000000000000000000000000001F
:10F1F000000000000000000000000000000000000F
:10F2000010B5054C237833B9044B13B10448AFF360
:10F2100000800123237010BDE037002000000000B3
:10F22000C04C0200084B10B51BB108490848AFF3A9
:10F2300000800848036803B910BD074B002BFBD0C2
:10F24000BDE81040184700BF00000000E437002070
:10F25000C04C0200DC37002000000000154B002BE2
:10F2600008BF134B9D46A3F5803A00218B460F46FD
:10F270001348144A121A00F065F80F4B002B00D007
:10F2800098470E4B002B00D0984700200021040027
:10F290000D000D48002802D00C48AFF3008000F0AC
:10F2A0002BF82000290002F0B7FD00F011F800BF94
:10F2B0000000080000000120000000000000000025
:10F2C000E0370020C04000200000000000000000E7
:10F2D00008B5074B044613B10021AFF30080054B7E
:10F2E0001868836A03B19847204600F033F800BFDE
:10F2F00000000000D842020070B50E4B0E4CE41A1C
:10F30000A41000251E46A54204D056F82530984783
:10F310000135F8E704F0D4FF084C094BE41AA410B7
:10F3200000251E46A54204D056F8253098470135E1
:10F33000F8E770BDD4370020D4370020D83700203C
:10F34000D437002002440346934202D003F8011B45
:10F35000FAE77047FEE700BF0378012B04BF014ABC
:10F3600013707047FC3800202DE9F04FC7B01C46E1
:10F370009248002914BF0A23002316460D46009325
:10F3800002F09AFA002840F0E480002C00F0E580BA
:10F3900006AB83460193519B539A9E1820250296F3
:10F3A00058460099019A0B46034404933133D3180D
:10F3B0000393171800295FD07B4203F003038B42AD
:10F3C00028BF0B46062900F2EB800B46019A012B61
:10F3D000155407F1010200F0E180022B7D7007F166
:10F3E000020200F0DB80032BBD7007F1030200F086
:10F3F000D580042BFD7007F1040200F0CF80062BAE
:10F400003D7107F1050240F0D1807D71BA1D9E4625
:10F41000009999422ED0009EC3EB060AAAF104017E
:10F4200006F1FF3B8908C3EB0B0B0131BBF1020F67
:10F430004FEA810C12D90344019E4FF0203001297C
:10F4400006EB030BF05005D00229CBF8040001D0E5
:10F45000CBF80800D4456244E6440BD00098157000
:10F460000EF10103834205D20EF1020E7045557074
:10F4700000D99570009B1F44039B059707F1330942
:10F4800007F1030A264603F101084C46029FDDF806
:10F4900044910DE00AF8035C0AF8025C0AF8015C8A
:10F4A0000AF1030AA24508F8015C08F101082FD00F
:10F4B000BE42EFD24E456BD2509B13F806B00AF80D
:10F4C000015C4FEA2B105FFA80FE09280BF00F0059
:10F4D000D4BF0EF1300E0EF1370E092894BF303034
:10F4E00037300AF803EC0AF8020C04F029FA584401
:10F4F0000AF1030A407810F0970F08BF4FF02E0B67
:10F50000A24508F801BC06F1010608F10108CFD1B7
:10F51000049B03980297059F019903F1430A0D226A
:10F520000A23027443745246254887F8305004F089
:10F5300023FA5FFA8AF222492048344602F010F991
:10F5400038B91E4802F0B8F918B9029B9C42FFF482
:10F5500028AF204647B0BDE8F08F55B306A82B680A
:10F56000184A01904FF4807104F012FA0028F0DB81
:10F570000546304604F03EFA019BC22828BFC2204F
:10F58000834602463146581904F0F6F9AB4402E7C7
:10F59000C9EB0600529B13F800B090E79E4637E790
:10F5A000002B7FF413AF3A469E4634E74FF0050E2A
:10F5B0002EE706AB25460193DBE700BF543600205B
:10F5C000FC370020FC4202002DE9F0416B48C6B038
:10F5D0000C4616461D4602F06FF9A8B9C4B106AF35
:10F5E0002368674A38464FF4807104F0D1F9002847
:10F5F0000ADB4C9B8046062B00F2BD80DFE803F05F
:10F60000146670327C405200002046B0BDE8F081A4
:10F610004C9B062B00F2AC80DFE803F0049C969034
:10F62000847E8A004FF00008304604F0E3F900EBD6
:10F630000803FF2B044640F29380002CE4DB08EB28
:10F640000402B2F5807FDFD8D4B206A94D4804F099
:10F6500093F922464B49494802F082F8B0FA80F00B
:10F660004009D2E7C0F58071AA686C682B680192E6
:10F670000094324607EB080004F08AF90446DCE700
:10F68000C0F580712869EA682B680390AC686D68E2
:10F69000009502920194324607EB080004F078F9D5
:10F6A0000446CAE7C0F580716A6928692B6804922C
:10F6B000EA680390AC686D68009502920194324646
:10F6C00007EB080004F064F90446B6E7C0F5807162
:10F6D0002B68324607EB080004F05AF90446ACE701
:10F6E000C0F580716A682B68009207EB080032460B
:10F6F00004F04EF90446A0E7C0F58071EA68AC68F2
:10F700002B686D68009502920194324607EB080061
:10F7100004F03EF9044690E74FF480714FF0000882
:10F7200006AFAFE74FF480714FF0000806AFE5E792
:10F730004FF480714FF0000806AFB5E74FF48071C9
:10F740004FF0000806AF8FE74FF480714FF00008CC
:10F7500006AFC7E74FF480714FF0000806AFB7E778
:10F7600006AB314603EB0800224604F005F964E7D6
:10F770000024224669E7002461E700BF54360020D8
:10F78000FC420200FC370020F0B51A4F3B7889B0EC
:10F790001BB1194B1B78834229D0184D06460FCD5B
:10F7A0006C460FC495E80F004FF0000E84E80F0080
:10F7B0000625052107224FF0EB7311480391082419
:10F7C00002928DF814E000950194069301F042FF37
:10F7D000002E0C4A0A4818BF0022694601F04CFE70
:10F7E00018B9054A012316703B7009B0F0BD00201E
:10F7F00009B0F0BDFE380020FD380020DC420200D8
:10F800005436002059F3010000487047C9F5010043
:10F810000048704769F3010038B50020FFF7B4FFD6
:10F82000044668B9FFF7F0FF0546FFF7F1FF054B07
:10F83000FF22C3F810541C605C60C3F814049A6083
:10F84000204638BD003900200120FFF79DBF00BFD2
:10F850002DE9F04383B002AB4FF0000803F8018DAF
:10F86000254C064618460D46A76801F033F8A268F5
:10F870006368D4F8009013440133C9EB0303012BF0
:10F8800007D80BBB9DF8070001F04CF803B0BDE8AA
:10F89000F08309F101039DF80700236001F042F8AD
:10F8A0000122002362F3010368F3820307EA0907D8
:10F8B00066F3C50304EB870468F3891365F39F239C
:10F8C000E36003B0BDE8F0830121434661F3010327
:10F8D00068F38203052161F3C50309EA02020749BF
:10F8E00004EB820268F3891309F1010761F39F2396
:10F8F0002760D360C6E700BF003900200443020040
:10F900002DE9F04782B002AB002603F8016D294CC7
:10F910008146184617468846A56800F0DBFFA268B6
:10F920006368D4F800A013440133CAEB0303022B2D
:10F9300007D843BB9DF8070000F0F4FF02B0BDE814
:10F94000F0870AF102039DF80700236000F0EAFF48
:10F950000122002362F301030AEB020166F3820332
:10F9600069F3C50305EA0A0A0D4004EB8A0A62F34B
:10F97000891304EB850468F39F23CAF80C30E76011
:10F9800002B0BDE8F0870121334661F3010366F35D
:10F990008203052161F3C5030AEA0202064804EB6B
:10F9A000820266F389130AF1010160F39F2321604B
:10F9B000D360BFE700390020044302002DE9F04F77
:10F9C00083B002AD002605F8016D2D4C8246284615
:10F9D00090461F468946A56800F07CFFA2686368D0
:10F9E000D4F800B013440133CBEB0303032B07D847
:10F9F0007BBB9DF8070000F095FF03B0BDE8F08FDA
:10FA00000BF103039DF80700236000F08BFF012238
:10FA1000002362F301030BF1020066F382035A44F0
:10FA20006AF3C503022105EA0B0B2A40054004EBEB
:10FA30008B0B04EB820261F3891304EB850469F3F9
:10FA40009F23CBF80C30C2F80C80E76003B0BDE810
:10FA5000F08F0121334661F3010366F38203052130
:10FA600061F3C5030BEA0202064804EB820266F367
:10FA700089130BF1010160F39F232160D360B8E784
:10FA800000390020044302002DE9F04F83B002AF9B
:10FA9000002607F8016D314C8246384690461F46D5
:10FAA000A568894600F016FFA2686368D4F800B024
:10FAB00013440133CBEB0303042B07D8BBBB9DF8E6
:10FAC000070000F02FFF03B0BDE8F08F0BF1040337
:10FAD0009DF80700236000F025FF0122002362F358
:10FAE000010366F382030BEB02010BF103060BF13A
:10FAF00002026AF3C503032005EA0B0B04EB8B0B30
:10FB000060F3891369F39F2329402A403540CBF8DD
:10FB10000C3004EB810104EB82020C9BC1F80C80D9
:10FB200004EB8504D760E36003B0BDE8F08F0121EA
:10FB3000334661F3010366F38203052161F3C503D4
:10FB40000BEA0202064804EB820266F389130BF10A
:10FB5000010160F39F232160D360B0E700390020EA
:10FB6000044302002DE9F0474C4E96E80C009A42FF
:10FB70008AB070D0B06804E0C4F3891202EB9452EA
:10FB8000134400EA0305023506EB8502013354688D
:10FB900014F00302F0D0022A28D0C4F38312C4F375
:10FBA000952C002A75D00DF1100E7546D71800EA75
:10FBB000030106EB81010133C96845F8041BBB4210
:10FBC000F5D10092C4F3C20073466246D6F81044E1
:10FBD000324D0021A04738B177603068C01B18BF94
:10FBE00001200AB0BDE8F0876F68F6E703F1010A6B
:10FBF00020EA0A010340013106EB830389004FEA42
:10FC000094588845DA68DFF894E0C4F3891326D95C
:10FC1000A9B300EA0A0C5FFA81F90EEB8C0CC9EB70
:10FC200008010CF10C0C0EF10C00C9B2039102900A
:10FC3000CDF80490CDF800C00021C4F3C200D6F87E
:10FC40001474B847404520D006EB850560F38F1447
:10FC50006C607768C1E700200AB0BDE8F08700EA71
:10FC60000A000EEB80000C308DE801010021DEF867
:10FC7000149403910291C4F3C200C847E2E70EF165
:10FC80000C0C08465FFA88F9D0E703300AEB9007BE
:10FC9000A2E71F460DF1100E93E700BF00390020C8
:10FCA0002DE9F84F244B1A788AB3DFF890B0DFF8CB
:10FCB0009090DFF890A00024012703E00134E4B223
:10FCC000944224D226B2D9F80050DBF8003015F85F
:10FCD000360007FA00FE1EEA030F05EBC608EDD05A
:10FCE000164A23EA0E03136001F042F915F8365064
:10FCF000DAF8003007FA05F6334000FA05F6B342A9
:10FD000007D00D4B01341A78E4B29442DAD3BDE83F
:10FD1000F88FD8F80430002BF3D098F80110A1F137
:10FD20000101B1FA81F14909091AB1FA81F14909D0
:10FD300028469847E5E700BF203D0020483D0020C9
:10FD40001C3D0020443D002070B50646114800F0DF
:10FD500085FD40B9104D01242B68B4401C4203D0EE
:10FD600023EA04042C6070BD304601F001F90B4A0F
:10FD7000136860B123432E680949136034432C6033
:10FD8000044809680022BDE8704000F011BD23EA74
:10FD90000403F0E7243D0020483D0020443D0020BE
:10FDA000183D0020042A01D8072070472DE9F041B2
:10FDB00082B088460546174600F076FF002834D00A
:10FDC0001C4C1D481D491E4A1E4B2560002608F18B
:10FDD000FF340F6080F8008016601E60E4B20327D5
:10FDE000B8F1000F03D11AE0DBB2C4B11C4623B254
:10FDF00005EBC30215F833009378134A8DF80530EC
:10FE000001A98DF804708DF806608DF8076000F088
:10FE100055FF631E0028E7D002B0BDE8F0810B4A11
:10FE20000B48002100F0B2FCF6E700F0FBFE0028D2
:10FE3000C6D0F1E71C3D0020203D0020183D0020E9
:10FE4000443D0020483D002049FD0100A1FC010087
:10FE50001043020070B5084D2B785BB1074E0024AB
:10FE60003368012113F8340000F0F0FF2B780134DF
:10FE7000A342F5D8002070BD203D00201C3D00208D
:10FE800070B5094D2B7853B1084E0024336813F830
:10FE9000340001F03DF82B780134A342F6D8044831
:10FEA000BDE8704000F0DABC203D00201C3D002081
:10FEB000243D002000B585B000230390194601AA17
:10FEC00044F20100ADF80430029300F003F805B0ED
:10FED0005DF804FB08B50D490120FFF7B9FCFFF7F9
:10FEE000B3FCFFF73FFE0028FBD109490320FFF7D1
:10FEF000AFFCBFF34F8F0749074BCA6802F4E062BB
:10FF00001343CB60BFF34F8F00BFFDE714430200E4
:10FF10002443020000ED00E00400FA05F8B5204A91
:10FF2000204B0025C2F84051C2F84451C2F8485154
:10FF3000C2F84C51C2F80051C2F804511B6813B307
:10FF40001949D2F804250C68141B1A6824F07F4460
:10FF5000A2422F4609D8197CDE69A41A154499B922
:10FF60001EB133461A68A242F5D9104B10491A78CF
:10FF70000B789A420DD00F490F4A41F823504FF4A5
:10FF80008013C2F80031F8BD1F745A699869904710
:10FF9000E6E7531CDBB2022B08BF00230B70EAE735
:10FFA00000100140503D00204C3D0020543D0020F9
:10FFB000553D0020643E002000E100E02DE9F04FB7
:10FFC000884A89491378097899428BB037D0013330
:10FFD000DBB2022B08BF002384491370844A0E68E9
:10FFE000029152F82300834905910B680299321857
:10FFF000002522F07F420A602C462946AE46ABB16E
:020000022000DC
:100000001A68824200F2E681DD68C3F800E0801AD7
:100010001444DA6935B1371927F07F47D9619D60FB
:100020005F60194613460125002BE9D1002D40F0F1
:10003000DC820023069301230893069A08E06D4BA7
:1000400005931B68694A02920021069308911A469B
:10005000694BDFF8AC811B780393059B1B681C463A
:10006000029B1F680023BA460F460993C3460793B5
:10007000994618464FF0010E0193A4463FB37D68A0
:10008000BE683946FF695D4BCAEB050424F07F4426
:100090009C423CD8A3190B604860886081F810E04E
:1000A000C861002A68D015689D4249D2164603E00F
:1000B00025689D4234D22646F4695B1B002CF7D19B
:1000C000CC610B601446F1612246002FD7D198F81D
:1000D000003098F80110994200F09480591C03EB0D
:1000E00043039BF8024008EBC303C9B28C421C795E
:1000F0008BF8001008BF8BF80070022C99684ED066
:10010000032C3FD0012C24D014462246DDE7C5EB5A
:100110000A0525F07F45B54209D2731B0B60BBE78A
:10012000ED1A2560CC610B601446F161CCE70860E4
:100130004860886081F810E0C861EAB11568002362
:10014000EB1A0C4613608C46CA614FF00109224637
:10015000BBE70C7C0494002CD6D1DD684D601E6991
:100160008E605C69CC609B698B61039B002B8AD09D
:10017000049B4B601D4686E70C468C464FF00109F8
:100180002246A2E70AB9BFE71A46D3691074002BCA
:10019000FAD11C469C464FF00109224695E752B120
:1001A000914200F00B81134602E0B14207D0334682
:1001B000DE69002EF9D114460874224685E799427B
:1001C00000F0FE801446F5693668DD6115B12B68D4
:1001D00033442B60019B0874A24218BF0123019392
:1001E000EBE700BF543D0020553D00204C3D002072
:1001F000643E0020503D0020563D0020FEFF7F0061
:10020000583D00205746DDF804A0B9F1000F40F03A
:100210004981079B002B40F0E581099B002B40F0B2
:10022000DC81BAF1000F03D1069B9A4200F03F81B6
:10023000002A00F041816C49029BD1F804051B683B
:100240006A4C17682578C21A22F07F420332002DCB
:1002500051D1674DDFF89CC1DFF89CE14FF4803647
:10026000C1F84463C1F804634FF40036C5F88061F7
:100270002E6001250D60DCF800602F2100BF00BF5B
:1002800000BF00BF00BF00BF00BF00BF76452FD03A
:1002900000BF00BF00BF00BF00BF00BF00BF00BF66
:1002A00000BF00BF00BF00BF00BF00BF00BF00BF56
:1002B00000BF00BF00BF00BF00BF00BF00BF00BF46
:1002C00000BF00BF00BF00BF00BF00BF00BF00BF36
:1002D00000BF00BF00BF00BF00BF00BF00BF00BF26
:1002E00000BF00BF00BF00BF00BF00BF00BF00BF16
:1002F0000139C3D1257097422CBFDA199A183A49AF
:1003000022F07F43C1F84035D1F80425121A1B1A98
:1003100022F07F4223F07F4303329A4248D9D1F83A
:100320000435344AC1F84035126833492F2300BFE1
:1003300000BF00BF00BF00BF00BF00BF00BF8A42B8
:100340002FD000BF00BF00BF00BF00BF00BF00BF75
:1003500000BF00BF00BF00BF00BF00BF00BF00BFA5
:1003600000BF00BF00BF00BF00BF00BF00BF00BF95
:1003700000BF00BF00BF00BF00BF00BF00BF00BF85
:1003800000BF00BF00BF00BF00BF00BF00BF00BF75
:1003900000BF00BF00BF00BF00BF00BF00BF00BF65
:1003A00000BF013BC3D1124B4FF40032C3F8002110
:1003B000124A002313700BB0BDE8F08F16461346A7
:1003C000D2F81C90B9F1000F1AD0CC464C464FF031
:1003D0000109F8E6002D62D1121A1A600693012372
:1003E0000893069A34E600BF001001406C3E0020DE
:1003F00000E100E0643600200024F400563D0020B7
:100400007B4C7C4DC4F808E07B4C4FF02F0C2468EB
:1004100000BF00BF00BF00BF00BF00BF00BF00BFE4
:10042000AC422FD000BF00BF00BF00BF00BF00BF65
:1004300000BF00BF00BF00BF00BF00BF00BF00BFC4
:1004400000BF00BF00BF00BF00BF00BF00BF00BFB4
:1004500000BF00BF00BF00BF00BF00BF00BF00BFA4
:1004600000BF00BF00BF00BF00BF00BF00BF00BF94
:1004700000BF00BF00BF00BF00BF00BF00BF00BF84
:1004800000BF00BFBCF1010CC2D101242546099474
:10049000CC464C46CA4603950795A94693E6059C6B
:1004A000236099E7059B1946C1F800C0B1E6089B97
:1004B000002B3FF47DAFBBE64D49504B4E4E4D4CAB
:1004C0004FF480304FF400370125C3F88070C1F835
:1004D00048032F23C1F808034D6030681E4600BF53
:1004E00000BF00BF00BF00BF00BF00BF00BFA042F1
:1004F0002FD000BF00BF00BF00BF00BF00BF00BFC4
:1005000000BF00BF00BF00BF00BF00BF00BF00BFF3
:1005100000BF00BF00BF00BF00BF00BF00BF00BFE3
:1005200000BF00BF00BF00BF00BF00BF00BF00BFD3
:1005300000BF00BF00BF00BF00BF00BF00BF00BFC3
:1005400000BF00BF00BF00BF00BF00BF00BF00BFB3
:1005500000BF013EC3D18D6002990A6000BF00BF99
:1005600000BF00BF00BF00BF00BF00BFA0422FD030
:1005700000BF00BF00BF00BF00BF00BF00BF00BF83
:1005800000BF00BF00BF00BF00BF00BF00BF00BF73
:1005900000BF00BF00BF00BF00BF00BF00BF00BF63
:1005A00000BF00BF00BF00BF00BF00BF00BF00BF53
:1005B00000BF00BF00BF00BF00BF00BF00BF00BF43
:1005C00000BF00BF00BF00BF00BF00BF00BF00BF33
:1005D000013BC3D10A4B1A70EAE60A4B9DF80C1096
:1005E00019701EE6029B1F6017E6059A136020E54E
:1005F000001001400024F4006436002000E100E017
:100600006C3E0020563D0020F0B4564B564A574EE3
:10061000574C4FF480304FF400310125C2F8801060
:10062000C3F848032F21C3F808035D6030680E4605
:1006300000BF00BF00BF00BF00BF00BF00BF00BFC2
:10064000A0422FD000BF00BF00BF00BF00BF00BF4F
:1006500000BF00BF00BF00BF00BF00BF00BF00BFA2
:1006600000BF00BF00BF00BF00BF00BF00BF00BF92
:1006700000BF00BF00BF00BF00BF00BF00BF00BF82
:1006800000BF00BF00BF00BF00BF00BF00BF00BF72
:1006900000BF00BF00BF00BF00BF00BF00BF00BF62
:1006A00000BF00BF013EC3D19D6000BF00BF00BFBF
:1006B00000BF00BF00BF00BF00BFA0422FD000BFDF
:1006C00000BF00BF00BF00BF00BF00BF00BF00BF32
:1006D00000BF00BF00BF00BF00BF00BF00BF00BF22
:1006E00000BF00BF00BF00BF00BF00BF00BF00BF12
:1006F00000BF00BF00BF00BF00BF00BF00BF00BF02
:1007000000BF00BF00BF00BF00BF00BF00BF00BFF1
:1007100000BF00BF00BF00BF00BF00BF00BF013966
:10072000C3D1144E144D154C1549164F002030708E
:10073000286020704FF48015E0240B260870487064
:100740008E7038701049C2F8805182F814431560D9
:10075000C3F8080582F81143D3F804350B60F0BCE8
:10076000704700BF0010014000E100E06436002047
:100770000024F4006C3E0020503D0020543D002039
:10078000583D0020553D00204C3D0020074B9B78F4
:100790000BB9082070473AB130B10368187C0028C3
:1007A000F7D159745A61704707207047583D0020AF
:1007B0002DE9F043264CA37883B01BB9082003B081
:1007C000BDE8F0830028F9D0042903D8072003B03E
:1007D000BDE8F0834369002BF0D0064602A8737C85
:1007E0000025012B00F8015D0CBF8946A946904603
:1007F0000F4600F06FF86378A07821785A1CD2B2C7
:10080000904208BF2A4691421BD003EB430304EBFE
:10081000C30301200F4918719E60D1F804159DF89B
:100820000700D9601F61C3F81490C3F81880627084
:1008300000F078F8084B4FF480122846C3F80021E6
:10084000BDE79DF8070000F06DF80420B7E700BF92
:10085000583D00200010014000E100E070B51B4C45
:10086000A37882B013B9082002B070BD0028FAD076
:100870004369002BF7D0064602A8002500F8015D69
:10088000357400F027F86278A0782178531CDBB229
:10089000984208BF2B46994212D002EB420204EB69
:1008A000C20202219DF8070096601171637000F08A
:1008B00039F8074B4FF480122846C3F80021D3E7DC
:1008C0009DF8070000F02EF80420CDE7583D0020E9
:1008D00000E100E0F0B4EFF3108472B60E4B9A68BA
:1008E000B2B90E4901259D60D1F880700C4D2E469D
:1008F0003D401D60C1F88060D1F884505D604FF0CC
:10090000FF33C1F88430027004B962B6F0BC70479E
:1009100001230370F8E700BFB040002000E100E0D1
:10092000FC06FFBD094B9A6872B168B910B4EFF3C9
:10093000108272B606491C680C605C684C60986056
:1009400002B962B65DF8044B704700BFB0400020AA
:1009500000E100E010B40023012401E0202B0AD0C4
:1009600004FA03F2024299B203F10103F6D00846F9
:100970005DF8044B70474FF6FF705DF8044B70470D
:1009800098B191B130B40238002402E00134202C37
:100990000AD030F8025F9542F8D13BB10A680123D2
:1009A00003FA04F414430C6030BC70470B68012256
:1009B00002FA04F423EA04030B60F5E770B49DF82F
:1009C0000C60C0B1B9B1B2B10238002402E0013408
:1009D000202C10D030F8025F9D42F8D1012303FA99
:1009E00004F401EB820246B9E4430B68234041F86A
:1009F000043B9142F9D170BC70470B68234341F826
:100A0000043B8A42F7D00B68234341F8043B8A42F7
:100A1000F3D1F0E7F0B491B100252B46012606FA98
:100A200003F4144205D000EB450431F81370A7809D
:100A300001350133202BF2D10560F0BC70470D4623
:100A40000560F0BC704700BF002310B419460124B4
:100A500004FA03F202400133002A18BF0131202BAF
:100A6000F6D108465DF8044B704700BF044B195C93
:100A70004FF0A04201238B40C2F80C35704700BFF5
:100A800040430200044B195C4FF0A04201238B400D
:100A9000C2F80835704700BF4043020030B44FF041
:100AA000A04303224FF400354FF480244FF400207C
:100AB0004FF48011C3F84427C3F84827C3F84C27E4
:100AC000C3F85027C3F80855C3F80845C3F808050C
:100AD000C3F8081530BC704710B51A4B1A6882B0BD
:100AE000A2B100221A601B6800934FF080430122DC
:100AF000154C0099C3F80823A368627033B10CCB7E
:100B00000020A2609847A368002BF8D10F4B1A6809
:100B1000AAB100221A601B6801934FF080430222A1
:100B2000094C0199C3F8082323690122A27033B14B
:100B30000CCB0120226198472369002BF8D102B029
:100B400010BD00BF00010040703E002004010040C5
:100B500058B910B5054CA36833B10CCB0020A26086
:100B60009847A368002BF8D110BD7047703E002055
:100B700010B582B002A80023144C00F8013DFFF725
:100B8000A9FE237893B9124A6360E3601068A360FA
:100B900010F00100236114D002F00EFE20B94FF0D6
:100BA00080430122C3F8182501232370E3689DF8D0
:100BB000070001330122E360A270FFF7B3FE02B029
:100BC00010BD072100F006F8E6E700BF703E0020E8
:100BD00000E100E0002810B418DB00F1604303F5E9
:100BE00061434901C9B283F80013C3B240098000D0
:100BF00000F1604000F5614003F01F0201239340C3
:100C0000C0F8803103605DF8044B7047C3B2044AFA
:100C100003F00F0449012244C9B21176E6E700BF90
:100C2000FCEC00E030B51D4C94F8545083B015B185
:100C3000082003B030BD4FF0FF33FF22072106200C
:100C400023636363A363E36323646364A364E36470
:100C500023606360A360E36023616361A361E36178
:100C6000236284F850306362A36284F85230E362F6
:100C700084F8533084F85120FFF7ACFF084B094A41
:100C80001D601B68019301984FF000430121284625
:100C900084F85410C2F8043303B030BD843E002001
:100CA0007C61004000600040034B93F8540000302A
:100CB00018BF0120704700BF843E0020F0B5624C91
:100CC000251895F93030002B01DB0820F0BD91F894
:100CD00003E09446BEF1000F56D02368013300F0C4
:100CE000A380002508266B1C574F54F8232001329F
:100CF00051D0AB1C9E4245D957F8232001324AD02F
:100D0000EB1C9E423ED957F82320013243D02B1DC5
:100D10009E4237D957F8232001323CD06B1D9E42AA
:100D200030D957F82370013735D0AB1D9E4229D9F1
:100D300054F82320444F01322DD0EB1D9E4221D97F
:100D400057F82320013226D005F108039E4219D915
:100D500057F8232001321ED005F109039E4211D914
:100D600057F82320013216D005F10A039E4209D913
:100D700057F8237001370ED00B35AE4202D9E36A23
:100D8000013307D00420F0BD236A013353D0082576
:100D90000C26A8E70B2326185DB244F823C086F87A
:100DA0003050BEF1000F02D1234483F848008B7805
:100DB000A3B94A784FF0A04600F5E073920046F8D8
:100DC0002320CB78A3B9083D2C44097894F850200F
:100DD00042EA811284F850201846F0BD830003F1E6
:100DE000A043D3F8002722F00202C3F80027E8E767
:100DF000AB0003F1804303F5C0430A78D3F8101524
:100E000021F4473121F44071C3F810151204000297
:100E100002F44031D3F8104500F4F8520A4322435B
:100E2000C3F810250020F0BD002385F83030C4F849
:100E300000C01D46BBE7082685F830603346C4F87D
:100E400020C03546B0E700BF843E0020F0B42E4DF0
:100E50002E1882B096F93030072B1CDD2B4493F806
:100E600048309B09032B41D0012B14BF4FF4403372
:100E70004FF40033800000F1A040D0F8002722F4A6
:100E80004032C0F80027D0F800271343C0F80037DD
:100E900002B0F0BC7047DAB2072AF9D8980000F126
:100EA000804000F5C04003F140029200D0F81045A8
:100EB00092B202F18042002744F0010402F5C042E0
:100EC000C0F810450197019817600029E0D096F905
:100ED000302055F82220002ADAD001220B4902FAEC
:100EE00003F3C1F8043302B0F0BC70474FF0A043E5
:100EF000D3F81035C34013F0010F0CBF4FF400338B
:100F00004FF44033B6E700BF843E0020006000404D
:100F1000154B034493F93030072B17DCDAB2072A5C
:100F200013D810B49A0002F1804202F5C0420F4C6F
:100F3000D2F81005012120F0010001FA03F3C2F8F4
:100F40001005C4F808335DF8044B7047800000F1C9
:100F5000A040D0F8003723F44033C0F80037D0F871
:100F60000037C0F800377047843E00200060004022
:100F70004FF0A043D3F8103523FA00F000F0010041
:100F8000704700BF2DE9F04387B00026C94B01969A
:100F90001A68012A00F00482C74B1A68012A00F07F
:100FA000F181C64B1A68012A00F0DE81C44B1A6831
:100FB000012A00F0CB81C34B1A68012A00F0B881E6
:100FC000C14B1A68012A00F0A581C04B1A68012A9A
:100FD00000F09281BE4B1A68012A00F07F81BD4B60
:100FE0001A68012A00F0598116F0FF0F1AD0BA4F83
:100FF00001250024A30003F180432E4203F5C043E2
:101000004FEA45050BD0D3F8100557F82420D3F844
:101010001015C0F30420C1F3014102B1904701341F
:10102000082CE7D1002E02DB07B0BDE8F083AA4C04
:1010300000224FF0FF3327460292039301260DF161
:10104000080894F950104D1C2DD0C9B221F0C000F1
:1010500006AB4FEAD00E03EB0E0201F0070312F8C5
:101060000CCC06FA03F31CEA030F1CD03D188909C7
:1010700095F9305057F82590B9F1000F00F0E8804D
:10108000032900F0E8804FEA800E0EF1A04E12F81E
:10109000145CDEF800271D40C2F3014240F0B58029
:1010A000032A00F0A281002594F95110481C2FD08A
:1010B000C9B221F0C00006AB4FEAD00E03EB0E021E
:1010C00001F0070312F80CCC06FA03F31CEA030F35
:1010D0001ED007EB000C89099CF930C057F82C9002
:1010E000B9F1000F00F0C680032900F0C6804FEA76
:1010F000800E0EF1A04E12F814CCDEF800271CEA88
:10110000030FC2F3014240F08D80032A00F0928168
:1011100094F952104A1C2ED0C9B221F0C00006AB7F
:101120004FEAD00E03EB0E0201F0070312F80CCCCD
:1011300006FA03F31CEA030F1DD007EB000C890924
:101140009CF930C057F82C90B9F1000F00F089805D
:10115000032900F088804FEA800E0EF1A04E12F8AD
:1011600014CCDEF800271CEA030FC2F3014265D15C
:10117000032A00F04C8194F953104B1C2CD0C9B2B7
:1011800021F0C00006AB4FEAD00E03EB0E0201F0D7
:10119000070312F80CCC06FA03F31CEA030F1BD06A
:1011A00007EB000C89099CF930C057F82C90B9F175
:1011B000000F69D0032969D04FEA800E0EF1A04ECE
:1011C00012F814CCDEF800271CEA030FC2F3014228
:1011D00011D1032A00F0F080002D3FF425AF4FF02D
:1011E000A043019AD3F8103593423FF41DAF029A01
:1011F0000193039225E7022AEED1032900F02D8105
:10120000B9F1000FE8D0C847E6E7022A7FF44BAFF8
:10121000032900F02B810025B9F1000F3FF444AF02
:10122000C84741E7022A7FF473AF032900F0188111
:10123000B9F1000F3FF46CAFC84769E7022A9AD1B1
:10124000032900F01081B9F1000F94D0C84792E74C
:1012500003297FF428AF18F80E501D4308F80E50EC
:1012600011E7032987D118F80EC04CEA030C08F8DF
:101270000EC070E703297FF44BAF18F80EC04CEA9C
:10128000030C08F80EC032E70329A5D118F80EC0E8
:101290004CEA030C08F80EC08EE700221A601B68A7
:1012A00005934FF0A043059AD3F81035019346F00B
:1012B000004699E60061004004610040086100407A
:1012C0000C61004010610040146100401861004052
:1012D0001C6100407C610040843E0020654AD2F8D9
:1012E000042317067FF57BAE00221A601B68049367
:1012F000049B46F0800672E65E4AD2F8042352064A
:101300007FF568AE00221A601B680493049B46F0C8
:1013100040065FE6574AD2F8042391067FF555AEA2
:1013200000221A601B680493049B46F020064CE6DA
:10133000504AD2F80423D0067FF542AE00221A604C
:101340001B680493049B46F0100639E6494AD2F81C
:10135000042314077FF52FAE00221A601B68049344
:10136000049B46F0080626E6424AD2F804235507B5
:101370007FF51CAE00221A601B680493049B46F0A4
:10138000040613E63B4AD2F8042397077FF509AE1B
:1013900000221A601B680493049B46F0020600E6D4
:1013A0003449D1F8041311F001011CD01E601B68F0
:1013B0000493049B1646EFE503297FF421AF4FF415
:1013C0000033DEF8002722F44032CEF80027DEF8A2
:1013D000002701351343EDB2CEF80037B9F1000F05
:1013E0007FF411AFFBE60E46D6E503297FF414AF78
:1013F0004FF40033DEF8002722F44032CEF8002705
:10140000DEF800271343CEF80037012504E703294F
:101410007FF419AF4FF40033DEF8002722F4403296
:10142000CEF80027DEF8002701351343EDB2CEF8E1
:10143000003708E703297FF4FBAE4FF40033DEF8F2
:10144000002722F44032CEF80027DEF800270135CD
:101450001343EDB2CEF80037EAE64FF44033B0E77D
:101460004FF44033EBE74FF44033D5E74FF44033CC
:10147000C0E700BF00600040F0B50479724E64011F
:10148000331987B0DD7E15B1082007B0F0BD4D7F60
:101490001D770D686B1C0BD04FF0A0470123AB40AC
:1014A000C7F808350B6803F5E073032547F82350A8
:1014B0004B685F1C06D003F5E0734FF0A045002792
:1014C00045F82370037906EB43131B7F002B4DD0A7
:1014D00003688D69C3F824554F7D0B7D05683B4338
:1014E000C5F86C3503680F684D68C3F80C75C3F810
:1014F00014550B7D012B00F09B80331905465A6073
:101500000B6951483351EAB12B79097F2A6800EB06
:101510004310037F002B65D1C2F81C31D2F81C7137
:101520002A680097009FC2F84431D2F844212B6802
:1015300046480192019AC3F80403286840F3073033
:10154000FFF748FB2B792A6806EB43131B7F002B20
:1015500044D00823C2F80035344400200123E37648
:10156000E0752076A075A07607B0F0BD05688F699C
:10157000C5F8247591F815E00D7D07684EEA05055C
:10158000C7F86C550568D1F800E04F68C5F81475C8
:10159000C5F80CE50D7D012DAFD18D686F1C05D010
:1015A00005F5E0754FF0A04747F82530CB685D1C86
:1015B0000DD001254FF0A04705FA03F3C7F8083511
:1015C000CB6803F5E073032547F82350CB68056823
:1015D0008F68C5F80835C5F810758EE70423C2F882
:1015E0000035B9E70023C2F81031D2F810712A682B
:1015F0000297029FC2F82031D2F820712A6803971F
:10160000039FC2F82431D2F824712A680497049FFA
:10161000C2F84431D2F844212B6805920C48059A4F
:10162000C3F80403286840F30730FFF7D3FA89E7CB
:101630008B685D1CBAD003F5E0734FF0A04500271E
:1016400045F82370B2E700BFDC3E002080000200B6
:1016500010030200F0B503793D4A04685B01D1181C
:10166000097F00296DD00021C4F80015D118384C2D
:101670004968B1B1017904EB4114217F002963D19C
:101680000168344CC1F808430168334E090B4CB271
:101690006409203401F01F01012505FA01F146F823
:1016A00024100179076802EB4111D7F80C65097F16
:1016B000D7F814554FF0FF3EA9B3D7F80815D7F85F
:1016C0001045C7F80CE5C7F814E50068C0F808E550
:1016D000C0F810E5771C06D006F5E0764FF0A04084
:1016E000022740F826706E1C06D005F5E0754FF015
:1016F000A040022640F82560651C06D004F5E07481
:101700004FF0A040022540F82450481C06D001F5B7
:10171000E0714FF0A040022440F821401344002221
:10172000DA765A60F0BDD7F80815D7F81045C7F833
:1017300014E5C7F80CE50068C0F808E5C0F810E546
:10174000C8E7C4F8001591E70168044C9AE700BFA8
:10175000DC3E00208402020000E100E010030200F1
:10176000F0B50379534C5B01E51887B02D7F3DB18F
:1017700001F06045B5F1005F02D0102007B0F0BD68
:1017800023444C4F9E7D16B1112007B0F0BD9A75D1
:1017900099609E8205796D017A19137F13BB0168E8
:1017A000C1F81C31D1F81C61016804960126049F20
:1017B0008E600168D2F808E0C1F81C31D1F81C3104
:1017C0000593059B968A938A5768B6B201331EF833
:1017D00006609BB29382C1F81C65002F2FD00020B9
:1017E00007B0F0BD03689168C3F82061D3F8207199
:1017F00003680197019FC3F85861D3F858610368E3
:101800000296967D029FC3F84415C3F848650368A5
:10181000012199605368002BE1D1036801E00029A0
:1018200045D1D3F82021D3F85811002AF7D0002948
:1018300014BF0F2000202C440023A3759EE7967D43
:10184000938A9BB29E4202F1140122D9016804E0FE
:10185000938A9BB2B3F5807F03D0D1F81C31002B63
:10186000F6D0938A9BB2B3F5807FE9D0C1F81C71A2
:10187000D1F81C310393039BB2F814C0938A1FFA6A
:101880008CFC01331EF80CC09BB29382C1F81CC5BE
:10189000D6E70B889BB2B3F5807F08D00268D2F8F8
:1018A0001C31002BFBD00123D3600020C3E70F20A5
:1018B000C1E700BFDC3E00200279044B03EB42137A
:1018C000987D003018BF0120704700BFDC3E00202B
:1018D00070B59B4C237F8EB0002B75D1994AD2F8FE
:1018E0000413890548D4974BD3F80423520704D531
:1018F000D3F80821002A40F0CA80924BD3F81C216B
:10190000C2B1A28AA07D8E4992B282424FF00002FB
:10191000C3F81C2180F0A980D3F81C210692069AF6
:10192000888A8A8A8D6880B20132285C92B28A8263
:10193000C3F81C05834BD3F84421DAB10022C3F865
:101940004421D3F84411A27E04910499002A40F066
:101950008980E27D7A4B6AB10022587ED968DA75B7
:1019600001228DF830000B918DF828200AA893E809
:10197000060090470EB070BDD2F824110029B2D0F5
:10198000C2F82431D2F82411A37E07914FF40171DB
:101990000798C2F808130BB901235360694A022360
:1019A0008DF82830D2F88034C2F88034E07DE268C7
:1019B0000D9300238DF83000E375237621680B9298
:1019C00063680AA8984798E75E4BD3F82421002A59
:1019D00040F09380D3F8101161B1C3F81021D3F80F
:1019E000101103910399D3F83C15E07DC9B28842E8
:1019F00000F0AA80534BD3F84421B2B10022C3F8BF
:101A00004421D3F84411E07D019101994C4960B122
:101A1000D3F83C35C8688DF830300123CA750B9077
:101A20008DF828300AA80AC99847464BD3F82021D8
:101A3000002A9FD00022C3F82021D3F82011A07DD6
:101A4000009100993E49002894D0D3F84C058B684A
:101A50008DF830008A750B938DF828200AC90AA8E2
:101A6000984787E701221A6073E7D3F81C31059382
:101A7000059B00283FF45EAF8B688DF830008A75B7
:101A80000B938DF828200AC90AA8984752E7E17DF0
:101A90002B4A002970D00021C3F80811D3F808118F
:101AA00008910899D068517ED3F818354354537E75
:101AB000D17D0133DBB25376627E214B8A427FF4C3
:101AC0001CAF1A7E002A6DD19B7E13B91D4B0122DB
:101AD0005A601C4AE06863684FF40171C2F8081349
:101AE000627E8DF83020002501220B902168E5757B
:101AF0008DF828200AA89847FFE60022C3F8242181
:101B0000D3F82411029102218DF828100299D3F8FC
:101B10008014C3F880140D91D3F83C15E368E27586
:101B200022768DF830100B93216863680AA89847D5
:101B3000044BD3F84421002A3FF477AF5EE700BF9F
:101B4000DC3E002000200040217EF1B1D3F800628D
:101B5000E17526F02001E568C3F8001226698DF8CA
:101B6000300001238DF82830227621680B95E6603D
:101B700063680AA898473DE7C3F80811D3F808211D
:101B80000992099AD3F8183596E7E268E1750123BE
:101B90008DF830008DF828300B9294E80A000AA8DE
:101BA000984727E7DE685D7E1869DA750121002213
:101BB000D8601A765A768DF828100B968DF830502A
:101BC00093E806000AA8904797E600BF73DF7047C6
:101BD00076DF70477ADF70477CDF70477FDF7047C2
:101BE000A8DF7047A9DF704769DF704766DF70477D
:101BF0003EDF7047FEF75EB90D2831D12DE9F04187
:101C000092B001A80E4601F0AFF8019F0FB3002477
:101C100043F2020812AB03EB4403324633F8405C54
:101C20001049284601F03EFD30F008020DD0404535
:101C300043F2014209D0904207D0FEF73BF92B4610
:101C4000324609490420FDF7B9FE0134E4B2BC4232
:101C5000E0D30649032012B0BDE8F041FDF7F8BD1E
:101C6000FEF728B9FC3E00208843020048430200EA
:101C700010B50446022042B9FEF704FF2246074988
:101C80000320BDE81040FDF73BBEFEF7EFFE224605
:101C900003490320BDE81040FDF732BEF4430200C3
:101CA000C843020030B5044685B000F0C5FF238864
:101CB000132B00F0908012D9512B74D053D9522B92
:101CC00048D0562B11D14E490420FDF7C1FD1321F8
:101CD000A088FFF77DFF40B1FEF7ECF805E0102B80
:101CE00045D0112B0ED0012B56D0204600F040FFDE
:101CF0002146444801F0CEFB2146434801F068F8F4
:101D000005B030BD01F026F8237AA2883F49054688
:101D10000320FDF753FE002D69D0032DE5D11022DD
:101D200000216846FDF70EFB002340226846194655
:101D30008DF8003001938DF80830ADF80C30ADF817
:101D40000A20FFF743FF08B1FEF7B4F80020FEF7C2
:101D50008DFECAE700231A461946A088FFF742FF06
:101D60000028C2D0B8E73B2BBFD12949ACE700F02F
:101D7000F1FFA288274905460320FDF7C1FDFEF7C4
:101D800069F8002830D10120FEF770FE042DC6D17D
:101D90000020FEF777FEA8E70021A088FFF726FFC6
:101DA0000028A2D098E7A279002A9ED0A37B043B0A
:101DB000022B9AD8022A0CBF022201224FF4C173CF
:101DC0006946A0888DF80020ADF80430FFF708FFC1
:101DD00000288AD080E700231A468521A088FFF7D3
:101DE000FDFE002881D077E7FEF764F8CBE70120FD
:101DF000FEF748FEFEF744F800283FF476AF6BE7A5
:101E0000B8440200FC3E0020643F0020544402001D
:101E1000944402002044020000B5A1B0FEF73EFE4B
:101E2000FEF7F2FB08B1FEF745F80020FDF7F4FCE1
:101E300008B1FEF73FF840F2666201217648FDF7EF
:101E4000B1FF08B1FEF736F8744B75491868019078
:101E500001AD28460023502201F0B4FC08B1FEF782
:101E600029F820AC002344F8783D204601F016FD07
:101E700008B1FEF71FF80C22002111A8FDF762FA45
:101E8000042000238DF8440011A9029A8DF84530F2
:101E900040208DF84630FFF7A7FE08B1FEF70AF89C
:101EA000204601F005FD08B1FEF704F85D4801F099
:101EB000D3FC08B1FDF7FEFF9DF808305A48012217
:101EC00062F3030362F307138DF8083001F092FD0B
:101ED000554982B22046FFF77FFE08B1FDF7EAFFC1
:101EE0000822002111A8FDF72DFA5026A02100227A
:101EF0004FF4C87311A8ADF84460ADF84610ADF8C2
:101F00004820ADF84A30FFF765FE08B1FDF7D2FF73
:101F10000021464800F040FF08B1FDF7CBFF434BDE
:101F200043491A880320FDF7EBFC424B42481193CA
:101F300011A901F0CFFA08B1FDF7BCFF00F074FE63
:101F40003D4A927C8DF8062041F223533C22002129
:101F50002046ADF80430FDF7F5F9022001260623EE
:101F600000218DF808003C2211A88DF80A608DF838
:101F70000B30FDF7E7F9204611A9ADF8546016952E
:101F800000F0C2FA08B1FDF795FF1C22002111A84C
:101F9000FDF7D8F94FF4202600234FF42035032411
:101FA0000121264A119311A8ADF8523012961395CB
:101FB0008DF850408DF85410179200F09FFD08B135
:101FC000FDF778FF1E490320FDF742FC1022002197
:101FD00011A8FDF7B7F90023402211A819468DF882
:101FE000443012938DF84C30ADF85030ADF84E209F
:101FF000FFF7ECFD08B1FDF75DFF0020FEF736FDB1
:10200000FDF7B0FD0028FBD1FFF7F2FD0028F7D067
:10201000FDF750FFF4E700BF5C36002044430200A8
:10202000143F0020A51C0200DC440200643F002095
:10203000E0440200711C0200FC3E0020F51B02007F
:10204000FC4402006DDF704772DF704779DF704734
:102050007DDF704764DF70472DE9F04F83B004885F
:102060000C9FBDF83490B7F800A0002C4CD09846D7
:10207000002316468B4605461C4603E02A88013499
:10208000A24224DD6A6852F82400019000220DF17A
:10209000030101A8FFF7DEFF10BB9DF80320B24249
:1020A000ECD103B33A8893194B4518DC42440DF147
:1020B000030101A80123FFF7CDFF88B93A889DF8F5
:1020C00003100A443A802A880134A242DADCDBB1E8
:1020D0003B88013BCAEB03039BB2FF2B12D90C20B8
:1020E00003B0BDE8F08F3B885A1C334402334B45A4
:1020F00092B2F4DC3A8008F802B03A88013292B227
:102100003A80D3E708F80A30002003B0BDE8F08F2A
:102110002DE9F04700231788138090F82D3084B004
:10212000144605460E46002B49D1AA78002A70D1E4
:10213000EA78002A2ED16A68A2B1D91CB94225D802
:10214000022192F90020F154238801339BB20A2125
:102150002380F154238801339BB22380F2542388D7
:10216000013323802B89002B40F02A812B8A002BFE
:1021700040F03F812B8B002B40F054812A6A002ACB
:1021800000F0A78021888B1DBB4262D90C2004B0CF
:10219000BDE8F087D91CB942F8D80221F154238850
:1021A00001339BB201212380F15423880B449BB25D
:1021B0002380F25423880B449BB22380BBE7082F73
:1021C000E4D902A8FFF73EFF0028E0D113880822D7
:1021D000CA54238801339BB21B222380CA5420880F
:1021E000013080B22080062208440DF1090101F07F
:1021F000C3FB23889DF8082006339BB212F0FE0231
:1022000018BF01222380F254238801339BB223801C
:102210008BE70433BB42B9D802A8FFF717FF0028A9
:10222000B5D12388BDF808200321F1542388013358
:102230009BB219212380F154238801339BB2F118FA
:102240002380F254120A4A70238802339BB22380FF
:102250006EE71388052B40F2AF806FF4486803EBFC
:10226000080080B24FF27D3E704540F2A580508854
:10227000052840F2A1806FF4486C84441FFA8CFC5E
:10228000F44540F299804FF6FF7E734504D07045C7
:1022900002D0834200F290800523735423880133D7
:1022A0009BB212212380F154238801339BB22380F7
:1022B0001188F1543344090A5970238802339BB2C0
:1022C00023805288F2543344120A5A70238802330E
:1022D0002380D5F82480B8F1000F30D0B8F804205E
:1022E0002188131D0B44BB423FF650AF931CFE2BBD
:1022F0003FF64CAF03327254238801339BB2FF2266
:102300002380F254238801339BB22380B8F8002045
:10231000F2543344120A5A702088023080B220806E
:10232000B8F804205AB1D8F80810002944D0304435
:1023300001F022FBB8F8043022881344238095F87A
:102340002C30002B40F08B80287800283FF41FAF02
:102350002B88012B30D023889A1CBA423FF616AF47
:10236000012805D16978023119448F42FFF40EAF7C
:10237000023FFB1A04A99BB221F8083DB018FFF7F1
:1023800067FE00287FF403AF2A78022A00F0B480A9
:10239000012A60D01A460821FE2A3FF6F7AE2388AC
:1023A000551CF554238801339BB22380F1542388B4
:1023B00001331A442280EAE6072004B0BDE8F08722
:1023C00005F1080802228DE8900040461146334688
:1023D000FFF742FE00287FF4DAAE8DE89000404619
:1023E000334610220621FFF737FE00287FF4CFAED8
:1023F000BCE605F110088DE8900040463346022205
:102400000321FFF729FE00287FF4C1AE8DE890007C
:102410004046334610220721FFF71EFE00287FF4B6
:10242000B6AEA7E605F118088DE8900040463346A1
:1024300002221421FFF710FE00287FF4A8AE8DE8D9
:1024400090004046334610221521FFF705FE002874
:102450007FF49DAE92E66A7893429CD29AE7D5F8D3
:102460002880B8F1000FA7D0B8F804200232FE2A65
:102470003FF68CAE23884FF000094FF0160A013268
:10248000F254238801339BB2238006F803A02388EB
:1024900001339BB22380B8F80020F2543344120A6F
:1024A0005A70238802339BB22380B8F80410F018C6
:1024B0000A4669B1D8F808301946002B3FF47CAFC2
:1024C00001F05AFAB8F80430228813449BB22380F2
:1024D00009F1010995F82C205FFA89F94A4509EBC1
:1024E00049087FF631AFAA6A02EB8808B8F80420E1
:1024F0000232FE2AC3D949E6BDF808209342FFF410
:1025000049AF092148E700BF2DE9F04395B01F23EB
:102510000D46ADF80E300446002800F08480C278E5
:1025200053077CD590F82D300021ADF80C10002B0E
:1025300040F0DD8183780CAF002B40F01982194602
:10254000032014AE31445F1C023316FA87F74FF0B4
:10255000020E16FA83F601F840EC83B2012107F867
:10256000401CADF80C3006F8402C6668002E00F0D8
:102570008C80D81C1F2874D90C2015B0BDE8F083BE
:10258000A76A002F4BD0BA880232FE2AF4D8BDF8D1
:102590000C304FF0000804AE4FF016091AE001F0BD
:1025A000EBF9BDF80C20BB8894F82C1013449BB2B7
:1025B000ADF80C3008F101085FFA88F8884508EB9F
:1025C000480780F0F080A26A02EB8707BA880232DF
:1025D000FE2AD1D80DF1500E9E44581C01320DF147
:1025E000500C0EF8402C1CFA80F09A1C92B200F8A5
:1025F000409CADF80C203888B0543244000A50702A
:102600000433B7F804E09BB27246F018ADF80C3012
:10261000BEF1000FCED0BB681946002BBFD10720FA
:1026200015B0BDE8F083ADF80C00ADB1EB78002B30
:10263000F5D128460CA90DF10E02FFF769FD00281F
:10264000EED19DF80E300CAA20469DF80C10FFF735
:10265000FBFC15B0BDE8F0832B46ADF80E502A46C2
:10266000F2E714AF591C9A1C17FA81F13B4417FA90
:1026700082F296F90060ADF80C0002270A2003F8F8
:10268000407C01F8400C02F8406C2389002B40F09C
:102690008F80238A002B40F0AB80238B002B40F0EF
:1026A000C780226A002A42D0BDF80C30991D1F292C
:1026B0003FF662AF10880528B1D96FF4486C00EB83
:1026C0000C06B6B24FF27D37BE42A8D95688052E09
:1026D000A5D96FF4486EB6441FFA8EFEBE459ED94A
:1026E0004FF6FF77B84203D0BE4201D0B04296D831
:1026F00014A8C7185E1C10FA86F64FF0050E981C39
:1027000007F840EC80B2122706F8407CADF80C00C8
:102710001788ADF80C1004AE3118375404333F0A53
:102720004F709BB25288F2543344120A5A70676A4F
:10273000A7B3B888BDF80C30811C9A1C56181F2E00
:102740003FF61AAFFE293FF617AF14AE1E44591CD0
:102750000DF1500E1EFA81F1033006F8400C92B2D2
:10276000FF2001F8400CADF80C20398804AEB018F9
:10277000B154090A41700433BA8898B2ADF80C001C
:1027800062B1B96800293FF44AAF304401F0F4F86F
:10279000BDF80C20BB881344ADF80C3094F82C1015
:1027A00000297FF4EDAE2378002B61D104AC3CE727
:1027B00003A904F1080704AE4FF01F08022200919C
:1027C00038463346CDF804801146FFF745FC002813
:1027D0007FF426AF03AB0093CDF804803346384630
:1027E00010220621FFF738FC00287FF419AF50E7CC
:1027F00003AA04F1100704AE4FF01F0800923846F8
:102800003346CDF8048002220321FFF725FC00287F
:102810007FF406AF03AB0093CDF80480334638460F
:1028200010220721FFF718FC00287FF4F9AE34E7E7
:1028300003AA04F1180704AE4FF01F0800923846AF
:102840003346CDF8048002221421FFF705FC00284E
:102850007FF4E6AE03AB0093CDF8048033463846F0
:1028600010221521FFF7F8FB00287FF4D9AE18E7F6
:102870002288012A3FF4D3AEBDF80C20901C1F28FB
:102880003FF67AAE012B05D16378134402331F2B38
:102890003FF672AEC2F11D0314A99BB204AE21F83B
:1028A000203D3044FFF7D4FB00287FF4B9AE2278F6
:1028B000022A00F08780012A00F08B80ADF83030CA
:1028C0001A460820FE2A3FF657AEBDF80C3014AC6D
:1028D000591CE71814FA81F102331344013207F846
:1028E000402C3446ADF80C3001F8400C9DE60CAF9E
:1028F0003846FFF7A7FB00287FF492AEBDF80C30F6
:1029000014A903F1010E9A1C11FA8EFE0B4492B227
:1029100004AEB01808211B2603F8401CADF80C20AB
:102920000DF1310106220EF8406C01F025F8BDF8DA
:102930000C209DF83010931D11F0FE019BB23BD18D
:1029400014A8034403F8401CD31DA2789BB2ADF831
:102950000C304AB9E278002A3FF407AED81C1F2891
:1029600019463FF609AEECE504331F2B3FF604AEE3
:102970003846FFF76BFB00287FF452AEBDF80C30F1
:10298000BDF83010E2785F1C14AE16FA87F71E44CB
:10299000981C4FF0030E06F840EC80B204AE4FF0E6
:1029A000190E07F840EC0433371831549BB2090A6A
:1029B000ADF80C307970CEE714A90B44012103F86F
:1029C000401CC1E7BDF830209342FFF477AF0920E7
:1029D00078E762789342FFF471AFADF830200820B9
:1029E00070E700BF75DF704776DF70477ADF7047AA
:1029F0007BDF7047184B18884FF6FF7398422AD038
:102A000010B5164A164C1378217B0133DBB299427C
:102A100082B013700CD2237C002111708BB96369D2
:102A200023B102A8002200F8042D984702B010BD7F
:102A30000C49FFF7D7FF0028F8D0A369002BF4D189
:102A4000F4E73B21FFF7D0FF0028E8D0A369002B73
:102A5000E5D09847E3E77047CC3F00208C3F00204B
:102A6000903F0020D03F002070B51E4B1E4A5B886F
:102A70001188994282B00FD852889A420CD31B4BCE
:102A80005B6923B102A8012200F8042D9847184C75
:102A90000023237002B070BD154C227862B1134B35
:102AA0005B69002BF4D002A8002200F8042D98479F
:102AB0000023237002B070BD0C4D0E486968067883
:102AC000AB680D48002E18BF1946FDF771FE0028AF
:102AD000DED0AB69002BDBD098470023237002B017
:102AE00070BD00BF843F0020D03F0020903F0020F9
:102AF000803F00208C3F0020AC3F0020F8B5054609
:102B00000FCD144C144F0FC4064695E80700002360
:102B100084E807003B70B6B13068104B716803C39E
:102B2000A3F10800FFF762FF90B90D4D0D4C0E4A5E
:102B30000E4800234FF6FF762E8023701946BDE81D
:102B4000F840FDF723BE0548FFF752FF0028ECD000
:102B5000F8BD00BF903F0020803F0020D03F002004
:102B6000CC3F00208C3F0020F529020028450200C0
:102B700070B50388112B27D012D9122B07D0502BF8
:102B800047D1244CC288E3899A4230D070BD0830C6
:102B900003C8214B83E80300BDE87040FFF764BF22
:102BA000102B35D11D491B4C1B4B1D4DE48900F1E9
:102BB00010028088088092E80300002283E8030066
:102BC0002A70002CE8D070BD1449154B15484FF6FB
:102BD000FF7400220C801A70FDF740FE0028D5D04B
:102BE0000C4B9B69002BD1D0BDE870401847038A7D
:102BF000022BCBD1123000F0C5F80028CCD1094807
:102C0000FDF72CFE0028C1D0A369002BECD1BDE755
:102C100070BD70BD903F0020843F0020CC3F00205D
:102C20008C3F0020AC3F0020B82200210148FCF777
:102C300089BB00BFD83F00200388112B72D02DE93B
:102C4000F0431A2B95B0804651D0102B02D015B00E
:102C5000BDE8F083DFF8EC90D9F84820D9F844308B
:102C600009F1040123EA020203A8FDF7D3FE039E43
:102C70007EB1002427460DF10E05314935F8023F9B
:102C800000970134A1F140001D22FDF797FEA642F6
:102C9000F3D1D9F84400B8F804602A4CC043FDF7DA
:102CA00059FE4FF6FF73984243D004EB400532467D
:102CB00004F14801201D0123AE80FDF761FE32467C
:102CC00004F14401201D0123FDF75AFE98F80F304E
:102CD000B8F80420A3F10203B3FA83F35B0904F10B
:102CE0004C01201D15B0BDE8F043FDF749BE037A45
:102CF000154982881F2B94BF00230123A1F14C00AA
:102D0000FDF73EFE98F808301049B8F804202F2B44
:102D100094BF00230123A1F1500015B0BDE8F0439A
:102D2000FDF72EBE0A4982880023A1F14400FDF779
:102D300027BE042015B0BDE8F043FDF7BBB800BFC7
:102D40001C400020D83F0020284000202C400020BC
:102D500020400020034BD86C9B6C23EA0000FDF759
:102D600073BE00BFD83F002010B50549CA6C8B6CFC
:102D70000446043123EA0202FDF74CFE204610BD52
:102D8000D83F0020007800F0010070478FDF7047C7
:102D90009EDF7047ADDF7047B8B110B417221B2417
:102DA0000023816102804280C2800281C28102824E
:102DB000047104734473047544758372C37283741D
:102DC000C3745DF8044B184670470E20704700BF6F
:102DD0002DE9F04F8D88012D85B002D905B0BDE8F1
:102DE000F08F0B88212B06460C4666D01CD93A2B57
:102DF00000F0FF80552B00F0C380222B24D0EF0081
:102E0000F3199B7A002BE9D03E442846F188FFF75E
:102E1000BFFF002800F021811128DFD00246A6491B
:102E20000120FCF76DFDD9E7102B70D0112BE6D1F6
:102E300000EBC500172100221B23C1800181827293
:102E4000C27203734373C9E7B1F80880B1F80AA0EE
:102E5000B1F80C90B1F80EB09849EF00C4195FFAC0
:102E600088F22B4662730420FCF7A8FD5246944971
:102E70000420FCF745FD424692490420FCF740FD42
:102E80005A4691490420FCF73BFD4A468F490420ED
:102E9000FCF736FDB36973B100224DF67A21ADF827
:102EA0000C20627BADF80810ADF80A5002A98DF82D
:102EB0000C2030469847A37AA4E791F8088084490B
:102EC000EF0000EB070943462A460420FCF776FD95
:102ED00099F80C207F49A388424528BF42461FFA33
:102EE00082FE4FF000080420ADF808E0ADF80AE0DB
:102EF000CDF80C80FCF762FD424602A9A088FFF7DE
:102F000045FF002840F0998099F80A307AE7EF00F1
:102F100000EB0708037988F80C30CB7B012B00F01D
:102F20009280022B00F0A380B8F80620B8F8083091
:102F30009342C0F0A08098F80C2098F80D3093428E
:102F40001BD22B4664490420FCF738FD002398F877
:102F50000C40ADF80C301A4602A92846ADF80E30E8
:102F6000ADF80840ADF80A40FFF710FF28B103465E
:102F70002A465A490120FCF721FD98F80A3041E71A
:102F8000CC885749EF0000EB070823462A46042067
:102F9000FCF714FDB8F806300095172C224638BF10
:102FA00017229A4228BF1A46002188F80A100420E6
:102FB0004C49A8F80820FCF767FDB8F80610284629
:102FC000FFF7E8FE002842D198F80B30002BD4D14F
:102FD000B369002BD1D040F67721B8F80820ADF8BE
:102FE0000810ADF80A50ADF80C2002A930469847F9
:102FF000C3E700EBC5074A89FB883B499A4228BFD3
:103000001A46172A38BF17222B463A810420FCF7AC
:10301000D5FCB3696BB1FA7A5AB140F677213A8997
:10302000ADF80810ADF80A503046ADF80C2002A9F2
:1030300098470023FB72BB72D0E602462B49012061
:10304000FCF75EFC60E70288A8F806206EE70246FF
:1030500027490120FCF754FCB6E70122B072F27256
:103060002B46F28823490420FCF7A8FCB6E64288E8
:10307000A8F806205AE7204904202B46FCF79EFCBE
:10308000B8F806102846FFF783FE18B9012388F820
:103090000B3050E7112805D0024607490120FCF704
:1030A0002FFC48E7012388F80A302A4613490420F8
:1030B000FCF726FC3FE700BFE84502005448020049
:1030C00098480200C0480200E84802001049020087
:1030D000384902008C49020044460200944602002E
:1030E00058470200A847020008470200D8490200DA
:1030F000FC470200384A02002C45020080450200CD
:103100000649074A074B9B1A03DD043BC858D050B9
:10311000FBDC00F013F8FCF7A1F80000CC4C020037
:10312000F0350020E0370020FEE7FEE7FEE7FEE78F
:10313000FEE7FEE7FEE7FEE7FEE7FEE7F0B4BA4B88
:103140001A78062A1BD0B94AD2F8883043F47003A3
:10315000C2F88830BFF34F8FBFF36F8F4FF010234B
:10316000D3F80022002AC0F22D81D3F80432002BBC
:10317000C0F22881AE4BAF4A1A60F0BC70470433EE
:103180001B681B07DFD1AC4B1B6803F0F002302A31
:1031900000F0088103F0E003402B00F00381A64B10
:1031A0001B6803F0F003302B00F0EE80A24B1B688D
:1031B00003F0F002302A00F0D78003F0E003402B48
:1031C00000F0D2809C4B1B6803F0F003302B00F022
:1031D000BB80994B1B6803F0F002302A00F0A080FE
:1031E00003F0E003402B00F09B80934B1B6803F03F
:1031F000F003302B00F086808F4B1B6803F0F00348
:10320000302B68D08C4B1B6803F0F003502B10D090
:10321000894B1B6803F0F002302A03D003F0E0036F
:10322000402B90D1854B864A1B6803F04F031360F7
:1032300089E74FF08052834BD2F80414C3F820156D
:10324000D2F80814C3F82415D2F80C14C3F82815C2
:10325000D2F81014C3F82C15D2F81414C3F8301592
:10326000D2F81814C3F83415D2F81C14C3F840155A
:10327000D2F82014C3F84415D2F82414C3F8481522
:10328000D2F82814C3F84C15D2F82C14C3F85015F2
:10329000D2F83014C3F85415D2F83414C3F86015BA
:1032A000D2F83814C3F86415D2F83C14C3F8681582
:1032B000D2F840145C48C3F86C15D2F84414027874
:1032C000C3F87015062A7FF43EAF5F4B1B681A07E0
:1032D0007FF439AF9CE75D4E5D4C5E495E4B052740
:1032E000012500203F223760256008601A604E4BA0
:1032F0001B78062B7FF427AF534B1B6819077FF40D
:1033000022AF7FE7484B554A1B780321062B1160FB
:103310007FF419AF4C4B1B6818077FF414AF6BE7B1
:103320004FF080430022C3F80C21C3F81021C3F8EA
:1033300038253D4B1B78062B7FF405AF424B1B68AD
:103340001C077FF400AF50E74549374ACB68127835
:1033500023F08073062ACB607FF4F5AE3A4B1B68EE
:103360001D077FF4F0AE34E73E4B2F4A1B681278FE
:103370003D49C3F34233062A0B60B8D1324B1B6878
:103380001E077FF4E0AE1DE7274B384A1B7838490B
:103390001160062B7FF4D7AE2B4B1B681F077FF401
:1033A000D2AE03E7334B204A1B6812783249C3F38D
:1033B0000423062A0B60BCD1234B1B681B073FF478
:1033C000EEAEC0E62D4B0122C3F80425D3F800244D
:1033D000002AFBD04FF0102315222849C3F8002201
:1033E000D1F80034002BFBD04FF0102315222349D5
:1033F000C3F80422D1F80024204B002AFAD000227E
:10340000C3F80425D3F80024002AFBD0BFF34F8F64
:1034100006491B4BCA6802F4E0621343CB60BFF35A
:103420004F8F00BFFDE700BFE00F00F000ED00E0B0
:10343000643600200090D003E80F00F0580200101E
:10344000E40E004000C00040E40F00F010560040C1
:10345000885600401856004014560040A005004011
:10346000F0ED00E0440200103C05004074C007404D
:103470000DF0ADBA240300104035014000E00140DA
:103480000400FA05A0DF7047A2DF7047A6DF70478F
:1034900062DF70470B88502B00D0704770B505462F
:1034A0000C460A8A0A491320FCF72AFAE2886B883C
:1034B0009A4200D070BD238A012BFBD16B69002B8F
:1034C000F8D02946A27CA088BDE87040184700BF0C
:1034D000A44A0200F0B5724C0E68A2686168E36805
:1034E00095B0054620686E6104AC0FC405F1120169
:1034F00004A8FFF7CDFF18B10446204615B0F0BD73
:1035000014A941F2235321F8483D2A46AB7C8DF89B
:103510000A300120FFF7B6FF04460028EDD121460E
:1035200003226846FBF70EFF9DF800709DF80130FE
:103530009DF802E0012666F3030766F3030366F3D2
:10354000071366F3420E214666F307171C220DA8E7
:103550008DF800708DF801308DF802E0FBF7F2FE77
:103560009DF8343095F812E00E9443F01203214692
:1035700041F22457032201A81094119413948DF85A
:1035800034308DF80EE0ADF80C70CDF848D0FBF774
:10359000D9FE9DF806309DF804E09DF8057066F3AD
:1035A000420364F3C30364F3041364F3030766F391
:1035B000030E64F3000366F3071E64F30717214646
:1035C000142208A88DF806308DF804E08DF80570F7
:1035D000FBF7B8FE01AFADF82A400C9408AA03AC83
:1035E0000DA905F10A03288808940997ADF8286009
:1035F000ADF82C60FFF748FF044600287FF47DAF4C
:1036000001461C220DA8FBF79DFE9DF83430A87CD6
:103610008DF80E0043F00A03214641F2255703229C
:1036200001A80E9410941194129413948DF83430D0
:10363000ADF80C70FBF786FE9DF806309DF804008F
:103640009DF8057066F3420364F3C30366F3030059
:1036500064F3041366F3071066F3030764F30003CF
:10366000214614228DF8040066F3071708A88DF888
:1036700006308DF80570FBF765FEAB1C2888ADF8A9
:103680002A4003AD089508AA0DA901AD0C9409952F
:10369000ADF82860ADF82C60FFF7F6FE04462CE785
:1036A000944A020070B588B00E4605468DF8072092
:1036B000012404A810220021ADF80E40FBF742FEC1
:1036C0007389ADF810300DF107020DF10E0304A956
:1036D00028468DF8124007920693FFF7D7FE08B0F0
:1036E00070BD00BF48DF704710DF704760DF704774
:1036F00061DF7047FCF7EEBB2DE9F047DFF8B090D3
:10370000284ED9F80040DFF8AC80274FB4FA84F493
:1037100082B064090025B5B93378DFF888A07BB999
:1037200001A8FFF7DFFF052834D020B3FCF7C2FB68
:103730006CB13378DFF86CA001240025002BEFD0AA
:1037400002B0BDE8F087002CFAD1DFF858A09AF853
:103750000030002BF4D102A93A68B8F8003021F803
:10376000043D1046FFF7C4FF052817D068B1FCF7E9
:10377000A1FB0024CFE70198FDF7EAF90B4B1B688A
:10378000002BD5D001989847D2E71046D9F80030E1
:103790009847EEE7002CD3D10125D8E7002DC8D0FB
:1037A000CEE700BF904000209440002098400020C9
:1037B0009C40002092400020014B1878704700BFC9
:1037C0009140002011B111F0030F01D00720704784
:1037D000F8B51A4F1A4E1B4D1B4C396032802B60C6
:1037E0002368DB0708D50123C4F880301749FFF7A9
:1037F0007BFF30B12360F8BD1449FFF775FF00B1BE
:10380000F8BD134B01221A70FDF7B2F90E4A92F877
:103810001633C3F34113012B0CD90E4B986818B91A
:103820004FF480031360F8BD1A6842F480021A60F6
:103830000020F8BD42F20200F8BD00BF9440002015
:1038400092400020A040002000E100E0F536020098
:1038500091400020B0400020034618B1024A0020E9
:10386000136070470E2070479C40002008B5094B3C
:103870001B6833B1984700B908BDBDE80840FCF7A4
:1038800019BB054B1B78002BF6D0BDE80840FFF7AD
:1038900033BF00BFA04000209140002082B0034B06
:1038A0000193019B0360002002B07047F0350020B7
:1038B00030B583B002AC026844F8042D05461649C1
:1038C0000420FCF71DF82046FFF710FF2B68019A33
:1038D000934204460BD110B9204603B030BD0246D6
:1038E0000E490120FCF70CF8204603B030BD0C490E
:1038F0000220FCF705F84FF08052019BD2F80C2112
:103900000849C3EB822202F100520220FBF7F8FFC4
:10391000204603B030BD00BFB84A0200404B020051
:10392000D84A02000C4B0200034B1B68186A034B79
:10393000002808BF1846704750360020683600201F
:1039400008B5034B1868FFF7EFFFD0F8EC0008BD8F
:103950005036002082B001B901A93AB143B11378C1
:103960000B601278101C18BF012003E0104601E024
:103970006FF0010002B0704710B5431E0A44914237
:1039800004D011F8014B03F8014FF8E710BD000017
:103990000CB430B5164B0C1E9DB01D6804DA8B2399
:1039A0002B604FF0FF301EE04FF40273ADF814307F
:1039B00014BF04F1FF332346049307934FF6FF73BC
:1039C00002900690ADF81630209A21AB02A9284645
:1039D000019300F07DF8431CBCBF8B232B6014B116
:1039E000029B00221A701DB0BDE8304002B0704743
:1039F00050360020034613F8012B002AFBD1181A79
:103A00000138704749B1FF2A85BF8A2303600A70D5
:103A10004FF0FF3098BF01207047084670472DE9EE
:103A2000F0478E689E4282460C46914698463ED8A4
:103A30008A8912F4906F3AD0256809696F1A65690E
:103A4000022305EB450595FBF3F57B1C43449D42A2
:103A500038BF1D4653050FD5294600F083FB0646A7
:103A600098B13A462169FFF787FFA38923F4906351
:103A700043F08003A38113E02A4600F0D1FB064601
:103A800070B92169504600F01FFB0C23CAF80030C2
:103A9000A38943F04003A3814FF0FF30BDE8F087D6
:103AA000266165613E44ED1B2660A560464646459D
:103AB00028BF464632464946206800F0E9FAA36826
:103AC0009B1BA36023681E4426600020BDE8F0878E
:103AD0002DE9F04F9DB0804603938B891C060D465F
:103AE00016460DD50B695BB9402100F03BFB286001
:103AF000286118B90C23C8F80030CDE040236B6171
:103B00000023099320238DF82930DFF89CB130235E
:103B10008DF82A3037463C4614F8013B1BB9B7EB09
:103B2000060910D003E0252BF9D02746F3E74B46D2
:103B3000324629464046FFF772FF013000F0A78069
:103B4000099B4B4409933B78002B00F0A080002395
:103B50004FF0FF3204930793059206938DF853308C
:103B60001A930126052221784E4800F041FA671C7D
:103B7000049B38B14B4A801A06FA00F018430490AF
:103B80003C46EFE7D90644BF20228DF853201A07A0
:103B900044BF2B228DF8532022782A2A03D0079A7B
:103BA00000210A200BE0039A111D12680391002ADC
:103BB00010DA524243F00200079204900BE02746CD
:103BC00001343B78303B092B03D800FB0232012142
:103BD000F5E701B107923B782E2B1ED17B782A2B7B
:103BE0000AD1039B1A1D1B680392002BB8BF4FF02C
:103BF000FF330237059310E000230593781C194624
:103C00000A24074601303A78303A092A03D804FBDF
:103C100001210123F5E703B10591032239782248F8
:103C200000F0E6F940B14023CBEB000003FA00F0CE
:103C3000049B18430490013739781C488DF82810EC
:103C400006227E1C00F0D4F988B1194B33B9039BCE
:103C5000073323F007030833039314E003AB009307
:103C60002A46144B04A94046AFF3008007E003AB9B
:103C700000932A460F4B04A9404600F093F8B0F198
:103C8000FF3F824603D0099B5344099342E7AB8927
:103C90005B0601D4099801E04FF0FF301DB0BDE88C
:103CA000F08F00BF8B4C0200914C0200954C02003B
:103CB000000000001F3A02002DE9F04791461F4620
:103CC0000A698B68DDF820809342B8BF1346C9F8B3
:103CD000003091F8432006460C4612B10133C9F872
:103CE00000302368990642BFD9F800300233C9F882
:103CF0000030256815F0060510D104F1190A07E017
:103D00000123524639463046C04701301AD00135AA
:103D1000E368D9F800209B1A9D42F1DB94F8433008
:103D20002268003318BF012392060FD5E1185A1CF0
:103D3000302081F84300224494F8451082F8431063
:103D4000023303E04FF0FF30BDE8F08704F1430297
:103D500039463046C0470130F4D02268D9F80050C7
:103D6000E36802F00602042A08BF5D1B2269A3680B
:103D70000CBF25EAE57500259342C4BF9B1AED18D8
:103D80004FF000091A344D4509D001232246394627
:103D90003046C0470130D5D009F10109F3E70020D2
:103DA000BDE8F0872DE9F04317460A7E85B06E2AFC
:103DB000984606460C460C9B01F1430E00F0AE807F
:103DC00011D8632A22D009D8002A00F0BB80582AD3
:103DD00040F0CA8081F84520834955E0642A1ED00E
:103DE000692A1CD0C0E0732A00F0B08009D86F2A7D
:103DF0002ED0702A40F0B8800A6842F020020A6093
:103E00003EE0752A24D0782A3AD0ADE01A6801F154
:103E10004205111D1960136884F84230A8E021683A
:103E20001A6811F0800F02D0111D196008E011F01E
:103E3000400F02F10401196002D0B2F9003000E035
:103E40001368002B3CDA2D225B4284F8432037E0D4
:103E500021681A6811F0800F02D0111D196007E067
:103E600011F0400F02F10401196001D0138800E045
:103E70001368227E5C496F2A14BF0A2208221BE0C5
:103E800078225A4984F845202268186812F0800F79
:103E900000F104051D6003D1550601D5038800E03B
:103EA0000368D00744BF42F0200222601BB9226899
:103EB00022F0200222601022002084F8430001E05A
:103EC00049490A226568A560002D08DB206820F0BA
:103ED000040020602BB9002D7DD175460CE0002B2D
:103EE00079D07546B3FBF2F002FB1033CB5C05F8DA
:103EF000013D03460028F5D1082A0BD12368DA07D3
:103F000008D5236962689A42DEBF302305F8013C78
:103F100005F1FF35C5EB0E0323612EE008681A6832
:103F2000496910F0800F03D0101D1860136808E075
:103F300010F0400F02F104001860136801D01980DE
:103F400000E0196000232361754616E01A68111D10
:103F50001960156862680021284600F049F808B128
:103F6000401B6060636804E004F1420584F842206D
:103F700001232361002384F84330CDF800803B46C1
:103F800003AA21463046FFF797FE013002D14FF0D9
:103F9000FF3026E023692A4639463046C0470130C3
:103FA000F5D023689B0710D5002504F1190907E017
:103FB00001234A4639463046C0470130E7D0013533
:103FC000E368039A9B1A9D42F2DBE068039B9842E8
:103FD000B8BF184605E00B7884F8423004F142057A
:103FE0008AE705B0BDE8F0839C4C0200AD4C0200AE
:103FF00001F0FF01102A2BDB10F0070F08D010F89A
:10400000013B013A8B422DD010F0070F42B3F6D19D
:10401000F0B441EA012141EA014122F007047FF0B6
:1040200000070023F0E80256083C85EA010586EA0D
:10403000010685FA47F5A3FA87F586FA47F6A5FA49
:1040400087F68EB9EED1F0BC01F0FF0102F0070255
:1040500032B110F8013B013A83EA010313B1F8D100
:104060000020704701387047002D06BF35460338E1
:10407000073815F0010F07D1013015F4807F02BF1A
:10408000013015F4C03F0130F0BC0138704700BF6B
:10409000884210B501EB020301D8421E0BE09842A2
:1040A000FBD28118D21AD34204D013F8014D01F883
:1040B000014DF8E710BD994204D011F8014B02F808
:1040C000014FF8E710BD000038B50546002946D07D
:1040D00051F8043C0C1F002BB8BFE41800F0D6F8D0
:1040E0001F4A1368114613B96360146032E0A3429B
:1040F0000ED92268A018834204BF18685B68636009
:1041000004BF121822600C6024E0A24203D81346B8
:104110005A68002AF9D118681918A1420BD12168F0
:10412000014458188242196014D1106852685A60CC
:10413000014419600EE002D90C232B600AE02168CB
:104140006018824204BF10685268626004BF091898
:1041500021605C602846BDE8384000F098B838BD62
:10416000A840002070B5CD1C25F0030508350C2DA6
:1041700038BF0C25002D064601DBA94202D90C23CD
:10418000336046E000F082F8234B1C681A46214653
:10419000A1B10B685B1B0ED40B2B03D90B60CC18A1
:1041A000CD501EE08C420DBF63684B6863601360A6
:1041B00018BF0C4615E00C464968E9E7174C236820
:1041C0001BB9304600F052F820602946304600F016
:1041D0004DF8431C18D0C41C24F00304A0420DD198
:1041E0002560304600F053F804F10B00231D20F049
:1041F0000700C31A0ED05A42E25070BD211A304651
:1042000000F034F80130EBD10C233360304600F07D
:104210003EF8002070BD00BFA8400020A440002050
:10422000F8B5074615460E4621B91146BDE8F840D7
:10423000FFF798BF1AB9FFF747FF2846F8BD00F00F
:1042400027F885420ED929463846FFF78BFF0446EA
:1042500050B131462A46FFF78FFB31463846FFF70B
:1042600033FF01E03046F8BD2046F8BD38B5064CB6
:10427000002305460846236000F014F8431C02D1D1
:10428000236803B12B6038BDBC40002070477047E5
:1042900051F8040C0028BEBF091851F8043CC0189E
:1042A00004387047044A05491368002B08BF0B46C1
:1042B0001844106018467047AC400020C0400020F1
:1042C000F8B500BFF8BC08BC9E467047F8B500BF03
:1042D000F8BC08BC9E467047F0350020FFFFFFFF8A
:1042E000FFFFFFFFFFFFFFFFFFFFFFFF00000000DA
:1042F000000000000000D601070100005B253038F7
:10430000645D00004F766572666C6F770D0A000081
:10431000243D00203A4552524F523A466174616C36
:104320000D0A00003A494E464F3A486974207765B5
:10433000616B2068616E646C65720D0A000000009C
:1043400011121314010000074150503A494E464FD4
:104350003A53656E7420627574746F6E2073746165
:104360007465206368616E676520746F20616C6C92
:1043700020636F6E6E65637465642063656E74722E
:10438000616C732E0D0A00004150503A444542556D
:10439000473A53656E7420627574746F6E2063685B
:1043A000616E67652030782578206F6E20636F6EB0
:1043B0006E656374696F6E2068616E646C65203031
:1043C0007825782E0D0A00004150503A494E464F4C
:1043D0003A5265636569766564204C4544204F4ECA
:1043E0002066726F6D206C696E6B203078257821A5
:1043F0000D0A00004150503A494E464F3A5265630B
:104400006569766564204C4544204F4646206672B7
:104410006F6D206C696E6B2030782578210D0A0055
:104420004150503A494E464F3A436F6E6E65637441
:1044300065642077697468206C696E6B203078251C
:10444000782065737461626C69736865642E0D0A07
:10445000000000004150503A494E464F3A436F6EBB
:104460006E656374696F6E2030782578206861739B
:10447000206265656E20646973636F6E6E65637438
:1044800065642E20526561736F6E3A20307825582E
:104490000D0A00004150503A44454255473A4741C1
:1044A000545420436C69656E742054696D656F7552
:1044B000742E0D0A000000004150503A4445425508
:1044C000473A4741545420536572766572205469C7
:1044D0006D656F75742E0D0A000000004F42430099
:1044E0004150503A494E464F3A415454204D54554C
:1044F0002073697A652025640A0000004150503A13
:10450000494E464F3A4D756C7469706572697068B2
:104510006572616C206578616D706C652073746183
:10452000727465642E0D0A00AC3F00206E72665FE7
:10453000626C655F676174743A44454255473A520C
:10454000657175657374696E6720746F207570642A
:1045500061746520415454204D545520746F2025BA
:1045600075206279746573206F6E20636F6E6E655F
:104570006374696F6E20307825782E0D0A00000074
:104580006E72665F626C655F676174743A4445423F
:1045900055473A73645F626C655F67617474635F0B
:1045A00065786368616E67655F6D74755F7265716C
:1045B000756573742829206F6E20636F6E6E656356
:1045C00074696F6E20307825782072657475726E0C
:1045D000656420627573792C2077696C6C20726534
:1045E0007472792E0D0A00006E72665F626C655FF0
:1045F000676174743A4552524F523A73645F626C09
:10460000655F67617474635F65786368616E676531
:104610005F6D74755F72657175657374282920729A
:10462000657475726E656420756E65787065637407
:1046300065642076616C756520307825782E0D0ACA
:10464000000000006E72665F626C655F6761747483
:104650003A44454255473A52657175657374696EBF
:104660006720746F20757064617465206461746183
:10467000206C656E67746820746F202575206F6EDE
:1046800020636F6E6E656374696F6E203078257875
:104690002E0D0A006E72665F626C655F67617474EE
:1046A0003A4552524F523A73645F626C655F67617C
:1046B000705F646174615F6C656E6774685F75706C
:1046C0006461746528292028726571756573742981
:1046D000206F6E20636F6E6E656374696F6E20303D
:1046E0007825782072657475726E656420756E65C4
:1046F000787065637465642076616C7565203078C8
:1047000025782E0D0A0000006E72665F626C655F90
:10471000676174743A44454255473A415454204DB8
:104720005455207570646174656420746F2025751C
:10473000206279746573206F6E20636F6E6E65639F
:1047400074696F6E20307825782028726573706FD9
:104750006E7365292E0D0A006E72665F626C655F6E
:10476000676174743A44454255473A506565722012
:104770006F6E20636F6E6E656374696F6E20307844
:1047800025782072657175657374656420616E208B
:10479000415454204D5455206F6620257520627970
:1047A0007465732E0D0A00006E72665F626C655F41
:1047B000676174743A44454255473A557064617470
:1047C000696E6720415454204D545520746F202544
:1047D00075206279746573202864657369726564F5
:1047E0003A20257529206F6E20636F6E6E656374A5
:1047F000696F6E20307825782E0D0A006E72665F24
:10480000626C655F676174743A4552524F523A73F5
:10481000645F626C655F67617474735F6578636819
:10482000616E67655F6D74755F7265706C7928295C
:104830002072657475726E656420756E657870653A
:10484000637465642076616C756520307825782EF8
:104850000D0A00006E72665F626C655F676174745A
:104860003A44454255473A44617461206C656E672D
:104870007468207570646174656420746F20257598
:10488000206F6E20636F6E6E656374696F6E20308B
:10489000782530782E0D0A006E72665F626C655F57
:1048A000676174743A44454255473A6D61785F7266
:1048B000785F6F63746574733A2025750D0A000084
:1048C0006E72665F626C655F676174743A444542FC
:1048D00055473A6D61785F74785F6F637465747380
:1048E0003A2025750D0A00006E72665F626C655F86
:1048F000676174743A44454255473A6D61785F7216
:10490000785F74696D653A2025750D0A0000000016
:104910006E72665F626C655F676174743A444542AB
:1049200055473A6D61785F74785F74696D653A20B8
:1049300025750D0A000000006E72665F626C655F8F
:10494000676174743A44454255473A506565722030
:104950006F6E20636F6E6E656374696F6E20307862
:1049600025782072657175657374656420612064B3
:10497000617461206C656E677468206F66202575B0
:104980002062797465732E0D0A0000006E72665FF6
:10499000626C655F676174743A44454255473A55A5
:1049A00070646174696E672064617461206C656E07
:1049B00067746820746F2025752062797465732090
:1049C0006F6E20636F6E6E656374696F6E203078F2
:1049D00025782E0D0A0000006E72665F626C655FBE
:1049E000676174743A4552524F523A73645F626C15
:1049F000655F6761705F646174615F6C656E677449
:104A0000685F757064617465282920287265706C10
:104A100079292072657475726E656420756E65788B
:104A20007065637465642076616C756520307825E7
:104A3000782E0D0A000000006E72665F626C655F82
:104A4000676174743A44454255473A5265717565D9
:104A50007374696E6720746F20757064617465206B
:104A6000415454204D545520746F2025752062798F
:104A7000746573206F6E20636F6E6E656374696F0B
:104A80006E203078257820287265747279292E0D71
:104A90000A00000023D1BCEA5F782315DEEF121272
:104AA0000000000052656365697665642025642016
:104AB00062797465730A00005344483A444542558C
:104AC000473A52414D2073746172742061742030F2
