:1000000000000120BD140100E5140100E714010007
:10001000E9140100EB140100ED14010000000000E0
:10002000000000000000000000000000EF140100CC
:10003000F114010000000000F3140100F5140100A8
:1000400025900000F7140100519E0000F7140100F4
:10005000F7140100F7140100ED930000F7140100FC
:10006000F7140100F7140100F7140100F714010060
:10007000F7140100F7140100F7140100F714010050
:10008000F71401001D0E0000F7140100F714010021
:10009000BD0E0000F7140100D91E0100F714010085
:1000A000F7140100F7140100F7140100F714010020
:1000B000F7140100F7140100000000000000000028
:1000C000F7140100F7140100F7140100F714010000
:1000D000F7140100F7140100F714010000000000FC
:1000E0000000000000000000000000000000000010
:1000F0000000000000000000000000000000000000
:1001000000000000000000000000000000000000EF
:1001100000000000000000000000000000000000DF
:1001200000000000000000000000000000000000CF
:1001300000000000000000000000000000000000BF
:1001400000000000000000000000000000000000AF
:10015000000000000000000000000000000000009F
:10016000000000000000000000000000000000008F
:10017000000000000000000000000000000000007F
:10018000000000000000000000000000000000006F
:10019000000000000000000000000000000000005F
:1001A000000000000000000000000000000000004F
:1001B000000000000000000000000000000000003F
:1001C000000000000000000000000000000000002F
:1001D000000000000000000000000000000000001F
:1001E000000000000000000000000000000000000F
:1001F00000000000000000000000000000000000FF
:1002000010B5054C237833B9044B13B10448AFF350
:1002100000800123237010BDEC12002000000000BC
:10022000CC350100084B10B51BB108490848AFF3A5
:1002300000800848036803B910BD074B002BFBD0B2
:10024000BDE81040184700BF00000000F012002079
:10025000CC350100D812002000000000154B002B07
:1002600008BF134B9D46A3F5803A00218B460F46ED
:100270001348144A121A00F065F80F4B002B00D0F7
:1002800098470E4B002B00D0984700200021040017
:100290000D000D48002802D00C48AFF3008000F09C
:1002A0002BF8200029000AF0C1FF00F011F800BF70
:1002B0000000080000000120000000000000000015
:1002C000EC12002048350020000000000000000073
:1002D00008B5074B044613B10021AFF30080054B6E
:1002E0001868836A03B19847204600F033F800BFCE
:1002F00000000000782C010070B50E4B0E4CE41A83
:10030000A41000251E46A54204D056F82530984773
:100310000135F8E712F0A4FC084C094BE41AA410CC
:1003200000251E46A54204D056F8253098470135D1
:10033000F8E770BDD0120020D0120020D4120020A7
:10034000D012002002440346934202D003F8011B5E
:10035000FAE77047FEE700BFF0B51746C7B01C4686
:10036000B9B106AE0B68604A30464FF4807111F0A7
:10037000D7FF00280ADB4C9B0546062B00F2B28013
:10038000DFE803F012323B4653637500002047B0AC
:10039000F0BD4C9B062B00F2A380DFE803F0048B3A
:1003A00090957C8186000025384611F0F3FF4319B3
:1003B000FF2B044640F28D80002CE7DB2C44B4F583
:1003C000807FE3D80A27002506AE22467119002057
:1003D0000BF05AF80544241A08B9013F01D0002C4B
:1003E000F3D1012047B0F0BDC0F5807123683A46D3
:1003F000701911F095FF0446DEE7C0F58071626860
:100400002368009270193A4611F08AFF0446D3E738
:10041000C0F58071A2682368646800940192701925
:100420003A4611F07DFF0446C6E7C0F58071E268E8
:100430002368D4F808E0646802928DE810403A46D8
:10044000701911F06DFF0446B6E7C0F580712069A0
:10045000E26823680390D4F808E0646802928DE8AB
:1004600010403A46701911F05BFF0446A4E7C0F54E
:1004700080716269206923680492E2680390D4F86D
:1004800008E0646802928DE810403A46701911F055
:1004900047FF044690E74FF48071002506AEC6E79B
:1004A0004FF48071002506AED1E74FF4807100252E
:1004B00006AEDEE74FF48071002506AE96E74FF4F6
:1004C0008071002506AE9AE74FF48071002506AED4
:1004D000A0E706AE39467019224611F016FF6BE709
:1004E00000246FE7002469E77C2C01002DE9F04F20
:1004F0001446C7B01D46002900F02381002B00F0F0
:1005000004810A2302934FF0000B06AF519B539ACC
:10051000134420261C4602990BEB0103049331334C
:10052000FB18039307EB0B031A460193002965D0D0
:10053000534203F003038B4228BF0B46062900F207
:10054000DB800B46019907F80B600A46012B02F18C
:10055000010200F0CF80022B4E7001F1020200F088
:10056000C980032B8E7001F1030200F0C3800A469C
:10057000042BCE7002F1040200F0BC80062B0E7139
:1005800001F1050240F0BE804E718A1D9846029925
:1005900099422ED00298C3EB0009A9F1040100F1A1
:1005A000FF3E8908C3EB0E0E0131BEF1020F4FEA88
:1005B000810C12D95B444FF0203E012907EB030B5D
:1005C00047F803E005D00229CBF804E001D0CBF8CE
:1005D00008E0E1456244E0440BD00299167008F14E
:1005E00001038B4205D208F102008842567000D206
:1005F0009670019B029A134401931A46039B059738
:1006000002F1330A274602F1030B544603F10109B4
:10061000DDF844A10DE00BF8036C0BF8026C0BF84D
:10062000016C0BF1030BA34509F8016C09F10109F9
:100630002FD0AF42EFD9AA4556D9509B13F8058069
:100640000BF8016C4FEA28105FFA80FE092808F0C9
:100650000F00D4BF0EF1300E0EF1370E092894BFF3
:10066000303037300BF803EC0BF8020C11F022FE9F
:1006700040440BF1030B407810F0970F08BF4FF088
:100680002E08A34509F8018C05F1010509F10109BE
:10069000CFD1049B039903F1430A019B3C460D22F1
:1006A0004FF00A0B059F0A7481F811B0A14683F838
:1006B00030604FF000085446224607EB0801002046
:1006C0000AF0E2FE8044241A10B9BBF1010B01D0FC
:1006D000002CF1D14D454C464FF0000BFFF41BAF01
:1006E000284647B0BDE8F08FCAEB0500529B13F8CF
:1006F0000080A5E798464AE7002B7FF423AF019AD4
:10070000984647E74FF0050841E706AF0B68114AE6
:1007100038464FF4807111F003FE0028E0DB0A2315
:1007200006460293204611F035FEC22828BFC2209B
:10073000834602462146B81911F0E7FD0025B3446F
:10074000E4E61BB902952E4606AFEBE702918B4615
:1007500006AFDBE67C2C010070B5074D074E2B7809
:1007600013B13378834205D004460AF04BFF0123CE
:1007700034702B70002070BD091300200813002076
:10078000004870475903000000487047ED0400001E
:1007900038B50020FFF7E0FF044668B9FFF7F0FF27
:1007A0000546FFF7F1FF054BFF22C3F810541C600C
:1007B0005C60C3F814049A60204638BD0C13002016
:1007C0000120FFF7C9BF00BF2DE9F041224C0646CA
:1007D00000200D46A76800F0F1FFA2686368D4F816
:1007E000008013440133C8EB0303012B1BD8ABB1CA
:1007F0000121002361F301036FF38203052161F3FB
:10080000C50308EA0202154904EB82026FF389135B
:1008100008F1010761F39F232760D3600020BDE842
:10082000F04100F0D3BF08F101030020236000F085
:10083000CDFF0122002362F301036FF3820307EA75
:10084000080766F3C50304EB87046FF3891365F3A8
:100850009F23E360BDE8F0810C130020842C01008D
:100860002DE9F843264C8046002016460F46A56821
:1008700000F0A4FFA2686368D4F800901344013329
:10088000C9EB0303022B1BD8ABB10121002361F399
:1008900001036FF38203052161F3C50309EA020234
:1008A000184804EB82026FF3891309F1010160F328
:1008B0009F232160D3600020BDE8F84300F086BF8D
:1008C00009F102030020236000F080FF01220023D1
:1008D00062F3010309EB02016FF3820305EA0909E0
:1008E00068F3C5030D4004EB890962F3891304EB37
:1008F000850467F39F23C9F80C30E660BDE8F883F0
:100900000C130020842C01002DE9F0472A4C81466D
:10091000002017461E468846A56800F04FFFA268D3
:100920006368D4F800A013440133CAEB0303032B1C
:100930001BD8ABB10121002361F301036FF38203E4
:10094000052161F3C5030AEA02021C4804EB820296
:100950006FF389130AF1010160F39F232160D360D3
:100960000020BDE8F04700F031BF0AF1030300208A
:10097000236000F02BFF0122002362F301030AF140
:10098000020052446FF3820305EA0A0A2A4069F31F
:10099000C5030221054004EB8A0A04EB820261F3DD
:1009A000891304EB850468F39F23CAF80C30D760E1
:1009B000E660BDE8F08700BF0C130020842C010026
:1009C0002DE9F84F2E4C0A9EA568824600209046DD
:1009D0001F46894600F0F2FEA2686368D4F800B0B2
:1009E00013440133CBEB0303042B1BD8ABB1012120
:1009F000002361F301036FF38203052161F3C50353
:100A00000BEA02021F4804EB82026FF389130BF119
:100A1000010160F39F232160D3600020BDE8F84FFF
:100A200000F0D4BE0BF104030020236000F0CEFEE2
:100A30000122002362F301036FF3820303206AF3B0
:100A4000C5030BEB020160F389130BF1020258445A
:100A500029402A4005EA0B0B054004EB8B0B04EB05
:100A6000810104EB820204EB850469F39F23CBF838
:100A70000C30C1F80C80D760E660BDE8F88F00BF8D
:100A80000C130020842C01002DE9F0474C4E96E811
:100A90000C009A428AB070D0B06804E0C4F38912A6
:100AA00002EB9452134400EA0305023506EB85027B
:100AB0000133546814F00302F0D0022A28D0C4F3A2
:100AC0008312C4F3952C002A75D00DF1100E7546D3
:100AD000D71800EA030106EB81010133C96845F824
:100AE000041BBB42F5D10092C4F3C20073466246B8
:100AF000D6F81044324D0021A04738B177603068F5
:100B0000C01B18BF01200AB0BDE8F0876F68F6E788
:100B100003F1010A20EA0A010340013106EB8303D5
:100B200089004FEA94588845DA68DFF894E0C4F306
:100B3000891326D9A9B300EA0A0C5FFA81F90EEBF2
:100B40008C0CC9EB08010CF10C0C0EF10C00C9B2B5
:100B500003910290CDF80490CDF800C00021C4F3B9
:100B6000C200D6F81474B847404520D006EB85057E
:100B700060F38F146C607768C1E700200AB0BDE8AD
:100B8000F08700EA0A000EEB80000C308DE80101CE
:100B90000021DEF8149403910291C4F3C200C84707
:100BA000E2E70EF10C0C08465FFA88F9D0E7033053
:100BB0000AEB9007A2E71F460DF1100E93E700BF66
:100BC0000C1300202DE9F84F244B1A788AB3DFF874
:100BD00090B0DFF89090DFF890A00024012703E0A8
:100BE0000134E4B2944224D226B2D9F80050DBF8A2
:100BF000003015F8360007FA00FE1EEA030F05EB79
:100C0000C608EDD0164A23EA0E03136008F0E4FB91
:100C100015F83650DAF8003007FA05F6334000FAD6
:100C200005F6B34207D00D4B01341A78E4B2944272
:100C3000DAD3BDE8F88FD8F80430002BF3D098F859
:100C40000110A1F10101B1FA81F14909091AB1FAC2
:100C500081F1490928469847E5E700BF2C17002095
:100C600054170020281700205017002070B50646A2
:100C7000114800F06DFD40B9104D01242B68B440BF
:100C80001C4203D023EA04042C6070BD304608F0F7
:100C9000A3FB0B4A136860B123432E680949136014
:100CA00034432C60044809680022BDE8704000F01D
:100CB000FFBC23EA0403F0E730170020541700209C
:100CC0005017002024170020042A01D8072070475D
:100CD0002DE9F04182B088460546174608F048FAEB
:100CE000002834D01C4C1D481D491E4A1E4B25604F
:100CF000002608F1FF340F6080F8008016601E6047
:100D0000E4B20327B8F1000F03D11AE0DBB2C4B19B
:100D10001C4623B205EBC30215F833009378134A3F
:100D20008DF8053001A98DF804708DF806608DF8F6
:100D3000076008F027FA631E0028E7D002B0BDE87C
:100D4000F0810B4A0B48002100F0A0FCF6E708F008
:100D5000CDF90028C6D0F1E7281700202C17002075
:100D60002417002050170020541700206D0C00009D
:100D7000C50B0000902C010070B5084D2B785BB1BD
:100D8000074E00243368012113F8340008F0C2FA3A
:100D90002B780134A342F5D8002070BD2C17002019
:100DA0002817002000B585B000230390194601AA3A
:100DB00044F20100ADF80430029300F003F805B0EE
:100DC0005DF804FB08B510490120FFF7FDFCFFF7B3
:100DD000F7FCFFF759FE0028FBD10C4B1B68DB0723
:100DE00000D5FFDE0A490320FFF7EEFCBFF34F8F6B
:100DF0000849094BCA6802F4E0621343CB60BFF3B1
:100E00004F8F00BFFDE700BF942C0100F0ED00E024
:100E1000A42C010000ED00E00400FA05F8B5204A1A
:100E2000204B0025C2F84051C2F84451C2F8485145
:100E3000C2F84C51C2F80051C2F804511B6813B3F8
:100E40001949D2F804250C68141B1A6824F07F4451
:100E5000A2422F4609D8197CDE69A41A154499B913
:100E60001EB133461A68A242F5D9104B10491A78C0
:100E70000B789A420DD00F490F4A41F823504FF496
:100E80008013C2F80031F8BD1F745A699869904701
:100E9000E6E7531CDBB2022B08BF00230B70EAE726
:100EA000001001405C170020581700206017002038
:100EB000611700207018002000E100E02DE9F04FDC
:100EC000884A89491378097899428BB037D0013321
:100ED000DBB2022B08BF002384491370844A0E68DA
:100EE000029152F82300834905910B680299321848
:100EF000002522F07F420A602C462946AE46ABB15F
:100F00001A68824200F2E681DD68C3F800E0801AC8
:100F10001444DA6935B1371927F07F47D9619D60EC
:100F20005F60194613460125002BE9D1002D40F0E2
:100F3000DC820023069301230893069A08E06D4B98
:100F400005931B68694A02920021069308911A468C
:100F5000694BDFF8AC811B780393059B1B681C462B
:100F6000029B1F680023BA460F460993C3460793A6
:100F7000994618464FF0010E0193A4463FB37D6891
:100F8000BE683946FF695D4BCAEB050424F07F4417
:100F90009C423CD8A3190B604860886081F810E03F
:100FA000C861002A68D015689D4249D2164603E000
:100FB00025689D4234D22646F4695B1B002CF7D18C
:100FC000CC610B601446F1612246002FD7D198F80E
:100FD000003098F80110994200F09480591C03EBFE
:100FE00043039BF8024008EBC303C9B28C421C794F
:100FF0008BF8001008BF8BF80070022C99684ED057
:10100000032C3FD0012C24D014462246DDE7C5EB4B
:101010000A0525F07F45B54209D2731B0B60BBE77B
:10102000ED1A2560CC610B601446F161CCE70860D5
:101030004860886081F810E0C861EAB11568002353
:10104000EB1A0C4613608C46CA614FF00109224628
:10105000BBE70C7C0494002CD6D1DD684D601E6982
:101060008E605C69CC609B698B61039B002B8AD08E
:10107000049B4B601D4686E70C468C464FF00109E9
:101080002246A2E70AB9BFE71A46D3691074002BBB
:10109000FAD11C469C464FF00109224695E752B111
:1010A000914200F00B81134602E0B14207D0334673
:1010B000DE69002EF9D114460874224685E799426C
:1010C00000F0FE801446F5693668DD6115B12B68C5
:1010D00033442B60019B0874A24218BF0123019383
:1010E000EBE700BF601700206117002058170020B1
:1010F000701800205C17002062170020FEFF7F00A0
:10110000641700205746DDF804A0B9F1000F40F045
:101110004981079B002B40F0E581099B002B40F0A3
:10112000DC81BAF1000F03D1069B9A4200F03F81A7
:10113000002A00F041816C49029BD1F804051B682C
:101140006A4C17682578C21A22F07F420332002DBC
:1011500051D1674DDFF89CC1DFF89CE14FF4803638
:10116000C1F84463C1F804634FF40036C5F88061E8
:101170002E6001250D60DCF800602F2100BF00BF4C
:1011800000BF00BF00BF00BF00BF00BF76452FD02B
:1011900000BF00BF00BF00BF00BF00BF00BF00BF57
:1011A00000BF00BF00BF00BF00BF00BF00BF00BF47
:1011B00000BF00BF00BF00BF00BF00BF00BF00BF37
:1011C00000BF00BF00BF00BF00BF00BF00BF00BF27
:1011D00000BF00BF00BF00BF00BF00BF00BF00BF17
:1011E00000BF00BF00BF00BF00BF00BF00BF00BF07
:1011F0000139C3D1257097422CBFDA199A183A49A0
:1012000022F07F43C1F84035D1F80425121A1B1A89
:1012100022F07F4223F07F4303329A4248D9D1F82B
:101220000435344AC1F84035126833492F2300BFD2
:1012300000BF00BF00BF00BF00BF00BF00BF8A42A9
:101240002FD000BF00BF00BF00BF00BF00BF00BF66
:1012500000BF00BF00BF00BF00BF00BF00BF00BF96
:1012600000BF00BF00BF00BF00BF00BF00BF00BF86
:1012700000BF00BF00BF00BF00BF00BF00BF00BF76
:1012800000BF00BF00BF00BF00BF00BF00BF00BF66
:1012900000BF00BF00BF00BF00BF00BF00BF00BF56
:1012A00000BF013BC3D1124B4FF40032C3F8002101
:1012B000124A002313700BB0BDE8F08F1646134698
:1012C000D2F81C90B9F1000F1AD0CC464C464FF022
:1012D0000109F8E6002D62D1121A1A600693012363
:1012E0000893069A34E600BF0010014078180020E9
:1012F00000E100E0601100200024F40062170020EB
:101300007B4C7C4DC4F808E07B4C4FF02F0C2468DC
:1013100000BF00BF00BF00BF00BF00BF00BF00BFD5
:10132000AC422FD000BF00BF00BF00BF00BF00BF56
:1013300000BF00BF00BF00BF00BF00BF00BF00BFB5
:1013400000BF00BF00BF00BF00BF00BF00BF00BFA5
:1013500000BF00BF00BF00BF00BF00BF00BF00BF95
:1013600000BF00BF00BF00BF00BF00BF00BF00BF85
:1013700000BF00BF00BF00BF00BF00BF00BF00BF75
:1013800000BF00BFBCF1010CC2D101242546099465
:10139000CC464C46CA4603950795A94693E6059C5C
:1013A000236099E7059B1946C1F800C0B1E6089B88
:1013B000002B3FF47DAFBBE64D49504B4E4E4D4C9C
:1013C0004FF480304FF400370125C3F88070C1F826
:1013D00048032F23C1F808034D6030681E4600BF44
:1013E00000BF00BF00BF00BF00BF00BF00BFA042E2
:1013F0002FD000BF00BF00BF00BF00BF00BF00BFB5
:1014000000BF00BF00BF00BF00BF00BF00BF00BFE4
:1014100000BF00BF00BF00BF00BF00BF00BF00BFD4
:1014200000BF00BF00BF00BF00BF00BF00BF00BFC4
:1014300000BF00BF00BF00BF00BF00BF00BF00BFB4
:1014400000BF00BF00BF00BF00BF00BF00BF00BFA4
:1014500000BF013EC3D18D6002990A6000BF00BF8A
:1014600000BF00BF00BF00BF00BF00BFA0422FD021
:1014700000BF00BF00BF00BF00BF00BF00BF00BF74
:1014800000BF00BF00BF00BF00BF00BF00BF00BF64
:1014900000BF00BF00BF00BF00BF00BF00BF00BF54
:1014A00000BF00BF00BF00BF00BF00BF00BF00BF44
:1014B00000BF00BF00BF00BF00BF00BF00BF00BF34
:1014C00000BF00BF00BF00BF00BF00BF00BF00BF24
:1014D000013BC3D10A4B1A70EAE60A4B9DF80C1087
:1014E00019701EE6029B1F6017E6059A136020E53F
:1014F000001001400024F4006011002000E100E031
:101500007818002062170020F0B4564B564A574E08
:10151000574C4FF480304FF400310125C2F8801051
:10152000C3F848032F21C3F808035D6030680E46F6
:1015300000BF00BF00BF00BF00BF00BF00BF00BFB3
:10154000A0422FD000BF00BF00BF00BF00BF00BF40
:1015500000BF00BF00BF00BF00BF00BF00BF00BF93
:1015600000BF00BF00BF00BF00BF00BF00BF00BF83
:1015700000BF00BF00BF00BF00BF00BF00BF00BF73
:1015800000BF00BF00BF00BF00BF00BF00BF00BF63
:1015900000BF00BF00BF00BF00BF00BF00BF00BF53
:1015A00000BF00BF013EC3D19D6000BF00BF00BFB0
:1015B00000BF00BF00BF00BF00BFA0422FD000BFD0
:1015C00000BF00BF00BF00BF00BF00BF00BF00BF23
:1015D00000BF00BF00BF00BF00BF00BF00BF00BF13
:1015E00000BF00BF00BF00BF00BF00BF00BF00BF03
:1015F00000BF00BF00BF00BF00BF00BF00BF00BFF3
:1016000000BF00BF00BF00BF00BF00BF00BF00BFE2
:1016100000BF00BF00BF00BF00BF00BF00BF013957
:10162000C3D1144E144D154C1549164F002030707F
:10163000286020704FF48015E0240B260870487055
:101640008E7038701049C2F8805182F814431560CA
:10165000C3F8080582F81143D3F804350B60F0BCD9
:10166000704700BF0010014000E100E06011002061
:101670000024F400781800205C1700206017002078
:10168000641700206117002058170020074B9B7833
:101690000BB9082070473AB130B10368187C0028B4
:1016A000F7D159745A6170470720704764170020BA
:1016B0002DE9F041234CA37813B90820BDE8F0814F
:1016C0000028FAD0042902D80720BDE8F081436938
:1016D000002BF2D0437C0546012B4FF000000CBFDD
:1016E0008846804617460E4600F068F86378A07872
:1016F00021785A1CD2B2904208BF002291421AD0DF
:1017000003EB430304EBC30301200F499D601871F1
:10171000D1F80415D9601E61C3F814809F610020C0
:10172000627000F053F8094B4FF48012C3F80021A7
:101730000020BDE8F081002000F048F80420BDE85A
:10174000F08100BF641700200010014000E100E0BC
:1017500070B5184DAB780BB9082070BD0028FBD0D0
:101760004369002BF8D0002404740646204600F09C
:1017700025F86A78A8782978531CDBB2984208BF0C
:101780002346994211D002EB420205EBC20202212C
:101790002046966011716B7000F018F8064B4FF4FC
:1017A0008012C3F80021204670BD204600F00EF8DC
:1017B000042070BD6417002000E100E072B6024A08
:1017C00013680133136070477C180020034A1368C4
:1017D000013B136003B962B6704700BF7C1800205C
:1017E000F0B52B4C2B4F6368668883B0002B48D034
:1017F00036015A88B9190332496803EB820201F5B0
:101800008050824225D21368013318BF4FF6FF750E
:101810001FD09388AB4213D013888BB162601E48EF
:101820005388868801681D480025033300959BB2C4
:1018300001EB86010325257001F086FA03B0F0BDA7
:101840005388033302EB8302824202D213680133CE
:10185000DFD13E44B38963B10F4D10482968022798
:10186000052600230122AF80267001F0C5FA03B0DF
:10187000F0BD0122094801F0BFFA0423237003B030
:10188000F0BD3601BB19596801F10802B7E700BF86
:10189000F8180020D818002080190020DC12002041
:1018A000F0B543688E464BB1304A1468A34205D365
:1018B0005268934202D813F0030236D000232C4E14
:1018C000AEF800304FF0010C4FF6FF75776800233B
:1018D00007F58054C3B15A88033203EB82039C425C
:1018E00016D91A68013213D09A88AA42F3D01A88FE
:1018F000002AF0D0026899689142EBD11D4A4360FA
:10190000138903810120F0BD07F108039C42E8D848
:101910000CF10103AEF800C01FFA83FCBCF1030F09
:1019200006F11006D2D10020F0BD124C05892489A1
:10193000A542C3D105689C68A542BFD10C4C606824
:10194000834205D900F58050834201D2134608E056
:1019500062699342E7D902F58052934238BF01236E
:10196000E1D2AEF800300120F0BD00BFDC12002053
:10197000D8180020F8180020B3F804C0BCF1010FFB
:1019800054D82DE9F043DFF8AC8091464FF6FF774D
:1019900000224FEA0C1408EB040E18F80440002C47
:1019A00033D11C68002C3CD06588DEF80460033518
:1019B00004EB850406F58056A64225D92568013535
:1019C00022D0A588BD4219D02588BDB11C6018B1B0
:1019D000A6880588AE42E5D119B126880D88AE42A9
:1019E000E0D1A268C9F800201A68114BC9F8042098
:1019F0001B89A9F808300020BDE8F083658803350D
:101A000004EB8504B442D9D31A600CF1010C1FFA1F
:101A10008CFCBCF1020FA3F804C0BAD10A20BDE8C7
:101A2000F083DEF8046006F10804C3E70A2070477B
:101A3000F8180020D81800202DE9F04FB34C256F7E
:101A4000EB005E1BB6008BB0A25D0293531E804676
:101A500004EB060BA146052B00F2E482DFE803F05D
:101A60006948481E1E03002840F0DD80DFF8B8E218
:101A70009EF80C30002B00F02F839EF800308EF87B
:101A80000C00013B062B00F2CC82DFE813F0FD02D4
:101A9000AA0294017401CA02B5028F02002840F024
:101AA000C380029B5B1B04EB83031F4693F804A0D7
:101AB000BAF1010F00F05683C0F03F83BAF1020F74
:101AC00041F61D5318BF0F2341F61D518B4200F004
:101AD000B18019F8061006938B1E012B40F2CB80C3
:101AE000013A052A36D8DFE802F07A967E6A5C323F
:101AF000029B87495B1B04EB83030F46B3F812A0DC
:101B000001EB0A1A002840F0A080BAF80800DAF8C1
:101B100004101B7C01EB80010391062B00F29783DC
:101B2000DFE813F06101AE018E010102EA01CF018D
:101B3000CC01002840F081809BF80430032B00F298
:101B40008483DFE813F00B01F500D300A200052326
:101B50008DF814306F4D05F1200655F8043F0BB198
:101B600005A89847B542F8D1206F684DC0EBC0007A
:101B700004EB80001C220021FEF7E4FB636F43B1FD
:101B80002A6F0132013B02F003026B672A67002BC8
:101B90006BD1614A137823F0040313700BB0BDE8D6
:101BA000F08F029B5B1B04EB83030422DB88ADF800
:101BB000203000238DF81420ADF82230CAE7029BB4
:101BC0005B1B04EB83030322D8881989DB68079326
:101BD000ADF82000ADF822108DF81420BAE70023EC
:101BE0008DF81430B6E7029B5B1B04EB83030221E4
:101BF0001A7C1E899D88D868ADF82060A2F1060382
:101C0000B3FA83F35B098DF82430ADF822500790C6
:101C10008DF814109EE7029B5B1B04EB83030122EB
:101C200018899988D2E70622012341F61D518B427B
:101C30007FF44FAF0023069352E737490B78012218
:101C400023F001030B7013463EE7D888BAF80A3038
:101C5000BAF8081000F1030E1B1A033B7144AAF8EE
:101C60000A30AAF8081001232EE70020FFF7E4FE4F
:101C70000BB0BDE8F08F294B9BF81660186C596CBF
:101C80003044891B186459642AE7DFF8A080244A8D
:101C9000D8F8001023484FF0000A0223CDF800A026
:101CA00001F052F8204B1A495B88D8F800E08BF815
:101CB00004A01B01CA1801F803A05368B8F8041067
:101CC000C8F800300223C2F804E01181A8F80430FB
:101CD00000283FF463AF029B5B1B14F823200E49DE
:101CE0000B7823F001030B700E23EDE6DFF83C8048
:101CF0000C48D8F800100023012201F07DF80222E0
:101D00000023A8F804208BF80430E1E7081900202C
:101D1000D81800208C1900208C1900208018002071
:101D2000CC2C0100DC120020F818002080190020C3
:101D3000BD4B19461F461B78022B00F083820B7C9B
:101D4000022B00F06C82B94A137843F0020323F0AF
:101D500001031370012241F61D53B5E6B44BB54A99
:101D60001968B54800230093022300F0EDFF01231A
:101D70008BF80430ACE7AC4BBEF80220DFF8D08221
:101D800003EB02129389002B00F01C82A84BAA4897
:101D9000196802229A800522002388F80020012277
:101DA00001F02AF80346002B3FF4F8AE1C2202FB98
:101DB00005F2A25C8DE69E49DEF80420B1F804C06D
:101DC000096853889C4801EB8C014FF0000CCDF85A
:101DD00000C003334FF0030C9BB28EF800C000F03C
:101DE000B3FF0346DFE7029B039993485B1B9B000D
:101DF00004EB03081F460023009308F104020123AB
:101E000000F0A2FF022388F8103000283FF4C6AE8D
:101E10008A4AD25D0E230299481B04EB8000BAF86F
:101E20000A10B0F806E0BAF808000EF1030CCEEB89
:101E3000010160440339AAF80800AAF80A1043E631
:101E4000029B03997C48C5EB03084FEA88080023EE
:101E500004EB080208310C320093012300F074FFF8
:101E600004EB080375499A7D002A0CBF0122032266
:101E70001A7400283FF492AE11F808200E23CAE726
:101E8000029B03996C48C5EB03084FEA880804EBF2
:101E900008031F463A460023083200930431012309
:101EA00000F052FF14F80820032A0CBF0523062374
:101EB0003B7400283FF472AE0E23ACE741F61D538D
:101EC000A9E75F4B5F4AB3F8008051685A485E4A01
:101ED00000230093012300F037FF029B002840F00D
:101EE0006A815D1B04EB850407EB081806220123B9
:101EF000227488F80E3051E6029B51495B1B4FEA71
:101F0000830804EB08024F4B92691A6018460022BE
:101F10005A60FFF7C5FC00287FF465AF474B13F804
:101F200008200A23D0E5DFF82CE1DEF844C0BCF13C
:101F3000000F00F02281029ADEF840103E48C5EB07
:101F4000020804EB88085EF831200EEBC103013172
:101F50000CF1FF3C01F00701CEF84010CEF844C070
:101F60000399B8F814E001EB8E014FF0000E1F4604
:101F70009B88CDF800E000F0E7FE98F81630B8F83E
:101F80001410BA88013B0A44DBB2A8F8142088F880
:101F9000163013B9012388F8103000283FF4FEAD45
:101FA000029B5A1B0E2314F8222034E7204B214AAF
:101FB0001968214800230093CEF8043007238EF8D7
:101FC0000030022300F0C0FE0346ECE6184ADEF8BB
:101FD0000410938849880B440333022193808EF8C0
:101FE0000010FFF7FDFB0346002B3FF4D7AD1C228A
:101FF00002FB05F2A25C67E5BEF802300A4A1B014B
:1020000017463A461A4413460620002259680092A1
:1020100002238EF800000D4A074800F095FE0346A3
:10202000C1E606220F234FE5D81800208C190020A6
:1020300080190020C42C0100DC12002008190020A7
:10204000C8180020CC180020C02C0100CC2C0100A6
:10205000F818002080180020864BBEF808101A7867
:102060001B7CB2FA82F2B3FA83F352095B090131A5
:102070008EF80A208EF80B3000220123AEF80810EB
:102080008EF80C208EF800309EF80A307A4A43B160
:1020900078498B89002090721BB98A7B002A40F016
:1020A000B6809EF80B30744A43B1724B998B002076
:1020B000D07219B99B7F002B40F0A880029B5A1B5D
:1020C00000238EF80030AEF80230CEF8043014F859
:1020D000222041F61D53F7E49EF80030072B3FF60F
:1020E000D0AC01A252F823F059200000831A00005E
:1020F000831A0000CD1F000011210000AD1F000059
:10210000AD1F00000921000001238EF80030BBE75D
:10211000584ABEF80230114617461B01574AC818E4
:102120001168D0F80480B2F804C041600221C2F8FE
:102130000080A0F808C0918063E7DB68CDF81880C4
:1021400005A80DF11201CDF81C800593FFF7A8FB3F
:10215000002843D10A23029A521B04EB8202022177
:10216000117120E6464B1B789B0709D401460822D3
:102170004448FEF7E7F8022339E7DCF80030FFDED9
:10218000384606303F4B05AA4146FFF7F5FB0028CD
:102190005FD13C4FCDF8008006993B4A3B48B7F8E9
:1021A0000480534600F0D0FDB0B9324B03EB081366
:1021B00083F80EA0F2E45B1B9B00E1180620E25CB2
:1021C000087479E651683148012200F015FE0422B6
:1021D000034688F80020E6E50E2308E706992A4A18
:1021E0008B88FB80B1F800E02848CDF800800123FF
:1021F000A7F808E0BDF812A000F0A6FD68B91D4AD6
:1022000002EB0A12012143469173A4E70123AEF8C1
:102210000230FFF7E5FA0346E6E60E239BE74FF0B0
:10222000010A4FEA0A1A3B4653444FF00008596826
:10223000174ACDF800800223144800F085FD07F806
:102240000A8045E54FF0000AEBE7012247E50F233E
:10225000E1E50390414608220A48FEF773F8039B24
:102260000C491C2202FB05F20A2B08BF41F61D5344
:102270008A5C29E4D8180020F81800208019002072
:102280008C190020B0190020C02C0100DC120020A5
:10229000CC2C0100081900200846FFF7CDBB00BF79
:1022A0002DE9F04F0F894C6885B006463D46002F5A
:1022B00000F0AE80206810F0030040F095809E464C
:1022C00004E054F830309B0740F08E8001308742A4
:1022D000F7D17346002A00F08B80B2F80090528844
:1022E0000094BB466548DFF8A8C10768DCF8748035
:1022F000032B07F10107076003BF306803904FF01D
:10230000040A4FF0000AB8F1030F60D8DFF870E15B
:10231000DEF844000446C5F108008442019456D812
:10232000DCF870000C884988029108EB000101F08C
:102330000301C1EBC10189000CEB01000CF8013075
:10234000C280039A826108F101080023BDF80810D9
:1023500081804FF003020481C76080F810A0A0F8CC
:10236000129080F816B082824381CCF87480E5B177
:10237000DEF84020019C144404F00702009C0EEBA0
:10238000C2020EF1380804EBC30103C9013302F1A4
:10239000080C82E80300424514BF624672469D4223
:1023A0003749F0D14B6C2B444B6436B10023354A8E
:1023B000376073601289B372328133490B7803F04E
:1023C000040202F0FF04002A41D0002009E02F4B54
:1023D00003EB09190820B9F80A30033B9A1AA9F847
:1023E0000A2005B0BDE8F08F032005B0BDE8F08FEE
:1023F00004EBC70EA08808340244A64592B2F9D176
:10240000D01C80B240F2FD34A04205D90920E8E793
:10241000002A7FF462AF03201C4C94F80090B9F1BD
:10242000000F07D1678925893D440544ADB2B5F554
:10243000806F21D3277C154D3FB96F8B2D8B3D4489
:102440000544ADB2B5F5806F09D30720C9E743F065
:10245000040320460B70FFF7EFFA2046C1E74FF068
:1024600001094D4604EB051438446081B1F808B009
:10247000486800905D4635E74D46F3E7881900202F
:1024800080180020F81800208C190020D81800208F
:1024900008190020074A1378082B09D010B4591CDA
:1024A000054C117044F8230000205DF8044B704780
:1024B0000C207047CA180020901900202DE9F04F19
:1024C000DFF8F0828DB098F800200023089307937E
:1024D00009930A930B9393070DD5AF4C04F1200594
:1024E00054F8043F07A803B19847A542F8D100204B
:1024F0000DB0BDE8F08F12F00107F8D142F00102F3
:1025000088F8002000F0C4FBA44BA54A1B6816689D
:10251000039703F53F5A0AF13C0A03F1080903F552
:1025200080500197043BBB464FF6FF74CDF808A0DE
:102530005A689C498A4203F1040559D003F5805238
:1025400002E0934200F0008153F8041F0131F8D0FB
:102550004FEA0B13944D03210BF1010BE9541FFAC1
:102560008BFB1346029A9A4209F5805900F5805078
:10257000DED1002F40F00C819DF804300B2B0FD8DA
:10258000DFE813F0C4000C00C4000C000E00DF00F4
:10259000CC00DF000E00C900C600C9000023049370
:1025A000824A516F032912D8814B5B6C082B0ED8DD
:1025B000136F0B4403F00303C3EBC3039B00D0185A
:1025C0000124D45401319DF810300371516798F8FB
:1025D0000030784903F0040202F0FF04002A86D19B
:1025E00043F0040320460B70FFF726FA20467FE7EE
:1025F0009A6871498A4234D001318A429ED1039A45
:10260000002A6BD16D490D604FF0020EA1F804E075
:10261000DA6801324D4604D1B8E02A68B2F1FF3FD2
:1026200014D0AA88A24206D02A8822B1AA68B2424F
:1026300001D9164601276A880332964405EB8205C4
:102640001FFA8EFEA842A1F804E0E6D8BEF1020F00
:1026500014BF0822042201991143019103F580520D
:102660007FE7514A4FEA0B1C02EB0C0E4FF0000AB9
:1026700002F80CA00221CEF80450AEF80810DD6874
:1026800001354A4612D11AE09568B54201D92E4665
:10269000012755880335294402EB850289B290420F
:1026A000AEF808100BD91568013508D09588A542F9
:1026B00002D01588002DE7D14FF0010AE9E73A4A28
:1026C0009444019A8CF80EA042F002020BF1010B27
:1026D00001921FFA8BFB03F5805242E7324A4FEA20
:1026E0000B1102EB010C354A126805922E4A4FF08D
:1026F000020E02F801E00BF1010B059A2F49CCF80C
:1027000004201FFA8BFBACF808E07CE70B20EFE617
:102710000223049344E70323049341E798F800302D
:102720001D4C43F0020323F0010388F8003004F14C
:10273000200554F8043F07A803B19847A542F8D1F3
:10274000D5E6012304932BE71C4B1B68BBB116494C
:102750004FEA0B1301EB030E1949CEF80450124D4A
:10276000A1F802B002210BF1010CE9541FFA8CFB15
:10277000AEF80810019B43F001030193F1E60F4905
:1027800002238B8001230D600393F3E7042262E7A9
:10279000034B1E60F0E600BF8C190020DC12002005
:1027A00088190020DEC0ADDED818002008190020EE
:1027B000801800208C190020FE011EF180190020D5
:1027C000F818002060B159B130B583B00C460DF156
:1027D00006010546FFF764F820B90A2003B030BDB2
:1027E00005207047BDF80620074B686803EB02130D
:1027F00001219A890A449A8120606B6800200C3379
:102800006360A97203B030BDD818002050B110B574
:1028100082B00DF106010446FFF742F820B90A2004
:1028200002B010BD05207047BDF80620084B03EB31
:1028300002139A8912B9062002B010BDA17A0029AC
:10284000F9D00021013A9A810846A172E8E700BF59
:10285000D81800201E4B1B789B0702D40223184671
:10286000704740B1CB1C9BB240F2FD32934205D978
:1028700009231846704705231846704770B4154A57
:10288000167896B95489158925441D44ADB2B5F51D
:10289000806F0AD2354602EB05122344538106802D
:1028A00041800023184670BC7047147C094D54B910
:1028B0006C8B2D8B25441D44ADB2B5F5806F02D2D3
:1028C00001263546E7E70723184670BC704700BF6E
:1028D0008C190020D8180020124B1B789B0702D4BB
:1028E000022318467047C8B10388022B02D904237B
:1028F0001846704710B40C49448801EB03135A89F9
:10290000111B03290CD4033A0021121B5A810B46D8
:102910000180418018465DF8044B70470523E0E7CD
:102920000423F7E78C190020D81800200D4B1B78E2
:102930009B0701D40220704759B110B40C884FF6A0
:10294000FF739C4201D04B882BB904205DF8044BE7
:10295000704705207047022300225DF8044BFFF703
:102960009FBC00BF8C1900203AB130B40C4C2478C5
:10297000A30704D4022030BC70470520704769B11A
:102980000D884FF6FF74A54201D04B8813B904207F
:1029900030BC7047022330BCFFF782BC0520EAE759
:1029A0008C19002028B10E4A1278930703D4022014
:1029B0007047052070470029FBD010B40C884FF6F3
:1029C000FF72944201D04B881BB904205DF8044B80
:1029D0007047032300225DF8044BFFF761BC00BF82
:1029E0008C190020F8B51A4A1378990701D40220EF
:1029F000F8BD4FF6FF7188421DD0164D6C6F032C49
:102A00001BD81549496C082917D8296F214401F0B2
:102A10000301C1EBC10189006F18661C05246C54C9
:102A2000012403F004013C71F88001F0FF046E679B
:102A300029B10020F8BD0420F8BD0820F8BD43F0FE
:102A4000040320461370FEF7F7FF2046F8BD00BFD1
:102A50008C1900200819002080180020F8B5174AAA
:102A60001378990701D40220F8BD1548416F032956
:102A70001AD8144C646C082C16D8046F124D0C44F0
:102A800004F00304C4EBC4042E780131062700F8D7
:102A9000247041670EB10121297303F0040101F094
:102AA000FF0419B10020F8BD0820F8BD43F004036D
:102AB00020461370FEF7C0FF2046F8BD8C19002099
:102AC0000819002080180020F818002010B50C4CC0
:102AD00082B0ADF806002078ADF80410810702D46A
:102AE000022002B010BD3AB133B101A90DF10600C8
:102AF000FEF742FF02B010BD052002B010BD00BFBE
:102B00008C19002000B50D4B83B0ADF80600187885
:102B1000830703D4022003B05DF804FB51B14AB12E
:102B2000134600200A460DF10601FEF725FF03B00B
:102B30005DF804FB052003B05DF804FB8C19002050
:102B400000B50D4B83B0ADF806001878830703D4A9
:102B5000022003B05DF804FB51B14AB113460DF1F8
:102B600006000A460021FEF707FF03B05DF804FBEC
:102B7000052003B05DF804FB8C19002020B119B1C9
:102B800003680B60002070470520704770B50C4D3E
:102B9000696E042911D02B6E0B44032B88BF043BB4
:102BA000182202FB035406464B1C204600216B668C
:102BB000FDF7C8FB3460012070BD002070BD00BF70
:102BC000BC19002070B5304C636E84B07BB1256EAB
:102BD0006E00731904EBC3031A7A012A09D0022A82
:102BE00026D1988905F0D4FC112818D000BB04B078
:102BF00070BD70199A8ADB8A04EBC000D21AC168D2
:102C00000069B2F5806F4FEA8303B4BF92B24FF40C
:102C100080621944184405F0CDFC1128E6D11B4A06
:102C2000137823F0020343F00403137004B070BD63
:102C3000102268460021FDF785FB731904EBC303DE
:102C40001A7A012A17D0022A09D19A89DB89ADF8AC
:102C50000A20D21A0123ADF808208DF8003035443F
:102C6000ED00621963595268019268469B68092118
:102C7000984704B070BD1A699B8A029200218DF8B2
:102C80000010ADF80C30EAE7BC190020B81900209C
:102C90002DE9F0434FF010235D696B1C49D0DFF83C
:102CA000A48098F800C01CF0010F3FD1DFF890E03D
:102CB0002248CEEB0000000934D00EEB0011734621
:102CC00007461A6812B15A6802B1013F10338B42AD
:102CD000F7D13FB300260022194B9146F4B206E02B
:102CE000596839B10132904203F110030ED01968CE
:102CF0000029F5D1597B494588BFD4B202F10102C0
:102D000088BF8946904203F11003F0D124010EEBF5
:102D1000040301361A7B5D60B742A5EB02354EF81D
:102D20000450D8D14CF0010C88F800C00020BDE858
:102D3000F0834FF080535D692D03B0E7EC12002063
:102D4000DC120020B81900202DE9F041274C25782D
:102D5000EE0782B012D510B1254DA84203D2022051
:102D600002B0BDE8F081234DA842F8D252B149B17A
:102D700042EA0105AD0707D00620F1E7012002B0C5
:102D8000BDE8F0810320EBE70568A94201D20520E8
:102D9000E6E7466801EB8305AE42F8D30BB90420A1
:102DA000DEE7804601A81E4615460F46FFF7EEFEF9
:102DB00008B90720D4E701992378C1F80080019A67
:102DC0000898486013F006044FF00101D5601761C0
:102DD00096821172054A01D00020C1E743F0020338
:102DE0001370FFF7EFFE2046BAE700BFB8190020C6
:102DF000DC120020EC1200202DE9F041244C257853
:102E0000ED0782B010D510B1224DA84203D20220A6
:102E100002B0BDE8F081204DA842F8D241B1C1F323
:102E20000B053DB10620F3E7012002B0BDE8F081BB
:102E30000320EDE70568A94201D20520E8E74668CE
:102E400001EB0235AE42F8D30AB90420E0E7804630
:102E500001A81E4615460F46FFF798FE08B9072041
:102E6000D6E701992378C1F80080019A4E600220CC
:102E7000390B13F00604918115821072044A01D0B7
:102E80000020C5E703431370FFF79CFE2046BFE711
:102E9000B8190020DC120020EC12002020B1034BF6
:102EA0005B6E03600020704703207047BC19002050
:102EB0002DE9F047DFF8B082A94C98F80030266E73
:102EC000990784B079D5022800F0B680032840F035
:102ED000AF80A44D2B780133DBB2032B2B7040F273
:102EE000A780002710222F70394668467500FDF72D
:102EF00029FAAB1904EBC303E9461A7A012A00F058
:102F0000E180022A09D19A89DB89ADF80A20D21A18
:102F10000123ADF808208DF800303544ED0062192A
:102F20006359526801929B688D4F48460821984723
:102F3000636E013B6366002B40F0FD803A6E98F8AB
:102F40000010013221F00201042A88F800103A66CC
:102F500030D1002626666BB37500AB1904EBC303B2
:102F6000AA1904EBC202117A01293DD002297FD0AF
:102F7000102268460021FDF7E5F9AB1904EBC30305
:102F8000E9461A7A012A7ED0022A09D19A89DB8978
:102F9000ADF80A20D21A0123ADF808208DF80030D0
:102FA0003544ED00621963595268019248469B68A6
:102FB0000921984704B0BDE8F0875A0738D5626EFA
:102FC00003F0FB0388F80030002AF3D0750043F0CB
:102FD0000203AA1988F8003004EBC203AA1904EB13
:102FE000C202117A0129C1D1D38AAA1904EBC20203
:102FF000A819928A04EBC000D21AC1680069B2F520
:10300000806F4FEA8303B4BF92B24FF480621944D9
:10301000184405F0CFFA11282FD198F8003023F08A
:10302000020343F0040388F8003004B0BDE8F087E1
:10303000636E002B90D1BDE77500AB1904EBC3079D
:10304000484A3B7A4FF0000A012B82F800A023D0B7
:10305000022BEDD1FB89BA89398A01339BB2013247
:103060009942FB81BA8155D0636E002BA2D03B46BA
:10307000988905F08DFA1128CFD000287FF478AF19
:1030800004B0BDE8F0871A699B8A029200218DF88E
:103090000010ADF80C3083E7FB8AB88AC21AB2F58B
:1030A000806FB4BF92B24FF480621344A9199BB2EF
:1030B00004EBC1079842FB82294A0BD0526E002ACA
:1030C00093D177E71A699B8A8DF800700292ADF868
:1030D0000C3022E7684610220021FDF733F93B7AD5
:1030E000012BE94632D0022B09D1FA89BB89ADF810
:1030F0000A309B1A0122ADF808308DF80020AB1978
:10310000DB00E218E3585268019248469B68144F6E
:1031100000210CE7684610225146FDF713F93B7A6F
:10312000012BE946DFD13A69BB8A8DF800A00292F3
:10313000ADF80C30E3E73E6E0136042E3E663FF4F8
:1031400008AF7500AB1907EBC30309E73A69BB8AFF
:10315000ADF80C3000218DF800100292CFE700BFCF
:10316000BC190020241A0020B8190020F8B5044624
:1031700000200E46FEF722FB2368A56819685A68EE
:10318000AA4234BF01320022914212D05F685A68CD
:1031900095420BD800225A60E268531E072B4ED886
:1031A000DFE803F035394D274D4D4D1001325A609F
:1031B000F2E7227C002A33D004240020FEF706FB2D
:1031C0002046F8BD6068D6E9002300EBC700C0E9DF
:1031D000002321680D684B689D4213D85B1B8A68E9
:1031E0009A4238BF8B6000240020FEF7EFFA204699
:1031F000F8BD6368326843F8272021680D684B6882
:103200009D42EBD95A1CA068531B0344E7E763684F
:103210003278DA55DDE76368328823F81720D8E77B
:103220005F6859688D4211D9013159602268A168DF
:1032300013688B4234BF013300231360ACE760682E
:10324000314607FB02000FF060F8C2E75A60EDE775
:1032500070B5044600200E461546FEF7AFFA236807
:1032600019685A68914211D018682DB91A68A16876
:103270008A4238BF551C1D60E268531E072B35D8A3
:10328000DFE803F01720342A3434340A0524002000
:10329000FEF79CFA204670BD616801EBC000D0E9E2
:1032A00000230024C6E900230020FEF78FFA204601
:1032B00070BD63681B5C337000240020FEF786FA43
:1032C000204670BD636833F810303380002400203E
:1032D000FEF77CFA204670BD636853F820303360F7
:1032E00000240020FEF772FA204670BD616802FBE0
:1032F000001130460FF009F800240020FEF766FAAE
:10330000204670BD10B504460020FEF757FA20682D
:103310000C220021FDF716F80020BDE81040FEF752
:1033200055BA00BF10B40023012401E0202B0AD0BD
:1033300004FA03F2024299B203F10103F6D00846FF
:103340005DF8044B70474FF6FF705DF8044B704713
:1033500098B191B130B40238002402E00134202C3D
:103360000AD030F8025F9542F8D13BB10A680123D8
:1033700003FA04F414430C6030BC70470B6801225C
:1033800002FA04F423EA04030B60F5E770B49DF835
:103390000C60C0B1B9B1B2B10238002402E001340E
:1033A000202C10D030F8025F9D42F8D1012303FA9F
:1033B00004F401EB820246B9E4430B68234041F870
:1033C000043B9142F9D170BC70470B68234341F82C
:1033D000043B8A42F7D00B68234341F8043B8A42FE
:1033E000F3D1F0E798B110B40238002302E00133C2
:1033F000202B0DD030F8024F9442F8D1012202FA6E
:1034000003F30B4214BF104600205DF8044B7047D5
:103410000020FAE7F0B491B100252B46012606FA08
:1034200003F4144205D000EB450431F81370A78073
:1034300001350133202BF2D10560F0BC70470D46F9
:103440000560F0BC704700BF002310B4194601248A
:1034500004FA03F202400133002A18BF0131202B85
:10346000F6D108465DF8044B704700BF064A4FF09E
:10347000A043105CD3F8043523FA00F000F00100FB
:1034800080F00100704700BFD82C0100044B195C8C
:103490004FF0A04201238B40C2F80C35704700BFAB
:1034A000D82C0100044B195C4FF0A04201238B4043
:1034B000C2F80835704700BFD82C01004FF0A04378
:1034C00010B44FF480204FF400344FF400214FF437
:1034D0008012C3F80845C3F80805C3F80815C3F8F7
:1034E00008255DF8044B70474FF0A04310B44FF42B
:1034F00080204FF400344FF400214FF48012C3F8C1
:103500000C45C3F80C05C3F80C15C3F80C255DF881
:10351000044B7047084B4FF0A0411B5CD1F80405E9
:10352000012202FA03F323EA00020340C1F808254E
:10353000C1F80C35704700BFD82C010030B44FF0F3
:10354000A04303224FF400354FF480244FF40020B1
:103550004FF48011C3F84427C3F84827C3F84C2719
:10356000C3F85027C3F80855C3F80845C3F8080541
:10357000C3F8081530BC7047064A4FF0A043105CF2
:10358000D3F8103523FA00F000F0010080F00100BC
:10359000704700BFD42C01000D2809D00E2809D097
:1035A0000F2809D010280CBF03204FF0FF307047C0
:1035B000002070470120704702207047014B185CC3
:1035C000704700BFD42C010070B4194B9A78C2B177
:1035D00093F8262002B393F84A20FAB193F86E20AC
:1035E000F2B193F89220EAB193F8B620E2B193F8E1
:1035F000DA202AB193F8FE20C2B1042070BC7047D3
:10360000062202EBC204A4001D1918530126AE7055
:1036100000200A6070BC70470122F2E70222F0E746
:103620000322EEE70422ECE70522EAE70722E8E7B7
:103630004C3300201B4B1A88824226D09A8C82423F
:1036400025D0B3F84820824223D0B3F86C208242C0
:1036500021D0B3F8902082421FD0B3F8B420824228
:103660001DD0B3F8D820824207D0B3F8FC208242A4
:1036700008BF072202D005207047062202EBC202D3
:1036800003EB82030020987070470022F6E70122C6
:10369000F4E70222F2E70322F0E70422EEE7052234
:1036A000ECE700BF4C33002010B42F4B1A88824245
:1036B00025D09A8C2C4C824228D0B3F848202A4C32
:1036C00082422CD0B3F86C20274C82422DD0B3F824
:1036D0009020254C82422ED0B3F8B420224C824256
:1036E0002FD0B3F8D820204C824230D0B3F8FC3031
:1036F0001D4A834231D005205DF8044B70479A780B
:10370000012AD6D100220A600020F5E794F826208D
:10371000012AF8D0B3F84820134C8242D2D194F851
:103720004A20012ACED10222EDE794F86E20012A28
:10373000CDD10322E7E794F89220012ACCD10422CC
:10374000E1E794F8B620012ACBD10522DBE794F813
:10375000DA20012ACAD10622D5E792F8FE30012BE1
:1037600008BF0722C7D1CEE74C330020194B1A8877
:10377000824222D09A89824221D01A8B824220D062
:103780009A8C82421FD01A8E82421ED09A8F824219
:103790001DD0B3F84820824207D0B3F854208242AB
:1037A00008BF072202D005207047062202EB420222
:1037B00003EB82030020987070470022F6E7012295
:1037C000F4E70222F2E70322F0E70422EEE7052203
:1037D000ECE700BF6C34002010B42C4B1A888242F6
:1037E00021D09A89294C824224D01A8B274C8242BC
:1037F00027D09A8C254C824228D01A8E234C8242A4
:103800002AD09A8F214C82422CD0B3F848201F4CEA
:1038100082422DD0B3F854301C4A83422ED005206A
:103820005DF8044B70479A78012ADAD100220A60C9
:103830000020F5E7A27B012AF9D01A8B134C8242B3
:10384000D7D1A27E012AD4D10222F0E794F8262013
:10385000012AD2D10322EAE794F83220012AD0D1FA
:103860000422E4E794F83E20012ACED10522DEE7C7
:1038700094F84A20012ACDD10622D8E792F8563092
:10388000012B08BF0722CAD1D1E700BF6C3400204A
:1038900000B583B001AA00F047FE08B1FDF782FA37
:1038A000019803B05DF804FB00B583B001AA00F0F5
:1038B000D9FE08B1FDF776FA019803B05DF804FB74
:1038C00000B585B00DF1060102A805F033FA002815
:1038D000F8D1029B1870BDF80630029804A9013B8C
:1038E00041F8043D013000F007FE08B1FDF75AFA37
:1038F000039B0298044A013399B2039305F028FA16
:1039000005B05DF804FB00BF9138000030B50446F7
:1039100085B00D460DF1060102A805F00BFA00284E
:10392000F8D1029B1870BDF80610029A04AB013959
:1039300043F8041D20462946013200F0F9FD08B184
:10394000FDF730FA039B0298034A013399B20393BF
:1039500005F0FEF905B030BDA938000000B583B010
:1039600001AA00F0B5FF08B1FDF71CFA019803B0F9
:103970005DF804FB00B583B001AA01F02DF808B191
:10398000FDF710FA019803B05DF804FB00B583B0B1
:1039900001AA01F0FFF808B1FDF704FA019803B09D
:1039A0005DF804FB10B582B002AB0C4C002243F86A
:1039B000042D226801F03EF918B9019830B902B01F
:1039C00010BDFDF7EFF901980028F8D0A088FFF7A7
:1039D00031FE0028F3D1019802B010BD281A002052
:1039E00000B583B002AA002342F8043D00F03AFF7C
:1039F00008B1FDF7D7F9019803B05DF804FB00BFEB
:103A000000B583B002AA002342F8043D01F070F82B
:103A100008B1FDF7C7F9019803B05DF804FB00BFDA
:103A200000B583B002AA002342F8043D00F0A2FFD3
:103A300008B1FDF7B7F9019803B05DF804FB00BFCA
:103A400000B583B002AA002342F8043D01F034F827
:103A500008B1FDF7A7F9019803B05DF804FB00BFBA
:103A600000B583B002AA002342F8043D00F0F8FF3D
:103A700008B1FDF797F9019803B05DF804FB00BFAA
:103A800000B583B002AA002342F8043D01F056F9C4
:103A900008B1FDF787F9019803B05DF804FB00BF9A
:103AA00000B583B002AA002342F8043D01F0DAF920
:103AB00008B1FDF777F9019803B05DF804FB00BF8A
:103AC00000B583B002AB002243F8042D054A12680A
:103AD00001F00AFA08B1FDF765F9019803B05DF845
:103AE00004FB00BF301A0020F0B583B002AC002305
:103AF00044F8043D06460F462146684605F01AF98B
:103B00000028F9D1009B1870BDF80450009A234694
:103B100039466C1E30460132ADF8044000F0A6FE76
:103B200008B1FDF73FF99DE809000133034A01930D
:103B300099B205F00DF903B0F0BD00BF5D3900008A
:103B4000F0B583B002AC002344F8043D06460F46AE
:103B50002146684605F0EEF80028F9D1009B187060
:103B6000BDF80450009A234639466C1E3046013297
:103B7000ADF8044000F002FF08B1FDF713F99DE82D
:103B800009000133034A019399B205F0E1F803B04B
:103B9000F0BD00BF753900002DE9F04385B004ACDD
:103BA000002544F8045D06460F4690469946214696
:103BB00002A805F0BFF80028F9D1029B1870029BFB
:103BC000BDF80C5001945C1C00944B466C1E4246A0
:103BD00039463046ADF80C4000F08EFF08B1FDF7D5
:103BE000E1F8039B0298044A013399B2039305F06C
:103BF000AFF805B0BDE8F0838D390000F0B587B0AF
:103C00004FF0000E05460E4617461C46CDF810E054
:103C1000CDF814E004A903A805F08CF80028F9D128
:103C2000039B1B4A1870BDF810301460013BADF8BF
:103C3000103095808CB105A92846FFF7C5FC08B166
:103C400007B0F0BD059B134803EBC30300EB8300F3
:103C50000430202221460EF058FB039B04AA03F1F6
:103C6000010E019223463A4631462846CDF800E03F
:103C700000F094FF48B9049B0398074A013399B2B6
:103C8000049305F065F807B0F0BDFDF78BF8F2E797
:103C9000281A00204C330020A5390000F0B583B06D
:103CA00002AC002344F8043D06460F462146684610
:103CB00005F040F80028F9D1009B1870BDF80450B9
:103CC000009A234639466C1E30460132ADF8044056
:103CD00000F096FD08B1FDF765F89DE80900013395
:103CE000034A019399B205F033F803B0F0BD00BF69
:103CF000E139000010B582B002AC002344F8043D65
:103D00002146684605F016F80028F9D1009B187086
:103D1000BDF804300098013B21460130ADF8043075
:103D200000F0CEFE08B1FDF73DF89DE80900013333
:103D3000034A019399B205F00BF802B010BD00BF21
:103D4000013A00002DE9F04385B004AC002544F8A9
:103D5000045D06460F4690469946214602A804F0A7
:103D6000E9FF0028F9D1029B1870029BBDF80C50A6
:103D700001945C1C00944B466C1E4246394630460A
:103D8000ADF80C4000F0A8FD08B1FDF70BF8039B5F
:103D90000298044A013399B2039304F0D9FF05B0A5
:103DA000BDE8F083213A000030B583B002AC0023B7
:103DB00044F8043D05462146684604F0BBFF002850
:103DC000F9D1009B1870BDF804300099013B2246E0
:103DD00028460131ADF8043000F046FE08B1FCF78A
:103DE000E1FF9DE809000133034A019399B204F011
:103DF000AFFF03B030BD00BF413A00002DE9F041F4
:103E000084B004AC002344F8043D06460F469046B7
:103E1000214602A804F08EFF0028F9D1029B1870F9
:103E2000BDF80C50029B009442466C1E3946304649
:103E30000133ADF80C4000F0D3FD08B1FCF7B2FF40
:103E4000039B0298044A013399B2039304F080FF64
:103E500004B0BDE8F08100BF613A0000F0B583B066
:103E600002AC002344F8043D06460F46214668464E
:103E700004F060FF0028F9D1009B1870BDF80450D1
:103E8000009A234639466C1E30460132ADF8044094
:103E900000F0FCFE08B1FCF785FF9DE80900013346
:103EA000034A019399B204F053FF03B0F0BD00BF81
:103EB000813A00002DE9F04184B004AC002344F8BD
:103EC000043D06460F469046214602A804F032FF04
:103ED0000028F9D1029B1870BDF80C50029B009489
:103EE00042466C1E394630460133ADF80C4000F0B6
:103EF00029FF08B1FCF756FF039B0298044A0133DF
:103F000099B2039304F024FF04B0BDE8F08100BF30
:103F1000A13A00002DE9F04184B004AC002344F83C
:103F2000043D074688461546214602A804F002FFD4
:103F30000028F9D1029B0F4E1870BDF80C20029B8F
:103F400000944146541E384601332A46ADF80C40D1
:103F5000356000F08BFF08B1FCF724FF039B02984B
:103F6000054A013399B2039304F0F2FE04B0BDE8B0
:103F7000F08100BF301A0020C13A000000B583B0C4
:103F800001AA02F087FB08B1FCF70CFF019803B00F
:103F90005DF804FB00B583B001AA02F007FB08B18D
:103FA000FCF700FF019803B05DF804FB00B583B097
:103FB00001AA02F031FB08B1FCF7F4FE019803B04E
:103FC0005DF804FB00B583B001AA02F09FFB08B1C5
:103FD000FCF7E8FE019803B05DF804FB00B583B080
:103FE00001AA02F0C9FB08B1FCF7DCFE019803B09E
:103FF0005DF804FB00B583B001AA02F0EFFB08B145
:10400000FCF7D0FE019803B05DF804FB2DE9F04108
:1040100084B004AC002344F8043D06460F469046A5
:10402000214602A804F086FE0028F9D1029B1870F0
:10403000BDF80C50029B009442466C1E3946304637
:104040000133ADF80C4002F0EBFA08B1FCF7AAFE20
:10405000039B0298044A013399B2039304F078FE5B
:1040600004B0BDE8F08100BF7D3F0000F0B583B033
:1040700002AC002344F8043D06460F46214668463C
:1040800004F058FE0028F9D1009B1870BDF80450C8
:10409000009A234639466C1E30460132ADF8044082
:1040A00002F052FA08B1FCF77DFE9DE809000133E9
:1040B000034A019399B204F04BFE03B0F0BD00BF78
:1040C000953F0000F0B583B002AC002344F8043DF6
:1040D00006460F462146684604F02CFE0028F9D11A
:1040E000009B1870BDF80450009A234639466C1E98
:1040F00030460132ADF8044002F05CFA08B1FCF73A
:1041000051FE9DE809000133034A019399B204F07E
:104110001FFE03B0F0BD00BFAD3F00002DE9F04130
:1041200084B004AC002344F8043D06460F46904694
:10413000214602A804F0FEFD0028F9D1029B187068
:10414000BDF80C50029B009442466C1E3946304626
:104150000133ADF80C4002F0A1FA08B1FCF722FEE1
:10416000039B0298044A013399B2039304F0F0FDD3
:1041700004B0BDE8F08100BFC53F0000F0B583B0DA
:1041800002AC002344F8043D06460F46214668462B
:1041900004F0D0FD0028F9D1009B1870BDF8045040
:1041A000009A234639466C1E30460132ADF8044071
:1041B00002F0B0FA08B1FCF7F5FD9DE80900013303
:1041C000034A019399B204F0C3FD03B0F0BD00BFF0
:1041D000DD3F0000F0B583B002AC002344F8043D9D
:1041E00006460F462146684604F0A4FD0028F9D192
:1041F000009B1870BDF80450009A234639466C1E87
:1042000030460132ADF8044002F0BAFA08B1FCF7CA
:10421000C9FD9DE809000133034A019399B204F0F6
:1042200097FD03B0F0BD00BFF53F000000B583B0BF
:1042300001AA03F013FB08B1FCF7B4FD019803B029
:104240005DF804FB00B583B002AA002342F8043DE8
:1042500003F03EFA08B1FCF7A5FD019803B05DF844
:1042600004FB00BF10B5064B84B003AC1A1F0094CA
:1042700003F078FA08B1FCF795FD039804B010BD7F
:10428000381A002000B583B001AA03F019FB08B169
:10429000FCF788FD019803B05DF804FB2DE9F043BD
:1042A00085B004AC002544F8045D06460F469046F0
:1042B0009946214602A804F03DFD0028F9D1029B51
:1042C0001870029BBDF80C5001945C1C00944B4686
:1042D0006C1E424639463046ADF80C4003F082FA77
:1042E00008B1FCF75FFD039B0298044A013399B2C1
:1042F000039304F02DFD05B0BDE8F0832D420000CE
:104300002DE9F04184B004AC002344F8043D064696
:104310000F469046214602A804F00CFD0028F9D172
:10432000029B1870BDF80C50029B009442466C1E14
:10433000394630460133ADF80C4003F091F908B12D
:10434000FCF730FD039B0298044A013399B20393B2
:1043500004F0FEFC04B0BDE8F08100BF454200005F
:104360002DE9F04184B004AC002544F8045D074613
:104370000E4615469846214602A804F0DBFC0028AC
:10438000F9D1029BDFF848E01870029BBDF80C20C1
:104390000194591C0091541E434638462A46314622
:1043A000CEF80060CEF80450ADF80C4003F094F95C
:1043B00008B1FCF7F7FC039B0298044A013399B259
:1043C000039304F0C5FC04B0BDE8F0816542000031
:1043D000341A0020F0B583B002AC002344F8043D49
:1043E00006460F462146684604F0A4FC0028F9D191
:1043F000009B1870BDF80450009A234639466C1E85
:1044000030460132ADF8044003F02CFA08B1FCF755
:10441000C9FC9DE809000133034A019399B204F0F5
:1044200097FC03B0F0BD00BF8542000000B583B02B
:1044300001AB054A03F0AAFF08B1FCF7B3FC0198F1
:1044400003B05DF804FB00BF401A002010B582B035
:1044500002AC002344F8043D2146684604F06AFC9F
:104460000028F9D1009B1870BDF804300098013B7A
:1044700021460130ADF8043003F0B6FF08B1FCF777
:1044800091FC04F0ABF89DE80900013399B20022D9
:10449000019304F05DFC02B010BD00BF30B583B0E5
:1044A00002AC002344F8043D05462146684604F06A
:1044B00041FC0028F9D1009B0D4A1870BDF804306A
:1044C00000991560013B224601312846ADF80430C1
:1044D00003F034FF08B1FCF765FC9DE809000133E7
:1044E000044A019399B204F033FC03B030BD00BF1D
:1044F000401A00202D440000A0B199B170B582B0DF
:104500000C460A6800260146602501AB0DF1030048
:1045100001968DF8035003F03BFD08B9019B236021
:1045200002B070BD0E2070471346602203F0CEBC6F
:104530002DE9F04387B00390002A4ED0002B4CD0D9
:104540001F68144600201D460E464FF0690E059068
:104550003A4605AB21460DF113008DF813E003F048
:1045600017FD00283AD105AB3A46214603A803F0CF
:10457000C7FC98BB009005AB3A462146304603F095
:1045800095FE58BBDEB1039B232B46D029D8202BA8
:104590004CD031D9212B3BD0222B14D1DFF8A09065
:1045A00006F10208304605AB3A46214603F0F0FC1E
:1045B000A0B905AB3A4621464046C84770B9059BAD
:1045C0002B6000200AE0203B032B06D805AB3A46BF
:1045D0002146304603F0DCFC00B90E2007B0BDE8F0
:1045E000F083412B1ED00DD9A02B24D0A12BEAD1D2
:1045F000B046DFF85090DCE7012BE4D1B046DFF89D
:104600004890D6E7402BDED1B046DFF84090D0E7A7
:1046100006F10208DFF83890C4E706F10208DFF877
:104620003490BFE7B046DFF83090C2E706F10208E9
:10463000DFF82890B6E7B046DFF82490B9E700BF6E
:104640002D7E00006D7E000095820000BD6300009D
:1046500049760000316500000963000089630000AD
:10466000457E00001346692203F030BC80B12DE97D
:10467000F0411C464BB1012904D915462AB11E68E8
:10468000032E07D80920BDE8F0810E20BDE8F08197
:104690000E207047371F1F6090F801E0077847EA47
:1046A0000E2707F1FF3E1FFA8EFEBEF1560F12D8FD
:1046B000DFF82CC05CF82E80B8F1000F0BD0023967
:1046C0000230C04723680433236030B92F80238829
:1046D0006B80BDE8F0812660052000232B80F7E782
:1046E000DC2C0100F0B585B00024029440B13BB150
:1046F000D3F800E0BEF10F0F05D8092005B0F0BDDA
:104700000E2005B0F0BD1C4613461646AEF1100251
:104710004FF0020E226023F804EB02AA0D46074672
:1047200003F022FC0028E9D106F1080302AA294679
:10473000384603F03FFC0028E0D106F1100302AA3E
:104740002946384603F010FC0028D7D133464FF0F5
:10475000FF3243F80C2F2946009002AA384603F096
:10476000C1FD0028CAD1F3686BB103A9B088FFF777
:1047700033F80028C2D1039B084A03EB430302EB42
:1047800083035B68F360B088FEF7F0FF0028B5D1C3
:10479000029B9D42B1D110232360AFE76C3400200F
:1047A0002DE9F04182B00024019438B133B11D6885
:1047B000042D07D8092002B0BDE8F0810E2002B018
:1047C000BDE8F0811C4613469046053D0122256058
:1047D00023F8042B01AA0E46074603F0C5FB002868
:1047E000E9D108F1080301AA3846314603F0E2FB9B
:1047F0000028E0D1019B9E42DCD105232360DAE74B
:10480000F0B587B0ADF80E0032B32BB31F68144675
:1048100000201D460E464FF07E0E05903A4605AB31
:1048200021460DF113008DF813E003F0B1FBA0B9A0
:1048300005AB3A4621460DF10E0003F07FFB60B94F
:10484000074B00933A4605AB2146304603F02EFD58
:1048500018B9059B2B6000E00E2007B0F0BD00BF2B
:10486000ED5D000013467E2203F030BBF0B587B04B
:10487000ADF80E0032B32BB31F68144600201D465E
:104880000E464FF0750E05903A4605AB21460DF1E8
:1048900013008DF813E003F07BFBA0B905AB3A469B
:1048A00021460DF10E0003F049FB60B9074B009360
:1048B0003A4605AB2146304603F0F8FC18B9059B93
:1048C0002B6000E00E2007B0F0BD00BF09600000C3
:1048D0001346752203F0FABA2DE9F04387B00E9D16
:1048E0008DF80F300F9C002D39D0002C37D0276861
:1048F00081460020164688464FF08C0E05903A46B9
:1049000005AB29460DF113008DF813E003F040FBD1
:1049100030BB154B0093484605AB3A46294603F099
:10492000C5FCE8B9114B0093404605AB3A46294611
:1049300003F0BCFCA0B90E4B0093304605AB3A46E1
:10494000294603F0B3FC58B905AB3A4629460DF1A8
:104950000F0003F01DFB18B9059B236000E00E203B
:1049600007B0BDE8F08300BF4D570000A560000010
:104970000960000013468C2203F0A8BAF0B585B098
:10498000ADF806008DF805101AB313B31E6814466F
:1049900000201D4676270390324603AB21460DF1D9
:1049A0000B008DF80B7003F0F3FA98B903AB3246A5
:1049B00021460DF1060003F0C1FA58B903AB3246A7
:1049C00021460DF1050003F0E3FA18B9039B2B60B3
:1049D00000E00E2005B0F0BD1346762203F076BA53
:1049E0002DE9F04186B0ADF80E000C9C83B37CB38A
:1049F000D4F800801D46002017460E464FF0850E65
:104A00000590424605AB29460DF113008DF813E0E1
:104A100003F0BEFAE8B905AB424629460DF10E0097
:104A200003F08CFAA8B90C4B0093304605AB424614
:104A3000294603F03BFC60B9084B0093424605ABA6
:104A40002946384603F032FC18B9059B236000E084
:104A50000E2006B0BDE8F08171600000095B000027
:104A60001346852203F032BAA9B1A2B1F0B585B0E0
:104A700017680546002014464FF08A0E03903A4608
:104A800003AB0DF10B000E468DF80BE003F080FA3E
:104A900018B105B0F0BD0E207047064B00933A46A2
:104AA00003AB3146284603F001FC0028F1D1039BFB
:104AB0002360EEE7A560000013468A2203F006BAE1
:104AC000A0B199B170B582B00C460A6800260146C3
:104AD0008B2501AB0DF1030001968DF8035003F017
:104AE00057FA08B9019B236002B070BD0E207047D1
:104AF00013468B2203F0EAB92DE9F04387B00E9DEF
:104B0000ADF80E000F9C002D39D0002C37D027684F
:104B100000201E46904689464FF0860E05903A4684
:104B200005AB29460DF113008DF813E003F030FAC0
:104B300030BB05AB3A4629460DF10E0003F0FEF9F5
:104B4000F0B9114B0093484605AB3A46294603F0AD
:104B5000ADFBA8B90D4B0093404605AB3A4629463C
:104B600003F0A4FB60B90A4B00933A4605AB294613
:104B7000304603F09BFB18B9059B236000E00E2034
:104B800007B0BDE8F08300BF095B000025570000B7
:104B90008D5700001346862203F098B92DE9F041A5
:104BA00086B00C9DADF80E008DF80D100D9C002DFB
:104BB00037D0002C35D0276800201E4690464FF095
:104BC0007F0E05903A4605AB29460DF113008DF88E
:104BD00013E003F0DDF928BB05AB3A4629460DF199
:104BE0000E0003F0ABF9E8B905AB3A4629460DF1E2
:104BF0000D0003F0CDF9A8B90C4B0093404605AB6E
:104C00003A46294603F052FB60B9094B00933A46F5
:104C100005AB2946304603F049FB18B9059B2360D4
:104C200000E00E2006B0BDE8F08100BFED5D0000A1
:104C300001610000F0B587B00392B8B1B3B106AD21
:104C40001C46002345F8043D0E46009429467F2368
:104C50003246074603F016F948B923684BB1059B65
:104C60009E4214BF0920002007B0F0BD0E2007B0FF
:104C7000F0BD054B00932A46384603AB314603F09E
:104C800031FB0028EBD0F2E7DD6100002DE9F043B5
:104C900087B08DF80F10002A40D0002B3ED0D3F8FB
:104CA00000801546074600201E466E2405904246A9
:104CB00005AB29460DF112008DF8124003F068F99A
:104CC00068BB05AB424629460DF10F0003F060F9C1
:104CD00028BB06A837B3012300F8053D424605ABC3
:104CE000294603F055F9D0B99DF80F3093B1DFF89C
:104CF0004890043F044657F8040FCDF8009005ABE8
:104D00004246294603F0D2FA013440B99DF80F30EB
:104D1000A342F0D8059B3360002000E00E2007B0CE
:104D2000BDE8F08305AB00F8057D4246294603F057
:104D30002FF90028EED0F2E74D57000013466E22FF
:104D400003F0C4B82DE9F04F87B08DF80F20109D07
:104D5000002B68D0002D66D0D5F800801E4607468F
:104D6000002089466F240590424605AB31460DF17F
:104D700012008DF8124003F00BF9002854D105AB56
:104D8000424631460DF10F0003F002F900284BD1E5
:104D90000DF1180B002F4AD001230BF8053D4246B8
:104DA00005AB5846314603F0F3F800283CD19DF896
:104DB0000F3093B1DFF8A8A0043F044657F8040F62
:104DC000CDF800A005AB4246314603F06FFA01343E
:104DD00050BB9DF80F30A342F0D8B9F1000F31D08D
:104DE0000124584605AB424631468DF8134003F086
:104DF000CFF8C8B99DF80F308BB1184FA9F104094D
:104E0000044659F8040F009705AB4246314603F0BB
:104E10004DFA013440B99DF80F30A342F1D8059BFB
:104E20002B60002000E00E2007B0BDE8F08F0BF8EB
:104E3000057D05AB42465846314603F0A9F80028E7
:104E4000CBD0F1E705AB4246314658468DF813907A
:104E500003F09EF80028E2D0E6E700BF25570000E7
:104E6000B959000013466F2203F030B82DE9F04124
:104E700086B0ADF80E000C9C7BB374B3D4F8008000
:104E80001D46002017460E464FF08F0E05904246F5
:104E900005AB29460DF113008DF813E003F078F807
:104EA000E0B905AB424629460DF10E0003F046F885
:104EB000A0B90C4B0093304605AB4246294603F09F
:104EC000F5F958B9009005AB42462946384603F03B
:104ED000EDF918B9059B236000E00E2006B0BDE88F
:104EE000F08100BFFD630000F0B587B00392B8B158
:104EF000B3B106AD1C46002345F8043D0E460094B0
:104F000029468F233246074602F0BCFF48B9236882
:104F10004BB1059B9E4214BF0920002007B0F0BD95
:104F20000E2007B0F0BD054B00932A46384603AB70
:104F3000314603F0D7F90028EBD0F2E79D6400007A
:104F40002DE9F04182B00024019438B133B11D68DD
:104F5000322D07D8092002B0BDE8F0810E2002B042
:104F6000BDE8F0811C4613469046333D1D22256066
:104F700023F8042B01AA0E46074602F0F5FF00288D
:104F8000E9D108F1080301AA3846314600F03EFD98
:104F90000028E0D1019B9E42DCD133232360DAE775
:104FA0002DE9F04182B00024019438B133B11D687D
:104FB000042D07D8092002B0BDE8F0810E2002B010
:104FC000BDE8F0811C4613469046053D172225603A
:104FD00023F8042B01AA0E46074602F0C5FF00285D
:104FE000E9D108F1080301AA3846314602F0E2FF90
:104FF0000028E0D1019B9E42DCD105232360DAE743
:105000002DE9F04182B00024009440B13BB11D680D
:10501000092D09D80925284602B0BDE8F0810E25E2
:10502000284602B0BDE8F0811C46134690460A3D72
:105030001922256023F8042B6A460E46074602F023
:1050400093FF40BB08F108036A463146384600F03A
:105050007BFD05460028DED101A9B8F80400FEF763
:1050600023FB28B1009B9E42D4D10A232360D2E7C0
:10507000019B0A4A03EBC30302EB830338466A46EB
:105080000433314601F0AAF828B9B8F80400FEF755
:10509000D1FA0028E6D00546BDE700BF4C3300201A
:1050A0002DE9F04182B00024019438B133B11D687C
:1050B0000B2D07D8092002B0BDE8F0810E2002B008
:1050C000BDE8F0811C46134690460C3D1222256037
:1050D00023F8042B01AA0E46074602F045FF0028DC
:1050E000E9D108F1080301AA3846314600F034FF3F
:1050F0000028E0D1019B9E42DCD10C232360DAE73B
:105100002DE9F04182B00024019438B133B11D681B
:105110000B2D07D8092002B0BDE8F0810E2002B0A7
:10512000BDE8F0811C46134690460C3D1F222560C9
:1051300023F8042B01AA0E46074602F015FF0028AB
:10514000E9D108F1080301AA3846314600F030FFE2
:105150000028E0D1019B9E42DCD10C232360DAE7DA
:105160002DE9F04182B00024019438B133B11D68BB
:10517000052D07D8092002B0BDE8F0810E2002B04D
:10518000BDE8F0811C4613469046063D1F2225606F
:1051900023F8042B01AA0E46074602F0E5FE00287C
:1051A000E9D108F1080301AA3846314600F04EFD66
:1051B0000028E0D1019B9E42DCD106232360DAE780
:1051C0002DE9F04182B00024019438B133B11D685B
:1051D000132D07D8092002B0BDE8F0810E2002B0DF
:1051E000BDE8F0811C4613469046143D1022256010
:1051F00023F8042B01AA0E46074602F0B5FE00284C
:10520000E9D108F1080301AA3846314600F09AFDB9
:105210000028E0D1019B9E42DCD114232360DAE711
:105220002DE9F04182B00024019438B133B11D68FA
:10523000042D07D8092002B0BDE8F0810E2002B08D
:10524000BDE8F0811C4613469046053D11222560BD
:1052500023F8042B01AA0E46074602F085FE00281B
:10526000E9D108F1080301AA3846314600F0F4FEFE
:105270000028E0D1019B9E42DCD105232360DAE7C0
:105280002DE9F04182B00024019438B133B11D689A
:10529000042D07D8092002B0BDE8F0810E2002B02D
:1052A000BDE8F0811C4613469046053D1622256058
:1052B00023F8042B01AA0E46074602F055FE0028EB
:1052C000E9D108F1080301AA3846314602F072FE1E
:1052D0000028E0D1019B9E42DCD105232360DAE760
:1052E000F0B587B00024049440B13BB1D3F800E09E
:1052F000BEF10B0F05D8092007B0F0BD0E2007B096
:10530000F0BD1C4613461546AEF10C024FF0180EC8
:10531000226023F804EB04AA0E46074602F024FE9E
:105320000028E9D105A9A888FEF7BEF90028E3D135
:10533000059B134A1349009103EBC30302EB83025D
:105340002B46126A43F8082F314604AA384602F069
:10535000C9FF0028D0D104AA38460DF10F03314609
:1053600002F028FE0028C7D12B7B9DF80F10049A6D
:1053700061F3000396422B73BDD10C232360BBE77E
:105380004C330020FD5700002DE9F04184B000248B
:10539000039438B133B11D680A2D07D8092004B031
:1053A000BDE8F0810E2004B0BDE8F0811C46134634
:1053B00016460B3D1522256023F8042B03AA0F4641
:1053C000804602F0D1FD0028E9D10623009303AA0C
:1053D00006F108033946404602F000FF0028DED1FE
:1053E00003AA40460DF10B03394602F0E3FD002805
:1053F000D5D1B37B9DF80B10039A61F3000397425C
:10540000B373CBD10B232360C9E700BF2DE9F04173
:1054100082B00024019438B133B11D68042D07D83F
:10542000092002B0BDE8F0810E2002B0BDE8F08195
:105430001C4613469046053D1C22256023F8042B8C
:1054400001AA0E46074602F08FFD0028E9D108F1B7
:10545000080301AA3846314602F0ACFD0028E0D12D
:10546000019B9E42DCD105232360DAE72DE9F04160
:1054700082B00024019440B13BB11D680B2D09D8C6
:105480000925284602B0BDE8F0810E25284602B065
:10549000BDE8F0811C46134690460C3D2022256055
:1054A00023F8042B01AA0E46074602F05DFDB8B9A9
:1054B00008F1090301AA3146384600F0E1F9054632
:1054C0000028DED108F1080301AA3846314602F06F
:1054D00071FD28B9019B9E42D2D10C232360D0E7F5
:1054E0000546CEE72DE9F04182B00024019438B1A1
:1054F00033B11D68172D07D8092002B0BDE8F0812F
:105500000E2002B0BDE8F0811C4613469046183DBF
:105510001422256023F8042B01AA0E46074602F048
:1055200023FD0028E9D108F1080301AA38463146D5
:1055300000F0B2FB0028E0D1019B9E42DCD1182391
:105540002360DAE72DE9F04182B00024019438B1FC
:1055500033B11D68082D07D8092002B0BDE8F081DD
:105560000E2002B0BDE8F0811C4613469046093D6E
:105570001322256023F8042B01AA0E46074602F0E9
:10558000F3FC0028E9D108F1080301AA38463146A6
:1055900000F072FC0028E0D1019B9E42DCD109237F
:1055A0002360DAE72DE9F04182B00024019438B19C
:1055B00033B11D68042D07D8092002B0BDE8F08181
:1055C0000E2002B0BDE8F0811C4613469046053D12
:1055D0001E22256023F8042B01AA0E46074602F07E
:1055E000C3FC0028E9D108F1080301AA3846314676
:1055F00000F068FE0028E0D1019B9E42DCD105232B
:105600002360DAE72DE9F04182B00024019438B13B
:1056100033B11D68042D07D8092002B0BDE8F08120
:105620000E2002B0BDE8F0811C4613469046053DB1
:105630001B22256023F8042B01AA0E46074602F020
:1056400093FC0028E9D108F1080301AA3846314645
:1056500002F0B0FC0028E0D1019B9E42DCD1052382
:105660002360DAE72DE9F04182B00024019438B1DB
:1056700033B11D68042D07D8092002B0BDE8F081C0
:105680000E2002B0BDE8F0811C4613469046053D51
:105690002122256023F8042B01AA0E46074602F0BA
:1056A00063FC0028E9D108F1080301AA3846314615
:1056B00000F0CCFE0028E0D1019B9E42DCD1052306
:1056C0002360DAE72DE9F04182B00024019438B17B
:1056D00033B11D68042D07D8092002B0BDE8F08160
:1056E0000E2002B0BDE8F0811C4613469046053DF1
:1056F0002222256023F8042B01AA0E46074602F059
:1057000033FC0028E9D108F1080301AA38463146E4
:1057100000F09CFE0028E0D1019B9E42DCD10523D5
:105720002360DAE779B173B110B582B040B11C469D
:10573000009413460A46102102F038FD02B010BD55
:105740000E2002B010BD0E20704700BFD9B1F0B5D9
:1057500085B0ABB1A0B1044604A894F800E000F80D
:1057600001ED16460F461D4602F012FC48B90095A1
:1057700033463A46601C062102F018FD05B0F0BD24
:105780000E2005B0F0BD0E20704700BF79B173B197
:1057900010B582B040B11C46009413460A46102151
:1057A00002F004FD02B010BD0E2002B010BD0E20AC
:1057B000704700BF79B173B110B582B040B11C46DB
:1057C000009413460A46402102F0F0FC02B010BDDE
:1057D0000E2002B010BD0E20704700BF60B130B582
:1057E00083B032B12BB11024009402F0F7FC03B067
:1057F00030BD0E2003B030BD0E20704760B130B513
:1058000083B032B12BB14024009402F0E7FC03B026
:1058100030BD0E2003B030BD0E20704768B3F0B528
:10582000144685B032B31D4623B34FF0100ECDF8A9
:1058300000E00E46074602F0D1FCE0B90DF10F037F
:1058400022463146384602F0B5FBA0B90623009344
:1058500022463146384605F1110302F0BFFC50B92B
:105860009DF80F202B7C62F30003520862F347037C
:105870002B7400E00E2005B0F0BD0E20704700BF75
:1058800010B3F0B5144685B0DAB1D3B11D460DF1B1
:105890000F0307460E4602F08DFB98B906230093CE
:1058A0002246314638466B1C02F098FC50B99DF8F0
:1058B0000F202B7862F30003520862F347032B702A
:1058C00000E00E2005B0F0BD0E20704798B1F0B595
:1058D000144685B062B11D4653B14FF0100ECDF89D
:1058E00000E00F46064602F079FC30B105B0F0BD8D
:1058F0000E2005B0F0BD0E2070470DF10F032246BB
:105900003946304602F056FB0028EFD19DF80F20B3
:105910002B7C510862F3000361F34103920862F3A8
:1059200087032B74224605F112033946304602F0F4
:105930001BFB0028DAD14FF0080E05F114032246B4
:1059400039463046CDF800E002F048FCCEE700BF13
:1059500081B17BB1F0B585B070B10C461D461746DC
:10596000009313460A461021064602F01FFC30B190
:1059700005B0F0BD0E2070470E2005B0F0BD04A8A4
:10598000337C00F8013D3A462B46214602F000FBED
:105990000028EDD12B463A46214606F1120002F0CE
:1059A000CDFA0028E4D100953B46224606F11400CA
:1059B000082102F0FBFBDBE7D1B1CBB1F0B585B03C
:1059C000C0B10C461E461546009313460A461021E8
:1059D000074602F0EBFB48B904A83B7C00F8013D08
:1059E0002A463346214602F0D3FA30B105B0F0BD65
:1059F0000E2070470E2005B0F0BD00962B462246C3
:105A000007F11100062102F0D1FBEFE7E0B12DE92B
:105A1000F041154684B09AB193B11C464FF01F0C6B
:105A200004F1100E0DF10B030F4606468DF80AC067
:105A3000CDF80CE002F0BEFA40B104B0BDE8F08150
:105A40000E2004B0BDE8F0810E2070474FF006082C
:105A5000CDF80080631C2A463946304602F0BEFB72
:105A60000028EAD19DF80B20237862F30003520846
:105A700062F3470323702A460DF10B033946304683
:105A800002F098FA0028D8D1CDF8008004F108037C
:105A90002A463946304602F0A1FB0028CDD19DF8B8
:105AA0000B20E37962F30003520862F34703E371CA
:105AB0002A4604F10E033946304602F07BFA0028EC
:105AC000BBD10DF10B032A463946304602F072FA7B
:105AD0000028B2D10DF10A0300932A463946304618
