:020000021000EC
:10F000000000012069A7020091A7020093A7020057
:10F0100095A7020097A7020099A702000000000030
:10F020000000000000000000000000009BA702009C
:10F030009DA70200000000009FA70200A1A70200F8
:10F0400059250200A3A70200F1320200A3A7020083
:10F05000A3A70200A3A70200A5290200A3A70200FC
:10F06000A3A70200A3A70200A3A70200A3A7020070
:10F07000A3A70200A3A70200A3A70200A3A7020060
:10F08000A3A70200E9FE0100A3A70200A3A70200B4
:10F0900089FF0100A3A70200F5B10200A3A70200A7
:10F0A000A3A70200A3A70200A3A70200A3A7020030
:10F0B000A3A70200A3A702000000000000000000B8
:10F0C000A3A70200A3A70200A3A70200A3A7020010
:10F0D000A3A70200A3A70200A3A70200000000004C
:10F0E0000000000000000000000000000000000020
:10F0F0000000000000000000000000000000000010
:10F1000000000000000000000000000000000000FF
:10F1100000000000000000000000000000000000EF
:10F1200000000000000000000000000000000000DF
:10F1300000000000000000000000000000000000CF
:10F1400000000000000000000000000000000000BF
:10F1500000000000000000000000000000000000AF
:10F16000000000000000000000000000000000009F
:10F17000000000000000000000000000000000008F
:10F18000000000000000000000000000000000007F
:10F19000000000000000000000000000000000006F
:10F1A000000000000000000000000000000000005F
:10F1B000000000000000000000000000000000004F
:10F1C000000000000000000000000000000000003F
:10F1D000000000000000000000000000000000002F
:10F1E000000000000000000000000000000000001F
:10F1F000000000000000000000000000000000000F
:10F2000010B5054C237833B9044B13B10448AFF360
:10F2100000800123237010BDB426002000000000F0
:10F2200020C70200084B10B51BB108490848AFF3CE
:10F2300000800848036803B910BD074B002BFBD0C2
:10F24000BDE81040184700BF00000000B8260020AD
:10F2500020C70200A026002000000000154B002B54
:10F2600008BF134B9D46A3F5803A00218B460F46FD
:10F270001348144A121A00F065F80F4B002B00D007
:10F2800098470E4B002B00D0984700200021040027
:10F290000D000D48002802D00C48AFF3008000F0AC
:10F2A0002BF82000290005F0DBF900F011F800BF71
:10F2B0000000080000000120000000000000000025
:10F2C000B4260020643D0020000000000000000083
:10F2D00008B5074B044613B10021AFF30080054B7E
:10F2E0001868836A03B19847204600F033F800BFDE
:10F2F0000000000088BF020070B50E4B0E4CE41AEF
:10F30000A41000251E46A54204D056F82530984783
:10F310000135F8E70CF02CFE084C094BE41AA41058
:10F3200000251E46A54204D056F8253098470135E1
:10F33000F8E770BD98260020982600209C26002023
:10F340009826002002440346934202D003F8011B92
:10F35000FAE77047FEE700BF0378012B04BF014ABC
:10F3600013707047D02700202DE9F04FC7B01C461E
:10F370009248002914BF0A23002316460D46009325
:10F3800003F0AAFF002840F0E480002C00F0E580A4
:10F3900006AB83460193519B539A9E1820250296F3
:10F3A00058460099019A0B46034404933133D3180D
:10F3B0000393171800295FD07B4203F003038B42AD
:10F3C00028BF0B46062900F2EB800B46019A012B61
:10F3D000155407F1010200F0E180022B7D7007F166
:10F3E000020200F0DB80032BBD7007F1030200F086
:10F3F000D580042BFD7007F1040200F0CF80062BAE
:10F400003D7107F1050240F0D1807D71BA1D9E4625
:10F41000009999422ED0009EC3EB060AAAF104017E
:10F4200006F1FF3B8908C3EB0B0B0131BBF1020F67
:10F430004FEA810C12D90344019E4FF0203001297C
:10F4400006EB030BF05005D00229CBF8040001D0E5
:10F45000CBF80800D4456244E6440BD00098157000
:10F460000EF10103834205D20EF1020E7045557074
:10F4700000D99570009B1F44039B059707F1330942
:10F4800007F1030A264603F101084C46029FDDF806
:10F4900044910DE00AF8035C0AF8025C0AF8015C8A
:10F4A0000AF1030AA24508F8015C08F101082FD00F
:10F4B000BE42EFD24E456BD2509B13F806B00AF80D
:10F4C000015C4FEA2B105FFA80FE09280BF00F0059
:10F4D000D4BF0EF1300E0EF1370E092894BF303034
:10F4E00037300AF803EC0AF8020C0CF071F85844B3
:10F4F0000AF1030A407810F0970F08BF4FF02E0B67
:10F50000A24508F801BC06F1010608F10108CFD1B7
:10F51000049B03980297059F019903F1430A0D226A
:10F520000A23027443745246254887F830500CF081
:10F530007AF85FFA8AF222492048344603F020FE26
:10F5400038B91E4803F0C8FE18B9029B9C42FFF46C
:10F5500028AF204647B0BDE8F08F55B306A82B680A
:10F56000184A01904FF480710CF068F80028F0DB25
:10F57000054630460CF094F8019BC22828BFC220F3
:10F5800083460246314658190CF04DF8AB4402E769
:10F59000C9EB0600529B13F800B090E79E4637E790
:10F5A000002B7FF413AF3A469E4634E74FF0050E2A
:10F5B0002EE706AB25460193DBE700BF14250020AC
:10F5C000D0260020ACBF02002DE9F0416B48C6B048
:10F5D0000C4616461D4603F07FFEA8B9C4B106AF1F
:10F5E0002368674A38464FF480710CF027F80028EA
:10F5F0000ADB4C9B8046062B00F2BD80DFE803F05F
:10F60000146670327C405200002046B0BDE8F081A4
:10F610004C9B062B00F2AC80DFE803F0049C969034
:10F62000847E8A004FF0000830460CF039F800EB79
:10F630000803FF2B044640F29380002CE4DB08EB28
:10F640000402B2F5807FDFD8D4B206A94D480BF092
:10F65000EAFF22464B49494803F092FDB0FA80F098
:10F660004009D2E7C0F58071AA686C682B680192E6
:10F670000094324607EB08000BF0E0FF0446DCE79D
:10F68000C0F580712869EA682B680390AC686D68E2
:10F69000009502920194324607EB08000BF0CEFF72
:10F6A0000446CAE7C0F580716A6928692B6804922C
:10F6B000EA680390AC686D68009502920194324646
:10F6C00007EB08000BF0BAFF0446B6E7C0F58071FF
:10F6D0002B68324607EB08000BF0B0FF0446ACE79E
:10F6E000C0F580716A682B68009207EB080032460B
:10F6F0000BF0A4FF0446A0E7C0F58071EA68AC688F
:10F700002B686D68009502920194324607EB080061
:10F710000BF094FF044690E74FF480714FF000081F
:10F7200006AFAFE74FF480714FF0000806AFE5E792
:10F730004FF480714FF0000806AFB5E74FF48071C9
:10F740004FF0000806AF8FE74FF480714FF00008CC
:10F7500006AFC7E74FF480714FF0000806AFB7E778
:10F7600006AB314603EB080022460BF05CFF64E772
:10F770000024224669E7002461E700BF1425002029
:10F78000ACBF0200D0260020F0B51A4F3B7889B0FC
:10F790001BB1194B1B78834229D0184D06460FCD5B
:10F7A0006C460FC495E80F004FF0000E84E80F0080
:10F7B0000625052107224FF0EB7311480391082419
:10F7C00002928DF814E000950194069303F052FC28
:10F7D000002E0C4A0A4818BF0022694603F05CFB61
:10F7E00018B9054A012316703B7009B0F0BD00201E
:10F7F00009B0F0BDD2270020D12700208CBF020025
:10F800001425002059F3010000487047C9F5010094
:10F810000048704769F3010038B50020FFF7B4FFD6
:10F82000044668B9FFF7F0FF0546FFF7F1FF054B07
:10F83000FF22C3F810541C605C60C3F814049A6083
:10F84000204638BDD42700200120FFF79DBF00BF10
:10F850002DE9F04383B002AB4FF0000803F8018DAF
:10F86000254C064618460D46A76801F019F8A2680F
:10F870006368D4F8009013440133C9EB0303012BF0
:10F8800007D80BBB9DF8070001F032F803B0BDE8C4
:10F89000F08309F101039DF80700236001F028F8C7
:10F8A0000122002362F3010368F3820307EA0907D8
:10F8B00066F3C50304EB870468F3891365F39F239C
:10F8C000E36003B0BDE8F0830121434661F3010327
:10F8D00068F38203052161F3C50309EA02020749BF
:10F8E00004EB820268F3891309F1010761F39F2396
:10F8F0002760D360C6E700BFD4270020B4BF020052
:10F900002DE9F04782B002AB002603F8016D294CC7
:10F910008146184617468846A56800F0C1FFA268D0
:10F920006368D4F800A013440133CAEB0303022B2D
:10F9300007D843BB9DF8070000F0DAFF02B0BDE82E
:10F94000F0870AF102039DF80700236000F0D0FF62
:10F950000122002362F301030AEB020166F3820332
:10F9600069F3C50305EA0A0A0D4004EB8A0A62F34B
:10F97000891304EB850468F39F23CAF80C30E76011
:10F9800002B0BDE8F0870121334661F3010366F35D
:10F990008203052161F3C5030AEA0202064804EB6B
:10F9A000820266F389130AF1010160F39F2321604B
:10F9B000D360BFE7D4270020B4BF02002DE9F04F89
:10F9C00083B002AD002605F8016D2D4C8246284615
:10F9D00090461F468946A56800F062FFA2686368EA
:10F9E000D4F800B013440133CBEB0303032B07D847
:10F9F0007BBB9DF8070000F07BFF03B0BDE8F08FF4
:10FA00000BF103039DF80700236000F071FF012252
:10FA1000002362F301030BF1020066F382035A44F0
:10FA20006AF3C503022105EA0B0B2A40054004EBEB
:10FA30008B0B04EB820261F3891304EB850469F3F9
:10FA40009F23CBF80C30C2F80C80E76003B0BDE810
:10FA5000F08F0121334661F3010366F38203052130
:10FA600061F3C5030BEA0202064804EB820266F367
:10FA700089130BF1010160F39F232160D360B8E784
:10FA8000D4270020B4BF02002DE9F04F83B002AFAD
:10FA9000002607F8016D314C8246384690461F46D5
:10FAA000A568894600F0FCFEA2686368D4F800B03F
:10FAB00013440133CBEB0303042B07D8BBBB9DF8E6
:10FAC000070000F015FF03B0BDE8F08F0BF1040351
:10FAD0009DF80700236000F00BFF0122002362F372
:10FAE000010366F382030BEB02010BF103060BF13A
:10FAF00002026AF3C503032005EA0B0B04EB8B0B30
:10FB000060F3891369F39F2329402A403540CBF8DD
:10FB10000C3004EB810104EB82020C9BC1F80C80D9
:10FB200004EB8504D760E36003B0BDE8F08F0121EA
:10FB3000334661F3010366F38203052161F3C503D4
:10FB40000BEA0202064804EB820266F389130BF10A
:10FB5000010160F39F232160D360B0E7D427002028
:10FB6000B4BF02002DE9F0474C4E96E80C009A42D3
:10FB70008AB070D0B06804E0C4F3891202EB9452EA
:10FB8000134400EA0305023506EB8502013354688D
:10FB900014F00302F0D0022A28D0C4F38312C4F375
:10FBA000952C002A75D00DF1100E7546D71800EA75
:10FBB000030106EB81010133C96845F8041BBB4210
:10FBC000F5D10092C4F3C20073466246D6F81044E1
:10FBD000324D0021A04738B177603068C01B18BF94
:10FBE00001200AB0BDE8F0876F68F6E703F1010A6B
:10FBF00020EA0A010340013106EB830389004FEA42
:10FC000094588845DA68DFF894E0C4F3891326D95C
:10FC1000A9B300EA0A0C5FFA81F90EEB8C0CC9EB70
:10FC200008010CF10C0C0EF10C00C9B2039102900A
:10FC3000CDF80490CDF800C00021C4F3C200D6F87E
:10FC40001474B847404520D006EB850560F38F1447
:10FC50006C607768C1E700200AB0BDE8F08700EA71
:10FC60000A000EEB80000C308DE801010021DEF867
:10FC7000149403910291C4F3C200C847E2E70EF165
:10FC80000C0C08465FFA88F9D0E703300AEB9007BE
:10FC9000A2E71F460DF1100E93E700BFD427002006
:10FCA0002DE9F84F244B1A788AB3DFF890B0DFF8CB
:10FCB0009090DFF890A00024012703E00134E4B223
:10FCC000944224D226B2D9F80050DBF8003015F85F
:10FCD000360007FA00FE1EEA030F05EBC608EDD05A
:10FCE000164A23EA0E03136002F052FE15F836504E
:10FCF000DAF8003007FA05F6334000FA05F6B342A9
:10FD000007D00D4B01341A78E4B29442DAD3BDE83F
:10FD1000F88FD8F80430002BF3D098F80110A1F137
:10FD20000101B1FA81F14909091AB1FA81F14909D0
:10FD300028469847E5E700BFF42B00201C2C002044
:10FD4000F02B0020182C002070B50646114800F05A
:10FD50006BFD40B9104D01242B68B4401C4203D008
:10FD600023EA04042C6070BD304602F011FE0B4AF9
:10FD7000136860B123432E680949136034432C6033
:10FD8000044809680022BDE8704000F0F7BC23EA8F
:10FD90000403F0E7F82B00201C2C0020182C002076
:10FDA000EC2B0020042A01D8072070472DE9F041F0
:10FDB00082B088460546174602F0B6FC002834D0CB
:10FDC0001C4C1D481D491E4A1E4B2560002608F18B
:10FDD000FF340F6080F8008016601E60E4B20327D5
:10FDE000B8F1000F03D11AE0DBB2C4B11C4623B254
:10FDF00005EBC30215F833009378134A8DF80530EC
:10FE000001A98DF804708DF806608DF8076002F086
:10FE100095FC631E0028E7D002B0BDE8F0810B4AD4
:10FE20000B48002100F098FCF6E702F03BFC0028AC
:10FE3000C6D0F1E7F02B0020F42B0020EC2B0020A3
:10FE4000182C00201C2C002049FD0100A1FC010001
:10FE5000C0BF020070B5084D2B785BB1074E00247F
:10FE60003368012113F8340002F030FD2B7801349F
:10FE7000A342F5D8002070BDF42B0020F02B002009
:10FE800000B585B000230390194601AA44F2010091
:10FE9000ADF80430029300F003F805B05DF804FB00
:10FEA00008B50D490120FFF7D3FCFFF7CDFCFFF7A4
:10FEB00059FE0028FBD109490320FFF7C9FCBFF315
:10FEC0004F8F0749074BCA6802F4E0621343CB60C7
:10FED000BFF34F8F00BFFDE7C4BF0200D4BF0200D5
:10FEE00000ED00E00400FA05F8B5204A204B00259B
:10FEF000C2F84051C2F84451C2F84851C2F84C51BE
:10FF0000C2F80051C2F804511B6813B31949D2F862
:10FF100004250C68141B1A6824F07F44A2422F4663
:10FF200009D8197CDE69A41A154499B91EB1334663
:10FF30001A68A242F5D9104B10491A780B789A42E8
:10FF40000DD00F490F4A41F823504FF48013C2F8E7
:10FF50000031F8BD1F745A6998699047E6E7531C51
:10FF6000DBB2022B08BF00230B70EAE70010014050
:10FF7000242C0020202C0020282C0020292C0020BC
:10FF8000382D002000E100E02DE9F04F884A894932
:10FF90001378097899428BB037D00133DBB2022B4A
:10FFA00008BF002384491370844A0E68029152F8F6
:10FFB0002300834905910B6802993218002522F02D
:10FFC0007F420A602C462946AE46ABB11A6882428F
:10FFD00000F2E681DD68C3F800E0801A1444DA69B3
:10FFE00035B1371927F07F47D9619D605F601946A9
:10FFF00013460125002BE9D1002D40F0DC820023BF
:020000022000DC
:10000000069301230893069A08E06D4B05931B683D
:10001000694A02920021069308911A46694BDFF85B
:10002000AC811B780393059B1B681C46029B1F68D1
:100030000023BA460F460993C346079399461846CC
:100040004FF0010E0193A4463FB37D68BE68394668
:10005000FF695D4BCAEB050424F07F449C423CD809
:10006000A3190B604860886081F810E0C861002A1D
:1000700068D015689D4249D2164603E025689D4226
:1000800034D22646F4695B1B002CF7D1CC610B609F
:100090001446F1612246002FD7D198F8003098F825
:1000A0000110994200F09480591C03EB43039BF824
:1000B000024008EBC303C9B28C421C798BF80010D4
:1000C00008BF8BF80070022C99684ED0032C3FD0EB
:1000D000012C24D014462246DDE7C5EB0A0525F0A5
:1000E0007F45B54209D2731B0B60BBE7ED1A256053
:1000F000CC610B601446F161CCE708604860886011
:1001000081F810E0C861EAB115680023EB1A0C46CB
:1001100013608C46CA614FF001092246BBE70C7C94
:100120000494002CD6D1DD684D601E698E605C6938
:10013000CC609B698B61039B002B8AD0049B4B6036
:100140001D4686E70C468C464FF001092246A2E781
:100150000AB9BFE71A46D3691074002BFAD11C46BE
:100160009C464FF00109224695E752B1914200F0BA
:100170000B81134602E0B14207D03346DE69002E00
:10018000F9D114460874224685E7994200F0FE80B2
:100190001446F5693668DD6115B12B6833442B6070
:1001A000019B0874A24218BF01230193EBE700BF33
:1001B000282C0020292C0020202C0020382D002065
:1001C000242C00202A2C0020FEFF7F002C2C002055
:1001D0005746DDF804A0B9F1000F40F04981079BB4
:1001E000002B40F0E581099B002B40F0DC81BAF147
:1001F000000F03D1069B9A4200F03F81002A00F0D5
:1002000041816C49029BD1F804051B686A4C176850
:100210002578C21A22F07F420332002D51D1674D5A
:10022000DFF89CC1DFF89CE14FF48036C1F84463ED
:10023000C1F804634FF40036C5F880612E600125D3
:100240000D60DCF800602F2100BF00BF00BF00BFC1
:1002500000BF00BF00BF00BF76452FD000BF00BF6A
:1002600000BF00BF00BF00BF00BF00BF00BF00BF96
:1002700000BF00BF00BF00BF00BF00BF00BF00BF86
:1002800000BF00BF00BF00BF00BF00BF00BF00BF76
:1002900000BF00BF00BF00BF00BF00BF00BF00BF66
:1002A00000BF00BF00BF00BF00BF00BF00BF00BF56
:1002B00000BF00BF00BF00BF00BF00BF0139C3D1F6
:1002C000257097422CBFDA199A183A4922F07F43D9
:1002D000C1F84035D1F80425121A1B1A22F07F42CA
:1002E00023F07F4303329A4248D9D1F80435344A87
:1002F000C1F84035126833492F2300BF00BF00BF4B
:1003000000BF00BF00BF00BF00BF8A422FD000BFA8
:1003100000BF00BF00BF00BF00BF00BF00BF00BFE5
:1003200000BF00BF00BF00BF00BF00BF00BF00BFD5
:1003300000BF00BF00BF00BF00BF00BF00BF00BFC5
:1003400000BF00BF00BF00BF00BF00BF00BF00BFB5
:1003500000BF00BF00BF00BF00BF00BF00BF00BFA5
:1003600000BF00BF00BF00BF00BF00BF00BF013B18
:10037000C3D1124B4FF40032C3F80021124A0023BC
:1003800013700BB0BDE8F08F16461346D2F81C90E0
:10039000B9F1000F1AD0CC464C464FF00109F8E6EF
:1003A000002D62D1121A1A60069301230893069A4F
:1003B00034E600BF00100140402D002000E100E0C5
:1003C000282500200024F4002A2C00207B4C7C4DA2
:1003D000C4F808E07B4C4FF02F0C246800BF00BF2E
:1003E00000BF00BF00BF00BF00BF00BFAC422FD0A6
:1003F00000BF00BF00BF00BF00BF00BF00BF00BF05
:1004000000BF00BF00BF00BF00BF00BF00BF00BFF4
:1004100000BF00BF00BF00BF00BF00BF00BF00BFE4
:1004200000BF00BF00BF00BF00BF00BF00BF00BFD4
:1004300000BF00BF00BF00BF00BF00BF00BF00BFC4
:1004400000BF00BF00BF00BF00BF00BF00BF00BFB4
:10045000BCF1010CC2D1012425460994CC464C467E
:10046000CA4603950795A94693E6059C236099E73C
:10047000059B1946C1F800C0B1E6089B002B3FF46C
:100480007DAFBBE64D49504B4E4E4D4C4FF4803046
:100490004FF400370125C3F88070C1F848032F23BB
:1004A000C1F808034D6030681E4600BF00BF00BFA2
:1004B00000BF00BF00BF00BF00BFA0422FD000BFE1
:1004C00000BF00BF00BF00BF00BF00BF00BF00BF34
:1004D00000BF00BF00BF00BF00BF00BF00BF00BF24
:1004E00000BF00BF00BF00BF00BF00BF00BF00BF14
:1004F00000BF00BF00BF00BF00BF00BF00BF00BF04
:1005000000BF00BF00BF00BF00BF00BF00BF00BFF3
:1005100000BF00BF00BF00BF00BF00BF00BF013E63
:10052000C3D18D6002990A6000BF00BF00BF00BF49
:1005300000BF00BF00BF00BFA0422FD000BF00BF60
:1005400000BF00BF00BF00BF00BF00BF00BF00BFB3
:1005500000BF00BF00BF00BF00BF00BF00BF00BFA3
:1005600000BF00BF00BF00BF00BF00BF00BF00BF93
:1005700000BF00BF00BF00BF00BF00BF00BF00BF83
:1005800000BF00BF00BF00BF00BF00BF00BF00BF73
:1005900000BF00BF00BF00BF00BF00BF013BC3D111
:1005A0000A4B1A70EAE60A4B9DF80C1019701EE609
:1005B000029B1F6017E6059A136020E500100140BA
:1005C0000024F4002825002000E100E0402D002058
:1005D0002A2C0020F0B4564B564A574E574C4FF435
:1005E00080304FF400310125C2F88010C3F8480371
:1005F0002F21C3F808035D6030680E4600BF00BFBE
:1006000000BF00BF00BF00BF00BF00BFA0422FD08F
:1006100000BF00BF00BF00BF00BF00BF00BF00BFE2
:1006200000BF00BF00BF00BF00BF00BF00BF00BFD2
:1006300000BF00BF00BF00BF00BF00BF00BF00BFC2
:1006400000BF00BF00BF00BF00BF00BF00BF00BFB2
:1006500000BF00BF00BF00BF00BF00BF00BF00BFA2
:1006600000BF00BF00BF00BF00BF00BF00BF00BF92
:10067000013EC3D19D6000BF00BF00BF00BF00BFEF
:1006800000BF00BF00BFA0422FD000BF00BF00BF0F
:1006900000BF00BF00BF00BF00BF00BF00BF00BF62
:1006A00000BF00BF00BF00BF00BF00BF00BF00BF52
:1006B00000BF00BF00BF00BF00BF00BF00BF00BF42
:1006C00000BF00BF00BF00BF00BF00BF00BF00BF32
:1006D00000BF00BF00BF00BF00BF00BF00BF00BF22
:1006E00000BF00BF00BF00BF00BF0139C3D1144E1F
:1006F000144D154C1549164F00203070286020709D
:100700004FF48015E0240B26087048708E70387006
:100710001049C2F8805182F814431560C3F80805E7
:1007200082F81143D3F804350B60F0BC704700BF6A
:100730000010014000E100E0282500200024F40022
:10074000402D0020242C0020282C00202C2C0020C0
:10075000292C0020202C0020074B9B780BB9082067
:1007600070473AB130B10368187C0028F7D159744A
:100770005A617047072070472C2C00202DE9F04368
:10078000264CA37883B01BB9082003B0BDE8F083E2
:100790000028F9D0042903D8072003B0BDE8F0836E
:1007A0004369002BF0D0064602A8737C0025012B7C
:1007B00000F8015D0CBF8946A94690460F4600F03F
:1007C0006FF86378A07821785A1CD2B2904208BFA3
:1007D0002A4691421BD003EB430304EBC3030120E1
:1007E0000F4918719E60D1F804159DF80700D96073
:1007F0001F61C3F81490C3F81880627000F078F895
:10080000084B4FF480122846C3F80021BDE79DF83D
:10081000070000F06DF80420B7E700BF2C2C002083
:100820000010014000E100E070B51B4CA37882B0DD
:1008300013B9082002B070BD0028FAD04369002B1C
:10084000F7D0064602A8002500F8015D357400F0D7
:1008500027F86278A0782178531CDBB2984208BF51
:100860002B46994212D002EB420204EBC202022153
:100870009DF8070096601171637000F039F8074B1E
:100880004FF480122846C3F80021D3E79DF80700F3
:1008900000F02EF80420CDE72C2C002000E100E031
:1008A000F0B4EFF3108472B60E4B9A68B2B90E49E9
:1008B00001259D60D1F880700C4D2E463D401D6095
:1008C000C1F88060D1F884505D604FF0FF33C1F80B
:1008D0008430027004B962B6F0BC70470123037023
:1008E000F8E700BF543D002000E100E0FC06FFBD3A
:1008F000094B9A6872B168B910B4EFF3108272B6FE
:1009000006491C680C605C684C60986002B962B66D
:100910005DF8044B704700BF543D002000E100E04B
:10092000F0B52B4C2B4F6368668883B0002B48D002
:1009300036015A88B9190332496803EB820201F57E
:100940008050824225D21368013318BF4FF6FF75DD
:100950001FD09388AB4213D013888BB162601E48BE
:100960005388868801681D480025033300959BB293
:1009700001EB86010325257001F08AFA03B0F0BD72
:100980005388033302EB8302824202D2136801339D
:10099000DFD13E44B38963B10F4D10482968022767
:1009A000052600230122AF80267001F0C9FA03B0AA
:1009B000F0BD0122094801F0C3FA0423237003B0FB
:1009C000F0BD3601BB19596801F10802B7E700BF55
:1009D000DC2D0020BC2D0020642E0020A426002049
:1009E000F0B543688E464BB1304A1468A34205D334
:1009F0005268934202D813F0030236D000232C4EE3
:100A0000AEF800304FF0010C4FF6FF757768002309
:100A100007F58054C3B15A88033203EB82039C422A
:100A200016D91A68013213D09A88AA42F3D01A88CC
:100A3000002AF0D0026899689142EBD11D4A4360C8
:100A4000138903810120F0BD07F108039C42E8D817
:100A50000CF10103AEF800C01FFA83FCBCF1030FD8
:100A600006F11006D2D10020F0BD124C0589248970
:100A7000A542C3D105689C68A542BFD10C4C6068F3
:100A8000834205D900F58050834201D2134608E025
:100A900062699342E7D902F58052934238BF01233D
:100AA000E1D2AEF800300120F0BD00BFA426002046
:100AB000BC2D0020DC2D0020B3F804C0BCF1010FD8
:100AC00054D82DE9F043DFF8AC8091464FF6FF771C
:100AD00000224FEA0C1408EB040E18F80440002C16
:100AE00033D11C68002C3CD06588DEF804600335E7
:100AF00004EB850406F58056A64225D92568013504
:100B000022D0A588BD4219D02588BDB11C6018B17E
:100B1000A6880588AE42E5D119B126880D88AE4277
:100B2000E0D1A268C9F800201A68114BC9F8042066
:100B30001B89A9F808300020BDE8F08365880335DB
:100B400004EB8504B442D9D31A600CF1010C1FFAEE
:100B50008CFCBCF1020FA3F804C0BAD10A20BDE896
:100B6000F083DEF8046006F10804C3E70A2070474A
:100B7000DC2D0020BC2D00202DE9F04FB34C256F5B
:100B8000EB005E1BB6008BB0A25D0293531E804645
:100B900004EB060BA146052B00F2E482DFE803F02C
:100BA0006948481E1E03002840F0DD80DFF8B8E2E7
:100BB0009EF80C30002B00F02F839EF800308EF84A
:100BC0000C00013B062B00F2CC82DFE813F0FD02A3
:100BD000AA0294017401CA02B5028F02002840F0F3
:100BE000C380029B5B1B04EB83031F4693F804A0A6
:100BF000BAF1010F00F05683C0F03F83BAF1020F43
:100C000041F61D5318BF0F2341F61D518B4200F0D2
:100C1000B18019F8061006938B1E012B40F2CB8091
:100C2000013A052A36D8DFE802F07A967E6A5C320D
:100C3000029B87495B1B04EB83030F46B3F812A0AA
:100C400001EB0A1A002840F0A080BAF80800DAF890
:100C500004101B7C01EB80010391062B00F29783AB
:100C6000DFE813F06101AE018E010102EA01CF015C
:100C7000CC01002840F081809BF80430032B00F267
:100C80008483DFE813F00B01F500D300A2000523F5
:100C90008DF814306F4D05F1200655F8043F0BB167
:100CA00005A89847B542F8D1206F684DC0EBC00049
:100CB00004EB80001C220021FEF744FB636F43B16C
:100CC0002A6F0132013B02F003026B672A67002B97
:100CD0006BD1614A137823F0040313700BB0BDE8A5
:100CE000F08F029B5B1B04EB83030422DB88ADF8CF
:100CF000203000238DF81420ADF82230CAE7029B83
:100D00005B1B04EB83030322D8881989DB680793F4
:100D1000ADF82000ADF822108DF81420BAE70023BA
:100D20008DF81430B6E7029B5B1B04EB83030221B2
:100D30001A7C1E899D88D868ADF82060A2F1060350
:100D4000B3FA83F35B098DF82430ADF82250079095
:100D50008DF814109EE7029B5B1B04EB83030122BA
:100D600018899988D2E70622012341F61D518B424A
:100D70007FF44FAF0023069352E737490B780122E7
:100D800023F001030B7013463EE7D888BAF80A3007
:100D9000BAF8081000F1030E1B1A033B7144AAF8BD
:100DA0000A30AAF8081001232EE70020FFF7E4FE1E
:100DB0000BB0BDE8F08F294B9BF81660186C596C8E
:100DC0003044891B186459642AE7DFF8A080244A5C
:100DD000D8F8001023484FF0000A0223CDF800A0F5
:100DE00001F056F8204B1A495B88D8F800E08BF8E0
:100DF00004A01B01CA1801F803A05368B8F8041036
:100E0000C8F800300223C2F804E01181A8F80430C9
:100E100000283FF463AF029B5B1B14F823200E49AC
:100E20000B7823F001030B700E23EDE6DFF83C8016
:100E30000C48D8F800100023012201F081F80222AA
:100E40000023A8F804208BF80430E1E7EC2D002003
:100E5000BC2D0020942D00206C2E0020502D002051
:100E6000F4BF0200A4260020DC2D0020642E002008
:100E7000BD4B19461F461B78022B00F083820B7C6A
:100E8000022B00F06C82B94A137843F0020323F07E
:100E900001031370012241F61D53B5E6B44BB54A68
:100EA0001968B54800230093022300F0F1FF0123E5
:100EB0008BF80430ACE7AC4BBEF80220DFF8D082F0
:100EC00003EB02129389002B00F01C82A84BAA4866
:100ED000196802229A800522002388F80020012246
:100EE00001F02EF80346002B3FF4F8AE1C2202FB63
:100EF00005F2A25C8DE69E49DEF80420B1F804C03C
:100F0000096853889C4801EB8C014FF0000CCDF828
:100F100000C003334FF0030C9BB28EF800C000F00A
:100F2000B7FF0346DFE7029B039993485B1B9B00D7
:100F300004EB03081F460023009308F10402012379
:100F400000F0A6FF022388F8103000283FF4C6AE58
:100F50008A4AD25D0E230299481B04EB8000BAF83E
:100F60000A10B0F806E0BAF808000EF1030CCEEB58
:100F7000010160440339AAF80800AAF80A1043E600
:100F8000029B03997C48C5EB03084FEA88080023BD
:100F900004EB080208310C320093012300F078FFC3
:100FA00004EB080375499A7D002A0CBF0122032235
:100FB0001A7400283FF492AE11F808200E23CAE7F5
:100FC000029B03996C48C5EB03084FEA880804EBC1
:100FD00008031F463A4600230832009304310123D8
:100FE00000F056FF14F80820032A0CBF052306233F
:100FF0003B7400283FF472AE0E23ACE741F61D535C
:10100000A9E75F4B5F4AB3F8008051685A485E4ACF
:1010100000230093012300F03BFF029B002840F0D7
:101020006A815D1B04EB850407EB08180622012387
:10103000227488F80E3051E6029B51495B1B4FEA3F
:10104000830804EB08024F4B92691A60184600228D
:101050005A60FFF7C5FC00287FF465AF474B13F8D3
:1010600008200A23D0E5DFF82CE1DEF844C0BCF10B
:10107000000F00F02281029ADEF840103E48C5EBD6
:10108000020804EB88085EF831200EEBC103013141
:101090000CF1FF3C01F00701CEF84010CEF844C03F
:1010A0000399B8F814E001EB8E014FF0000E1F46D3
:1010B0009B88CDF800E000F0EBFE98F81630B8F809
:1010C0001410BA88013B0A44DBB2A8F8142088F84F
:1010D000163013B9012388F8103000283FF4FEAD14
:1010E000029B5A1B0E2314F8222034E7204B214A7E
:1010F0001968214800230093CEF8043007238EF8A6
:101100000030022300F0C4FE0346ECE6184ADEF885
:101110000410938849880B440333022193808EF88E
:101120000010FFF7FDFB0346002B3FF4D7AD1C2258
:1011300002FB05F2A25C67E5BEF802300A4A1B0119
:1011400017463A461A441346062000225968009270
:1011500002238EF800000D4A074800F099FE03466E
:10116000C1E606220F234FE5BC2D00206C2E002087
:10117000642E0020FCBF0200A4260020EC2D0020DD
:101180007C2E0020442D0020F0BF0200F4BF02009E
:10119000DC2D0020502D0020864BBEF808101A7858
:1011A0001B7CB2FA82F2B3FA83F352095B09013174
:1011B0008EF80A208EF80B3000220123AEF80810BA
:1011C0008EF80C208EF800309EF80A307A4A43B12F
:1011D00078498B89002090721BB98A7B002A40F0E5
:1011E000B6809EF80B30744A43B1724B998B002045
:1011F000D07219B99B7F002B40F0A880029B5A1B2C
:1012000000238EF80030AEF80230CEF8043014F827
:10121000222041F61D53F7E49EF80030072B3FF6DD
:10122000D0AC01A252F823F099110200C30B0200C6
:10123000C30B02000D11020051120200ED1002005A
:10124000ED1002004912020001238EF80030BBE7C6
:10125000584ABEF80230114617461B01574AC818B3
:101260001168D0F80480B2F804C041600221C2F8CD
:101270000080A0F808C0918063E7DB68CDF8188093
:1012800005A80DF11201CDF81C800593FFF7A8FB0E
:10129000002843D10A23029A521B04EB8202022146
:1012A000117120E6464B1B789B0709D401460822A2
:1012B0004448FEF747F8022339E7DCF80030FFDE48
:1012C000384606303F4B05AA4146FFF7F5FB00289C
:1012D0005FD13C4FCDF8008006993B4A3B48B7F8B8
:1012E0000480534600F0D4FDB0B9324B03EB081331
:1012F00083F80EA0F2E45B1B9B00E1180620E25C81
:10130000087479E651683148012200F019FE042280
:10131000034688F80020E6E50E2308E706992A4AE6
:101320008B88FB80B1F800E02848CDF800800123CD
:10133000A7F808E0BDF812A000F0AAFD68B91D4AA0
:1013400002EB0A12012143469173A4E70123AEF890
:101350000230FFF7E5FA0346E6E60E239BE74FF07F
:10136000010A4FEA0A1A3B4653444FF000085968F5
:10137000174ACDF800800223144800F089FD07F8D1
:101380000A8045E54FF0000AEBE7012247E50F230D
:10139000E1E50390414608220A48FDF7D3FF039B8D
:1013A0000C491C2202FB05F20A2B08BF41F61D5313
:1013B0008A5C29E4BC2D0020DC2D0020642E002056
:1013C0006C2E0020702E0020F0BF0200A42600200A
:1013D000F4BF0200EC2D00200846FFF7CDBB00BF94
:1013E0002DE9F04F0F894C6885B006463D46002F29
:1013F00000F0AE80206810F0030040F095809E461B
:1014000004E054F830309B0740F08E800130874272
:10141000F7D17346002A00F08B80B2F80090528812
:101420000094BB466548DFF8A8C10768DCF8748003
:10143000032B07F10107076003BF306803904FF0EB
:10144000040A4FF0000AB8F1030F60D8DFF870E12A
:10145000DEF844000446C5F108008442019456D8E1
:10146000DCF870000C884988029108EB000101F05B
:101470000301C1EBC10189000CEB01000CF8013044
:10148000C280039A826108F101080023BDF80810A8
:1014900081804FF003020481C76080F810A0A0F89B
:1014A000129080F816B082824381CCF87480E5B146
:1014B000DEF84020019C144404F00702009C0EEB6F
:1014C000C2020EF1380804EBC30103C9013302F173
:1014D000080C82E80300424514BF624672469D42F2
:1014E0003749F0D14B6C2B444B6436B10023354A5D
:1014F000376073601289B372328133490B7803F01D
:10150000040202F0FF04002A41D0002009E02F4B22
:1015100003EB09190820B9F80A30033B9A1AA9F815
:101520000A2005B0BDE8F08F032005B0BDE8F08FBC
:1015300004EBC70EA08808340244A64592B2F9D144
:10154000D01C80B240F2FD34A04205D90920E8E762
:10155000002A7FF462AF03201C4C94F80090B9F18C
:10156000000F07D1678925893D440544ADB2B5F523
:10157000806F21D3277C154D3FB96F8B2D8B3D4458
:101580000544ADB2B5F5806F09D30720C9E743F034
:10159000040320460B70FFF7EFFA2046C1E74FF037
:1015A00001094D4604EB051438446081B1F808B0D8
:1015B000486800905D4635E74D46F3E7782E0020F9
:1015C000502D0020DC2D00206C2E0020BC2D002092
:1015D000EC2D0020074A1378082B09D010B4591CB1
:1015E000054C117044F8230000205DF8044B70474F
:1015F0000C207047B82D0020982D00202DE9F04FC9
:10160000DFF8F0828DB098F800200023089307934C
:1016100009930A930B9393070DD5AF4C04F1200562
:1016200054F8043F07A803B19847A542F8D1002019
:101630000DB0BDE8F08F12F00107F8D142F00102C1
:1016400088F8002000F0C8FBA44BA54A1B68166868
:10165000039703F53F5A0AF13C0A03F1080903F521
:1016600080500197043BBB464FF6FF74CDF808A0AD
:101670005A689C498A4203F1040559D003F5805207
:1016800002E0934200F0008153F8041F0131F8D0CA
:101690004FEA0B13944D03210BF1010BE9541FFA90
:1016A0008BFB1346029A9A4209F5805900F5805047
:1016B000DED1002F40F00C819DF804300B2B0FD8A9
:1016C000DFE813F0C4000C00C4000C000E00DF00C3
:1016D000CC00DF000E00C900C600C900002304933F
:1016E000824A516F032912D8814B5B6C082B0ED8AC
:1016F000136F0B4403F00303C3EBC3039B00D01829
:101700000124D45401319DF810300371516798F8C9
:101710000030784903F0040202F0FF04002A86D169
:1017200043F0040320460B70FFF726FA20467FE7BC
:101730009A6871498A4234D001318A429ED1039A13
:10174000002A6BD16D490D604FF0020EA1F804E044
:10175000DA6801324D4604D1B8E02A68B2F1FF3FA1
:1017600014D0AA88A24206D02A8822B1AA68B2421E
:1017700001D9164601276A880332964405EB820593
:101780001FFA8EFEA842A1F804E0E6D8BEF1020FCF
:1017900014BF0822042201991143019103F58052DC
:1017A0007FE7514A4FEA0B1C02EB0C0E4FF0000A88
:1017B00002F80CA00221CEF80450AEF80810DD6843
:1017C00001354A4612D11AE09568B54201D92E4634
:1017D000012755880335294402EB850289B29042DE
:1017E000AEF808100BD91568013508D09588A542C8
:1017F00002D01588002DE7D14FF0010AE9E73A4AF7
:101800009444019A8CF80EA042F002020BF1010BF5
:1018100001921FFA8BFB03F5805242E7324A4FEAEE
:101820000B1102EB010C354A126805922E4A4FF05B
:10183000020E02F801E00BF1010B059A2F49CCF8DA
:1018400004201FFA8BFBACF808E07CE70B20EFE6E6
:101850000223049344E70323049341E798F80030FC
:101860001D4C43F0020323F0010388F8003004F11B
:10187000200554F8043F07A803B19847A542F8D1C2
:10188000D5E6012304932BE71C4B1B68BBB116491B
:101890004FEA0B1301EB030E1949CEF80450124D19
:1018A000A1F802B002210BF1010CE9541FFA8CFBE4
:1018B000AEF80810019B43F001030193F1E60F49D4
:1018C00002238B8001230D600393F3E7042262E778
:1018D000034B1E60F0E600BF942D0020A4260020DC
:1018E000782E0020DEC0ADDEBC2D0020EC2D0020C7
:1018F000502D00206C2E0020FE011EF1642E0020D1
:10190000DC2D002060B159B130B583B00C460DF12B
:1019100006010546FFF764F820B90A2003B030BD80
:1019200005207047BDF80620074B686803EB0213DB
:1019300001219A890A449A8120606B6800200C3347
:101940006360A97203B030BDBC2D002050B110B54A
:1019500082B00DF106010446FFF742F820B90A20D3
:1019600002B010BD05207047BDF80620084B03EB00
:1019700002139A8912B9062002B010BDA17A00297B
:10198000F9D00021013A9A810846A172E8E700BF28
:10199000BC2D00201E4B1B789B0702D40223184647
:1019A000704740B1CB1C9BB240F2FD32934205D947
:1019B00009231846704705231846704770B4154A26
:1019C000167896B95489158925441D44ADB2B5F5EC
:1019D000806F0AD2354602EB0512234453810680FC
:1019E00041800023184670BC7047147C094D54B9DF
:1019F0006C8B2D8B25441D44ADB2B5F5806F02D2A2
:101A000001263546E7E70723184670BC704700BF3C
:101A10006C2E0020BC2D0020124B1B789B0702D49B
:101A2000022318467047C8B10388022B02D9042349
:101A30001846704710B40C49448801EB03135A89C7
:101A4000111B03290CD4033A0021121B5A810B46A7
:101A50000180418018465DF8044B70470523E0E79C
:101A60000423F7E76C2E0020BC2D00200D4B1B78C3
:101A70009B0701D40220704759B110B40C884FF66F
:101A8000FF739C4201D04B882BB904205DF8044BB6
:101A9000704705207047022300225DF8044BFFF7D2
:101AA0009FBC00BF6C2E00203AB130B40C4C24789F
:101AB000A30704D4022030BC70470520704769B1E9
:101AC0000D884FF6FF74A54201D04B8813B904204E
:101AD00030BC7047022330BCFFF782BC0520EAE728
:101AE0006C2E002028B10E4A1278930703D40220EE
:101AF0007047052070470029FBD010B40C884FF6C2
:101B0000FF72944201D04B881BB904205DF8044B4E
:101B10007047032300225DF8044BFFF761BC00BF50
:101B20006C2E0020F8B51A4A1378990701D40220C8
:101B3000F8BD4FF6FF7188421DD0164D6C6F032C17
:101B40001BD81549496C082917D8296F214401F081
:101B50000301C1EBC10189006F18661C05246C5498
:101B6000012403F004013C71F88001F0FF046E676A
:101B700029B10020F8BD0420F8BD0820F8BD43F0CD
:101B8000040320461370FEF7F7FF2046F8BD00BFA0
:101B90006C2E0020EC2D0020502D0020F8B5174AA7
:101BA0001378990701D40220F8BD1548416F032925
:101BB0001AD8144C646C082C16D8046F124D0C44BF
:101BC00004F00304C4EBC4042E780131062700F8A6
:101BD000247041670EB10121297303F0040101F063
:101BE000FF0419B10020F8BD0820F8BD43F004033C
:101BF00020461370FEF7C0FF2046F8BD6C2E002073
:101C0000EC2D0020502D0020DC2D002010B50C4CB8
:101C100082B0ADF806002078ADF80410810702D438
:101C2000022002B010BD3AB133B101A90DF1060096
:101C3000FEF742FF02B010BD052002B010BD00BF8C
:101C40006C2E002000B50D4B83B0ADF8060018785F
:101C5000830703D4022003B05DF804FB51B14AB1FD
:101C6000134600200A460DF10601FEF725FF03B0DA
:101C70005DF804FB052003B05DF804FB6C2E00202A
:101C800000B50D4B83B0ADF806001878830703D478
:101C9000022003B05DF804FB51B14AB113460DF1C7
:101CA00006000A460021FEF707FF03B05DF804FBBB
:101CB000052003B05DF804FB6C2E002020B119B1A3
:101CC00003680B60002070470520704729DF7047CC
:101CD00028DF704770B50C4D696E042911D02B6E4A
:101CE0000B44032B88BF043B182202FB0354064617
:101CF0004B1C204600216B66FDF724FB346001205D
:101D000070BD002070BD00BF802E002070B5304C2B
:101D1000636E84B07BB1256E6E00731904EBC30350
:101D20001A7A012A09D0022A26D19889FFF7D0FF12
:101D3000112818D000BB04B070BD70199A8ADB8AD4
:101D400004EBC000D21AC1680069B2F5806F4FEA97
:101D50008303B4BF92B24FF4806219441844FFF772
:101D6000B5FF1128E6D11B4A137823F0020343F094
:101D70000403137004B070BD102268460021FDF703
:101D8000E1FA731904EBC3031A7A012A17D0022A65
:101D900009D19A89DB89ADF80A20D21A0123ADF85E
:101DA00008208DF800303544ED00621963595268FF
:101DB000019268469B680921984704B070BD1A6972
:101DC0009B8A029200218DF80010ADF80C30EAE7F2
:101DD000802E00207E2E00202DE9F0434FF01023AE
:101DE0005D696B1C49D0DFF8A48098F800C01CF036
:101DF000010F3FD1DFF890E02248CEEB0000000950
:101E000034D00EEB0011734607461A6812B15A68B7
:101E100002B1013F10338B42F7D13FB300260022BD
:101E2000194B9146F4B206E0596839B1013290423B
:101E300003F110030ED019680029F5D1597B4945EB
:101E400088BFD4B202F1010288BF8946904203F1F3
:101E50001003F0D124010EEB040301361A7B5D6000
:101E6000B742A5EB02354EF80450D8D14CF0010C26
:101E700088F800C00020BDE8F0834FF080535D6912
:101E80002D03B0E7B4260020A42600207E2E0020DB
:101E90002DE9F041274C2578EE0782B012D510B11C
:101EA000254DA84203D2022002B0BDE8F081234DA7
:101EB000A842F8D252B149B142EA0105AD0707D0B4
:101EC0000620F1E7012002B0BDE8F0810320EBE736
:101ED0000568A94201D20520E6E7466801EB8305C3
:101EE000AE42F8D30BB90420DEE7804601A81E46B7
:101EF00015460F46FFF7EEFE08B90720D4E7019913
:101F00002378C1F80080019A0898486013F006040D
:101F10004FF00101D560176196821172054A01D018
:101F20000020C1E743F002031370FFF7EFFE2046E5
:101F3000BAE700BF7E2E0020A4260020B426002091
:101F40002DE9F041244C2578ED0782B010D510B171
:101F5000224DA84203D2022002B0BDE8F081204DFC
:101F6000A842F8D241B1C1F30B053DB10620F3E719
:101F7000012002B0BDE8F0810320EDE70568A94229
:101F800001D20520E8E7466801EB0235AE42F8D3FE
:101F90000AB90420E0E7804601A81E4615460F4610
:101FA000FFF798FE08B90720D6E701992378C1F812
:101FB0000080019A4E600220390B13F006049181D3
:101FC00015821072044A01D00020C5E70343137044
:101FD000FFF79CFE2046BFE77E2E0020A4260020AF
:101FE000B426002020B1034B5B6E036000207047D5
:101FF00003207047802E00202DE9F047DFF8B082E3
:10200000A94C98F80030266E990784B079D502283B
:1020100000F0B680032840F0AF80A44D2B78013348
:10202000DBB2032B2B7040F2A780002710222F7009
:10203000394668467500FDF785F9AB1904EBC30313
:10204000E9461A7A012A00F0E180022A09D19A8928
:10205000DB89ADF80A20D21A0123ADF808208DF8EB
:1020600000303544ED0062196359526801929B6853
:102070008D4F484608219847636E013B6366002BED
:1020800040F0FD803A6E98F80010013221F0020114
:10209000042A88F800103A6630D1002626666BB311
:1020A0007500AB1904EBC303AA1904EBC202117A41
:1020B00001293DD002297FD0102268460021FDF77A
:1020C00041F9AB1904EBC303E9461A7A012A7ED021
:1020D000022A09D19A89DB89ADF80A20D21A012394
:1020E000ADF808208DF800303544ED0062196359D1
:1020F0005268019248469B680921984704B0BDE8A0
:10210000F0875A0738D5626E03F0FB0388F8003079
:10211000002AF3D0750043F00203AA1988F80030B2
:1021200004EBC203AA1904EBC202117A0129C1D13E
:10213000D38AAA1904EBC202A819928A04EBC00040
:10214000D21AC1680069B2F5806F4FEA8303B4BF49
:1021500092B24FF4806219441844FFF7B7FD11287A
:102160002FD198F8003023F0020343F0040388F8DD
:10217000003004B0BDE8F087636E002B90D1BDE75E
:102180007500AB1904EBC307484A3B7A4FF0000ACD
:10219000012B82F800A023D0022BEDD1FB89BA8954
:1021A000398A01339BB201329942FB81BA8155D001
:1021B000636E002BA2D03B469889FFF789FD11285A
:1021C000CFD000287FF478AF04B0BDE8F0871A695B
:1021D0009B8A029200218DF80010ADF80C3083E745
:1021E000FB8AB88AC21AB2F5806FB4BF92B24FF4BC
:1021F00080621344A9199BB204EBC1079842FB8289
:10220000294A0BD0526E002A93D177E71A699B8A2C
:102210008DF800700292ADF80C3022E7684610226B
:102220000021FDF78FF83B7A012BE94632D0022BD3
:1022300009D1FA89BB89ADF80A309B1A0122ADF8A1
:1022400008308DF80020AB19DB00E218E358526823
:10225000019248469B68144F00210CE76846102203
:102260005146FDF76FF83B7A012BE946DFD13A6919
:10227000BB8A8DF800A00292ADF80C30E3E73E6E09
:102280000136042E3E663FF408AF7500AB1907EB2C
:10229000C30309E73A69BB8AADF80C3000218DF819
:1022A00000100292CFE700BF802E0020E82E002011
:1022B0007E2E002010B40023012401E0202B0AD040
:1022C00004FA03F2024299B203F10103F6D0084680
:1022D0005DF8044B70474FF6FF705DF8044B704794
:1022E00098B191B130B40238002402E00134202CBE
:1022F0000AD030F8025F9542F8D13BB10A68012359
:1023000003FA04F414430C6030BC70470B680122DC
:1023100002FA04F423EA04030B60F5E770B49DF8B5
:102320000C60C0B1B9B1B2B10238002402E001348E
:10233000202C10D030F8025F9D42F8D1012303FA1F
:1023400004F401EB820246B9E4430B68234041F8F0
:10235000043B9142F9D170BC70470B68234341F8AC
:10236000043B8A42F7D00B68234341F8043B8A427E
:10237000F3D1F0E798B110B40238002302E0013342
:10238000202B0DD030F8024F9442F8D1012202FAEE
:1023900003F30B4214BF104600205DF8044B704756
:1023A0000020FAE7F0B491B100252B46012606FA89
:1023B00003F4144205D000EB450431F81370A780F4
:1023C00001350133202BF2D10560F0BC70470D467A
:1023D0000560F0BC704700BF002310B4194601240B
:1023E00004FA03F202400133002A18BF0131202B06
:1023F000F6D108465DF8044B704700BF064A4FF01F
:10240000A043105CD3F8043523FA00F000F001007B
:1024100080F00100704700BF08C00200044B195C47
:102420004FF0A04201238B40C2F80C35704700BF2B
:1024300008C00200044B195C4FF0A04201238B40FE
:10244000C2F80835704700BF08C002004FF0A04333
:1024500010B44FF480204FF400344FF400214FF4B7
:102460008012C3F80845C3F80805C3F80815C3F877
:1024700008255DF8044B70474FF0A04310B44FF4AB
:1024800080204FF400344FF400214FF48012C3F841
:102490000C45C3F80C05C3F80C15C3F80C255DF802
:1024A000044B7047084B4FF0A0411B5CD1F804056A
:1024B000012202FA03F323EA00020340C1F80825CF
:1024C000C1F80C35704700BF08C0020030B44FF0AF
:1024D000A04303224FF400354FF480244FF4002032
:1024E0004FF48011C3F84427C3F84827C3F84C279A
:1024F000C3F85027C3F80855C3F80845C3F80805C2
:10250000C3F8081530BC7047064A4FF0A043105C72
:10251000D3F8103523FA00F000F0010080F001003C
:10252000704700BF04C002000D2809D00E2809D052
:102530000F2809D010280CBF03204FF0FF30704740
:10254000002070470120704702207047014B185C43
:10255000704700BF04C0020010B51A4B1A6882B061
:10256000A2B100221A601B6800934FF08043012241
:10257000154C0099C3F80823A368627033B10CCBE3
:102580000020A2609847A368002BF8D10F4B1A686F
:10259000AAB100221A601B6801934FF08043022207
:1025A000094C0199C3F8082323690122A27033B1B1
:1025B0000CCB0120226198472369002BF8D102B08F
:1025C00010BD00BF00010040EC2E002004010040BF
:1025D00058B910B5054CA36833B10CCB0020A260EC
:1025E0009847A368002BF8D110BD7047EC2E00204F
:1025F00010B582B002A80023144C00F8013DFEF78C
:102600004FF9237893B9124A6360E3601068A360BE
:1026100010F00100236114D008F088FD20B94FF0BC
:1026200080430122C3F8182501232370E3689DF835
:10263000070001330122E360A270FEF759F902B0EE
:1026400010BD072100F006F8E6E700BFEC2E0020E1
:1026500000E100E0002810B418DB00F1604303F54E
:1026600061434901C9B283F80013C3B24009800035
:1026700000F1604000F5614003F01F020123934028
:10268000C0F8803103605DF8044B7047C3B2044A60
:1026900003F00F0449012244C9B21176E6E700BFF6
:1026A000FCEC00E030B51D4C94F8545083B015B1EB
:1026B000082003B030BD4FF0FF33FF220721062072
:1026C00023636363A363E36323646364A364E364D6
:1026D00023606360A360E36023616361A361E361DE
:1026E000236284F850306362A36284F85230E3625C
:1026F00084F8533084F85120FFF7ACFF084B094AA7
:102700001D601B68019301984FF00043012128468A
:1027100084F85410C2F8043303B030BD002F0020F9
:102720007C61004000600040034B93F8540000308F
:1027300018BF0120704700BF002F0020F0B5624C89
:10274000251895F93030002B01DB0820F0BD91F8F9
:1027500003E09446BEF1000F56D02368013300F029
:10276000A380002508266B1C574F54F82320013204
:1027700051D0AB1C9E4245D957F8232001324AD094
:10278000EB1C9E423ED957F82320013243D02B1D2B
:102790009E4237D957F8232001323CD06B1D9E4210
:1027A00030D957F82370013735D0AB1D9E4229D957
:1027B00054F82320444F01322DD0EB1D9E4221D9E5
:1027C00057F82320013226D005F108039E4219D97B
:1027D00057F8232001321ED005F109039E4211D97A
:1027E00057F82320013216D005F10A039E4209D979
:1027F00057F8237001370ED00B35AE4202D9E36A89
:10280000013307D00420F0BD236A013353D00825DB
:102810000C26A8E70B2326185DB244F823C086F8DF
:102820003050BEF1000F02D1234483F848008B786A
:10283000A3B94A784FF0A04600F5E073920046F83D
:102840002320CB78A3B9083D2C44097894F8502074
:1028500042EA811284F850201846F0BD830003F14B
:10286000A043D3F8002722F00202C3F80027E8E7CC
:10287000AB0003F1804303F5C0430A78D3F8101589
:1028800021F4473121F44071C3F8101512040002FD
:1028900002F44031D3F8104500F4F8520A432243C1
:1028A000C3F810250020F0BD002385F83030C4F8AF
:1028B00000C01D46BBE7082685F830603346C4F8E3
:1028C00020C03546B0E700BF002F0020F0B42E4DE9
:1028D0002E1882B096F93030072B1CDD2B4493F86C
:1028E00048309B09032B41D0012B14BF4FF44033D8
:1028F0004FF40033800000F1A040D0F8002722F40C
:102900004032C0F80027D0F800271343C0F8003742
:1029100002B0F0BC7047DAB2072AF9D8980000F18B
:10292000804000F5C04003F140029200D0F810450D
:1029300092B202F18042002744F0010402F5C04245
:10294000C0F810450197019817600029E0D096F96A
:10295000302055F82220002ADAD001220B4902FA51
:1029600003F3C1F8043302B0F0BC70474FF0A0434A
:10297000D3F81035C34013F0010F0CBF4FF40033F0
:102980004FF44033B6E700BF002F00200060004046
:102990004FF0A043D3F8103523FA00F000F0010007
:1029A000704700BF2DE9F04387B00026C94B019660
:1029B0001A68012A00F00482C74B1A68012A00F045
:1029C000F181C64B1A68012A00F0DE81C44B1A68F7
:1029D000012A00F0CB81C34B1A68012A00F0B881AC
:1029E000C14B1A68012A00F0A581C04B1A68012A60
:1029F00000F09281BE4B1A68012A00F07F81BD4B26
:102A00001A68012A00F0598116F0FF0F1AD0BA4F48
:102A100001250024A30003F180432E4203F5C043A7
:102A20004FEA45050BD0D3F8100557F82420D3F80A
:102A30001015C0F30420C1F3014102B190470134E5
:102A4000082CE7D1002E02DB07B0BDE8F083AA4CCA
:102A500000224FF0FF3327460292039301260DF127
:102A6000080894F950104D1C2DD0C9B221F0C000B7
:102A700006AB4FEAD00E03EB0E0201F0070312F88B
:102A80000CCC06FA03F31CEA030F1CD03D1889098D
:102A900095F9305057F82590B9F1000F00F0E88013
:102AA000032900F0E8804FEA800E0EF1A04E12F8E4
:102AB000145CDEF800271D40C2F3014240F0B580EF
:102AC000032A00F0A281002594F95110481C2FD050
:102AD000C9B221F0C00006AB4FEAD00E03EB0E02E4
:102AE00001F0070312F80CCC06FA03F31CEA030FFB
:102AF0001ED007EB000C89099CF930C057F82C90C8
:102B0000B9F1000F00F0C680032900F0C6804FEA3B
:102B1000800E0EF1A04E12F814CCDEF800271CEA4D
:102B2000030FC2F3014240F08D80032A00F092812E
:102B300094F952104A1C2ED0C9B221F0C00006AB45
:102B40004FEAD00E03EB0E0201F0070312F80CCC93
:102B500006FA03F31CEA030F1DD007EB000C8909EA
:102B60009CF930C057F82C90B9F1000F00F0898023
:102B7000032900F088804FEA800E0EF1A04E12F873
:102B800014CCDEF800271CEA030FC2F3014265D122
:102B9000032A00F04C8194F953104B1C2CD0C9B27D
:102BA00021F0C00006AB4FEAD00E03EB0E0201F09D
:102BB000070312F80CCC06FA03F31CEA030F1BD030
:102BC00007EB000C89099CF930C057F82C90B9F13B
:102BD000000F69D0032969D04FEA800E0EF1A04E94
:102BE00012F814CCDEF800271CEA030FC2F30142EE
:102BF00011D1032A00F0F080002D3FF425AF4FF0F3
:102C0000A043019AD3F8103593423FF41DAF029AC6
:102C10000193039225E7022AEED1032900F02D81CA
:102C2000B9F1000FE8D0C847E6E7022A7FF44BAFBE
:102C3000032900F02B810025B9F1000F3FF444AFC8
:102C4000C84741E7022A7FF473AF032900F01881D7
:102C5000B9F1000F3FF46CAFC84769E7022A9AD177
:102C6000032900F01081B9F1000F94D0C84792E712
:102C700003297FF428AF18F80E501D4308F80E50B2
:102C800011E7032987D118F80EC04CEA030C08F8A5
:102C90000EC070E703297FF44BAF18F80EC04CEA62
:102CA000030C08F80EC032E70329A5D118F80EC0AE
:102CB0004CEA030C08F80EC08EE700221A601B686D
:102CC00005934FF0A043059AD3F81035019346F0D1
:102CD000004699E600610040046100400861004040
:102CE0000C61004010610040146100401861004018
:102CF0001C6100407C610040002F0020654AD2F832
:102D0000042317067FF57BAE00221A601B6804932C
:102D1000049B46F0800672E65E4AD2F8042352060F
:102D20007FF568AE00221A601B680493049B46F08E
:102D300040065FE6574AD2F8042391067FF555AE68
:102D400000221A601B680493049B46F020064CE6A0
:102D5000504AD2F80423D0067FF542AE00221A6012
:102D60001B680493049B46F0100639E6494AD2F8E2
:102D7000042314077FF52FAE00221A601B6804930A
:102D8000049B46F0080626E6424AD2F8042355077B
:102D90007FF51CAE00221A601B680493049B46F06A
:102DA000040613E63B4AD2F8042397077FF509AEE1
:102DB00000221A601B680493049B46F0020600E69A
:102DC0003449D1F8041311F001011CD01E601B68B6
:102DD0000493049B1646EFE503297FF421AF4FF4DB
:102DE0000033DEF8002722F44032CEF80027DEF868
:102DF000002701351343EDB2CEF80037B9F1000FCB
:102E00007FF411AFFBE60E46D6E503297FF414AF3D
:102E10004FF40033DEF8002722F44032CEF80027CA
:102E2000DEF800271343CEF80037012504E7032915
:102E30007FF419AF4FF40033DEF8002722F440325C
:102E4000CEF80027DEF8002701351343EDB2CEF8A7
:102E5000003708E703297FF4FBAE4FF40033DEF8B8
:102E6000002722F44032CEF80027DEF80027013593
:102E70001343EDB2CEF80037EAE64FF44033B0E743
:102E80004FF44033EBE74FF44033D5E74FF4403392
:102E9000C0E700BF00600040F0B50479724E6401E5
:102EA000331987B0DD7E15B1082007B0F0BD4D7F26
:102EB0001D770D686B1C0BD04FF0A0470123AB4072
:102EC000C7F808350B6803F5E073032547F823506E
:102ED0004B685F1C06D003F5E0734FF0A045002758
:102EE00045F82370037906EB43131B7F002B4DD06D
:102EF00003688D69C3F824554F7D0B7D05683B43FE
:102F0000C5F86C3503680F684D68C3F80C75C3F8D5
:102F100014550B7D012B00F09B80331905465A6038
:102F20000B6951483351EAB12B79097F2A6800EBCC
:102F30004310037F002B65D1C2F81C31D2F81C71FD
:102F40002A680097009FC2F84431D2F844212B68C8
:102F500046480192019AC3F80403286840F30730F9
:102F6000FFF778FB2B792A6806EB43131B7F002BB6
:102F700044D00823C2F80035344400200123E3760E
:102F8000E0752076A075A07607B0F0BD05688F6962
:102F9000C5F8247591F815E00D7D07684EEA050522
:102FA000C7F86C550568D1F800E04F68C5F814758E
:102FB000C5F80CE50D7D012DAFD18D686F1C05D0D6
:102FC00005F5E0754FF0A04747F82530CB685D1C4C
:102FD0000DD001254FF0A04705FA03F3C7F80835D7
:102FE000CB6803F5E073032547F82350CB680568E9
:102FF0008F68C5F80835C5F810758EE70423C2F848
:103000000035B9E70023C2F81031D2F810712A68F0
:103010000297029FC2F82031D2F820712A680397E4
:10302000039FC2F82431D2F824712A680497049FC0
:10303000C2F84431D2F844212B6805920C48059A15
:10304000C3F80403286840F30730FFF703FB89E760
:103050008B685D1CBAD003F5E0734FF0A0450027E4
:1030600045F82370B2E700BF582F0020800002000F
:1030700010030200F0B503793D4A04685B01D118E2
:10308000097F00296DD00021C4F80015D118384CF3
:103090004968B1B1017904EB4114217F002963D162
:1030A0000168344CC1F808430168334E090B4CB237
:1030B0006409203401F01F01012505FA01F146F8E9
:1030C00024100179076802EB4111D7F80C65097FDC
:1030D000D7F814554FF0FF3EA9B3D7F80815D7F825
:1030E0001045C7F80CE5C7F814E50068C0F808E516
:1030F000C0F810E5771C06D006F5E0764FF0A0404A
:10310000022740F826706E1C06D005F5E0754FF0DA
:10311000A040022640F82560651C06D004F5E07446
:103120004FF0A040022540F82450481C06D001F57D
:10313000E0714FF0A040022440F8214013440022E7
:10314000DA765A60F0BDD7F80815D7F81045C7F8F9
:1031500014E5C7F80CE50068C0F808E5C0F810E50C
:10316000C8E7C4F8001591E70168044C9AE700BF6E
:10317000582F00208402020000E100E0100302004A
:10318000F0B50379534C5B01E51887B02D7F3DB155
:1031900001F06045B5F1005F02D0102007B0F0BD2E
:1031A00023444C4F9E7D16B1112007B0F0BD9A7597
:1031B00099609E8205796D017A19137F13BB0168AE
:1031C000C1F81C31D1F81C61016804960126049FE6
:1031D0008E600168D2F808E0C1F81C31D1F81C31CA
:1031E0000593059B968A938A5768B6B201331EF8F9
:1031F00006609BB29382C1F81C65002F2FD000207F
:1032000007B0F0BD03689168C3F82061D3F820715E
:1032100003680197019FC3F85861D3F858610368A8
:103220000296967D029FC3F84415C3F8486503686B
:10323000012199605368002BE1D1036801E0002966
:1032400045D1D3F82021D3F85811002AF7D000290E
:1032500014BF0F2000202C440023A3759EE7967D09
:10326000938A9BB29E4202F1140122D9016804E0C4
:10327000938A9BB2B3F5807F03D0D1F81C31002B29
:10328000F6D0938A9BB2B3F5807FE9D0C1F81C7168
:10329000D1F81C310393039BB2F814C0938A1FFA30
:1032A0008CFC01331EF80CC09BB29382C1F81CC584
:1032B000D6E70B889BB2B3F5807F08D00268D2F8BE
:1032C0001C31002BFBD00123D3600020C3E70F206B
:1032D000C1E700BF582F00200279044B03EB4213D3
:1032E000987D003018BF0120704700BF582F002084
:1032F00070B59B4C237F8EB0002B75D1994AD2F8C4
:103300000413890548D4974BD3F80423520704D5F6
:10331000D3F80821002A40F0CA80924BD3F81C2130
:10332000C2B1A28AA07D8E4992B282424FF00002C1
:10333000C3F81C2180F0A980D3F81C210692069ABC
:10334000888A8A8A8D6880B20132285C92B28A8229
:10335000C3F81C05834BD3F84421DAB10022C3F82B
:103360004421D3F84411A27E04910499002A40F02C
:103370008980E27D7A4B6AB10022587ED968DA757D
:1033800001228DF830000B918DF828200AA893E8CF
:10339000060090470EB070BDD2F824110029B2D0BB
:1033A000C2F82431D2F82411A37E07914FF40171A1
:1033B0000798C2F808130BB901235360694A022326
:1033C0008DF82830D2F88034C2F88034E07DE2688D
:1033D0000D9300238DF83000E375237621680B925E
:1033E00063680AA8984798E75E4BD3F82421002A1F
:1033F00040F09380D3F8101161B1C3F81021D3F8D5
:10340000101103910399D3F83C15E07DC9B28842AD
:1034100000F0AA80534BD3F84421B2B10022C3F884
:103420004421D3F84411E07D019101994C4960B1E8
:10343000D3F83C35C8688DF830300123CA750B903D
:103440008DF828300AA80AC99847464BD3F820219E
:10345000002A9FD00022C3F82021D3F82011A07D9C
:10346000009100993E49002894D0D3F84C058B6810
:103470008DF830008A750B938DF828200AC90AA8A8
:10348000984787E701221A6073E7D3F81C31059348
:10349000059B00283FF45EAF8B688DF830008A757D
:1034A0000B938DF828200AC90AA8984752E7E17DB6
:1034B0002B4A002970D00021C3F80811D3F8081155
:1034C00008910899D068517ED3F818354354537E3B
:1034D000D17D0133DBB25376627E214B8A427FF489
:1034E0001CAF1A7E002A6DD19B7E13B91D4B0122A1
:1034F0005A601C4AE06863684FF40171C2F808130F
:10350000627E8DF83020002501220B902168E57540
:103510008DF828200AA89847FFE60022C3F8242146
:10352000D3F82411029102218DF828100299D3F8C2
:103530008014C3F880140D91D3F83C15E368E2754C
:1035400022768DF830100B93216863680AA898479B
:10355000044BD3F84421002A3FF477AF5EE700BF65
:10356000582F002000200040217EF1B1D3F80062E6
:10357000E17526F02001E568C3F8001226698DF890
:10358000300001238DF82830227621680B95E66003
:1035900063680AA898473DE7C3F80811D3F80821E3
:1035A0000992099AD3F8183596E7E268E175012384
:1035B0008DF830008DF828300B9294E80A000AA8A4
:1035C000984727E7DE685D7E1869DA7501210022D9
:1035D000D8601A765A768DF828100B968DF83050F0
:1035E00093E806000AA8904797E600BF0220FEF77E
:1035F00059BF00BF2DE9F0470D460646FEF794FF80
:1036000003281ED8012D04461FD00ED3022D1AD137
:103610001C4B00EB40041C44657895B11A4B1B68A9
:103620007BB12846BDE8F04718471848FDF7FCF87D
:103630001449174A04EB44030B44155D9B789D42E3
:10364000EBD0BDE8F087BDE8F087DFF838804700B1
:103650003B1808EB030218F8035053782BB92744A2
:1036600047440B4BBA781A55D7E7DFF8289007483C
:103670004A464FF40041FDF781F80028EFD189F860
:103680000060ECE7EC2F0020A42F0020A82F0020E2
:10369000A02F00209D2F002010B50078FEF744FFDA
:1036A00003280BD8064B00EB40001844407828B1A3
:1036B000044B1B6813B1BDE81040184710BD00BF94
:1036C000EC2F0020A42F0020B34B1B68DB0700D495
:1036D000704770B5B14EB24D33782C78FBB9172CCA
:1036E0001CD8DFE814F0F100140114016300760027
:1036F000830096005D0039002C0039002C00A300E7
:10370000A800A800A800A800A800CE00DE000101C3
:10371000460018001800FEF7AFFE2C7070BDA14BDC
:103720001B7800203070002B00F00581FEF782FE30
:103730000120FEF77FFE0320FEF77CFECFE701238A
:1037400018463370FEF7AEFE00224FF480419648D3
:10375000BDE87040FDF712B8012318463370FEF73C
:10376000A1FE002240F6CD418F48BDE87040FDF734
:1037700005B88C4B1B78002B00F0FE800020FEF774
:1037800059FE0120FEF756FE0320FEF753FE0020EF
:10379000FEF744FE0120FEF741FE15232B7070BD9D
:1037A0000020FEF73BFE07232B7070BD0020FEF7C4
:1037B00025FE002800F0D3800020FEF73BFE46F2F5
:1037C000666103232B7000227748BDE87040FCF748
:1037D000D5BF0020FEF712FE002800F0C5800020B3
:1037E000FEF728FE4FF400310423EBE70020FEF73C
:1037F00005FE002800F0BD800020FEF71BFE05231B
:103800002B70002241F69A116748BDE87040FCF722
:10381000B5BF0020FEF746FE06232B70002240F6BF
:10382000CD416148BDE87040FCF7A8BFFEF724FE1B
:103830000C232B7070BD5D48FCF7F6FFD4F111042A
:1038400005467BD0002879D1012C13D0C82303FB77
:1038500004F44FF4FA704FF400430021C3FB040159
:103860004FF47A72002307F01BFD2A4601464F48A9
:10387000FCF784FF0220FEF7D1FD4A4B01221A70AB
:1038800070BD484B1B78002B79D00020FEF7D2FD8D
:103890000120FEF7CFFD0320FEF7CCFD12232B7095
:1038A00070BD404B1B78002B6FD00020FEF7C2FD8F
:1038B0000120FEF7BFFD0320FEF7BCFD0020FEF750
:1038C000ADFD13232B7070BD364B1B78002B59D0E8
:1038D0000020FEF7AFFD0120FEF7ACFD0320FEF750
:1038E000A9FD00232B7070BD2E4B1B78002B4FD0F1
:1038F0000020FEF79FFD0120FEF79CFD0320FEF750
:1039000099FD0120FEF78AFD14232B7070BD002065
:10391000FEF774FDC8B10020FEF78CFD022C4EF2BC
:10392000666118BF4FF400312C7000221E48BDE8BC
:103930007040FCF723BFFEF789FDD0E60220FEF7BA
:1039400079FD184B00221A7070BDFEF767FD43F237
:10395000333341F69A11022C18BF1946E4E7FEF7FB
:103960005DFD41F69A112CE7FEF758FD43F2333125
:103970003AE7FEF753FD42E7FEF768FD07E7FEF77B
:1039800065FD8BE7FEF762FDABE7FEF75FFD95E7B0
:10399000FEF75CFDB5E700BF982F00209E2F0020AA
:1039A000C82F00209C2F0020782F0020CC2F002033
:1039B000FEF7AABD38B5C44B1B6813F0010401D152
:1039C000204638BDC14C23780546E3B9172D00F2D7
:1039D0007881DFE815F00B013101310169007D00CC
:1039E0009100A5005B003500280035002800B300D9
:1039F000BA00BA00BA00BA00BA00E300F6001C012F
:103A0000420063006300B24B1B7800202070002B43
:103A100000F02781FEF70EFD0120FEF70BFD0320CD
:103A2000FEF708FDD2E7012318462370FEF73AFDA2
:103A300000224FF48041A748BDE83840FCF79EBE05
:103A4000012318462370FEF72DFD002240F6CD41DC
:103A5000A048BDE83840FCF791BE9D4B1B78002B79
:103A600000F020810020FEF7E5FC0120FEF7E2FCDB
:103A70000320FEF7DFFC0020FEF7D0FC0120FEF75C
:103A8000CDFC954B15221A70002499E70020FEF713
:103A9000C5FC914B07221A70002491E7FEF7ECFC5D
:103AA0008D4B00241D708BE70020FEF7A7FC00283B
:103AB00000F0E1800020FEF7BDFC46F26661864B17
:103AC000844803241C700022BDE83840FCF756BE31
:103AD0000020FEF793FC002800F0DC800020FEF7B9
:103AE000A9FC4FF400317C4B7A4804241C7000225E
:103AF000BDE83840FCF742BE0020FEF77FFC0028FE
:103B000000F0CD800020FEF795FC734B7148052432
:103B10001C70002241F69A11BDE83840FCF72EBE19
:103B20000020FEF7BFFC6C4B6A4806241C70002284
:103B300040F6CD41BDE83840FCF720BEFEF79CFCC6
:103B4000654B0C221A7000243AE76448FCF76CFEBF
:103B50000446D5F1110000F08780002C40F08480ED
:103B6000012814D0C82505FB00F54FF400434FF49D
:103B7000FA700021C3FB05014FF47A72002307F0AD
:103B80008FFB224601465548FCF7F8FD044602200B
:103B9000FEF744FC4E4B01221A7011E74C4B1B7888
:103BA000002B00F082800020FEF744FC0120FEF78D
:103BB00041FC0320FEF73EFC474B12221A70002402
:103BC000FEE6434B1B78002B75D00020FEF732FC3D
:103BD0000120FEF72FFC0320FEF72CFC0020FEF74F
:103BE0001DFC3D4B13221A700024E9E6384B1B786C
:103BF000002B5DD00020FEF71DFC0120FEF71AFC13
:103C00000320FEF717FC344B00241C70D8E6304B21
:103C10001B78002B52D00020FEF70CFC0120FEF791
:103C200009FC0320FEF706FC0120FEF7F7FB2A4BF8
:103C300014221A700024C3E60020FEF7DFFBF8B15F
:103C40000020FEF7F7FB022D4EF2666118BF4FF41D
:103C50000031214B1F481D700022BDE83840FCF7A1
:103C60008DBDFEF7F3FBB1E60220FEF7E3FB184B38
:103C700000221A70A4E6FEF7D1FB41F69A111EE766
:103C8000FEF7CCFB43F2333341F69A11022D18BFF5
:103C90001946DEE7FEF7C2FB43F2333123E7FEF7B6
:103CA000BDFB32E7FEF7D2FBE5E6FEF7CFFB83E78D
:103CB000FEF7CCFBA7E7FEF7C9FB8FE7FEF7C6FBD5
:103CC000B2E700247CE600BF982F00209E2F002042
:103CD0009C2F0020782F0020C82F0020CC2F002000
:103CE000F0B5204A204B1060044610F0020083B06B
:103CF000196013D01D4B1E480E210F2710261125C9
:103D0000197040F266620421DF709E715D72FCF7EB
:103D100049F8A0B1E3071DD403B0F0BDE20719D400
:103D2000144A15480021FCF717FD0028F4D1134A66
:103D30001348012103B0BDE8F040FCF70DBDFCF7CE
:103D400089F80028E6D101460E4A0F48FCF704FD29
:103D5000E10703D50190FEF7B9FB01980028DFD0F9
:103D600003B0F0BD982F0020A42F0020EC2F0020DE
:103D700014C00200C936020010C00200ED35020076
:103D800034C00200993602000CC00200032801D999
:103D900007207047012A12D0012917D008D3022921
:103DA000F6D10D4B00EB4000034400205A707047E1
:103DB000094B00EB4000034400209A707047012932
:103DC00001D00022E8E700F10E02D2B200EB40037E
:103DD00001490020CA547047EC2F002008B5FEF7B7
:103DE000B5FB800000F1A0430020D3F8002722F4A7
:103DF0004032C3F80027D3F8002742F44032C3F81A
:103E0000002708BD08B50020FFF7E8FF10B106281D
:103E100000D008BD0120FFF7E1FF0028F9D00628F7
:103E200008BF002008BD00BF10B50388102B08D0C4
:103E3000112B05D1264B18680138186038B110BD18
:103E400010BD234C216881B10131216010BD0122D8
:103E50000221FFF79BFF48B3072827D01D4B1B68A3
:103E6000002BECD0BDE81040184701220846FFF7B0
:103E70008DFF48B1072807D0164B1B6803B1984740
:103E800021680131216010BD072202210120FFF7C6
:103E90007DFF08B10728EFD1042202210020FFF79F
:103EA00075FF0028ECD00728E6D1E9E707220221B8
:103EB0000120FFF76BFF08B10728CFD1002108468A
:103EC0000A22FFF763FF0028B9D00728C6D110BD2A
:103ED000FC2F0020F82F0020194B10B5186031B1CD
:103EE00001200C46FFF764FD30B102232370154B0F
:103EF000186848B1002010BDFFF75AFDE8B9114B12
:103F0000207018680028F5D101220221FFF73EFF3A
:103F100008B10728EFD1072202210120FFF736FF61
:103F200008B10728E7D1002108460A22FFF72EFF33
:103F30000028DFD00728DED1DCE70B232370D6E78B
:103F4000F82F0020FC2F002032DF70473EDF704743
:103F500075DF704776DF70478ADF70478BDF704709
:103F60008CDF704769DF704710B50146044604488E
:103F700006F042FF21460348BDE8104006F0BABDF6
:103F80006C330020F430002010B50B8840F6772207
:103F9000934220D04DF67A22934203D0134C2378DB
:103FA00053B910BD114C0B794A8811490320FBF716
:103FB00005FD2378002BF4D00E4B0F481988002301
:103FC000237000F0F1FE11280CD00028E9D0BDE8E4
:103FD0001040FBF755BF8B884A8808490320FBF740
:103FE000EDFCDBE70123237010BD00BFF0300020A3
:103FF00080C002001C2500200C31002044C00200BB
:1040000038B50B78012B09D0022B06D18A881249CA
:104010000320BDE83840FBF773BC38BD0C460A1DD1
:104020004988054607F00EF858B96088002105F068
:1040300077F930F008030BD1284606F0BFFF18B916
:1040400038BDFBF71DFFF0E7BDE83840FBF718BFB0
:10405000FBF716FFF0E700BFBCC0020038B50B78D5
:10406000012B21D009D3022B06D10A79184903204C
:10407000BDE83840FBF744BC38BD0C460A1D4988F2
:10408000054606F0ABFEE8B96088002105F048F966
:1040900030F0080319D1284606F05EFE78B92846AC
:1040A00006F012FE38B938BD0A790A490320BDE886
:1040B0003840FBF725BCBDE83840FBF7E1BEFBF715
:1040C000DFFEECE7FBF7DCFEDEE7FBF7D9FEE2E71D
:1040D00004C10200D8C0020070B5B4B0382200217B
:1040E00006A8FBF72FF98022002114A8FBF72AF974
:1040F000082310224FF6FF7102A800930193FBF7EB
:1041000021F94FF6FF7005F04BF94FF6FF76B042FC
:1041100060D0034602AD002401E0082C09D0184607
:1041200025F8023B05F03CF9B042034604F10104D6
:10413000F3D1214602A805F007F9002840D1214615
:1041400002A805F023F9062801D0002835D114AAC9
:1041500001AB694606A805F001F91F4B00991A78D2
:10416000A0246FF3000250201A705C809880B9B9C7
:10417000019AAAB91A7802F0FD026FF382020021B7
:104180001A70D98003201549FBF762FB1248FFF72C
:10419000E3FEE0B90120FFF70DFCA0B934B070BD1B
:1041A0000F4A11780029E5D11A7842F0020261F332
:1041B00082021E211A70D980E4E7FBF761FEC6E790
:1041C000FBF75EFEBBE7FBF75BFE34B070BDFBF7B1
:1041D00057FEDFE70024ACE7003100202CC10200CD
:1041E0001430002010B5044682B0023CFDF704FFF5
:1041F000012C02D8094C23780BB902B010BD002362
:1042000001A82370FDF7EEFE019B1BB10123237073
:1042100002B010BDFFF760FFEFE700BF08310020DC
:1042200030B5072883B01DD00A280ED0042801D04D
:1042300003B030BD13210020FFF78CFE30F00803DF
:10424000F6D0FBF71DFE03B030BD0020FFF7B2FB38
:10425000F8B9FFF7D7FDC8B9FFF776FE0028F0D10F
:1042600003B030BD0E4C2378002BE1D10D49032063
:104270000125FBF7EDFA2570FFF770FE01A8FDF7A9
:10428000B1FE019B43B1084B1D70D1E7FBF7F8FD70
:10429000E2E7FBF7F5FDDCE7FFF71EFFC8E700BF2D
:1042A0001430002048C102000831002010B5037806
:1042B00084B004460E2B12D8DFE803F027112C112E
:1042C000381A1311231113081311400003A8FDF726
:1042D00089FE039B002B34D01B4B01221A7004B0C3
:1042E00010BD80680028FAD0FBF7CAFD04B010BDED
:1042F000FDF754FC0E280346F1D033F00803EED04E
:10430000F2E700690028EAD0EEE710490320FBF746
:104310009FFAE4E7408800F05FFB227A63880C494B
:10432000009202460320FBF7AFFBD8E704A9002365
:1043300001F8043D408804F0FDFFD0E704F0FCFFE5
:10434000CDE7FFF7C9FECAE70831002074C10200BB
:10435000A8C10200F0B5044685B000F0AFFA2046CF
:1043600004F05EFF2146914800F052FD214690483E
:1043700006F0AAFD21468F4806F028FC2046FFF7EC
:1043800053FD21468C4802F007FD2388103B462B45
:1043900048D8DFE803F05B80474747474747474730
:1043A000479E47A8475347474747474747474747D9
:1043B000474747474747474747474747474747478D
:1043C000474947474747474747474747474747477B
:1043D000474747474747474747474747490002330B
:1043E000013A92B21944754807F00EF9D0B97449F0
:1043F0000320FBF72DFA734DFFF7B0FD2E78724ABC
:10440000012304F108006FF3410629462E70FFF7DF
:10441000A7FD6E4B00221A7020B102466C490120A4
:10442000FBF76EFA05B0F0BDA0881321FFF792FDEF
:104430000028F7D0FBF724FD05B0F0BD04F108011A
:10444000A088FFF785FD0028ECD0F3E76149624DB5
:104450000320FBF7FDF9614BA18819805348002325
:104460002B7000F0A1FC112800F09980002840F08A
:1044700093800720FFF79EFA002840F08A8000F022
:10448000D1FA0028CED101A8FDF7ACFD019BE3B91C
:10449000FFF722FEC6E70320227A5149FBF730FAE4
:1044A0000020FFF787FA002870D14FF4187200211E
:1044B0003E48FAF747FF00F0B5FA0028B2D102A84B
:1044C000FDF790FD029B002BE2D0464B01221A70B3
:1044D000A8E7207A022800F0A7800328A2D1424949
:1044E000FBF7B6F99EE7354807F0DAF840B3E57D0B
:1044F000ED0804F1180195D0677E207E092F024651
:1045000000F0A980002304E05678CA5C092E3FF42D
:1045100066AF013213449D4201EB0302F4D8082F29
:104520004FF0000305D187E05278C85C082A00F0FC
:104530008380013003449D4201EB0302F4D871E70C
:10454000E67DF60804F118033FF46CAF677E217E28
:10455000022F0A4604D17CE055781A5C022D47D020
:1045600001321044B04203EB0002F5D3032F4FF0A9
:10457000000204D168E04878995C032864D00131D6
:104580000A44B24203EB0201F5D34BE7FBF778FC98
:104590008BE7FBF775FC72E7FBF772FC69E71349E1
:1045A0000320FBF755F901232B7062E70C31002043
:1045B0006C330020F43000200030002080C3020063
:1045C00008C30200003100203CC00200143000206B
:1045D00080C20200F4C10200F03000201C2500203F
:1045E000B4C2020008310020DCC202000CC202008A
:1045F0000230013A92B2034452083FF413AF1988D3
:1046000041F60D06B14218BF002008D117E0DD7851
:10461000897841EA0521B14203F102030FD001304C
:1046200082421946F3D1FDE603A8FDF7DBFC039BAC
:10463000002B7FF44AAF2BE7421E0233D1E6074935
:104640000320FBF705F9D6E6901C4A1E034492B2FC
:10465000D2E73846CDE70223C2E600BF54C20200CB
:1046600070B586B0FBF7B6FF08B1FBF709FC8349CC
:104670000320FFF735FB08B1FBF702FC03A900207C
:10468000FFF72AFC08B1FBF7FBFB00209DF80C505C
:10469000FBF7C2F808B1FBF7F3FB794B79491868CF
:1046A00001900023D82201A806F046FD08B1FBF7CF
:1046B000E7FB06AC002344F8103D204606F0B2FDAF
:1046C00008B1FBF7DDFB0C2200210DEB0200FAF72D
:1046D00039FE0023029A8DF80C3003A90120FFF760
:1046E00041FC08B1FBF7CCFB0C2200210DEB0200D2
:1046F000FAF728FE002101238DF80C10029A8DF89C
:104700000D3003A940208DF80E30FFF72BFC08B1C7
:10471000FBF7B6FB0C2200210DEB0200FAF712FEAC
:1047200001219E238DF80C10029AADF80E3003A9DA
:104730002320FFF717FC08B1FBF7A2FB0C22002196
:104740000DEB0200FAF7FEFD4FF4A0760123029A6A
:104750008DF80C3003A920208DF80E30ADF81060D4
:10476000FFF700FC08B1FBF78BFB204606F064FD69
:1047700008B1FBF785FB444806F028FD08B1FBF7BC
:104780007FFB424806F02CFD08B1FBF779FB40495E
:10479000404802F0EBFA08B1FBF772FB04F052FD5F
:1047A00008B1FBF76DFB0522002103A8FAF7CAFD4B
:1047B0009DF80C309DF80F109DF8102043F0010378
:1047C000032003F0F10360F30613014302436FF388
:1047D000C7130726102403A88DF80C308DF80F108E
:1047E0008DF810208DF80D608DF80E4004F08EFDD0
:1047F00008B1FBF745FB284804F06CFD08B1FBF756
:104800003FFB264800F04EFA08B1FBF739FB244B7A
:104810002448039303A906F03BFB08B1FBF730FBE8
:10482000214B2248039303A906F0B4F908B1FBF722
:1048300027FB1F490320FBF70BF8022D11D11D495F
:104840000320FBF705F804F0B5FD38B9FBF78AF94A
:104850000028FBD1FFF77AFB0028F7D0FBF710FB0D
:10486000F4E703A8FDF7BEFB039B1BB1124B01222B
:104870001A70EBE7FFF730FCE8E700BF21420200C7
:1048800038C002001830002055430200E541020004
:10489000893F020000300020AD420200693F020063
:1048A000014002006C3300205D400200F430002023
:1048B00034C3020068C30200083100200388112BB2
:1048C00072D02DE9F0431A2B95B0804651D0102BB1
:1048D00002D015B0BDE8F083DFF8EC90D9F848209D
:1048E000D9F8443009F1040123EA020203A8FDF7D4
:1048F00059FD039E7EB1002427460DF10E05314976
:1049000035F8023F00970134A1F140001D22FDF768
:1049100005FDA642F3D1D9F84400B8F804602A4C4A
:10492000C043FDF7C7FC4FF6FF73984243D004EB3A
:104930004005324604F14801201D0123AE80FDF7F9
:10494000CFFC324604F14401201D0123FDF7C8FCD1
:1049500098F80F30B8F80420A3F10203B3FA83F3F8
:104960005B0904F14C01201D15B0BDE8F043FDF7D3
:10497000B7BC037A154982881F2B94BF00230123FB
:10498000A1F14C00FDF7ACFC98F808301049B8F8DC
:1049900004202F2B94BF00230123A1F1500015B058
:1049A000BDE8F043FDF79CBC0A4982880023A1F1D1
:1049B0004400FDF795BC042015B0BDE8F043FBF7BB
:1049C0005FBA00BFBC33002078330020C83300201A
:1049D000CC330020C033002038B5094C05460246D0
:1049E000616C201DFDF7C6FC40B12A46E16C201D1C
:1049F000FDF7C0FC002814BF0220012038BD00BF15
:104A000078330020024B0246196D181DFDF7B2BC29
:104A100078330020024B0246596D181DFDF7AABCE1
:104A200078330020024BD86C9B6C1840FDF7D4BC47
:104A30007833002010B5044904464A6C0431FDF770
:104A4000B1FC204610BD00BF7833002030B40A4DC1
:104A500000232968012401E0182B0AD004FA03F28C
:104A60000A42D8B203F10103F6D10A432A6030BCEE
:104A70007047184630BC70477833002030B4084D7A
:104A800001232C688B40234002D1184630BC70476C
:104A900005EB81010246896D281D30BCFDF76ABC1B
:104AA0007833002070B4084D01242E688C403442C5
:104AB00001D170BC704705EB8101134658310246A5
:104AC000281D70BCFDF70CBC7833002010B40749DA
