:020000021000EC
:10F0000000000120BD360200E5360200E7360200AE
:10F01000E9360200EB360200ED3602000000000087
:10F02000000000000000000000000000EF360200B9
:10F03000F136020000000000F3360200F53602004F
:10F040009D0A0200F736020095180200F73602000A
:10F05000F7360200F7360200490F0200F7360200C9
:10F06000F7360200F7360200F7360200F7360200E4
:10F07000F7360200F7360200F7360200F7360200D4
:10F08000F736020041FE0100F7360200F7360200B3
:10F09000E1FE0100F7360200D53E0200F73602001D
:10F0A000F7360200F7360200F7360200F7360200A4
:10F0B000F7360200F73602000000000000000000F2
:10F0C000F7360200F7360200F7360200F736020084
:10F0D000F7360200F7360200F736020000000000A3
:10F0E0000000000000000000000000000000000020
:10F0F0000000000000000000000000000000000010
:10F1000000000000000000000000000000000000FF
:10F1100000000000000000000000000000000000EF
:10F1200000000000000000000000000000000000DF
:10F1300000000000000000000000000000000000CF
:10F1400000000000000000000000000000000000BF
:10F1500000000000000000000000000000000000AF
:10F16000000000000000000000000000000000009F
:10F17000000000000000000000000000000000008F
:10F18000000000000000000000000000000000007F
:10F19000000000000000000000000000000000006F
:10F1A000000000000000000000000000000000005F
:10F1B000000000000000000000000000000000004F
:10F1C000000000000000000000000000000000003F
:10F1D000000000000000000000000000000000002F
:10F1E000000000000000000000000000000000001F
:10F1F000000000000000000000000000000000000F
:10F2000010B5054C237833B9044B13B10448AFF360
:10F2100000800123237010BD084200200000000080
:10F2200018520200084B10B51BB108490848AFF34B
:10F2300000800848036803B910BD074B002BFBD0C2
:10F24000BDE81040184700BF000000000C4200203D
:10F25000185202000442002000000000154B002B51
:10F2600008BF134B9D46A3F5803A00218B460F46FD
:10F270001348144A121A00F065F80F4B002B00D007
:10F2800098470E4B002B00D0984700200021040027
:10F290000D000D48002802D00C48AFF3008000F0AC
:10F2A0002BF82000290002F09FFF00F011F800BFAA
:10F2B0000000080000000120000000000000000025
:10F2C000084200209C6100200000000000000000B7
:10F2D00008B5074B044613B10021AFF30080054B7E
:10F2E0001868836A03B19847204600F033F800BFDE
:10F2F00000000000684C020070B50E4B0E4CE41A82
:10F30000A41000251E46A54204D056F82530984783
:10F310000135F8E705F09CFC084C094BE41AA410F1
:10F3200000251E46A54204D056F8253098470135E1
:10F33000F8E770BDFC410020FC41002000420020A5
:10F34000FC41002002440346934202D003F8011B13
:10F35000FAE77047FEE700BF0378012B04BF014ABC
:10F3600013707047244300202DE9F04FC7B01C46AE
:10F370009248002914BF0A23002316460D46009325
:10F3800002F07CFA002840F0E480002C00F0E580D8
:10F3900006AB83460193519B539A9E1820250296F3
:10F3A00058460099019A0B46034404933133D3180D
:10F3B0000393171800295FD07B4203F003038B42AD
:10F3C00028BF0B46062900F2EB800B46019A012B61
:10F3D000155407F1010200F0E180022B7D7007F166
:10F3E000020200F0DB80032BBD7007F1030200F086
:10F3F000D580042BFD7007F1040200F0CF80062BAE
:10F400003D7107F1050240F0D1807D71BA1D9E4625
:10F41000009999422ED0009EC3EB060AAAF104017E
:10F4200006F1FF3B8908C3EB0B0B0131BBF1020F67
:10F430004FEA810C12D90344019E4FF0203001297C
:10F4400006EB030BF05005D00229CBF8040001D0E5
:10F45000CBF80800D4456244E6440BD00098157000
:10F460000EF10103834205D20EF1020E7045557074
:10F4700000D99570009B1F44039B059707F1330942
:10F4800007F1030A264603F101084C46029FDDF806
:10F4900044910DE00AF8035C0AF8025C0AF8015C8A
:10F4A0000AF1030AA24508F8015C08F101082FD00F
:10F4B000BE42EFD24E456BD2509B13F806B00AF80D
:10F4C000015C4FEA2B105FFA80FE09280BF00F0059
:10F4D000D4BF0EF1300E0EF1370E092894BF303034
:10F4E00037300AF803EC0AF8020C04F0E1FE584445
:10F4F0000AF1030A407810F0970F08BF4FF02E0B67
:10F50000A24508F801BC06F1010608F10108CFD1B7
:10F51000049B03980297059F019903F1430A0D226A
:10F520000A23027443745246254887F8305004F089
:10F53000EAFE5FFA8AF222492048344602F0F2F8E5
:10F5400038B91E4802F09AF918B9029B9C42FFF4A0
:10F5500028AF204647B0BDE8F08F55B306A82B680A
:10F56000184A01904FF4807104F0D8FE0028F0DBB7
:10F570000546304604F004FF019BC22828BFC22084
:10F58000834602463146581904F0BDFEAB4402E7FB
:10F59000C9EB0600529B13F800B090E79E4637E790
:10F5A000002B7FF413AF3A469E4634E74FF0050E2A
:10F5B0002EE706AB25460193DBE700BF7C40002029
:10F5C000244200208C4C02002DE9F0416B48C6B06B
:10F5D0000C4616461D4602F051F9A8B9C4B106AF53
:10F5E0002368674A38464FF4807104F097FE00287C
:10F5F0000ADB4C9B8046062B00F2BD80DFE803F05F
:10F60000146670327C405200002046B0BDE8F081A4
:10F610004C9B062B00F2AC80DFE803F0049C969034
:10F62000847E8A004FF00008304604F0A9FE00EB0B
:10F630000803FF2B044640F29380002CE4DB08EB28
:10F640000402B2F5807FDFD8D4B206A94D4804F099
:10F650005AFE22464B49494802F064F8B0FA80F05D
:10F660004009D2E7C0F58071AA686C682B680192E6
:10F670000094324607EB080004F050FE0446DCE735
:10F68000C0F580712869EA682B680390AC686D68E2
:10F69000009502920194324607EB080004F03EFE0A
:10F6A0000446CAE7C0F580716A6928692B6804922C
:10F6B000EA680390AC686D68009502920194324646
:10F6C00007EB080004F02AFE0446B6E7C0F5807197
:10F6D0002B68324607EB080004F020FE0446ACE736
:10F6E000C0F580716A682B68009207EB080032460B
:10F6F00004F014FE0446A0E7C0F58071EA68AC6827
:10F700002B686D68009502920194324607EB080061
:10F7100004F004FE044690E74FF480714FF00008B7
:10F7200006AFAFE74FF480714FF0000806AFE5E792
:10F730004FF480714FF0000806AFB5E74FF48071C9
:10F740004FF0000806AF8FE74FF480714FF00008CC
:10F7500006AFC7E74FF480714FF0000806AFB7E778
:10F7600006AB314603EB0800224604F0CCFD64E70B
:10F770000024224669E7002461E700BF7C400020A6
:10F780008C4C020024420020F0B51A4F3B7889B01F
:10F790001BB1194B1B78834229D0184D06460FCD5B
:10F7A0006C460FC495E80F004FF0000E84E80F0080
:10F7B0000625052107224FF0EB7311480391082419
:10F7C00002928DF814E000950194069301F024FF55
:10F7D000002E0C4A0A4818BF0022694601F02EFE8E
:10F7E00018B9054A012316703B7009B0F0BD00201E
:10F7F00009B0F0BD26430020254300206C4C0200D8
:10F800007C40002059F3010000487047C9F5010011
:10F810000048704769F3010038B50020FFF7B4FFD6
:10F82000044668B9FFF7F0FF0546FFF7F1FF054B07
:10F83000FF22C3F810541C605C60C3F814049A6083
:10F84000204638BD284300200120FFF79DBF00BFA0
:10F850002DE9F04383B002AB4FF0000803F8018DAF
:10F86000254C064618460D46A76800F0C5FFA2685D
:10F870006368D4F8009013440133C9EB0303012BF0
:10F8800007D80BBB9DF8070000F0DEFF03B0BDE812
:10F89000F08309F101039DF80700236000F0D4FF15
:10F8A0000122002362F3010368F3820307EA0907D8
:10F8B00066F3C50304EB870468F3891365F39F239C
:10F8C000E36003B0BDE8F0830121434661F3010327
:10F8D00068F38203052161F3C50309EA02020749BF
:10F8E00004EB820268F3891309F1010761F39F2396
:10F8F0002760D360C6E700BF28430020944C020075
:10F900002DE9F04782B002AB002603F8016D294CC7
:10F910008146184617468846A56800F06DFFA26824
:10F920006368D4F800A013440133CAEB0303022B2D
:10F9300007D843BB9DF8070000F086FF02B0BDE882
:10F94000F0870AF102039DF80700236000F07CFFB6
:10F950000122002362F301030AEB020166F3820332
:10F9600069F3C50305EA0A0A0D4004EB8A0A62F34B
:10F97000891304EB850468F39F23CAF80C30E76011
:10F9800002B0BDE8F0870121334661F3010366F35D
:10F990008203052161F3C5030AEA0202064804EB6B
:10F9A000820266F389130AF1010160F39F2321604B
:10F9B000D360BFE728430020944C02002DE9F04FAC
:10F9C00083B002AD002605F8016D2D4C8246284615
:10F9D00090461F468946A56800F00EFFA26863683E
:10F9E000D4F800B013440133CBEB0303032B07D847
:10F9F0007BBB9DF8070000F027FF03B0BDE8F08F48
:10FA00000BF103039DF80700236000F01DFF0122A6
:10FA1000002362F301030BF1020066F382035A44F0
:10FA20006AF3C503022105EA0B0B2A40054004EBEB
:10FA30008B0B04EB820261F3891304EB850469F3F9
:10FA40009F23CBF80C30C2F80C80E76003B0BDE810
:10FA5000F08F0121334661F3010366F38203052130
:10FA600061F3C5030BEA0202064804EB820266F367
:10FA700089130BF1010160F39F232160D360B8E784
:10FA800028430020944C02002DE9F0474C4E96E8A4
:10FA90000C009A428AB070D0B06804E0C4F38912B6
:10FAA00002EB9452134400EA0305023506EB85028B
:10FAB0000133546814F00302F0D0022A28D0C4F3B2
:10FAC0008312C4F3952C002A75D00DF1100E7546E3
:10FAD000D71800EA030106EB81010133C96845F834
:10FAE000041BBB42F5D10092C4F3C20073466246C8
:10FAF000D6F81044324D0021A04738B17760306805
:10FB0000C01B18BF01200AB0BDE8F0876F68F6E798
:10FB100003F1010A20EA0A010340013106EB8303E5
:10FB200089004FEA94588845DA68DFF894E0C4F316
:10FB3000891326D9A9B300EA0A0C5FFA81F90EEB02
:10FB40008C0CC9EB08010CF10C0C0EF10C00C9B2C5
:10FB500003910290CDF80490CDF800C00021C4F3C9
:10FB6000C200D6F81474B847404520D006EB85058E
:10FB700060F38F146C607768C1E700200AB0BDE8BD
:10FB8000F08700EA0A000EEB80000C308DE80101DE
:10FB90000021DEF8149403910291C4F3C200C84717
:10FBA000E2E70EF10C0C08465FFA88F9D0E7033063
:10FBB0000AEB9007A2E71F460DF1100E93E700BF76
:10FBC000284300202DE9F84F244B1A788AB3DFF838
:10FBD00090B0DFF89090DFF890A00024012703E0B8
:10FBE0000134E4B2944224D226B2D9F80050DBF8B2
:10FBF000003015F8360007FA00FE1EEA030F05EB89
:10FC0000C608EDD0164A23EA0E03136001F092F9FC
:10FC100015F83650DAF8003007FA05F6334000FAE6
:10FC200005F6B34207D00D4B01341A78E4B2944282
:10FC3000DAD3BDE8F88FD8F80430002BF3D098F869
:10FC40000110A1F10101B1FA81F14909091AB1FAD2
:10FC500081F1490928469847E5E700BF4847002059
:10FC600070470020444700206C47002070B50646CE
:10FC7000114800F085FD40B9104D01242B68B440B7
:10FC80001C4203D023EA04042C6070BD304601F00E
:10FC900051F90B4A136860B123432E680949136078
:10FCA00034432C60044809680022BDE8704000F02D
:10FCB00011BD23EA0403F0E74C4700207047002001
:10FCC0006C47002040470020042A01D807207047D5
:10FCD0002DE9F04182B088460546174600F0C6FF80
:10FCE000002834D01C4C1D481D491E4A1E4B25605F
:10FCF000002608F1FF340F6080F8008016601E6057
:10FD0000E4B20327B8F1000F03D11AE0DBB2C4B1AB
:10FD10001C4623B205EBC30215F833009378134A4F
:10FD20008DF8053001A98DF804708DF806608DF806
:10FD3000076000F0A5FF631E0028E7D002B0BDE811
:10FD4000F0810B4A0B48002100F0B2FCF6E700F00E
:10FD50004BFF0028C6D0F1E7444700204847002069
:10FD6000404700206C470020704700206DFC0100D8
:10FD7000C5FB0100A04C020070B5084D2B785BB1AB
:10FD8000074E00243368012113F8340001F040F8D5
:10FD90002B780134A342F5D8002070BD48470020DD
:10FDA0004447002070B5094D2B7853B1084E00240C
:10FDB000336813F8340001F08DF82B780134A34236
:10FDC000F6D80448BDE8704000F0DABC484700208F
:10FDD000444700204C47002000B585B00023039025
:10FDE000194601AA44F20100ADF80430029300F074
:10FDF00003F805B05DF804FB08B50D490120FFF7D5
:10FE000027FDFFF721FDFFF73FFE0028FBD1094941
:10FE10000320FFF71DFDBFF34F8F0749074BCA684B
:10FE200002F4E0621343CB60BFF34F8F00BFFDE7E6
:10FE3000A44C0200B44C020000ED00E00400FA05FE
:10FE4000F8B5204A204B0025C2F84051C2F8445171
:10FE5000C2F84851C2F84C51C2F80051C2F80451DE
:10FE60001B6813B31949D2F804250C68141B1A68CF
:10FE700024F07F44A2422F4609D8197CDE69A41AD7
:10FE8000154499B91EB133461A68A242F5D9104BF0
:10FE900010491A780B789A420DD00F490F4A41F851
:10FEA00023504FF48013C2F80031F8BD1F745A6913
:10FEB00098699047E6E7531CDBB2022B08BF00238A
:10FEC0000B70EAE7001001407847002074470020DB
:10FED0007C4700207D4700208C48002000E100E0A6
:10FEE0002DE9F04F884A89491378097899428BB0F7
:10FEF00037D00133DBB2022B08BF002384491370D3
:10FF0000844A0E68029152F82300834905910B68D8
:10FF100002993218002522F07F420A602C462946B9
:10FF2000AE46ABB11A68824200F2E681DD68C3F8E2
:10FF300000E0801A1444DA6935B1371927F07F4799
:10FF4000D9619D605F60194613460125002BE9D1F8
:10FF5000002D40F0DC820023069301230893069ACB
:10FF600008E06D4B05931B68694A029200210693D5
:10FF700008911A46694BDFF8AC811B780393059B07
:10FF80001B681C46029B1F680023BA460F46099354
:10FF9000C3460793994618464FF0010E0193A446B5
:10FFA0003FB37D68BE683946FF695D4BCAEB050407
:10FFB00024F07F449C423CD8A3190B6048608860C1
:10FFC00081F810E0C861002A68D015689D4249D2C6
:10FFD000164603E025689D4234D22646F4695B1B31
:10FFE000002CF7D1CC610B601446F1612246002F42
:10FFF000D7D198F8003098F80110994200F0948019
:020000022000DC
:10000000591C03EB43039BF8024008EBC303C9B23E
:100010008C421C798BF8001008BF8BF80070022C02
:1000200099684ED0032C3FD0012C24D01446224690
:10003000DDE7C5EB0A0525F07F45B54209D2731B04
:100040000B60BBE7ED1A2560CC610B601446F161D3
:10005000CCE708604860886081F810E0C861EAB1C8
:1000600015680023EB1A0C4613608C46CA614FF0EA
:1000700001092246BBE70C7C0494002CD6D1DD6834
:100080004D601E698E605C69CC609B698B61039BCF
:10009000002B8AD0049B4B601D4686E70C468C469D
:1000A0004FF001092246A2E70AB9BFE71A46D36911
:1000B0001074002BFAD11C469C464FF001092246D1
:1000C00095E752B1914200F00B81134602E0B14234
:1000D00007D03346DE69002EF9D114460874224653
:1000E00085E7994200F0FE801446F5693668DD61C7
:1000F00015B12B6833442B60019B0874A24218BFD2
:1001000001230193EBE700BF7C4700207D470020DF
:10011000744700208C480020784700207E4700204C
:10012000FEFF7F00804700205746DDF804A0B9F1AC
:10013000000F40F04981079B002B40F0E581099BAF
:10014000002B40F0DC81BAF1000F03D1069B9A42EC
:1001500000F03F81002A00F041816C49029BD1F8F8
:1001600004051B686A4C17682578C21A22F07F4282
:100170000332002D51D1674DDFF89CC1DFF89CE1BF
:100180004FF48036C1F84463C1F804634FF400367D
:10019000C5F880612E6001250D60DCF800602F211C
:1001A00000BF00BF00BF00BF00BF00BF00BF00BF57
:1001B00076452FD000BF00BF00BF00BF00BF00BF0B
:1001C00000BF00BF00BF00BF00BF00BF00BF00BF37
:1001D00000BF00BF00BF00BF00BF00BF00BF00BF27
:1001E00000BF00BF00BF00BF00BF00BF00BF00BF17
:1001F00000BF00BF00BF00BF00BF00BF00BF00BF07
:1002000000BF00BF00BF00BF00BF00BF00BF00BFF6
:1002100000BF00BF0139C3D1257097422CBFDA1946
:100220009A183A4922F07F43C1F84035D1F80425A5
:10023000121A1B1A22F07F4223F07F4303329A42A4
:1002400048D9D1F80435344AC1F8403512683349E9
:100250002F2300BF00BF00BF00BF00BF00BF00BF13
:1002600000BF8A422FD000BF00BF00BF00BF00BF49
:1002700000BF00BF00BF00BF00BF00BF00BF00BF86
:1002800000BF00BF00BF00BF00BF00BF00BF00BF76
:1002900000BF00BF00BF00BF00BF00BF00BF00BF66
:1002A00000BF00BF00BF00BF00BF00BF00BF00BF56
:1002B00000BF00BF00BF00BF00BF00BF00BF00BF46
:1002C00000BF00BF00BF013BC3D1124B4FF400324F
:1002D000C3F80021124A002313700BB0BDE8F08F61
:1002E00016461346D2F81C90B9F1000F1AD0CC462E
:1002F0004C464FF00109F8E6002D62D1121A1A603F
:10030000069301230893069A34E600BF00100140CB
:100310009448002000E100E08C4000200024F4001C
:100320007E4700207B4C7C4DC4F808E07B4C4FF0AE
:100330002F0C246800BF00BF00BF00BF00BF00BF7C
:1003400000BF00BFAC422FD000BF00BF00BF00BF46
:1003500000BF00BF00BF00BF00BF00BF00BF00BFA5
:1003600000BF00BF00BF00BF00BF00BF00BF00BF95
:1003700000BF00BF00BF00BF00BF00BF00BF00BF85
:1003800000BF00BF00BF00BF00BF00BF00BF00BF75
:1003900000BF00BF00BF00BF00BF00BF00BF00BF65
:1003A00000BF00BF00BF00BFBCF1010CC2D10124DF
:1003B00025460994CC464C46CA4603950795A9465E
:1003C00093E6059C236099E7059B1946C1F800C098
:1003D000B1E6089B002B3FF47DAFBBE64D49504B87
:1003E0004E4E4D4C4FF480304FF400370125C3F88A
:1003F0008070C1F848032F23C1F808034D603068AE
:100400001E4600BF00BF00BF00BF00BF00BF00BF4F
:1004100000BFA0422FD000BF00BF00BF00BF00BF81
:1004200000BF00BF00BF00BF00BF00BF00BF00BFD4
:1004300000BF00BF00BF00BF00BF00BF00BF00BFC4
:1004400000BF00BF00BF00BF00BF00BF00BF00BFB4
:1004500000BF00BF00BF00BF00BF00BF00BF00BFA4
:1004600000BF00BF00BF00BF00BF00BF00BF00BF94
:1004700000BF00BF00BF013EC3D18D6002990A607A
:1004800000BF00BF00BF00BF00BF00BF00BF00BF74
:10049000A0422FD000BF00BF00BF00BF00BF00BF01
:1004A00000BF00BF00BF00BF00BF00BF00BF00BF54
:1004B00000BF00BF00BF00BF00BF00BF00BF00BF44
:1004C00000BF00BF00BF00BF00BF00BF00BF00BF34
:1004D00000BF00BF00BF00BF00BF00BF00BF00BF24
:1004E00000BF00BF00BF00BF00BF00BF00BF00BF14
:1004F00000BF00BF013BC3D10A4B1A70EAE60A4BAA
:100500009DF80C1019701EE6029B1F6017E6059AF5
:10051000136020E5001001400024F4008C4000200E
:1005200000E100E0944800207E470020F0B4564BE4
:10053000564A574E574C4FF480304FF40031012546
:10054000C2F88010C3F848032F21C3F808035D6088
:1005500030680E4600BF00BF00BF00BF00BF00BF35
:1005600000BF00BFA0422FD000BF00BF00BF00BF30
:1005700000BF00BF00BF00BF00BF00BF00BF00BF83
:1005800000BF00BF00BF00BF00BF00BF00BF00BF73
:1005900000BF00BF00BF00BF00BF00BF00BF00BF63
:1005A00000BF00BF00BF00BF00BF00BF00BF00BF53
:1005B00000BF00BF00BF00BF00BF00BF00BF00BF43
:1005C00000BF00BF00BF00BF013EC3D19D6000BFA0
:1005D00000BF00BF00BF00BF00BF00BF00BFA04200
:1005E0002FD000BF00BF00BF00BF00BF00BF00BFD3
:1005F00000BF00BF00BF00BF00BF00BF00BF00BF03
:1006000000BF00BF00BF00BF00BF00BF00BF00BFF2
:1006100000BF00BF00BF00BF00BF00BF00BF00BFE2
:1006200000BF00BF00BF00BF00BF00BF00BF00BFD2
:1006300000BF00BF00BF00BF00BF00BF00BF00BFC2
:1006400000BF0139C3D1144E144D154C1549164F36
:1006500000203070286020704FF48015E0240B26B5
:10066000087048708E7038701049C2F8805182F856
:1006700014431560C3F8080582F81143D3F8043514
:100680000B60F0BC704700BF0010014000E100E0CB
:100690008C4000200024F40094480020784700207B
:1006A0007C470020804700207D47002074470020C1
:1006B000074B9B780BB9082070473AB130B10368FB
:1006C000187C0028F7D159745A6170470720704789
:1006D000804700202DE9F043264CA37883B01BB956
:1006E000082003B0BDE8F0830028F9D0042903D81E
:1006F000072003B0BDE8F0834369002BF0D0064625
:1007000002A8737C0025012B00F8015D0CBF89460F
:10071000A94690460F4600F06FF86378A0782178DC
:100720005A1CD2B2904208BF2A4691421BD003EB1A
:10073000430304EBC30301200F4918719E60D1F8F5
:1007400004159DF80700D9601F61C3F81490C3F821
:100750001880627000F078F8084B4FF48012284639
:10076000C3F80021BDE79DF8070000F06DF80420F4
:10077000B7E700BF804700200010014000E100E023
:1007800070B51B4CA37882B013B9082002B070BDBD
:100790000028FAD04369002BF7D0064602A80025AE
:1007A00000F8015D357400F027F86278A0782178B0
:1007B000531CDBB2984208BF2B46994212D002EB81
:1007C000420204EBC20202219DF8070096601171FB
:1007D000637000F039F8074B4FF480122846C3F8D5
:1007E0000021D3E79DF8070000F02EF80420CDE7A4
:1007F0008047002000E100E0F0B4EFF3108472B60F
:100800000E4B9A68B2B90E4901259D60D1F88070EF
:100810000C4D2E463D401D60C1F88060D1F88450DB
:100820005D604FF0FF33C1F88430027004B962B6E6
:10083000F0BC704701230370F8E700BF8C61002013
:1008400000E100E0FC06FFBD094B9A6872B168B98F
:1008500010B4EFF3108272B606491C680C605C6835
:100860004C60986002B962B65DF8044B704700BFF7
:100870008C61002000E100E010B40023012401E0BD
:10088000202B0AD004FA03F2024299B203F10103C9
:10089000F6D008465DF8044B70474FF6FF705DF8E0
:1008A000044B704798B191B130B40238002402E093
:1008B0000134202C0AD030F8025F9542F8D13BB1C8
:1008C0000A68012303FA04F414430C6030BC704737
:1008D0000B68012202FA04F423EA04030B60F5E733
:1008E00070B49DF80C60C0B1B9B1B2B10238002447
:1008F00002E00134202C10D030F8025F9D42F8D184
:10090000012303FA04F401EB820246B9E4430B68C5
:10091000234041F8043B9142F9D170BC70470B6809
:10092000234341F8043B8A42F7D00B68234341F844
:10093000043B8A42F3D1F0E7F0B491B100252B4695
:10094000012606FA03F4144205D000EB450431F801
:100950001370A78001350133202BF2D10560F0BC64
:1009600070470D460560F0BC704700BF002310B40F
:100970001946012404FA03F202400133002A18BF89
:100980000131202BF6D108465DF8044B704700BFBB
:10099000064A4FF0A043105CD3F8043523FA00F068
:1009A00000F0010080F00100704700BFD04C020051
:1009B000044B195C4FF0A04201238B40C2F80C3568
:1009C000704700BFD04C0200044B195C4FF0A042AE
:1009D00001238B40C2F80835704700BFD04C02009D
:1009E0004FF0A04310B44FF480204FF400344FF484
:1009F00000214FF48012C3F80845C3F80805C3F876
:100A00000815C3F808255DF8044B70474FF0A04364
:100A100010B44FF480204FF400344FF400214FF411
:100A20008012C3F80C45C3F80C05C3F80C15C3F8C5
:100A30000C255DF8044B7047084B4FF0A0411B5C40
:100A4000D1F80405012202FA03F323EA000203406D
:100A5000C1F80825C1F80C35704700BFD04C020022
:100A600030B44FF0A04303224FF400354FF48024FC
:100A70004FF400204FF48011C3F84427C3F84827EF
:100A8000C3F84C27C3F85027C3F80855C3F80845E6
:100A9000C3F80805C3F8081530BC704710B51A4BE9
:100AA0001A6882B0A2B100221A601B6800934FF04E
:100AB00080430122154C0099C3F80823A368627093
:100AC00033B10CCB0020A2609847A368002BF8D16B
:100AD0000F4B1A68AAB100221A601B6801934FF0ED
:100AE00080430222094C0199C3F80823236901229B
:100AF000A27033B10CCB0120226198472369002BEF
:100B0000F8D102B010BD00BF00010040984800209D
:100B10000401004058B910B5054CA36833B10CCBA3
:100B20000020A2609847A368002BF8D110BD704741
:100B30009848002010B582B002A80023144C00F899
:100B4000013DFFF759FE237893B9124A6360E360D1
:100B50001068A36010F00100236114D003F060F965
:100B600020B94FF080430122C3F8182501232370D8
:100B7000E3689DF8070001330122E360A270FFF7EC
:100B800063FE02B010BD072100F006F8E6E700BFE3
:100B90009848002000E100E0002810B418DB00F1C4
:100BA000604303F561434901C9B283F80013C3B23E
:100BB0004009800000F1604000F5614003F01F0231
:100BC00001239340C0F8803103605DF8044B704707
:100BD000C3B2044A03F00F0449012244C9B211769A
:100BE000E6E700BFFCEC00E030B51D4C94F8545033
:100BF00083B015B1082003B030BD4FF0FF33FF22A2
:100C00000721062023636363A363E36323646364B0
:100C1000A364E36423606360A360E36023616361B2
:100C2000A361E361236284F850306362A36284F8B5
:100C30005230E36284F8533084F85120FFF7ACFF60
:100C4000084B094A1D601B68019301984FF000434F
:100C50000121284684F85410C2F8043303B030BD93
:100C6000AC4800207C61004000600040034B93F8DA
:100C70005400003018BF0120704700BFAC4800206E
:100C8000F0B5624C251895F93030002B01DB0820B7
:100C9000F0BD91F803E09446BEF1000F56D02368F2
:100CA000013300F0A380002508266B1C574F54F831
:100CB0002320013251D0AB1C9E4245D957F8232046
:100CC00001324AD0EB1C9E423ED957F82320013214
:100CD00043D02B1D9E4237D957F8232001323CD0F8
:100CE0006B1D9E4230D957F82370013735D0AB1DAC
:100CF0009E4229D954F82320444F01322DD0EB1DB8
:100D00009E4221D957F82320013226D005F108034D
:100D10009E4219D957F8232001321ED005F109034C
:100D20009E4211D957F82320013216D005F10A034B
:100D30009E4209D957F8237001370ED00B35AE42C9
:100D400002D9E36A013307D00420F0BD236A0133DE
:100D500053D008250C26A8E70B2326185DB244F8CB
:100D600023C086F83050BEF1000F02D1234483F82F
:100D700048008B78A3B94A784FF0A04600F5E0739D
:100D8000920046F82320CB78A3B9083D2C4409787B
:100D900094F8502042EA811284F850201846F0BDA1
:100DA000830003F1A043D3F8002722F00202C3F826
:100DB0000027E8E7AB0003F1804303F5C0430A785E
:100DC000D3F8101521F4473121F44071C3F8101500
:100DD0001204000202F44031D3F8104500F4F85236
:100DE0000A432243C3F810250020F0BD002385F8F4
:100DF0003030C4F800C01D46BBE7082685F83060D7
:100E00003346C4F820C03546B0E700BFAC480020E8
:100E1000F0B42E4D2E1882B096F93030072B1CDD21
:100E20002B4493F848309B09032B41D0012B14BF6E
:100E30004FF440334FF40033800000F1A040D0F86D
:100E4000002722F44032C0F80027D0F800271343CF
:100E5000C0F8003702B0F0BC7047DAB2072AF9D800
:100E6000980000F1804000F5C04003F1400292007C
:100E7000D0F8104592B202F18042002744F00104FC
:100E800002F5C042C0F8104501970198176000298B
:100E9000E0D096F9302055F82220002ADAD001223D
:100EA0000B4902FA03F3C1F8043302B0F0BC7047F7
:100EB0004FF0A043D3F81035C34013F0010F0CBF1F
:100EC0004FF400334FF44033B6E700BFAC48002086
:100ED00000600040154B034493F93030072B17DCBA
:100EE000DAB2072A13D810B49A0002F1804202F550
:100EF000C0420F4CD2F81005012120F0010001FA88
:100F000003F3C2F81005C4F808335DF8044B7047CA
:100F1000800000F1A040D0F8003723F44033C0F83F
:100F20000037D0F80037C0F800377047AC480020D1
:100F3000006000404FF0A043D3F8103523FA00F0D2
:100F400000F00100704700BF2DE9F04387B0002694
:100F5000C94B01961A68012A00F00482C74B1A682F
:100F6000012A00F0F181C64B1A68012A00F0DE81E7
:100F7000C44B1A68012A00F0CB81C34B1A68012ABE
:100F800000F0B881C14B1A68012A00F0A581C04B5E
:100F90001A68012A00F09281BE4B1A68012A00F0FB
:100FA0007F81BD4B1A68012A00F0598116F0FF0FAE
:100FB0001AD0BA4F01250024A30003F180432E422A
:100FC00003F5C0434FEA45050BD0D3F8100557F899
:100FD0002420D3F81015C0F30420C1F3014102B15D
:100FE00090470134082CE7D1002E02DB07B0BDE8A2
:100FF000F083AA4C00224FF0FF332746029203935E
:1010000001260DF1080894F950104D1C2DD0C9B2DD
:1010100021F0C00006AB4FEAD00E03EB0E0201F048
:10102000070312F80CCC06FA03F31CEA030F1CD0DA
:101030003D18890995F9305057F82590B9F1000FFE
:1010400000F0E880032900F0E8804FEA800E0EF1FE
:10105000A04E12F8145CDEF800271D40C2F30142D6
:1010600040F0B580032A00F0A281002594F95110C8
:10107000481C2FD0C9B221F0C00006AB4FEAD00EF9
:1010800003EB0E0201F0070312F80CCC06FA03F38F
:101090001CEA030F1ED007EB000C89099CF930C035
:1010A00057F82C90B9F1000F00F0C680032900F02A
:1010B000C6804FEA800E0EF1A04E12F814CCDEF876
:1010C00000271CEA030FC2F3014240F08D80032A7F
:1010D00000F0928194F952104A1C2ED0C9B221F02E
:1010E000C00006AB4FEAD00E03EB0E0201F007037F
:1010F00012F80CCC06FA03F31CEA030F1DD007EB21
:10110000000C89099CF930C057F82C90B9F1000FF8
:1011100000F08980032900F088804FEA800E0EF1EC
:10112000A04E12F814CCDEF800271CEA030FC2F31D
:10113000014265D1032A00F04C8194F953104B1CF5
:101140002CD0C9B221F0C00006AB4FEAD00E03EBA1
:101150000E0201F0070312F80CCC06FA03F31CEAA6
:10116000030F1BD007EB000C89099CF930C057F81E
:101170002C90B9F1000F69D0032969D04FEA800E95
:101180000EF1A04E12F814CCDEF800271CEA030F73
:10119000C2F3014211D1032A00F0F080002D3FF488
:1011A00025AF4FF0A043019AD3F8103593423FF496
:1011B0001DAF029A0193039225E7022AEED103297B
:1011C00000F02D81B9F1000FE8D0C847E6E7022A08
:1011D0007FF44BAF032900F02B810025B9F1000FFC
:1011E0003FF444AFC84741E7022A7FF473AF0329B5
:1011F00000F01881B9F1000F3FF46CAFC84769E700
:10120000022A9AD1032900F01081B9F1000F94D07D
:10121000C84792E703297FF428AF18F80E501D4302
:1012200008F80E5011E7032987D118F80EC04CEAD0
:10123000030C08F80EC070E703297FF44BAF18F8D1
:101240000EC04CEA030C08F80EC032E70329A5D102
:1012500018F80EC04CEA030C08F80EC08EE7002206
:101260001A601B6805934FF0A043059AD3F8103518
:10127000019346F0004699E6006100400461004099
:10128000086100400C6100401061004014610040A2
:10129000186100401C6100407C610040AC480020A7
:1012A000654AD2F8042317067FF57BAE00221A6048
:1012B0001B680493049B46F0800672E65E4AD2F8EF
:1012C000042352067FF568AE00221A601B6804935F
:1012D000049B46F040065FE6574AD2F80423910685
:1012E0007FF555AE00221A601B680493049B46F0FC
:1012F00020064CE6504AD2F80423D0067FF542AED1
:1013000000221A601B680493049B46F0100639E61D
:10131000494AD2F8042314077FF52FAE00221A6041
:101320001B680493049B46F0080626E6424AD2F85E
:10133000042355077FF51CAE00221A601B68049336
:10134000049B46F0040613E63B4AD2F804239707B1
:101350007FF509AE00221A601B680493049B46F0D7
:10136000020600E63449D1F8041311F001011CD043
:101370001E601B680493049B1646EFE503297FF467
:1013800021AF4FF40033DEF8002722F44032CEF8CC
:101390000027DEF8002701351343EDB2CEF8003701
:1013A000B9F1000F7FF411AFFBE60E46D6E5032935
:1013B0007FF414AF4FF40033DEF8002722F44032FC
:1013C000CEF80027DEF800271343CEF800370125BA
:1013D00004E703297FF419AF4FF40033DEF8002748
:1013E00022F44032CEF80027DEF8002701351343FF
:1013F000EDB2CEF8003708E703297FF4FBAE4FF4D7
:101400000033DEF8002722F44032CEF80027DEF861
:10141000002701351343EDB2CEF80037EAE64FF46A
:101420004033B0E74FF44033EBE74FF44033D5E7B8
:101430004FF44033C0E700BF00600040F0B50479CE
:10144000724E6401331987B0DD7E15B1082007B0F4
:10145000F0BD4D7F1D770D686B1C0BD04FF0A04782
:101460000123AB40C7F808350B6803F5E07303258B
:1014700047F823504B685F1C06D003F5E0734FF02C
:10148000A045002745F82370037906EB43131B7F23
:10149000002B4DD003688D69C3F824554F7D0B7D1B
:1014A00005683B43C5F86C3503680F684D68C3F8A1
:1014B0000C75C3F814550B7D012B00F09B8033197C
:1014C00005465A600B6951483351EAB12B79097FBF
:1014D0002A6800EB4310037F002B65D1C2F81C3152
:1014E000D2F81C712A680097009FC2F84431D2F8E4
:1014F00044212B6846480192019AC3F804032868E6
:1015000040F30730FFF748FB2B792A6806EB4313BB
:101510001B7F002B44D00823C2F800353444002040
:101520000123E376E0752076A075A07607B0F0BDC4
:1015300005688F69C5F8247591F815E00D7D076879
:101540004EEA0505C7F86C550568D1F800E04F680C
:10155000C5F81475C5F80CE50D7D012DAFD18D686A
:101560006F1C05D005F5E0754FF0A04747F8253012
:10157000CB685D1C0DD001254FF0A04705FA03F3A1
:10158000C7F80835CB6803F5E073032547F8235007
:10159000CB6805688F68C5F80835C5F810758EE703
:1015A0000423C2F80035B9E70023C2F81031D2F89D
:1015B00010712A680297029FC2F82031D2F8207178
:1015C0002A680397039FC2F82431D2F824712A684D
:1015D0000497049FC2F84431D2F844212B68059245
:1015E0000C48059AC3F80403286840F30730FFF756
:1015F000D3FA89E78B685D1CBAD003F5E0734FF02E
:10160000A045002745F82370B2E700BF0449002039
:101610008000020010030200F0B503793D4A04681F
:101620005B01D118097F00296DD00021C4F8001595
:10163000D118384C4968B1B1017904EB4114217FCC
:10164000002963D10168344CC1F808430168334E66
:10165000090B4CB26409203401F01F01012505FA81
:1016600001F146F824100179076802EB4111D7F81F
:101670000C65097FD7F814554FF0FF3EA9B3D7F892
:101680000815D7F81045C7F80CE5C7F814E5006849
:10169000C0F808E5C0F810E5771C06D006F5E0763E
:1016A0004FF0A040022740F826706E1C06D005F5CA
:1016B000E0754FF0A040022640F82560651C06D07A
:1016C00004F5E0744FF0A040022540F82450481C77
:1016D00006D001F5E0714FF0A040022440F821400F
:1016E00013440022DA765A60F0BDD7F80815D7F80F
:1016F0001045C7F814E5C7F80CE50068C0F808E520
:10170000C0F810E5C8E7C4F8001591E70168044C7B
:101710009AE700BF044900208402020000E100E0D3
:1017200010030200F0B50379534C5B01E51887B054
:101730002D7F3DB101F06045B5F1005F02D0102072
:1017400007B0F0BD23444C4F9E7D16B1112007B069
:10175000F0BD9A7599609E8205796D017A19137FA3
:1017600013BB0168C1F81C31D1F81C6101680496F3
:101770000126049F8E600168D2F808E0C1F81C3190
:10178000D1F81C310593059B968A938A5768B6B2A7
:1017900001331EF806609BB29382C1F81C65002FCE
:1017A0002FD0002007B0F0BD03689168C3F8206116
:1017B000D3F8207103680197019FC3F85861D3F8EB
:1017C000586103680296967D029FC3F84415C3F8DA
:1017D00048650368012199605368002BE1D10368D3
:1017E00001E0002945D1D3F82021D3F85811002A6F
:1017F000F7D0002914BF0F2000202C440023A3752C
:101800009EE7967D938A9BB29E4202F1140122D9F3
:10181000016804E0938A9BB2B3F5807F03D0D1F8CE
:101820001C31002BF6D0938A9BB2B3F5807FE9D0B0
:10183000C1F81C71D1F81C310393039BB2F814C09A
:10184000938A1FFA8CFC01331EF80CC09BB2938262
:10185000C1F81CC5D6E70B889BB2B3F5807F08D0D2
:101860000268D2F81C31002BFBD00123D36000208A
:10187000C3E70F20C1E700BF044900200279044BF1
:1018800003EB4213987D003018BF0120704700BF62
:101890000449002070B59B4C237F8EB0002B75D17E
:1018A000994AD2F80413890548D4974BD3F80423F6
:1018B000520704D5D3F80821002A40F0CA80924B81
:1018C000D3F81C21C2B1A28AA07D8E4992B2824275
:1018D0004FF00002C3F81C2180F0A980D3F81C212E
:1018E0000692069A888A8A8A8D6880B20132285CBC
:1018F00092B28A82C3F81C05834BD3F84421DAB133
:101900000022C3F84421D3F84411A27E0491049923
:10191000002A40F08980E27D7A4B6AB10022587E2D
:10192000D968DA7501228DF830000B918DF82820E6
:101930000AA893E8060090470EB070BDD2F82411B3
:101940000029B2D0C2F82431D2F82411A37E079125
:101950004FF401710798C2F808130BB901235360C3
:10196000694A02238DF82830D2F88034C2F88034D6
:10197000E07DE2680D9300238DF83000E375237657
:1019800021680B9263680AA8984798E75E4BD3F8E2
:101990002421002A40F09380D3F8101161B1C3F8DC
:1019A0001021D3F8101103910399D3F83C15E07D71
:1019B000C9B2884200F0AA80534BD3F84421B2B197
:1019C0000022C3F84421D3F84411E07D019101992C
:1019D0004C4960B1D3F83C35C8688DF830300123EC
:1019E000CA750B908DF828300AA80AC99847464B4B
:1019F000D3F82021002A9FD00022C3F82021D3F859
:101A00002011A07D009100993E49002894D0D3F880
:101A10004C058B688DF830008A750B938DF8282063
:101A20000AC90AA8984787E701221A6073E7D3F822
:101A30001C310593059B00283FF45EAF8B688DF841
:101A400030008A750B938DF828200AC90AA8984798
:101A500052E7E17D2B4A002970D00021C3F808111C
:101A6000D3F8081108910899D068517ED3F8183539
:101A70004354537ED17D0133DBB25376627E214BDA
:101A80008A427FF41CAF1A7E002A6DD19B7E13B967
:101A90001D4B01225A601C4AE06863684FF40171D3
:101AA000C2F80813627E8DF83020002501220B90C9
:101AB0002168E5758DF828200AA89847FFE60022DE
:101AC000C3F82421D3F82411029102218DF82810A3
:101AD0000299D3F88014C3F880140D91D3F83C1503
:101AE000E368E27522768DF830100B932168636805
:101AF0000AA89847044BD3F84421002A3FF477AF53
:101B00005EE700BF0449002000200040217EF1B1C3
:101B1000D3F80062E17526F02001E568C3F80012F1
:101B200026698DF8300001238DF82830227621684F
:101B30000B95E66063680AA898473DE7C3F808116B
:101B4000D3F808210992099AD3F8183596E7E26884
:101B5000E17501238DF830008DF828300B9294E860
:101B60000A000AA8984727E7DE685D7E1869DA75DB
:101B700001210022D8601A765A768DF828100B962B
:101B80008DF8305093E806000AA8904797E600BF0A
:101B900038B5C44B1B6813F0010401D1204638BD91
:101BA000C14C23780546E3B9172D00F27881DFE8B0
:101BB00015F00B013101310169007D009100A50094
:101BC0005B003500280035002800B300BA00BA00D9
:101BD000BA00BA00BA00E300F6001C01420063003C
:101BE0006300B24B1B7800202070002B00F027818F
:101BF000FEF7EAFE0120FEF7E7FE0320FEF7E4FE13
:101C0000D2E7012318462370FEF716FF00224FF497
:101C10008041A748BDE83840FEF75CBD0123184667
:101C20002370FEF709FF002240F6CD41A048BDE831
:101C30003840FEF74FBD9D4B1B78002B00F02081F4
:101C40000020FEF7C1FE0120FEF7BEFE0320FEF7D6
:101C5000BBFE0020FEF7ACFE0120FEF7A9FE954B6F
:101C600015221A70002499E70020FEF7A1FE914B7F
:101C700007221A70002491E7FEF7C8FE8D4B00245E
:101C80001D708BE70020FEF783FE002800F0E18046
:101C90000020FEF799FE46F26661864B84480324D5
:101CA0001C700022BDE83840FEF714BD0020FEF78E
:101CB0006FFE002800F0DC800020FEF785FE4FF468
:101CC00000317C4B7A4804241C700022BDE8384067
:101CD000FEF700BD0020FEF75BFE002800F0CD807F
:101CE0000020FEF771FE734B714805241C70002222
:101CF00041F69A11BDE83840FEF7ECBC0020FEF733
:101D00009BFE6C4B6A4806241C70002240F6CD41B5
:101D1000BDE83840FEF7DEBCFEF778FE654B0C22CE
:101D20001A7000243AE76448FEF72AFD0446D5F10C
:101D3000110000F08780002C40F08480012814D02E
:101D4000C82505FB00F54FF400434FF4FA7000215D
:101D5000C3FB05014FF47A72002302F011F9224609
:101D600001465548FEF7B6FC04460220FEF720FE69
:101D70004E4B01221A7011E74C4B1B78002B00F0E0
:101D800082800020FEF720FE0120FEF71DFE0320CA
:101D9000FEF71AFE474B12221A700024FEE6434B50
:101DA0001B78002B75D00020FEF70EFE0120FEF7F9
:101DB0000BFE0320FEF708FE0020FEF7F9FD3D4B69
:101DC00013221A700024E9E6384B1B78002B5DD0F3
:101DD0000020FEF7F9FD0120FEF7F6FD0320FEF7D7
:101DE000F3FD344B00241C70D8E6304B1B78002BDD
:101DF00052D00020FEF7E8FD0120FEF7E5FD0320AC
:101E0000FEF7E2FD0120FEF7D3FD2A4B14221A70E3
:101E10000024C3E60020FEF7BBFDF8B10020FEF76A
:101E2000D3FD022D4EF2666118BF4FF40031214BF5
:101E30001F481D700022BDE83840FEF74BBCFEF77E
:101E4000CFFDB1E60220FEF7BFFD184B00221A704D
:101E5000A4E6FEF7ADFD41F69A111EE7FEF7A8FDD8
:101E600043F2333341F69A11022D18BF1946DEE7CB
:101E7000FEF79EFD43F2333123E7FEF799FD32E78B
:101E8000FEF7AEFDE5E6FEF7ABFD83E7FEF7A8FD46
:101E9000A7E7FEF7A5FD8FE7FEF7A2FDB2E7002456
:101EA0007CE600BF44490020494900204849002001
:101EB000244900204A4900204C4900203EDF704759
:101EC00075DF704776DF70478ADF70478BDF7047BA
:101ED0008CDF704769DF70470146034B408803EB96
:101EE000001001F0B3BD00BF6C4900200D281BD1CC
:101EF000F8B50E4C0D4643F2020704F18006204669
:101F0000294601F0CFFE30F0080304F1100402D09E
:101F1000B84200D0F8BDA642F1D12A4604490320B8
:101F2000BDE8F840FDF7ECBCFDF756BF6C4900205A
:101F3000E44C020070B50D78012D0C460FD0022D37
:101F40000CD10B794A8812490320FDF737FD23791C
:101F5000284693B9BDE87040FEF736BD70BD4A888B
:101F60000C4906460320FDF7CBFCFDF705FF60B9E1
:101F7000304601F04FFE20B970BDBDE87040FEF75D
:101F800017BDBDE87040FDF727BFFDF725FFEFE760
:101F9000484D0200084D0200F8B50446868800F05E
:101FA000F9F923881D2B00F098801BD93B2B3FD0DB
:101FB000562B3DD01F2B44D0072E0DD8804B4FF40D
:101FC000187000FB0630214600F00AFC7D482146CF
:101FD00000EB061001F0C8FD21467B48BDE8F84043
:101FE00001F06ABA102B34D0112BE5D1237AA288E4
:101FF00076490320FDF7E2FC00F05AFA002800F0D1
:10200000B780FFF763FF0320714A7249FDF778FC40
:102010007148FFF759FF002840F0B9800120FFF711
:10202000B7FD08B1FDF7D8FE0020FEF7C1FCC3E7FD
:102030001321A088FFF746FF0028BDD0FDF7CCFE96
:10204000BAE704F10801A088FFF73AFF0028B3D0EF
:10205000F4E76249A2880320FDF752FCA188072912
:1020600000F29B805748002200EB011001F062FE55
:10207000002840F08F80524FA0884FF418752A46F0
:10208000002105FB0070FDF75DF9A18805FB0170DB
:1020900000F072FB112802D0002840F08680012059
:1020A000FEF786FC00F004FA08284FF0000079D013
:1020B000FEF77EFCFFF70AFF0320454A4549FDF77E
:1020C0001FFC4548FFF700FF002871D10120FFF7F2
:1020D0005FFD00283FF470AFB0E7E07DC00804F179
:1020E00018013FF469AF94F819E0257EBEF1090F9D
:1020F0002A4660D0002303E05778CA5C092F15D028
:1021000001321344834201EB0302F5D3BEF1080F01
:1021100053D0002203E05B788D5C082B32D0013570
:102120002A44824201EB0203F5D345E70233013A28
:1021300095B2CF18264802F023F900283FF43CAFAF
:102140002A463946224802F0CFF800287FF434AFFF
:102150000123234A204904F10800FFF7B9FE0028B3
:102160003FF42AAF02461F490120FDF7C9FB23E7D0
:10217000FDF718FE18B90120FEF726FC41E7FDF730
:102180002BFEF8E70232013DADB28F18D2E7FDF722
:1021900023FE43E7FDF720FE6DE70020FDF71CFE60
:1021A000A1885FE7FEF710FC06E7FDF715FE76E76E
:1021B000FDF712FE8AE70223B9E70222E3E700BF38
:1021C0005C4A00206C490020404A0020F44D020087
:1021D000D84C0200C44D0200904E0200844D020013
:1021E000DC4C0200344E020000B5002087B0FDF741
:1021F00013FB08B1FDF7F0FDFEF798F908B1FDF704
:10220000EBFDFEF72DFC40F2666201215048FDF720
:102210005BFD08B1FDF7E0FD4E4B4F49186801909A
:102220000023502201A801F001FE08B1FDF7D4FD02
:1022300006AC002344F8103D204601F063FE08B1CF
:10224000FDF7CAFD0C22002103A8FDF77BF8002052
:10225000082501238DF80C0003A9029A8DF80D5072
:1022600040208DF80E30FFF735FE08B1FDF7B4FDC4
:102270000C2200210DEB0200FDF764F80821032574
:1022800001238DF80E10029AADF8105003A92020FA
:102290008DF80C30FFF71EFE08B1FDF79DFD2046BE
:1022A00001F03AFE08B1FDF797FD2C4801F008FE59
:1022B00008B1FDF791FD0021294801F0E1F808B1CE
:1022C000FDF78AFD2748284C00F0D4F9024610B1EA
:1022D000FDF782FD0022254B254D2270039300203F
:1022E00005EB001003A901F013FC08B1FDF774FD24
:1022F00020781D4B0130C0B207282070F0D9002291
:102300001A7000F03FF81B490320FDF7A1FAFFF710
:10231000DDFD0320184A1949FDF7F2FA1848FFF7C6
:10232000D3FD08B1FDF758FD0120FFF731FC08B1DE
:10233000FDF752FD0020FEF73BFBFDF7A5FB002853
:10234000FBD1FFF7BBFD0028F7D0FDF745FDF4E713
:1023500084400020D44C0200F0490020991F020064
:10236000404A0020D91E0200EC490020351F02001F
:102370006C490020684E0200D84C0200C44D020097
:10238000904E0200B82200210148FCF7DBBF00BFDD
:102390005C5D00200388112B72D02DE9F0431A2BCD
:1023A00095B0804651D0102B02D015B0BDE8F08317
:1023B000DFF8EC90D9F84820D9F8443009F104014D
:1023C00023EA020203A8FEF7B7FA039E7EB10024B7
:1023D00027460DF10E05314935F8023F00970134CB
:1023E000A1F140001D22FEF77BFAA642F3D1D9F8F5
:1023F0004400B8F804602A4CC043FEF73DFA4FF69B
:10240000FF73984243D004EB4005324604F1480183
:10241000201D0123AE80FEF745FA324604F1440147
:10242000201D0123FEF73EFA98F80F30B8F804207B
:10243000A3F10203B3FA83F35B0904F14C01201DFD
:1024400015B0BDE8F043FEF72DBA037A154982882E
:102450001F2B94BF00230123A1F14C00FEF722FAA9
:1024600098F808301049B8F804202F2B94BF0023A7
:102470000123A1F1500015B0BDE8F043FEF712BAF8
:102480000A4982880023A1F14400FEF70BBA042018
:1024900015B0BDE8F043FDF79FBC00BFA05D002074
:1024A0005C5D0020AC5D0020B05D0020A45D0020DC
:1024B000024BD86C9B6C1840FEF758BA5C5D00204C
:1024C00094DF704796DF704797DF7047F0B5334B66
:1024D0001D6890F85A329BB065B303EB830303EB9E
:1024E00083039B00C6182E4CB678A778B74223D03A
:1024F000012D1FD9A779DFF8A8E0B74247D0022DF8
:1025000018D0A77ADFF898E0B7423AD0032D11D05F
:10251000A77BDFF88CE0B7422DD0042D0AD0A77C32
:10252000DFF87CE0B74220D0052D03D0A47D1C4D00
:10253000B44214D01BB0F0BDB4F800E0C75ABE4599
:10254000D6D1184B1C68002CF4D00123ADF8022022
:1025500001918DF800306846A0471BB0F0BDAC8AF1
:10256000C35A9C42EDD01BB0F0BDBEF810E0C75A74
:10257000BE45D9D1E5E7BEF80CE0C75ABE45CCD17F
:10258000DFE7BEF808E0C75ABE45BFD1D9E7BEF8BD
:1025900004E0C75ABE45B2D1D3E700BFC0600020F7
:1025A000A4600020145E00202DE9F04390F85A4208
:1025B00090F8593204EB840E0EEB8E0E00EB8E0E6B
:1025C0004FF0640C0CFB04FC9EF8047003EBC30496
:1025D0000CEB44045E1C0444BE4283B004F10A05C3
:1025E0003CD0BB4238BF07F1FF382DD25E1C06EB52
:1025F000C6040CEB4404984500EB04092B8912D067
:10260000B9F810500133AB4217D0013DADF8065078
:10261000ADF8043000230B70104601A9FFF754FFFA
:1026200003B0BDE8F083BEF80840A34212D00133E6
:10263000ADF80430ADF80640ECE709F10A05F3B255
:102640009F4280F85932D1D8012300200B7003B08B
:10265000BDE8F083002508F10106F0E72B89BEF8FC
:1026600008008342F0D00133ADF80430ADF8060025
:10267000D0E700BF68B170B40749084A084E094D59
:102680001060012400230C7033602B60184670BC6E
:1026900070470E2318467047BC600020145E00206F
:1026A000C0600020A060002020B12F4B1B781BB918
:1026B000082070470E20704770B42C4C2C4B2268B9
:1026C000002A46D081789D788D4220D0012A49D9B0
:1026D0009D79274E8D4237D0022A43D09D7A244ED1
:1026E0008D422CD0032A3DD09D7B214E8D4221D09E
:1026F000042A37D09D7C1E4E8D4216D0052A31D03B
:102700009D7D1B4E8D420BD0042070BC70471E88EF
:102710000588AE42DAD11749096809B30020F4E709
:10272000B58A01888D42EFD1F5E7368A0588AE4239
:10273000E4D1F0E7B6890588AE42D9D1EBE7368916
:102740000588AE42CED1E6E7B6880588AE42C3D151
:10275000E1E70121006843F8220021600020D4E76E
:10276000052AD1D8511CF5E7BC600020C0600020CC
:10277000A4600020145E002070B138B5144B1B78A3
:102780000BB9082038BD134B1B68002BF9D090F80B
:102790005B421CB1112038BD0E2070470E4A0F4D10
:1027A00003461068A3F85E12186083F85C4208467E
:1027B00083F85A4283F859421A4601212C60FFF7E8
:1027C0007FFE0028E7D1012283F85B2238BD00BFDD
:1027D000BC600020C0600020A4600020A060002039
:1027E00090B389B3884B1B7873B32DE9F04F0B88F6
:1027F000113BA1B005460C46222B00F2D780DFE842
:1028000013F03202D500D500D500D500D500D50093
:10281000D500D500D500D500D500D500D500D50010
:10282000D500D500D500D500D500D500D500D50000
:10283000D500D500D500D500D500D500D500D500F0
:10284000D701D5000B01D8007047002685F85962E2
:10285000A2880DF117012846FFF7A6FE002840F0D8
:1028600077849DF81730002B00F0A080DFF8A4815A
:10287000B4F804E0D8F8007095F85A12002F00F070
:10288000B48501EB810303EB83039B00EA185F4EE1
:102890009278B078904200F05685012F40F2C785BB
:1028A000B079DFF868C1904200F05485022F1DD046
:1028B000B07ADFF858C1904200F03E85032F15D062
:1028C000B07BDFF848C1904200F02F85042F0DD077
:1028D000B07CDFF838C1904200F02085052F05D08C
:1028E000B07DDFF828C1904200F0A682744695F8CA
:1028F0005C320133DBB2BB4285F85C3280F0AB81E5
:1029000095F85A22DFF804810132D2B2642312FB17
:1029100003F105EB010E56F8220085F85A224FF01C
:10292000000985F8599203FB0252685001218EF884
:1029300004902046FFF7C4FD002837D095F85A22AE
:1029400085F85B9212FB03F3EA1898F8021092786C
:10295000914200F06585012F24D096F806E02B49BE
:10296000964500F07D85022F1CD096F80AE0274995
:10297000964500F06E85032F14D096F80EE023499B
:10298000964500F05F85042F0CD096F812E01F49A1
:10299000964500F05085052F04D0B67D1B49964220
:1029A00000F02A851A4B03225C801A7021B0BDE822
:1029B000F08F8A88B0F85E329A42F7D1C88895F8CD
:1029C000597295F85A12002840F06A816389002BE9
:1029D00000F06681642303FB01F307EBC70603EBFA
:1029E00046062E442246D389A3F52453082B00F231
:1029F000ED81DFE813F0E901E501E201EB01EB0114
:102A0000EB01EB01EB014201BC600020A46000205F
:102A1000185E0020C06000208A88B0F85E329A42BA
:102A2000C4D1CB88002B7FF410AF90F85AE2897A9A
:102A30000EEB8E0606EB860600EB8606337919440C
:102A40000529D5BFC9B205220A4611469342317104
:102A50007DD22246642000FB0EF003EBC30152F846
:102A60000C8F00EB41012944D2F804C0C1F80EC01C
:102A7000C1F80A8012894A8200228A82CA820A83A5
:102A80004A8331795F1C8F4280F09D8207EBC7013A
:102A9000274600EB410157F8169F2944D7F80480D8
:102AA000C1F80E80C1F80A903F894F828A82CA829B
:102AB0000A834A8331799F1C8F4280F0848207EB1E
:102AC000C701274600EB410157F8209F2944D7F85A
:102AD0000480C1F80E80C1F80A903F894F828A8233
:102AE000CA820A834A833179DF1C8F4280F06B826D
:102AF00007EBC701274600EB410157F82A9F2944FD
:102B0000D7F80480C1F80E80C1F80A903F894F823F
:102B10008A82CA820A834A8331791F1D8F4280F0DC
:102B2000528207EBC701274600EB410157F8348F6B
:102B30002944D7F804C0C1F80EC0C1F80A803F8903
:102B40004F828A82CA820A834A833179053364229A
:102B5000013B02FB0EFE03EBC3030EEB43032B44CE
:102B600032895B8A9342BFF470AE05293FF46DAEA3
:102B700085F85912A088002940F07183F3883289C2
:102B8000ADF81A2006A9ADF81830FFF79BFC002815
:102B90003FF40CAF002385F85B320146A28828463B
:102BA000FFF794FCBF4BA2885A8003221A70FDE6FF
:102BB000B1F804E0B0F85E3273457FF4F7AECA882E
:102BC00090F85A12002A00F07781DFF8E482D8F8F2
:102BD0000070002F00F0CD8301EB810303EB830332
:102BE0009B00C218B04E9278B078904200F02782D5
:102BF000012F40F26883B079DFF8ACC2904200F058
:102C00002582022F1DD0B07ADFF89CC2904200F0DE
:102C10002D82032F15D0B07BDFF88CC2904200F0DC
:102C20001D82042F0DD0B07CDFF87CC2904200F0F2
:102C3000FF81052F05D0B07DDFF86CC2904200F017
:102C4000C780744695F85C320133DBB2BB4285F82D
:102C50005C32C0F0BA81934B032100225C80197072
:102C600085F85B22A2E68B88B0F85E229A427FF458
:102C70009DAE002380F85B3298E6B2F80CE0B38A90
:102C8000A6F81AE02BB1F38A1BB1338B0BB1738B0F
:102C900033B963890130984202F10602FFF4A3AE12
:102CA000642202FB01527B1C1279002693428DF8AC
:102CB000176040F0768101238DF81730DFF8F0813E
:102CC000B4F804E0D8F80070002F00F08E8364227E
:102CD00002FB01F2AB18744E9B78B078984200F07A
:102CE000B782012F40F2EF82B079DFF8BCC1984281
:102CF00000F08982022FA4D0B07ADFF8ACC19842EC
:102D000000F09882032F9CD0B07BDFF89CC19842E2
:102D100000F08082042F94D0B07CDFF88CC1984200
:102D200000F08F82052F8CD0B07DDFF87CC19842F7
:102D300087D1BCF81400AB5A984282D15B4B1B6818
:102D40000393002B3FF47DAFDFF868A1DAF8009021
:102D5000B9F1050F3FF675AF524A01926C2303FBA0
:102D600009F302EB030B642202FB01510BF1040097
:102D7000ABF802E0029301F0C6FA039BCBF868308F
:102D800009F101010198029BCAF800100022B94222
:102D9000C2544FD181469346D9F868304846984787
:102DA000D8F800700BF1010BBB4509F16C09F3D3A6
:102DB0000023A488CAF8003044E79389B38261E70E
:102DC00093893383B38A5DE79389F382B38A59E7A2
:102DD000BCF81420EB5A9A427FF433AF334B1B6894
:102DE0000393002B3FF42DAFDFF8C8A0DAF8009072
:102DF000B9F1050F3FF625AF2A4B01934FF06C0B4D
:102E00000BFB09FB5B44642202FB0151181DA3F874
:102E100002E0029301F077FA029B0398986609F1A9
:102E20000102019BCAF800200221BA4203F80B10EC
:102E300000F07E81A48805E7BCF81420EB5A9A4282
:102E40007FF454AD194B1B680393002B3FF44EAD38
:102E5000DFF860A0DAF80090B9F1050F3FF646AD53
:102E6000104B01936C2202FB09F203EB020B02925E
:102E7000642202FB01510BF10400ABF802E001F007
:102E800042FA039BCBF8683009F10101019B0298DB
:102E9000CAF800100022B9421A5400F09182A488A6
:102EA00025E500BF185E0020A4600020145E00200D
:102EB000C0600020A060002001EB810303EB8303CE
:102EC0009B00E268C25003442269C3F8062090F8D0
:102ED0005922A088002A40F09D80DA881B89ADF82D
:102EE0001A3006A9ADF81820FFF7ECFA00283FF4D5
:102EF0005DADCC4B95F85A221F68002385F85B32F4
:102F0000A188B7B302EB820202EB82029300EA18B7
:102F1000C54E927896F802E0964500F0CC81012FDC
:102F200027D996F806E0DFF800C3964500F0BB818C
:102F3000022F1ED096F80AE0DFF8ECC2964500F0AA
:102F4000AA81032F15D096F80EE0DFF8DCC2964573
:102F500000F09981042F0CD096F812E0DFF8C8C277
:102F6000964500F08881052F03D0B67DAE4F96427E
:102F700005D00B46AD4A03215380117016E5BA8A7D
:102F8000EB5A9A42F5D1AA4B1A68002AF1D00123D4
:102F900007908DF81830ADF81A1006A89047A3884E
:102FA000E8E785F85932A2880DF117012846FFF7A6
:102FB000FBFA002861D19DF81730002B3FF4F6ACE6
:102FC00095F85A127AE63B46C1E595F85A32013334
:102FD000DBB203EB830101EB810189006F1856F826
:102FE000230085F85A320026642285F8596202FBD4
:102FF0000352685001213E712046FFF761FA002814
:103000003FF4D4AC014685F85B6228462246FFF7C0
:103010005DFAC7E4013AD2B2642602EBC20206FBB3
:1030200001F101EB42022A44528A013292B255E781
:10303000BCF810C0E85A84457FF4FBADCEE635F805
:1030400003C0308884457FF4D3ADC7E6BCF80400E4
:1030500035F803C084457FF4D4ADBFE6BCF80C005E
:1030600035F803C084457FF4DCADB7E6BCF808C092
:10307000E85A84457FF4CDADB0E66A4B85F85B62D3
:103080001F68A18895F85A22002F3FF472AF02EB17
:10309000820202EB82029300EA18634E927896F85D
:1030A00002E0964500F03281012F7FF662AF96F87C
:1030B00006E0DFF874C1964500F02081022F3FF44E
:1030C00058AF96F80AE0DFF860C1964500F00E812F
:1030D000032F3FF44EAF96F80EE0DFF84CC1964553
:1030E00000F0FC80042F3FF444AF96F812E0DFF8C4
:1030F00038C1964500F0EA80052F3FF43AAFB67D1F
:10310000494F96427FF435AFBA8AEB5A9A427FF420
:1031100030AF474B1A68002A3FF42BAF01230790CA
:103120008DF81830ADF81A1006A89047A38821E74B
:1031300099464FF0000BD9F8683048469847D8F8C0
:1031400000700BF1010BBB4509F16C09F3D32FE6BD
:10315000344B85F85B621F6895F85A22A388002FCC
:103160003FF408AF02EB820202EB82029200A91840
:103170002D4E897896F802E08E4500F01981012FD6
:103180007FF6F8AE96F806E0DFF89CC08E4500F0BA
:103190000781022F3FF4EEAE96F80AE0DFF888C010
:1031A0008E4500F0F580032F3FF4E4AE96F80EE074
:1031B000DFF874C08E4500F0E380042F3FF4DAAEF0
:1031C00096F812E0DFF860C08E4500F0CA80052F47
:1031D0003FF4D0AEB67D144F8E427FF4CBAEB98AA9
:1031E000AA5A91427FF4C6AE114A1268002A3FF4EF
:1031F000C1AE0121ADF81A3007908DF8181006A85D
:103200009047A388B6E6BCF804C0A85A84457FF46A
:1032100071AD93E5BCF80CC0A85A84457FF47AAD33
:103220008CE500BFC0600020A4600020185E002074
:10323000145E0020BCF808C0A85A84457FF462AD33
:103240007CE5BCF810C0A85A84457FF46BAD75E5E9
:10325000B6F800C0A85A84457FF443AD6EE54B1E16
:10326000DBB203EBC3030EEB430E05EB0E035B8AED
:1032700001339BB283E4BCF810E035F803C0F44599
:103280007FF471AE7FE6BCF80CE035F803C0F4457E
:103290007FF460AE77E6BCF808E035F803C0F4458B
:1032A0007FF44FAE6FE6BCF804C035F803E0F44598
:1032B0007FF43EAE67E635F803C0B6F800E0F445AB
:1032C0007FF42DAE5FE674460127BBE4BCF810C066
:1032D00035F803E0F4457FF40FAF1AE7BCF80CC0F3
:1032E00035F803E0F4457FF4FDAE12E7BCF808C002
:1032F00035F803E0F4457FF4EBAE0AE7BCF804C010
:1033000035F803E0F4457FF4D9AE02E7B6F800C023
:1033100035F803E0F4457FF4C7AEFAE6BCF810C018
:10332000E85A84457FF4DAAA8CE5BCF80CC0E85A68
:1033300084457FF4CBAA85E5BCF808C0E85A8445EB
:103340007FF4BCAA7EE5B6F800C0E85A84457FF455
:10335000A4AA77E5BCF804C0E85A84457FF4A6AA7D
:1033600070E5BCF810E035F802C0F4457FF42FAFEB
:103370003AE790F85C2201321C4680F85C226AE44D
:10338000BCF80CC035F802E0F4457FF416AF2BE72B
:10339000BCF808C035F802E0F4457FF404AF23E739
:1033A000BCF804E035F802C0F4457FF4F2AE1BE748
:1033B000B6F800C035F802E0F4457FF4E0AE13E75C
:1033C000DDF804909346D9F8683048469847D8F815
:1033D00000700BF1010BBB4509F16C09F3D300231D
:1033E000A488CAF80030FFF782BA95F85C3201333E
:1033F000744685F85C322EE48A8AEB5A9A427FF44E
:10340000D1AA1B4B1B68002B3FF4CCAA01220790CA
:10341000ADF81A408DF8182006A89847FFF7C2BAF1
:10342000B8F800E0E95A8E457FF495AAE9E77446BA
:103430000127FFF75CBAB1F810E0E95A8E457FF436
:10344000AAAADEE7B1F80CE0E95A8E457FF49BAA00
:10345000D7E7B1F808E0E95A8E457FF48CAAD0E7A7
:10346000B1F804E0E95A8E457FF47DAAC9E700BFB0
:10347000145E00208FDF70479EDF7047ADDF70471E
:10348000B8B110B417221B2400238161028042804E
:10349000C2800281C2810282047104734473047584
:1034A00044758372C3728374C3745DF8044B184609
:1034B00070470E20704700BFF0B58D88012D83B096
:1034C00001D903B0F0BD0B88212B044673D01BD962
:1034D0003A2B00F0B080552B00F08780222B23D0B0
:1034E000EE00A3199B7A002BEBD0A3192846D988AC
:1034F000FFF7C2FF00285AD01128E2D002466B49DC
:103500000120FCF7FDF9DCE7102B23D0112BE7D1CC
:1035100000EBC503002117201B22D8801881997267
:10352000D9721A735A73CCE7EE0087190A7A7A7344
:103530008369002B39D000214DF67A2EADF80410A6
:10354000ADF8025069468DF80420ADF800E09847C8
:10355000BB7AC8E7EE00871903793B73CB7B012B5D
:1035600000F08680022B00F08C80F9883B898B422A
:10357000C0F08A803B7B7A7B9A4216D24FF0000ED5
:103580009BB2724669462846ADF80030ADF802306D
:10359000ADF804E0ADF806E0FFF76CFF28B1034694
:1035A0002A4643490120FCF709FABB7A9BE701222E
:1035B0009872DA7285E7EE0087190A7A3B7B002061
:1035C000934228BF13460190024669462846ADF84B
:1035D0000030ADF80230FFF74DFF0028E5D002467D
:1035E00034490120FCF78CF9DFE7EE00CB8887191E
:1035F000172BF98838BF17238B4228BF0B460022B0
:103600003B81BA722846FFF739FF002833D1FB7A95
:10361000002BCAD1A369002BC7D040F677213A8985
:10362000ADF80010ADF80250ADF804206946204610
:103630009847BB7A57E700EBC5064A89F38893425F
:1036400028BF1346172B38BF1723338182695AB11D
:10365000F17A49B140F67721ADF80010ADF802508B
:10366000ADF80430694690470023F372B37228E73F
:103670000188F9807AE702460F490120FCF740F9FA
:10368000C5E74188F98071E72846FFF7F5FE10B9D4
:103690000123FB726EE7112802D10123BB7269E797
:1036A000024602490120FCF72BF963E7984E02001D
:1036B000F44E0200C04F0200684F02000649074A5C
:1036C000074B9B1A03DD043BC858D050FBDC00F0CD
:1036D00013F8FBF7C3FD000024520200184000203D
:1036E00008420020FEE7FEE7FEE7FEE7FEE7FEE712
:1036F000FEE7FEE7FEE7FEE7F0B4BA4B1A78062ACB
:103700001BD0B94AD2F8883043F47003C2F888302D
:10371000BFF34F8FBFF36F8F4FF01023D3F800220A
:10372000002AC0F22D81D3F80432002BC0F2288188
:10373000AE4BAF4A1A60F0BC704704331B681B07DE
:10374000DFD1AC4B1B6803F0F002302A00F0088197
:1037500003F0E003402B00F00381A64B1B6803F04D
:10376000F003302B00F0EE80A24B1B6803F0F00258
:10377000302A00F0D78003F0E003402B00F0D28025
:103780009C4B1B6803F0F003302B00F0BB80994B7F
:103790001B6803F0F002302A00F0A08003F0E00381
:1037A000402B00F09B80934B1B6803F0F003302B01
:1037B00000F086808F4B1B6803F0F003302B68D03D
:1037C0008C4B1B6803F0F003502B10D0894B1B6807
:1037D00003F0F002302A03D003F0E003402B90D135
:1037E000854B864A1B6803F04F03136089E74FF04F
:1037F0008052834BD2F80414C3F82015D2F8081471
:10380000C3F82415D2F80C14C3F82815D2F81014F4
:10381000C3F82C15D2F81414C3F83015D2F81814C4
:10382000C3F83415D2F81C14C3F84015D2F820148C
:10383000C3F84415D2F82414C3F84815D2F8281454
:10384000C3F84C15D2F82C14C3F85015D2F8301424
:10385000C3F85415D2F83414C3F86015D2F83814EC
:10386000C3F86415D2F83C14C3F86815D2F84014B4
:103870005C48C3F86C15D2F844140278C3F870158C
:10388000062A7FF43EAF5F4B1B681A077FF439AFFF
:103890009CE75D4E5D4C5E495E4B0527012500208F
:1038A0003F223760256008601A604E4B1B78062B5C
:1038B0007FF427AF534B1B6819077FF422AF7FE7D4
:1038C000484B554A1B780321062B11607FF419AF32
:1038D0004C4B1B6818077FF414AF6BE74FF0804325
:1038E0000022C3F80C21C3F81021C3F838253D4B42
:1038F0001B78062B7FF405AF424B1B681C077FF437
:1039000000AF50E74549374ACB68127823F08073FF
:10391000062ACB607FF4F5AE3A4B1B681D077FF497
:10392000F0AE34E73E4B2F4A1B6812783D49C3F393
:103930004233062A0B60B8D1324B1B681E077FF456
:10394000E0AE1DE7274B384A1B7838491160062B3B
:103950007FF4D7AE2B4B1B681F077FF4D2AE03E773
:10396000334B204A1B6812783249C3F30423062ADA
:103970000B60BCD1234B1B681B073FF4EEAEC0E6C7
:103980002D4B0122C3F80425D3F80024002AFBD0D4
:103990004FF0102315222849C3F80022D1F8003433
:1039A000002BFBD04FF0102315222349C3F804222B
:1039B000D1F80024204B002AFAD00022C3F80425B5
:1039C000D3F80024002AFBD0BFF34F8F06491B4BCE
:1039D000CA6802F4E0621343CB60BFF34F8F00BFAD
:1039E000FDE700BFE00F00F000ED00E08C4000209C
:1039F0000090D003E80F00F058020010E40E0040E1
:103A000000C00040E40F00F010560040885600400F
:103A10001856004014560040A0050040F0ED00E0AC
:103A2000440200103C05004074C007400DF0ADBAE0
:103A3000240300104035014000E001400400FA0575
:103A40009ADF70479CDF704762DF70470B78002B6E
:103A50003AD12DE9F0478C88024641F22350844246
:103A600084B002D004B0BDE8F0878C79107B84422A
:103A7000F8D148880D7AADF8060001208DF80400D1
:103A800075B3BDF80CA0BDF80A80BDF808C0994612
:103A90009E46184641F2245641F225570AE0BC42A0
:103AA00003D1B1F816A04FF0010E0130A84201F188
:103AB00012010AD0CC89B442F1D10123B1F81680A9
:103AC000B1F818C09946F0E77047BEF1000F1CD15D
:103AD000B9F1000F01D0ADF80A800BB1ADF808C004
:103AE00011884FF6FF7399420AD0536843B953883F
:103AF00033B904AB53F8080DC2F802009B88D38099
:103B00001046936801A99847ACE7ADF80CA0DFE731
:103B100070B5144B86B09A6805460E461868596809
:103B2000DB6802AC0FC4D5B1CEB13368BBB10023A2
:103B30004FF6FF7285E80C003368AB6002A805F110
:103B40000C01FFF781FF58B906A841F2235320F872
:103B5000143D2B7B8DF80630FEF7A6FD00E00E200D
:103B600006B070BD2050020030B585B038B131B11B
:103B70000B88382B26D0392B03D0112B18D005B049
:103B800030BD04888B88A342F9D14D898488A54231
:103B9000F5D1CC89012CF2D1097C8DF808100221D5
:103BA000ADF806308DF80410836801A99847E6E760
:103BB0008B8801889942E2D14FF6FF71002380E89B
:103BC0000A00DCE702888B889A42D8D10E4C0F4A53
:103BD000236812689342D2D003EB83000C4D80001F
:103BE00029188A7852B98988285AFFF729FF0028AE
:103BF000C5D1013303F007032360C0E70831285A19
:103C0000FFF720FFF3E700BFC460002068610020D9
:103C1000C8600020002836D0F8B501884FF6FF7341
:103C2000994201D10820F8BD1B4FB0F802E03B6873
:103C30001A4E1B4D03EB83008000013303F0070293
:103C40002C6831523318022100203A60D9811F1D9F
:103C500001219442A3F80AE01F61988158711972FA
:103C60001971997016D004EB84039B00F1188A78BF
:103C70005AB98988F05AFFF7E3FE58B9013404F0C5
:103C800007042C60F8BD0E2070470831F05AFFF78A
:103C9000D9FEF2E70020F8BD68610020C86000206E
:103CA000C4600020002836D0F8B502884FF6FF73B4
:103CB0009A4201D10820F8BD1B4C1C4F2368B0F874
:103CC00006E01B4D03EB8306B600BA1901331171F0
:103CD000111D11610021918103F00703022111726E
:103CE000236001212C68A2F80AE0D1810088B85332
:103CF000A342917016D004EB84039B00F9188A78D4
:103D00005AB98988F85AFFF79BFE58B9013404F074
:103D100007042C60F8BD0E2070470831F85AFFF7F1
:103D200091FEF2E70020F8BD68610020C860002025
:103D3000C460002040B1018022B11368C0F8023095
:103D40009388C380002070470E20704748DF70477B
:103D500010DF704760DF704761DF7047FCF74CB8D9
:103D60002DE9F047DFF8B090284ED9F80040DFF891
:103D7000AC80274FB4FA84F482B064090025B5B949
:103D80003378DFF888A07BB901A8FFF7DFFF0528AB
:103D900034D020B3FCF720F86CB13378DFF86CA096
:103DA00001240025002BEFD002B0BDE8F087002CE5
:103DB000FAD1DFF858A09AF80030002BF4D102A90C
:103DC0003A68B8F8003021F8043D1046FFF7C4FF08
:103DD000052817D068B1FBF7FFFF0024CFE7019853
:103DE000FCF798FE0B4B1B68002BD5D00198984729
:103DF000D2E71046D9F800309847EEE7002CD3D12F
:103E00000125D8E7002DC8D0CEE700BF6C610020A7
:103E10007061002074610020786100206E610020D4
:103E2000014B1878704700BF6D61002011B111F08F
:103E3000030F01D007207047F8B51A4F1A4E1B4DDB
:103E40001B4C396032802B602368DB0708D50123C7
:103E5000C4F880301749FFF77BFF30B12360F8BD0D
:103E60001449FFF775FF00B1F8BD134B01221A701A
:103E7000FCF760FE0E4A92F81633C3F34113012B90
:103E80000CD90E4B986818B94FF480031360F8BD35
:103E90001A6842F480021A600020F8BD42F2020063
:103EA000F8BD00BF706100206E6100207C610020C1
:103EB00000E100E05D3D02006D6100208C610020AA
:103EC000034618B1024A0020136070470E20704765
:103ED0007861002008B5094B1B6833B1984700B9D9
:103EE00008BDBDE80840FBF777BF054B1B78002BEA
:103EF000F6D0BDE80840FFF733BF00BF7C6100206B
:103F00006D61002082B0034B0193019B0360002090
:103F100002B070471840002010B5034682B002A8D6
:103F20001A6840F8042DFFF715FF019A1B689342A9
:103F300004460BD110B9204602B010BD02460D490F
:103F40000120FBF7DDFC204602B010BD0A4902202B
:103F5000FBF7D6FC4FF08052019BD2F80C210749A9
:103F6000C3EB822202F100520220FBF7C9FC20467B
:103F700002B010BD985002003050020064500200A0
:103F800053B94AB9002908BF00281CBF4FF0FF31C0
:103F90004FF0FF3000F07EB9ADF1080C6DE904CEB2
:103FA00000F006F8DDF804E0DDE9022304B0704714
:103FB0002DE9F0478C460E460446089D002B50D153
:103FC0008A4217466CD9B2FA82FEBEF1000F0BD0BE
:103FD000CEF1200420FA04F401FA0EF644EA060CAD
:103FE00002FA0EF700FA0EF44FEA1749220CBCFB56
:103FF000F9F01FFA87F809FB10C642EA064600FBF3
:1040000008F3B34209D9F61900F1FF3280F022819A
:10401000B34240F21F8102383E44F61AA2B2B6FB08
:10402000F9F309FB136642EA064403FB08F8A045CE
:1040300009D9E41903F1FF3280F00A81A04540F26A
:104040000781023B3C44C8EB040443EA00400021E2
:10405000002D62D024FA0EF400232C606B60BDE8C2
:10406000F0878B4207D9002D55D0002185E841000B
:104070000846BDE8F087B3FA83F1002940F090804C
:10408000B34202D3824200F2F880841A66EB030640
:104090000120B446002D40D085E81010BDE8F0871F
:1040A00012B90127B7FBF2F7B7FA87FEBEF1000F8E
:1040B00035D1F31B4FEA17481FFA87FC0121B3FBE8
:1040C000F8F0220C08FB103642EA06460CFB00F31F
:1040D000B34207D9F61900F1FF3202D2B34200F21F
:1040E000CE801046F61AA2B2B6FBF8F308FB1366B0
:1040F00042EA06440CFB03FCA44507D9E41903F18A
:10410000FF3202D2A44500F2B5801346CCEB040482
:1041100043EA00409CE729462846BDE8F087CEF1F7
:10412000200106FA0EF307FA0EF720FA01F94FEA1A
:104130001748CE4049EA0309B6FBF8FA4FEA19449A
:1041400008FB1A661FFA87FC44EA06430AFB0CF2D6
:104150009A4200FA0EF40AD9DB190AF1FF3180F015
:1041600087809A4240F28480AAF1020A3B449B1A5B
:104170001FFA89F9B3FBF8F108FB113349EA03434D
:1041800001FB0CF69E4207D9DB1901F1FF326BD21D
:104190009E4269D902393B449B1B41EA0A418EE7A2
:1041A000C1F1200E22FA0EF48B40234320FA0EF7C1
:1041B00006FA01F44FEA134C26FA0EF63C43B6FB1E
:1041C000FCF9270C0CFB19661FFA83F847EA064630
:1041D00009FB08F7B74202FA01F200FA01FA08D91E
:1041E000F61809F1FF3041D2B7423FD9A9F10209CF
:1041F0001E44F61BA0B2B6FBFCF40CFB146640EAAE
:10420000064704FB08F8B84507D9FF1804F1FF304A
:1042100028D2B84526D9023C1F4444EA0940C8EBDD
:104220000707A0FB02894F4544464E4614D329D0C8
:1042300065B3BAEB040367EB060707FA0EFECB4043
:10424000CF404EEA030385E888000021BDE8F087EF
:104250001346F8E61046E0E6B8EB020469EB030605
:104260000138E5E70446D8E7114695E78146C0E7FF
:104270008A467CE7023B3C4448E708460AE70238A6
:104280003E442FE7C245E7D33E46D1E72946BDE885
:10429000F08700BF704700BF034B1B68186A034BD1
:1042A000002808BF18467047784000209040002042
:1042B00008B5034B1868FFF7EFFFD0F8EC0008BD16
:1042C0007840002082B001B901A93AB143B1137816
:1042D0000B601278101C18BF012003E0104601E0AB
:1042E0006FF0010002B0704710B5013902449042EE
:1042F00007D010F8013B11F8014FA342F7D0181B6B
:1043000010BD002010BD10B5431E0A44914204D0D8
:1043100011F8014B03F8014FF8E710BD0CB430B5AC
:10432000164B0C1E9DB01D6804DA8B232B604FF0DA
:10433000FF301EE04FF40273ADF8143014BF04F1E7
:10434000FF332346049307934FF6FF7302900690C2
:10435000ADF81630209A21AB02A92846019300F04F
:104360007DF8431CBCBF8B232B6014B1029B002241
:104370001A701DB0BDE8304002B070477840002090
:10438000034613F8012B002AFBD1181A0138704795
:1043900049B1FF2A85BF8A2303600A704FF0FF30BE
:1043A00098BF01207047084670472DE9F0478E6896
:1043B0009E4282460C46914698463ED88A8912F41F
:1043C000906F3AD0256809696F1A6569022305EB79
:1043D000450595FBF3F57B1C43449D4238BF1D46C4
:1043E00053050FD5294600F085FB064698B13A469D
:1043F0002169FFF788FFA38923F4906343F08003CA
:10440000A38113E02A4600F0D3FB064670B9216968
:10441000504600F021FB0C23CAF80030A38943F07A
:104420004003A3814FF0FF30BDE8F087266165614E
:104430003E44ED1B2660A5604646464528BF4646DD
:1044400032464946206800F0EBFAA3689B1BA36044
:1044500023681E4426600020BDE8F0872DE9F04F58
:104460009DB0804603938B891C060D4616460DD5DC
:104470000B695BB9402100F03DFB2860286118B949
:104480000C23C8F80030CDE040236B610023099372
:1044900020238DF82930DFF89CB130238DF82A30A5
:1044A00037463C4614F8013B1BB9B7EB060910D060
:1044B00003E0252BF9D02746F3E74B463246294641
:1044C0004046FFF772FF013000F0A780099B4B4484
:1044D00009933B78002B00F0A08000234FF0FF32BF
:1044E00004930793059206938DF853301A9301268F
:1044F000052221784E4800F043FA671C049B38B12E
:104500004B4A801A06FA00F0184304903C46EFE745
:10451000D90644BF20228DF853201A0744BF2B220E
:104520008DF8532022782A2A03D0079A00210A20E6
:104530000BE0039A111D12680391002A10DA52420F
:1045400043F00200079204900BE0274601343B78C9
:10455000303B092B03D800FB02320121F5E701B102
:1045600007923B782E2B1ED17B782A2B0AD1039BF6
:104570001A1D1B680392002BB8BF4FF0FF330237A0
:10458000059310E000230593781C19460A2407467A
:1045900001303A78303A092A03D804FB012101237B
:1045A000F5E703B1059103223978224800F0E8F9D4
:1045B00040B14023CBEB000003FA00F0049B18430A
:1045C0000490013739781C488DF8281006227E1C8B
:1045D00000F0D6F988B1194B33B9039B073323F0A8
:1045E00007030833039314E003AB00932A46144BEC
:1045F00004A94046AFF3008007E003AB00932A46CE
:104600000F4B04A9404600F093F8B0F1FF3F8246FB
:1046100003D0099B5344099342E7AB895B0601D45D
:10462000099801E04FF0FF301DB0BDE8F08F00BFEA
:10463000E3510200E9510200ED51020000000000C8
:10464000AB4302002DE9F04791461F460A698B688B
:10465000DDF820809342B8BF1346C9F8003091F8C6
:10466000432006460C4612B10133C9F800302368D6
:10467000990642BFD9F800300233C9F800302568E6
:1046800015F0060510D104F1190A07E0012352467E
:1046900039463046C04701301AD00135E368D9F8B1
:1046A00000209B1A9D42F1DB94F8433022680033CE
:1046B00018BF012392060FD5E1185A1C302081F84B
:1046C0004300224494F8451082F84310023303E07B
:1046D0004FF0FF30BDE8F08704F143023946304621
:1046E000C0470130F4D02268D9F80050E36802F0E6
:1046F0000602042A08BF5D1B2269A3680CBF25EAD5
:10470000E57500259342C4BF9B1AED184FF00009D0
:104710001A344D4509D00123224639463046C04758
:104720000130D5D009F10109F3E70020BDE8F08799
:104730002DE9F04317460A7E85B06E2A9846064654
:104740000C460C9B01F1430E00F0AE8011D8632A99
:1047500022D009D8002A00F0BB80582A40F0CA8035
:1047600081F84520834955E0642A1ED0692A1CD06F
:10477000C0E0732A00F0B08009D86F2A2ED0702ACA
:1047800040F0B8800A6842F020020A603EE0752AD4
:1047900024D0782A3AD0ADE01A6801F14205111D03
:1047A0001960136884F84230A8E021681A6811F093
:1047B000800F02D0111D196008E011F0400F02F1C6
:1047C0000401196002D0B2F9003000E01368002B38
:1047D0003CDA2D225B4284F8432037E021681A68D6
:1047E00011F0800F02D0111D196007E011F0400F89
:1047F00002F10401196001D0138800E01368227EE1
:104800005C496F2A14BF0A2208221BE078225A4909
:1048100084F845202268186812F0800F00F1040522
:104820001D6003D1550601D5038800E00368D00759
:1048300044BF42F0200222601BB9226822F020020D
:1048400022601022002084F8430001E049490A2236
:104850006568A560002D08DB206820F0040020605A
:104860002BB9002D7DD175460CE0002B79D0754613
:10487000B3FBF2F002FB1033CB5C05F8013D0346BD
:104880000028F5D1082A0BD12368DA0708D5236957
:1048900062689A42DEBF302305F8013C05F1FF351E
:1048A000C5EB0E0323612EE008681A68496910F011
:1048B000800F03D0101D1860136808E010F0400F3F
:1048C00002F104001860136801D0198000E019603B
:1048D00000232361754616E01A68111D19601568DA
:1048E00062680021284600F04BF808B1401B606068
:1048F000636804E004F1420584F842200123236147
:10490000002384F84330CDF800803B4603AA2146BB
:104910003046FFF797FE013002D14FF0FF3026E01E
:1049200023692A4639463046C0470130F5D023680E
:104930009B0710D5002504F1190907E001234A4619
:1049400039463046C0470130E7D00135E368039A65
:104950009B1A9D42F2DBE068039B9842B8BF184661
:1049600005E00B7884F8423004F142058AE705B08F
:10497000BDE8F083F451020005520200000000007F
:1049800001F0FF01102A2BDB10F0070F08D010F800
:10499000013B013A8B422DD010F0070F42B3F6D104
:1049A000F0B441EA012141EA014122F007047FF01D
:1049B00000070023F0E80256083C85EA010586EA74
:1049C000010685FA47F5A3FA87F586FA47F6A5FAB0
:1049D00087F68EB9EED1F0BC01F0FF0102F00702BC
:1049E00032B110F8013B013A83EA010313B1F8D167
:1049F0000020704701387047002D06BF3546033848
:104A0000073815F0010F07D1013015F4807F02BF80
:104A1000013015F4C03F0130F0BC0138704700BFD1
:104A2000884210B501EB020301D8421E0BE0984208
:104A3000FBD28118D21AD34204D013F8014D01F8E9
:104A4000014DF8E710BD994204D011F8014B02F86E
:104A5000014FF8E710BD000038B50546002946D0E3
:104A600051F8043C0C1F002BB8BFE41800F0D6F836
:104A70001F4A1368114613B96360146032E0A34201
:104A80000ED92268A018834204BF18685B6863606F
:104A900004BF121822600C6024E0A24203D813461F
:104AA0005A68002AF9D118681918A1420BD1216857
:104AB000014458188242196014D1106852685A6033
:104AC000014419600EE002D90C232B600AE0216832
